{
  "_format": "hh-sol-artifact-1",
  "contractName": "LERC20Storage",
  "sourceName": "contracts/Lend/token/LERC20Storage.sol",
  "abi": [
    {
      "inputs": [],
      "name": "underlying",
      "outputs": [
        {
          "internalType": "address",
          "name": "",
          "type": "address"
        }
      ],
      "stateMutability": "view",
      "type": "function"
    }
  ],
  "bytecode": "0x6080604052348015600f57600080fd5b5060948061001e6000396000f3fe6080604052348015600f57600080fd5b506004361060285760003560e01c80636f307dc314602d575b600080fd5b6033604f565b604080516001600160a01b039092168252519081900360200190f35b6000546001600160a01b03168156fea2646970667358221220fcfc1af4833d8ae9dfb92cfa7468b4ef6c263b262249cca155112a2dbcd0f2d164736f6c634300060c0033",
  "linkReferences": {},
  "deployedLinkReferences": {}
}