{
  "_format": "hh-sol-artifact-1",
  "contractName": "Comptroller",
  "sourceName": "contracts/Lend/comptroller/Comptroller.sol",
  "abi": [
    {
      "anonymous": false,
      "inputs": [
        {
          "indexed": false,
          "internalType": "string",
          "name": "action",
          "type": "string"
        },
        {
          "indexed": false,
          "internalType": "bool",
          "name": "pauseState",
          "type": "bool"
        }
      ],
      "name": "ActionPaused",
      "type": "event"
    },
    {
      "anonymous": false,
      "inputs": [
        {
          "indexed": false,
          "internalType": "contract LToken",
          "name": "lToken",
          "type": "address"
        },
        {
          "indexed": false,
          "internalType": "string",
          "name": "action",
          "type": "string"
        },
        {
          "indexed": false,
          "internalType": "bool",
          "name": "pauseState",
          "type": "bool"
        }
      ],
      "name": "ActionPaused",
      "type": "event"
    },
    {
      "anonymous": false,
      "inputs": [
        {
          "indexed": false,
          "internalType": "uint256",
          "name": "error",
          "type": "uint256"
        },
        {
          "indexed": false,
          "internalType": "uint256",
          "name": "info",
          "type": "uint256"
        },
        {
          "indexed": false,
          "internalType": "uint256",
          "name": "detail",
          "type": "uint256"
        }
      ],
      "name": "Failure",
      "type": "event"
    },
    {
      "anonymous": false,
      "inputs": [
        {
          "indexed": false,
          "internalType": "contract LToken",
          "name": "lToken",
          "type": "address"
        },
        {
          "indexed": false,
          "internalType": "address",
          "name": "account",
          "type": "address"
        }
      ],
      "name": "MarketEntered",
      "type": "event"
    },
    {
      "anonymous": false,
      "inputs": [
        {
          "indexed": false,
          "internalType": "contract LToken",
          "name": "lToken",
          "type": "address"
        },
        {
          "indexed": false,
          "internalType": "address",
          "name": "account",
          "type": "address"
        }
      ],
      "name": "MarketExited",
      "type": "event"
    },
    {
      "anonymous": false,
      "inputs": [
        {
          "indexed": false,
          "internalType": "contract LToken",
          "name": "lToken",
          "type": "address"
        }
      ],
      "name": "MarketListed",
      "type": "event"
    },
    {
      "anonymous": false,
      "inputs": [
        {
          "indexed": true,
          "internalType": "contract LToken",
          "name": "lToken",
          "type": "address"
        },
        {
          "indexed": false,
          "internalType": "uint256",
          "name": "newBorrowCap",
          "type": "uint256"
        }
      ],
      "name": "NewBorrowCap",
      "type": "event"
    },
    {
      "anonymous": false,
      "inputs": [
        {
          "indexed": false,
          "internalType": "address",
          "name": "oldBorrowCapGuardian",
          "type": "address"
        },
        {
          "indexed": false,
          "internalType": "address",
          "name": "newBorrowCapGuardian",
          "type": "address"
        }
      ],
      "name": "NewBorrowCapGuardian",
      "type": "event"
    },
    {
      "anonymous": false,
      "inputs": [
        {
          "indexed": false,
          "internalType": "uint256",
          "name": "oldCloseFactorMantissa",
          "type": "uint256"
        },
        {
          "indexed": false,
          "internalType": "uint256",
          "name": "newCloseFactorMantissa",
          "type": "uint256"
        }
      ],
      "name": "NewCloseFactor",
      "type": "event"
    },
    {
      "anonymous": false,
      "inputs": [
        {
          "indexed": false,
          "internalType": "contract LToken",
          "name": "lToken",
          "type": "address"
        },
        {
          "indexed": false,
          "internalType": "uint256",
          "name": "oldCollateralFactorMantissa",
          "type": "uint256"
        },
        {
          "indexed": false,
          "internalType": "uint256",
          "name": "newCollateralFactorMantissa",
          "type": "uint256"
        }
      ],
      "name": "NewCollateralFactor",
      "type": "event"
    },
    {
      "anonymous": false,
      "inputs": [
        {
          "indexed": false,
          "internalType": "contract ILemdDistribution",
          "name": "oldLemdDistribution",
          "type": "address"
        },
        {
          "indexed": false,
          "internalType": "contract ILemdDistribution",
          "name": "newLemdDistribution",
          "type": "address"
        }
      ],
      "name": "NewLemdDistribution",
      "type": "event"
    },
    {
      "anonymous": false,
      "inputs": [
        {
          "indexed": false,
          "internalType": "uint256",
          "name": "oldLiquidationIncentiveMantissa",
          "type": "uint256"
        },
        {
          "indexed": false,
          "internalType": "uint256",
          "name": "newLiquidationIncentiveMantissa",
          "type": "uint256"
        }
      ],
      "name": "NewLiquidationIncentive",
      "type": "event"
    },
    {
      "anonymous": false,
      "inputs": [
        {
          "indexed": false,
          "internalType": "uint256",
          "name": "oldMaxAssets",
          "type": "uint256"
        },
        {
          "indexed": false,
          "internalType": "uint256",
          "name": "newMaxAssets",
          "type": "uint256"
        }
      ],
      "name": "NewMaxAssets",
      "type": "event"
    },
    {
      "anonymous": false,
      "inputs": [
        {
          "indexed": true,
          "internalType": "contract LToken",
          "name": "lToken",
          "type": "address"
        },
        {
          "indexed": false,
          "internalType": "uint256",
          "name": "newMintCap",
          "type": "uint256"
        }
      ],
      "name": "NewMintCap",
      "type": "event"
    },
    {
      "anonymous": false,
      "inputs": [
        {
          "indexed": false,
          "internalType": "address",
          "name": "oldPauseGuardian",
          "type": "address"
        },
        {
          "indexed": false,
          "internalType": "address",
          "name": "newPauseGuardian",
          "type": "address"
        }
      ],
      "name": "NewPauseGuardian",
      "type": "event"
    },
    {
      "anonymous": false,
      "inputs": [
        {
          "indexed": false,
          "internalType": "contract IPriceOracle",
          "name": "oldPriceOracle",
          "type": "address"
        },
        {
          "indexed": false,
          "internalType": "contract IPriceOracle",
          "name": "newPriceOracle",
          "type": "address"
        }
      ],
      "name": "NewPriceOracle",
      "type": "event"
    },
    {
      "anonymous": false,
      "inputs": [
        {
          "indexed": true,
          "internalType": "address",
          "name": "previousOwner",
          "type": "address"
        },
        {
          "indexed": true,
          "internalType": "address",
          "name": "newOwner",
          "type": "address"
        }
      ],
      "name": "OwnershipTransferred",
      "type": "event"
    },
    {
      "inputs": [],
      "name": "_borrowGuardianPaused",
      "outputs": [
        {
          "internalType": "bool",
          "name": "",
          "type": "bool"
        }
      ],
      "stateMutability": "view",
      "type": "function"
    },
    {
      "inputs": [],
      "name": "_mintGuardianPaused",
      "outputs": [
        {
          "internalType": "bool",
          "name": "",
          "type": "bool"
        }
      ],
      "stateMutability": "view",
      "type": "function"
    },
    {
      "inputs": [
        {
          "internalType": "address",
          "name": "newBorrowCapGuardian",
          "type": "address"
        }
      ],
      "name": "_setBorrowCapGuardian",
      "outputs": [],
      "stateMutability": "nonpayable",
      "type": "function"
    },
    {
      "inputs": [
        {
          "internalType": "contract LToken",
          "name": "lToken",
          "type": "address"
        },
        {
          "internalType": "bool",
          "name": "state",
          "type": "bool"
        }
      ],
      "name": "_setBorrowPaused",
      "outputs": [
        {
          "internalType": "bool",
          "name": "",
          "type": "bool"
        }
      ],
      "stateMutability": "nonpayable",
      "type": "function"
    },
    {
      "inputs": [
        {
          "internalType": "uint256",
          "name": "newCloseFactorMantissa",
          "type": "uint256"
        }
      ],
      "name": "_setCloseFactor",
      "outputs": [
        {
          "internalType": "uint256",
          "name": "",
          "type": "uint256"
        }
      ],
      "stateMutability": "nonpayable",
      "type": "function"
    },
    {
      "inputs": [
        {
          "internalType": "contract LToken",
          "name": "lToken",
          "type": "address"
        },
        {
          "internalType": "uint256",
          "name": "newCollateralFactorMantissa",
          "type": "uint256"
        }
      ],
      "name": "_setCollateralFactor",
      "outputs": [
        {
          "internalType": "uint256",
          "name": "",
          "type": "uint256"
        }
      ],
      "stateMutability": "nonpayable",
      "type": "function"
    },
    {
      "inputs": [
        {
          "internalType": "bool",
          "name": "state",
          "type": "bool"
        }
      ],
      "name": "_setDistributeLemdPaused",
      "outputs": [
        {
          "internalType": "bool",
          "name": "",
          "type": "bool"
        }
      ],
      "stateMutability": "nonpayable",
      "type": "function"
    },
    {
      "inputs": [
        {
          "internalType": "contract ILemdDistribution",
          "name": "newLemdDistribution",
          "type": "address"
        }
      ],
      "name": "_setLemdDistribution",
      "outputs": [
        {
          "internalType": "uint256",
          "name": "",
          "type": "uint256"
        }
      ],
      "stateMutability": "nonpayable",
      "type": "function"
    },
    {
      "inputs": [
        {
          "internalType": "uint256",
          "name": "newLiquidationIncentiveMantissa",
          "type": "uint256"
        }
      ],
      "name": "_setLiquidationIncentive",
      "outputs": [
        {
          "internalType": "uint256",
          "name": "",
          "type": "uint256"
        }
      ],
      "stateMutability": "nonpayable",
      "type": "function"
    },
    {
      "inputs": [
        {
          "internalType": "contract LToken[]",
          "name": "lTokens",
          "type": "address[]"
        },
        {
          "internalType": "uint256[]",
          "name": "newBorrowCaps",
          "type": "uint256[]"
        }
      ],
      "name": "_setMarketBorrowCaps",
      "outputs": [],
      "stateMutability": "nonpayable",
      "type": "function"
    },
    {
      "inputs": [
        {
          "internalType": "contract LToken[]",
          "name": "lTokens",
          "type": "address[]"
        },
        {
          "internalType": "uint256[]",
          "name": "newMintCaps",
          "type": "uint256[]"
        }
      ],
      "name": "_setMarketMintCaps",
      "outputs": [],
      "stateMutability": "nonpayable",
      "type": "function"
    },
    {
      "inputs": [
        {
          "internalType": "address",
          "name": "lToken",
          "type": "address"
        },
        {
          "internalType": "bool",
          "name": "status",
          "type": "bool"
        }
      ],
      "name": "_setMarketMinted",
      "outputs": [],
      "stateMutability": "nonpayable",
      "type": "function"
    },
    {
      "inputs": [
        {
          "internalType": "uint256",
          "name": "newMaxAssets",
          "type": "uint256"
        }
      ],
      "name": "_setMaxAssets",
      "outputs": [
        {
          "internalType": "uint256",
          "name": "",
          "type": "uint256"
        }
      ],
      "stateMutability": "nonpayable",
      "type": "function"
    },
    {
      "inputs": [
        {
          "internalType": "contract LToken",
          "name": "lToken",
          "type": "address"
        },
        {
          "internalType": "bool",
          "name": "state",
          "type": "bool"
        }
      ],
      "name": "_setMintPaused",
      "outputs": [
        {
          "internalType": "bool",
          "name": "",
          "type": "bool"
        }
      ],
      "stateMutability": "nonpayable",
      "type": "function"
    },
    {
      "inputs": [
        {
          "internalType": "address",
          "name": "newPauseGuardian",
          "type": "address"
        }
      ],
      "name": "_setPauseGuardian",
      "outputs": [
        {
          "internalType": "uint256",
          "name": "",
          "type": "uint256"
        }
      ],
      "stateMutability": "nonpayable",
      "type": "function"
    },
    {
      "inputs": [
        {
          "internalType": "contract IPriceOracle",
          "name": "newOracle",
          "type": "address"
        }
      ],
      "name": "_setPriceOracle",
      "outputs": [
        {
          "internalType": "uint256",
          "name": "",
          "type": "uint256"
        }
      ],
      "stateMutability": "nonpayable",
      "type": "function"
    },
    {
      "inputs": [
        {
          "internalType": "bool",
          "name": "state",
          "type": "bool"
        }
      ],
      "name": "_setSeizePaused",
      "outputs": [
        {
          "internalType": "bool",
          "name": "",
          "type": "bool"
        }
      ],
      "stateMutability": "nonpayable",
      "type": "function"
    },
    {
      "inputs": [
        {
          "internalType": "bool",
          "name": "state",
          "type": "bool"
        }
      ],
      "name": "_setTransferPaused",
      "outputs": [
        {
          "internalType": "bool",
          "name": "",
          "type": "bool"
        }
      ],
      "stateMutability": "nonpayable",
      "type": "function"
    },
    {
      "inputs": [
        {
          "internalType": "contract LToken",
          "name": "lToken",
          "type": "address"
        }
      ],
      "name": "_supportMarket",
      "outputs": [
        {
          "internalType": "uint256",
          "name": "",
          "type": "uint256"
        }
      ],
      "stateMutability": "nonpayable",
      "type": "function"
    },
    {
      "inputs": [
        {
          "internalType": "address",
          "name": "",
          "type": "address"
        },
        {
          "internalType": "uint256",
          "name": "",
          "type": "uint256"
        }
      ],
      "name": "accountAssets",
      "outputs": [
        {
          "internalType": "contract LToken",
          "name": "",
          "type": "address"
        }
      ],
      "stateMutability": "view",
      "type": "function"
    },
    {
      "inputs": [
        {
          "internalType": "uint256",
          "name": "",
          "type": "uint256"
        }
      ],
      "name": "allMarkets",
      "outputs": [
        {
          "internalType": "contract LToken",
          "name": "",
          "type": "address"
        }
      ],
      "stateMutability": "view",
      "type": "function"
    },
    {
      "inputs": [
        {
          "internalType": "address",
          "name": "lToken",
          "type": "address"
        },
        {
          "internalType": "address",
          "name": "borrower",
          "type": "address"
        },
        {
          "internalType": "uint256",
          "name": "borrowAmount",
          "type": "uint256"
        }
      ],
      "name": "borrowAllowed",
      "outputs": [
        {
          "internalType": "uint256",
          "name": "",
          "type": "uint256"
        }
      ],
      "stateMutability": "nonpayable",
      "type": "function"
    },
    {
      "inputs": [],
      "name": "borrowCapGuardian",
      "outputs": [
        {
          "internalType": "address",
          "name": "",
          "type": "address"
        }
      ],
      "stateMutability": "view",
      "type": "function"
    },
    {
      "inputs": [
        {
          "internalType": "address",
          "name": "",
          "type": "address"
        }
      ],
      "name": "borrowCaps",
      "outputs": [
        {
          "internalType": "uint256",
          "name": "",
          "type": "uint256"
        }
      ],
      "stateMutability": "view",
      "type": "function"
    },
    {
      "inputs": [
        {
          "internalType": "address",
          "name": "lToken",
          "type": "address"
        },
        {
          "internalType": "address",
          "name": "borrower",
          "type": "address"
        },
        {
          "internalType": "uint256",
          "name": "borrowAmount",
          "type": "uint256"
        }
      ],
      "name": "borrowVerify",
      "outputs": [],
      "stateMutability": "nonpayable",
      "type": "function"
    },
    {
      "inputs": [
        {
          "internalType": "address",
          "name": "account",
          "type": "address"
        },
        {
          "internalType": "contract LToken",
          "name": "lToken",
          "type": "address"
        }
      ],
      "name": "checkMembership",
      "outputs": [
        {
          "internalType": "bool",
          "name": "",
          "type": "bool"
        }
      ],
      "stateMutability": "view",
      "type": "function"
    },
    {
      "inputs": [],
      "name": "closeFactorMantissa",
      "outputs": [
        {
          "internalType": "uint256",
          "name": "",
          "type": "uint256"
        }
      ],
      "stateMutability": "view",
      "type": "function"
    },
    {
      "inputs": [],
      "name": "distributeLemdPaused",
      "outputs": [
        {
          "internalType": "bool",
          "name": "",
          "type": "bool"
        }
      ],
      "stateMutability": "view",
      "type": "function"
    },
    {
      "inputs": [
        {
          "internalType": "address[]",
          "name": "lTokens",
          "type": "address[]"
        }
      ],
      "name": "enterMarkets",
      "outputs": [
        {
          "internalType": "uint256[]",
          "name": "",
          "type": "uint256[]"
        }
      ],
      "stateMutability": "nonpayable",
      "type": "function"
    },
    {
      "inputs": [
        {
          "internalType": "address",
          "name": "lTokenAddress",
          "type": "address"
        }
      ],
      "name": "exitMarket",
      "outputs": [
        {
          "internalType": "uint256",
          "name": "",
          "type": "uint256"
        }
      ],
      "stateMutability": "nonpayable",
      "type": "function"
    },
    {
      "inputs": [
        {
          "internalType": "address",
          "name": "account",
          "type": "address"
        }
      ],
      "name": "getAccountLiquidity",
      "outputs": [
        {
          "internalType": "uint256",
          "name": "",
          "type": "uint256"
        },
        {
          "internalType": "uint256",
          "name": "",
          "type": "uint256"
        },
        {
          "internalType": "uint256",
          "name": "",
          "type": "uint256"
        }
      ],
      "stateMutability": "view",
      "type": "function"
    },
    {
      "inputs": [],
      "name": "getAllMarkets",
      "outputs": [
        {
          "internalType": "contract LToken[]",
          "name": "",
          "type": "address[]"
        }
      ],
      "stateMutability": "view",
      "type": "function"
    },
    {
      "inputs": [
        {
          "internalType": "address",
          "name": "account",
          "type": "address"
        }
      ],
      "name": "getAssetsIn",
      "outputs": [
        {
          "internalType": "contract LToken[]",
          "name": "",
          "type": "address[]"
        }
      ],
      "stateMutability": "view",
      "type": "function"
    },
    {
      "inputs": [
        {
          "internalType": "address",
          "name": "account",
          "type": "address"
        },
        {
          "internalType": "address",
          "name": "lTokenModify",
          "type": "address"
        },
        {
          "internalType": "uint256",
          "name": "redeemTokens",
          "type": "uint256"
        },
        {
          "internalType": "uint256",
          "name": "borrowAmount",
          "type": "uint256"
        }
      ],
      "name": "getHypotheticalAccountLiquidity",
      "outputs": [
        {
          "internalType": "uint256",
          "name": "",
          "type": "uint256"
        },
        {
          "internalType": "uint256",
          "name": "",
          "type": "uint256"
        },
        {
          "internalType": "uint256",
          "name": "",
          "type": "uint256"
        }
      ],
      "stateMutability": "view",
      "type": "function"
    },
    {
      "inputs": [],
      "name": "initialize",
      "outputs": [],
      "stateMutability": "nonpayable",
      "type": "function"
    },
    {
      "inputs": [
        {
          "internalType": "address",
          "name": "lToken",
          "type": "address"
        }
      ],
      "name": "isMarketListed",
      "outputs": [
        {
          "internalType": "bool",
          "name": "",
          "type": "bool"
        }
      ],
      "stateMutability": "view",
      "type": "function"
    },
    {
      "inputs": [
        {
          "internalType": "address",
          "name": "lToken",
          "type": "address"
        }
      ],
      "name": "isMarketMinted",
      "outputs": [
        {
          "internalType": "bool",
          "name": "",
          "type": "bool"
        }
      ],
      "stateMutability": "view",
      "type": "function"
    },
    {
      "inputs": [
        {
          "internalType": "address",
          "name": "",
          "type": "address"
        }
      ],
      "name": "lTokenBorrowGuardianPaused",
      "outputs": [
        {
          "internalType": "bool",
          "name": "",
          "type": "bool"
        }
      ],
      "stateMutability": "view",
      "type": "function"
    },
    {
      "inputs": [
        {
          "internalType": "address",
          "name": "",
          "type": "address"
        }
      ],
      "name": "lTokenMintGuardianPaused",
      "outputs": [
        {
          "internalType": "bool",
          "name": "",
          "type": "bool"
        }
      ],
      "stateMutability": "view",
      "type": "function"
    },
    {
      "inputs": [
        {
          "internalType": "address",
          "name": "lTokenBorrowed",
          "type": "address"
        },
        {
          "internalType": "address",
          "name": "lTokenCollateral",
          "type": "address"
        },
        {
          "internalType": "address",
          "name": "liquidator",
          "type": "address"
        },
        {
          "internalType": "address",
          "name": "borrower",
          "type": "address"
        },
        {
          "internalType": "uint256",
          "name": "repayAmount",
          "type": "uint256"
        }
      ],
      "name": "liquidateBorrowAllowed",
      "outputs": [
        {
          "internalType": "uint256",
          "name": "",
          "type": "uint256"
        }
      ],
      "stateMutability": "nonpayable",
      "type": "function"
    },
    {
      "inputs": [
        {
          "internalType": "address",
          "name": "lTokenBorrowed",
          "type": "address"
        },
        {
          "internalType": "address",
          "name": "lTokenCollateral",
          "type": "address"
        },
        {
          "internalType": "address",
          "name": "liquidator",
          "type": "address"
        },
        {
          "internalType": "address",
          "name": "borrower",
          "type": "address"
        },
        {
          "internalType": "uint256",
          "name": "repayAmount",
          "type": "uint256"
        },
        {
          "internalType": "uint256",
          "name": "seizeTokens",
          "type": "uint256"
        }
      ],
      "name": "liquidateBorrowVerify",
      "outputs": [],
      "stateMutability": "nonpayable",
      "type": "function"
    },
    {
      "inputs": [
        {
          "internalType": "address",
          "name": "lTokenBorrowed",
          "type": "address"
        },
        {
          "internalType": "address",
          "name": "lTokenCollateral",
          "type": "address"
        },
        {
          "internalType": "uint256",
          "name": "actualRepayAmount",
          "type": "uint256"
        }
      ],
      "name": "liquidateCalculateSeizeTokens",
      "outputs": [
        {
          "internalType": "uint256",
          "name": "",
          "type": "uint256"
        },
        {
          "internalType": "uint256",
          "name": "",
          "type": "uint256"
        }
      ],
      "stateMutability": "view",
      "type": "function"
    },
    {
      "inputs": [],
      "name": "liquidationIncentiveMantissa",
      "outputs": [
        {
          "internalType": "uint256",
          "name": "",
          "type": "uint256"
        }
      ],
      "stateMutability": "view",
      "type": "function"
    },
    {
      "inputs": [
        {
          "internalType": "address",
          "name": "",
          "type": "address"
        }
      ],
      "name": "markets",
      "outputs": [
        {
          "internalType": "bool",
          "name": "isListed",
          "type": "bool"
        },
        {
          "internalType": "uint256",
          "name": "collateralFactorMantissa",
          "type": "uint256"
        },
        {
          "internalType": "bool",
          "name": "isMinted",
          "type": "bool"
        }
      ],
      "stateMutability": "view",
      "type": "function"
    },
    {
      "inputs": [],
      "name": "maxAssets",
      "outputs": [
        {
          "internalType": "uint256",
          "name": "",
          "type": "uint256"
        }
      ],
      "stateMutability": "view",
      "type": "function"
    },
    {
      "inputs": [
        {
          "internalType": "address",
          "name": "lToken",
          "type": "address"
        },
        {
          "internalType": "address",
          "name": "minter",
          "type": "address"
        },
        {
          "internalType": "uint256",
          "name": "mintAmount",
          "type": "uint256"
        }
      ],
      "name": "mintAllowed",
      "outputs": [
        {
          "internalType": "uint256",
          "name": "",
          "type": "uint256"
        }
      ],
      "stateMutability": "nonpayable",
      "type": "function"
    },
    {
      "inputs": [
        {
          "internalType": "address",
          "name": "",
          "type": "address"
        }
      ],
      "name": "mintCaps",
      "outputs": [
        {
          "internalType": "uint256",
          "name": "",
          "type": "uint256"
        }
      ],
      "stateMutability": "view",
      "type": "function"
    },
    {
      "inputs": [
        {
          "internalType": "address",
          "name": "lToken",
          "type": "address"
        },
        {
          "internalType": "address",
          "name": "minter",
          "type": "address"
        },
        {
          "internalType": "uint256",
          "name": "mintAmount",
          "type": "uint256"
        },
        {
          "internalType": "uint256",
          "name": "mintTokens",
          "type": "uint256"
        }
      ],
      "name": "mintVerify",
      "outputs": [],
      "stateMutability": "nonpayable",
      "type": "function"
    },
    {
      "inputs": [],
      "name": "oracle",
      "outputs": [
        {
          "internalType": "contract IPriceOracle",
          "name": "",
          "type": "address"
        }
      ],
      "stateMutability": "view",
      "type": "function"
    },
    {
      "inputs": [],
      "name": "owner",
      "outputs": [
        {
          "internalType": "address",
          "name": "",
          "type": "address"
        }
      ],
      "stateMutability": "view",
      "type": "function"
    },
    {
      "inputs": [],
      "name": "pauseGuardian",
      "outputs": [
        {
          "internalType": "address",
          "name": "",
          "type": "address"
        }
      ],
      "stateMutability": "view",
      "type": "function"
    },
    {
      "inputs": [
        {
          "internalType": "address",
          "name": "lToken",
          "type": "address"
        },
        {
          "internalType": "address",
          "name": "redeemer",
          "type": "address"
        },
        {
          "internalType": "uint256",
          "name": "redeemTokens",
          "type": "uint256"
        }
      ],
      "name": "redeemAllowed",
      "outputs": [
        {
          "internalType": "uint256",
          "name": "",
          "type": "uint256"
        }
      ],
      "stateMutability": "nonpayable",
      "type": "function"
    },
    {
      "inputs": [
        {
          "internalType": "address",
          "name": "lToken",
          "type": "address"
        },
        {
          "internalType": "address",
          "name": "redeemer",
          "type": "address"
        },
        {
          "internalType": "uint256",
          "name": "redeemAmount",
          "type": "uint256"
        },
        {
          "internalType": "uint256",
          "name": "redeemTokens",
          "type": "uint256"
        }
      ],
      "name": "redeemVerify",
      "outputs": [],
      "stateMutability": "nonpayable",
      "type": "function"
    },
    {
      "inputs": [],
      "name": "renounceOwnership",
      "outputs": [],
      "stateMutability": "nonpayable",
      "type": "function"
    },
    {
      "inputs": [
        {
          "internalType": "address",
          "name": "lToken",
          "type": "address"
        },
        {
          "internalType": "address",
          "name": "payer",
          "type": "address"
        },
        {
          "internalType": "address",
          "name": "borrower",
          "type": "address"
        },
        {
          "internalType": "uint256",
          "name": "repayAmount",
          "type": "uint256"
        }
      ],
      "name": "repayBorrowAllowed",
      "outputs": [
        {
          "internalType": "uint256",
          "name": "",
          "type": "uint256"
        }
      ],
      "stateMutability": "nonpayable",
      "type": "function"
    },
    {
      "inputs": [
        {
          "internalType": "address",
          "name": "lToken",
          "type": "address"
        },
        {
          "internalType": "address",
          "name": "payer",
          "type": "address"
        },
        {
          "internalType": "address",
          "name": "borrower",
          "type": "address"
        },
        {
          "internalType": "uint256",
          "name": "repayAmount",
          "type": "uint256"
        },
        {
          "internalType": "uint256",
          "name": "borrowerIndex",
          "type": "uint256"
        }
      ],
      "name": "repayBorrowVerify",
      "outputs": [],
      "stateMutability": "nonpayable",
      "type": "function"
    },
    {
      "inputs": [
        {
          "internalType": "address",
          "name": "lTokenCollateral",
          "type": "address"
        },
        {
          "internalType": "address",
          "name": "lTokenBorrowed",
          "type": "address"
        },
        {
          "internalType": "address",
          "name": "liquidator",
          "type": "address"
        },
        {
          "internalType": "address",
          "name": "borrower",
          "type": "address"
        },
        {
          "internalType": "uint256",
          "name": "seizeTokens",
          "type": "uint256"
        }
      ],
      "name": "seizeAllowed",
      "outputs": [
        {
          "internalType": "uint256",
          "name": "",
          "type": "uint256"
        }
      ],
      "stateMutability": "nonpayable",
      "type": "function"
    },
    {
      "inputs": [],
      "name": "seizeGuardianPaused",
      "outputs": [
        {
          "internalType": "bool",
          "name": "",
          "type": "bool"
        }
      ],
      "stateMutability": "view",
      "type": "function"
    },
    {
      "inputs": [
        {
          "internalType": "address",
          "name": "lTokenCollateral",
          "type": "address"
        },
        {
          "internalType": "address",
          "name": "lTokenBorrowed",
          "type": "address"
        },
        {
          "internalType": "address",
          "name": "liquidator",
          "type": "address"
        },
        {
          "internalType": "address",
          "name": "borrower",
          "type": "address"
        },
        {
          "internalType": "uint256",
          "name": "seizeTokens",
          "type": "uint256"
        }
      ],
      "name": "seizeVerify",
      "outputs": [],
      "stateMutability": "nonpayable",
      "type": "function"
    },
    {
      "inputs": [
        {
          "internalType": "address",
          "name": "lToken",
          "type": "address"
        },
        {
          "internalType": "address",
          "name": "src",
          "type": "address"
        },
        {
          "internalType": "address",
          "name": "dst",
          "type": "address"
        },
        {
          "internalType": "uint256",
          "name": "transferTokens",
          "type": "uint256"
        }
      ],
      "name": "transferAllowed",
      "outputs": [
        {
          "internalType": "uint256",
          "name": "",
          "type": "uint256"
        }
      ],
      "stateMutability": "nonpayable",
      "type": "function"
    },
    {
      "inputs": [],
      "name": "transferGuardianPaused",
      "outputs": [
        {
          "internalType": "bool",
          "name": "",
          "type": "bool"
        }
      ],
      "stateMutability": "view",
      "type": "function"
    },
    {
      "inputs": [
        {
          "internalType": "address",
          "name": "newOwner",
          "type": "address"
        }
      ],
      "name": "transferOwnership",
      "outputs": [],
      "stateMutability": "nonpayable",
      "type": "function"
    },
    {
      "inputs": [
        {
          "internalType": "address",
          "name": "lToken",
          "type": "address"
        },
        {
          "internalType": "address",
          "name": "src",
          "type": "address"
        },
        {
          "internalType": "address",
          "name": "dst",
          "type": "address"
        },
        {
          "internalType": "uint256",
          "name": "transferTokens",
          "type": "uint256"
        }
      ],
      "name": "transferVerify",
      "outputs": [],
      "stateMutability": "nonpayable",
      "type": "function"
    }
  ],
  "bytecode": "0x608060405234801561001057600080fd5b50614cbb806100206000396000f3fe608060405234801561001057600080fd5b50600436106103c55760003560e01c80636d35bf91116101ff578063b0772d0b1161011a578063dce15449116100ad578063eabe7d911161007c578063eabe7d9114610e86578063ede4edd014610ebc578063f2fde38b14610ee2578063f68ee04f14610f08576103c5565b8063dce1544914610e1e578063e4028eee14610e4a578063e6653f3d14610e76578063e875544614610e7e576103c5565b8063c488847b116100e9578063c488847b14610d36578063d02f735114610d85578063d9226ced14610dcb578063da3d454c14610de8576103c5565b8063b0772d0b14610c49578063b937a8fd14610c51578063bdcdc25814610c59578063c299823814610c95576103c5565b80638ebf6364116101925780639830845a116101615780639830845a14610b7f578063a76b3fda14610ba5578063abfceffc14610bcb578063ac0b0bb714610c41576103c5565b80638ebf636414610b0457806390ba830714610b23578063929fe9a114610b4957806394b2294b14610b77576103c5565b80638129fc1c116101ce5780638129fc1c14610aa457806387f7630314610aac5780638da5cb5b14610ab45780638e8f294b14610abc576103c5565b80636d35bf9114610a28578063715018a614610a6e5780637dc0d1d014610a765780637f4f61cc14610a7e576103c5565b8063478e3568116102ef57806352d84d1e116102825780635f5af1aa116102515780635f5af1aa146108c25780635fc7e71e146108e8578063607ef6c11461092e5780636a56947e146109ec576103c5565b806352d84d1e1461082357806355ee1fe1146108405780635c778605146108665780635ec88c791461089c576103c5565b80634e79238f116102be5780634e79238f146107765780634ef4c3e1146107d05780634fd42e171461080657806351dff98914610692576103c5565b8063478e3568146106ce57806347ef3b3b146106fc5780634a584432146107485780634ada90af1461076e576103c5565b80632d70db78116103675780633bcf7ec1116103365780633bcf7ec1146106365780633c94786f146106645780633d98a1e51461066c57806341c728b914610692576103c5565b80632d70db78146105ae5780632ef70202146105cd578063317b0b77146105f3578063391957d714610610576103c5565b806321af4569116103a357806321af45691461050e57806324008a621461053257806324a3d622146105805780632d31f6cf14610588576103c5565b806317583104146103ca57806318c882a51461048a5780631ededc91146104cc575b600080fd5b610488600480360360408110156103e057600080fd5b810190602081018135600160201b8111156103fa57600080fd5b82018360208201111561040c57600080fd5b803590602001918460208302840111600160201b8311171561042d57600080fd5b919390929091602081019035600160201b81111561044a57600080fd5b82018360208201111561045c57600080fd5b803590602001918460208302840111600160201b8311171561047d57600080fd5b509092509050610f27565b005b6104b8600480360360408110156104a057600080fd5b506001600160a01b03813516906020013515156110b1565b604080519115158252519081900360200190f35b610488600480360360a08110156104e257600080fd5b506001600160a01b0381358116916020810135821691604082013516906060810135906080013561126d565b610516611274565b604080516001600160a01b039092168252519081900360200190f35b61056e6004803603608081101561054857600080fd5b506001600160a01b03813581169160208101358216916040820135169060600135611288565b60408051918252519081900360200190f35b61051661133a565b61056e6004803603602081101561059e57600080fd5b50356001600160a01b0316611349565b6104b8600480360360208110156105c457600080fd5b5035151561135b565b6104b8600480360360208110156105e357600080fd5b50356001600160a01b03166114b1565b61056e6004803603602081101561060957600080fd5b50356114c6565b6104886004803603602081101561062657600080fd5b50356001600160a01b031661160b565b6104b86004803603604081101561064c57600080fd5b506001600160a01b03813516906020013515156116d0565b6104b8611887565b6104b86004803603602081101561068257600080fd5b50356001600160a01b0316611897565b610488600480360360808110156106a857600080fd5b506001600160a01b038135811691602081013590911690604081013590606001356118b5565b610488600480360360408110156106e457600080fd5b506001600160a01b03813516906020013515156118bb565b610488600480360360c081101561071257600080fd5b506001600160a01b0381358116916020810135821691604082013581169160608101359091169060808101359060a00135611955565b61056e6004803603602081101561075e57600080fd5b50356001600160a01b031661195d565b61056e61196f565b6107b26004803603608081101561078c57600080fd5b506001600160a01b03813581169160208101359091169060408101359060600135611975565b60408051938452602084019290925282820152519081900360600190f35b61056e600480360360608110156107e657600080fd5b506001600160a01b038135811691602081013590911690604001356119af565b61056e6004803603602081101561081c57600080fd5b5035611d0d565b6105166004803603602081101561083957600080fd5b5035611e3c565b61056e6004803603602081101561085657600080fd5b50356001600160a01b0316611e63565b6104886004803603606081101561087c57600080fd5b506001600160a01b03813581169160208101359091169060400135611f25565b6107b2600480360360208110156108b257600080fd5b50356001600160a01b0316611f2a565b61056e600480360360208110156108d857600080fd5b50356001600160a01b0316611f5f565b61056e600480360360a08110156108fe57600080fd5b506001600160a01b038135811691602081013582169160408201358116916060810135909116906080013561201e565b6104886004803603604081101561094457600080fd5b810190602081018135600160201b81111561095e57600080fd5b82018360208201111561097057600080fd5b803590602001918460208302840111600160201b8311171561099157600080fd5b919390929091602081019035600160201b8111156109ae57600080fd5b8201836020820111156109c057600080fd5b803590602001918460208302840111600160201b831117156109e157600080fd5b50909250905061219c565b61048860048036036080811015610a0257600080fd5b506001600160a01b038135811691602081013582169160408201351690606001356118b5565b610488600480360360a0811015610a3e57600080fd5b506001600160a01b038135811691602081013582169160408201358116916060810135909116906080013561126d565b610488612336565b6105166123d8565b6104b860048036036020811015610a9457600080fd5b50356001600160a01b03166123e7565b6104886123fc565b6104b86124a6565b6105166124b6565b610ae260048036036020811015610ad257600080fd5b50356001600160a01b03166124c5565b6040805193151584526020840192909252151582820152519081900360600190f35b6104b860048036036020811015610b1a57600080fd5b503515156124eb565b6104b860048036036020811015610b3957600080fd5b50356001600160a01b0316612640565b6104b860048036036040811015610b5f57600080fd5b506001600160a01b0381358116916020013516612661565b61056e612694565b61056e60048036036020811015610b9557600080fd5b50356001600160a01b031661269a565b61056e60048036036020811015610bbb57600080fd5b50356001600160a01b031661275a565b610bf160048036036020811015610be157600080fd5b50356001600160a01b0316612894565b60408051602080825283518183015283519192839290830191858101910280838360005b83811015610c2d578181015183820152602001610c15565b505050509050019250505060405180910390f35b6104b861291d565b610bf161292d565b6104b861298f565b61056e60048036036080811015610c6f57600080fd5b506001600160a01b03813581169160208101358216916040820135169060600135612998565b610bf160048036036020811015610cab57600080fd5b810190602081018135600160201b811115610cc557600080fd5b820183602082011115610cd757600080fd5b803590602001918460208302840111600160201b83111715610cf857600080fd5b919080806020026020016040519081016040528093929190818152602001838360200280828437600092019190915250929550612a9d945050505050565b610d6c60048036036060811015610d4c57600080fd5b506001600160a01b03813581169160208101359091169060400135612b47565b6040805192835260208301919091528051918290030190f35b61056e600480360360a0811015610d9b57600080fd5b506001600160a01b0381358116916020810135821691604082013581169160608101359091169060800135612dad565b61056e60048036036020811015610de157600080fd5b5035612fa5565b61056e60048036036060811015610dfe57600080fd5b506001600160a01b03813581169160208101359091169060400135613049565b61051660048036036040811015610e3457600080fd5b506001600160a01b038135169060200135613469565b61056e60048036036040811015610e6057600080fd5b506001600160a01b03813516906020013561349e565b6104b861367e565b61056e61368e565b61056e60048036036060811015610e9c57600080fd5b506001600160a01b03813581169160208101359091169060400135613694565b61056e60048036036020811015610ed257600080fd5b50356001600160a01b0316613716565b61048860048036036020811015610ef857600080fd5b50356001600160a01b0316613a46565b6104b860048036036020811015610f1e57600080fd5b50351515613b3f565b610f2f613c8e565b6071546001600160a01b03908116911614610f7f576040805162461bcd60e51b81526020600482018190526024820152600080516020614bde833981519152604482015290519081900360640190fd5b82818115801590610f8f57508082145b610fd0576040805162461bcd60e51b815260206004820152600d60248201526c1a5b9d985b1a59081a5b9c1d5d609a1b604482015290519081900360640190fd5b60005b828110156110a857848482818110610fe757fe5b9050602002013560a46000898985818110610ffe57fe5b905060200201356001600160a01b03166001600160a01b03166001600160a01b031681526020019081526020016000208190555086868281811061103e57fe5b905060200201356001600160a01b03166001600160a01b03167f6f1951b2aad10f3fc81b86d91105b413a5b3f847a34bbc5ce1904201b14438f686868481811061108457fe5b905060200201356040518082815260200191505060405180910390a2600101610fd3565b50505050505050565b6001600160a01b03821660009081526005602052604081205460ff166111085760405162461bcd60e51b8152600401808060200182810382526028815260200180614b406028913960400191505060405180910390fd5b6006546001600160a01b031633148061113957506111246124b6565b6001600160a01b0316336001600160a01b0316145b6111745760405162461bcd60e51b8152600401808060200182810382526027815260200180614bb76027913960400191505060405180910390fd5b61117c6124b6565b6001600160a01b0316336001600160a01b0316148061119d57506001821515145b6111e7576040805162461bcd60e51b81526020600482015260166024820152756f6e6c79206f776e65722063616e20756e706175736560501b604482015290519081900360640190fd5b6001600160a01b038316600081815260086020908152604091829020805486151560ff199091168117909155825193845283830152606090830181905260069083015265426f72726f7760d01b6080830152517f71aec636243f9709bb0007ae15e9afb8150ab01716d75fd7573be5cc096e03b09181900360a00190a150805b92915050565b5050505050565b60095461010090046001600160a01b031681565b6001600160a01b03841660009081526005602052604081205460ff166112b057506009611332565b60095460ff1661132e5760a35460408051630c0849df60e21b81526001600160a01b03888116600483015286811660248301526000604483018190529251931692633021277c9260648084019391929182900301818387803b15801561131557600080fd5b505af1158015611329573d6000803e3d6000fd5b505050505b5060005b949350505050565b6006546001600160a01b031681565b60a46020526000908152604090205481565b6006546000906001600160a01b031633148061138f575061137a6124b6565b6001600160a01b0316336001600160a01b0316145b6113ca5760405162461bcd60e51b8152600401808060200182810382526027815260200180614bb76027913960400191505060405180910390fd5b6113d26124b6565b6001600160a01b0316336001600160a01b031614806113f357506001821515145b61143d576040805162461bcd60e51b81526020600482015260166024820152756f6e6c79206f776e65722063616e20756e706175736560501b604482015290519081900360640190fd5b60068054831515600160b81b810260ff60b81b1990921691909117909155604080516020810192909252808252600582820152645365697a6560d81b6060830152517fef159d9a32b2472e32b098f954f3ce62d232939f1c207070b584df1814de2de09181900360800190a150805b919050565b60076020526000908152604090205460ff1681565b60006114d0613c8e565b6071546001600160a01b03908116911614611520576040805162461bcd60e51b81526020600482018190526024820152600080516020614bde833981519152604482015290519081900360640190fd5b611528614ac2565b50604080516020810190915282815261153f614ac2565b50604080516020810190915266b1a2bc2ec50000815261155f8282613c92565b156115785761156f600580613c9a565b925050506114ac565b611580614ac2565b506040805160208101909152670c7d713b49da000081526115a18184613d00565b156115bb576115b1600580613c9a565b93505050506114ac565b6001805490869055604080518281526020810188905281517f3b9670cf975d26958e754b57098eaa2ac914d8d2a31b83257997b9f346110fd9929181900390910190a160005b9695505050505050565b611613613c8e565b6071546001600160a01b03908116911614611663576040805162461bcd60e51b81526020600482018190526024820152600080516020614bde833981519152604482015290519081900360640190fd5b600980546001600160a01b03838116610100818102610100600160a81b03198516179094556040805194909304919091168084526020840191909152815190927feda98690e518e9a05f8ec6837663e188211b2da8f4906648b323f2c1d4434e2992908290030190a15050565b6001600160a01b03821660009081526005602052604081205460ff166117275760405162461bcd60e51b8152600401808060200182810382526028815260200180614b406028913960400191505060405180910390fd5b6006546001600160a01b031633148061175857506117436124b6565b6001600160a01b0316336001600160a01b0316145b6117935760405162461bcd60e51b8152600401808060200182810382526027815260200180614bb76027913960400191505060405180910390fd5b61179b6124b6565b6001600160a01b0316336001600160a01b031614806117bc57506001821515145b611806576040805162461bcd60e51b81526020600482015260166024820152756f6e6c79206f776e65722063616e20756e706175736560501b604482015290519081900360640190fd5b6001600160a01b038316600081815260076020908152604091829020805486151560ff199091168117909155825193845283830152606090830181905260049083015263135a5b9d60e21b6080830152517f71aec636243f9709bb0007ae15e9afb8150ab01716d75fd7573be5cc096e03b09181900360a00190a150919050565b600654600160a01b900460ff1681565b6001600160a01b031660009081526005602052604090205460ff1690565b50505050565b60a3546001600160a01b03163314806118ec57506118d76124b6565b6001600160a01b0316336001600160a01b0316145b6119275760405162461bcd60e51b8152600401808060200182810382526029815260200180614b686029913960400191505060405180910390fd5b6001600160a01b03919091166000908152600560205260409020600301805460ff1916911515919091179055565b505050505050565b600a6020526000908152604090205481565b60025481565b60008060008060008061198a8a8a8a8a613d07565b92509250925082601181111561199c57fe5b95509093509150505b9450945094915050565b6001600160a01b03831660009081526007602052604081205460ff1615611a0e576040805162461bcd60e51b815260206004820152600e60248201526d1b5a5b9d081a5cc81c185d5cd95960921b604482015290519081900360640190fd5b6001600160a01b03841660009081526005602052604090205460ff16611a385760095b9050611d06565b6001600160a01b038416600090815260a460205260409020548015611c82576000856001600160a01b03166318160ddd6040518163ffffffff1660e01b815260040160206040518083038186803b158015611a9257600080fd5b505afa158015611aa6573d6000803e3d6000fd5b505050506040513d6020811015611abc57600080fd5b50516040805163182df0f560e01b815290519192506000916001600160a01b0389169163182df0f5916004808301926020929190829003018186803b158015611b0457600080fd5b505afa158015611b18573d6000803e3d6000fd5b505050506040513d6020811015611b2e57600080fd5b505160408051602081019091528181529091506000908190611b50908561410f565b90925090506000826003811115611b6357fe5b14611bb5576040805162461bcd60e51b815260206004820152601f60248201527f62616c616e636520636f756c64206e6f742062652063616c63756c6174656400604482015290519081900360640190fd5b600080611bc2838a614163565b90925090506000826003811115611bd557fe5b14611c27576040805162461bcd60e51b815260206004820152601a60248201527f746f74616c206d696e7420616d6f756e74206f766572666c6f77000000000000604482015290519081900360640190fd5b868110611c7b576040805162461bcd60e51b815260206004820152601760248201527f6d61726b6574206d696e74206361702072656163686564000000000000000000604482015290519081900360640190fd5b5050505050505b60095460ff16611d005760a35460408051631f9af13b60e31b81526001600160a01b0388811660048301528781166024830152600060448301819052925193169263fcd789d89260648084019391929182900301818387803b158015611ce757600080fd5b505af1158015611cfb573d6000803e3d6000fd5b505050505b60009150505b9392505050565b6000611d17613c8e565b6071546001600160a01b03908116911614611d67576040805162461bcd60e51b81526020600482018190526024820152600080516020614bde833981519152604482015290519081900360640190fd5b611d6f614ac2565b506040805160208101909152828152611d86614ac2565b506040805160208101909152670de0b6b3a76400008152611da78282613d00565b15611db85761156f6007600c613c9a565b611dc0614ac2565b5060408051602081019091526714d1120d7b1600008152611de18184613d00565b15611df2576115b16007600c613c9a565b6002805490869055604080518281526020810188905281517faeba5a6c40a8ac138134bff1aaa65debf25971188a58804bad717f82f0ec1316929181900390910190a16000611601565b600b8181548110611e4957fe5b6000918252602090912001546001600160a01b0316905081565b6000611e6d613c8e565b6071546001600160a01b03908116911614611ebd576040805162461bcd60e51b81526020600482018190526024820152600080516020614bde833981519152604482015290519081900360640190fd5b600080546001600160a01b038481166001600160a01b0319831681179093556040805191909216808252602082019390935281517fd52b2b9b7e9ee655fcb95d2e5b9e0c9f69e7ef2b8e9d2d0ea78402d576d22e22929181900390910190a160009392505050565b505050565b600080600080600080611f41876000806000613d07565b925092509250826011811115611f5357fe5b97919650945092505050565b6000611f69613c8e565b6071546001600160a01b03908116911614611fb9576040805162461bcd60e51b81526020600482018190526024820152600080516020614bde833981519152604482015290519081900360640190fd5b600680546001600160a01b038481166001600160a01b0319831617928390556040805192821680845293909116602083015280517f0613b6ee6a04f0d09f390e4d9318894b9f6ac7fd83897cd8d18896ba579c401e9281900390910190a16000611d06565b6001600160a01b03851660009081526005602052604081205460ff16158061205f57506001600160a01b03851660009081526005602052604090205460ff16155b1561206e5760095b9050612193565b60008061207a85614189565b9193509091506000905082601181111561209057fe5b146120aa578160118111156120a157fe5b92505050612193565b806120b65760036120a1565b6000886001600160a01b03166395dd9193876040518263ffffffff1660e01b815260040180826001600160a01b0316815260200191505060206040518083038186803b15801561210557600080fd5b505afa158015612119573d6000803e3d6000fd5b505050506040513d602081101561212f57600080fd5b5051604080516020810190915260015481529091506000908190612153908461410f565b9092509050600082600381111561216657fe5b1461217a57600b5b95505050505050612193565b8087111561218957601161216e565b6000955050505050505b95945050505050565b6121a46124b6565b6001600160a01b0316336001600160a01b031614806121d2575060095461010090046001600160a01b031633145b61220d5760405162461bcd60e51b8152600401808060200182810382526035815260200180614c2c6035913960400191505060405180910390fd5b8281811580159061221d57508082145b61225e576040805162461bcd60e51b815260206004820152600d60248201526c1a5b9d985b1a59081a5b9c1d5d609a1b604482015290519081900360640190fd5b60005b828110156110a85784848281811061227557fe5b90506020020135600a600089898581811061228c57fe5b905060200201356001600160a01b03166001600160a01b03166001600160a01b03168152602001908152602001600020819055508686828181106122cc57fe5b905060200201356001600160a01b03166001600160a01b03167f6f1951b2aad10f3fc81b86d91105b413a5b3f847a34bbc5ce1904201b14438f686868481811061231257fe5b905060200201356040518082815260200191505060405180910390a2600101612261565b61233e613c8e565b6071546001600160a01b0390811691161461238e576040805162461bcd60e51b81526020600482018190526024820152600080516020614bde833981519152604482015290519081900360640190fd5b6071546040516000916001600160a01b0316907f8be0079c531659141344cd1fd0a4f28419497f9722a3daafe3b4186f6b6457e0908390a3607180546001600160a01b0319169055565b6000546001600160a01b031681565b60086020526000908152604090205460ff1681565b600c54610100900460ff168061241557506124156141a9565b806124235750600c5460ff16155b61245e5760405162461bcd60e51b815260040180806020018281038252602e815260200180614bfe602e913960400191505060405180910390fd5b600c54610100900460ff1615801561248957600c805460ff1961ff0019909116610100171660011790555b6124916141af565b80156124a357600c805461ff00191690555b50565b600654600160b01b900460ff1681565b6071546001600160a01b031690565b60056020526000908152604090208054600182015460039092015460ff91821692911683565b6006546000906001600160a01b031633148061251f575061250a6124b6565b6001600160a01b0316336001600160a01b0316145b61255a5760405162461bcd60e51b8152600401808060200182810382526027815260200180614bb76027913960400191505060405180910390fd5b6125626124b6565b6001600160a01b0316336001600160a01b0316148061258357506001821515145b6125cd576040805162461bcd60e51b81526020600482015260166024820152756f6e6c79206f776e65722063616e20756e706175736560501b604482015290519081900360640190fd5b60068054831515600160b01b810260ff60b01b1990921691909117909155604080516020810192909252808252600882820152672a3930b739b332b960c11b6060830152517fef159d9a32b2472e32b098f954f3ce62d232939f1c207070b584df1814de2de09181900360800190a15090565b6001600160a01b031660009081526005602052604090206003015460ff1690565b6001600160a01b038082166000908152600560209081526040808320938616835260029093019052205460ff1692915050565b60035481565b60006126a4613c8e565b6071546001600160a01b039081169116146126f4576040805162461bcd60e51b81526020600482018190526024820152600080516020614bde833981519152604482015290519081900360640190fd5b60a380546001600160a01b038481166001600160a01b0319831681179093556040805191909216808252602082019390935281517f946525a1a16318134750b6d1bde085858f97e6817c08882fecd4dd523cb97d2b929181900390910190a16000611d06565b6000612764613c8e565b6071546001600160a01b039081169116146127b4576040805162461bcd60e51b81526020600482018190526024820152600080516020614bde833981519152604482015290519081900360640190fd5b6001600160a01b03821660009081526005602052604090205460ff16156127e8576127e1600a6011613c9a565b90506114ac565b604080516060810182526001808252600060208084018281528486018381526001600160a01b03891684526005909252949091209251835490151560ff199182161784559351918301919091555160039091018054911515919092161790556128508261424c565b604080516001600160a01b038416815290517fcf583bb0c569eb967f806b11601c4cb93c10310485c67add5f8362c2f212321f9181900360200190a1600092915050565b60608060046000846001600160a01b03166001600160a01b0316815260200190815260200160002080548060200260200160405190810160405280929190818152602001828054801561291057602002820191906000526020600020905b81546001600160a01b031681526001909101906020018083116128f2575b5093979650505050505050565b600654600160b81b900460ff1681565b6060600b80548060200260200160405190810160405280929190818152602001828054801561298557602002820191906000526020600020905b81546001600160a01b03168152600190910190602001808311612967575b5050505050905090565b60095460ff1681565b600654600090600160b01b900460ff16156129ef576040805162461bcd60e51b81526020600482015260126024820152711d1c985b9cd9995c881a5cc81c185d5cd95960721b604482015290519081900360640190fd5b60006129fc868685614382565b90508015612a0b579050611332565b60095460ff16612a915760a354604080516322037eb760e11b81526001600160a01b038981166004830152888116602483015287811660448301526000606483018190529251931692634406fd6e9260848084019391929182900301818387803b158015612a7857600080fd5b505af1158015612a8c573d6000803e3d6000fd5b505050505b60009695505050505050565b8051606090818167ffffffffffffffff81118015612aba57600080fd5b50604051908082528060200260200182016040528015612ae4578160200160208202803683370190505b50905060005b82811015612b3f576000858281518110612b0057fe5b60200260200101519050612b14813361442e565b6011811115612b1f57fe5b838381518110612b2b57fe5b602090810291909101015250600101612aea565b509392505050565b600080546040805163fc57d4df60e01b81526001600160a01b038781166004830152915184938493169163fc57d4df916024808301926020929190829003018186803b158015612b9657600080fd5b505afa158015612baa573d6000803e3d6000fd5b505050506040513d6020811015612bc057600080fd5b5051600080546040805163fc57d4df60e01b81526001600160a01b038a811660048301529151949550929391169163fc57d4df916024808301926020929190829003018186803b158015612c1357600080fd5b505afa158015612c27573d6000803e3d6000fd5b505050506040513d6020811015612c3d57600080fd5b50519050811580612c4c575080155b15612c6057600d6000935093505050612da5565b6000866001600160a01b031663182df0f56040518163ffffffff1660e01b815260040160206040518083038186803b158015612c9b57600080fd5b505afa158015612caf573d6000803e3d6000fd5b505050506040513d6020811015612cc557600080fd5b505190506000612cd3614ac2565b612cdb614ac2565b612ce3614ac2565b6000612cf16002548961454f565b945090506000816003811115612d0357fe5b14612d1e57600b5b6000995099505050505050505050612da5565b612d28878761454f565b935090506000816003811115612d3a57fe5b14612d4657600b612d0b565b612d50848461458a565b925090506000816003811115612d6257fe5b14612d6e57600b612d0b565b612d78828c61410f565b955090506000816003811115612d8a57fe5b14612d9657600b612d0b565b60009950939750505050505050505b935093915050565b600654600090600160b81b900460ff1615612e01576040805162461bcd60e51b815260206004820152600f60248201526e1cd95a5e99481a5cc81c185d5cd959608a1b604482015290519081900360640190fd5b6001600160a01b03861660009081526005602052604090205460ff161580612e4257506001600160a01b03851660009081526005602052604090205460ff16155b15612e4e576009612067565b846001600160a01b0316635fe3b5676040518163ffffffff1660e01b815260040160206040518083038186803b158015612e8757600080fd5b505afa158015612e9b573d6000803e3d6000fd5b505050506040513d6020811015612eb157600080fd5b505160408051635fe3b56760e01b815290516001600160a01b0392831692891691635fe3b567916004808301926020929190829003018186803b158015612ef757600080fd5b505afa158015612f0b573d6000803e3d6000fd5b505050506040513d6020811015612f2157600080fd5b50516001600160a01b031614612f38576002612067565b60095460ff16612a915760a3546040805163697fe70960e01b81526001600160a01b03898116600483015286811660248301528781166044830152600060648301819052925193169263697fe7099260848084019391929182900301818387803b158015612a7857600080fd5b6000612faf613c8e565b6071546001600160a01b03908116911614612fff576040805162461bcd60e51b81526020600482018190526024820152600080516020614bde833981519152604482015290519081900360640190fd5b6003805490839055604080518281526020810185905281517f7093cf1eb653f749c3ff531d6df7f92764536a7fa0d13530cd26e070780c32ea929181900390910190a16000611d06565b6001600160a01b03831660009081526008602052604081205460ff16156130aa576040805162461bcd60e51b815260206004820152601060248201526f189bdc9c9bddc81a5cc81c185d5cd95960821b604482015290519081900360640190fd5b6001600160a01b03841660009081526005602052604090205460ff166130d1576009611a31565b6001600160a01b038085166000908152600560209081526040808320938716835260029093019052205460ff166131c157336001600160a01b03851614613157576040805162461bcd60e51b815260206004820152601560248201527439b2b73232b91036bab9ba10313290362a37b5b2b760591b604482015290519081900360640190fd5b6000613163338561442e565b9050600081601181111561317357fe5b1461318c5780601181111561318457fe5b915050611d06565b6001600160a01b038086166000908152600560209081526040808320938816835260029093019052205460ff166131bf57fe5b505b6000546040805163fc57d4df60e01b81526001600160a01b0387811660048301529151919092169163fc57d4df916024808301926020929190829003018186803b15801561320e57600080fd5b505afa158015613222573d6000803e3d6000fd5b505050506040513d602081101561323857600080fd5b505161324557600d611a31565b6001600160a01b0384166000908152600a60205260409020548015613390576000856001600160a01b03166347bd37186040518163ffffffff1660e01b815260040160206040518083038186803b15801561329f57600080fd5b505afa1580156132b3573d6000803e3d6000fd5b505050506040513d60208110156132c957600080fd5b505190506000806132da8387614163565b909250905060008260038111156132ed57fe5b14613338576040805162461bcd60e51b8152602060048201526016602482015275746f74616c20626f72726f7773206f766572666c6f7760501b604482015290519081900360640190fd5b83811061338c576040805162461bcd60e51b815260206004820152601960248201527f6d61726b657420626f72726f7720636170207265616368656400000000000000604482015290519081900360640190fd5b5050505b6000806133a08688600088613d07565b919350909150600090508260118111156133b657fe5b146133d1578160118111156133c757fe5b9350505050611d06565b80156133de5760046133c7565b60095460ff1661345c5760a3546040805163915167dd60e01b81526001600160a01b038a811660048301528981166024830152600060448301819052925193169263915167dd9260648084019391929182900301818387803b15801561344357600080fd5b505af1158015613457573d6000803e3d6000fd5b505050505b6000979650505050505050565b6004602052816000526040600020818154811061348257fe5b6000918252602090912001546001600160a01b03169150829050565b60006134a8613c8e565b6071546001600160a01b039081169116146134f8576040805162461bcd60e51b81526020600482018190526024820152600080516020614bde833981519152604482015290519081900360640190fd5b6001600160a01b0383166000908152600560205260409020805460ff1661352d5761352560096007613c9a565b915050611267565b613535614ac2565b50604080516020810190915283815261354c614ac2565b506040805160208101909152670c7d713b49da0000815261356d8183613d00565b156135885761357e60066008613c9a565b9350505050611267565b841580159061360d57506000546040805163fc57d4df60e01b81526001600160a01b0389811660048301529151919092169163fc57d4df916024808301926020929190829003018186803b1580156135df57600080fd5b505afa1580156135f3573d6000803e3d6000fd5b505050506040513d602081101561360957600080fd5b5051155b1561361e5761357e600d6009613c9a565b60018301805490869055604080516001600160a01b03891681526020810183905280820188905290517f70483e6592cd5182d45ac970e05bc62cdcc90e9d8ef2c2dbe686cf383bcd7fc59181900360600190a16000979650505050505050565b600654600160a81b900460ff1681565b60015481565b6000806136a2858585614382565b905080156136b1579050611d06565b60095460ff16611d005760a354604080516370c69b7f60e11b81526001600160a01b0388811660048301528781166024830152600060448301819052925193169263e18d36fe9260648084019391929182900301818387803b158015611ce757600080fd5b6000808290506000806000836001600160a01b031663c37f68e2336040518263ffffffff1660e01b815260040180826001600160a01b0316815260200191505060806040518083038186803b15801561376e57600080fd5b505afa158015613782573d6000803e3d6000fd5b505050506040513d608081101561379857600080fd5b5080516020820151604090920151909450909250905082156137eb5760405162461bcd60e51b8152600401808060200182810382526025815260200180614c616025913960400191505060405180910390fd5b8015613808576137fd600c6002613c9a565b9450505050506114ac565b6000613815873385614382565b905080156138365761382a600e6003836145a2565b955050505050506114ac565b6001600160a01b0385166000908152600560209081526040808320338452600281019092529091205460ff1661387557600096505050505050506114ac565b3360009081526002820160209081526040808320805460ff1916905560048252918290208054835181840281018401909452808452606093928301828280156138e757602002820191906000526020600020905b81546001600160a01b031681526001909101906020018083116138c9575b5050835193945083925060009150505b8281101561393c57896001600160a01b031684828151811061391557fe5b60200260200101516001600160a01b031614156139345780915061393c565b6001016138f7565b5081811061394657fe5b33600090815260046020526040902080548190600019810190811061396757fe5b9060005260206000200160009054906101000a90046001600160a01b031681838154811061399157fe5b9060005260206000200160006101000a8154816001600160a01b0302191690836001600160a01b03160217905550808054806139c957fe5b6000828152602090819020820160001990810180546001600160a01b0319169055909101909155604080516001600160a01b038d168152339281019290925280517fe699a64c18b07ac5b7301aa273f36a2287239eb9501d81950672794afba29a0d9281900390910190a160009c9b505050505050505050505050565b613a4e613c8e565b6071546001600160a01b03908116911614613a9e576040805162461bcd60e51b81526020600482018190526024820152600080516020614bde833981519152604482015290519081900360640190fd5b6001600160a01b038116613ae35760405162461bcd60e51b8152600401808060200182810382526026815260200180614b916026913960400191505060405180910390fd5b6071546040516001600160a01b038084169216907f8be0079c531659141344cd1fd0a4f28419497f9722a3daafe3b4186f6b6457e090600090a3607180546001600160a01b0319166001600160a01b0392909216919091179055565b6006546000906001600160a01b0316331480613b735750613b5e6124b6565b6001600160a01b0316336001600160a01b0316145b613bae5760405162461bcd60e51b8152600401808060200182810382526027815260200180614bb76027913960400191505060405180910390fd5b613bb66124b6565b6001600160a01b0316336001600160a01b03161480613bd757506001821515145b613c21576040805162461bcd60e51b81526020600482015260166024820152756f6e6c79206f776e65722063616e20756e706175736560501b604482015290519081900360640190fd5b6009805483151560ff199091168117909155604080516020810192909252808252600e828201526d111a5cdd1c9a589d5d1953195b5960921b6060830152517fef159d9a32b2472e32b098f954f3ce62d232939f1c207070b584df1814de2de09181900360800190a15090565b3390565b519051111590565b60007f45b96fe442630264581b197e84bbada861235052c5a1aadfff9ea4e40a969aa0836011811115613cc957fe5b836013811115613cd557fe5b604080519283526020830191909152600082820152519081900360600190a1826011811115611d0657fe5b5190511090565b6000806000613d14614ad5565b6001600160a01b038816600090815260046020908152604080832080548251818502810185019093528083528493606093929190830182828015613d8157602002820191906000526020600020905b81546001600160a01b03168152600190910190602001808311613d63575b5050505050905060005b81518110156140cb576000828281518110613da257fe5b60200260200101519050806001600160a01b031663c37f68e28e6040518263ffffffff1660e01b815260040180826001600160a01b0316815260200191505060806040518083038186803b158015613df957600080fd5b505afa158015613e0d573d6000803e3d6000fd5b505050506040513d6080811015613e2357600080fd5b508051602082015160408084015160609485015160808c0152938a01939093529188019190915294508415613e6857600f6000809850985098505050505050506119a5565b60408051602080820183526001600160a01b0380851660008181526005845285812060010154855260c08c01949094528451808401865260808c0151815260e08c01529254845163fc57d4df60e01b81526004810194909452935193169263fc57d4df926024808201939291829003018186803b158015613ee857600080fd5b505afa158015613efc573d6000803e3d6000fd5b505050506040513d6020811015613f1257600080fd5b505160a08701819052613f3557600d6000809850985098505050505050506119a5565b604080516020810190915260a08701518152610100870181905260c087015160e0880151613f6292614608565b61012088015293506000846003811115613f7857fe5b14613f9357600b6000809850985098505050505050506119a5565b613fab86610120015187604001518860000151614660565b875293506000846003811115613fbd57fe5b14613fd857600b6000809850985098505050505050506119a5565b613ff086610100015187606001518860200151614660565b60208801529350600084600381111561400557fe5b1461402057600b6000809850985098505050505050506119a5565b8b6001600160a01b0316816001600160a01b031614156140c25761404e8661012001518c8860200151614660565b60208801529350600084600381111561406357fe5b1461407e57600b6000809850985098505050505050506119a5565b6140928661010001518b8860200151614660565b6020880152935060008460038111156140a757fe5b146140c257600b6000809850985098505050505050506119a5565b50600101613d8b565b506020840151845111156140f25750505060208101519051600094500391508290506119a5565b6000808560000151866020015103965096509650505050506119a5565b600080600061411c614ac2565b61412686866146ad565b9092509050600082600381111561413957fe5b1461414a575091506000905061415c565b600061415582614715565b9350935050505b9250929050565b60008083830184811061417b5760009250905061415c565b60026000925092505061415c565b600080600061419c846000806000613d07565b9250925092509193909250565b303b1590565b600c54610100900460ff16806141c857506141c86141a9565b806141d65750600c5460ff16155b6142115760405162461bcd60e51b815260040180806020018281038252602e815260200180614bfe602e913960400191505060405180910390fd5b600c54610100900460ff1615801561423c57600c805460ff1961ff0019909116610100171660011790555b614244614724565b6124916147c4565b614254613c8e565b6071546001600160a01b039081169116146142a4576040805162461bcd60e51b81526020600482018190526024820152600080516020614bde833981519152604482015290519081900360640190fd5b60005b600b5481101561432f57816001600160a01b0316600b82815481106142c857fe5b6000918252602090912001546001600160a01b03161415614327576040805162461bcd60e51b81526020600482015260146024820152731b585c9ad95d08185b1c9958591e48185919195960621b604482015290519081900360640190fd5b6001016142a7565b50600b80546001810182556000919091527f0175b7a638427703f0dbe7bb9bbf987a2551717b34e79f33b5b1008d1fa01db90180546001600160a01b0319166001600160a01b0392909216919091179055565b6001600160a01b03831660009081526005602052604081205460ff166143a9576009611a31565b6001600160a01b038085166000908152600560209081526040808320938716835260029093019052205460ff166143e1576000611a31565b6000806143f18587866000613d07565b9193509091506000905082601181111561440757fe5b146144215781601181111561441857fe5b92505050611d06565b8015612a91576004614418565b6001600160a01b0382166000908152600560205260408120805460ff16614459576009915050611267565b6001600160a01b038316600090815260028201602052604090205460ff1615156001141561448b576000915050611267565b6003546001600160a01b038416600090815260046020526040902054106144b6576010915050611267565b6001600160a01b0380841660008181526002840160209081526040808320805460ff19166001908117909155600483528184208054918201815584529282902090920180549489166001600160a01b031990951685179055815193845283019190915280517f3ab23ab0d51cccc0c3085aec51f99228625aa1a922b3a8ca89a26b0f2027a1a59281900390910190a15060009392505050565b6000614559614ac2565b61457f6040518060200160405280868152506040518060200160405280868152506148bd565b915091509250929050565b6000614594614ac2565b8351835161457f91906149a7565b60007f45b96fe442630264581b197e84bbada861235052c5a1aadfff9ea4e40a969aa08460118111156145d157fe5b8460138111156145dd57fe5b604080519283526020830191909152818101859052519081900360600190a183601181111561133257fe5b6000614612614ac2565b600061461c614ac2565b61462687876148bd565b9092509050600082600381111561463957fe5b14614648579092509050612da5565b61465281866148bd565b935093505050935093915050565b600080600061466d614ac2565b61467787876146ad565b9092509050600082600381111561468a57fe5b1461469b5750915060009050612da5565b6146526146a782614715565b86614163565b60006146b7614ac2565b6000806146c8866000015186614a58565b909250905060008260038111156146db57fe5b146146fa5750604080516020810190915260008152909250905061415c565b60408051602081019091529081526000969095509350505050565b51670de0b6b3a7640000900490565b600c54610100900460ff168061473d575061473d6141a9565b8061474b5750600c5460ff16155b6147865760405162461bcd60e51b815260040180806020018281038252602e815260200180614bfe602e913960400191505060405180910390fd5b600c54610100900460ff1615801561249157600c805460ff1961ff00199091166101001716600117905580156124a357600c805461ff001916905550565b600c54610100900460ff16806147dd57506147dd6141a9565b806147eb5750600c5460ff16155b6148265760405162461bcd60e51b815260040180806020018281038252602e815260200180614bfe602e913960400191505060405180910390fd5b600c54610100900460ff1615801561485157600c805460ff1961ff0019909116610100171660011790555b600061485b613c8e565b607180546001600160a01b0319166001600160a01b038316908117909155604051919250906000907f8be0079c531659141344cd1fd0a4f28419497f9722a3daafe3b4186f6b6457e0908290a35080156124a357600c805461ff001916905550565b60006148c7614ac2565b6000806148dc86600001518660000151614a58565b909250905060008260038111156148ef57fe5b1461490e5750604080516020810190915260008152909250905061415c565b6000806149236706f05b59d3b2000084614163565b9092509050600082600381111561493657fe5b14614959578160405180602001604052806000815250955095505050505061415c565b60008061496e83670de0b6b3a7640000614a97565b9092509050600082600381111561498157fe5b1461498857fe5b604080516020810190915290815260009a909950975050505050505050565b60006149b1614ac2565b6000806149c686670de0b6b3a7640000614a58565b909250905060008260038111156149d957fe5b146149f85750604080516020810190915260008152909250905061415c565b600080614a058388614a97565b90925090506000826003811115614a1857fe5b14614a3b578160405180602001604052806000815250955095505050505061415c565b604080516020810190915290815260009890975095505050505050565b60008083614a6b5750600090508061415c565b83830283858281614a7857fe5b0414614a8c5760026000925092505061415c565b60009250905061415c565b60008082614aab575060019050600061415c565b6000838581614ab657fe5b04915091509250929050565b6040518060200160405280600081525090565b604051806101400160405280600081526020016000815260200160008152602001600081526020016000815260200160008152602001614b13614ac2565b8152602001614b20614ac2565b8152602001614b2d614ac2565b8152602001614b3a614ac2565b90529056fe63616e6e6f742070617573652061206d61726b65742074686174206973206e6f74206c69737465646f6e6c79204c656d64446973747269627574696f6e206f72206f776e65722063616e207570646174654f776e61626c653a206e6577206f776e657220697320746865207a65726f20616464726573736f6e6c7920706175736520677561726469616e20616e64206f776e65722063616e2070617573654f776e61626c653a2063616c6c6572206973206e6f7420746865206f776e6572436f6e747261637420696e7374616e63652068617320616c7265616479206265656e20696e697469616c697a65646f6e6c79206f776e6572206f7220626f72726f772063617020677561726469616e2063616e2073657420626f72726f772063617073657869744d61726b65743a206765744163636f756e74536e617073686f74206661696c6564a26469706673582212209e50735f7bb21d0e36899f3c67285732a67bbeda671acd1dfebfaac12d433c7164736f6c634300060c0033",
  "linkReferences": {},
  "deployedLinkReferences": {}
}