{
  "_format": "hh-sol-artifact-1",
  "contractName": "Comptroller",
  "sourceName": "contracts/Lend/comptroller/Comptroller.sol",
  "abi": [
    {
      "anonymous": false,
      "inputs": [
        {
          "indexed": false,
          "internalType": "string",
          "name": "action",
          "type": "string"
        },
        {
          "indexed": false,
          "internalType": "bool",
          "name": "pauseState",
          "type": "bool"
        }
      ],
      "name": "ActionPaused",
      "type": "event"
    },
    {
      "anonymous": false,
      "inputs": [
        {
          "indexed": false,
          "internalType": "contract PToken",
          "name": "pToken",
          "type": "address"
        },
        {
          "indexed": false,
          "internalType": "string",
          "name": "action",
          "type": "string"
        },
        {
          "indexed": false,
          "internalType": "bool",
          "name": "pauseState",
          "type": "bool"
        }
      ],
      "name": "ActionPaused",
      "type": "event"
    },
    {
      "anonymous": false,
      "inputs": [
        {
          "indexed": false,
          "internalType": "uint256",
          "name": "error",
          "type": "uint256"
        },
        {
          "indexed": false,
          "internalType": "uint256",
          "name": "info",
          "type": "uint256"
        },
        {
          "indexed": false,
          "internalType": "uint256",
          "name": "detail",
          "type": "uint256"
        }
      ],
      "name": "Failure",
      "type": "event"
    },
    {
      "anonymous": false,
      "inputs": [
        {
          "indexed": false,
          "internalType": "contract PToken",
          "name": "pToken",
          "type": "address"
        },
        {
          "indexed": false,
          "internalType": "address",
          "name": "account",
          "type": "address"
        }
      ],
      "name": "MarketEntered",
      "type": "event"
    },
    {
      "anonymous": false,
      "inputs": [
        {
          "indexed": false,
          "internalType": "contract PToken",
          "name": "pToken",
          "type": "address"
        },
        {
          "indexed": false,
          "internalType": "address",
          "name": "account",
          "type": "address"
        }
      ],
      "name": "MarketExited",
      "type": "event"
    },
    {
      "anonymous": false,
      "inputs": [
        {
          "indexed": false,
          "internalType": "contract PToken",
          "name": "pToken",
          "type": "address"
        }
      ],
      "name": "MarketListed",
      "type": "event"
    },
    {
      "anonymous": false,
      "inputs": [
        {
          "indexed": true,
          "internalType": "contract PToken",
          "name": "pToken",
          "type": "address"
        },
        {
          "indexed": false,
          "internalType": "uint256",
          "name": "newBorrowCap",
          "type": "uint256"
        }
      ],
      "name": "NewBorrowCap",
      "type": "event"
    },
    {
      "anonymous": false,
      "inputs": [
        {
          "indexed": false,
          "internalType": "address",
          "name": "oldBorrowCapGuardian",
          "type": "address"
        },
        {
          "indexed": false,
          "internalType": "address",
          "name": "newBorrowCapGuardian",
          "type": "address"
        }
      ],
      "name": "NewBorrowCapGuardian",
      "type": "event"
    },
    {
      "anonymous": false,
      "inputs": [
        {
          "indexed": false,
          "internalType": "uint256",
          "name": "oldCloseFactorMantissa",
          "type": "uint256"
        },
        {
          "indexed": false,
          "internalType": "uint256",
          "name": "newCloseFactorMantissa",
          "type": "uint256"
        }
      ],
      "name": "NewCloseFactor",
      "type": "event"
    },
    {
      "anonymous": false,
      "inputs": [
        {
          "indexed": false,
          "internalType": "contract PToken",
          "name": "pToken",
          "type": "address"
        },
        {
          "indexed": false,
          "internalType": "uint256",
          "name": "oldCollateralFactorMantissa",
          "type": "uint256"
        },
        {
          "indexed": false,
          "internalType": "uint256",
          "name": "newCollateralFactorMantissa",
          "type": "uint256"
        }
      ],
      "name": "NewCollateralFactor",
      "type": "event"
    },
    {
      "anonymous": false,
      "inputs": [
        {
          "indexed": false,
          "internalType": "uint256",
          "name": "oldLiquidationIncentiveMantissa",
          "type": "uint256"
        },
        {
          "indexed": false,
          "internalType": "uint256",
          "name": "newLiquidationIncentiveMantissa",
          "type": "uint256"
        }
      ],
      "name": "NewLiquidationIncentive",
      "type": "event"
    },
    {
      "anonymous": false,
      "inputs": [
        {
          "indexed": false,
          "internalType": "uint256",
          "name": "oldMaxAssets",
          "type": "uint256"
        },
        {
          "indexed": false,
          "internalType": "uint256",
          "name": "newMaxAssets",
          "type": "uint256"
        }
      ],
      "name": "NewMaxAssets",
      "type": "event"
    },
    {
      "anonymous": false,
      "inputs": [
        {
          "indexed": false,
          "internalType": "address",
          "name": "oldPauseGuardian",
          "type": "address"
        },
        {
          "indexed": false,
          "internalType": "address",
          "name": "newPauseGuardian",
          "type": "address"
        }
      ],
      "name": "NewPauseGuardian",
      "type": "event"
    },
    {
      "anonymous": false,
      "inputs": [
        {
          "indexed": false,
          "internalType": "contract IPiggyDistribution",
          "name": "oldPiggyDistribution",
          "type": "address"
        },
        {
          "indexed": false,
          "internalType": "contract IPiggyDistribution",
          "name": "newPiggyDistribution",
          "type": "address"
        }
      ],
      "name": "NewPiggyDistribution",
      "type": "event"
    },
    {
      "anonymous": false,
      "inputs": [
        {
          "indexed": false,
          "internalType": "contract IPriceOracle",
          "name": "oldPriceOracle",
          "type": "address"
        },
        {
          "indexed": false,
          "internalType": "contract IPriceOracle",
          "name": "newPriceOracle",
          "type": "address"
        }
      ],
      "name": "NewPriceOracle",
      "type": "event"
    },
    {
      "anonymous": false,
      "inputs": [
        {
          "indexed": true,
          "internalType": "address",
          "name": "previousOwner",
          "type": "address"
        },
        {
          "indexed": true,
          "internalType": "address",
          "name": "newOwner",
          "type": "address"
        }
      ],
      "name": "OwnershipTransferred",
      "type": "event"
    },
    {
      "inputs": [],
      "name": "_borrowGuardianPaused",
      "outputs": [
        {
          "internalType": "bool",
          "name": "",
          "type": "bool"
        }
      ],
      "stateMutability": "view",
      "type": "function"
    },
    {
      "inputs": [],
      "name": "_mintGuardianPaused",
      "outputs": [
        {
          "internalType": "bool",
          "name": "",
          "type": "bool"
        }
      ],
      "stateMutability": "view",
      "type": "function"
    },
    {
      "inputs": [
        {
          "internalType": "address",
          "name": "newBorrowCapGuardian",
          "type": "address"
        }
      ],
      "name": "_setBorrowCapGuardian",
      "outputs": [],
      "stateMutability": "nonpayable",
      "type": "function"
    },
    {
      "inputs": [
        {
          "internalType": "contract PToken",
          "name": "pToken",
          "type": "address"
        },
        {
          "internalType": "bool",
          "name": "state",
          "type": "bool"
        }
      ],
      "name": "_setBorrowPaused",
      "outputs": [
        {
          "internalType": "bool",
          "name": "",
          "type": "bool"
        }
      ],
      "stateMutability": "nonpayable",
      "type": "function"
    },
    {
      "inputs": [
        {
          "internalType": "uint256",
          "name": "newCloseFactorMantissa",
          "type": "uint256"
        }
      ],
      "name": "_setCloseFactor",
      "outputs": [
        {
          "internalType": "uint256",
          "name": "",
          "type": "uint256"
        }
      ],
      "stateMutability": "nonpayable",
      "type": "function"
    },
    {
      "inputs": [
        {
          "internalType": "contract PToken",
          "name": "pToken",
          "type": "address"
        },
        {
          "internalType": "uint256",
          "name": "newCollateralFactorMantissa",
          "type": "uint256"
        }
      ],
      "name": "_setCollateralFactor",
      "outputs": [
        {
          "internalType": "uint256",
          "name": "",
          "type": "uint256"
        }
      ],
      "stateMutability": "nonpayable",
      "type": "function"
    },
    {
      "inputs": [
        {
          "internalType": "bool",
          "name": "state",
          "type": "bool"
        }
      ],
      "name": "_setDistributeWpcPaused",
      "outputs": [
        {
          "internalType": "bool",
          "name": "",
          "type": "bool"
        }
      ],
      "stateMutability": "nonpayable",
      "type": "function"
    },
    {
      "inputs": [
        {
          "internalType": "uint256",
          "name": "newLiquidationIncentiveMantissa",
          "type": "uint256"
        }
      ],
      "name": "_setLiquidationIncentive",
      "outputs": [
        {
          "internalType": "uint256",
          "name": "",
          "type": "uint256"
        }
      ],
      "stateMutability": "nonpayable",
      "type": "function"
    },
    {
      "inputs": [
        {
          "internalType": "contract PToken[]",
          "name": "pTokens",
          "type": "address[]"
        },
        {
          "internalType": "uint256[]",
          "name": "newBorrowCaps",
          "type": "uint256[]"
        }
      ],
      "name": "_setMarketBorrowCaps",
      "outputs": [],
      "stateMutability": "nonpayable",
      "type": "function"
    },
    {
      "inputs": [
        {
          "internalType": "address",
          "name": "pToken",
          "type": "address"
        },
        {
          "internalType": "bool",
          "name": "status",
          "type": "bool"
        }
      ],
      "name": "_setMarketMinted",
      "outputs": [],
      "stateMutability": "nonpayable",
      "type": "function"
    },
    {
      "inputs": [
        {
          "internalType": "uint256",
          "name": "newMaxAssets",
          "type": "uint256"
        }
      ],
      "name": "_setMaxAssets",
      "outputs": [
        {
          "internalType": "uint256",
          "name": "",
          "type": "uint256"
        }
      ],
      "stateMutability": "nonpayable",
      "type": "function"
    },
    {
      "inputs": [
        {
          "internalType": "contract PToken",
          "name": "pToken",
          "type": "address"
        },
        {
          "internalType": "bool",
          "name": "state",
          "type": "bool"
        }
      ],
      "name": "_setMintPaused",
      "outputs": [
        {
          "internalType": "bool",
          "name": "",
          "type": "bool"
        }
      ],
      "stateMutability": "nonpayable",
      "type": "function"
    },
    {
      "inputs": [
        {
          "internalType": "address",
          "name": "newPauseGuardian",
          "type": "address"
        }
      ],
      "name": "_setPauseGuardian",
      "outputs": [
        {
          "internalType": "uint256",
          "name": "",
          "type": "uint256"
        }
      ],
      "stateMutability": "nonpayable",
      "type": "function"
    },
    {
      "inputs": [
        {
          "internalType": "contract IPiggyDistribution",
          "name": "newPiggyDistribution",
          "type": "address"
        }
      ],
      "name": "_setPiggyDistribution",
      "outputs": [
        {
          "internalType": "uint256",
          "name": "",
          "type": "uint256"
        }
      ],
      "stateMutability": "nonpayable",
      "type": "function"
    },
    {
      "inputs": [
        {
          "internalType": "contract IPriceOracle",
          "name": "newOracle",
          "type": "address"
        }
      ],
      "name": "_setPriceOracle",
      "outputs": [
        {
          "internalType": "uint256",
          "name": "",
          "type": "uint256"
        }
      ],
      "stateMutability": "nonpayable",
      "type": "function"
    },
    {
      "inputs": [
        {
          "internalType": "bool",
          "name": "state",
          "type": "bool"
        }
      ],
      "name": "_setSeizePaused",
      "outputs": [
        {
          "internalType": "bool",
          "name": "",
          "type": "bool"
        }
      ],
      "stateMutability": "nonpayable",
      "type": "function"
    },
    {
      "inputs": [
        {
          "internalType": "bool",
          "name": "state",
          "type": "bool"
        }
      ],
      "name": "_setTransferPaused",
      "outputs": [
        {
          "internalType": "bool",
          "name": "",
          "type": "bool"
        }
      ],
      "stateMutability": "nonpayable",
      "type": "function"
    },
    {
      "inputs": [
        {
          "internalType": "contract PToken",
          "name": "pToken",
          "type": "address"
        }
      ],
      "name": "_supportMarket",
      "outputs": [
        {
          "internalType": "uint256",
          "name": "",
          "type": "uint256"
        }
      ],
      "stateMutability": "nonpayable",
      "type": "function"
    },
    {
      "inputs": [
        {
          "internalType": "address",
          "name": "",
          "type": "address"
        },
        {
          "internalType": "uint256",
          "name": "",
          "type": "uint256"
        }
      ],
      "name": "accountAssets",
      "outputs": [
        {
          "internalType": "contract PToken",
          "name": "",
          "type": "address"
        }
      ],
      "stateMutability": "view",
      "type": "function"
    },
    {
      "inputs": [
        {
          "internalType": "uint256",
          "name": "",
          "type": "uint256"
        }
      ],
      "name": "allMarkets",
      "outputs": [
        {
          "internalType": "contract PToken",
          "name": "",
          "type": "address"
        }
      ],
      "stateMutability": "view",
      "type": "function"
    },
    {
      "inputs": [
        {
          "internalType": "address",
          "name": "pToken",
          "type": "address"
        },
        {
          "internalType": "address",
          "name": "borrower",
          "type": "address"
        },
        {
          "internalType": "uint256",
          "name": "borrowAmount",
          "type": "uint256"
        }
      ],
      "name": "borrowAllowed",
      "outputs": [
        {
          "internalType": "uint256",
          "name": "",
          "type": "uint256"
        }
      ],
      "stateMutability": "nonpayable",
      "type": "function"
    },
    {
      "inputs": [],
      "name": "borrowCapGuardian",
      "outputs": [
        {
          "internalType": "address",
          "name": "",
          "type": "address"
        }
      ],
      "stateMutability": "view",
      "type": "function"
    },
    {
      "inputs": [
        {
          "internalType": "address",
          "name": "",
          "type": "address"
        }
      ],
      "name": "borrowCaps",
      "outputs": [
        {
          "internalType": "uint256",
          "name": "",
          "type": "uint256"
        }
      ],
      "stateMutability": "view",
      "type": "function"
    },
    {
      "inputs": [
        {
          "internalType": "address",
          "name": "pToken",
          "type": "address"
        },
        {
          "internalType": "address",
          "name": "borrower",
          "type": "address"
        },
        {
          "internalType": "uint256",
          "name": "borrowAmount",
          "type": "uint256"
        }
      ],
      "name": "borrowVerify",
      "outputs": [],
      "stateMutability": "nonpayable",
      "type": "function"
    },
    {
      "inputs": [
        {
          "internalType": "address",
          "name": "account",
          "type": "address"
        },
        {
          "internalType": "contract PToken",
          "name": "pToken",
          "type": "address"
        }
      ],
      "name": "checkMembership",
      "outputs": [
        {
          "internalType": "bool",
          "name": "",
          "type": "bool"
        }
      ],
      "stateMutability": "view",
      "type": "function"
    },
    {
      "inputs": [],
      "name": "closeFactorMantissa",
      "outputs": [
        {
          "internalType": "uint256",
          "name": "",
          "type": "uint256"
        }
      ],
      "stateMutability": "view",
      "type": "function"
    },
    {
      "inputs": [],
      "name": "distributeWpcPaused",
      "outputs": [
        {
          "internalType": "bool",
          "name": "",
          "type": "bool"
        }
      ],
      "stateMutability": "view",
      "type": "function"
    },
    {
      "inputs": [
        {
          "internalType": "address[]",
          "name": "pTokens",
          "type": "address[]"
        }
      ],
      "name": "enterMarkets",
      "outputs": [
        {
          "internalType": "uint256[]",
          "name": "",
          "type": "uint256[]"
        }
      ],
      "stateMutability": "nonpayable",
      "type": "function"
    },
    {
      "inputs": [
        {
          "internalType": "address",
          "name": "pTokenAddress",
          "type": "address"
        }
      ],
      "name": "exitMarket",
      "outputs": [
        {
          "internalType": "uint256",
          "name": "",
          "type": "uint256"
        }
      ],
      "stateMutability": "nonpayable",
      "type": "function"
    },
    {
      "inputs": [
        {
          "internalType": "address",
          "name": "account",
          "type": "address"
        }
      ],
      "name": "getAccountLiquidity",
      "outputs": [
        {
          "internalType": "uint256",
          "name": "",
          "type": "uint256"
        },
        {
          "internalType": "uint256",
          "name": "",
          "type": "uint256"
        },
        {
          "internalType": "uint256",
          "name": "",
          "type": "uint256"
        }
      ],
      "stateMutability": "view",
      "type": "function"
    },
    {
      "inputs": [],
      "name": "getAllMarkets",
      "outputs": [
        {
          "internalType": "contract PToken[]",
          "name": "",
          "type": "address[]"
        }
      ],
      "stateMutability": "view",
      "type": "function"
    },
    {
      "inputs": [
        {
          "internalType": "address",
          "name": "account",
          "type": "address"
        }
      ],
      "name": "getAssetsIn",
      "outputs": [
        {
          "internalType": "contract PToken[]",
          "name": "",
          "type": "address[]"
        }
      ],
      "stateMutability": "view",
      "type": "function"
    },
    {
      "inputs": [
        {
          "internalType": "address",
          "name": "account",
          "type": "address"
        },
        {
          "internalType": "address",
          "name": "pTokenModify",
          "type": "address"
        },
        {
          "internalType": "uint256",
          "name": "redeemTokens",
          "type": "uint256"
        },
        {
          "internalType": "uint256",
          "name": "borrowAmount",
          "type": "uint256"
        }
      ],
      "name": "getHypotheticalAccountLiquidity",
      "outputs": [
        {
          "internalType": "uint256",
          "name": "",
          "type": "uint256"
        },
        {
          "internalType": "uint256",
          "name": "",
          "type": "uint256"
        },
        {
          "internalType": "uint256",
          "name": "",
          "type": "uint256"
        }
      ],
      "stateMutability": "view",
      "type": "function"
    },
    {
      "inputs": [],
      "name": "initialize",
      "outputs": [],
      "stateMutability": "nonpayable",
      "type": "function"
    },
    {
      "inputs": [
        {
          "internalType": "address",
          "name": "pToken",
          "type": "address"
        }
      ],
      "name": "isMarketListed",
      "outputs": [
        {
          "internalType": "bool",
          "name": "",
          "type": "bool"
        }
      ],
      "stateMutability": "view",
      "type": "function"
    },
    {
      "inputs": [
        {
          "internalType": "address",
          "name": "pToken",
          "type": "address"
        }
      ],
      "name": "isMarketMinted",
      "outputs": [
        {
          "internalType": "bool",
          "name": "",
          "type": "bool"
        }
      ],
      "stateMutability": "view",
      "type": "function"
    },
    {
      "inputs": [
        {
          "internalType": "address",
          "name": "pTokenBorrowed",
          "type": "address"
        },
        {
          "internalType": "address",
          "name": "pTokenCollateral",
          "type": "address"
        },
        {
          "internalType": "address",
          "name": "liquidator",
          "type": "address"
        },
        {
          "internalType": "address",
          "name": "borrower",
          "type": "address"
        },
        {
          "internalType": "uint256",
          "name": "repayAmount",
          "type": "uint256"
        }
      ],
      "name": "liquidateBorrowAllowed",
      "outputs": [
        {
          "internalType": "uint256",
          "name": "",
          "type": "uint256"
        }
      ],
      "stateMutability": "nonpayable",
      "type": "function"
    },
    {
      "inputs": [
        {
          "internalType": "address",
          "name": "pTokenBorrowed",
          "type": "address"
        },
        {
          "internalType": "address",
          "name": "pTokenCollateral",
          "type": "address"
        },
        {
          "internalType": "address",
          "name": "liquidator",
          "type": "address"
        },
        {
          "internalType": "address",
          "name": "borrower",
          "type": "address"
        },
        {
          "internalType": "uint256",
          "name": "repayAmount",
          "type": "uint256"
        },
        {
          "internalType": "uint256",
          "name": "seizeTokens",
          "type": "uint256"
        }
      ],
      "name": "liquidateBorrowVerify",
      "outputs": [],
      "stateMutability": "nonpayable",
      "type": "function"
    },
    {
      "inputs": [
        {
          "internalType": "address",
          "name": "pTokenBorrowed",
          "type": "address"
        },
        {
          "internalType": "address",
          "name": "pTokenCollateral",
          "type": "address"
        },
        {
          "internalType": "uint256",
          "name": "actualRepayAmount",
          "type": "uint256"
        }
      ],
      "name": "liquidateCalculateSeizeTokens",
      "outputs": [
        {
          "internalType": "uint256",
          "name": "",
          "type": "uint256"
        },
        {
          "internalType": "uint256",
          "name": "",
          "type": "uint256"
        }
      ],
      "stateMutability": "view",
      "type": "function"
    },
    {
      "inputs": [],
      "name": "liquidationIncentiveMantissa",
      "outputs": [
        {
          "internalType": "uint256",
          "name": "",
          "type": "uint256"
        }
      ],
      "stateMutability": "view",
      "type": "function"
    },
    {
      "inputs": [
        {
          "internalType": "address",
          "name": "",
          "type": "address"
        }
      ],
      "name": "markets",
      "outputs": [
        {
          "internalType": "bool",
          "name": "isListed",
          "type": "bool"
        },
        {
          "internalType": "uint256",
          "name": "collateralFactorMantissa",
          "type": "uint256"
        },
        {
          "internalType": "bool",
          "name": "isMinted",
          "type": "bool"
        }
      ],
      "stateMutability": "view",
      "type": "function"
    },
    {
      "inputs": [],
      "name": "maxAssets",
      "outputs": [
        {
          "internalType": "uint256",
          "name": "",
          "type": "uint256"
        }
      ],
      "stateMutability": "view",
      "type": "function"
    },
    {
      "inputs": [
        {
          "internalType": "address",
          "name": "pToken",
          "type": "address"
        },
        {
          "internalType": "address",
          "name": "minter",
          "type": "address"
        },
        {
          "internalType": "uint256",
          "name": "mintAmount",
          "type": "uint256"
        }
      ],
      "name": "mintAllowed",
      "outputs": [
        {
          "internalType": "uint256",
          "name": "",
          "type": "uint256"
        }
      ],
      "stateMutability": "nonpayable",
      "type": "function"
    },
    {
      "inputs": [
        {
          "internalType": "address",
          "name": "pToken",
          "type": "address"
        },
        {
          "internalType": "address",
          "name": "minter",
          "type": "address"
        },
        {
          "internalType": "uint256",
          "name": "mintAmount",
          "type": "uint256"
        },
        {
          "internalType": "uint256",
          "name": "mintTokens",
          "type": "uint256"
        }
      ],
      "name": "mintVerify",
      "outputs": [],
      "stateMutability": "nonpayable",
      "type": "function"
    },
    {
      "inputs": [],
      "name": "oracle",
      "outputs": [
        {
          "internalType": "contract IPriceOracle",
          "name": "",
          "type": "address"
        }
      ],
      "stateMutability": "view",
      "type": "function"
    },
    {
      "inputs": [],
      "name": "owner",
      "outputs": [
        {
          "internalType": "address",
          "name": "",
          "type": "address"
        }
      ],
      "stateMutability": "view",
      "type": "function"
    },
    {
      "inputs": [
        {
          "internalType": "address",
          "name": "",
          "type": "address"
        }
      ],
      "name": "pTokenBorrowGuardianPaused",
      "outputs": [
        {
          "internalType": "bool",
          "name": "",
          "type": "bool"
        }
      ],
      "stateMutability": "view",
      "type": "function"
    },
    {
      "inputs": [
        {
          "internalType": "address",
          "name": "",
          "type": "address"
        }
      ],
      "name": "pTokenMintGuardianPaused",
      "outputs": [
        {
          "internalType": "bool",
          "name": "",
          "type": "bool"
        }
      ],
      "stateMutability": "view",
      "type": "function"
    },
    {
      "inputs": [],
      "name": "pauseGuardian",
      "outputs": [
        {
          "internalType": "address",
          "name": "",
          "type": "address"
        }
      ],
      "stateMutability": "view",
      "type": "function"
    },
    {
      "inputs": [
        {
          "internalType": "address",
          "name": "pToken",
          "type": "address"
        },
        {
          "internalType": "address",
          "name": "redeemer",
          "type": "address"
        },
        {
          "internalType": "uint256",
          "name": "redeemTokens",
          "type": "uint256"
        }
      ],
      "name": "redeemAllowed",
      "outputs": [
        {
          "internalType": "uint256",
          "name": "",
          "type": "uint256"
        }
      ],
      "stateMutability": "nonpayable",
      "type": "function"
    },
    {
      "inputs": [
        {
          "internalType": "address",
          "name": "pToken",
          "type": "address"
        },
        {
          "internalType": "address",
          "name": "redeemer",
          "type": "address"
        },
        {
          "internalType": "uint256",
          "name": "redeemAmount",
          "type": "uint256"
        },
        {
          "internalType": "uint256",
          "name": "redeemTokens",
          "type": "uint256"
        }
      ],
      "name": "redeemVerify",
      "outputs": [],
      "stateMutability": "nonpayable",
      "type": "function"
    },
    {
      "inputs": [],
      "name": "renounceOwnership",
      "outputs": [],
      "stateMutability": "nonpayable",
      "type": "function"
    },
    {
      "inputs": [
        {
          "internalType": "address",
          "name": "pToken",
          "type": "address"
        },
        {
          "internalType": "address",
          "name": "payer",
          "type": "address"
        },
        {
          "internalType": "address",
          "name": "borrower",
          "type": "address"
        },
        {
          "internalType": "uint256",
          "name": "repayAmount",
          "type": "uint256"
        }
      ],
      "name": "repayBorrowAllowed",
      "outputs": [
        {
          "internalType": "uint256",
          "name": "",
          "type": "uint256"
        }
      ],
      "stateMutability": "nonpayable",
      "type": "function"
    },
    {
      "inputs": [
        {
          "internalType": "address",
          "name": "pToken",
          "type": "address"
        },
        {
          "internalType": "address",
          "name": "payer",
          "type": "address"
        },
        {
          "internalType": "address",
          "name": "borrower",
          "type": "address"
        },
        {
          "internalType": "uint256",
          "name": "repayAmount",
          "type": "uint256"
        },
        {
          "internalType": "uint256",
          "name": "borrowerIndex",
          "type": "uint256"
        }
      ],
      "name": "repayBorrowVerify",
      "outputs": [],
      "stateMutability": "nonpayable",
      "type": "function"
    },
    {
      "inputs": [
        {
          "internalType": "address",
          "name": "pTokenCollateral",
          "type": "address"
        },
        {
          "internalType": "address",
          "name": "pTokenBorrowed",
          "type": "address"
        },
        {
          "internalType": "address",
          "name": "liquidator",
          "type": "address"
        },
        {
          "internalType": "address",
          "name": "borrower",
          "type": "address"
        },
        {
          "internalType": "uint256",
          "name": "seizeTokens",
          "type": "uint256"
        }
      ],
      "name": "seizeAllowed",
      "outputs": [
        {
          "internalType": "uint256",
          "name": "",
          "type": "uint256"
        }
      ],
      "stateMutability": "nonpayable",
      "type": "function"
    },
    {
      "inputs": [],
      "name": "seizeGuardianPaused",
      "outputs": [
        {
          "internalType": "bool",
          "name": "",
          "type": "bool"
        }
      ],
      "stateMutability": "view",
      "type": "function"
    },
    {
      "inputs": [
        {
          "internalType": "address",
          "name": "pTokenCollateral",
          "type": "address"
        },
        {
          "internalType": "address",
          "name": "pTokenBorrowed",
          "type": "address"
        },
        {
          "internalType": "address",
          "name": "liquidator",
          "type": "address"
        },
        {
          "internalType": "address",
          "name": "borrower",
          "type": "address"
        },
        {
          "internalType": "uint256",
          "name": "seizeTokens",
          "type": "uint256"
        }
      ],
      "name": "seizeVerify",
      "outputs": [],
      "stateMutability": "nonpayable",
      "type": "function"
    },
    {
      "inputs": [
        {
          "internalType": "address",
          "name": "pToken",
          "type": "address"
        },
        {
          "internalType": "address",
          "name": "src",
          "type": "address"
        },
        {
          "internalType": "address",
          "name": "dst",
          "type": "address"
        },
        {
          "internalType": "uint256",
          "name": "transferTokens",
          "type": "uint256"
        }
      ],
      "name": "transferAllowed",
      "outputs": [
        {
          "internalType": "uint256",
          "name": "",
          "type": "uint256"
        }
      ],
      "stateMutability": "nonpayable",
      "type": "function"
    },
    {
      "inputs": [],
      "name": "transferGuardianPaused",
      "outputs": [
        {
          "internalType": "bool",
          "name": "",
          "type": "bool"
        }
      ],
      "stateMutability": "view",
      "type": "function"
    },
    {
      "inputs": [
        {
          "internalType": "address",
          "name": "newOwner",
          "type": "address"
        }
      ],
      "name": "transferOwnership",
      "outputs": [],
      "stateMutability": "nonpayable",
      "type": "function"
    },
    {
      "inputs": [
        {
          "internalType": "address",
          "name": "pToken",
          "type": "address"
        },
        {
          "internalType": "address",
          "name": "src",
          "type": "address"
        },
        {
          "internalType": "address",
          "name": "dst",
          "type": "address"
        },
        {
          "internalType": "uint256",
          "name": "transferTokens",
          "type": "uint256"
        }
      ],
      "name": "transferVerify",
      "outputs": [],
      "stateMutability": "nonpayable",
      "type": "function"
    }
  ],
  "bytecode": "0x608060405234801561001057600080fd5b50614712806100206000396000f3fe608060405234801561001057600080fd5b50600436106103af5760003560e01c80636d35bf91116101f4578063ac0b0bb71161011a578063da3d454c116100ad578063e87554461161007c578063e875544614610da9578063eabe7d9114610db1578063ede4edd014610de7578063f2fde38b14610e0d576103af565b8063da3d454c14610d13578063dce1544914610d49578063e4028eee14610d75578063e6653f3d14610da1576103af565b8063c2998238116100e9578063c299823814610bbe578063c488847b14610c61578063d02f735114610cb0578063d9226ced14610cf6576103af565b8063ac0b0bb714610b4c578063b0772d0b14610b54578063b41dcb5814610b5c578063bdcdc25814610b82576103af565b80638da5cb5b11610192578063929fe9a111610161578063929fe9a114610a7a57806394b2294b14610aa8578063a76b3fda14610ab0578063abfceffc14610ad6576103af565b80638da5cb5b146109e55780638e8f294b146109ed5780638ebf636414610a3557806390ba830714610a54576103af565b80637a617e26116101ce5780637a617e26146109a75780637dc0d1d0146109cd5780638129fc1c146109d557806387f76303146109dd576103af565b80636d35bf91146109335780636e80240a14610979578063715018a61461099f576103af565b80634a584432116102d957806355ee1fe1116102775780635fc7e71e116102465780635fc7e71e146107e7578063607ef6c11461082d5780636a56947e146108ef5780636caca4a71461092b576103af565b806355ee1fe11461073f5780635c778605146107655780635ec88c791461079b5780635f5af1aa146107c1576103af565b80634ef4c3e1116102b35780634ef4c3e1146106cf5780634fd42e171461070557806351dff9891461059157806352d84d1e14610722576103af565b80634a584432146106475780634ada90af1461066d5780634e79238f14610675576103af565b8063317b0b77116103515780633d98a1e5116103205780633d98a1e51461056b57806341c728b914610591578063478e3568146105cd57806347ef3b3b146105fb576103af565b8063317b0b77146104f2578063391957d71461050f5780633bcf7ec1146105355780633c94786f14610563576103af565b806321af45691161038d57806321af45691461045957806324008a621461047d57806324a3d622146104cb5780632d70db78146104d3576103af565b8063128aec6e146103b457806318c882a5146103e75780631ededc9114610415575b600080fd5b6103d3600480360360208110156103ca57600080fd5b50351515610e33565b604080519115158252519081900360200190f35b6103d3600480360360408110156103fd57600080fd5b506001600160a01b0381351690602001351515610f85565b610457600480360360a081101561042b57600080fd5b506001600160a01b03813581169160208101358216916040820135169060608101359060800135611141565b005b610461611148565b604080516001600160a01b039092168252519081900360200190f35b6104b96004803603608081101561049357600080fd5b506001600160a01b0381358116916020810135821691604082013516906060013561115c565b60408051918252519081900360200190f35b61046161120e565b6103d3600480360360208110156104e957600080fd5b5035151561121d565b6104b96004803603602081101561050857600080fd5b503561136f565b6104576004803603602081101561052557600080fd5b50356001600160a01b03166114b4565b6103d36004803603604081101561054b57600080fd5b506001600160a01b0381351690602001351515611579565b6103d3611730565b6103d36004803603602081101561058157600080fd5b50356001600160a01b0316611740565b610457600480360360808110156105a757600080fd5b506001600160a01b0381358116916020810135909116906040810135906060013561175e565b610457600480360360408110156105e357600080fd5b506001600160a01b0381351690602001351515611764565b610457600480360360c081101561061157600080fd5b506001600160a01b0381358116916020810135821691604082013581169160608101359091169060808101359060a001356117fe565b6104b96004803603602081101561065d57600080fd5b50356001600160a01b0316611806565b6104b9611818565b6106b16004803603608081101561068b57600080fd5b506001600160a01b0381358116916020810135909116906040810135906060013561181e565b60408051938452602084019290925282820152519081900360600190f35b6104b9600480360360608110156106e557600080fd5b506001600160a01b03813581169160208101359091169060400135611858565b6104b96004803603602081101561071b57600080fd5b50356118ee565b6104616004803603602081101561073857600080fd5b5035611a1d565b6104b96004803603602081101561075557600080fd5b50356001600160a01b0316611a44565b6104576004803603606081101561077b57600080fd5b506001600160a01b03813581169160208101359091169060400135611b06565b6106b1600480360360208110156107b157600080fd5b50356001600160a01b0316611b0b565b6104b9600480360360208110156107d757600080fd5b50356001600160a01b0316611b40565b6104b9600480360360a08110156107fd57600080fd5b506001600160a01b0381358116916020810135821691604082013581169160608101359091169060800135611bff565b6104576004803603604081101561084357600080fd5b81019060208101813564010000000081111561085e57600080fd5b82018360208201111561087057600080fd5b8035906020019184602083028401116401000000008311171561089257600080fd5b9193909290916020810190356401000000008111156108b057600080fd5b8201836020820111156108c257600080fd5b803590602001918460208302840111640100000000831117156108e457600080fd5b509092509050611d7d565b6104576004803603608081101561090557600080fd5b506001600160a01b0381358116916020810135821691604082013516906060013561175e565b6103d3611f20565b610457600480360360a081101561094957600080fd5b506001600160a01b0381358116916020810135821691604082013581169160608101359091169060800135611141565b6104b96004803603602081101561098f57600080fd5b50356001600160a01b0316611f29565b610457611fe9565b6103d3600480360360208110156109bd57600080fd5b50356001600160a01b031661208b565b6104616120a0565b6104576120af565b6103d3612159565b610461612169565b610a1360048036036020811015610a0357600080fd5b50356001600160a01b0316612178565b6040805193151584526020840192909252151582820152519081900360600190f35b6103d360048036036020811015610a4b57600080fd5b5035151561219e565b6103d360048036036020811015610a6a57600080fd5b50356001600160a01b03166122f3565b6103d360048036036040811015610a9057600080fd5b506001600160a01b0381358116916020013516612314565b6104b9612347565b6104b960048036036020811015610ac657600080fd5b50356001600160a01b031661234d565b610afc60048036036020811015610aec57600080fd5b50356001600160a01b0316612487565b60408051602080825283518183015283519192839290830191858101910280838360005b83811015610b38578181015183820152602001610b20565b505050509050019250505060405180910390f35b6103d3612510565b610afc612520565b6103d360048036036020811015610b7257600080fd5b50356001600160a01b0316612582565b6104b960048036036080811015610b9857600080fd5b506001600160a01b03813581169160208101358216916040820135169060600135612597565b610afc60048036036020811015610bd457600080fd5b810190602081018135640100000000811115610bef57600080fd5b820183602082011115610c0157600080fd5b80359060200191846020830284011164010000000083111715610c2357600080fd5b91908080602002602001604051908101604052809392919081815260200183836020028082843760009201919091525092955061269c945050505050565b610c9760048036036060811015610c7757600080fd5b506001600160a01b03813581169160208101359091169060400135612746565b6040805192835260208301919091528051918290030190f35b6104b9600480360360a0811015610cc657600080fd5b506001600160a01b03813581169160208101358216916040820135811691606081013590911690608001356129ac565b6104b960048036036020811015610d0c57600080fd5b5035612ba4565b6104b960048036036060811015610d2957600080fd5b506001600160a01b03813581169160208101359091169060400135612c48565b61046160048036036040811015610d5f57600080fd5b506001600160a01b038135169060200135613068565b6104b960048036036040811015610d8b57600080fd5b506001600160a01b03813516906020013561309d565b6103d361327d565b6104b961328d565b6104b960048036036060811015610dc757600080fd5b506001600160a01b03813581169160208101359091169060400135613293565b6104b960048036036020811015610dfd57600080fd5b50356001600160a01b03166132bb565b61045760048036036020811015610e2357600080fd5b50356001600160a01b03166135eb565b6006546000906001600160a01b0316331480610e675750610e52612169565b6001600160a01b0316336001600160a01b0316145b610ea25760405162461bcd60e51b815260040180806020018281038252602781526020018061460e6027913960400191505060405180910390fd5b610eaa612169565b6001600160a01b0316336001600160a01b03161480610ecb57506001821515145b610f15576040805162461bcd60e51b81526020600482015260166024820152756f6e6c79206f776e65722063616e20756e706175736560501b604482015290519081900360640190fd5b6009805483151560ff199091168117909155604080516020810192909252808252600d828201526c4469737472696275746557706360981b6060830152517fef159d9a32b2472e32b098f954f3ce62d232939f1c207070b584df1814de2de09181900360800190a150805b919050565b6001600160a01b03821660009081526005602052604081205460ff16610fdc5760405162461bcd60e51b81526004018080602001828103825260288152602001806145966028913960400191505060405180910390fd5b6006546001600160a01b031633148061100d5750610ff8612169565b6001600160a01b0316336001600160a01b0316145b6110485760405162461bcd60e51b815260040180806020018281038252602781526020018061460e6027913960400191505060405180910390fd5b611050612169565b6001600160a01b0316336001600160a01b0316148061107157506001821515145b6110bb576040805162461bcd60e51b81526020600482015260166024820152756f6e6c79206f776e65722063616e20756e706175736560501b604482015290519081900360640190fd5b6001600160a01b038316600081815260086020908152604091829020805486151560ff199091168117909155825193845283830152606090830181905260069083015265426f72726f7760d01b6080830152517f71aec636243f9709bb0007ae15e9afb8150ab01716d75fd7573be5cc096e03b09181900360a00190a150805b92915050565b5050505050565b60095461010090046001600160a01b031681565b6001600160a01b03841660009081526005602052604081205460ff1661118457506009611206565b60095460ff166112025760a354604080516392e1a29560e01b81526001600160a01b038881166004830152868116602483015260006044830181905292519316926392e1a2959260648084019391929182900301818387803b1580156111e957600080fd5b505af11580156111fd573d6000803e3d6000fd5b505050505b5060005b949350505050565b6006546001600160a01b031681565b6006546000906001600160a01b0316331480611251575061123c612169565b6001600160a01b0316336001600160a01b0316145b61128c5760405162461bcd60e51b815260040180806020018281038252602781526020018061460e6027913960400191505060405180910390fd5b611294612169565b6001600160a01b0316336001600160a01b031614806112b557506001821515145b6112ff576040805162461bcd60e51b81526020600482015260166024820152756f6e6c79206f776e65722063616e20756e706175736560501b604482015290519081900360640190fd5b60068054831515600160b81b810260ff60b81b1990921691909117909155604080516020810192909252808252600582820152645365697a6560d81b6060830152517fef159d9a32b2472e32b098f954f3ce62d232939f1c207070b584df1814de2de09181900360800190a15090565b60006113796136e4565b6071546001600160a01b039081169116146113c9576040805162461bcd60e51b81526020600482018190526024820152600080516020614635833981519152604482015290519081900360640190fd5b6113d1614518565b5060408051602081019091528281526113e8614518565b50604080516020810190915266b1a2bc2ec50000815261140882826136e8565b15611421576114186005806136f0565b92505050610f80565b611429614518565b506040805160208101909152670c7d713b49da0000815261144a8184613756565b156114645761145a6005806136f0565b9350505050610f80565b6001805490869055604080518281526020810188905281517f3b9670cf975d26958e754b57098eaa2ac914d8d2a31b83257997b9f346110fd9929181900390910190a160005b9695505050505050565b6114bc6136e4565b6071546001600160a01b0390811691161461150c576040805162461bcd60e51b81526020600482018190526024820152600080516020614635833981519152604482015290519081900360640190fd5b600980546001600160a01b03838116610100818102610100600160a81b03198516179094556040805194909304919091168084526020840191909152815190927feda98690e518e9a05f8ec6837663e188211b2da8f4906648b323f2c1d4434e2992908290030190a15050565b6001600160a01b03821660009081526005602052604081205460ff166115d05760405162461bcd60e51b81526004018080602001828103825260288152602001806145966028913960400191505060405180910390fd5b6006546001600160a01b031633148061160157506115ec612169565b6001600160a01b0316336001600160a01b0316145b61163c5760405162461bcd60e51b815260040180806020018281038252602781526020018061460e6027913960400191505060405180910390fd5b611644612169565b6001600160a01b0316336001600160a01b0316148061166557506001821515145b6116af576040805162461bcd60e51b81526020600482015260166024820152756f6e6c79206f776e65722063616e20756e706175736560501b604482015290519081900360640190fd5b6001600160a01b038316600081815260076020908152604091829020805486151560ff199091168117909155825193845283830152606090830181905260049083015263135a5b9d60e21b6080830152517f71aec636243f9709bb0007ae15e9afb8150ab01716d75fd7573be5cc096e03b09181900360a00190a150919050565b600654600160a01b900460ff1681565b6001600160a01b031660009081526005602052604090205460ff1690565b50505050565b60a3546001600160a01b03163314806117955750611780612169565b6001600160a01b0316336001600160a01b0316145b6117d05760405162461bcd60e51b815260040180806020018281038252602a8152602001806145e4602a913960400191505060405180910390fd5b6001600160a01b03919091166000908152600560205260409020600301805460ff1916911515919091179055565b505050505050565b600a6020526000908152604090205481565b60025481565b6000806000806000806118338a8a8a8a61375d565b92509250925082601181111561184557fe5b95509093509150505b9450945094915050565b6001600160a01b03831660009081526007602052604081205460ff16156118b7576040805162461bcd60e51b815260206004820152600e60248201526d1b5a5b9d081a5cc81c185d5cd95960921b604482015290519081900360640190fd5b6001600160a01b03841660009081526005602052604090205460ff166118e15760095b90506118e7565b60005b90505b9392505050565b60006118f86136e4565b6071546001600160a01b03908116911614611948576040805162461bcd60e51b81526020600482018190526024820152600080516020614635833981519152604482015290519081900360640190fd5b611950614518565b506040805160208101909152828152611967614518565b506040805160208101909152670de0b6b3a764000081526119888282613756565b15611999576114186007600c6136f0565b6119a1614518565b5060408051602081019091526714d1120d7b16000081526119c28184613756565b156119d35761145a6007600c6136f0565b6002805490869055604080518281526020810188905281517faeba5a6c40a8ac138134bff1aaa65debf25971188a58804bad717f82f0ec1316929181900390910190a160006114aa565b600b8181548110611a2a57fe5b6000918252602090912001546001600160a01b0316905081565b6000611a4e6136e4565b6071546001600160a01b03908116911614611a9e576040805162461bcd60e51b81526020600482018190526024820152600080516020614635833981519152604482015290519081900360640190fd5b600080546001600160a01b038481166001600160a01b0319831681179093556040805191909216808252602082019390935281517fd52b2b9b7e9ee655fcb95d2e5b9e0c9f69e7ef2b8e9d2d0ea78402d576d22e22929181900390910190a160009392505050565b505050565b600080600080600080611b2287600080600061375d565b925092509250826011811115611b3457fe5b97919650945092505050565b6000611b4a6136e4565b6071546001600160a01b03908116911614611b9a576040805162461bcd60e51b81526020600482018190526024820152600080516020614635833981519152604482015290519081900360640190fd5b600680546001600160a01b038481166001600160a01b0319831617928390556040805192821680845293909116602083015280517f0613b6ee6a04f0d09f390e4d9318894b9f6ac7fd83897cd8d18896ba579c401e9281900390910190a160006118e7565b6001600160a01b03851660009081526005602052604081205460ff161580611c4057506001600160a01b03851660009081526005602052604090205460ff16155b15611c4f5760095b9050611d74565b600080611c5b85613b65565b91935090915060009050826011811115611c7157fe5b14611c8b57816011811115611c8257fe5b92505050611d74565b80611c97576003611c82565b6000886001600160a01b03166395dd9193876040518263ffffffff1660e01b815260040180826001600160a01b0316815260200191505060206040518083038186803b158015611ce657600080fd5b505afa158015611cfa573d6000803e3d6000fd5b505050506040513d6020811015611d1057600080fd5b5051604080516020810190915260015481529091506000908190611d349084613b85565b90925090506000826003811115611d4757fe5b14611d5b57600b5b95505050505050611d74565b80871115611d6a576011611d4f565b6000955050505050505b95945050505050565b611d85612169565b6001600160a01b0316336001600160a01b03161480611db3575060095461010090046001600160a01b031633145b611dee5760405162461bcd60e51b81526004018080602001828103825260358152602001806146836035913960400191505060405180910390fd5b82818115801590611dfe57508082145b611e3f576040805162461bcd60e51b815260206004820152600d60248201526c1a5b9d985b1a59081a5b9c1d5d609a1b604482015290519081900360640190fd5b60005b82811015611f1757848482818110611e5657fe5b90506020020135600a6000898985818110611e6d57fe5b905060200201356001600160a01b03166001600160a01b03166001600160a01b0316815260200190815260200160002081905550868682818110611ead57fe5b905060200201356001600160a01b03166001600160a01b03167f6f1951b2aad10f3fc81b86d91105b413a5b3f847a34bbc5ce1904201b14438f6868684818110611ef357fe5b905060200201356040518082815260200191505060405180910390a2600101611e42565b50505050505050565b60095460ff1681565b6000611f336136e4565b6071546001600160a01b03908116911614611f83576040805162461bcd60e51b81526020600482018190526024820152600080516020614635833981519152604482015290519081900360640190fd5b60a380546001600160a01b038481166001600160a01b0319831681179093556040805191909216808252602082019390935281517f49bc9b2543c3ca3ee52cef393ce2ebfd201ed081bfc931f8d6ee2121c99f83c8929181900390910190a160006118e7565b611ff16136e4565b6071546001600160a01b03908116911614612041576040805162461bcd60e51b81526020600482018190526024820152600080516020614635833981519152604482015290519081900360640190fd5b6071546040516000916001600160a01b0316907f8be0079c531659141344cd1fd0a4f28419497f9722a3daafe3b4186f6b6457e0908390a3607180546001600160a01b0319169055565b60076020526000908152604090205460ff1681565b6000546001600160a01b031681565b600c54610100900460ff16806120c857506120c8613bd9565b806120d65750600c5460ff16155b6121115760405162461bcd60e51b815260040180806020018281038252602e815260200180614655602e913960400191505060405180910390fd5b600c54610100900460ff1615801561213c57600c805460ff1961ff0019909116610100171660011790555b612144613bdf565b801561215657600c805461ff00191690555b50565b600654600160b01b900460ff1681565b6071546001600160a01b031690565b60056020526000908152604090208054600182015460039092015460ff91821692911683565b6006546000906001600160a01b03163314806121d257506121bd612169565b6001600160a01b0316336001600160a01b0316145b61220d5760405162461bcd60e51b815260040180806020018281038252602781526020018061460e6027913960400191505060405180910390fd5b612215612169565b6001600160a01b0316336001600160a01b0316148061223657506001821515145b612280576040805162461bcd60e51b81526020600482015260166024820152756f6e6c79206f776e65722063616e20756e706175736560501b604482015290519081900360640190fd5b60068054831515600160b01b810260ff60b01b1990921691909117909155604080516020810192909252808252600882820152672a3930b739b332b960c11b6060830152517fef159d9a32b2472e32b098f954f3ce62d232939f1c207070b584df1814de2de09181900360800190a15090565b6001600160a01b031660009081526005602052604090206003015460ff1690565b6001600160a01b038082166000908152600560209081526040808320938616835260029093019052205460ff1692915050565b60035481565b60006123576136e4565b6071546001600160a01b039081169116146123a7576040805162461bcd60e51b81526020600482018190526024820152600080516020614635833981519152604482015290519081900360640190fd5b6001600160a01b03821660009081526005602052604090205460ff16156123db576123d4600a60116136f0565b9050610f80565b604080516060810182526001808252600060208084018281528486018381526001600160a01b03891684526005909252949091209251835490151560ff1991821617845593519183019190915551600390910180549115159190921617905561244382613c7c565b604080516001600160a01b038416815290517fcf583bb0c569eb967f806b11601c4cb93c10310485c67add5f8362c2f212321f9181900360200190a1600092915050565b60608060046000846001600160a01b03166001600160a01b0316815260200190815260200160002080548060200260200160405190810160405280929190818152602001828054801561250357602002820191906000526020600020905b81546001600160a01b031681526001909101906020018083116124e5575b5093979650505050505050565b600654600160b81b900460ff1681565b6060600b80548060200260200160405190810160405280929190818152602001828054801561257857602002820191906000526020600020905b81546001600160a01b0316815260019091019060200180831161255a575b5050505050905090565b60086020526000908152604090205460ff1681565b600654600090600160b01b900460ff16156125ee576040805162461bcd60e51b81526020600482015260126024820152711d1c985b9cd9995c881a5cc81c185d5cd95960721b604482015290519081900360640190fd5b60006125fb868685613db2565b9050801561260a579050611206565b60095460ff166126905760a3546040805163266aa5bd60e11b81526001600160a01b038981166004830152888116602483015287811660448301526000606483018190529251931692634cd54b7a9260848084019391929182900301818387803b15801561267757600080fd5b505af115801561268b573d6000803e3d6000fd5b505050505b60009695505050505050565b8051606090818167ffffffffffffffff811180156126b957600080fd5b506040519080825280602002602001820160405280156126e3578160200160208202803683370190505b50905060005b8281101561273e5760008582815181106126ff57fe5b602002602001015190506127138133613e5e565b601181111561271e57fe5b83838151811061272a57fe5b6020908102919091010152506001016126e9565b509392505050565b600080546040805163fc57d4df60e01b81526001600160a01b038781166004830152915184938493169163fc57d4df916024808301926020929190829003018186803b15801561279557600080fd5b505afa1580156127a9573d6000803e3d6000fd5b505050506040513d60208110156127bf57600080fd5b5051600080546040805163fc57d4df60e01b81526001600160a01b038a811660048301529151949550929391169163fc57d4df916024808301926020929190829003018186803b15801561281257600080fd5b505afa158015612826573d6000803e3d6000fd5b505050506040513d602081101561283c57600080fd5b5051905081158061284b575080155b1561285f57600d60009350935050506129a4565b6000866001600160a01b031663182df0f56040518163ffffffff1660e01b815260040160206040518083038186803b15801561289a57600080fd5b505afa1580156128ae573d6000803e3d6000fd5b505050506040513d60208110156128c457600080fd5b5051905060006128d2614518565b6128da614518565b6128e2614518565b60006128f060025489613f7f565b94509050600081600381111561290257fe5b1461291d57600b5b60009950995050505050505050506129a4565b6129278787613f7f565b93509050600081600381111561293957fe5b1461294557600b61290a565b61294f8484613fba565b92509050600081600381111561296157fe5b1461296d57600b61290a565b612977828c613b85565b95509050600081600381111561298957fe5b1461299557600b61290a565b60009950939750505050505050505b935093915050565b600654600090600160b81b900460ff1615612a00576040805162461bcd60e51b815260206004820152600f60248201526e1cd95a5e99481a5cc81c185d5cd959608a1b604482015290519081900360640190fd5b6001600160a01b03861660009081526005602052604090205460ff161580612a4157506001600160a01b03851660009081526005602052604090205460ff16155b15612a4d576009611c48565b846001600160a01b0316635fe3b5676040518163ffffffff1660e01b815260040160206040518083038186803b158015612a8657600080fd5b505afa158015612a9a573d6000803e3d6000fd5b505050506040513d6020811015612ab057600080fd5b505160408051635fe3b56760e01b815290516001600160a01b0392831692891691635fe3b567916004808301926020929190829003018186803b158015612af657600080fd5b505afa158015612b0a573d6000803e3d6000fd5b505050506040513d6020811015612b2057600080fd5b50516001600160a01b031614612b37576002611c48565b60095460ff166126905760a3546040805163136a5db760e31b81526001600160a01b038981166004830152868116602483015287811660448301526000606483018190529251931692639b52edb89260848084019391929182900301818387803b15801561267757600080fd5b6000612bae6136e4565b6071546001600160a01b03908116911614612bfe576040805162461bcd60e51b81526020600482018190526024820152600080516020614635833981519152604482015290519081900360640190fd5b6003805490839055604080518281526020810185905281517f7093cf1eb653f749c3ff531d6df7f92764536a7fa0d13530cd26e070780c32ea929181900390910190a160006118e7565b6001600160a01b03831660009081526008602052604081205460ff1615612ca9576040805162461bcd60e51b815260206004820152601060248201526f189bdc9c9bddc81a5cc81c185d5cd95960821b604482015290519081900360640190fd5b6001600160a01b03841660009081526005602052604090205460ff16612cd05760096118da565b6001600160a01b038085166000908152600560209081526040808320938716835260029093019052205460ff16612dc057336001600160a01b03851614612d56576040805162461bcd60e51b815260206004820152601560248201527439b2b73232b91036bab9ba10313290382a37b5b2b760591b604482015290519081900360640190fd5b6000612d623385613e5e565b90506000816011811115612d7257fe5b14612d8b57806011811115612d8357fe5b9150506118e7565b6001600160a01b038086166000908152600560209081526040808320938816835260029093019052205460ff16612dbe57fe5b505b6000546040805163fc57d4df60e01b81526001600160a01b0387811660048301529151919092169163fc57d4df916024808301926020929190829003018186803b158015612e0d57600080fd5b505afa158015612e21573d6000803e3d6000fd5b505050506040513d6020811015612e3757600080fd5b5051612e4457600d6118da565b6001600160a01b0384166000908152600a60205260409020548015612f8f576000856001600160a01b03166347bd37186040518163ffffffff1660e01b815260040160206040518083038186803b158015612e9e57600080fd5b505afa158015612eb2573d6000803e3d6000fd5b505050506040513d6020811015612ec857600080fd5b50519050600080612ed98387613fd2565b90925090506000826003811115612eec57fe5b14612f37576040805162461bcd60e51b8152602060048201526016602482015275746f74616c20626f72726f7773206f766572666c6f7760501b604482015290519081900360640190fd5b838110612f8b576040805162461bcd60e51b815260206004820152601960248201527f6d61726b657420626f72726f7720636170207265616368656400000000000000604482015290519081900360640190fd5b5050505b600080612f9f868860008861375d565b91935090915060009050826011811115612fb557fe5b14612fd057816011811115612fc657fe5b93505050506118e7565b8015612fdd576004612fc6565b60095460ff1661305b5760a354604080516379d438cb60e11b81526001600160a01b038a811660048301528981166024830152600060448301819052925193169263f3a871969260648084019391929182900301818387803b15801561304257600080fd5b505af1158015613056573d6000803e3d6000fd5b505050505b6000979650505050505050565b6004602052816000526040600020818154811061308157fe5b6000918252602090912001546001600160a01b03169150829050565b60006130a76136e4565b6071546001600160a01b039081169116146130f7576040805162461bcd60e51b81526020600482018190526024820152600080516020614635833981519152604482015290519081900360640190fd5b6001600160a01b0383166000908152600560205260409020805460ff1661312c57613124600960076136f0565b91505061113b565b613134614518565b50604080516020810190915283815261314b614518565b506040805160208101909152670c7d713b49da0000815261316c8183613756565b156131875761317d600660086136f0565b935050505061113b565b841580159061320c57506000546040805163fc57d4df60e01b81526001600160a01b0389811660048301529151919092169163fc57d4df916024808301926020929190829003018186803b1580156131de57600080fd5b505afa1580156131f2573d6000803e3d6000fd5b505050506040513d602081101561320857600080fd5b5051155b1561321d5761317d600d60096136f0565b60018301805490869055604080516001600160a01b03891681526020810183905280820188905290517f70483e6592cd5182d45ac970e05bc62cdcc90e9d8ef2c2dbe686cf383bcd7fc59181900360600190a16000979650505050505050565b600654600160a81b900460ff1681565b60015481565b6000806132a1858585613db2565b905080156132b05790506118e7565b600095945050505050565b6000808290506000806000836001600160a01b031663c37f68e2336040518263ffffffff1660e01b815260040180826001600160a01b0316815260200191505060806040518083038186803b15801561331357600080fd5b505afa158015613327573d6000803e3d6000fd5b505050506040513d608081101561333d57600080fd5b5080516020820151604090920151909450909250905082156133905760405162461bcd60e51b81526004018080602001828103825260258152602001806146b86025913960400191505060405180910390fd5b80156133ad576133a2600c60026136f0565b945050505050610f80565b60006133ba873385613db2565b905080156133db576133cf600e600383613ff8565b95505050505050610f80565b6001600160a01b0385166000908152600560209081526040808320338452600281019092529091205460ff1661341a5760009650505050505050610f80565b3360009081526002820160209081526040808320805460ff19169055600482529182902080548351818402810184019094528084526060939283018282801561348c57602002820191906000526020600020905b81546001600160a01b0316815260019091019060200180831161346e575b5050835193945083925060009150505b828110156134e157896001600160a01b03168482815181106134ba57fe5b60200260200101516001600160a01b031614156134d9578091506134e1565b60010161349c565b508181106134eb57fe5b33600090815260046020526040902080548190600019810190811061350c57fe5b9060005260206000200160009054906101000a90046001600160a01b031681838154811061353657fe5b9060005260206000200160006101000a8154816001600160a01b0302191690836001600160a01b031602179055508080548061356e57fe5b6000828152602090819020820160001990810180546001600160a01b0319169055909101909155604080516001600160a01b038d168152339281019290925280517fe699a64c18b07ac5b7301aa273f36a2287239eb9501d81950672794afba29a0d9281900390910190a160009c9b505050505050505050505050565b6135f36136e4565b6071546001600160a01b03908116911614613643576040805162461bcd60e51b81526020600482018190526024820152600080516020614635833981519152604482015290519081900360640190fd5b6001600160a01b0381166136885760405162461bcd60e51b81526004018080602001828103825260268152602001806145be6026913960400191505060405180910390fd5b6071546040516001600160a01b038084169216907f8be0079c531659141344cd1fd0a4f28419497f9722a3daafe3b4186f6b6457e090600090a3607180546001600160a01b0319166001600160a01b0392909216919091179055565b3390565b519051111590565b60007f45b96fe442630264581b197e84bbada861235052c5a1aadfff9ea4e40a969aa083601181111561371f57fe5b83601381111561372b57fe5b604080519283526020830191909152600082820152519081900360600190a18260118111156118e757fe5b5190511090565b600080600061376a61452b565b6001600160a01b0388166000908152600460209081526040808320805482518185028101850190935280835284936060939291908301828280156137d757602002820191906000526020600020905b81546001600160a01b031681526001909101906020018083116137b9575b5050505050905060005b8151811015613b215760008282815181106137f857fe5b60200260200101519050806001600160a01b031663c37f68e28e6040518263ffffffff1660e01b815260040180826001600160a01b0316815260200191505060806040518083038186803b15801561384f57600080fd5b505afa158015613863573d6000803e3d6000fd5b505050506040513d608081101561387957600080fd5b508051602082015160408084015160609485015160808c0152938a019390935291880191909152945084156138be57600f60008098509850985050505050505061184e565b60408051602080820183526001600160a01b0380851660008181526005845285812060010154855260c08c01949094528451808401865260808c0151815260e08c01529254845163fc57d4df60e01b81526004810194909452935193169263fc57d4df926024808201939291829003018186803b15801561393e57600080fd5b505afa158015613952573d6000803e3d6000fd5b505050506040513d602081101561396857600080fd5b505160a0870181905261398b57600d60008098509850985050505050505061184e565b604080516020810190915260a08701518152610100870181905260c087015160e08801516139b89261405e565b610120880152935060008460038111156139ce57fe5b146139e957600b60008098509850985050505050505061184e565b613a01866101200151876040015188600001516140b6565b875293506000846003811115613a1357fe5b14613a2e57600b60008098509850985050505050505061184e565b613a46866101000151876060015188602001516140b6565b602088015293506000846003811115613a5b57fe5b14613a7657600b60008098509850985050505050505061184e565b8b6001600160a01b0316816001600160a01b03161415613b1857613aa48661012001518c88602001516140b6565b602088015293506000846003811115613ab957fe5b14613ad457600b60008098509850985050505050505061184e565b613ae88661010001518b88602001516140b6565b602088015293506000846003811115613afd57fe5b14613b1857600b60008098509850985050505050505061184e565b506001016137e1565b50602084015184511115613b4857505050602081015190516000945003915082905061184e565b60008085600001518660200151039650965096505050505061184e565b6000806000613b7884600080600061375d565b9250925092509193909250565b6000806000613b92614518565b613b9c8686614103565b90925090506000826003811115613baf57fe5b14613bc05750915060009050613bd2565b6000613bcb8261416b565b9350935050505b9250929050565b303b1590565b600c54610100900460ff1680613bf85750613bf8613bd9565b80613c065750600c5460ff16155b613c415760405162461bcd60e51b815260040180806020018281038252602e815260200180614655602e913960400191505060405180910390fd5b600c54610100900460ff16158015613c6c57600c805460ff1961ff0019909116610100171660011790555b613c7461417a565b61214461421a565b613c846136e4565b6071546001600160a01b03908116911614613cd4576040805162461bcd60e51b81526020600482018190526024820152600080516020614635833981519152604482015290519081900360640190fd5b60005b600b54811015613d5f57816001600160a01b0316600b8281548110613cf857fe5b6000918252602090912001546001600160a01b03161415613d57576040805162461bcd60e51b81526020600482015260146024820152731b585c9ad95d08185b1c9958591e48185919195960621b604482015290519081900360640190fd5b600101613cd7565b50600b80546001810182556000919091527f0175b7a638427703f0dbe7bb9bbf987a2551717b34e79f33b5b1008d1fa01db90180546001600160a01b0319166001600160a01b0392909216919091179055565b6001600160a01b03831660009081526005602052604081205460ff16613dd95760096118da565b6001600160a01b038085166000908152600560209081526040808320938716835260029093019052205460ff16613e115760006118da565b600080613e21858786600061375d565b91935090915060009050826011811115613e3757fe5b14613e5157816011811115613e4857fe5b925050506118e7565b8015612690576004613e48565b6001600160a01b0382166000908152600560205260408120805460ff16613e8957600991505061113b565b6001600160a01b038316600090815260028201602052604090205460ff16151560011415613ebb57600091505061113b565b6003546001600160a01b03841660009081526004602052604090205410613ee657601091505061113b565b6001600160a01b0380841660008181526002840160209081526040808320805460ff19166001908117909155600483528184208054918201815584529282902090920180549489166001600160a01b031990951685179055815193845283019190915280517f3ab23ab0d51cccc0c3085aec51f99228625aa1a922b3a8ca89a26b0f2027a1a59281900390910190a15060009392505050565b6000613f89614518565b613faf604051806020016040528086815250604051806020016040528086815250614313565b915091509250929050565b6000613fc4614518565b83518351613faf91906143fd565b600080838301848110613fea57600092509050613bd2565b600260009250925050613bd2565b60007f45b96fe442630264581b197e84bbada861235052c5a1aadfff9ea4e40a969aa084601181111561402757fe5b84601381111561403357fe5b604080519283526020830191909152818101859052519081900360600190a18360118111156118e457fe5b6000614068614518565b6000614072614518565b61407c8787614313565b9092509050600082600381111561408f57fe5b1461409e5790925090506129a4565b6140a88186614313565b935093505050935093915050565b60008060006140c3614518565b6140cd8787614103565b909250905060008260038111156140e057fe5b146140f157509150600090506129a4565b6140a86140fd8261416b565b86613fd2565b600061410d614518565b60008061411e8660000151866144ae565b9092509050600082600381111561413157fe5b1461415057506040805160208101909152600081529092509050613bd2565b60408051602081019091529081526000969095509350505050565b51670de0b6b3a7640000900490565b600c54610100900460ff16806141935750614193613bd9565b806141a15750600c5460ff16155b6141dc5760405162461bcd60e51b815260040180806020018281038252602e815260200180614655602e913960400191505060405180910390fd5b600c54610100900460ff1615801561214457600c805460ff1961ff001990911661010017166001179055801561215657600c805461ff001916905550565b600c54610100900460ff16806142335750614233613bd9565b806142415750600c5460ff16155b61427c5760405162461bcd60e51b815260040180806020018281038252602e815260200180614655602e913960400191505060405180910390fd5b600c54610100900460ff161580156142a757600c805460ff1961ff0019909116610100171660011790555b60006142b16136e4565b607180546001600160a01b0319166001600160a01b038316908117909155604051919250906000907f8be0079c531659141344cd1fd0a4f28419497f9722a3daafe3b4186f6b6457e0908290a350801561215657600c805461ff001916905550565b600061431d614518565b600080614332866000015186600001516144ae565b9092509050600082600381111561434557fe5b1461436457506040805160208101909152600081529092509050613bd2565b6000806143796706f05b59d3b2000084613fd2565b9092509050600082600381111561438c57fe5b146143af5781604051806020016040528060008152509550955050505050613bd2565b6000806143c483670de0b6b3a76400006144ed565b909250905060008260038111156143d757fe5b146143de57fe5b604080516020810190915290815260009a909950975050505050505050565b6000614407614518565b60008061441c86670de0b6b3a76400006144ae565b9092509050600082600381111561442f57fe5b1461444e57506040805160208101909152600081529092509050613bd2565b60008061445b83886144ed565b9092509050600082600381111561446e57fe5b146144915781604051806020016040528060008152509550955050505050613bd2565b604080516020810190915290815260009890975095505050505050565b600080836144c157506000905080613bd2565b838302838582816144ce57fe5b04146144e257600260009250925050613bd2565b600092509050613bd2565b600080826145015750600190506000613bd2565b600083858161450c57fe5b04915091509250929050565b6040518060200160405280600081525090565b604051806101400160405280600081526020016000815260200160008152602001600081526020016000815260200160008152602001614569614518565b8152602001614576614518565b8152602001614583614518565b8152602001614590614518565b90529056fe63616e6e6f742070617573652061206d61726b65742074686174206973206e6f74206c69737465644f776e61626c653a206e6577206f776e657220697320746865207a65726f20616464726573736f6e6c79205069676779446973747269627574696f6e206f72206f776e65722063616e207570646174656f6e6c7920706175736520677561726469616e20616e64206f776e65722063616e2070617573654f776e61626c653a2063616c6c6572206973206e6f7420746865206f776e6572436f6e747261637420696e7374616e63652068617320616c7265616479206265656e20696e697469616c697a65646f6e6c79206f776e6572206f7220626f72726f772063617020677561726469616e2063616e2073657420626f72726f772063617073657869744d61726b65743a206765744163636f756e74536e617073686f74206661696c6564a2646970667358221220660af63eca1fc8a32bfb3edbeb273afe0511d988d70f151c77d3a4450dffbe3664736f6c634300060c0033",
  "linkReferences": {},
  "deployedLinkReferences": {}
}