{
  "_format": "hh-sol-artifact-1",
  "contractName": "Comptroller",
  "sourceName": "contracts/Lend/comptroller/Comptroller.sol",
  "abi": [
    {
      "anonymous": false,
      "inputs": [
        {
          "indexed": false,
          "internalType": "string",
          "name": "action",
          "type": "string"
        },
        {
          "indexed": false,
          "internalType": "bool",
          "name": "pauseState",
          "type": "bool"
        }
      ],
      "name": "ActionPaused",
      "type": "event"
    },
    {
      "anonymous": false,
      "inputs": [
        {
          "indexed": false,
          "internalType": "contract PToken",
          "name": "pToken",
          "type": "address"
        },
        {
          "indexed": false,
          "internalType": "string",
          "name": "action",
          "type": "string"
        },
        {
          "indexed": false,
          "internalType": "bool",
          "name": "pauseState",
          "type": "bool"
        }
      ],
      "name": "ActionPaused",
      "type": "event"
    },
    {
      "anonymous": false,
      "inputs": [
        {
          "indexed": false,
          "internalType": "uint256",
          "name": "error",
          "type": "uint256"
        },
        {
          "indexed": false,
          "internalType": "uint256",
          "name": "info",
          "type": "uint256"
        },
        {
          "indexed": false,
          "internalType": "uint256",
          "name": "detail",
          "type": "uint256"
        }
      ],
      "name": "Failure",
      "type": "event"
    },
    {
      "anonymous": false,
      "inputs": [
        {
          "indexed": false,
          "internalType": "contract PToken",
          "name": "pToken",
          "type": "address"
        },
        {
          "indexed": false,
          "internalType": "address",
          "name": "account",
          "type": "address"
        }
      ],
      "name": "MarketEntered",
      "type": "event"
    },
    {
      "anonymous": false,
      "inputs": [
        {
          "indexed": false,
          "internalType": "contract PToken",
          "name": "pToken",
          "type": "address"
        },
        {
          "indexed": false,
          "internalType": "address",
          "name": "account",
          "type": "address"
        }
      ],
      "name": "MarketExited",
      "type": "event"
    },
    {
      "anonymous": false,
      "inputs": [
        {
          "indexed": false,
          "internalType": "contract PToken",
          "name": "pToken",
          "type": "address"
        }
      ],
      "name": "MarketListed",
      "type": "event"
    },
    {
      "anonymous": false,
      "inputs": [
        {
          "indexed": true,
          "internalType": "contract PToken",
          "name": "pToken",
          "type": "address"
        },
        {
          "indexed": false,
          "internalType": "uint256",
          "name": "newBorrowCap",
          "type": "uint256"
        }
      ],
      "name": "NewBorrowCap",
      "type": "event"
    },
    {
      "anonymous": false,
      "inputs": [
        {
          "indexed": false,
          "internalType": "address",
          "name": "oldBorrowCapGuardian",
          "type": "address"
        },
        {
          "indexed": false,
          "internalType": "address",
          "name": "newBorrowCapGuardian",
          "type": "address"
        }
      ],
      "name": "NewBorrowCapGuardian",
      "type": "event"
    },
    {
      "anonymous": false,
      "inputs": [
        {
          "indexed": false,
          "internalType": "uint256",
          "name": "oldCloseFactorMantissa",
          "type": "uint256"
        },
        {
          "indexed": false,
          "internalType": "uint256",
          "name": "newCloseFactorMantissa",
          "type": "uint256"
        }
      ],
      "name": "NewCloseFactor",
      "type": "event"
    },
    {
      "anonymous": false,
      "inputs": [
        {
          "indexed": false,
          "internalType": "contract PToken",
          "name": "pToken",
          "type": "address"
        },
        {
          "indexed": false,
          "internalType": "uint256",
          "name": "oldCollateralFactorMantissa",
          "type": "uint256"
        },
        {
          "indexed": false,
          "internalType": "uint256",
          "name": "newCollateralFactorMantissa",
          "type": "uint256"
        }
      ],
      "name": "NewCollateralFactor",
      "type": "event"
    },
    {
      "anonymous": false,
      "inputs": [
        {
          "indexed": false,
          "internalType": "uint256",
          "name": "oldLiquidationIncentiveMantissa",
          "type": "uint256"
        },
        {
          "indexed": false,
          "internalType": "uint256",
          "name": "newLiquidationIncentiveMantissa",
          "type": "uint256"
        }
      ],
      "name": "NewLiquidationIncentive",
      "type": "event"
    },
    {
      "anonymous": false,
      "inputs": [
        {
          "indexed": false,
          "internalType": "uint256",
          "name": "oldMaxAssets",
          "type": "uint256"
        },
        {
          "indexed": false,
          "internalType": "uint256",
          "name": "newMaxAssets",
          "type": "uint256"
        }
      ],
      "name": "NewMaxAssets",
      "type": "event"
    },
    {
      "anonymous": false,
      "inputs": [
        {
          "indexed": true,
          "internalType": "contract PToken",
          "name": "pToken",
          "type": "address"
        },
        {
          "indexed": false,
          "internalType": "uint256",
          "name": "newMintCap",
          "type": "uint256"
        }
      ],
      "name": "NewMintCap",
      "type": "event"
    },
    {
      "anonymous": false,
      "inputs": [
        {
          "indexed": false,
          "internalType": "address",
          "name": "oldPauseGuardian",
          "type": "address"
        },
        {
          "indexed": false,
          "internalType": "address",
          "name": "newPauseGuardian",
          "type": "address"
        }
      ],
      "name": "NewPauseGuardian",
      "type": "event"
    },
    {
      "anonymous": false,
      "inputs": [
        {
          "indexed": false,
          "internalType": "contract IPiggyDistribution",
          "name": "oldPiggyDistribution",
          "type": "address"
        },
        {
          "indexed": false,
          "internalType": "contract IPiggyDistribution",
          "name": "newPiggyDistribution",
          "type": "address"
        }
      ],
      "name": "NewPiggyDistribution",
      "type": "event"
    },
    {
      "anonymous": false,
      "inputs": [
        {
          "indexed": false,
          "internalType": "contract IPriceOracle",
          "name": "oldPriceOracle",
          "type": "address"
        },
        {
          "indexed": false,
          "internalType": "contract IPriceOracle",
          "name": "newPriceOracle",
          "type": "address"
        }
      ],
      "name": "NewPriceOracle",
      "type": "event"
    },
    {
      "anonymous": false,
      "inputs": [
        {
          "indexed": true,
          "internalType": "address",
          "name": "previousOwner",
          "type": "address"
        },
        {
          "indexed": true,
          "internalType": "address",
          "name": "newOwner",
          "type": "address"
        }
      ],
      "name": "OwnershipTransferred",
      "type": "event"
    },
    {
      "inputs": [],
      "name": "_borrowGuardianPaused",
      "outputs": [
        {
          "internalType": "bool",
          "name": "",
          "type": "bool"
        }
      ],
      "stateMutability": "view",
      "type": "function"
    },
    {
      "inputs": [],
      "name": "_mintGuardianPaused",
      "outputs": [
        {
          "internalType": "bool",
          "name": "",
          "type": "bool"
        }
      ],
      "stateMutability": "view",
      "type": "function"
    },
    {
      "inputs": [
        {
          "internalType": "address",
          "name": "newBorrowCapGuardian",
          "type": "address"
        }
      ],
      "name": "_setBorrowCapGuardian",
      "outputs": [],
      "stateMutability": "nonpayable",
      "type": "function"
    },
    {
      "inputs": [
        {
          "internalType": "contract PToken",
          "name": "pToken",
          "type": "address"
        },
        {
          "internalType": "bool",
          "name": "state",
          "type": "bool"
        }
      ],
      "name": "_setBorrowPaused",
      "outputs": [
        {
          "internalType": "bool",
          "name": "",
          "type": "bool"
        }
      ],
      "stateMutability": "nonpayable",
      "type": "function"
    },
    {
      "inputs": [
        {
          "internalType": "uint256",
          "name": "newCloseFactorMantissa",
          "type": "uint256"
        }
      ],
      "name": "_setCloseFactor",
      "outputs": [
        {
          "internalType": "uint256",
          "name": "",
          "type": "uint256"
        }
      ],
      "stateMutability": "nonpayable",
      "type": "function"
    },
    {
      "inputs": [
        {
          "internalType": "contract PToken",
          "name": "pToken",
          "type": "address"
        },
        {
          "internalType": "uint256",
          "name": "newCollateralFactorMantissa",
          "type": "uint256"
        }
      ],
      "name": "_setCollateralFactor",
      "outputs": [
        {
          "internalType": "uint256",
          "name": "",
          "type": "uint256"
        }
      ],
      "stateMutability": "nonpayable",
      "type": "function"
    },
    {
      "inputs": [
        {
          "internalType": "bool",
          "name": "state",
          "type": "bool"
        }
      ],
      "name": "_setDistributeWpcPaused",
      "outputs": [
        {
          "internalType": "bool",
          "name": "",
          "type": "bool"
        }
      ],
      "stateMutability": "nonpayable",
      "type": "function"
    },
    {
      "inputs": [
        {
          "internalType": "uint256",
          "name": "newLiquidationIncentiveMantissa",
          "type": "uint256"
        }
      ],
      "name": "_setLiquidationIncentive",
      "outputs": [
        {
          "internalType": "uint256",
          "name": "",
          "type": "uint256"
        }
      ],
      "stateMutability": "nonpayable",
      "type": "function"
    },
    {
      "inputs": [
        {
          "internalType": "contract PToken[]",
          "name": "pTokens",
          "type": "address[]"
        },
        {
          "internalType": "uint256[]",
          "name": "newBorrowCaps",
          "type": "uint256[]"
        }
      ],
      "name": "_setMarketBorrowCaps",
      "outputs": [],
      "stateMutability": "nonpayable",
      "type": "function"
    },
    {
      "inputs": [
        {
          "internalType": "contract PToken[]",
          "name": "pTokens",
          "type": "address[]"
        },
        {
          "internalType": "uint256[]",
          "name": "newMintCaps",
          "type": "uint256[]"
        }
      ],
      "name": "_setMarketMintCaps",
      "outputs": [],
      "stateMutability": "nonpayable",
      "type": "function"
    },
    {
      "inputs": [
        {
          "internalType": "address",
          "name": "pToken",
          "type": "address"
        },
        {
          "internalType": "bool",
          "name": "status",
          "type": "bool"
        }
      ],
      "name": "_setMarketMinted",
      "outputs": [],
      "stateMutability": "nonpayable",
      "type": "function"
    },
    {
      "inputs": [
        {
          "internalType": "uint256",
          "name": "newMaxAssets",
          "type": "uint256"
        }
      ],
      "name": "_setMaxAssets",
      "outputs": [
        {
          "internalType": "uint256",
          "name": "",
          "type": "uint256"
        }
      ],
      "stateMutability": "nonpayable",
      "type": "function"
    },
    {
      "inputs": [
        {
          "internalType": "contract PToken",
          "name": "pToken",
          "type": "address"
        },
        {
          "internalType": "bool",
          "name": "state",
          "type": "bool"
        }
      ],
      "name": "_setMintPaused",
      "outputs": [
        {
          "internalType": "bool",
          "name": "",
          "type": "bool"
        }
      ],
      "stateMutability": "nonpayable",
      "type": "function"
    },
    {
      "inputs": [
        {
          "internalType": "address",
          "name": "newPauseGuardian",
          "type": "address"
        }
      ],
      "name": "_setPauseGuardian",
      "outputs": [
        {
          "internalType": "uint256",
          "name": "",
          "type": "uint256"
        }
      ],
      "stateMutability": "nonpayable",
      "type": "function"
    },
    {
      "inputs": [
        {
          "internalType": "contract IPiggyDistribution",
          "name": "newPiggyDistribution",
          "type": "address"
        }
      ],
      "name": "_setPiggyDistribution",
      "outputs": [
        {
          "internalType": "uint256",
          "name": "",
          "type": "uint256"
        }
      ],
      "stateMutability": "nonpayable",
      "type": "function"
    },
    {
      "inputs": [
        {
          "internalType": "contract IPriceOracle",
          "name": "newOracle",
          "type": "address"
        }
      ],
      "name": "_setPriceOracle",
      "outputs": [
        {
          "internalType": "uint256",
          "name": "",
          "type": "uint256"
        }
      ],
      "stateMutability": "nonpayable",
      "type": "function"
    },
    {
      "inputs": [
        {
          "internalType": "bool",
          "name": "state",
          "type": "bool"
        }
      ],
      "name": "_setSeizePaused",
      "outputs": [
        {
          "internalType": "bool",
          "name": "",
          "type": "bool"
        }
      ],
      "stateMutability": "nonpayable",
      "type": "function"
    },
    {
      "inputs": [
        {
          "internalType": "bool",
          "name": "state",
          "type": "bool"
        }
      ],
      "name": "_setTransferPaused",
      "outputs": [
        {
          "internalType": "bool",
          "name": "",
          "type": "bool"
        }
      ],
      "stateMutability": "nonpayable",
      "type": "function"
    },
    {
      "inputs": [
        {
          "internalType": "contract PToken",
          "name": "pToken",
          "type": "address"
        }
      ],
      "name": "_supportMarket",
      "outputs": [
        {
          "internalType": "uint256",
          "name": "",
          "type": "uint256"
        }
      ],
      "stateMutability": "nonpayable",
      "type": "function"
    },
    {
      "inputs": [
        {
          "internalType": "address",
          "name": "",
          "type": "address"
        },
        {
          "internalType": "uint256",
          "name": "",
          "type": "uint256"
        }
      ],
      "name": "accountAssets",
      "outputs": [
        {
          "internalType": "contract PToken",
          "name": "",
          "type": "address"
        }
      ],
      "stateMutability": "view",
      "type": "function"
    },
    {
      "inputs": [
        {
          "internalType": "uint256",
          "name": "",
          "type": "uint256"
        }
      ],
      "name": "allMarkets",
      "outputs": [
        {
          "internalType": "contract PToken",
          "name": "",
          "type": "address"
        }
      ],
      "stateMutability": "view",
      "type": "function"
    },
    {
      "inputs": [
        {
          "internalType": "address",
          "name": "pToken",
          "type": "address"
        },
        {
          "internalType": "address",
          "name": "borrower",
          "type": "address"
        },
        {
          "internalType": "uint256",
          "name": "borrowAmount",
          "type": "uint256"
        }
      ],
      "name": "borrowAllowed",
      "outputs": [
        {
          "internalType": "uint256",
          "name": "",
          "type": "uint256"
        }
      ],
      "stateMutability": "nonpayable",
      "type": "function"
    },
    {
      "inputs": [],
      "name": "borrowCapGuardian",
      "outputs": [
        {
          "internalType": "address",
          "name": "",
          "type": "address"
        }
      ],
      "stateMutability": "view",
      "type": "function"
    },
    {
      "inputs": [
        {
          "internalType": "address",
          "name": "",
          "type": "address"
        }
      ],
      "name": "borrowCaps",
      "outputs": [
        {
          "internalType": "uint256",
          "name": "",
          "type": "uint256"
        }
      ],
      "stateMutability": "view",
      "type": "function"
    },
    {
      "inputs": [
        {
          "internalType": "address",
          "name": "pToken",
          "type": "address"
        },
        {
          "internalType": "address",
          "name": "borrower",
          "type": "address"
        },
        {
          "internalType": "uint256",
          "name": "borrowAmount",
          "type": "uint256"
        }
      ],
      "name": "borrowVerify",
      "outputs": [],
      "stateMutability": "nonpayable",
      "type": "function"
    },
    {
      "inputs": [
        {
          "internalType": "address",
          "name": "account",
          "type": "address"
        },
        {
          "internalType": "contract PToken",
          "name": "pToken",
          "type": "address"
        }
      ],
      "name": "checkMembership",
      "outputs": [
        {
          "internalType": "bool",
          "name": "",
          "type": "bool"
        }
      ],
      "stateMutability": "view",
      "type": "function"
    },
    {
      "inputs": [],
      "name": "closeFactorMantissa",
      "outputs": [
        {
          "internalType": "uint256",
          "name": "",
          "type": "uint256"
        }
      ],
      "stateMutability": "view",
      "type": "function"
    },
    {
      "inputs": [],
      "name": "distributeWpcPaused",
      "outputs": [
        {
          "internalType": "bool",
          "name": "",
          "type": "bool"
        }
      ],
      "stateMutability": "view",
      "type": "function"
    },
    {
      "inputs": [
        {
          "internalType": "address[]",
          "name": "pTokens",
          "type": "address[]"
        }
      ],
      "name": "enterMarkets",
      "outputs": [
        {
          "internalType": "uint256[]",
          "name": "",
          "type": "uint256[]"
        }
      ],
      "stateMutability": "nonpayable",
      "type": "function"
    },
    {
      "inputs": [
        {
          "internalType": "address",
          "name": "pTokenAddress",
          "type": "address"
        }
      ],
      "name": "exitMarket",
      "outputs": [
        {
          "internalType": "uint256",
          "name": "",
          "type": "uint256"
        }
      ],
      "stateMutability": "nonpayable",
      "type": "function"
    },
    {
      "inputs": [
        {
          "internalType": "address",
          "name": "account",
          "type": "address"
        }
      ],
      "name": "getAccountLiquidity",
      "outputs": [
        {
          "internalType": "uint256",
          "name": "",
          "type": "uint256"
        },
        {
          "internalType": "uint256",
          "name": "",
          "type": "uint256"
        },
        {
          "internalType": "uint256",
          "name": "",
          "type": "uint256"
        }
      ],
      "stateMutability": "view",
      "type": "function"
    },
    {
      "inputs": [],
      "name": "getAllMarkets",
      "outputs": [
        {
          "internalType": "contract PToken[]",
          "name": "",
          "type": "address[]"
        }
      ],
      "stateMutability": "view",
      "type": "function"
    },
    {
      "inputs": [
        {
          "internalType": "address",
          "name": "account",
          "type": "address"
        }
      ],
      "name": "getAssetsIn",
      "outputs": [
        {
          "internalType": "contract PToken[]",
          "name": "",
          "type": "address[]"
        }
      ],
      "stateMutability": "view",
      "type": "function"
    },
    {
      "inputs": [
        {
          "internalType": "address",
          "name": "account",
          "type": "address"
        },
        {
          "internalType": "address",
          "name": "pTokenModify",
          "type": "address"
        },
        {
          "internalType": "uint256",
          "name": "redeemTokens",
          "type": "uint256"
        },
        {
          "internalType": "uint256",
          "name": "borrowAmount",
          "type": "uint256"
        }
      ],
      "name": "getHypotheticalAccountLiquidity",
      "outputs": [
        {
          "internalType": "uint256",
          "name": "",
          "type": "uint256"
        },
        {
          "internalType": "uint256",
          "name": "",
          "type": "uint256"
        },
        {
          "internalType": "uint256",
          "name": "",
          "type": "uint256"
        }
      ],
      "stateMutability": "view",
      "type": "function"
    },
    {
      "inputs": [],
      "name": "initialize",
      "outputs": [],
      "stateMutability": "nonpayable",
      "type": "function"
    },
    {
      "inputs": [
        {
          "internalType": "address",
          "name": "pToken",
          "type": "address"
        }
      ],
      "name": "isMarketListed",
      "outputs": [
        {
          "internalType": "bool",
          "name": "",
          "type": "bool"
        }
      ],
      "stateMutability": "view",
      "type": "function"
    },
    {
      "inputs": [
        {
          "internalType": "address",
          "name": "pToken",
          "type": "address"
        }
      ],
      "name": "isMarketMinted",
      "outputs": [
        {
          "internalType": "bool",
          "name": "",
          "type": "bool"
        }
      ],
      "stateMutability": "view",
      "type": "function"
    },
    {
      "inputs": [
        {
          "internalType": "address",
          "name": "pTokenBorrowed",
          "type": "address"
        },
        {
          "internalType": "address",
          "name": "pTokenCollateral",
          "type": "address"
        },
        {
          "internalType": "address",
          "name": "liquidator",
          "type": "address"
        },
        {
          "internalType": "address",
          "name": "borrower",
          "type": "address"
        },
        {
          "internalType": "uint256",
          "name": "repayAmount",
          "type": "uint256"
        }
      ],
      "name": "liquidateBorrowAllowed",
      "outputs": [
        {
          "internalType": "uint256",
          "name": "",
          "type": "uint256"
        }
      ],
      "stateMutability": "nonpayable",
      "type": "function"
    },
    {
      "inputs": [
        {
          "internalType": "address",
          "name": "pTokenBorrowed",
          "type": "address"
        },
        {
          "internalType": "address",
          "name": "pTokenCollateral",
          "type": "address"
        },
        {
          "internalType": "address",
          "name": "liquidator",
          "type": "address"
        },
        {
          "internalType": "address",
          "name": "borrower",
          "type": "address"
        },
        {
          "internalType": "uint256",
          "name": "repayAmount",
          "type": "uint256"
        },
        {
          "internalType": "uint256",
          "name": "seizeTokens",
          "type": "uint256"
        }
      ],
      "name": "liquidateBorrowVerify",
      "outputs": [],
      "stateMutability": "nonpayable",
      "type": "function"
    },
    {
      "inputs": [
        {
          "internalType": "address",
          "name": "pTokenBorrowed",
          "type": "address"
        },
        {
          "internalType": "address",
          "name": "pTokenCollateral",
          "type": "address"
        },
        {
          "internalType": "uint256",
          "name": "actualRepayAmount",
          "type": "uint256"
        }
      ],
      "name": "liquidateCalculateSeizeTokens",
      "outputs": [
        {
          "internalType": "uint256",
          "name": "",
          "type": "uint256"
        },
        {
          "internalType": "uint256",
          "name": "",
          "type": "uint256"
        }
      ],
      "stateMutability": "view",
      "type": "function"
    },
    {
      "inputs": [],
      "name": "liquidationIncentiveMantissa",
      "outputs": [
        {
          "internalType": "uint256",
          "name": "",
          "type": "uint256"
        }
      ],
      "stateMutability": "view",
      "type": "function"
    },
    {
      "inputs": [
        {
          "internalType": "address",
          "name": "",
          "type": "address"
        }
      ],
      "name": "markets",
      "outputs": [
        {
          "internalType": "bool",
          "name": "isListed",
          "type": "bool"
        },
        {
          "internalType": "uint256",
          "name": "collateralFactorMantissa",
          "type": "uint256"
        },
        {
          "internalType": "bool",
          "name": "isMinted",
          "type": "bool"
        }
      ],
      "stateMutability": "view",
      "type": "function"
    },
    {
      "inputs": [],
      "name": "maxAssets",
      "outputs": [
        {
          "internalType": "uint256",
          "name": "",
          "type": "uint256"
        }
      ],
      "stateMutability": "view",
      "type": "function"
    },
    {
      "inputs": [
        {
          "internalType": "address",
          "name": "pToken",
          "type": "address"
        },
        {
          "internalType": "address",
          "name": "minter",
          "type": "address"
        },
        {
          "internalType": "uint256",
          "name": "mintAmount",
          "type": "uint256"
        }
      ],
      "name": "mintAllowed",
      "outputs": [
        {
          "internalType": "uint256",
          "name": "",
          "type": "uint256"
        }
      ],
      "stateMutability": "nonpayable",
      "type": "function"
    },
    {
      "inputs": [
        {
          "internalType": "address",
          "name": "",
          "type": "address"
        }
      ],
      "name": "mintCaps",
      "outputs": [
        {
          "internalType": "uint256",
          "name": "",
          "type": "uint256"
        }
      ],
      "stateMutability": "view",
      "type": "function"
    },
    {
      "inputs": [
        {
          "internalType": "address",
          "name": "pToken",
          "type": "address"
        },
        {
          "internalType": "address",
          "name": "minter",
          "type": "address"
        },
        {
          "internalType": "uint256",
          "name": "mintAmount",
          "type": "uint256"
        },
        {
          "internalType": "uint256",
          "name": "mintTokens",
          "type": "uint256"
        }
      ],
      "name": "mintVerify",
      "outputs": [],
      "stateMutability": "nonpayable",
      "type": "function"
    },
    {
      "inputs": [],
      "name": "oracle",
      "outputs": [
        {
          "internalType": "contract IPriceOracle",
          "name": "",
          "type": "address"
        }
      ],
      "stateMutability": "view",
      "type": "function"
    },
    {
      "inputs": [],
      "name": "owner",
      "outputs": [
        {
          "internalType": "address",
          "name": "",
          "type": "address"
        }
      ],
      "stateMutability": "view",
      "type": "function"
    },
    {
      "inputs": [
        {
          "internalType": "address",
          "name": "",
          "type": "address"
        }
      ],
      "name": "pTokenBorrowGuardianPaused",
      "outputs": [
        {
          "internalType": "bool",
          "name": "",
          "type": "bool"
        }
      ],
      "stateMutability": "view",
      "type": "function"
    },
    {
      "inputs": [
        {
          "internalType": "address",
          "name": "",
          "type": "address"
        }
      ],
      "name": "pTokenMintGuardianPaused",
      "outputs": [
        {
          "internalType": "bool",
          "name": "",
          "type": "bool"
        }
      ],
      "stateMutability": "view",
      "type": "function"
    },
    {
      "inputs": [],
      "name": "pauseGuardian",
      "outputs": [
        {
          "internalType": "address",
          "name": "",
          "type": "address"
        }
      ],
      "stateMutability": "view",
      "type": "function"
    },
    {
      "inputs": [
        {
          "internalType": "address",
          "name": "pToken",
          "type": "address"
        },
        {
          "internalType": "address",
          "name": "redeemer",
          "type": "address"
        },
        {
          "internalType": "uint256",
          "name": "redeemTokens",
          "type": "uint256"
        }
      ],
      "name": "redeemAllowed",
      "outputs": [
        {
          "internalType": "uint256",
          "name": "",
          "type": "uint256"
        }
      ],
      "stateMutability": "nonpayable",
      "type": "function"
    },
    {
      "inputs": [
        {
          "internalType": "address",
          "name": "pToken",
          "type": "address"
        },
        {
          "internalType": "address",
          "name": "redeemer",
          "type": "address"
        },
        {
          "internalType": "uint256",
          "name": "redeemAmount",
          "type": "uint256"
        },
        {
          "internalType": "uint256",
          "name": "redeemTokens",
          "type": "uint256"
        }
      ],
      "name": "redeemVerify",
      "outputs": [],
      "stateMutability": "nonpayable",
      "type": "function"
    },
    {
      "inputs": [],
      "name": "renounceOwnership",
      "outputs": [],
      "stateMutability": "nonpayable",
      "type": "function"
    },
    {
      "inputs": [
        {
          "internalType": "address",
          "name": "pToken",
          "type": "address"
        },
        {
          "internalType": "address",
          "name": "payer",
          "type": "address"
        },
        {
          "internalType": "address",
          "name": "borrower",
          "type": "address"
        },
        {
          "internalType": "uint256",
          "name": "repayAmount",
          "type": "uint256"
        }
      ],
      "name": "repayBorrowAllowed",
      "outputs": [
        {
          "internalType": "uint256",
          "name": "",
          "type": "uint256"
        }
      ],
      "stateMutability": "nonpayable",
      "type": "function"
    },
    {
      "inputs": [
        {
          "internalType": "address",
          "name": "pToken",
          "type": "address"
        },
        {
          "internalType": "address",
          "name": "payer",
          "type": "address"
        },
        {
          "internalType": "address",
          "name": "borrower",
          "type": "address"
        },
        {
          "internalType": "uint256",
          "name": "repayAmount",
          "type": "uint256"
        },
        {
          "internalType": "uint256",
          "name": "borrowerIndex",
          "type": "uint256"
        }
      ],
      "name": "repayBorrowVerify",
      "outputs": [],
      "stateMutability": "nonpayable",
      "type": "function"
    },
    {
      "inputs": [
        {
          "internalType": "address",
          "name": "pTokenCollateral",
          "type": "address"
        },
        {
          "internalType": "address",
          "name": "pTokenBorrowed",
          "type": "address"
        },
        {
          "internalType": "address",
          "name": "liquidator",
          "type": "address"
        },
        {
          "internalType": "address",
          "name": "borrower",
          "type": "address"
        },
        {
          "internalType": "uint256",
          "name": "seizeTokens",
          "type": "uint256"
        }
      ],
      "name": "seizeAllowed",
      "outputs": [
        {
          "internalType": "uint256",
          "name": "",
          "type": "uint256"
        }
      ],
      "stateMutability": "nonpayable",
      "type": "function"
    },
    {
      "inputs": [],
      "name": "seizeGuardianPaused",
      "outputs": [
        {
          "internalType": "bool",
          "name": "",
          "type": "bool"
        }
      ],
      "stateMutability": "view",
      "type": "function"
    },
    {
      "inputs": [
        {
          "internalType": "address",
          "name": "pTokenCollateral",
          "type": "address"
        },
        {
          "internalType": "address",
          "name": "pTokenBorrowed",
          "type": "address"
        },
        {
          "internalType": "address",
          "name": "liquidator",
          "type": "address"
        },
        {
          "internalType": "address",
          "name": "borrower",
          "type": "address"
        },
        {
          "internalType": "uint256",
          "name": "seizeTokens",
          "type": "uint256"
        }
      ],
      "name": "seizeVerify",
      "outputs": [],
      "stateMutability": "nonpayable",
      "type": "function"
    },
    {
      "inputs": [
        {
          "internalType": "address",
          "name": "pToken",
          "type": "address"
        },
        {
          "internalType": "address",
          "name": "src",
          "type": "address"
        },
        {
          "internalType": "address",
          "name": "dst",
          "type": "address"
        },
        {
          "internalType": "uint256",
          "name": "transferTokens",
          "type": "uint256"
        }
      ],
      "name": "transferAllowed",
      "outputs": [
        {
          "internalType": "uint256",
          "name": "",
          "type": "uint256"
        }
      ],
      "stateMutability": "nonpayable",
      "type": "function"
    },
    {
      "inputs": [],
      "name": "transferGuardianPaused",
      "outputs": [
        {
          "internalType": "bool",
          "name": "",
          "type": "bool"
        }
      ],
      "stateMutability": "view",
      "type": "function"
    },
    {
      "inputs": [
        {
          "internalType": "address",
          "name": "newOwner",
          "type": "address"
        }
      ],
      "name": "transferOwnership",
      "outputs": [],
      "stateMutability": "nonpayable",
      "type": "function"
    },
    {
      "inputs": [
        {
          "internalType": "address",
          "name": "pToken",
          "type": "address"
        },
        {
          "internalType": "address",
          "name": "src",
          "type": "address"
        },
        {
          "internalType": "address",
          "name": "dst",
          "type": "address"
        },
        {
          "internalType": "uint256",
          "name": "transferTokens",
          "type": "uint256"
        }
      ],
      "name": "transferVerify",
      "outputs": [],
      "stateMutability": "nonpayable",
      "type": "function"
    }
  ],
  "bytecode": "0x608060405234801561001057600080fd5b50614cbb806100206000396000f3fe608060405234801561001057600080fd5b50600436106103c55760003560e01c80636caca4a7116101ff578063ac0b0bb71161011a578063da3d454c116100ad578063e87554461161007c578063e875544614610e9d578063eabe7d9114610ea5578063ede4edd014610edb578063f2fde38b14610f01576103c5565b8063da3d454c14610e07578063dce1544914610e3d578063e4028eee14610e69578063e6653f3d14610e95576103c5565b8063c2998238116100e9578063c299823814610cb4578063c488847b14610d55578063d02f735114610da4578063d9226ced14610dea576103c5565b8063ac0b0bb714610c42578063b0772d0b14610c4a578063b41dcb5814610c52578063bdcdc25814610c78576103c5565b80638da5cb5b11610192578063929fe9a111610161578063929fe9a114610b7057806394b2294b14610b9e578063a76b3fda14610ba6578063abfceffc14610bcc576103c5565b80638da5cb5b14610adb5780638e8f294b14610ae35780638ebf636414610b2b57806390ba830714610b4a576103c5565b80637a617e26116101ce5780637a617e2614610a9d5780637dc0d1d014610ac35780638129fc1c14610acb57806387f7630314610ad3576103c5565b80636caca4a714610a215780636d35bf9114610a295780636e80240a14610a6f578063715018a614610a95576103c5565b8063478e3568116102ef57806352d84d1e116102825780635f5af1aa116102515780635f5af1aa146108bb5780635fc7e71e146108e1578063607ef6c1146109275780636a56947e146109e5576103c5565b806352d84d1e1461081c57806355ee1fe1146108395780635c7786051461085f5780635ec88c7914610895576103c5565b80634e79238f116102be5780634e79238f1461076f5780634ef4c3e1146107c95780634fd42e17146107ff57806351dff9891461068b576103c5565b8063478e3568146106c757806347ef3b3b146106f55780634a584432146107415780634ada90af14610767576103c5565b80632d31f6cf116103675780633bcf7ec1116103365780633bcf7ec11461062f5780633c94786f1461065d5780633d98a1e51461066557806341c728b91461068b576103c5565b80632d31f6cf146105a75780632d70db78146105cd578063317b0b77146105ec578063391957d714610609576103c5565b80631ededc91116103a35780631ededc91146104eb57806321af45691461052d57806324008a621461055157806324a3d6221461059f576103c5565b8063128aec6e146103ca57806317583104146103fd57806318c882a5146104bd575b600080fd5b6103e9600480360360208110156103e057600080fd5b50351515610f27565b604080519115158252519081900360200190f35b6104bb6004803603604081101561041357600080fd5b810190602081018135600160201b81111561042d57600080fd5b82018360208201111561043f57600080fd5b803590602001918460208302840111600160201b8311171561046057600080fd5b919390929091602081019035600160201b81111561047d57600080fd5b82018360208201111561048f57600080fd5b803590602001918460208302840111600160201b831117156104b057600080fd5b509092509050611079565b005b6103e9600480360360408110156104d357600080fd5b506001600160a01b0381351690602001351515611203565b6104bb600480360360a081101561050157600080fd5b506001600160a01b038135811691602081013582169160408201351690606081013590608001356113bf565b6105356113c6565b604080516001600160a01b039092168252519081900360200190f35b61058d6004803603608081101561056757600080fd5b506001600160a01b038135811691602081013582169160408201351690606001356113da565b60408051918252519081900360200190f35b61053561148c565b61058d600480360360208110156105bd57600080fd5b50356001600160a01b031661149b565b6103e9600480360360208110156105e357600080fd5b503515156114ad565b61058d6004803603602081101561060257600080fd5b50356115ff565b6104bb6004803603602081101561061f57600080fd5b50356001600160a01b0316611744565b6103e96004803603604081101561064557600080fd5b506001600160a01b0381351690602001351515611809565b6103e96119c0565b6103e96004803603602081101561067b57600080fd5b50356001600160a01b03166119d0565b6104bb600480360360808110156106a157600080fd5b506001600160a01b038135811691602081013590911690604081013590606001356119ee565b6104bb600480360360408110156106dd57600080fd5b506001600160a01b03813516906020013515156119f4565b6104bb600480360360c081101561070b57600080fd5b506001600160a01b0381358116916020810135821691604082013581169160608101359091169060808101359060a00135611a8e565b61058d6004803603602081101561075757600080fd5b50356001600160a01b0316611a96565b61058d611aa8565b6107ab6004803603608081101561078557600080fd5b506001600160a01b03813581169160208101359091169060408101359060600135611aae565b60408051938452602084019290925282820152519081900360600190f35b61058d600480360360608110156107df57600080fd5b506001600160a01b03813581169160208101359091169060400135611ae8565b61058d6004803603602081101561081557600080fd5b5035611e46565b6105356004803603602081101561083257600080fd5b5035611f75565b61058d6004803603602081101561084f57600080fd5b50356001600160a01b0316611f9c565b6104bb6004803603606081101561087557600080fd5b506001600160a01b0381358116916020810135909116906040013561205e565b6107ab600480360360208110156108ab57600080fd5b50356001600160a01b0316612063565b61058d600480360360208110156108d157600080fd5b50356001600160a01b0316612098565b61058d600480360360a08110156108f757600080fd5b506001600160a01b0381358116916020810135821691604082013581169160608101359091169060800135612157565b6104bb6004803603604081101561093d57600080fd5b810190602081018135600160201b81111561095757600080fd5b82018360208201111561096957600080fd5b803590602001918460208302840111600160201b8311171561098a57600080fd5b919390929091602081019035600160201b8111156109a757600080fd5b8201836020820111156109b957600080fd5b803590602001918460208302840111600160201b831117156109da57600080fd5b5090925090506122d5565b6104bb600480360360808110156109fb57600080fd5b506001600160a01b038135811691602081013582169160408201351690606001356119ee565b6103e961246f565b6104bb600480360360a0811015610a3f57600080fd5b506001600160a01b03813581169160208101358216916040820135811691606081013590911690608001356113bf565b61058d60048036036020811015610a8557600080fd5b50356001600160a01b0316612478565b6104bb612538565b6103e960048036036020811015610ab357600080fd5b50356001600160a01b03166125da565b6105356125ef565b6104bb6125fe565b6103e96126a8565b6105356126b8565b610b0960048036036020811015610af957600080fd5b50356001600160a01b03166126c7565b6040805193151584526020840192909252151582820152519081900360600190f35b6103e960048036036020811015610b4157600080fd5b503515156126ed565b6103e960048036036020811015610b6057600080fd5b50356001600160a01b0316612842565b6103e960048036036040811015610b8657600080fd5b506001600160a01b0381358116916020013516612863565b61058d612896565b61058d60048036036020811015610bbc57600080fd5b50356001600160a01b031661289c565b610bf260048036036020811015610be257600080fd5b50356001600160a01b03166129d6565b60408051602080825283518183015283519192839290830191858101910280838360005b83811015610c2e578181015183820152602001610c16565b505050509050019250505060405180910390f35b6103e9612a5f565b610bf2612a6f565b6103e960048036036020811015610c6857600080fd5b50356001600160a01b0316612ad1565b61058d60048036036080811015610c8e57600080fd5b506001600160a01b03813581169160208101358216916040820135169060600135612ae6565b610bf260048036036020811015610cca57600080fd5b810190602081018135600160201b811115610ce457600080fd5b820183602082011115610cf657600080fd5b803590602001918460208302840111600160201b83111715610d1757600080fd5b919080806020026020016040519081016040528093929190818152602001838360200280828437600092019190915250929550612beb945050505050565b610d8b60048036036060811015610d6b57600080fd5b506001600160a01b03813581169160208101359091169060400135612c95565b6040805192835260208301919091528051918290030190f35b61058d600480360360a0811015610dba57600080fd5b506001600160a01b0381358116916020810135821691604082013581169160608101359091169060800135612efb565b61058d60048036036020811015610e0057600080fd5b50356130f3565b61058d60048036036060811015610e1d57600080fd5b506001600160a01b03813581169160208101359091169060400135613197565b61053560048036036040811015610e5357600080fd5b506001600160a01b0381351690602001356135b7565b61058d60048036036040811015610e7f57600080fd5b506001600160a01b0381351690602001356135ec565b6103e96137cc565b61058d6137dc565b61058d60048036036060811015610ebb57600080fd5b506001600160a01b038135811691602081013590911690604001356137e2565b61058d60048036036020811015610ef157600080fd5b50356001600160a01b0316613864565b6104bb60048036036020811015610f1757600080fd5b50356001600160a01b0316613b94565b6006546000906001600160a01b0316331480610f5b5750610f466126b8565b6001600160a01b0316336001600160a01b0316145b610f965760405162461bcd60e51b8152600401808060200182810382526027815260200180614bb76027913960400191505060405180910390fd5b610f9e6126b8565b6001600160a01b0316336001600160a01b03161480610fbf57506001821515145b611009576040805162461bcd60e51b81526020600482015260166024820152756f6e6c79206f776e65722063616e20756e706175736560501b604482015290519081900360640190fd5b6009805483151560ff199091168117909155604080516020810192909252808252600d828201526c4469737472696275746557706360981b6060830152517fef159d9a32b2472e32b098f954f3ce62d232939f1c207070b584df1814de2de09181900360800190a150805b919050565b611081613c8d565b6071546001600160a01b039081169116146110d1576040805162461bcd60e51b81526020600482018190526024820152600080516020614bde833981519152604482015290519081900360640190fd5b828181158015906110e157508082145b611122576040805162461bcd60e51b815260206004820152600d60248201526c1a5b9d985b1a59081a5b9c1d5d609a1b604482015290519081900360640190fd5b60005b828110156111fa5784848281811061113957fe5b9050602002013560a4600089898581811061115057fe5b905060200201356001600160a01b03166001600160a01b03166001600160a01b031681526020019081526020016000208190555086868281811061119057fe5b905060200201356001600160a01b03166001600160a01b03167f6f1951b2aad10f3fc81b86d91105b413a5b3f847a34bbc5ce1904201b14438f68686848181106111d657fe5b905060200201356040518082815260200191505060405180910390a2600101611125565b50505050505050565b6001600160a01b03821660009081526005602052604081205460ff1661125a5760405162461bcd60e51b8152600401808060200182810382526028815260200180614b3f6028913960400191505060405180910390fd5b6006546001600160a01b031633148061128b57506112766126b8565b6001600160a01b0316336001600160a01b0316145b6112c65760405162461bcd60e51b8152600401808060200182810382526027815260200180614bb76027913960400191505060405180910390fd5b6112ce6126b8565b6001600160a01b0316336001600160a01b031614806112ef57506001821515145b611339576040805162461bcd60e51b81526020600482015260166024820152756f6e6c79206f776e65722063616e20756e706175736560501b604482015290519081900360640190fd5b6001600160a01b038316600081815260086020908152604091829020805486151560ff199091168117909155825193845283830152606090830181905260069083015265426f72726f7760d01b6080830152517f71aec636243f9709bb0007ae15e9afb8150ab01716d75fd7573be5cc096e03b09181900360a00190a150805b92915050565b5050505050565b60095461010090046001600160a01b031681565b6001600160a01b03841660009081526005602052604081205460ff1661140257506009611484565b60095460ff166114805760a354604080516392e1a29560e01b81526001600160a01b038881166004830152868116602483015260006044830181905292519316926392e1a2959260648084019391929182900301818387803b15801561146757600080fd5b505af115801561147b573d6000803e3d6000fd5b505050505b5060005b949350505050565b6006546001600160a01b031681565b60a46020526000908152604090205481565b6006546000906001600160a01b03163314806114e157506114cc6126b8565b6001600160a01b0316336001600160a01b0316145b61151c5760405162461bcd60e51b8152600401808060200182810382526027815260200180614bb76027913960400191505060405180910390fd5b6115246126b8565b6001600160a01b0316336001600160a01b0316148061154557506001821515145b61158f576040805162461bcd60e51b81526020600482015260166024820152756f6e6c79206f776e65722063616e20756e706175736560501b604482015290519081900360640190fd5b60068054831515600160b81b810260ff60b81b1990921691909117909155604080516020810192909252808252600582820152645365697a6560d81b6060830152517fef159d9a32b2472e32b098f954f3ce62d232939f1c207070b584df1814de2de09181900360800190a15090565b6000611609613c8d565b6071546001600160a01b03908116911614611659576040805162461bcd60e51b81526020600482018190526024820152600080516020614bde833981519152604482015290519081900360640190fd5b611661614ac1565b506040805160208101909152828152611678614ac1565b50604080516020810190915266b1a2bc2ec5000081526116988282613c91565b156116b1576116a8600580613c99565b92505050611074565b6116b9614ac1565b506040805160208101909152670c7d713b49da000081526116da8184613cff565b156116f4576116ea600580613c99565b9350505050611074565b6001805490869055604080518281526020810188905281517f3b9670cf975d26958e754b57098eaa2ac914d8d2a31b83257997b9f346110fd9929181900390910190a160005b9695505050505050565b61174c613c8d565b6071546001600160a01b0390811691161461179c576040805162461bcd60e51b81526020600482018190526024820152600080516020614bde833981519152604482015290519081900360640190fd5b600980546001600160a01b03838116610100818102610100600160a81b03198516179094556040805194909304919091168084526020840191909152815190927feda98690e518e9a05f8ec6837663e188211b2da8f4906648b323f2c1d4434e2992908290030190a15050565b6001600160a01b03821660009081526005602052604081205460ff166118605760405162461bcd60e51b8152600401808060200182810382526028815260200180614b3f6028913960400191505060405180910390fd5b6006546001600160a01b0316331480611891575061187c6126b8565b6001600160a01b0316336001600160a01b0316145b6118cc5760405162461bcd60e51b8152600401808060200182810382526027815260200180614bb76027913960400191505060405180910390fd5b6118d46126b8565b6001600160a01b0316336001600160a01b031614806118f557506001821515145b61193f576040805162461bcd60e51b81526020600482015260166024820152756f6e6c79206f776e65722063616e20756e706175736560501b604482015290519081900360640190fd5b6001600160a01b038316600081815260076020908152604091829020805486151560ff199091168117909155825193845283830152606090830181905260049083015263135a5b9d60e21b6080830152517f71aec636243f9709bb0007ae15e9afb8150ab01716d75fd7573be5cc096e03b09181900360a00190a150919050565b600654600160a01b900460ff1681565b6001600160a01b031660009081526005602052604090205460ff1690565b50505050565b60a3546001600160a01b0316331480611a255750611a106126b8565b6001600160a01b0316336001600160a01b0316145b611a605760405162461bcd60e51b815260040180806020018281038252602a815260200180614b8d602a913960400191505060405180910390fd5b6001600160a01b03919091166000908152600560205260409020600301805460ff1916911515919091179055565b505050505050565b600a6020526000908152604090205481565b60025481565b600080600080600080611ac38a8a8a8a613d06565b925092509250826011811115611ad557fe5b95509093509150505b9450945094915050565b6001600160a01b03831660009081526007602052604081205460ff1615611b47576040805162461bcd60e51b815260206004820152600e60248201526d1b5a5b9d081a5cc81c185d5cd95960921b604482015290519081900360640190fd5b6001600160a01b03841660009081526005602052604090205460ff16611b715760095b9050611e3f565b6001600160a01b038416600090815260a460205260409020548015611dbb576000856001600160a01b03166318160ddd6040518163ffffffff1660e01b815260040160206040518083038186803b158015611bcb57600080fd5b505afa158015611bdf573d6000803e3d6000fd5b505050506040513d6020811015611bf557600080fd5b50516040805163182df0f560e01b815290519192506000916001600160a01b0389169163182df0f5916004808301926020929190829003018186803b158015611c3d57600080fd5b505afa158015611c51573d6000803e3d6000fd5b505050506040513d6020811015611c6757600080fd5b505160408051602081019091528181529091506000908190611c89908561410e565b90925090506000826003811115611c9c57fe5b14611cee576040805162461bcd60e51b815260206004820152601f60248201527f62616c616e636520636f756c64206e6f742062652063616c63756c6174656400604482015290519081900360640190fd5b600080611cfb838a614162565b90925090506000826003811115611d0e57fe5b14611d60576040805162461bcd60e51b815260206004820152601a60248201527f746f74616c206d696e7420616d6f756e74206f766572666c6f77000000000000604482015290519081900360640190fd5b868110611db4576040805162461bcd60e51b815260206004820152601760248201527f6d61726b6574206d696e74206361702072656163686564000000000000000000604482015290519081900360640190fd5b5050505050505b60095460ff16611e395760a354604080516317be99b560e11b81526001600160a01b03888116600483015287811660248301526000604483018190529251931692632f7d336a9260648084019391929182900301818387803b158015611e2057600080fd5b505af1158015611e34573d6000803e3d6000fd5b505050505b60009150505b9392505050565b6000611e50613c8d565b6071546001600160a01b03908116911614611ea0576040805162461bcd60e51b81526020600482018190526024820152600080516020614bde833981519152604482015290519081900360640190fd5b611ea8614ac1565b506040805160208101909152828152611ebf614ac1565b506040805160208101909152670de0b6b3a76400008152611ee08282613cff565b15611ef1576116a86007600c613c99565b611ef9614ac1565b5060408051602081019091526714d1120d7b1600008152611f1a8184613cff565b15611f2b576116ea6007600c613c99565b6002805490869055604080518281526020810188905281517faeba5a6c40a8ac138134bff1aaa65debf25971188a58804bad717f82f0ec1316929181900390910190a1600061173a565b600b8181548110611f8257fe5b6000918252602090912001546001600160a01b0316905081565b6000611fa6613c8d565b6071546001600160a01b03908116911614611ff6576040805162461bcd60e51b81526020600482018190526024820152600080516020614bde833981519152604482015290519081900360640190fd5b600080546001600160a01b038481166001600160a01b0319831681179093556040805191909216808252602082019390935281517fd52b2b9b7e9ee655fcb95d2e5b9e0c9f69e7ef2b8e9d2d0ea78402d576d22e22929181900390910190a160009392505050565b505050565b60008060008060008061207a876000806000613d06565b92509250925082601181111561208c57fe5b97919650945092505050565b60006120a2613c8d565b6071546001600160a01b039081169116146120f2576040805162461bcd60e51b81526020600482018190526024820152600080516020614bde833981519152604482015290519081900360640190fd5b600680546001600160a01b038481166001600160a01b0319831617928390556040805192821680845293909116602083015280517f0613b6ee6a04f0d09f390e4d9318894b9f6ac7fd83897cd8d18896ba579c401e9281900390910190a16000611e3f565b6001600160a01b03851660009081526005602052604081205460ff16158061219857506001600160a01b03851660009081526005602052604090205460ff16155b156121a75760095b90506122cc565b6000806121b385614188565b919350909150600090508260118111156121c957fe5b146121e3578160118111156121da57fe5b925050506122cc565b806121ef5760036121da565b6000886001600160a01b03166395dd9193876040518263ffffffff1660e01b815260040180826001600160a01b0316815260200191505060206040518083038186803b15801561223e57600080fd5b505afa158015612252573d6000803e3d6000fd5b505050506040513d602081101561226857600080fd5b505160408051602081019091526001548152909150600090819061228c908461410e565b9092509050600082600381111561229f57fe5b146122b357600b5b955050505050506122cc565b808711156122c25760116122a7565b6000955050505050505b95945050505050565b6122dd6126b8565b6001600160a01b0316336001600160a01b0316148061230b575060095461010090046001600160a01b031633145b6123465760405162461bcd60e51b8152600401808060200182810382526035815260200180614c2c6035913960400191505060405180910390fd5b8281811580159061235657508082145b612397576040805162461bcd60e51b815260206004820152600d60248201526c1a5b9d985b1a59081a5b9c1d5d609a1b604482015290519081900360640190fd5b60005b828110156111fa578484828181106123ae57fe5b90506020020135600a60008989858181106123c557fe5b905060200201356001600160a01b03166001600160a01b03166001600160a01b031681526020019081526020016000208190555086868281811061240557fe5b905060200201356001600160a01b03166001600160a01b03167f6f1951b2aad10f3fc81b86d91105b413a5b3f847a34bbc5ce1904201b14438f686868481811061244b57fe5b905060200201356040518082815260200191505060405180910390a260010161239a565b60095460ff1681565b6000612482613c8d565b6071546001600160a01b039081169116146124d2576040805162461bcd60e51b81526020600482018190526024820152600080516020614bde833981519152604482015290519081900360640190fd5b60a380546001600160a01b038481166001600160a01b0319831681179093556040805191909216808252602082019390935281517f49bc9b2543c3ca3ee52cef393ce2ebfd201ed081bfc931f8d6ee2121c99f83c8929181900390910190a16000611e3f565b612540613c8d565b6071546001600160a01b03908116911614612590576040805162461bcd60e51b81526020600482018190526024820152600080516020614bde833981519152604482015290519081900360640190fd5b6071546040516000916001600160a01b0316907f8be0079c531659141344cd1fd0a4f28419497f9722a3daafe3b4186f6b6457e0908390a3607180546001600160a01b0319169055565b60076020526000908152604090205460ff1681565b6000546001600160a01b031681565b600c54610100900460ff168061261757506126176141a8565b806126255750600c5460ff16155b6126605760405162461bcd60e51b815260040180806020018281038252602e815260200180614bfe602e913960400191505060405180910390fd5b600c54610100900460ff1615801561268b57600c805460ff1961ff0019909116610100171660011790555b6126936141ae565b80156126a557600c805461ff00191690555b50565b600654600160b01b900460ff1681565b6071546001600160a01b031690565b60056020526000908152604090208054600182015460039092015460ff91821692911683565b6006546000906001600160a01b0316331480612721575061270c6126b8565b6001600160a01b0316336001600160a01b0316145b61275c5760405162461bcd60e51b8152600401808060200182810382526027815260200180614bb76027913960400191505060405180910390fd5b6127646126b8565b6001600160a01b0316336001600160a01b0316148061278557506001821515145b6127cf576040805162461bcd60e51b81526020600482015260166024820152756f6e6c79206f776e65722063616e20756e706175736560501b604482015290519081900360640190fd5b60068054831515600160b01b810260ff60b01b1990921691909117909155604080516020810192909252808252600882820152672a3930b739b332b960c11b6060830152517fef159d9a32b2472e32b098f954f3ce62d232939f1c207070b584df1814de2de09181900360800190a15090565b6001600160a01b031660009081526005602052604090206003015460ff1690565b6001600160a01b038082166000908152600560209081526040808320938616835260029093019052205460ff1692915050565b60035481565b60006128a6613c8d565b6071546001600160a01b039081169116146128f6576040805162461bcd60e51b81526020600482018190526024820152600080516020614bde833981519152604482015290519081900360640190fd5b6001600160a01b03821660009081526005602052604090205460ff161561292a57612923600a6011613c99565b9050611074565b604080516060810182526001808252600060208084018281528486018381526001600160a01b03891684526005909252949091209251835490151560ff199182161784559351918301919091555160039091018054911515919092161790556129928261424b565b604080516001600160a01b038416815290517fcf583bb0c569eb967f806b11601c4cb93c10310485c67add5f8362c2f212321f9181900360200190a1600092915050565b60608060046000846001600160a01b03166001600160a01b03168152602001908152602001600020805480602002602001604051908101604052809291908181526020018280548015612a5257602002820191906000526020600020905b81546001600160a01b03168152600190910190602001808311612a34575b5093979650505050505050565b600654600160b81b900460ff1681565b6060600b805480602002602001604051908101604052809291908181526020018280548015612ac757602002820191906000526020600020905b81546001600160a01b03168152600190910190602001808311612aa9575b5050505050905090565b60086020526000908152604090205460ff1681565b600654600090600160b01b900460ff1615612b3d576040805162461bcd60e51b81526020600482015260126024820152711d1c985b9cd9995c881a5cc81c185d5cd95960721b604482015290519081900360640190fd5b6000612b4a868685614381565b90508015612b59579050611484565b60095460ff16612bdf5760a3546040805163266aa5bd60e11b81526001600160a01b038981166004830152888116602483015287811660448301526000606483018190529251931692634cd54b7a9260848084019391929182900301818387803b158015612bc657600080fd5b505af1158015612bda573d6000803e3d6000fd5b505050505b60009695505050505050565b8051606090818167ffffffffffffffff81118015612c0857600080fd5b50604051908082528060200260200182016040528015612c32578160200160208202803683370190505b50905060005b82811015612c8d576000858281518110612c4e57fe5b60200260200101519050612c62813361442d565b6011811115612c6d57fe5b838381518110612c7957fe5b602090810291909101015250600101612c38565b509392505050565b600080546040805163fc57d4df60e01b81526001600160a01b038781166004830152915184938493169163fc57d4df916024808301926020929190829003018186803b158015612ce457600080fd5b505afa158015612cf8573d6000803e3d6000fd5b505050506040513d6020811015612d0e57600080fd5b5051600080546040805163fc57d4df60e01b81526001600160a01b038a811660048301529151949550929391169163fc57d4df916024808301926020929190829003018186803b158015612d6157600080fd5b505afa158015612d75573d6000803e3d6000fd5b505050506040513d6020811015612d8b57600080fd5b50519050811580612d9a575080155b15612dae57600d6000935093505050612ef3565b6000866001600160a01b031663182df0f56040518163ffffffff1660e01b815260040160206040518083038186803b158015612de957600080fd5b505afa158015612dfd573d6000803e3d6000fd5b505050506040513d6020811015612e1357600080fd5b505190506000612e21614ac1565b612e29614ac1565b612e31614ac1565b6000612e3f6002548961454e565b945090506000816003811115612e5157fe5b14612e6c57600b5b6000995099505050505050505050612ef3565b612e76878761454e565b935090506000816003811115612e8857fe5b14612e9457600b612e59565b612e9e8484614589565b925090506000816003811115612eb057fe5b14612ebc57600b612e59565b612ec6828c61410e565b955090506000816003811115612ed857fe5b14612ee457600b612e59565b60009950939750505050505050505b935093915050565b600654600090600160b81b900460ff1615612f4f576040805162461bcd60e51b815260206004820152600f60248201526e1cd95a5e99481a5cc81c185d5cd959608a1b604482015290519081900360640190fd5b6001600160a01b03861660009081526005602052604090205460ff161580612f9057506001600160a01b03851660009081526005602052604090205460ff16155b15612f9c5760096121a0565b846001600160a01b0316635fe3b5676040518163ffffffff1660e01b815260040160206040518083038186803b158015612fd557600080fd5b505afa158015612fe9573d6000803e3d6000fd5b505050506040513d6020811015612fff57600080fd5b505160408051635fe3b56760e01b815290516001600160a01b0392831692891691635fe3b567916004808301926020929190829003018186803b15801561304557600080fd5b505afa158015613059573d6000803e3d6000fd5b505050506040513d602081101561306f57600080fd5b50516001600160a01b0316146130865760026121a0565b60095460ff16612bdf5760a3546040805163136a5db760e31b81526001600160a01b038981166004830152868116602483015287811660448301526000606483018190529251931692639b52edb89260848084019391929182900301818387803b158015612bc657600080fd5b60006130fd613c8d565b6071546001600160a01b0390811691161461314d576040805162461bcd60e51b81526020600482018190526024820152600080516020614bde833981519152604482015290519081900360640190fd5b6003805490839055604080518281526020810185905281517f7093cf1eb653f749c3ff531d6df7f92764536a7fa0d13530cd26e070780c32ea929181900390910190a16000611e3f565b6001600160a01b03831660009081526008602052604081205460ff16156131f8576040805162461bcd60e51b815260206004820152601060248201526f189bdc9c9bddc81a5cc81c185d5cd95960821b604482015290519081900360640190fd5b6001600160a01b03841660009081526005602052604090205460ff1661321f576009611b6a565b6001600160a01b038085166000908152600560209081526040808320938716835260029093019052205460ff1661330f57336001600160a01b038516146132a5576040805162461bcd60e51b815260206004820152601560248201527439b2b73232b91036bab9ba10313290382a37b5b2b760591b604482015290519081900360640190fd5b60006132b1338561442d565b905060008160118111156132c157fe5b146132da578060118111156132d257fe5b915050611e3f565b6001600160a01b038086166000908152600560209081526040808320938816835260029093019052205460ff1661330d57fe5b505b6000546040805163fc57d4df60e01b81526001600160a01b0387811660048301529151919092169163fc57d4df916024808301926020929190829003018186803b15801561335c57600080fd5b505afa158015613370573d6000803e3d6000fd5b505050506040513d602081101561338657600080fd5b505161339357600d611b6a565b6001600160a01b0384166000908152600a602052604090205480156134de576000856001600160a01b03166347bd37186040518163ffffffff1660e01b815260040160206040518083038186803b1580156133ed57600080fd5b505afa158015613401573d6000803e3d6000fd5b505050506040513d602081101561341757600080fd5b505190506000806134288387614162565b9092509050600082600381111561343b57fe5b14613486576040805162461bcd60e51b8152602060048201526016602482015275746f74616c20626f72726f7773206f766572666c6f7760501b604482015290519081900360640190fd5b8381106134da576040805162461bcd60e51b815260206004820152601960248201527f6d61726b657420626f72726f7720636170207265616368656400000000000000604482015290519081900360640190fd5b5050505b6000806134ee8688600088613d06565b9193509091506000905082601181111561350457fe5b1461351f5781601181111561351557fe5b9350505050611e3f565b801561352c576004613515565b60095460ff166135aa5760a354604080516379d438cb60e11b81526001600160a01b038a811660048301528981166024830152600060448301819052925193169263f3a871969260648084019391929182900301818387803b15801561359157600080fd5b505af11580156135a5573d6000803e3d6000fd5b505050505b6000979650505050505050565b600460205281600052604060002081815481106135d057fe5b6000918252602090912001546001600160a01b03169150829050565b60006135f6613c8d565b6071546001600160a01b03908116911614613646576040805162461bcd60e51b81526020600482018190526024820152600080516020614bde833981519152604482015290519081900360640190fd5b6001600160a01b0383166000908152600560205260409020805460ff1661367b5761367360096007613c99565b9150506113b9565b613683614ac1565b50604080516020810190915283815261369a614ac1565b506040805160208101909152670c7d713b49da000081526136bb8183613cff565b156136d6576136cc60066008613c99565b93505050506113b9565b841580159061375b57506000546040805163fc57d4df60e01b81526001600160a01b0389811660048301529151919092169163fc57d4df916024808301926020929190829003018186803b15801561372d57600080fd5b505afa158015613741573d6000803e3d6000fd5b505050506040513d602081101561375757600080fd5b5051155b1561376c576136cc600d6009613c99565b60018301805490869055604080516001600160a01b03891681526020810183905280820188905290517f70483e6592cd5182d45ac970e05bc62cdcc90e9d8ef2c2dbe686cf383bcd7fc59181900360600190a16000979650505050505050565b600654600160a81b900460ff1681565b60015481565b6000806137f0858585614381565b905080156137ff579050611e3f565b60095460ff16611e395760a35460408051637bba1a8f60e11b81526001600160a01b0388811660048301528781166024830152600060448301819052925193169263f774351e9260648084019391929182900301818387803b158015611e2057600080fd5b6000808290506000806000836001600160a01b031663c37f68e2336040518263ffffffff1660e01b815260040180826001600160a01b0316815260200191505060806040518083038186803b1580156138bc57600080fd5b505afa1580156138d0573d6000803e3d6000fd5b505050506040513d60808110156138e657600080fd5b5080516020820151604090920151909450909250905082156139395760405162461bcd60e51b8152600401808060200182810382526025815260200180614c616025913960400191505060405180910390fd5b80156139565761394b600c6002613c99565b945050505050611074565b6000613963873385614381565b9050801561398457613978600e6003836145a1565b95505050505050611074565b6001600160a01b0385166000908152600560209081526040808320338452600281019092529091205460ff166139c35760009650505050505050611074565b3360009081526002820160209081526040808320805460ff191690556004825291829020805483518184028101840190945280845260609392830182828015613a3557602002820191906000526020600020905b81546001600160a01b03168152600190910190602001808311613a17575b5050835193945083925060009150505b82811015613a8a57896001600160a01b0316848281518110613a6357fe5b60200260200101516001600160a01b03161415613a8257809150613a8a565b600101613a45565b50818110613a9457fe5b336000908152600460205260409020805481906000198101908110613ab557fe5b9060005260206000200160009054906101000a90046001600160a01b0316818381548110613adf57fe5b9060005260206000200160006101000a8154816001600160a01b0302191690836001600160a01b0316021790555080805480613b1757fe5b6000828152602090819020820160001990810180546001600160a01b0319169055909101909155604080516001600160a01b038d168152339281019290925280517fe699a64c18b07ac5b7301aa273f36a2287239eb9501d81950672794afba29a0d9281900390910190a160009c9b505050505050505050505050565b613b9c613c8d565b6071546001600160a01b03908116911614613bec576040805162461bcd60e51b81526020600482018190526024820152600080516020614bde833981519152604482015290519081900360640190fd5b6001600160a01b038116613c315760405162461bcd60e51b8152600401808060200182810382526026815260200180614b676026913960400191505060405180910390fd5b6071546040516001600160a01b038084169216907f8be0079c531659141344cd1fd0a4f28419497f9722a3daafe3b4186f6b6457e090600090a3607180546001600160a01b0319166001600160a01b0392909216919091179055565b3390565b519051111590565b60007f45b96fe442630264581b197e84bbada861235052c5a1aadfff9ea4e40a969aa0836011811115613cc857fe5b836013811115613cd457fe5b604080519283526020830191909152600082820152519081900360600190a1826011811115611e3f57fe5b5190511090565b6000806000613d13614ad4565b6001600160a01b038816600090815260046020908152604080832080548251818502810185019093528083528493606093929190830182828015613d8057602002820191906000526020600020905b81546001600160a01b03168152600190910190602001808311613d62575b5050505050905060005b81518110156140ca576000828281518110613da157fe5b60200260200101519050806001600160a01b031663c37f68e28e6040518263ffffffff1660e01b815260040180826001600160a01b0316815260200191505060806040518083038186803b158015613df857600080fd5b505afa158015613e0c573d6000803e3d6000fd5b505050506040513d6080811015613e2257600080fd5b508051602082015160408084015160609485015160808c0152938a01939093529188019190915294508415613e6757600f600080985098509850505050505050611ade565b60408051602080820183526001600160a01b0380851660008181526005845285812060010154855260c08c01949094528451808401865260808c0151815260e08c01529254845163fc57d4df60e01b81526004810194909452935193169263fc57d4df926024808201939291829003018186803b158015613ee757600080fd5b505afa158015613efb573d6000803e3d6000fd5b505050506040513d6020811015613f1157600080fd5b505160a08701819052613f3457600d600080985098509850505050505050611ade565b604080516020810190915260a08701518152610100870181905260c087015160e0880151613f6192614607565b61012088015293506000846003811115613f7757fe5b14613f9257600b600080985098509850505050505050611ade565b613faa8661012001518760400151886000015161465f565b875293506000846003811115613fbc57fe5b14613fd757600b600080985098509850505050505050611ade565b613fef8661010001518760600151886020015161465f565b60208801529350600084600381111561400457fe5b1461401f57600b600080985098509850505050505050611ade565b8b6001600160a01b0316816001600160a01b031614156140c15761404d8661012001518c886020015161465f565b60208801529350600084600381111561406257fe5b1461407d57600b600080985098509850505050505050611ade565b6140918661010001518b886020015161465f565b6020880152935060008460038111156140a657fe5b146140c157600b600080985098509850505050505050611ade565b50600101613d8a565b506020840151845111156140f1575050506020810151905160009450039150829050611ade565b600080856000015186602001510396509650965050505050611ade565b600080600061411b614ac1565b61412586866146ac565b9092509050600082600381111561413857fe5b14614149575091506000905061415b565b600061415482614714565b9350935050505b9250929050565b60008083830184811061417a5760009250905061415b565b60026000925092505061415b565b600080600061419b846000806000613d06565b9250925092509193909250565b303b1590565b600c54610100900460ff16806141c757506141c76141a8565b806141d55750600c5460ff16155b6142105760405162461bcd60e51b815260040180806020018281038252602e815260200180614bfe602e913960400191505060405180910390fd5b600c54610100900460ff1615801561423b57600c805460ff1961ff0019909116610100171660011790555b614243614723565b6126936147c3565b614253613c8d565b6071546001600160a01b039081169116146142a3576040805162461bcd60e51b81526020600482018190526024820152600080516020614bde833981519152604482015290519081900360640190fd5b60005b600b5481101561432e57816001600160a01b0316600b82815481106142c757fe5b6000918252602090912001546001600160a01b03161415614326576040805162461bcd60e51b81526020600482015260146024820152731b585c9ad95d08185b1c9958591e48185919195960621b604482015290519081900360640190fd5b6001016142a6565b50600b80546001810182556000919091527f0175b7a638427703f0dbe7bb9bbf987a2551717b34e79f33b5b1008d1fa01db90180546001600160a01b0319166001600160a01b0392909216919091179055565b6001600160a01b03831660009081526005602052604081205460ff166143a8576009611b6a565b6001600160a01b038085166000908152600560209081526040808320938716835260029093019052205460ff166143e0576000611b6a565b6000806143f08587866000613d06565b9193509091506000905082601181111561440657fe5b146144205781601181111561441757fe5b92505050611e3f565b8015612bdf576004614417565b6001600160a01b0382166000908152600560205260408120805460ff166144585760099150506113b9565b6001600160a01b038316600090815260028201602052604090205460ff1615156001141561448a5760009150506113b9565b6003546001600160a01b038416600090815260046020526040902054106144b55760109150506113b9565b6001600160a01b0380841660008181526002840160209081526040808320805460ff19166001908117909155600483528184208054918201815584529282902090920180549489166001600160a01b031990951685179055815193845283019190915280517f3ab23ab0d51cccc0c3085aec51f99228625aa1a922b3a8ca89a26b0f2027a1a59281900390910190a15060009392505050565b6000614558614ac1565b61457e6040518060200160405280868152506040518060200160405280868152506148bc565b915091509250929050565b6000614593614ac1565b8351835161457e91906149a6565b60007f45b96fe442630264581b197e84bbada861235052c5a1aadfff9ea4e40a969aa08460118111156145d057fe5b8460138111156145dc57fe5b604080519283526020830191909152818101859052519081900360600190a183601181111561148457fe5b6000614611614ac1565b600061461b614ac1565b61462587876148bc565b9092509050600082600381111561463857fe5b14614647579092509050612ef3565b61465181866148bc565b935093505050935093915050565b600080600061466c614ac1565b61467687876146ac565b9092509050600082600381111561468957fe5b1461469a5750915060009050612ef3565b6146516146a682614714565b86614162565b60006146b6614ac1565b6000806146c7866000015186614a57565b909250905060008260038111156146da57fe5b146146f95750604080516020810190915260008152909250905061415b565b60408051602081019091529081526000969095509350505050565b51670de0b6b3a7640000900490565b600c54610100900460ff168061473c575061473c6141a8565b8061474a5750600c5460ff16155b6147855760405162461bcd60e51b815260040180806020018281038252602e815260200180614bfe602e913960400191505060405180910390fd5b600c54610100900460ff1615801561269357600c805460ff1961ff00199091166101001716600117905580156126a557600c805461ff001916905550565b600c54610100900460ff16806147dc57506147dc6141a8565b806147ea5750600c5460ff16155b6148255760405162461bcd60e51b815260040180806020018281038252602e815260200180614bfe602e913960400191505060405180910390fd5b600c54610100900460ff1615801561485057600c805460ff1961ff0019909116610100171660011790555b600061485a613c8d565b607180546001600160a01b0319166001600160a01b038316908117909155604051919250906000907f8be0079c531659141344cd1fd0a4f28419497f9722a3daafe3b4186f6b6457e0908290a35080156126a557600c805461ff001916905550565b60006148c6614ac1565b6000806148db86600001518660000151614a57565b909250905060008260038111156148ee57fe5b1461490d5750604080516020810190915260008152909250905061415b565b6000806149226706f05b59d3b2000084614162565b9092509050600082600381111561493557fe5b14614958578160405180602001604052806000815250955095505050505061415b565b60008061496d83670de0b6b3a7640000614a96565b9092509050600082600381111561498057fe5b1461498757fe5b604080516020810190915290815260009a909950975050505050505050565b60006149b0614ac1565b6000806149c586670de0b6b3a7640000614a57565b909250905060008260038111156149d857fe5b146149f75750604080516020810190915260008152909250905061415b565b600080614a048388614a96565b90925090506000826003811115614a1757fe5b14614a3a578160405180602001604052806000815250955095505050505061415b565b604080516020810190915290815260009890975095505050505050565b60008083614a6a5750600090508061415b565b83830283858281614a7757fe5b0414614a8b5760026000925092505061415b565b60009250905061415b565b60008082614aaa575060019050600061415b565b6000838581614ab557fe5b04915091509250929050565b6040518060200160405280600081525090565b604051806101400160405280600081526020016000815260200160008152602001600081526020016000815260200160008152602001614b12614ac1565b8152602001614b1f614ac1565b8152602001614b2c614ac1565b8152602001614b39614ac1565b90529056fe63616e6e6f742070617573652061206d61726b65742074686174206973206e6f74206c69737465644f776e61626c653a206e6577206f776e657220697320746865207a65726f20616464726573736f6e6c79205069676779446973747269627574696f6e206f72206f776e65722063616e207570646174656f6e6c7920706175736520677561726469616e20616e64206f776e65722063616e2070617573654f776e61626c653a2063616c6c6572206973206e6f7420746865206f776e6572436f6e747261637420696e7374616e63652068617320616c7265616479206265656e20696e697469616c697a65646f6e6c79206f776e6572206f7220626f72726f772063617020677561726469616e2063616e2073657420626f72726f772063617073657869744d61726b65743a206765744163636f756e74536e617073686f74206661696c6564a2646970667358221220b72d89f5458fc2977baa825aab95d8e89b2f2768898fff6f87cd9ddec9794e6464736f6c634300060c0033",
  "linkReferences": {},
  "deployedLinkReferences": {}
}