{
  "_format": "hh-sol-artifact-1",
  "contractName": "JumpRateModel",
  "sourceName": "contracts/Lend/JumpRateModel.sol",
  "abi": [
    {
      "inputs": [
        {
          "internalType": "uint256",
          "name": "baseRatePerYear",
          "type": "uint256"
        },
        {
          "internalType": "uint256",
          "name": "multiplierPerYear",
          "type": "uint256"
        },
        {
          "internalType": "uint256",
          "name": "jumpMultiplierPerYear",
          "type": "uint256"
        },
        {
          "internalType": "uint256",
          "name": "kink_",
          "type": "uint256"
        }
      ],
      "payable": false,
      "stateMutability": "nonpayable",
      "type": "constructor"
    },
    {
      "anonymous": false,
      "inputs": [
        {
          "indexed": false,
          "internalType": "uint256",
          "name": "baseRatePerBlock",
          "type": "uint256"
        },
        {
          "indexed": false,
          "internalType": "uint256",
          "name": "multiplierPerBlock",
          "type": "uint256"
        },
        {
          "indexed": false,
          "internalType": "uint256",
          "name": "jumpMultiplierPerBlock",
          "type": "uint256"
        },
        {
          "indexed": false,
          "internalType": "uint256",
          "name": "kink",
          "type": "uint256"
        }
      ],
      "name": "NewInterestParams",
      "type": "event"
    },
    {
      "constant": true,
      "inputs": [],
      "name": "baseRatePerBlock",
      "outputs": [
        {
          "internalType": "uint256",
          "name": "",
          "type": "uint256"
        }
      ],
      "payable": false,
      "stateMutability": "view",
      "type": "function"
    },
    {
      "constant": true,
      "inputs": [],
      "name": "blocksPerYear",
      "outputs": [
        {
          "internalType": "uint256",
          "name": "",
          "type": "uint256"
        }
      ],
      "payable": false,
      "stateMutability": "view",
      "type": "function"
    },
    {
      "constant": true,
      "inputs": [
        {
          "internalType": "uint256",
          "name": "cash",
          "type": "uint256"
        },
        {
          "internalType": "uint256",
          "name": "borrows",
          "type": "uint256"
        },
        {
          "internalType": "uint256",
          "name": "reserves",
          "type": "uint256"
        }
      ],
      "name": "getBorrowRate",
      "outputs": [
        {
          "internalType": "uint256",
          "name": "",
          "type": "uint256"
        }
      ],
      "payable": false,
      "stateMutability": "view",
      "type": "function"
    },
    {
      "constant": true,
      "inputs": [
        {
          "internalType": "uint256",
          "name": "cash",
          "type": "uint256"
        },
        {
          "internalType": "uint256",
          "name": "borrows",
          "type": "uint256"
        },
        {
          "internalType": "uint256",
          "name": "reserves",
          "type": "uint256"
        },
        {
          "internalType": "uint256",
          "name": "reserveFactorMantissa",
          "type": "uint256"
        }
      ],
      "name": "getSupplyRate",
      "outputs": [
        {
          "internalType": "uint256",
          "name": "",
          "type": "uint256"
        }
      ],
      "payable": false,
      "stateMutability": "view",
      "type": "function"
    },
    {
      "constant": true,
      "inputs": [],
      "name": "isInterestRateModel",
      "outputs": [
        {
          "internalType": "bool",
          "name": "",
          "type": "bool"
        }
      ],
      "payable": false,
      "stateMutability": "view",
      "type": "function"
    },
    {
      "constant": true,
      "inputs": [],
      "name": "jumpMultiplierPerBlock",
      "outputs": [
        {
          "internalType": "uint256",
          "name": "",
          "type": "uint256"
        }
      ],
      "payable": false,
      "stateMutability": "view",
      "type": "function"
    },
    {
      "constant": true,
      "inputs": [],
      "name": "kink",
      "outputs": [
        {
          "internalType": "uint256",
          "name": "",
          "type": "uint256"
        }
      ],
      "payable": false,
      "stateMutability": "view",
      "type": "function"
    },
    {
      "constant": true,
      "inputs": [],
      "name": "multiplierPerBlock",
      "outputs": [
        {
          "internalType": "uint256",
          "name": "",
          "type": "uint256"
        }
      ],
      "payable": false,
      "stateMutability": "view",
      "type": "function"
    },
    {
      "constant": true,
      "inputs": [
        {
          "internalType": "uint256",
          "name": "cash",
          "type": "uint256"
        },
        {
          "internalType": "uint256",
          "name": "borrows",
          "type": "uint256"
        },
        {
          "internalType": "uint256",
          "name": "reserves",
          "type": "uint256"
        }
      ],
      "name": "utilizationRate",
      "outputs": [
        {
          "internalType": "uint256",
          "name": "",
          "type": "uint256"
        }
      ],
      "payable": false,
      "stateMutability": "pure",
      "type": "function"
    }
  ],
  "bytecode": "0x608060405234801561001057600080fd5b506040516107cb3803806107cb8339818101604052608081101561003357600080fd5b5080516020808301516040840151606090940151929390929091610065908590622014809061039e6100fd821b17901c565b60015561008083622014806100fd602090811b61039e17901c565b60005561009b82622014806100fd602090811b61039e17901c565b60028190556003829055600154600054604080519283526020830191909152818101929092526060810183905290517f6960ab234c7ef4b0c9197100f5393cfcde7c453ac910a27bd2000aa1dd4c068d9181900360800190a1505050506101ee565b600061014583836040518060400160405280601a81526020017f536166654d6174683a206469766973696f6e206279207a65726f00000000000081525061014c60201b60201c565b9392505050565b600081836101d85760405162461bcd60e51b81526004018080602001828103825283818151815260200191508051906020019080838360005b8381101561019d578181015183820152602001610185565b50505050905090810190601f1680156101ca5780820380516001836020036101000a031916815260200191505b509250505060405180910390fd5b5060008385816101e457fe5b0495945050505050565b6105ce806101fd6000396000f3fe608060405234801561001057600080fd5b50600436106100935760003560e01c8063a385fb9611610066578063a385fb9614610120578063b816881614610128578063b9f9850a14610157578063f14039de1461015f578063fd2da3391461016757610093565b806315f24053146100985780632191f92a146100d35780636e71e2d8146100ef5780638726bb8914610118575b600080fd5b6100c1600480360360608110156100ae57600080fd5b508035906020810135906040013561016f565b60408051918252519081900360200190f35b6100db610247565b604080519115158252519081900360200190f35b6100c16004803603606081101561010557600080fd5b508035906020810135906040013561024c565b6100c161029e565b6100c16102a4565b6100c16004803603608081101561013e57600080fd5b50803590602081013590604081013590606001356102ab565b6100c161032a565b6100c1610330565b6100c1610336565b60008061017d85858561024c565b905060035481116101cf576101c76001546101bb670de0b6b3a76400006101af6000548661033c90919063ffffffff16565b9063ffffffff61039e16565b9063ffffffff6103e016565b915050610240565b60006101fa6001546101bb670de0b6b3a76400006101af60005460035461033c90919063ffffffff16565b905060006102136003548461043a90919063ffffffff16565b905061023a826101bb670de0b6b3a76400006101af6002548661033c90919063ffffffff16565b93505050505b9392505050565b600181565b60008261025b57506000610240565b61029661027e83610272878763ffffffff6103e016565b9063ffffffff61043a16565b6101af85670de0b6b3a764000063ffffffff61033c16565b949350505050565b60005481565b6220148081565b6000806102c6670de0b6b3a76400008463ffffffff61043a16565b905060006102d587878761016f565b905060006102f5670de0b6b3a76400006101af848663ffffffff61033c16565b905061031e670de0b6b3a76400006101af836103128c8c8c61024c565b9063ffffffff61033c16565b98975050505050505050565b60025481565b60015481565b60035481565b60008261034b57506000610398565b8282028284828161035857fe5b04146103955760405162461bcd60e51b81526004018080602001828103825260218152602001806105796021913960400191505060405180910390fd5b90505b92915050565b600061039583836040518060400160405280601a81526020017f536166654d6174683a206469766973696f6e206279207a65726f00000000000081525061047c565b600082820183811015610395576040805162461bcd60e51b815260206004820152601b60248201527f536166654d6174683a206164646974696f6e206f766572666c6f770000000000604482015290519081900360640190fd5b600061039583836040518060400160405280601f81526020017f536166654d6174683a207375627472616374696f6e20756e646572666c6f770081525061051e565b600081836105085760405162461bcd60e51b81526004018080602001828103825283818151815260200191508051906020019080838360005b838110156104cd5781810151838201526020016104b5565b50505050905090810190601f1680156104fa5780820380516001836020036101000a031916815260200191505b509250505060405180910390fd5b50600083858161051457fe5b0495945050505050565b600081848411156105705760405162461bcd60e51b81526020600482018181528351602484015283519092839260449091019190850190808383600083156104cd5781810151838201526020016104b5565b50505090039056fe536166654d6174683a206d756c7469706c69636174696f6e206f766572666c6f77a265627a7a723158201a7a94c314dc0fadb51e804680ffda818b1db10ca5f5eaf44164d093c5420b8c64736f6c63430005100032",
  "linkReferences": {},
  "deployedLinkReferences": {}
}