{
  "_format": "hh-sol-artifact-1",
  "contractName": "CDelegationStorage",
  "sourceName": "contracts/Lend/CTokenInterfaces.sol",
  "abi": [
    {
      "constant": true,
      "inputs": [],
      "name": "implementation",
      "outputs": [
        {
          "internalType": "address",
          "name": "",
          "type": "address"
        }
      ],
      "payable": false,
      "stateMutability": "view",
      "type": "function"
    }
  ],
  "bytecode": "0x6080604052348015600f57600080fd5b5060938061001e6000396000f3fe6080604052348015600f57600080fd5b506004361060285760003560e01c80635c60da1b14602d575b600080fd5b6033604f565b604080516001600160a01b039092168252519081900360200190f35b6000546001600160a01b03168156fea265627a7a72315820e95d3a5852f03a33f4cc29859c09d25de91c0d09876156b4c2e1389badc5f63364736f6c63430005100032",
  "linkReferences": {},
  "deployedLinkReferences": {}
}