{
  "_format": "hh-sol-artifact-1",
  "contractName": "PTokenStorage",
  "sourceName": "contracts/Lend/token/PTokenStorage.sol",
  "abi": [
    {
      "inputs": [],
      "name": "accrualBlockNumber",
      "outputs": [
        {
          "internalType": "uint256",
          "name": "",
          "type": "uint256"
        }
      ],
      "stateMutability": "view",
      "type": "function"
    },
    {
      "inputs": [],
      "name": "borrowIndex",
      "outputs": [
        {
          "internalType": "uint256",
          "name": "",
          "type": "uint256"
        }
      ],
      "stateMutability": "view",
      "type": "function"
    },
    {
      "inputs": [],
      "name": "comptroller",
      "outputs": [
        {
          "internalType": "contract IComptroller",
          "name": "",
          "type": "address"
        }
      ],
      "stateMutability": "view",
      "type": "function"
    },
    {
      "inputs": [],
      "name": "decimals",
      "outputs": [
        {
          "internalType": "uint8",
          "name": "",
          "type": "uint8"
        }
      ],
      "stateMutability": "view",
      "type": "function"
    },
    {
      "inputs": [],
      "name": "interestRateModel",
      "outputs": [
        {
          "internalType": "contract IInterestRateModel",
          "name": "",
          "type": "address"
        }
      ],
      "stateMutability": "view",
      "type": "function"
    },
    {
      "inputs": [],
      "name": "isPToken",
      "outputs": [
        {
          "internalType": "bool",
          "name": "",
          "type": "bool"
        }
      ],
      "stateMutability": "view",
      "type": "function"
    },
    {
      "inputs": [],
      "name": "migrator",
      "outputs": [
        {
          "internalType": "address",
          "name": "",
          "type": "address"
        }
      ],
      "stateMutability": "view",
      "type": "function"
    },
    {
      "inputs": [],
      "name": "minInterestAccumulated",
      "outputs": [
        {
          "internalType": "uint256",
          "name": "",
          "type": "uint256"
        }
      ],
      "stateMutability": "view",
      "type": "function"
    },
    {
      "inputs": [],
      "name": "name",
      "outputs": [
        {
          "internalType": "string",
          "name": "",
          "type": "string"
        }
      ],
      "stateMutability": "view",
      "type": "function"
    },
    {
      "inputs": [],
      "name": "reserveFactorMantissa",
      "outputs": [
        {
          "internalType": "uint256",
          "name": "",
          "type": "uint256"
        }
      ],
      "stateMutability": "view",
      "type": "function"
    },
    {
      "inputs": [],
      "name": "symbol",
      "outputs": [
        {
          "internalType": "string",
          "name": "",
          "type": "string"
        }
      ],
      "stateMutability": "view",
      "type": "function"
    },
    {
      "inputs": [],
      "name": "totalBorrows",
      "outputs": [
        {
          "internalType": "uint256",
          "name": "",
          "type": "uint256"
        }
      ],
      "stateMutability": "view",
      "type": "function"
    },
    {
      "inputs": [],
      "name": "totalReserves",
      "outputs": [
        {
          "internalType": "uint256",
          "name": "",
          "type": "uint256"
        }
      ],
      "stateMutability": "view",
      "type": "function"
    },
    {
      "inputs": [],
      "name": "totalSupply",
      "outputs": [
        {
          "internalType": "uint256",
          "name": "",
          "type": "uint256"
        }
      ],
      "stateMutability": "view",
      "type": "function"
    }
  ],
  "bytecode": "0x608060405234801561001057600080fd5b506103b1806100206000396000f3fe608060405234801561001057600080fd5b50600436106100ea5760003560e01c80636c540baf1161008c57806395d89b411161006657806395d89b411461020c578063aa5af0fd14610214578063e228bb431461021c578063f3fdb15a14610224576100ea565b80636c540baf146101f45780637cd07e47146101fc5780638f840ddd14610204576100ea565b8063313ce567116100c8578063313ce5671461018e57806347bd3718146101ac5780635a890c0e146101b45780635fe3b567146101d0576100ea565b806306fdde03146100ef578063173b99041461016c57806318160ddd14610186575b600080fd5b6100f761022c565b6040805160208082528351818301528351919283929083019185019080838360005b83811015610131578181015183820152602001610119565b50505050905090810190601f16801561015e5780820380516001836020036101000a031916815260200191505b509250505060405180910390f35b6101746102b9565b60408051918252519081900360200190f35b6101746102bf565b6101966102c5565b6040805160ff9092168252519081900360200190f35b6101746102ce565b6101bc6102d4565b604080519115158252519081900360200190f35b6101d86102d9565b604080516001600160a01b039092168252519081900360200190f35b6101746102ed565b6101d86102f3565b610174610302565b6100f7610308565b610174610360565b610174610366565b6101d861036c565b60018054604080516020600284861615610100026000190190941693909304601f810184900484028201840190925281815292918301828280156102b15780601f10610286576101008083540402835291602001916102b1565b820191906000526020600020905b81548152906001019060200180831161029457829003601f168201915b505050505081565b60065481565b600b5481565b60035460ff1681565b60095481565b600181565b60035461010090046001600160a01b031681565b60075481565b600f546001600160a01b031681565b600a5481565b6002805460408051602060018416156101000260001901909316849004601f810184900484028201840190925281815292918301828280156102b15780601f10610286576101008083540402835291602001916102b1565b60085481565b60105481565b6004546001600160a01b03168156fea26469706673582212202ebcfaf81d1dc83cf8f82c0f38d5a5f579104f957ee1df00ecf153b23ccd6d2064736f6c634300060c0033",
  "linkReferences": {},
  "deployedLinkReferences": {}
}