{
  "_format": "hh-sol-artifact-1",
  "contractName": "AToken2PTokenMigrator",
  "sourceName": "contracts/Lend/farm/migrator/AToken2PTokenMigrator.sol",
  "abi": [
    {
      "inputs": [],
      "stateMutability": "nonpayable",
      "type": "constructor"
    },
    {
      "anonymous": false,
      "inputs": [
        {
          "indexed": true,
          "internalType": "address",
          "name": "previousOwner",
          "type": "address"
        },
        {
          "indexed": true,
          "internalType": "address",
          "name": "newOwner",
          "type": "address"
        }
      ],
      "name": "OwnershipTransferred",
      "type": "event"
    },
    {
      "inputs": [
        {
          "internalType": "address",
          "name": "",
          "type": "address"
        }
      ],
      "name": "aTokenMapping",
      "outputs": [
        {
          "internalType": "bool",
          "name": "",
          "type": "bool"
        }
      ],
      "stateMutability": "view",
      "type": "function"
    },
    {
      "inputs": [
        {
          "internalType": "address",
          "name": "aToken",
          "type": "address"
        },
        {
          "internalType": "address payable",
          "name": "pToken",
          "type": "address"
        },
        {
          "internalType": "uint256",
          "name": "amount",
          "type": "uint256"
        }
      ],
      "name": "migrate",
      "outputs": [],
      "stateMutability": "nonpayable",
      "type": "function"
    },
    {
      "inputs": [],
      "name": "owner",
      "outputs": [
        {
          "internalType": "address",
          "name": "",
          "type": "address"
        }
      ],
      "stateMutability": "view",
      "type": "function"
    },
    {
      "inputs": [
        {
          "internalType": "address",
          "name": "",
          "type": "address"
        }
      ],
      "name": "pTokenMapping",
      "outputs": [
        {
          "internalType": "bool",
          "name": "",
          "type": "bool"
        }
      ],
      "stateMutability": "view",
      "type": "function"
    },
    {
      "inputs": [],
      "name": "renounceOwnership",
      "outputs": [],
      "stateMutability": "nonpayable",
      "type": "function"
    },
    {
      "inputs": [
        {
          "internalType": "address[]",
          "name": "aTokens",
          "type": "address[]"
        },
        {
          "internalType": "address[]",
          "name": "pTokens",
          "type": "address[]"
        }
      ],
      "name": "set",
      "outputs": [],
      "stateMutability": "nonpayable",
      "type": "function"
    },
    {
      "inputs": [
        {
          "internalType": "address",
          "name": "aToken",
          "type": "address"
        },
        {
          "internalType": "bool",
          "name": "isAvailable",
          "type": "bool"
        }
      ],
      "name": "setATokenMapping",
      "outputs": [],
      "stateMutability": "nonpayable",
      "type": "function"
    },
    {
      "inputs": [
        {
          "internalType": "address",
          "name": "pToken",
          "type": "address"
        },
        {
          "internalType": "bool",
          "name": "isAvailable",
          "type": "bool"
        }
      ],
      "name": "setPTokenMapping",
      "outputs": [],
      "stateMutability": "nonpayable",
      "type": "function"
    },
    {
      "inputs": [
        {
          "internalType": "address",
          "name": "newOwner",
          "type": "address"
        }
      ],
      "name": "transferOwnership",
      "outputs": [],
      "stateMutability": "nonpayable",
      "type": "function"
    },
    {
      "stateMutability": "payable",
      "type": "receive"
    }
  ],
  "bytecode": "0x608060405234801561001057600080fd5b50600061001b61006a565b600080546001600160a01b0319166001600160a01b0383169081178255604051929350917f8be0079c531659141344cd1fd0a4f28419497f9722a3daafe3b4186f6b6457e0908290a35061006e565b3390565b6117588061007d6000396000f3fe60806040526004361061008a5760003560e01c80638da5cb5b116100595780638da5cb5b146101625780638fca52be14610193578063da419c57146101ce578063f16565ee14610302578063f2fde38b1461034557610091565b80631a628054146100965780635b9f2079146100dd578063715018a614610110578063821e76d81461012757610091565b3661009157005b600080fd5b3480156100a257600080fd5b506100c9600480360360208110156100b957600080fd5b50356001600160a01b0316610378565b604080519115158252519081900360200190f35b3480156100e957600080fd5b506100c96004803603602081101561010057600080fd5b50356001600160a01b031661038d565b34801561011c57600080fd5b506101256103a2565b005b34801561013357600080fd5b506101256004803603604081101561014a57600080fd5b506001600160a01b038135169060200135151561044e565b34801561016e57600080fd5b506101776104db565b604080516001600160a01b039092168252519081900360200190f35b34801561019f57600080fd5b50610125600480360360408110156101b657600080fd5b506001600160a01b03813516906020013515156104ea565b3480156101da57600080fd5b50610125600480360360408110156101f157600080fd5b81019060208101813564010000000081111561020c57600080fd5b82018360208201111561021e57600080fd5b8035906020019184602083028401116401000000008311171561024057600080fd5b919080806020026020016040519081016040528093929190818152602001838360200280828437600092019190915250929594936020810193503591505064010000000081111561029057600080fd5b8201836020820111156102a257600080fd5b803590602001918460208302840111640100000000831117156102c457600080fd5b919080806020026020016040519081016040528093929190818152602001838360200280828437600092019190915250929550610577945050505050565b34801561030e57600080fd5b506101256004803603606081101561032557600080fd5b506001600160a01b03813581169160208101359091169060400135610688565b34801561035157600080fd5b506101256004803603602081101561036857600080fd5b50356001600160a01b0316610f7d565b60026020526000908152604090205460ff1681565b60016020526000908152604090205460ff1681565b6103aa61107f565b6001600160a01b03166103bb6104db565b6001600160a01b031614610404576040805162461bcd60e51b815260206004820181905260248201526000805160206116a3833981519152604482015290519081900360640190fd5b600080546040516001600160a01b03909116907f8be0079c531659141344cd1fd0a4f28419497f9722a3daafe3b4186f6b6457e0908390a3600080546001600160a01b0319169055565b61045661107f565b6001600160a01b03166104676104db565b6001600160a01b0316146104b0576040805162461bcd60e51b815260206004820181905260248201526000805160206116a3833981519152604482015290519081900360640190fd5b6001600160a01b03919091166000908152600160205260409020805460ff1916911515919091179055565b6000546001600160a01b031690565b6104f261107f565b6001600160a01b03166105036104db565b6001600160a01b03161461054c576040805162461bcd60e51b815260206004820181905260248201526000805160206116a3833981519152604482015290519081900360640190fd5b6001600160a01b03919091166000908152600260205260409020805460ff1916911515919091179055565b61057f61107f565b6001600160a01b03166105906104db565b6001600160a01b0316146105d9576040805162461bcd60e51b815260206004820181905260248201526000805160206116a3833981519152604482015290519081900360640190fd5b60005b825181101561062c5760008382815181106105f357fe5b6020908102919091018101516001600160a01b0316600090815260019182905260409020805460ff1916821790559190910190506105dc565b5060005b815181101561068357600082828151811061064757fe5b6020908102919091018101516001600160a01b03166000908152600290915260409020805460ff19166001908117909155919091019050610630565b505050565b6001600160a01b03831660009081526001602052604090205460ff166106e2576040805162461bcd60e51b815260206004820152600a6024820152693130b21030aa37b5b2b760b11b604482015290519081900360640190fd5b6001600160a01b03821660009081526002602052604090205460ff1661073c576040805162461bcd60e51b815260206004820152600a6024820152693130b210382a37b5b2b760b11b604482015290519081900360640190fd5b604080516370a0823160e01b8152336004820152905184916000916001600160a01b038416916370a08231916024808301926020929190829003018186803b15801561078757600080fd5b505afa15801561079b573d6000803e3d6000fd5b505050506040513d60208110156107b157600080fd5b50519050808311156107f9576040805162461bcd60e51b815260206004820152600c60248201526b195c9c9bdc88185b5bdd5b9d60a21b604482015290519081900360640190fd5b6000826001600160a01b03166389d1a0fc6040518163ffffffff1660e01b815260040160206040518083038186803b15801561083457600080fd5b505afa158015610848573d6000803e3d6000fd5b505050506040513d602081101561085e57600080fd5b505190506001600160a01b03811673eeeeeeeeeeeeeeeeeeeeeeeeeeeeeeeeeeeeeeee1415610a285760008590506109d1816001600160a01b03166395d89b416040518163ffffffff1660e01b815260040160006040518083038186803b1580156108c857600080fd5b505afa1580156108dc573d6000803e3d6000fd5b505050506040513d6000823e601f3d908101601f19168201604052602081101561090557600080fd5b810190808051604051939291908464010000000082111561092557600080fd5b90830190602082018581111561093a57600080fd5b825164010000000081118282018810171561095457600080fd5b82525081516020918201929091019080838360005b83811015610981578181015183820152602001610969565b50505050905090810190601f1680156109ae5780820380516001836020036101000a031916815260200191505b506040818101905260048152630e08aa8960e31b60208201529250611083915050565b610a22576040805162461bcd60e51b815260206004820152601b60248201527f61546f6b656e20616e642070546f6b656e206e6f74206d617463680000000000604482015290519081900360640190fd5b50610af9565b6000859050816001600160a01b0316816001600160a01b0316636f307dc36040518163ffffffff1660e01b815260040160206040518083038186803b158015610a7057600080fd5b505afa158015610a84573d6000803e3d6000fd5b505050506040513d6020811015610a9a57600080fd5b50516001600160a01b031614610af7576040805162461bcd60e51b815260206004820152601b60248201527f61546f6b656e20616e642070546f6b656e206e6f74206d617463680000000000604482015290519081900360640190fd5b505b604080516323b872dd60e01b815233600482015230602482018190526044820187905291516001600160a01b038616916323b872dd9160648083019260209291908290030181600087803b158015610b5057600080fd5b505af1158015610b64573d6000803e3d6000fd5b505050506040513d6020811015610b7a57600080fd5b5060009050610b888361116a565b9050846001600160a01b031663db006a75876040518263ffffffff1660e01b815260040180828152602001915050600060405180830381600087803b158015610bd057600080fd5b505af1158015610be4573d6000803e3d6000fd5b505050506000610bf38461116a565b90506000610c01828461121b565b905060006001600160a01b03861673eeeeeeeeeeeeeeeeeeeeeeeeeeeeeeeeeeeeeeee1415610db657896000610c368261116a565b9050816001600160a01b0316631249c58b856040518263ffffffff1660e01b81526004016000604051808303818588803b158015610c7357600080fd5b505af1158015610c87573d6000803e3d6000fd5b50505050506000610c978d61116a565b9050610ca3818361121b565b9350826001600160a01b031663095ea7b389866040518363ffffffff1660e01b815260040180836001600160a01b0316815260200182815260200192505050602060405180830381600087803b158015610cfc57600080fd5b505af1158015610d10573d6000803e3d6000fd5b505050506040513d6020811015610d2657600080fd5b5050604080516323b872dd60e01b81526001600160a01b038a81166004830152336024830152604482018790529151918516916323b872dd916064808201926020929091908290030181600087803b158015610d8157600080fd5b505af1158015610d95573d6000803e3d6000fd5b505050506040513d6020811015610dab57600080fd5b50610f709350505050565b896000610dc28261116a565b9050610dd86001600160a01b0389168386611278565b816001600160a01b031663a0712d68856040518263ffffffff1660e01b815260040180828152602001915050602060405180830381600087803b158015610e1e57600080fd5b505af1158015610e32573d6000803e3d6000fd5b505050506040513d6020811015610e4857600080fd5b5060009050610e568d61116a565b9050610e62818361121b565b9350826001600160a01b031663095ea7b389866040518363ffffffff1660e01b815260040180836001600160a01b0316815260200182815260200192505050602060405180830381600087803b158015610ebb57600080fd5b505af1158015610ecf573d6000803e3d6000fd5b505050506040513d6020811015610ee557600080fd5b5050604080516323b872dd60e01b81526001600160a01b038a81166004830152336024830152604482018790529151918516916323b872dd916064808201926020929091908290030181600087803b158015610f4057600080fd5b505af1158015610f54573d6000803e3d6000fd5b505050506040513d6020811015610f6a57600080fd5b50505050505b5050505050505050505050565b610f8561107f565b6001600160a01b0316610f966104db565b6001600160a01b031614610fdf576040805162461bcd60e51b815260206004820181905260248201526000805160206116a3833981519152604482015290519081900360640190fd5b6001600160a01b0381166110245760405162461bcd60e51b81526004018080602001828103825260268152602001806116576026913960400191505060405180910390fd5b600080546040516001600160a01b03808516939216917f8be0079c531659141344cd1fd0a4f28419497f9722a3daafe3b4186f6b6457e091a3600080546001600160a01b0319166001600160a01b0392909216919091179055565b3390565b6000816040516020018082805190602001908083835b602083106110b85780518252601f199092019160209182019101611099565b6001836020036101000a03801982511681845116808217855250505050505090500191505060405160208183030381529060405280519060200120836040516020018082805190602001908083835b602083106111265780518252601f199092019160209182019101611107565b6001836020036101000a0380198251168184511680821785525050505050509050019150506040516020818303038152906040528051906020012014905092915050565b60006001600160a01b03821673eeeeeeeeeeeeeeeeeeeeeeeeeeeeeeeeeeeeeeee1415611198575047611216565b604080516370a0823160e01b8152306004820152905183916001600160a01b038316916370a0823191602480820192602092909190829003018186803b1580156111e157600080fd5b505afa1580156111f5573d6000803e3d6000fd5b505050506040513d602081101561120b57600080fd5b505191506112169050565b919050565b600082821115611272576040805162461bcd60e51b815260206004820152601e60248201527f536166654d6174683a207375627472616374696f6e206f766572666c6f770000604482015290519081900360640190fd5b50900390565b8015806112fe575060408051636eb1769f60e11b81523060048201526001600160a01b03848116602483015291519185169163dd62ed3e91604480820192602092909190829003018186803b1580156112d057600080fd5b505afa1580156112e4573d6000803e3d6000fd5b505050506040513d60208110156112fa57600080fd5b5051155b6113395760405162461bcd60e51b81526004018080602001828103825260368152602001806116ed6036913960400191505060405180910390fd5b604080516001600160a01b038416602482015260448082018490528251808303909101815260649091019091526020810180516001600160e01b031663095ea7b360e01b17905261068390849060606113db826040518060400160405280602081526020017f5361666545524332303a206c6f772d6c6576656c2063616c6c206661696c6564815250856001600160a01b03166114379092919063ffffffff16565b805190915015610683578080602001905160208110156113fa57600080fd5b50516106835760405162461bcd60e51b815260040180806020018281038252602a8152602001806116c3602a913960400191505060405180910390fd5b60606114468484600085611450565b90505b9392505050565b6060824710156114915760405162461bcd60e51b815260040180806020018281038252602681526020018061167d6026913960400191505060405180910390fd5b61149a856115ac565b6114eb576040805162461bcd60e51b815260206004820152601d60248201527f416464726573733a2063616c6c20746f206e6f6e2d636f6e7472616374000000604482015290519081900360640190fd5b60006060866001600160a01b031685876040518082805190602001908083835b6020831061152a5780518252601f19909201916020918201910161150b565b6001836020036101000a03801982511681845116808217855250505050505090500191505060006040518083038185875af1925050503d806000811461158c576040519150601f19603f3d011682016040523d82523d6000602084013e611591565b606091505b50915091506115a18282866115b2565b979650505050505050565b3b151590565b606083156115c1575081611449565b8251156115d15782518084602001fd5b8160405162461bcd60e51b81526004018080602001828103825283818151815260200191508051906020019080838360005b8381101561161b578181015183820152602001611603565b50505050905090810190601f1680156116485780820380516001836020036101000a031916815260200191505b509250505060405180910390fdfe4f776e61626c653a206e6577206f776e657220697320746865207a65726f2061646472657373416464726573733a20696e73756666696369656e742062616c616e636520666f722063616c6c4f776e61626c653a2063616c6c6572206973206e6f7420746865206f776e65725361666545524332303a204552433230206f7065726174696f6e20646964206e6f7420737563636565645361666545524332303a20617070726f76652066726f6d206e6f6e2d7a65726f20746f206e6f6e2d7a65726f20616c6c6f77616e6365a2646970667358221220c756e60df7f7da2e5b0dc1ccac39e734d4935a4c4465ca6045db36e98a9f0f1b64736f6c634300060c0033",
  "linkReferences": {},
  "deployedLinkReferences": {}
}