{
  "_format": "hh-sol-artifact-1",
  "contractName": "CDaiDelegate",
  "sourceName": "contracts/Lend/CDaiDelegate.sol",
  "abi": [
    {
      "anonymous": false,
      "inputs": [
        {
          "indexed": false,
          "internalType": "uint256",
          "name": "cashPrior",
          "type": "uint256"
        },
        {
          "indexed": false,
          "internalType": "uint256",
          "name": "interestAccumulated",
          "type": "uint256"
        },
        {
          "indexed": false,
          "internalType": "uint256",
          "name": "borrowIndex",
          "type": "uint256"
        },
        {
          "indexed": false,
          "internalType": "uint256",
          "name": "totalBorrows",
          "type": "uint256"
        }
      ],
      "name": "AccrueInterest",
      "type": "event"
    },
    {
      "anonymous": false,
      "inputs": [
        {
          "indexed": true,
          "internalType": "address",
          "name": "owner",
          "type": "address"
        },
        {
          "indexed": true,
          "internalType": "address",
          "name": "spender",
          "type": "address"
        },
        {
          "indexed": false,
          "internalType": "uint256",
          "name": "amount",
          "type": "uint256"
        }
      ],
      "name": "Approval",
      "type": "event"
    },
    {
      "anonymous": false,
      "inputs": [
        {
          "indexed": false,
          "internalType": "address",
          "name": "borrower",
          "type": "address"
        },
        {
          "indexed": false,
          "internalType": "uint256",
          "name": "borrowAmount",
          "type": "uint256"
        },
        {
          "indexed": false,
          "internalType": "uint256",
          "name": "accountBorrows",
          "type": "uint256"
        },
        {
          "indexed": false,
          "internalType": "uint256",
          "name": "totalBorrows",
          "type": "uint256"
        }
      ],
      "name": "Borrow",
      "type": "event"
    },
    {
      "anonymous": false,
      "inputs": [
        {
          "indexed": false,
          "internalType": "uint256",
          "name": "error",
          "type": "uint256"
        },
        {
          "indexed": false,
          "internalType": "uint256",
          "name": "info",
          "type": "uint256"
        },
        {
          "indexed": false,
          "internalType": "uint256",
          "name": "detail",
          "type": "uint256"
        }
      ],
      "name": "Failure",
      "type": "event"
    },
    {
      "anonymous": false,
      "inputs": [
        {
          "indexed": false,
          "internalType": "address",
          "name": "liquidator",
          "type": "address"
        },
        {
          "indexed": false,
          "internalType": "address",
          "name": "borrower",
          "type": "address"
        },
        {
          "indexed": false,
          "internalType": "uint256",
          "name": "repayAmount",
          "type": "uint256"
        },
        {
          "indexed": false,
          "internalType": "address",
          "name": "cTokenCollateral",
          "type": "address"
        },
        {
          "indexed": false,
          "internalType": "uint256",
          "name": "seizeTokens",
          "type": "uint256"
        }
      ],
      "name": "LiquidateBorrow",
      "type": "event"
    },
    {
      "anonymous": false,
      "inputs": [
        {
          "indexed": false,
          "internalType": "address",
          "name": "minter",
          "type": "address"
        },
        {
          "indexed": false,
          "internalType": "uint256",
          "name": "mintAmount",
          "type": "uint256"
        },
        {
          "indexed": false,
          "internalType": "uint256",
          "name": "mintTokens",
          "type": "uint256"
        }
      ],
      "name": "Mint",
      "type": "event"
    },
    {
      "anonymous": false,
      "inputs": [
        {
          "indexed": false,
          "internalType": "address",
          "name": "oldAdmin",
          "type": "address"
        },
        {
          "indexed": false,
          "internalType": "address",
          "name": "newAdmin",
          "type": "address"
        }
      ],
      "name": "NewAdmin",
      "type": "event"
    },
    {
      "anonymous": false,
      "inputs": [
        {
          "indexed": false,
          "internalType": "contract ComptrollerInterface",
          "name": "oldComptroller",
          "type": "address"
        },
        {
          "indexed": false,
          "internalType": "contract ComptrollerInterface",
          "name": "newComptroller",
          "type": "address"
        }
      ],
      "name": "NewComptroller",
      "type": "event"
    },
    {
      "anonymous": false,
      "inputs": [
        {
          "indexed": false,
          "internalType": "contract InterestRateModel",
          "name": "oldInterestRateModel",
          "type": "address"
        },
        {
          "indexed": false,
          "internalType": "contract InterestRateModel",
          "name": "newInterestRateModel",
          "type": "address"
        }
      ],
      "name": "NewMarketInterestRateModel",
      "type": "event"
    },
    {
      "anonymous": false,
      "inputs": [
        {
          "indexed": false,
          "internalType": "address",
          "name": "oldPendingAdmin",
          "type": "address"
        },
        {
          "indexed": false,
          "internalType": "address",
          "name": "newPendingAdmin",
          "type": "address"
        }
      ],
      "name": "NewPendingAdmin",
      "type": "event"
    },
    {
      "anonymous": false,
      "inputs": [
        {
          "indexed": false,
          "internalType": "uint256",
          "name": "oldReserveFactorMantissa",
          "type": "uint256"
        },
        {
          "indexed": false,
          "internalType": "uint256",
          "name": "newReserveFactorMantissa",
          "type": "uint256"
        }
      ],
      "name": "NewReserveFactor",
      "type": "event"
    },
    {
      "anonymous": false,
      "inputs": [
        {
          "indexed": false,
          "internalType": "address",
          "name": "redeemer",
          "type": "address"
        },
        {
          "indexed": false,
          "internalType": "uint256",
          "name": "redeemAmount",
          "type": "uint256"
        },
        {
          "indexed": false,
          "internalType": "uint256",
          "name": "redeemTokens",
          "type": "uint256"
        }
      ],
      "name": "Redeem",
      "type": "event"
    },
    {
      "anonymous": false,
      "inputs": [
        {
          "indexed": false,
          "internalType": "address",
          "name": "payer",
          "type": "address"
        },
        {
          "indexed": false,
          "internalType": "address",
          "name": "borrower",
          "type": "address"
        },
        {
          "indexed": false,
          "internalType": "uint256",
          "name": "repayAmount",
          "type": "uint256"
        },
        {
          "indexed": false,
          "internalType": "uint256",
          "name": "accountBorrows",
          "type": "uint256"
        },
        {
          "indexed": false,
          "internalType": "uint256",
          "name": "totalBorrows",
          "type": "uint256"
        }
      ],
      "name": "RepayBorrow",
      "type": "event"
    },
    {
      "anonymous": false,
      "inputs": [
        {
          "indexed": false,
          "internalType": "address",
          "name": "benefactor",
          "type": "address"
        },
        {
          "indexed": false,
          "internalType": "uint256",
          "name": "addAmount",
          "type": "uint256"
        },
        {
          "indexed": false,
          "internalType": "uint256",
          "name": "newTotalReserves",
          "type": "uint256"
        }
      ],
      "name": "ReservesAdded",
      "type": "event"
    },
    {
      "anonymous": false,
      "inputs": [
        {
          "indexed": false,
          "internalType": "address",
          "name": "admin",
          "type": "address"
        },
        {
          "indexed": false,
          "internalType": "uint256",
          "name": "reduceAmount",
          "type": "uint256"
        },
        {
          "indexed": false,
          "internalType": "uint256",
          "name": "newTotalReserves",
          "type": "uint256"
        }
      ],
      "name": "ReservesReduced",
      "type": "event"
    },
    {
      "anonymous": false,
      "inputs": [
        {
          "indexed": true,
          "internalType": "address",
          "name": "from",
          "type": "address"
        },
        {
          "indexed": true,
          "internalType": "address",
          "name": "to",
          "type": "address"
        },
        {
          "indexed": false,
          "internalType": "uint256",
          "name": "amount",
          "type": "uint256"
        }
      ],
      "name": "Transfer",
      "type": "event"
    },
    {
      "constant": false,
      "inputs": [],
      "name": "_acceptAdmin",
      "outputs": [
        {
          "internalType": "uint256",
          "name": "",
          "type": "uint256"
        }
      ],
      "payable": false,
      "stateMutability": "nonpayable",
      "type": "function"
    },
    {
      "constant": false,
      "inputs": [
        {
          "internalType": "uint256",
          "name": "addAmount",
          "type": "uint256"
        }
      ],
      "name": "_addReserves",
      "outputs": [
        {
          "internalType": "uint256",
          "name": "",
          "type": "uint256"
        }
      ],
      "payable": false,
      "stateMutability": "nonpayable",
      "type": "function"
    },
    {
      "constant": false,
      "inputs": [
        {
          "internalType": "bytes",
          "name": "data",
          "type": "bytes"
        }
      ],
      "name": "_becomeImplementation",
      "outputs": [],
      "payable": false,
      "stateMutability": "nonpayable",
      "type": "function"
    },
    {
      "constant": false,
      "inputs": [
        {
          "internalType": "uint256",
          "name": "reduceAmount",
          "type": "uint256"
        }
      ],
      "name": "_reduceReserves",
      "outputs": [
        {
          "internalType": "uint256",
          "name": "",
          "type": "uint256"
        }
      ],
      "payable": false,
      "stateMutability": "nonpayable",
      "type": "function"
    },
    {
      "constant": false,
      "inputs": [],
      "name": "_resignImplementation",
      "outputs": [],
      "payable": false,
      "stateMutability": "nonpayable",
      "type": "function"
    },
    {
      "constant": false,
      "inputs": [
        {
          "internalType": "contract ComptrollerInterface",
          "name": "newComptroller",
          "type": "address"
        }
      ],
      "name": "_setComptroller",
      "outputs": [
        {
          "internalType": "uint256",
          "name": "",
          "type": "uint256"
        }
      ],
      "payable": false,
      "stateMutability": "nonpayable",
      "type": "function"
    },
    {
      "constant": false,
      "inputs": [
        {
          "internalType": "contract InterestRateModel",
          "name": "newInterestRateModel",
          "type": "address"
        }
      ],
      "name": "_setInterestRateModel",
      "outputs": [
        {
          "internalType": "uint256",
          "name": "",
          "type": "uint256"
        }
      ],
      "payable": false,
      "stateMutability": "nonpayable",
      "type": "function"
    },
    {
      "constant": false,
      "inputs": [
        {
          "internalType": "address payable",
          "name": "newPendingAdmin",
          "type": "address"
        }
      ],
      "name": "_setPendingAdmin",
      "outputs": [
        {
          "internalType": "uint256",
          "name": "",
          "type": "uint256"
        }
      ],
      "payable": false,
      "stateMutability": "nonpayable",
      "type": "function"
    },
    {
      "constant": false,
      "inputs": [
        {
          "internalType": "uint256",
          "name": "newReserveFactorMantissa",
          "type": "uint256"
        }
      ],
      "name": "_setReserveFactor",
      "outputs": [
        {
          "internalType": "uint256",
          "name": "",
          "type": "uint256"
        }
      ],
      "payable": false,
      "stateMutability": "nonpayable",
      "type": "function"
    },
    {
      "constant": true,
      "inputs": [],
      "name": "accrualBlockNumber",
      "outputs": [
        {
          "internalType": "uint256",
          "name": "",
          "type": "uint256"
        }
      ],
      "payable": false,
      "stateMutability": "view",
      "type": "function"
    },
    {
      "constant": false,
      "inputs": [],
      "name": "accrueInterest",
      "outputs": [
        {
          "internalType": "uint256",
          "name": "",
          "type": "uint256"
        }
      ],
      "payable": false,
      "stateMutability": "nonpayable",
      "type": "function"
    },
    {
      "constant": true,
      "inputs": [],
      "name": "admin",
      "outputs": [
        {
          "internalType": "address payable",
          "name": "",
          "type": "address"
        }
      ],
      "payable": false,
      "stateMutability": "view",
      "type": "function"
    },
    {
      "constant": true,
      "inputs": [
        {
          "internalType": "address",
          "name": "owner",
          "type": "address"
        },
        {
          "internalType": "address",
          "name": "spender",
          "type": "address"
        }
      ],
      "name": "allowance",
      "outputs": [
        {
          "internalType": "uint256",
          "name": "",
          "type": "uint256"
        }
      ],
      "payable": false,
      "stateMutability": "view",
      "type": "function"
    },
    {
      "constant": false,
      "inputs": [
        {
          "internalType": "address",
          "name": "spender",
          "type": "address"
        },
        {
          "internalType": "uint256",
          "name": "amount",
          "type": "uint256"
        }
      ],
      "name": "approve",
      "outputs": [
        {
          "internalType": "bool",
          "name": "",
          "type": "bool"
        }
      ],
      "payable": false,
      "stateMutability": "nonpayable",
      "type": "function"
    },
    {
      "constant": true,
      "inputs": [
        {
          "internalType": "address",
          "name": "owner",
          "type": "address"
        }
      ],
      "name": "balanceOf",
      "outputs": [
        {
          "internalType": "uint256",
          "name": "",
          "type": "uint256"
        }
      ],
      "payable": false,
      "stateMutability": "view",
      "type": "function"
    },
    {
      "constant": false,
      "inputs": [
        {
          "internalType": "address",
          "name": "owner",
          "type": "address"
        }
      ],
      "name": "balanceOfUnderlying",
      "outputs": [
        {
          "internalType": "uint256",
          "name": "",
          "type": "uint256"
        }
      ],
      "payable": false,
      "stateMutability": "nonpayable",
      "type": "function"
    },
    {
      "constant": false,
      "inputs": [
        {
          "internalType": "uint256",
          "name": "borrowAmount",
          "type": "uint256"
        }
      ],
      "name": "borrow",
      "outputs": [
        {
          "internalType": "uint256",
          "name": "",
          "type": "uint256"
        }
      ],
      "payable": false,
      "stateMutability": "nonpayable",
      "type": "function"
    },
    {
      "constant": false,
      "inputs": [
        {
          "internalType": "address",
          "name": "account",
          "type": "address"
        }
      ],
      "name": "borrowBalanceCurrent",
      "outputs": [
        {
          "internalType": "uint256",
          "name": "",
          "type": "uint256"
        }
      ],
      "payable": false,
      "stateMutability": "nonpayable",
      "type": "function"
    },
    {
      "constant": true,
      "inputs": [
        {
          "internalType": "address",
          "name": "account",
          "type": "address"
        }
      ],
      "name": "borrowBalanceStored",
      "outputs": [
        {
          "internalType": "uint256",
          "name": "",
          "type": "uint256"
        }
      ],
      "payable": false,
      "stateMutability": "view",
      "type": "function"
    },
    {
      "constant": true,
      "inputs": [],
      "name": "borrowIndex",
      "outputs": [
        {
          "internalType": "uint256",
          "name": "",
          "type": "uint256"
        }
      ],
      "payable": false,
      "stateMutability": "view",
      "type": "function"
    },
    {
      "constant": true,
      "inputs": [],
      "name": "borrowRatePerBlock",
      "outputs": [
        {
          "internalType": "uint256",
          "name": "",
          "type": "uint256"
        }
      ],
      "payable": false,
      "stateMutability": "view",
      "type": "function"
    },
    {
      "constant": true,
      "inputs": [],
      "name": "comptroller",
      "outputs": [
        {
          "internalType": "contract ComptrollerInterface",
          "name": "",
          "type": "address"
        }
      ],
      "payable": false,
      "stateMutability": "view",
      "type": "function"
    },
    {
      "constant": true,
      "inputs": [],
      "name": "daiJoinAddress",
      "outputs": [
        {
          "internalType": "address",
          "name": "",
          "type": "address"
        }
      ],
      "payable": false,
      "stateMutability": "view",
      "type": "function"
    },
    {
      "constant": true,
      "inputs": [],
      "name": "decimals",
      "outputs": [
        {
          "internalType": "uint8",
          "name": "",
          "type": "uint8"
        }
      ],
      "payable": false,
      "stateMutability": "view",
      "type": "function"
    },
    {
      "constant": false,
      "inputs": [],
      "name": "exchangeRateCurrent",
      "outputs": [
        {
          "internalType": "uint256",
          "name": "",
          "type": "uint256"
        }
      ],
      "payable": false,
      "stateMutability": "nonpayable",
      "type": "function"
    },
    {
      "constant": true,
      "inputs": [],
      "name": "exchangeRateStored",
      "outputs": [
        {
          "internalType": "uint256",
          "name": "",
          "type": "uint256"
        }
      ],
      "payable": false,
      "stateMutability": "view",
      "type": "function"
    },
    {
      "constant": true,
      "inputs": [
        {
          "internalType": "address",
          "name": "account",
          "type": "address"
        }
      ],
      "name": "getAccountSnapshot",
      "outputs": [
        {
          "internalType": "uint256",
          "name": "",
          "type": "uint256"
        },
        {
          "internalType": "uint256",
          "name": "",
          "type": "uint256"
        },
        {
          "internalType": "uint256",
          "name": "",
          "type": "uint256"
        },
        {
          "internalType": "uint256",
          "name": "",
          "type": "uint256"
        }
      ],
      "payable": false,
      "stateMutability": "view",
      "type": "function"
    },
    {
      "constant": true,
      "inputs": [],
      "name": "getCash",
      "outputs": [
        {
          "internalType": "uint256",
          "name": "",
          "type": "uint256"
        }
      ],
      "payable": false,
      "stateMutability": "view",
      "type": "function"
    },
    {
      "constant": true,
      "inputs": [],
      "name": "implementation",
      "outputs": [
        {
          "internalType": "address",
          "name": "",
          "type": "address"
        }
      ],
      "payable": false,
      "stateMutability": "view",
      "type": "function"
    },
    {
      "constant": false,
      "inputs": [
        {
          "internalType": "address",
          "name": "underlying_",
          "type": "address"
        },
        {
          "internalType": "contract ComptrollerInterface",
          "name": "comptroller_",
          "type": "address"
        },
        {
          "internalType": "contract InterestRateModel",
          "name": "interestRateModel_",
          "type": "address"
        },
        {
          "internalType": "uint256",
          "name": "initialExchangeRateMantissa_",
          "type": "uint256"
        },
        {
          "internalType": "string",
          "name": "name_",
          "type": "string"
        },
        {
          "internalType": "string",
          "name": "symbol_",
          "type": "string"
        },
        {
          "internalType": "uint8",
          "name": "decimals_",
          "type": "uint8"
        }
      ],
      "name": "initialize",
      "outputs": [],
      "payable": false,
      "stateMutability": "nonpayable",
      "type": "function"
    },
    {
      "constant": false,
      "inputs": [
        {
          "internalType": "contract ComptrollerInterface",
          "name": "comptroller_",
          "type": "address"
        },
        {
          "internalType": "contract InterestRateModel",
          "name": "interestRateModel_",
          "type": "address"
        },
        {
          "internalType": "uint256",
          "name": "initialExchangeRateMantissa_",
          "type": "uint256"
        },
        {
          "internalType": "string",
          "name": "name_",
          "type": "string"
        },
        {
          "internalType": "string",
          "name": "symbol_",
          "type": "string"
        },
        {
          "internalType": "uint8",
          "name": "decimals_",
          "type": "uint8"
        }
      ],
      "name": "initialize",
      "outputs": [],
      "payable": false,
      "stateMutability": "nonpayable",
      "type": "function"
    },
    {
      "constant": true,
      "inputs": [],
      "name": "interestRateModel",
      "outputs": [
        {
          "internalType": "contract InterestRateModel",
          "name": "",
          "type": "address"
        }
      ],
      "payable": false,
      "stateMutability": "view",
      "type": "function"
    },
    {
      "constant": true,
      "inputs": [],
      "name": "isCToken",
      "outputs": [
        {
          "internalType": "bool",
          "name": "",
          "type": "bool"
        }
      ],
      "payable": false,
      "stateMutability": "view",
      "type": "function"
    },
    {
      "constant": false,
      "inputs": [
        {
          "internalType": "address",
          "name": "borrower",
          "type": "address"
        },
        {
          "internalType": "uint256",
          "name": "repayAmount",
          "type": "uint256"
        },
        {
          "internalType": "contract CTokenInterface",
          "name": "cTokenCollateral",
          "type": "address"
        }
      ],
      "name": "liquidateBorrow",
      "outputs": [
        {
          "internalType": "uint256",
          "name": "",
          "type": "uint256"
        }
      ],
      "payable": false,
      "stateMutability": "nonpayable",
      "type": "function"
    },
    {
      "constant": false,
      "inputs": [
        {
          "internalType": "uint256",
          "name": "mintAmount",
          "type": "uint256"
        }
      ],
      "name": "mint",
      "outputs": [
        {
          "internalType": "uint256",
          "name": "",
          "type": "uint256"
        }
      ],
      "payable": false,
      "stateMutability": "nonpayable",
      "type": "function"
    },
    {
      "constant": true,
      "inputs": [],
      "name": "name",
      "outputs": [
        {
          "internalType": "string",
          "name": "",
          "type": "string"
        }
      ],
      "payable": false,
      "stateMutability": "view",
      "type": "function"
    },
    {
      "constant": true,
      "inputs": [],
      "name": "pendingAdmin",
      "outputs": [
        {
          "internalType": "address payable",
          "name": "",
          "type": "address"
        }
      ],
      "payable": false,
      "stateMutability": "view",
      "type": "function"
    },
    {
      "constant": true,
      "inputs": [],
      "name": "potAddress",
      "outputs": [
        {
          "internalType": "address",
          "name": "",
          "type": "address"
        }
      ],
      "payable": false,
      "stateMutability": "view",
      "type": "function"
    },
    {
      "constant": false,
      "inputs": [
        {
          "internalType": "uint256",
          "name": "redeemTokens",
          "type": "uint256"
        }
      ],
      "name": "redeem",
      "outputs": [
        {
          "internalType": "uint256",
          "name": "",
          "type": "uint256"
        }
      ],
      "payable": false,
      "stateMutability": "nonpayable",
      "type": "function"
    },
    {
      "constant": false,
      "inputs": [
        {
          "internalType": "uint256",
          "name": "redeemAmount",
          "type": "uint256"
        }
      ],
      "name": "redeemUnderlying",
      "outputs": [
        {
          "internalType": "uint256",
          "name": "",
          "type": "uint256"
        }
      ],
      "payable": false,
      "stateMutability": "nonpayable",
      "type": "function"
    },
    {
      "constant": false,
      "inputs": [
        {
          "internalType": "uint256",
          "name": "repayAmount",
          "type": "uint256"
        }
      ],
      "name": "repayBorrow",
      "outputs": [
        {
          "internalType": "uint256",
          "name": "",
          "type": "uint256"
        }
      ],
      "payable": false,
      "stateMutability": "nonpayable",
      "type": "function"
    },
    {
      "constant": false,
      "inputs": [
        {
          "internalType": "address",
          "name": "borrower",
          "type": "address"
        },
        {
          "internalType": "uint256",
          "name": "repayAmount",
          "type": "uint256"
        }
      ],
      "name": "repayBorrowBehalf",
      "outputs": [
        {
          "internalType": "uint256",
          "name": "",
          "type": "uint256"
        }
      ],
      "payable": false,
      "stateMutability": "nonpayable",
      "type": "function"
    },
    {
      "constant": true,
      "inputs": [],
      "name": "reserveFactorMantissa",
      "outputs": [
        {
          "internalType": "uint256",
          "name": "",
          "type": "uint256"
        }
      ],
      "payable": false,
      "stateMutability": "view",
      "type": "function"
    },
    {
      "constant": false,
      "inputs": [
        {
          "internalType": "address",
          "name": "liquidator",
          "type": "address"
        },
        {
          "internalType": "address",
          "name": "borrower",
          "type": "address"
        },
        {
          "internalType": "uint256",
          "name": "seizeTokens",
          "type": "uint256"
        }
      ],
      "name": "seize",
      "outputs": [
        {
          "internalType": "uint256",
          "name": "",
          "type": "uint256"
        }
      ],
      "payable": false,
      "stateMutability": "nonpayable",
      "type": "function"
    },
    {
      "constant": true,
      "inputs": [],
      "name": "supplyRatePerBlock",
      "outputs": [
        {
          "internalType": "uint256",
          "name": "",
          "type": "uint256"
        }
      ],
      "payable": false,
      "stateMutability": "view",
      "type": "function"
    },
    {
      "constant": false,
      "inputs": [
        {
          "internalType": "contract EIP20NonStandardInterface",
          "name": "token",
          "type": "address"
        }
      ],
      "name": "sweepToken",
      "outputs": [],
      "payable": false,
      "stateMutability": "nonpayable",
      "type": "function"
    },
    {
      "constant": true,
      "inputs": [],
      "name": "symbol",
      "outputs": [
        {
          "internalType": "string",
          "name": "",
          "type": "string"
        }
      ],
      "payable": false,
      "stateMutability": "view",
      "type": "function"
    },
    {
      "constant": true,
      "inputs": [],
      "name": "totalBorrows",
      "outputs": [
        {
          "internalType": "uint256",
          "name": "",
          "type": "uint256"
        }
      ],
      "payable": false,
      "stateMutability": "view",
      "type": "function"
    },
    {
      "constant": false,
      "inputs": [],
      "name": "totalBorrowsCurrent",
      "outputs": [
        {
          "internalType": "uint256",
          "name": "",
          "type": "uint256"
        }
      ],
      "payable": false,
      "stateMutability": "nonpayable",
      "type": "function"
    },
    {
      "constant": true,
      "inputs": [],
      "name": "totalReserves",
      "outputs": [
        {
          "internalType": "uint256",
          "name": "",
          "type": "uint256"
        }
      ],
      "payable": false,
      "stateMutability": "view",
      "type": "function"
    },
    {
      "constant": true,
      "inputs": [],
      "name": "totalSupply",
      "outputs": [
        {
          "internalType": "uint256",
          "name": "",
          "type": "uint256"
        }
      ],
      "payable": false,
      "stateMutability": "view",
      "type": "function"
    },
    {
      "constant": false,
      "inputs": [
        {
          "internalType": "address",
          "name": "dst",
          "type": "address"
        },
        {
          "internalType": "uint256",
          "name": "amount",
          "type": "uint256"
        }
      ],
      "name": "transfer",
      "outputs": [
        {
          "internalType": "bool",
          "name": "",
          "type": "bool"
        }
      ],
      "payable": false,
      "stateMutability": "nonpayable",
      "type": "function"
    },
    {
      "constant": false,
      "inputs": [
        {
          "internalType": "address",
          "name": "src",
          "type": "address"
        },
        {
          "internalType": "address",
          "name": "dst",
          "type": "address"
        },
        {
          "internalType": "uint256",
          "name": "amount",
          "type": "uint256"
        }
      ],
      "name": "transferFrom",
      "outputs": [
        {
          "internalType": "bool",
          "name": "",
          "type": "bool"
        }
      ],
      "payable": false,
      "stateMutability": "nonpayable",
      "type": "function"
    },
    {
      "constant": true,
      "inputs": [],
      "name": "underlying",
      "outputs": [
        {
          "internalType": "address",
          "name": "",
          "type": "address"
        }
      ],
      "payable": false,
      "stateMutability": "view",
      "type": "function"
    },
    {
      "constant": true,
      "inputs": [],
      "name": "vatAddress",
      "outputs": [
        {
          "internalType": "address",
          "name": "",
          "type": "address"
        }
      ],
      "payable": false,
      "stateMutability": "view",
      "type": "function"
    }
  ],
  "bytecode": "0x608060405261591e806100136000396000f3fe608060405234801561001057600080fd5b506004361061035d5760003560e01c806373acee98116101d3578063b71d1a0c11610104578063f2b3abbd116100a2578063f851a4401161007c578063f851a44014610bdc578063f8f9da2814610be4578063fca7820b14610bec578063fe9c44ae14610c095761035d565b8063f2b3abbd14610b78578063f3fdb15a14610b9e578063f5e3c46214610ba65761035d565b8063c5ebeaec116100de578063c5ebeaec14610b08578063db006a7514610b25578063dd62ed3e14610b42578063e9c714f214610b705761035d565b8063b71d1a0c14610a8e578063bd6d894d14610ab4578063c37f68e214610abc5761035d565b806399d8c1b411610171578063a9059cbb1161014b578063a9059cbb14610a1c578063aa5af0fd14610a48578063ae9d70b014610a50578063b2a02ff114610a585761035d565b806399d8c1b4146108a9578063a0712d68146109f7578063a6afed9514610a145761035d565b80638d925ccd116101ad5780638d925ccd1461086b5780638f840ddd1461087357806395d89b411461087b57806395dd9193146108835761035d565b806373acee981461083e578063852a12e3146108465780638a8df2e6146108635761035d565b8063313ce567116102ad5780635c60da1b1161024b57806366ced6021161022557806366ced602146108005780636c540baf146108085780636f307dc31461081057806370a08231146108185761035d565b80635c60da1b146107d35780635fe3b567146107db578063601a0bf1146107e35761035d565b80633e941010116102875780633e941010146106e45780634576b5db1461070157806347bd37181461072757806356e677281461072f5761035d565b8063313ce567146106985780633af9e669146106b65780633b1d21a2146106dc5761035d565b806318160ddd1161031a5780631be19560116102f45780631be19560146105ec57806323b872dd146106125780632608f8181461064857806326782247146106745761035d565b806318160ddd14610486578063182df0f51461048e5780631a31d465146104965761035d565b806306fdde0314610362578063095ea7b3146103df5780630e7527021461041f578063153ab5051461044e578063173b99041461045857806317bfdfbc14610460575b600080fd5b61036a610c11565b6040805160208082528351818301528351919283929083019185019080838360005b838110156103a457818101518382015260200161038c565b50505050905090810190601f1680156103d15780820380516001836020036101000a031916815260200191505b509250505060405180910390f35b61040b600480360360408110156103f557600080fd5b506001600160a01b038135169060200135610c9e565b604080519115158252519081900360200190f35b61043c6004803603602081101561043557600080fd5b5035610d0b565b60408051918252519081900360200190f35b610456610d21565b005b61043c610fbf565b61043c6004803603602081101561047657600080fd5b50356001600160a01b0316610fc5565b61043c611085565b61043c61108b565b610456600480360360e08110156104ac57600080fd5b6001600160a01b03823581169260208101358216926040820135909216916060820135919081019060a081016080820135600160201b8111156104ee57600080fd5b82018360208201111561050057600080fd5b803590602001918460018302840111600160201b8311171561052157600080fd5b91908080601f0160208091040260200160405190810160405280939291908181526020018383808284376000920191909152509295949360208101935035915050600160201b81111561057357600080fd5b82018360208201111561058557600080fd5b803590602001918460018302840111600160201b831117156105a657600080fd5b91908080601f0160208091040260200160405190810160405280939291908181526020018383808284376000920191909152509295505050903560ff1691506110ee9050565b6104566004803603602081101561060257600080fd5b50356001600160a01b0316611182565b61040b6004803603606081101561062857600080fd5b506001600160a01b038135811691602081013590911690604001356112be565b61043c6004803603604081101561065e57600080fd5b506001600160a01b038135169060200135611330565b61067c611346565b604080516001600160a01b039092168252519081900360200190f35b6106a0611355565b6040805160ff9092168252519081900360200190f35b61043c600480360360208110156106cc57600080fd5b50356001600160a01b031661135e565b61043c611414565b61043c600480360360208110156106fa57600080fd5b5035611423565b61043c6004803603602081101561071757600080fd5b50356001600160a01b031661142e565b61043c611583565b6104566004803603602081101561074557600080fd5b810190602081018135600160201b81111561075f57600080fd5b82018360208201111561077157600080fd5b803590602001918460018302840111600160201b8311171561079257600080fd5b91908080601f016020809104026020016040519081016040528093929190818152602001838380828437600092019190915250929550611589945050505050565b61067c61160c565b61067c61161b565b61043c600480360360208110156107f957600080fd5b503561162a565b61067c6116c5565b61043c6116d4565b61067c6116da565b61043c6004803603602081101561082e57600080fd5b50356001600160a01b03166116e9565b61043c611704565b61043c6004803603602081101561085c57600080fd5b50356117ba565b61067c6117c5565b61067c6117d4565b61043c6117e3565b61036a6117e9565b61043c6004803603602081101561089957600080fd5b50356001600160a01b0316611841565b610456600480360360c08110156108bf57600080fd5b6001600160a01b03823581169260208101359091169160408201359190810190608081016060820135600160201b8111156108f957600080fd5b82018360208201111561090b57600080fd5b803590602001918460018302840111600160201b8311171561092c57600080fd5b91908080601f0160208091040260200160405190810160405280939291908181526020018383808284376000920191909152509295949360208101935035915050600160201b81111561097e57600080fd5b82018360208201111561099057600080fd5b803590602001918460018302840111600160201b831117156109b157600080fd5b91908080601f0160208091040260200160405190810160405280939291908181526020018383808284376000920191909152509295505050903560ff16915061189e9050565b61043c60048036036020811015610a0d57600080fd5b5035611a85565b61043c611a91565b61040b60048036036040811015610a3257600080fd5b506001600160a01b038135169060200135611b0c565b61043c611b7d565b61043c611b83565b61043c60048036036060811015610a6e57600080fd5b506001600160a01b03813581169160208101359091169060400135611c22565b61043c60048036036020811015610aa457600080fd5b50356001600160a01b0316611c93565b61043c611d1f565b610ae260048036036020811015610ad257600080fd5b50356001600160a01b0316611ddb565b604080519485526020850193909352838301919091526060830152519081900360800190f35b61043c60048036036020811015610b1e57600080fd5b5035611e70565b61043c60048036036020811015610b3b57600080fd5b5035611e7b565b61043c60048036036040811015610b5857600080fd5b506001600160a01b0381358116916020013516611e86565b61043c611eb1565b61043c60048036036020811015610b8e57600080fd5b50356001600160a01b0316611fb4565b61067c611fee565b61043c60048036036060811015610bbc57600080fd5b506001600160a01b03813581169160208101359160409091013516611ffd565b61067c612015565b61043c612029565b61043c60048036036020811015610c0257600080fd5b503561208d565b61040b61210b565b60018054604080516020600284861615610100026000190190941693909304601f81018490048402820184019092528181529291830182828015610c965780601f10610c6b57610100808354040283529160200191610c96565b820191906000526020600020905b815481529060010190602001808311610c7957829003601f168201915b505050505081565b336000818152600f602090815260408083206001600160a01b03871680855290835281842086905581518681529151939493909284927f8c5be1e5ebec7d5bd14f71427d1e84f3dd0314c0f7b2291e5b200ac8c7c3b925929081900390910190a360019150505b92915050565b600080610d1783612110565b509150505b919050565b60035461010090046001600160a01b03163314610d6f5760405162461bcd60e51b815260040180806020018281038252602d8152602001806156a2602d913960400191505060405180910390fd5b60135460145460155460408051634fb3c66560e11b815290516001600160a01b039485169493841693909216918391639f678cca9160048083019260209291908290030181600087803b158015610dc557600080fd5b505af1158015610dd9573d6000803e3d6000fd5b505050506040513d6020811015610def57600080fd5b5050604080516305f5d64360e11b815230600482015290516000916001600160a01b03851691630bebac8691602480820192602092909190829003018186803b158015610e3b57600080fd5b505afa158015610e4f573d6000803e3d6000fd5b505050506040513d6020811015610e6557600080fd5b505160408051637f8661a160e01b81526004810183905290519192506001600160a01b03851691637f8661a19160248082019260009290919082900301818387803b158015610eb357600080fd5b505af1158015610ec7573d6000803e3d6000fd5b505060408051633612d9a360e11b81523060048201529051600093506001600160a01b0386169250636c25b34691602480820192602092909190829003018186803b158015610f1557600080fd5b505afa158015610f29573d6000803e3d6000fd5b505050506040513d6020811015610f3f57600080fd5b50516040805163ef693bed60e01b81523060048201526b033b2e3c9fd0803ce80000008304602482015290519192506001600160a01b0387169163ef693bed9160448082019260009290919082900301818387803b158015610fa057600080fd5b505af1158015610fb4573d6000803e3d6000fd5b505050505050505050565b60085481565b6000805460ff1661100a576040805162461bcd60e51b815260206004820152600a6024820152691c994b595b9d195c995960b21b604482015290519081900360640190fd5b6000805460ff1916815561101c611a91565b14611067576040805162461bcd60e51b81526020600482015260166024820152751858d8dc9d59481a5b9d195c995cdd0819985a5b195960521b604482015290519081900360640190fd5b61107082611841565b90505b6000805460ff19166001179055919050565b600d5481565b60008060006110986121b9565b909250905060008260038111156110ab57fe5b146110e75760405162461bcd60e51b81526004018080602001828103825260358152602001806158356035913960400191505060405180910390fd5b9150505b90565b6110fc86868686868661189e565b601180546001600160a01b0319166001600160a01b038981169190911791829055604080516318160ddd60e01b8152905192909116916318160ddd91600480820192602092909190829003018186803b15801561115857600080fd5b505afa15801561116c573d6000803e3d6000fd5b505050506040513d6020811015610fb457600080fd5b6011546001600160a01b03828116911614156111cf5760405162461bcd60e51b81526004018080602001828103825260328152602001806155ee6032913960400191505060405180910390fd5b604080516370a0823160e01b815230600482015290516000916001600160a01b038416916370a0823191602480820192602092909190829003018186803b15801561121957600080fd5b505afa15801561122d573d6000803e3d6000fd5b505050506040513d602081101561124357600080fd5b50516003546040805163a9059cbb60e01b81526101009092046001600160a01b03908116600484015260248301849052905192935084169163a9059cbb9160448082019260009290919082900301818387803b1580156112a257600080fd5b505af11580156112b6573d6000803e3d6000fd5b505050505050565b6000805460ff16611303576040805162461bcd60e51b815260206004820152600a6024820152691c994b595b9d195c995960b21b604482015290519081900360640190fd5b6000805460ff1916815561131933868686612268565b1490506000805460ff191660011790559392505050565b60008061133d84846124f4565b50949350505050565b6004546001600160a01b031681565b60035460ff1681565b600061136861544e565b604051806020016040528061137b611d1f565b90526001600160a01b0384166000908152600e60205260408120549192509081906113a790849061259f565b909250905060008260038111156113ba57fe5b1461140c576040805162461bcd60e51b815260206004820152601f60248201527f62616c616e636520636f756c64206e6f742062652063616c63756c6174656400604482015290519081900360640190fd5b949350505050565b600061141e6125f3565b905090565b6000610d0582612705565b60035460009061010090046001600160a01b0316331461145b576114546001603f612799565b9050610d1c565b60055460408051623f1ee960e11b815290516001600160a01b0392831692851691627e3dd2916004808301926020929190829003018186803b1580156114a057600080fd5b505afa1580156114b4573d6000803e3d6000fd5b505050506040513d60208110156114ca57600080fd5b505161151d576040805162461bcd60e51b815260206004820152601c60248201527f6d61726b6572206d6574686f642072657475726e65642066616c736500000000604482015290519081900360640190fd5b600580546001600160a01b0319166001600160a01b03858116918217909255604080519284168352602083019190915280517f7ac369dbd14fa5ea3f473ed67cc9d598964a77501540ba6751eb0b3decf5870d9281900390910190a160005b9392505050565b600b5481565b60035461010090046001600160a01b031633146115d75760405162461bcd60e51b81526004018080602001828103825260308152602001806156206030913960400191505060405180910390fd5b6000808280602001905160408110156115ef57600080fd5b508051602090910151909250905061160782826127ff565b505050565b6012546001600160a01b031681565b6005546001600160a01b031681565b6000805460ff1661166f576040805162461bcd60e51b815260206004820152600a6024820152691c994b595b9d195c995960b21b604482015290519081900360640190fd5b6000805460ff19168155611681611a91565b905080156116a75761169f81601081111561169857fe5b6030612799565b915050611073565b6116b083612b1a565b9150506000805460ff19166001179055919050565b6014546001600160a01b031681565b60095481565b6011546001600160a01b031681565b6001600160a01b03166000908152600e602052604090205490565b6000805460ff16611749576040805162461bcd60e51b815260206004820152600a6024820152691c994b595b9d195c995960b21b604482015290519081900360640190fd5b6000805460ff1916815561175b611a91565b146117a6576040805162461bcd60e51b81526020600482015260166024820152751858d8dc9d59481a5b9d195c995cdd0819985a5b195960521b604482015290519081900360640190fd5b50600b546000805460ff1916600117905590565b6000610d0582612c4d565b6013546001600160a01b031681565b6015546001600160a01b031681565b600c5481565b6002805460408051602060018416156101000260001901909316849004601f81018490048402820184019092528181529291830182828015610c965780601f10610c6b57610100808354040283529160200191610c96565b600080600061184f84612cce565b9092509050600082600381111561186257fe5b1461157c5760405162461bcd60e51b81526004018080602001828103825260378152602001806156fa6037913960400191505060405180910390fd5b60035461010090046001600160a01b031633146118ec5760405162461bcd60e51b81526004018080602001828103825260248152602001806155a76024913960400191505060405180910390fd5b6009541580156118fc5750600a54155b6119375760405162461bcd60e51b81526004018080602001828103825260238152602001806155cb6023913960400191505060405180910390fd5b6007849055836119785760405162461bcd60e51b81526004018080602001828103825260308152602001806156506030913960400191505060405180910390fd5b60006119838761142e565b905080156119d8576040805162461bcd60e51b815260206004820152601a60248201527f73657474696e6720636f6d7074726f6c6c6572206661696c6564000000000000604482015290519081900360640190fd5b6119e0612d82565b600955670de0b6b3a7640000600a556119f886612d86565b90508015611a375760405162461bcd60e51b81526004018080602001828103825260228152602001806156806022913960400191505060405180910390fd5b8351611a4a906001906020870190615461565b508251611a5e906002906020860190615461565b50506003805460ff90921660ff199283161790556000805490911660011790555050505050565b600080610d1783612efb565b60145460408051634fb3c66560e11b815290516000926001600160a01b031691639f678cca91600480830192602092919082900301818787803b158015611ad757600080fd5b505af1158015611aeb573d6000803e3d6000fd5b505050506040513d6020811015611b0157600080fd5b5061141e9050612f7c565b6000805460ff16611b51576040805162461bcd60e51b815260206004820152600a6024820152691c994b595b9d195c995960b21b604482015290519081900360640190fd5b6000805460ff19168155611b6733338686612268565b1490506000805460ff1916600117905592915050565b600a5481565b6006546000906001600160a01b031663b8168816611b9f6125f3565b600b54600c546008546040518563ffffffff1660e01b81526004018085815260200184815260200183815260200182815260200194505050505060206040518083038186803b158015611bf157600080fd5b505afa158015611c05573d6000803e3d6000fd5b505050506040513d6020811015611c1b57600080fd5b5051905090565b6000805460ff16611c67576040805162461bcd60e51b815260206004820152600a6024820152691c994b595b9d195c995960b21b604482015290519081900360640190fd5b6000805460ff19169055611c7d338585856132d4565b90506000805460ff191660011790559392505050565b60035460009061010090046001600160a01b03163314611cb95761145460016045612799565b600480546001600160a01b038481166001600160a01b0319831681179093556040805191909216808252602082019390935281517fca4f2f25d0898edd99413412fb94012f9e54ec8142f9b093e7720646a95b16a9929181900390910190a1600061157c565b6000805460ff16611d64576040805162461bcd60e51b815260206004820152600a6024820152691c994b595b9d195c995960b21b604482015290519081900360640190fd5b6000805460ff19168155611d76611a91565b14611dc1576040805162461bcd60e51b81526020600482015260166024820152751858d8dc9d59481a5b9d195c995cdd0819985a5b195960521b604482015290519081900360640190fd5b611dc961108b565b90506000805460ff1916600117905590565b6001600160a01b0381166000908152600e6020526040812054819081908190818080611e0689612cce565b935090506000816003811115611e1857fe5b14611e365760095b975060009650869550859450611e699350505050565b611e3e6121b9565b925090506000816003811115611e5057fe5b14611e5c576009611e20565b5060009650919450925090505b9193509193565b6000610d05826134b0565b6000610d058261352f565b6001600160a01b039182166000908152600f6020908152604080832093909416825291909152205490565b6004546000906001600160a01b031633141580611ecc575033155b15611ee457611edd60016000612799565b90506110eb565b60038054600480546001600160a01b03818116610100818102610100600160a81b0319871617968790556001600160a01b031990931690935560408051948390048216808652929095041660208401528351909391927ff9ffabca9c8276e99321725bcb43fb076a6c66a54b7f21c4e8146d8519b417dc92908290030190a1600454604080516001600160a01b038085168252909216602083015280517fca4f2f25d0898edd99413412fb94012f9e54ec8142f9b093e7720646a95b16a99281900390910190a160009250505090565b600080611fbf611a91565b90508015611fe557611fdd816010811115611fd657fe5b6040612799565b915050610d1c565b61157c83612d86565b6006546001600160a01b031681565b60008061200b8585856135a9565b5095945050505050565b60035461010090046001600160a01b031681565b6006546000906001600160a01b03166315f240536120456125f3565b600b54600c546040518463ffffffff1660e01b815260040180848152602001838152602001828152602001935050505060206040518083038186803b158015611bf157600080fd5b6000805460ff166120d2576040805162461bcd60e51b815260206004820152600a6024820152691c994b595b9d195c995960b21b604482015290519081900360640190fd5b6000805460ff191681556120e4611a91565b905080156121025761169f8160108111156120fb57fe5b6046612799565b6116b0836136db565b600181565b60008054819060ff16612157576040805162461bcd60e51b815260206004820152600a6024820152691c994b595b9d195c995960b21b604482015290519081900360640190fd5b6000805460ff19168155612169611a91565b905080156121945761218781601081111561218057fe5b6036612799565b9250600091506121a59050565b61219f333386613783565b92509250505b6000805460ff191660011790559092909150565b600d546000908190806121d457505060075460009150612264565b60006121de6125f3565b905060006121ea61544e565b60006121fb84600b54600c54613ad3565b93509050600081600381111561220d57fe5b14612222579550600094506122649350505050565b61222c8386613b1f565b92509050600081600381111561223e57fe5b14612253579550600094506122649350505050565b505160009550935061226492505050565b9091565b600554604080516317b9b84b60e31b81523060048201526001600160a01b03868116602483015285811660448301526064820185905291516000938493169163bdcdc25891608480830192602092919082900301818787803b1580156122cd57600080fd5b505af11580156122e1573d6000803e3d6000fd5b505050506040513d60208110156122f757600080fd5b5051905080156123165761230e6003604a83613bcf565b91505061140c565b836001600160a01b0316856001600160a01b0316141561233c5761230e6002604b612799565b60006001600160a01b03878116908716141561235b5750600019612383565b506001600160a01b038086166000908152600f60209081526040808320938a16835292905220545b6000806000806123938589613c35565b909450925060008460038111156123a657fe5b146123c4576123b76009604b612799565b965050505050505061140c565b6001600160a01b038a166000908152600e60205260409020546123e79089613c35565b909450915060008460038111156123fa57fe5b1461240b576123b76009604c612799565b6001600160a01b0389166000908152600e602052604090205461242e9089613c58565b9094509050600084600381111561244157fe5b14612452576123b76009604d612799565b6001600160a01b03808b166000908152600e6020526040808220859055918b1681522081905560001985146124aa576001600160a01b03808b166000908152600f60209081526040808320938f168352929052208390555b886001600160a01b03168a6001600160a01b031660008051602061578d8339815191528a6040518082815260200191505060405180910390a35060009a9950505050505050505050565b60008054819060ff1661253b576040805162461bcd60e51b815260206004820152600a6024820152691c994b595b9d195c995960b21b604482015290519081900360640190fd5b6000805460ff1916815561254d611a91565b905080156125785761256b81601081111561256457fe5b6035612799565b9250600091506125899050565b612583338686613783565b92509250505b6000805460ff1916600117905590939092509050565b60008060006125ac61544e565b6125b68686613c7e565b909250905060008260038111156125c957fe5b146125da57509150600090506125ec565b60006125e582613ce6565b9350935050505b9250929050565b601454604080516305f5d64360e11b815230600482015290516000926001600160a01b03169183918391630bebac86916024808301926020929190829003018186803b15801561264257600080fd5b505afa158015612656573d6000803e3d6000fd5b505050506040513d602081101561266c57600080fd5b50516040805163324abb3160e21b815290519192506b033b2e3c9fd0803ce8000000916126f6916001600160a01b0386169163c92aecc491600480820192602092909190829003018186803b1580156126c457600080fd5b505afa1580156126d8573d6000803e3d6000fd5b505050506040513d60208110156126ee57600080fd5b505183613cf5565b816126fd57fe5b049250505090565b6000805460ff1661274a576040805162461bcd60e51b815260206004820152600a6024820152691c994b595b9d195c995960b21b604482015290519081900360640190fd5b6000805460ff1916815561275c611a91565b9050801561277a5761169f81601081111561277357fe5b604e612799565b61278383613d50565b509150506000805460ff19166001179055919050565b60007f45b96fe442630264581b197e84bbada861235052c5a1aadfff9ea4e40a969aa08360108111156127c857fe5b8360508111156127d457fe5b604080519283526020830191909152600082820152519081900360600190a182601081111561157c57fe5b600082905060008290506000826001600160a01b031663f4b9fa756040518163ffffffff1660e01b8152600401602060405180830381600087803b15801561284657600080fd5b505af115801561285a573d6000803e3d6000fd5b505050506040513d602081101561287057600080fd5b5051604080516336569e7760e01b815290519192506000916001600160a01b038616916336569e7791600480830192602092919082900301818787803b1580156128b957600080fd5b505af11580156128cd573d6000803e3d6000fd5b505050506040513d60208110156128e357600080fd5b50516011549091506001600160a01b038381169116146129345760405162461bcd60e51b81526004018080602001828103825260228152602001806157316022913960400191505060405180910390fd5b601380546001600160a01b038089166001600160a01b0319928316179283905560148054898316908416179055601580548583169316929092179091556040805163095ea7b360e01b815292821660048401526000196024840152519084169163095ea7b391604480830192600092919082900301818387803b1580156129ba57600080fd5b505af11580156129ce573d6000803e3d6000fd5b5050601454604080516328ec8bf160e21b81526001600160a01b0392831660048201529051918516935063a3b22fc4925060248082019260009290919082900301818387803b158015612a2057600080fd5b505af1158015612a34573d6000803e3d6000fd5b5050601354604080516328ec8bf160e21b81526001600160a01b0392831660048201529051918516935063a3b22fc4925060248082019260009290919082900301818387803b158015612a8657600080fd5b505af1158015612a9a573d6000803e3d6000fd5b50505050826001600160a01b0316639f678cca6040518163ffffffff1660e01b8152600401602060405180830381600087803b158015612ad957600080fd5b505af1158015612aed573d6000803e3d6000fd5b505050506040513d6020811015612b0357600080fd5b50612b119050306000613e38565b50505050505050565b600354600090819061010090046001600160a01b03163314612b4257611fdd60016031612799565b612b4a612d82565b60095414612b5e57611fdd600a6033612799565b82612b676125f3565b1015612b7957611fdd600e6032612799565b600c54831115612b8f57611fdd60026034612799565b50600c5482810390811115612bd55760405162461bcd60e51b81526004018080602001828103825260248152602001806158c66024913960400191505060405180910390fd5b600c819055600354612bf59061010090046001600160a01b03168461415d565b600354604080516101009092046001600160a01b0316825260208201859052818101839052517f3bad0c59cf2f06e7314077049f48a93578cd16f5ef92329f1dab1420a99c177e916060908290030190a1600061157c565b6000805460ff16612c92576040805162461bcd60e51b815260206004820152600a6024820152691c994b595b9d195c995960b21b604482015290519081900360640190fd5b6000805460ff19168155612ca4611a91565b90508015612cc25761169f816010811115612cbb57fe5b6027612799565b6116b0336000856142c2565b6001600160a01b038116600090815260106020526040812080548291829182918291612d05575060009450849350612d7d92505050565b612d158160000154600a54614789565b90945092506000846003811115612d2857fe5b14612d3d575091935060009250612d7d915050565b612d4b8382600101546147c8565b90945091506000846003811115612d5e57fe5b14612d73575091935060009250612d7d915050565b5060009450925050505b915091565b4390565b600354600090819061010090046001600160a01b03163314612dae57611fdd60016042612799565b612db6612d82565b60095414612dca57611fdd600a6041612799565b600660009054906101000a90046001600160a01b03169050826001600160a01b0316632191f92a6040518163ffffffff1660e01b815260040160206040518083038186803b158015612e1b57600080fd5b505afa158015612e2f573d6000803e3d6000fd5b505050506040513d6020811015612e4557600080fd5b5051612e98576040805162461bcd60e51b815260206004820152601c60248201527f6d61726b6572206d6574686f642072657475726e65642066616c736500000000604482015290519081900360640190fd5b600680546001600160a01b0319166001600160a01b03858116918217909255604080519284168352602083019190915280517fedffc32e068c7c95dfd4bdfd5c4d939a084d6b11c4199eac8436ed234d72f9269281900390910190a1600061157c565b60008054819060ff16612f42576040805162461bcd60e51b815260206004820152600a6024820152691c994b595b9d195c995960b21b604482015290519081900360640190fd5b6000805460ff19168155612f54611a91565b90508015612f7257612187816010811115612f6b57fe5b601e612799565b61219f33856147f3565b600080612f87612d82565b60095490915080821415612fa0576000925050506110eb565b6000612faa6125f3565b600b54600c54600a54600654604080516315f2405360e01b815260048101879052602481018690526044810185905290519596509394929391926000926001600160a01b03909216916315f24053916064808301926020929190829003018186803b15801561301857600080fd5b505afa15801561302c573d6000803e3d6000fd5b505050506040513d602081101561304257600080fd5b5051905065048c273950008111156130a1576040805162461bcd60e51b815260206004820152601c60248201527f626f72726f772072617465206973206162737572646c79206869676800000000604482015290519081900360640190fd5b6000806130ae8989613c35565b909250905060008260038111156130c157fe5b14613113576040805162461bcd60e51b815260206004820152601f60248201527f636f756c64206e6f742063616c63756c61746520626c6f636b2064656c746100604482015290519081900360640190fd5b61311b61544e565b60008060008061313960405180602001604052808a81525087613c7e565b9097509450600087600381111561314c57fe5b1461317e576131696009600689600381111561316457fe5b613bcf565b9e5050505050505050505050505050506110eb565b613188858c61259f565b9097509350600087600381111561319b57fe5b146131b3576131696009600189600381111561316457fe5b6131bd848c613c58565b909750925060008760038111156131d057fe5b146131e8576131696009600489600381111561316457fe5b6132036040518060200160405280600854815250858c614bc3565b9097509150600087600381111561321657fe5b1461322e576131696009600589600381111561316457fe5b613239858a8b614bc3565b9097509050600087600381111561324c57fe5b14613264576131696009600389600381111561316457fe5b60098e9055600a819055600b839055600c829055604080518d8152602081018690528082018390526060810185905290517f4dec04e750ca11537cabcd8a9eab06494de08da3735bc8871cd41250e190bc049181900360800190a160009e50505050505050505050505050505090565b6005546040805163d02f735160e01b81523060048201526001600160a01b038781166024830152868116604483015285811660648301526084820185905291516000938493169163d02f73519160a480830192602092919082900301818787803b15801561334157600080fd5b505af1158015613355573d6000803e3d6000fd5b505050506040513d602081101561336b57600080fd5b5051905080156133825761230e6003601b83613bcf565b846001600160a01b0316846001600160a01b031614156133a85761230e6006601c612799565b6001600160a01b0384166000908152600e6020526040812054819081906133cf9087613c35565b909350915060008360038111156133e257fe5b14613405576133fa6009601a85600381111561316457fe5b94505050505061140c565b6001600160a01b0388166000908152600e60205260409020546134289087613c58565b9093509050600083600381111561343b57fe5b14613453576133fa6009601985600381111561316457fe5b6001600160a01b038088166000818152600e60209081526040808320879055938c168083529184902085905583518a81529351919360008051602061578d833981519152929081900390910190a360009998505050505050505050565b6000805460ff166134f5576040805162461bcd60e51b815260206004820152600a6024820152691c994b595b9d195c995960b21b604482015290519081900360640190fd5b6000805460ff19168155613507611a91565b905080156135255761169f81601081111561351e57fe5b6008612799565b6116b03384614c10565b6000805460ff16613574576040805162461bcd60e51b815260206004820152600a6024820152691c994b595b9d195c995960b21b604482015290519081900360640190fd5b6000805460ff19168155613586611a91565b9050801561359d5761169f816010811115612cbb57fe5b6116b0338460006142c2565b60008054819060ff166135f0576040805162461bcd60e51b815260206004820152600a6024820152691c994b595b9d195c995960b21b604482015290519081900360640190fd5b6000805460ff19168155613602611a91565b9050801561362d5761362081601081111561361957fe5b600f612799565b9250600091506136c49050565b836001600160a01b031663a6afed956040518163ffffffff1660e01b8152600401602060405180830381600087803b15801561366857600080fd5b505af115801561367c573d6000803e3d6000fd5b505050506040513d602081101561369257600080fd5b5051905080156136b2576136208160108111156136ab57fe5b6010612799565b6136be33878787614ea4565b92509250505b6000805460ff191660011790559094909350915050565b60035460009061010090046001600160a01b031633146137015761145460016047612799565b613709612d82565b6009541461371d57611454600a6048612799565b670de0b6b3a76400008211156137395761145460026049612799565b6008805490839055604080518281526020810185905281517faaa68312e2ea9d50e16af5068410ab56e1a1fd06037b1a35664812c30f821460929181900390910190a1600061157c565b60055460408051631200453160e11b81523060048201526001600160a01b0386811660248301528581166044830152606482018590529151600093849384939116916324008a629160848082019260209290919082900301818787803b1580156137ec57600080fd5b505af1158015613800573d6000803e3d6000fd5b505050506040513d602081101561381657600080fd5b50519050801561383a5761382d6003603883613bcf565b925060009150613acb9050565b613842612d82565b600954146138565761382d600a6039612799565b61385e6154df565b6001600160a01b038616600090815260106020526040902060010154606082015261388886612cce565b608083018190526020830182600381111561389f57fe5b60038111156138aa57fe5b90525060009050816020015160038111156138c157fe5b146138eb576138dd600960378360200151600381111561316457fe5b935060009250613acb915050565b600019851415613904576080810151604082015261390c565b604081018590525b61391a878260400151613e38565b60e08201819052608082015161392f91613c35565b60a083018190526020830182600381111561394657fe5b600381111561395157fe5b905250600090508160200151600381111561396857fe5b146139a45760405162461bcd60e51b815260040180806020018281038252603a815260200180615753603a913960400191505060405180910390fd5b6139b4600b548260e00151613c35565b60c08301819052602083018260038111156139cb57fe5b60038111156139d657fe5b90525060009050816020015160038111156139ed57fe5b14613a295760405162461bcd60e51b81526004018080602001828103825260318152602001806157ad6031913960400191505060405180910390fd5b60a080820180516001600160a01b03808a16600081815260106020908152604091829020948555600a5460019095019490945560c0870151600b81905560e088015195518251948f16855294840192909252828101949094526060820192909252608081019190915290517f1a2a22cb034d26d1854bdc6666a5b91fe25efbbb5dcad3b0355478d6f5c362a1929181900390910190a160e00151600093509150505b935093915050565b600080600080613ae38787613c58565b90925090506000826003811115613af657fe5b14613b075750915060009050613acb565b613b118186613c35565b935093505050935093915050565b6000613b2961544e565b600080613b3e86670de0b6b3a7640000614789565b90925090506000826003811115613b5157fe5b14613b70575060408051602081019091526000815290925090506125ec565b600080613b7d83886147c8565b90925090506000826003811115613b9057fe5b14613bb2575060408051602081019091526000815290945092506125ec915050565b604080516020810190915290815260009890975095505050505050565b60007f45b96fe442630264581b197e84bbada861235052c5a1aadfff9ea4e40a969aa0846010811115613bfe57fe5b846050811115613c0a57fe5b604080519283526020830191909152818101859052519081900360600190a183601081111561140c57fe5b600080838311613c4c5750600090508183036125ec565b506003905060006125ec565b600080838301848110613c70576000925090506125ec565b5060029150600090506125ec565b6000613c8861544e565b600080613c99866000015186614789565b90925090506000826003811115613cac57fe5b14613ccb575060408051602081019091526000815290925090506125ec565b60408051602081019091529081526000969095509350505050565b51670de0b6b3a7640000900490565b6000811580613d1057505080820282828281613d0d57fe5b04145b610d05576040805162461bcd60e51b815260206004820152600c60248201526b6d756c2d6f766572666c6f7760a01b604482015290519081900360640190fd5b600080600080613d5e612d82565b60095414613d7d57613d72600a604f612799565b93509150612d7d9050565b613d873386613e38565b905080600c54019150600c54821015613de7576040805162461bcd60e51b815260206004820181905260248201527f61646420726573657276657320756e6578706563746564206f766572666c6f77604482015290519081900360640190fd5b600c829055604080513381526020810183905280820184905290517fa91e67c5ea634cd43a12c5a482724b03de01e85ca68702a53d0c2f45cb7c1dc59181900360600190a160009350915050915091565b601154604080516323b872dd60e01b81526001600160a01b038581166004830152306024830152604482018590529151600093929092169182916323b872dd91606480830192602092919082900301818887803b158015613e9857600080fd5b505af1158015613eac573d6000803e3d6000fd5b505050506040513d6020811015613ec257600080fd5b5051613eff5760405162461bcd60e51b81526004018080602001828103825260248152602001806158116024913960400191505060405180910390fd5b601354601154601454601554604080516370a0823160e01b8152306004820181905291516001600160a01b03968716969586169594851694909316928692633b4da69f92909187916370a08231916024808301926020929190829003018186803b158015613f6c57600080fd5b505afa158015613f80573d6000803e3d6000fd5b505050506040513d6020811015613f9657600080fd5b5051604080516001600160e01b031960e086901b1681526001600160a01b039093166004840152602483019190915251604480830192600092919082900301818387803b158015613fe657600080fd5b505af1158015613ffa573d6000803e3d6000fd5b505060408051633612d9a360e11b81523060048201529051600093506001600160a01b0385169250636c25b34691602480820192602092909190829003018186803b15801561404857600080fd5b505afa15801561405c573d6000803e3d6000fd5b505050506040513d602081101561407257600080fd5b50516040805163324abb3160e21b815290519192506000916001600160a01b0386169163c92aecc4916004808301926020929190829003018186803b1580156140ba57600080fd5b505afa1580156140ce573d6000803e3d6000fd5b505050506040513d60208110156140e457600080fd5b505182816140ee57fe5b049050836001600160a01b031663049878f3826040518263ffffffff1660e01b815260040180828152602001915050600060405180830381600087803b15801561413757600080fd5b505af115801561414b573d6000803e3d6000fd5b509a9c9b505050505050505050505050565b6013546014546040805163324abb3160e21b815290516001600160a01b03938416939092169160009161420291849163c92aecc4916004808301926020929190829003018186803b1580156141b157600080fd5b505afa1580156141c5573d6000803e3d6000fd5b505050506040513d60208110156141db57600080fd5b50516141f3866b033b2e3c9fd0803ce8000000613cf5565b816141fa57fe5b046001615396565b9050816001600160a01b0316637f8661a1826040518263ffffffff1660e01b815260040180828152602001915050600060405180830381600087803b15801561424a57600080fd5b505af115801561425e573d6000803e3d6000fd5b50505050826001600160a01b031663ef693bed86866040518363ffffffff1660e01b815260040180836001600160a01b03166001600160a01b0316815260200182815260200192505050600060405180830381600087803b158015610fa057600080fd5b60008215806142cf575081155b61430a5760405162461bcd60e51b81526004018080602001828103825260348152602001806158926034913960400191505060405180910390fd5b614312615525565b61431a6121b9565b604083018190526020830182600381111561433157fe5b600381111561433c57fe5b905250600090508160200151600381111561435357fe5b146143775761436f6009602b8360200151600381111561316457fe5b91505061157c565b83156143f857606081018490526040805160208101825290820151815261439e908561259f565b60808301819052602083018260038111156143b557fe5b60038111156143c057fe5b90525060009050816020015160038111156143d757fe5b146143f35761436f600960298360200151600381111561316457fe5b614471565b61441483604051806020016040528084604001518152506153dd565b606083018190526020830182600381111561442b57fe5b600381111561443657fe5b905250600090508160200151600381111561444d57fe5b146144695761436f6009602a8360200151600381111561316457fe5b608081018390525b60055460608201516040805163eabe7d9160e01b81523060048201526001600160a01b03898116602483015260448201939093529051600093929092169163eabe7d919160648082019260209290919082900301818787803b1580156144d657600080fd5b505af11580156144ea573d6000803e3d6000fd5b505050506040513d602081101561450057600080fd5b505190508015614520576145176003602883613bcf565b9250505061157c565b614528612d82565b6009541461453c57614517600a602c612799565b61454c600d548360600151613c35565b60a084018190526020840182600381111561456357fe5b600381111561456e57fe5b905250600090508260200151600381111561458557fe5b146145a1576145176009602e8460200151600381111561316457fe5b6001600160a01b0386166000908152600e602052604090205460608301516145c99190613c35565b60c08401819052602084018260038111156145e057fe5b60038111156145eb57fe5b905250600090508260200151600381111561460257fe5b1461461e576145176009602d8460200151600381111561316457fe5b816080015161462b6125f3565b101561463d57614517600e602f612799565b61464b86836080015161415d565b60a0820151600d5560c08201516001600160a01b0387166000818152600e602090815260409182902093909355606085015181519081529051309360008051602061578d833981519152928290030190a36080820151606080840151604080516001600160a01b038b168152602081019490945283810191909152517fe5b754fb1abb7f01b499791d0b820ae3b6af3424ac1c59768edb53f4ec31a9299281900390910190a160055460808301516060840151604080516351dff98960e01b81523060048201526001600160a01b038b81166024830152604482019490945260648101929092525191909216916351dff98991608480830192600092919082900301818387803b15801561475e57600080fd5b505af1158015614772573d6000803e3d6000fd5b506000925061477f915050565b9695505050505050565b6000808361479c575060009050806125ec565b838302838582816147a957fe5b04146147bd575060029150600090506125ec565b6000925090506125ec565b600080826147dc57506001905060006125ec565b60008385816147e757fe5b04915091509250929050565b60055460408051634ef4c3e160e01b81523060048201526001600160a01b03858116602483015260448201859052915160009384938493911691634ef4c3e19160648082019260209290919082900301818787803b15801561485457600080fd5b505af1158015614868573d6000803e3d6000fd5b505050506040513d602081101561487e57600080fd5b5051905080156148a2576148956003601f83613bcf565b9250600091506125ec9050565b6148aa612d82565b600954146148be57614895600a6022612799565b6148c6615525565b6148ce6121b9565b60408301819052602083018260038111156148e557fe5b60038111156148f057fe5b905250600090508160200151600381111561490757fe5b1461493157614923600960218360200151600381111561316457fe5b9350600092506125ec915050565b61493b8686613e38565b60c082018190526040805160208101825290830151815261495c91906153dd565b606083018190526020830182600381111561497357fe5b600381111561497e57fe5b905250600090508160200151600381111561499557fe5b146149e7576040805162461bcd60e51b815260206004820181905260248201527f4d494e545f45584348414e47455f43414c43554c4154494f4e5f4641494c4544604482015290519081900360640190fd5b6149f7600d548260600151613c58565b6080830181905260208301826003811115614a0e57fe5b6003811115614a1957fe5b9052506000905081602001516003811115614a3057fe5b14614a6c5760405162461bcd60e51b815260040180806020018281038252602881526020018061586a6028913960400191505060405180910390fd5b6001600160a01b0386166000908152600e60205260409020546060820151614a949190613c58565b60a0830181905260208301826003811115614aab57fe5b6003811115614ab657fe5b9052506000905081602001516003811115614acd57fe5b14614b095760405162461bcd60e51b815260040180806020018281038252602b8152602001806156cf602b913960400191505060405180910390fd5b6080810151600d5560a08101516001600160a01b0387166000818152600e60209081526040918290209390935560c084015160608086015183519485529484019190915282820193909352517f4c209b5fc8ad50758f13e2e1088ba56a560dff690a1c6fef26394f4c03821c4f929181900390910190a1606081015160408051918252516001600160a01b03881691309160008051602061578d8339815191529181900360200190a360c001516000969095509350505050565b6000806000614bd061544e565b614bda8787613c7e565b90925090506000826003811115614bed57fe5b14614bfe5750915060009050613acb565b613b11614c0a82613ce6565b86613c58565b6005546040805163368f515360e21b81523060048201526001600160a01b0385811660248301526044820185905291516000938493169163da3d454c91606480830192602092919082900301818787803b158015614c6d57600080fd5b505af1158015614c81573d6000803e3d6000fd5b505050506040513d6020811015614c9757600080fd5b505190508015614cb657614cae6003600e83613bcf565b915050610d05565b614cbe612d82565b60095414614cd157614cae600a80612799565b82614cda6125f3565b1015614cec57614cae600e6009612799565b614cf4615563565b614cfd85612cce565b6020830181905282826003811115614d1157fe5b6003811115614d1c57fe5b9052506000905081516003811115614d3057fe5b14614d5557614d4c600960078360000151600381111561316457fe5b92505050610d05565b614d63816020015185613c58565b6040830181905282826003811115614d7757fe5b6003811115614d8257fe5b9052506000905081516003811115614d9657fe5b14614db257614d4c6009600c8360000151600381111561316457fe5b614dbe600b5485613c58565b6060830181905282826003811115614dd257fe5b6003811115614ddd57fe5b9052506000905081516003811115614df157fe5b14614e0d57614d4c6009600b8360000151600381111561316457fe5b614e17858561415d565b604080820180516001600160a01b03881660008181526010602090815290859020928355600a54600190930192909255606080860151600b81905593518551928352928201899052818501929092529081019190915290517f13ed6866d4e1ee6da46f845c46d7e54120883d75c5ea9a2dacc1c4ca8984ab809181900360800190a1600095945050505050565b60055460408051632fe3f38f60e11b81523060048201526001600160a01b0384811660248301528781166044830152868116606483015260848201869052915160009384938493911691635fc7e71e9160a48082019260209290919082900301818787803b158015614f1557600080fd5b505af1158015614f29573d6000803e3d6000fd5b505050506040513d6020811015614f3f57600080fd5b505190508015614f6357614f566003601283613bcf565b92506000915061538d9050565b614f6b612d82565b60095414614f7f57614f56600a6016612799565b614f87612d82565b846001600160a01b0316636c540baf6040518163ffffffff1660e01b815260040160206040518083038186803b158015614fc057600080fd5b505afa158015614fd4573d6000803e3d6000fd5b505050506040513d6020811015614fea57600080fd5b505114614ffd57614f56600a6011612799565b866001600160a01b0316866001600160a01b0316141561502357614f5660066017612799565b8461503457614f5660076015612799565b60001985141561504a57614f5660076014612799565b600080615058898989613783565b909250905081156150885761507982601081111561507257fe5b6018612799565b94506000935061538d92505050565b6005546040805163c488847b60e01b81523060048201526001600160a01b038981166024830152604482018590528251600094859492169263c488847b926064808301939192829003018186803b1580156150e257600080fd5b505afa1580156150f6573d6000803e3d6000fd5b505050506040513d604081101561510c57600080fd5b508051602090910151909250905081156151575760405162461bcd60e51b81526004018080602001828103825260338152602001806157de6033913960400191505060405180910390fd5b80886001600160a01b03166370a082318c6040518263ffffffff1660e01b815260040180826001600160a01b03166001600160a01b0316815260200191505060206040518083038186803b1580156151ae57600080fd5b505afa1580156151c2573d6000803e3d6000fd5b505050506040513d60208110156151d857600080fd5b5051101561522d576040805162461bcd60e51b815260206004820152601860248201527f4c49515549444154455f5345495a455f544f4f5f4d5543480000000000000000604482015290519081900360640190fd5b60006001600160a01b0389163014156152535761524c308d8d856132d4565b90506152dd565b6040805163b2a02ff160e01b81526001600160a01b038e811660048301528d81166024830152604482018590529151918b169163b2a02ff1916064808201926020929091908290030181600087803b1580156152ae57600080fd5b505af11580156152c2573d6000803e3d6000fd5b505050506040513d60208110156152d857600080fd5b505190505b8015615327576040805162461bcd60e51b81526020600482015260146024820152731d1bdad95b881cd95a5e9d5c994819985a5b195960621b604482015290519081900360640190fd5b604080516001600160a01b03808f168252808e1660208301528183018790528b1660608201526080810184905290517f298637f684da70674f26509b10f07ec2fbc77a335ab1e7d6215a4b2484d8bb529181900360a00190a16000975092955050505050505b94509492505050565b80820182811015610d05576040805162461bcd60e51b815260206004820152600c60248201526b6164642d6f766572666c6f7760a01b604482015290519081900360640190fd5b60008060006153ea61544e565b6125b6868660006153f961544e565b60008061540e670de0b6b3a764000087614789565b9092509050600082600381111561542157fe5b14615440575060408051602081019091526000815290925090506125ec565b6125e5818660000151613b1f565b6040518060200160405280600081525090565b828054600181600116156101000203166002900490600052602060002090601f016020900481019282601f106154a257805160ff19168380011785556154cf565b828001600101855582156154cf579182015b828111156154cf5782518255916020019190600101906154b4565b506154db92915061558c565b5090565b6040805161010081019091528060008152602001600081526020016000815260200160008152602001600081526020016000815260200160008152602001600081525090565b6040805160e0810190915280600081526020016000815260200160008152602001600081526020016000815260200160008152602001600081525090565b604080516080810190915280600081526020016000815260200160008152602001600081525090565b6110eb91905b808211156154db576000815560010161559256fe6f6e6c792061646d696e206d617920696e697469616c697a6520746865206d61726b65746d61726b6574206d6179206f6e6c7920626520696e697469616c697a6564206f6e63654345726332303a3a7377656570546f6b656e3a2063616e206e6f7420737765657020756e6465726c79696e6720746f6b656e6f6e6c79207468652061646d696e206d617920696e697469616c697a652074686520696d706c656d656e746174696f6e696e697469616c2065786368616e67652072617465206d7573742062652067726561746572207468616e207a65726f2e73657474696e6720696e7465726573742072617465206d6f64656c206661696c65646f6e6c79207468652061646d696e206d6179206162616e646f6e2074686520696d706c656d656e746174696f6e4d494e545f4e45575f4143434f554e545f42414c414e43455f43414c43554c4154494f4e5f4641494c4544626f72726f7742616c616e636553746f7265643a20626f72726f7742616c616e636553746f726564496e7465726e616c206661696c6564444149206d757374206265207468652073616d6520617320756e6465726c79696e6752455041595f424f52524f575f4e45575f4143434f554e545f424f52524f575f42414c414e43455f43414c43554c4154494f4e5f4641494c4544ddf252ad1be2c89b69c2b068fc378daa952ba7f163c4a11628f55a4df523b3ef52455041595f424f52524f575f4e45575f544f54414c5f42414c414e43455f43414c43554c4154494f4e5f4641494c45444c49515549444154455f434f4d5054524f4c4c45525f43414c43554c4154455f414d4f554e545f5345495a455f4641494c4544756e6578706563746564204549502d3230207472616e7366657220696e2072657475726e65786368616e67655261746553746f7265643a2065786368616e67655261746553746f726564496e7465726e616c206661696c65644d494e545f4e45575f544f54414c5f535550504c595f43414c43554c4154494f4e5f4641494c45446f6e65206f662072656465656d546f6b656e73496e206f722072656465656d416d6f756e74496e206d757374206265207a65726f72656475636520726573657276657320756e657870656374656420756e646572666c6f77a265627a7a72315820cfdd969d7339a887ca022148c8ae97608e6443eb57892ce5312bee8f742dbd7764736f6c63430005100032",
  "linkReferences": {},
  "deployedLinkReferences": {}
}