{
  "_format": "hh-sol-artifact-1",
  "contractName": "PiggyBreeder",
  "sourceName": "contracts/Lend/farm/PiggyBreeder.sol",
  "abi": [
    {
      "inputs": [
        {
          "internalType": "contract WePiggyToken",
          "name": "_piggy",
          "type": "address"
        },
        {
          "internalType": "address",
          "name": "_devAddr",
          "type": "address"
        },
        {
          "internalType": "uint256",
          "name": "_piggyPerBlock",
          "type": "uint256"
        },
        {
          "internalType": "uint256",
          "name": "_startBlock",
          "type": "uint256"
        },
        {
          "internalType": "uint256",
          "name": "_enableClaimBlock",
          "type": "uint256"
        },
        {
          "internalType": "uint256",
          "name": "_reduceIntervalBlock",
          "type": "uint256"
        },
        {
          "internalType": "uint256",
          "name": "_reduceRate",
          "type": "uint256"
        },
        {
          "internalType": "uint256",
          "name": "_devMiningRate",
          "type": "uint256"
        }
      ],
      "stateMutability": "nonpayable",
      "type": "constructor"
    },
    {
      "anonymous": false,
      "inputs": [
        {
          "indexed": true,
          "internalType": "address",
          "name": "user",
          "type": "address"
        },
        {
          "indexed": true,
          "internalType": "uint256",
          "name": "pid",
          "type": "uint256"
        }
      ],
      "name": "Claim",
      "type": "event"
    },
    {
      "anonymous": false,
      "inputs": [
        {
          "indexed": true,
          "internalType": "address",
          "name": "user",
          "type": "address"
        },
        {
          "indexed": true,
          "internalType": "uint256",
          "name": "pid",
          "type": "uint256"
        },
        {
          "indexed": false,
          "internalType": "uint256",
          "name": "amount",
          "type": "uint256"
        }
      ],
      "name": "EmergencyWithdraw",
      "type": "event"
    },
    {
      "anonymous": false,
      "inputs": [
        {
          "indexed": true,
          "internalType": "address",
          "name": "user",
          "type": "address"
        },
        {
          "indexed": false,
          "internalType": "uint256",
          "name": "pid",
          "type": "uint256"
        },
        {
          "indexed": false,
          "internalType": "uint256",
          "name": "targetPid",
          "type": "uint256"
        },
        {
          "indexed": false,
          "internalType": "uint256",
          "name": "amount",
          "type": "uint256"
        }
      ],
      "name": "Migrate",
      "type": "event"
    },
    {
      "anonymous": false,
      "inputs": [
        {
          "indexed": true,
          "internalType": "address",
          "name": "previousOwner",
          "type": "address"
        },
        {
          "indexed": true,
          "internalType": "address",
          "name": "newOwner",
          "type": "address"
        }
      ],
      "name": "OwnershipTransferred",
      "type": "event"
    },
    {
      "anonymous": false,
      "inputs": [
        {
          "indexed": true,
          "internalType": "address",
          "name": "user",
          "type": "address"
        },
        {
          "indexed": false,
          "internalType": "uint256",
          "name": "pid",
          "type": "uint256"
        },
        {
          "indexed": false,
          "internalType": "uint256",
          "name": "amount",
          "type": "uint256"
        }
      ],
      "name": "ReplaceMigrate",
      "type": "event"
    },
    {
      "anonymous": false,
      "inputs": [
        {
          "indexed": true,
          "internalType": "address",
          "name": "user",
          "type": "address"
        },
        {
          "indexed": true,
          "internalType": "uint256",
          "name": "pid",
          "type": "uint256"
        },
        {
          "indexed": false,
          "internalType": "uint256",
          "name": "amount",
          "type": "uint256"
        }
      ],
      "name": "Stake",
      "type": "event"
    },
    {
      "anonymous": false,
      "inputs": [
        {
          "indexed": true,
          "internalType": "address",
          "name": "user",
          "type": "address"
        },
        {
          "indexed": true,
          "internalType": "uint256",
          "name": "pid",
          "type": "uint256"
        },
        {
          "indexed": false,
          "internalType": "uint256",
          "name": "amount",
          "type": "uint256"
        }
      ],
      "name": "UnStake",
      "type": "event"
    },
    {
      "inputs": [
        {
          "internalType": "uint256",
          "name": "_allocPoint",
          "type": "uint256"
        },
        {
          "internalType": "contract IERC20",
          "name": "_lpToken",
          "type": "address"
        },
        {
          "internalType": "contract IMigrator",
          "name": "_migrator",
          "type": "address"
        },
        {
          "internalType": "bool",
          "name": "_withUpdate",
          "type": "bool"
        }
      ],
      "name": "add",
      "outputs": [],
      "stateMutability": "nonpayable",
      "type": "function"
    },
    {
      "inputs": [
        {
          "internalType": "address",
          "name": "_user",
          "type": "address"
        }
      ],
      "name": "allPendingPiggy",
      "outputs": [
        {
          "internalType": "uint256",
          "name": "",
          "type": "uint256"
        }
      ],
      "stateMutability": "view",
      "type": "function"
    },
    {
      "inputs": [
        {
          "internalType": "uint256",
          "name": "_pid",
          "type": "uint256"
        }
      ],
      "name": "claim",
      "outputs": [],
      "stateMutability": "nonpayable",
      "type": "function"
    },
    {
      "inputs": [],
      "name": "devAddr",
      "outputs": [
        {
          "internalType": "address",
          "name": "",
          "type": "address"
        }
      ],
      "stateMutability": "view",
      "type": "function"
    },
    {
      "inputs": [],
      "name": "devMiningRate",
      "outputs": [
        {
          "internalType": "uint256",
          "name": "",
          "type": "uint256"
        }
      ],
      "stateMutability": "view",
      "type": "function"
    },
    {
      "inputs": [
        {
          "internalType": "uint256",
          "name": "_pid",
          "type": "uint256"
        }
      ],
      "name": "emergencyWithdraw",
      "outputs": [],
      "stateMutability": "nonpayable",
      "type": "function"
    },
    {
      "inputs": [],
      "name": "enableClaimBlock",
      "outputs": [
        {
          "internalType": "uint256",
          "name": "",
          "type": "uint256"
        }
      ],
      "stateMutability": "view",
      "type": "function"
    },
    {
      "inputs": [
        {
          "internalType": "uint256",
          "name": "_from",
          "type": "uint256"
        },
        {
          "internalType": "uint256",
          "name": "_to",
          "type": "uint256"
        }
      ],
      "name": "getMultiplier",
      "outputs": [
        {
          "internalType": "uint256",
          "name": "",
          "type": "uint256"
        }
      ],
      "stateMutability": "pure",
      "type": "function"
    },
    {
      "inputs": [
        {
          "internalType": "uint256",
          "name": "_power",
          "type": "uint256"
        }
      ],
      "name": "getPiggyPerBlock",
      "outputs": [
        {
          "internalType": "uint256",
          "name": "",
          "type": "uint256"
        }
      ],
      "stateMutability": "view",
      "type": "function"
    },
    {
      "inputs": [],
      "name": "massUpdatePools",
      "outputs": [],
      "stateMutability": "nonpayable",
      "type": "function"
    },
    {
      "inputs": [
        {
          "internalType": "uint256",
          "name": "_pid",
          "type": "uint256"
        },
        {
          "internalType": "uint256",
          "name": "_targetPid",
          "type": "uint256"
        },
        {
          "internalType": "uint256",
          "name": "begin",
          "type": "uint256"
        }
      ],
      "name": "migrate",
      "outputs": [],
      "stateMutability": "nonpayable",
      "type": "function"
    },
    {
      "inputs": [],
      "name": "owner",
      "outputs": [
        {
          "internalType": "address",
          "name": "",
          "type": "address"
        }
      ],
      "stateMutability": "view",
      "type": "function"
    },
    {
      "inputs": [
        {
          "internalType": "uint256",
          "name": "_pid",
          "type": "uint256"
        },
        {
          "internalType": "address",
          "name": "_user",
          "type": "address"
        }
      ],
      "name": "pendingPiggy",
      "outputs": [
        {
          "internalType": "uint256",
          "name": "",
          "type": "uint256"
        }
      ],
      "stateMutability": "view",
      "type": "function"
    },
    {
      "inputs": [],
      "name": "piggy",
      "outputs": [
        {
          "internalType": "contract WePiggyToken",
          "name": "",
          "type": "address"
        }
      ],
      "stateMutability": "view",
      "type": "function"
    },
    {
      "inputs": [],
      "name": "piggyPerBlock",
      "outputs": [
        {
          "internalType": "uint256",
          "name": "",
          "type": "uint256"
        }
      ],
      "stateMutability": "view",
      "type": "function"
    },
    {
      "inputs": [
        {
          "internalType": "uint256",
          "name": "",
          "type": "uint256"
        }
      ],
      "name": "poolInfo",
      "outputs": [
        {
          "internalType": "contract IERC20",
          "name": "lpToken",
          "type": "address"
        },
        {
          "internalType": "uint256",
          "name": "allocPoint",
          "type": "uint256"
        },
        {
          "internalType": "uint256",
          "name": "lastRewardBlock",
          "type": "uint256"
        },
        {
          "internalType": "uint256",
          "name": "accPiggyPerShare",
          "type": "uint256"
        },
        {
          "internalType": "uint256",
          "name": "totalDeposit",
          "type": "uint256"
        },
        {
          "internalType": "contract IMigrator",
          "name": "migrator",
          "type": "address"
        }
      ],
      "stateMutability": "view",
      "type": "function"
    },
    {
      "inputs": [],
      "name": "poolLength",
      "outputs": [
        {
          "internalType": "uint256",
          "name": "",
          "type": "uint256"
        }
      ],
      "stateMutability": "view",
      "type": "function"
    },
    {
      "inputs": [],
      "name": "reduceIntervalBlock",
      "outputs": [
        {
          "internalType": "uint256",
          "name": "",
          "type": "uint256"
        }
      ],
      "stateMutability": "view",
      "type": "function"
    },
    {
      "inputs": [],
      "name": "reduceRate",
      "outputs": [
        {
          "internalType": "uint256",
          "name": "",
          "type": "uint256"
        }
      ],
      "stateMutability": "view",
      "type": "function"
    },
    {
      "inputs": [],
      "name": "renounceOwnership",
      "outputs": [],
      "stateMutability": "nonpayable",
      "type": "function"
    },
    {
      "inputs": [
        {
          "internalType": "uint256",
          "name": "_pid",
          "type": "uint256"
        }
      ],
      "name": "replaceMigrate",
      "outputs": [],
      "stateMutability": "nonpayable",
      "type": "function"
    },
    {
      "inputs": [
        {
          "internalType": "uint256",
          "name": "_pid",
          "type": "uint256"
        },
        {
          "internalType": "uint256",
          "name": "_allocPoint",
          "type": "uint256"
        },
        {
          "internalType": "bool",
          "name": "_withUpdate",
          "type": "bool"
        }
      ],
      "name": "setAllocPoint",
      "outputs": [],
      "stateMutability": "nonpayable",
      "type": "function"
    },
    {
      "inputs": [
        {
          "internalType": "address",
          "name": "_devAddr",
          "type": "address"
        }
      ],
      "name": "setDevAddr",
      "outputs": [],
      "stateMutability": "nonpayable",
      "type": "function"
    },
    {
      "inputs": [
        {
          "internalType": "uint256",
          "name": "_devMiningRate",
          "type": "uint256"
        }
      ],
      "name": "setDevMiningRate",
      "outputs": [],
      "stateMutability": "nonpayable",
      "type": "function"
    },
    {
      "inputs": [
        {
          "internalType": "uint256",
          "name": "_enableClaimBlock",
          "type": "uint256"
        }
      ],
      "name": "setEnableClaimBlock",
      "outputs": [],
      "stateMutability": "nonpayable",
      "type": "function"
    },
    {
      "inputs": [
        {
          "internalType": "uint256",
          "name": "_pid",
          "type": "uint256"
        },
        {
          "internalType": "contract IMigrator",
          "name": "_migrator",
          "type": "address"
        }
      ],
      "name": "setMigrator",
      "outputs": [],
      "stateMutability": "nonpayable",
      "type": "function"
    },
    {
      "inputs": [
        {
          "internalType": "uint256",
          "name": "_reduceIntervalBlock",
          "type": "uint256"
        },
        {
          "internalType": "bool",
          "name": "_withUpdate",
          "type": "bool"
        }
      ],
      "name": "setReduceIntervalBlock",
      "outputs": [],
      "stateMutability": "nonpayable",
      "type": "function"
    },
    {
      "inputs": [
        {
          "internalType": "uint256",
          "name": "_reduceRate",
          "type": "uint256"
        },
        {
          "internalType": "bool",
          "name": "_withUpdate",
          "type": "bool"
        }
      ],
      "name": "setReduceRate",
      "outputs": [],
      "stateMutability": "nonpayable",
      "type": "function"
    },
    {
      "inputs": [
        {
          "internalType": "uint256",
          "name": "_pid",
          "type": "uint256"
        },
        {
          "internalType": "uint256",
          "name": "_amount",
          "type": "uint256"
        }
      ],
      "name": "stake",
      "outputs": [],
      "stateMutability": "nonpayable",
      "type": "function"
    },
    {
      "inputs": [],
      "name": "startBlock",
      "outputs": [
        {
          "internalType": "uint256",
          "name": "",
          "type": "uint256"
        }
      ],
      "stateMutability": "view",
      "type": "function"
    },
    {
      "inputs": [],
      "name": "totalAllocPoint",
      "outputs": [
        {
          "internalType": "uint256",
          "name": "",
          "type": "uint256"
        }
      ],
      "stateMutability": "view",
      "type": "function"
    },
    {
      "inputs": [
        {
          "internalType": "address",
          "name": "newOwner",
          "type": "address"
        }
      ],
      "name": "transferOwnership",
      "outputs": [],
      "stateMutability": "nonpayable",
      "type": "function"
    },
    {
      "inputs": [
        {
          "internalType": "uint256",
          "name": "_pid",
          "type": "uint256"
        },
        {
          "internalType": "uint256",
          "name": "_amount",
          "type": "uint256"
        }
      ],
      "name": "unStake",
      "outputs": [],
      "stateMutability": "nonpayable",
      "type": "function"
    },
    {
      "inputs": [
        {
          "internalType": "uint256",
          "name": "_pid",
          "type": "uint256"
        }
      ],
      "name": "updatePool",
      "outputs": [],
      "stateMutability": "nonpayable",
      "type": "function"
    },
    {
      "inputs": [
        {
          "internalType": "uint256",
          "name": "",
          "type": "uint256"
        },
        {
          "internalType": "uint256",
          "name": "",
          "type": "uint256"
        }
      ],
      "name": "userAddresses",
      "outputs": [
        {
          "internalType": "address",
          "name": "",
          "type": "address"
        }
      ],
      "stateMutability": "view",
      "type": "function"
    },
    {
      "inputs": [
        {
          "internalType": "uint256",
          "name": "",
          "type": "uint256"
        },
        {
          "internalType": "address",
          "name": "",
          "type": "address"
        }
      ],
      "name": "userInfo",
      "outputs": [
        {
          "internalType": "uint256",
          "name": "amount",
          "type": "uint256"
        },
        {
          "internalType": "uint256",
          "name": "rewardDebt",
          "type": "uint256"
        },
        {
          "internalType": "uint256",
          "name": "pendingReward",
          "type": "uint256"
        },
        {
          "internalType": "bool",
          "name": "unStakeBeforeEnableClaim",
          "type": "bool"
        }
      ],
      "stateMutability": "view",
      "type": "function"
    },
    {
      "inputs": [
        {
          "internalType": "uint256",
          "name": "_pid",
          "type": "uint256"
        }
      ],
      "name": "usersLength",
      "outputs": [
        {
          "internalType": "uint256",
          "name": "",
          "type": "uint256"
        }
      ],
      "stateMutability": "view",
      "type": "function"
    }
  ],
  "bytecode": "0x608060405234801561001057600080fd5b5060405162002be638038062002be6833981810160405261010081101561003657600080fd5b508051602082015160408301516060840151608085015160a086015160c087015160e0909701519596949593949293919290916000610073610115565b600080546001600160a01b0319166001600160a01b0383169081178255604051929350917f8be0079c531659141344cd1fd0a4f28419497f9722a3daafe3b4186f6b6457e0908290a350600180546001600160a01b03998a166001600160a01b03199182161790915560028054989099169716969096179096556004939093556005919091556007919091556008929092556003556006556000600c55610119565b3390565b612abd80620001296000396000f3fe608060405234801561001057600080fd5b50600436106102275760003560e01c8063565e77d511610130578063a0f99203116100b8578063c71b4b431161007c578063c71b4b43146105e1578063da09c72c1461061f578063e86e282f14610627578063f2fde38b1461064d578063f4844dff1461067357610227565b8063a0f992031461055d578063ae6d858c14610588578063af8feca8146105b4578063b5e48cf9146105d1578063b5fdf28e146105d957610227565b80637b0472f0116100ff5780637b0472f01461049257806388c95018146104b55780638da5cb5b146104de5780638dbb1e3a146104e657806393f1a40b1461050957610227565b8063565e77d51461043f578063630b5ba11461045c5780636ebb64a214610464578063715018a61461048a57610227565b8063379607f5116101b357806348cd4cb11161018257806348cd4cb114610399578063512001b1146103a157806351eb05a6146103c65780635312ea8e146103e357806355513d1f1461040057610227565b8063379607f5146103325780633c5868981461034f5780633ce7f63d146103745780634404f9071461037c57610227565b8063213832d4116101fa578063213832d4146102b4578063275a91de146102d157806330cd8eda146102ff57806334056a5314610307578063372caeb81461030f57610227565b8063081e3eda1461022c5780631526fe2714610246578063167ff50b146102a457806317caf6f1146102ac575b600080fd5b610234610690565b60408051918252519081900360200190f35b6102636004803603602081101561025c57600080fd5b5035610696565b604080516001600160a01b0397881681526020810196909652858101949094526060850192909252608084015290921660a082015290519081900360c00190f35b6102346106e6565b6102346106ec565b610234600480360360208110156102ca57600080fd5b50356106f2565b6102fd600480360360408110156102e757600080fd5b50803590602001356001600160a01b0316610744565b005b6102346107ed565b6102346107f3565b6102fd6004803603604081101561032557600080fd5b50803590602001356107f9565b6102fd6004803603602081101561034857600080fd5b50356109b8565b6102fd6004803603604081101561036557600080fd5b50803590602001351515610aff565b610234610b75565b6102fd6004803603602081101561039257600080fd5b5035610b7b565b610234610e85565b6102fd600480360360408110156103b757600080fd5b50803590602001351515610e8b565b6102fd600480360360208110156103dc57600080fd5b5035610f01565b6102fd600480360360208110156103f957600080fd5b5035611153565b6104236004803603604081101561041657600080fd5b5080359060200135611203565b604080516001600160a01b039092168252519081900360200190f35b6102346004803603602081101561045557600080fd5b5035611238565b6102fd61124a565b6102fd6004803603602081101561047a57600080fd5b50356001600160a01b031661126d565b6102fd6112f1565b6102fd600480360360408110156104a857600080fd5b508035906020013561139d565b6102fd600480360360608110156104cb57600080fd5b5080359060208101359060400135611534565b610423611a02565b610234600480360360408110156104fc57600080fd5b5080359060200135611a11565b6105356004803603604081101561051f57600080fd5b50803590602001356001600160a01b0316611a26565b6040805194855260208501939093528383019190915215156060830152519081900360800190f35b6102fd6004803603606081101561057357600080fd5b50803590602081013590604001351515611a5b565b6102346004803603604081101561059e57600080fd5b50803590602001356001600160a01b0316611b36565b6102fd600480360360208110156105ca57600080fd5b5035611b42565b610234611ba9565b610423611baf565b6102fd600480360360808110156105f757600080fd5b508035906001600160a01b036020820135811691604081013590911690606001351515611bbe565b610423611daf565b6102346004803603602081101561063d57600080fd5b50356001600160a01b0316611dbe565b6102fd6004803603602081101561066357600080fd5b50356001600160a01b0316611deb565b6102fd6004803603602081101561068957600080fd5b5035611eed565b60095490565b600981815481106106a357fe5b60009182526020909120600690910201805460018201546002830154600384015460048501546005909501546001600160a01b0394851696509294919390921686565b60035481565b600c5481565b600081610702575060045461073f565b60045460005b8381101561073b576107316103e861072b60085485611f5490919063ffffffff16565b90611fad565b9150600101610708565b5090505b919050565b61074c612014565b6001600160a01b031661075d611a02565b6001600160a01b0316146107a6576040805162461bcd60e51b81526020600482018190526024820152600080516020612a08833981519152604482015290519081900360640190fd5b80600983815481106107b457fe5b906000526020600020906006020160050160006101000a8154816001600160a01b0302191690836001600160a01b031602179055505050565b60075481565b60045481565b60006009838154811061080857fe5b60009182526020808320868452600a82526040808520338652909252922080546006909202909201925083111561087a576040805162461bcd60e51b81526020600482015260116024820152701d5b94dd185ad94e881b9bdd0819dbdbd9607a1b604482015290519081900360640190fd5b61088384610f01565b60006108b782600101546108b164e8d4a5100061072b87600301548760000154611f5490919063ffffffff16565b90612018565b9050801561091b5743600654116108f7576108d23382612075565b6002820154156108f2576108ea338360020154612075565b600060028301555b61091b565b60028201546109069082612206565b600283015560038201805460ff191660011790555b831561095a578254610937906001600160a01b03163386612260565b81546109439085612018565b825560048301546109549085612018565b60048401555b600383015482546109759164e8d4a510009161072b91611f54565b6001830155604080518581529051869133917f54a9763035584fc4fcad1bc4e0e7a83f93e016f50ae32bd527530a77257393ee9181900360200190a35050505050565b436006541115610a04576040805162461bcd60e51b8152602060048201526012602482015271746f6f206561726c7920746f20636c61696d60701b604482015290519081900360640190fd5b600060098281548110610a1357fe5b60009182526020808320858452600a82526040808520338652909252922060069091029091019150610a4483610f01565b805415610a8d576000610a7982600101546108b164e8d4a5100061072b87600301548760000154611f5490919063ffffffff16565b90508015610a8b57610a8b3382612075565b505b600281015415610aad57610aa5338260020154612075565b600060028201555b60038201548154610ac89164e8d4a510009161072b91611f54565b6001820155604051839033907f47cee97cb7acd717b3c0aa1435d004cd5b3c8c57d70dbceb4e4458bbd60e39d490600090a3505050565b610b07612014565b6001600160a01b0316610b18611a02565b6001600160a01b031614610b61576040805162461bcd60e51b81526020600482018190526024820152600080516020612a08833981519152604482015290519081900360640190fd5b8015610b6f57610b6f61124a565b50600755565b60065481565b610b83612014565b6001600160a01b0316610b94611a02565b6001600160a01b031614610bdd576040805162461bcd60e51b81526020600482018190526024820152600080516020612a08833981519152604482015290519081900360640190fd5b600060098281548110610bec57fe5b6000918252602090912060069091020160058101549091506001600160a01b031680610c56576040805162461bcd60e51b815260206004820152601460248201527336b4b3b930ba329d1037379036b4b3b930ba37b960611b604482015290519081900360640190fd5b8154604080516370a0823160e01b815230600482015290516001600160a01b039092169160009183916370a0823191602480820192602092909190829003018186803b158015610ca557600080fd5b505afa158015610cb9573d6000803e3d6000fd5b505050506040513d6020811015610ccf57600080fd5b50519050610ce76001600160a01b03831684836122b2565b600080846001600160a01b0316636336cc61856040518263ffffffff1660e01b815260040180826001600160a01b031681526020019150506040805180830381600087803b158015610d3857600080fd5b505af1158015610d4c573d6000803e3d6000fd5b505050506040513d6040811015610d6257600080fd5b508051602091820151604080516370a0823160e01b815230600482015290519295509093506001600160a01b038516926370a0823192602480840193829003018186803b158015610db257600080fd5b505afa158015610dc6573d6000803e3d6000fd5b505050506040513d6020811015610ddc57600080fd5b50518314610e20576040805162461bcd60e51b815260206004820152600c60248201526b1b5a59dc985d194e8818985960a21b604482015290519081900360640190fd5b85546001600160a01b0319166001600160a01b0383811691909117875560408051898152602081018690528151928816927f02ac0adb3d0746a176fe1c8557b1ee08d84b9bf5ac79cd08e2d5275c600d2d53929181900390910190a250505050505050565b60055481565b610e93612014565b6001600160a01b0316610ea4611a02565b6001600160a01b031614610eed576040805162461bcd60e51b81526020600482018190526024820152600080516020612a08833981519152604482015290519081900360640190fd5b8015610efb57610efb61124a565b50600855565b600060098281548110610f1057fe5b9060005260206000209060060201905080600201544311610f315750611150565b8054604080516370a0823160e01b815230600482015290516000926001600160a01b0316916370a08231916024808301926020929190829003018186803b158015610f7b57600080fd5b505afa158015610f8f573d6000803e3d6000fd5b505050506040513d6020811015610fa557600080fd5b5051905080610fbb575043600290910155611150565b6000610fd860075461072b6005544361201890919063ffffffff16565b90506000610fea846002015443611a11565b90506000611015600c5461072b876001015461100f611008886106f2565b8790611f54565b90611f54565b6001546002546003549293506001600160a01b03918216926340c10f1992909116906110499060649061072b908790611f54565b6040518363ffffffff1660e01b815260040180836001600160a01b0316815260200182815260200192505050600060405180830381600087803b15801561108f57600080fd5b505af11580156110a3573d6000803e3d6000fd5b5050600154604080516340c10f1960e01b81523060048201526024810186905290516001600160a01b0390921693506340c10f19925060448082019260009290919082900301818387803b1580156110fa57600080fd5b505af115801561110e573d6000803e3d6000fd5b5050505061113c6111318561072b64e8d4a5100085611f5490919063ffffffff16565b600387015490612206565b600386015550504360029093019290925550505b50565b60006009828154811061116257fe5b60009182526020808320858452600a825260408085203380875293529093208054600690930290930180549094506111a7916001600160a01b03919091169083612260565b815460048401546111b791612018565b600484015560008083556001830155604080518281529051859133917fbb757047c2b5f3974fe26b7c10f732e7bce710b0952a71082702781e62ae05959181900360200190a350505050565b600b602052816000526040600020818154811061121c57fe5b6000918252602090912001546001600160a01b03169150829050565b6000908152600b602052604090205490565b60095460005b818110156112695761126181610f01565b600101611250565b5050565b611275612014565b6001600160a01b0316611286611a02565b6001600160a01b0316146112cf576040805162461bcd60e51b81526020600482018190526024820152600080516020612a08833981519152604482015290519081900360640190fd5b600280546001600160a01b0319166001600160a01b0392909216919091179055565b6112f9612014565b6001600160a01b031661130a611a02565b6001600160a01b031614611353576040805162461bcd60e51b81526020600482018190526024820152600080516020612a08833981519152604482015290519081900360640190fd5b600080546040516001600160a01b03909116907f8be0079c531659141344cd1fd0a4f28419497f9722a3daafe3b4186f6b6457e0908390a3600080546001600160a01b0319169055565b6000600983815481106113ac57fe5b60009182526020808320868452600a825260408085203386529092529220600690910290910191506113dd84610f01565b80541561146957600061141282600101546108b164e8d4a5100061072b87600301548760000154611f5490919063ffffffff16565b905080156114675743600654116114525761142d3382612075565b60028201541561144d57611445338360020154612075565b600060028301555b611467565b60028201546114619082612206565b60028301555b505b82156114d7578154611486906001600160a01b03163330866123c5565b80546114929084612206565b815560048201546114a39084612206565b60048301556000848152600b602090815260408220805460018101825590835291200180546001600160a01b031916331790555b600382015481546114f29164e8d4a510009161072b91611f54565b6001820155604080518481529051859133917f5af417134f72a9d41143ace85b0a26dce6f550f894f2cbc1eeee8810603d91b69181900360200190a350505050565b61153c612014565b6001600160a01b031661154d611a02565b6001600160a01b031614611596576040805162461bcd60e51b81526020600482018190526024820152600080516020612a08833981519152604482015290519081900360640190fd5b6000838152600b602052604090205481106115ef576040805162461bcd60e51b815260206004820152601460248201527336b4b3b930ba329d103132b3b4b71032b93937b960611b604482015290519081900360640190fd5b6000600984815481106115fe57fe5b6000918252602090912060069091020160058101549091506001600160a01b031680611668576040805162461bcd60e51b815260206004820152601460248201527336b4b3b930ba329d1037379036b4b3b930ba37b960611b604482015290519081900360640190fd5b8154604080516370a0823160e01b815230600482015290516001600160a01b039092169160009183916370a0823191602480820192602092909190829003018186803b1580156116b757600080fd5b505afa1580156116cb573d6000803e3d6000fd5b505050506040513d60208110156116e157600080fd5b505190506116f96001600160a01b03831684836122b2565b600080846001600160a01b031663ce5494bb856040518263ffffffff1660e01b815260040180826001600160a01b031681526020019150506040805180830381600087803b15801561174a57600080fd5b505af115801561175e573d6000803e3d6000fd5b505050506040513d604081101561177457600080fd5b508051602090910151600980549294509092506000918a90811061179457fe5b6000918252602090912060069091020180549091506001600160a01b038481169116146117f7576040805162461bcd60e51b815260206004820152600c60248201526b1b5a59dc985d194e8818985960a21b604482015290519081900360640190fd5b600061180c8561072b8564e8d4a51000611f54565b9050885b61181b8a6014612206565b8110156119a85760008c8152600b602052604090205481101561199b576118418b610f01565b60008c8152600b6020526040812080548390811061185b57fe5b9060005260206000200160009054906101000a90046001600160a01b031690506000600a60008f81526020019081526020016000206000836001600160a01b03166001600160a01b0316815260200190815260200160002090506000600a60008f81526020019081526020016000206000846001600160a01b03166001600160a01b0316815260200190815260200160002090506000826000015411611903575050506119a0565b815460009061191d9064e8d4a510009061072b9089611f54565b825490915061192c9082612206565b825560018301546119579061194c9064e8d4a510009061072b908a611f54565b600184015490612206565b6001830155600487015461196b9082612206565b6004808901919091558354908e015461198391612018565b60048e015550506000600182018190559055506119a0565b6119a8565b600101611810565b50604080518c8152602081018c905280820187905290516001600160a01b038916917fc47a839c70aa320457c80c5abd38ce8b516c72e37be119b7962f67f1f8eb7ac2919081900360600190a25050505050505050505050565b6000546001600160a01b031690565b6000611a1d8284612018565b90505b92915050565b600a60209081526000928352604080842090915290825290208054600182015460028301546003909301549192909160ff1684565b611a63612014565b6001600160a01b0316611a74611a02565b6001600160a01b031614611abd576040805162461bcd60e51b81526020600482018190526024820152600080516020612a08833981519152604482015290519081900360640190fd5b8015611acb57611acb61124a565b611b0882611b0260098681548110611adf57fe5b906000526020600020906006020160010154600c5461201890919063ffffffff16565b90612206565b600c819055508160098481548110611b1c57fe5b906000526020600020906006020160010181905550505050565b6000611a1d8383612425565b611b4a612014565b6001600160a01b0316611b5b611a02565b6001600160a01b031614611ba4576040805162461bcd60e51b81526020600482018190526024820152600080516020612a08833981519152604482015290519081900360640190fd5b600355565b60085481565b6001546001600160a01b031681565b611bc6612014565b6001600160a01b0316611bd7611a02565b6001600160a01b031614611c20576040805162461bcd60e51b81526020600482018190526024820152600080516020612a08833981519152604482015290519081900360640190fd5b8015611c2e57611c2e61124a565b60006005544311611c4157600554611c43565b435b600c54909150611c539086612206565b600c556040805160c0810182526001600160a01b039586168152602081019687529081019182526000606082018181526080830182815295871660a08401908152600980546001810182559352925160069092027f6e1540171b6c0c960b71a7020d9f60077f6af931a8bbf590da0223dacf75c7af810180549389166001600160a01b031994851617905597517f6e1540171b6c0c960b71a7020d9f60077f6af931a8bbf590da0223dacf75c7b089015592517f6e1540171b6c0c960b71a7020d9f60077f6af931a8bbf590da0223dacf75c7b188015591517f6e1540171b6c0c960b71a7020d9f60077f6af931a8bbf590da0223dacf75c7b287015592517f6e1540171b6c0c960b71a7020d9f60077f6af931a8bbf590da0223dacf75c7b386015591517f6e1540171b6c0c960b71a7020d9f60077f6af931a8bbf590da0223dacf75c7b49094018054949093169390911692909217905550565b6002546001600160a01b031681565b600080805b60095481101561073b57611de1611dda8286612425565b8390612206565b9150600101611dc3565b611df3612014565b6001600160a01b0316611e04611a02565b6001600160a01b031614611e4d576040805162461bcd60e51b81526020600482018190526024820152600080516020612a08833981519152604482015290519081900360640190fd5b6001600160a01b038116611e925760405162461bcd60e51b815260040180806020018281038252602681526020018061299b6026913960400191505060405180910390fd5b600080546040516001600160a01b03808516939216917f8be0079c531659141344cd1fd0a4f28419497f9722a3daafe3b4186f6b6457e091a3600080546001600160a01b0319166001600160a01b0392909216919091179055565b611ef5612014565b6001600160a01b0316611f06611a02565b6001600160a01b031614611f4f576040805162461bcd60e51b81526020600482018190526024820152600080516020612a08833981519152604482015290519081900360640190fd5b600655565b600082611f6357506000611a20565b82820282848281611f7057fe5b0414611a1d5760405162461bcd60e51b81526004018080602001828103825260218152602001806129e76021913960400191505060405180910390fd5b6000808211612003576040805162461bcd60e51b815260206004820152601a60248201527f536166654d6174683a206469766973696f6e206279207a65726f000000000000604482015290519081900360640190fd5b81838161200c57fe5b049392505050565b3390565b60008282111561206f576040805162461bcd60e51b815260206004820152601e60248201527f536166654d6174683a207375627472616374696f6e206f766572666c6f770000604482015290519081900360640190fd5b50900390565b600154604080516370a0823160e01b815230600482015290516000926001600160a01b0316916370a08231916024808301926020929190829003018186803b1580156120c057600080fd5b505afa1580156120d4573d6000803e3d6000fd5b505050506040513d60208110156120ea57600080fd5b505190508082111561217e576001546040805163a9059cbb60e01b81526001600160a01b038681166004830152602482018590529151919092169163a9059cbb9160448083019260209291908290030181600087803b15801561214c57600080fd5b505af1158015612160573d6000803e3d6000fd5b505050506040513d602081101561217657600080fd5b506122019050565b6001546040805163a9059cbb60e01b81526001600160a01b038681166004830152602482018690529151919092169163a9059cbb9160448083019260209291908290030181600087803b1580156121d457600080fd5b505af11580156121e8573d6000803e3d6000fd5b505050506040513d60208110156121fe57600080fd5b50505b505050565b600082820183811015611a1d576040805162461bcd60e51b815260206004820152601b60248201527f536166654d6174683a206164646974696f6e206f766572666c6f770000000000604482015290519081900360640190fd5b604080516001600160a01b038416602482015260448082018490528251808303909101815260649091019091526020810180516001600160e01b031663a9059cbb60e01b1790526122019084906126d5565b801580612338575060408051636eb1769f60e11b81523060048201526001600160a01b03848116602483015291519185169163dd62ed3e91604480820192602092909190829003018186803b15801561230a57600080fd5b505afa15801561231e573d6000803e3d6000fd5b505050506040513d602081101561233457600080fd5b5051155b6123735760405162461bcd60e51b8152600401808060200182810382526036815260200180612a526036913960400191505060405180910390fd5b604080516001600160a01b038416602482015260448082018490528251808303909101815260649091019091526020810180516001600160e01b031663095ea7b360e01b1790526122019084906126d5565b604080516001600160a01b0380861660248301528416604482015260648082018490528251808303909101815260849091019091526020810180516001600160e01b03166323b872dd60e01b17905261241f9085906126d5565b50505050565b6000806009848154811061243557fe5b60009182526020808320878452600a825260408085206001600160a01b0389811687529084528186206006959095029092016003810154815483516370a0823160e01b815230600482015293519298509596909590949316926370a082319260248082019391829003018186803b1580156124af57600080fd5b505afa1580156124c3573d6000803e3d6000fd5b505050506040513d60208110156124d957600080fd5b50516002850154909150431180156124f057508015155b1561264b5760008061251760075461072b600554896002015461201890919063ffffffff16565b9050600061253660075461072b6005544361201890919063ffffffff16565b90508082141561257e576000612550886002015443611a11565b905061257661256f600c5461072b8b6001015461100f611008886106f2565b8590612206565b93505061262f565b815b81811161262d576000838214156125d0576125c989600201546125c460016108b16125bb60075461100f60018c61220690919063ffffffff16565b60055490612206565b611a11565b90506125fe565b828214156125f9576125c96125f36125bb60075486611f5490919063ffffffff16565b43611a11565b506007545b61262261261b600c5461072b8c6001015461100f611008886106f2565b8690612206565b945050600101612580565b505b61264561261b8561072b8664e8d4a51000611f54565b94505050505b600061267584600101546108b164e8d4a5100061072b878960000154611f5490919063ffffffff16565b905043600654111561269d576002840154612691908290612206565b95505050505050611a20565b600084600201541180156126b55750600384015460ff165b156126ca576002840154612691908290612206565b979650505050505050565b606061272a826040518060400160405280602081526020017f5361666545524332303a206c6f772d6c6576656c2063616c6c206661696c6564815250856001600160a01b03166127869092919063ffffffff16565b8051909150156122015780806020019051602081101561274957600080fd5b50516122015760405162461bcd60e51b815260040180806020018281038252602a815260200180612a28602a913960400191505060405180910390fd5b6060612795848460008561279f565b90505b9392505050565b6060824710156127e05760405162461bcd60e51b81526004018080602001828103825260268152602001806129c16026913960400191505060405180910390fd5b6127e9856128f0565b61283a576040805162461bcd60e51b815260206004820152601d60248201527f416464726573733a2063616c6c20746f206e6f6e2d636f6e7472616374000000604482015290519081900360640190fd5b60006060866001600160a01b031685876040518082805190602001908083835b602083106128795780518252601f19909201916020918201910161285a565b6001836020036101000a03801982511681845116808217855250505050505090500191505060006040518083038185875af1925050503d80600081146128db576040519150601f19603f3d011682016040523d82523d6000602084013e6128e0565b606091505b50915091506126ca8282866128f6565b3b151590565b60608315612905575081612798565b8251156129155782518084602001fd5b8160405162461bcd60e51b81526004018080602001828103825283818151815260200191508051906020019080838360005b8381101561295f578181015183820152602001612947565b50505050905090810190601f16801561298c5780820380516001836020036101000a031916815260200191505b509250505060405180910390fdfe4f776e61626c653a206e6577206f776e657220697320746865207a65726f2061646472657373416464726573733a20696e73756666696369656e742062616c616e636520666f722063616c6c536166654d6174683a206d756c7469706c69636174696f6e206f766572666c6f774f776e61626c653a2063616c6c6572206973206e6f7420746865206f776e65725361666545524332303a204552433230206f7065726174696f6e20646964206e6f7420737563636565645361666545524332303a20617070726f76652066726f6d206e6f6e2d7a65726f20746f206e6f6e2d7a65726f20616c6c6f77616e6365a264697066735822122043f1de60830919a293503fd107d09435be569132ea0f073146bfc4f64297152964736f6c634300060c0033",
  "linkReferences": {},
  "deployedLinkReferences": {}
}