{
  "_format": "hh-sol-artifact-1",
  "contractName": "PiggyDistribution",
  "sourceName": "contracts/Lend/farm/PiggyDistribution.sol",
  "abi": [
    {
      "anonymous": false,
      "inputs": [
        {
          "indexed": false,
          "internalType": "uint256",
          "name": "pid",
          "type": "uint256"
        }
      ],
      "name": "ClaimWpcFromPiggyBreeder",
      "type": "event"
    },
    {
      "anonymous": false,
      "inputs": [
        {
          "indexed": true,
          "internalType": "contract PToken",
          "name": "pToken",
          "type": "address"
        },
        {
          "indexed": true,
          "internalType": "address",
          "name": "borrower",
          "type": "address"
        },
        {
          "indexed": false,
          "internalType": "uint256",
          "name": "wpcDelta",
          "type": "uint256"
        },
        {
          "indexed": false,
          "internalType": "uint256",
          "name": "wpcBorrowIndex",
          "type": "uint256"
        }
      ],
      "name": "DistributedBorrowerWpc",
      "type": "event"
    },
    {
      "anonymous": false,
      "inputs": [
        {
          "indexed": true,
          "internalType": "contract PToken",
          "name": "pToken",
          "type": "address"
        },
        {
          "indexed": true,
          "internalType": "address",
          "name": "supplier",
          "type": "address"
        },
        {
          "indexed": false,
          "internalType": "uint256",
          "name": "wpcDelta",
          "type": "uint256"
        },
        {
          "indexed": false,
          "internalType": "uint256",
          "name": "wpcSupplyIndex",
          "type": "uint256"
        }
      ],
      "name": "DistributedSupplierWpc",
      "type": "event"
    },
    {
      "anonymous": false,
      "inputs": [
        {
          "indexed": false,
          "internalType": "contract PToken",
          "name": "pToken",
          "type": "address"
        },
        {
          "indexed": false,
          "internalType": "bool",
          "name": "isMinted",
          "type": "bool"
        }
      ],
      "name": "MarketWpcMinted",
      "type": "event"
    },
    {
      "anonymous": false,
      "inputs": [
        {
          "indexed": false,
          "internalType": "uint256",
          "name": "oldWpcRate",
          "type": "uint256"
        },
        {
          "indexed": false,
          "internalType": "uint256",
          "name": "newWpcRate",
          "type": "uint256"
        }
      ],
      "name": "NewWpcRate",
      "type": "event"
    },
    {
      "anonymous": false,
      "inputs": [
        {
          "indexed": true,
          "internalType": "address",
          "name": "previousOwner",
          "type": "address"
        },
        {
          "indexed": true,
          "internalType": "address",
          "name": "newOwner",
          "type": "address"
        }
      ],
      "name": "OwnershipTransferred",
      "type": "event"
    },
    {
      "anonymous": false,
      "inputs": [
        {
          "indexed": false,
          "internalType": "contract IERC20",
          "name": "token",
          "type": "address"
        },
        {
          "indexed": false,
          "internalType": "uint256",
          "name": "pid",
          "type": "uint256"
        },
        {
          "indexed": false,
          "internalType": "uint256",
          "name": "amount",
          "type": "uint256"
        }
      ],
      "name": "StakeTokenToPiggyBreeder",
      "type": "event"
    },
    {
      "anonymous": false,
      "inputs": [
        {
          "indexed": true,
          "internalType": "contract PToken",
          "name": "pToken",
          "type": "address"
        },
        {
          "indexed": false,
          "internalType": "uint256",
          "name": "newSpeed",
          "type": "uint256"
        }
      ],
      "name": "WpcSpeedUpdated",
      "type": "event"
    },
    {
      "inputs": [
        {
          "internalType": "address[]",
          "name": "pTokens",
          "type": "address[]"
        }
      ],
      "name": "_addWpcMarkets",
      "outputs": [],
      "stateMutability": "nonpayable",
      "type": "function"
    },
    {
      "inputs": [
        {
          "internalType": "uint256",
          "name": "pid",
          "type": "uint256"
        }
      ],
      "name": "_claimWpcFromPiggyBreeder",
      "outputs": [],
      "stateMutability": "nonpayable",
      "type": "function"
    },
    {
      "inputs": [
        {
          "internalType": "address",
          "name": "pToken",
          "type": "address"
        }
      ],
      "name": "_dropWpcMarket",
      "outputs": [],
      "stateMutability": "nonpayable",
      "type": "function"
    },
    {
      "inputs": [],
      "name": "_refreshWpcSpeeds",
      "outputs": [],
      "stateMutability": "nonpayable",
      "type": "function"
    },
    {
      "inputs": [
        {
          "internalType": "uint256",
          "name": "wpcRate_",
          "type": "uint256"
        }
      ],
      "name": "_setWpcRate",
      "outputs": [],
      "stateMutability": "nonpayable",
      "type": "function"
    },
    {
      "inputs": [
        {
          "internalType": "contract IERC20",
          "name": "token",
          "type": "address"
        },
        {
          "internalType": "uint256",
          "name": "pid",
          "type": "uint256"
        }
      ],
      "name": "_stakeTokenToPiggyBreeder",
      "outputs": [],
      "stateMutability": "nonpayable",
      "type": "function"
    },
    {
      "inputs": [
        {
          "internalType": "address",
          "name": "holder",
          "type": "address"
        },
        {
          "internalType": "contract PToken[]",
          "name": "pTokens",
          "type": "address[]"
        }
      ],
      "name": "claimWpc",
      "outputs": [],
      "stateMutability": "nonpayable",
      "type": "function"
    },
    {
      "inputs": [
        {
          "internalType": "address[]",
          "name": "holders",
          "type": "address[]"
        },
        {
          "internalType": "contract PToken[]",
          "name": "pTokens",
          "type": "address[]"
        },
        {
          "internalType": "bool",
          "name": "borrowers",
          "type": "bool"
        },
        {
          "internalType": "bool",
          "name": "suppliers",
          "type": "bool"
        }
      ],
      "name": "claimWpc",
      "outputs": [],
      "stateMutability": "nonpayable",
      "type": "function"
    },
    {
      "inputs": [
        {
          "internalType": "address",
          "name": "holder",
          "type": "address"
        }
      ],
      "name": "claimWpc",
      "outputs": [],
      "stateMutability": "nonpayable",
      "type": "function"
    },
    {
      "inputs": [],
      "name": "comptroller",
      "outputs": [
        {
          "internalType": "contract Comptroller",
          "name": "",
          "type": "address"
        }
      ],
      "stateMutability": "view",
      "type": "function"
    },
    {
      "inputs": [
        {
          "internalType": "address",
          "name": "pToken",
          "type": "address"
        },
        {
          "internalType": "address",
          "name": "borrower",
          "type": "address"
        },
        {
          "internalType": "bool",
          "name": "distributeAll",
          "type": "bool"
        }
      ],
      "name": "distributeBorrowWpc",
      "outputs": [],
      "stateMutability": "nonpayable",
      "type": "function"
    },
    {
      "inputs": [
        {
          "internalType": "address",
          "name": "pToken",
          "type": "address"
        },
        {
          "internalType": "address",
          "name": "minter",
          "type": "address"
        },
        {
          "internalType": "bool",
          "name": "distributeAll",
          "type": "bool"
        }
      ],
      "name": "distributeMintWpc",
      "outputs": [],
      "stateMutability": "nonpayable",
      "type": "function"
    },
    {
      "inputs": [
        {
          "internalType": "address",
          "name": "pToken",
          "type": "address"
        },
        {
          "internalType": "address",
          "name": "redeemer",
          "type": "address"
        },
        {
          "internalType": "bool",
          "name": "distributeAll",
          "type": "bool"
        }
      ],
      "name": "distributeRedeemWpc",
      "outputs": [],
      "stateMutability": "nonpayable",
      "type": "function"
    },
    {
      "inputs": [
        {
          "internalType": "address",
          "name": "pToken",
          "type": "address"
        },
        {
          "internalType": "address",
          "name": "borrower",
          "type": "address"
        },
        {
          "internalType": "bool",
          "name": "distributeAll",
          "type": "bool"
        }
      ],
      "name": "distributeRepayBorrowWpc",
      "outputs": [],
      "stateMutability": "nonpayable",
      "type": "function"
    },
    {
      "inputs": [
        {
          "internalType": "address",
          "name": "pTokenCollateral",
          "type": "address"
        },
        {
          "internalType": "address",
          "name": "borrower",
          "type": "address"
        },
        {
          "internalType": "address",
          "name": "liquidator",
          "type": "address"
        },
        {
          "internalType": "bool",
          "name": "distributeAll",
          "type": "bool"
        }
      ],
      "name": "distributeSeizeWpc",
      "outputs": [],
      "stateMutability": "nonpayable",
      "type": "function"
    },
    {
      "inputs": [
        {
          "internalType": "address",
          "name": "pToken",
          "type": "address"
        },
        {
          "internalType": "address",
          "name": "src",
          "type": "address"
        },
        {
          "internalType": "address",
          "name": "dst",
          "type": "address"
        },
        {
          "internalType": "bool",
          "name": "distributeAll",
          "type": "bool"
        }
      ],
      "name": "distributeTransferWpc",
      "outputs": [],
      "stateMutability": "nonpayable",
      "type": "function"
    },
    {
      "inputs": [
        {
          "internalType": "contract IERC20",
          "name": "_piggy",
          "type": "address"
        },
        {
          "internalType": "contract IPiggyBreeder",
          "name": "_piggyBreeder",
          "type": "address"
        },
        {
          "internalType": "contract Comptroller",
          "name": "_comptroller",
          "type": "address"
        }
      ],
      "name": "initialize",
      "outputs": [],
      "stateMutability": "nonpayable",
      "type": "function"
    },
    {
      "inputs": [],
      "name": "owner",
      "outputs": [
        {
          "internalType": "address",
          "name": "",
          "type": "address"
        }
      ],
      "stateMutability": "view",
      "type": "function"
    },
    {
      "inputs": [],
      "name": "piggy",
      "outputs": [
        {
          "internalType": "contract IERC20",
          "name": "",
          "type": "address"
        }
      ],
      "stateMutability": "view",
      "type": "function"
    },
    {
      "inputs": [],
      "name": "piggyBreeder",
      "outputs": [
        {
          "internalType": "contract IPiggyBreeder",
          "name": "",
          "type": "address"
        }
      ],
      "stateMutability": "view",
      "type": "function"
    },
    {
      "inputs": [],
      "name": "renounceOwnership",
      "outputs": [],
      "stateMutability": "nonpayable",
      "type": "function"
    },
    {
      "inputs": [
        {
          "internalType": "address",
          "name": "to",
          "type": "address"
        }
      ],
      "name": "transferALLWPC",
      "outputs": [],
      "stateMutability": "nonpayable",
      "type": "function"
    },
    {
      "inputs": [
        {
          "internalType": "address",
          "name": "newOwner",
          "type": "address"
        }
      ],
      "name": "transferOwnership",
      "outputs": [],
      "stateMutability": "nonpayable",
      "type": "function"
    },
    {
      "inputs": [
        {
          "internalType": "address",
          "name": "",
          "type": "address"
        }
      ],
      "name": "wpcAccrued",
      "outputs": [
        {
          "internalType": "uint256",
          "name": "",
          "type": "uint256"
        }
      ],
      "stateMutability": "view",
      "type": "function"
    },
    {
      "inputs": [
        {
          "internalType": "address",
          "name": "",
          "type": "address"
        }
      ],
      "name": "wpcBorrowState",
      "outputs": [
        {
          "internalType": "uint224",
          "name": "index",
          "type": "uint224"
        },
        {
          "internalType": "uint32",
          "name": "block",
          "type": "uint32"
        }
      ],
      "stateMutability": "view",
      "type": "function"
    },
    {
      "inputs": [
        {
          "internalType": "address",
          "name": "",
          "type": "address"
        },
        {
          "internalType": "address",
          "name": "",
          "type": "address"
        }
      ],
      "name": "wpcBorrowerIndex",
      "outputs": [
        {
          "internalType": "uint256",
          "name": "",
          "type": "uint256"
        }
      ],
      "stateMutability": "view",
      "type": "function"
    },
    {
      "inputs": [],
      "name": "wpcClaimThreshold",
      "outputs": [
        {
          "internalType": "uint256",
          "name": "",
          "type": "uint256"
        }
      ],
      "stateMutability": "view",
      "type": "function"
    },
    {
      "inputs": [],
      "name": "wpcInitialIndex",
      "outputs": [
        {
          "internalType": "uint224",
          "name": "",
          "type": "uint224"
        }
      ],
      "stateMutability": "view",
      "type": "function"
    },
    {
      "inputs": [],
      "name": "wpcRate",
      "outputs": [
        {
          "internalType": "uint256",
          "name": "",
          "type": "uint256"
        }
      ],
      "stateMutability": "view",
      "type": "function"
    },
    {
      "inputs": [
        {
          "internalType": "address",
          "name": "",
          "type": "address"
        }
      ],
      "name": "wpcSpeeds",
      "outputs": [
        {
          "internalType": "uint256",
          "name": "",
          "type": "uint256"
        }
      ],
      "stateMutability": "view",
      "type": "function"
    },
    {
      "inputs": [
        {
          "internalType": "address",
          "name": "",
          "type": "address"
        },
        {
          "internalType": "address",
          "name": "",
          "type": "address"
        }
      ],
      "name": "wpcSupplierIndex",
      "outputs": [
        {
          "internalType": "uint256",
          "name": "",
          "type": "uint256"
        }
      ],
      "stateMutability": "view",
      "type": "function"
    },
    {
      "inputs": [
        {
          "internalType": "address",
          "name": "",
          "type": "address"
        }
      ],
      "name": "wpcSupplyState",
      "outputs": [
        {
          "internalType": "uint224",
          "name": "index",
          "type": "uint224"
        },
        {
          "internalType": "uint32",
          "name": "block",
          "type": "uint32"
        }
      ],
      "stateMutability": "view",
      "type": "function"
    }
  ],
  "bytecode": "0x608060405234801561001057600080fd5b5061359b806100206000396000f3fe608060405234801561001057600080fd5b50600436106101f05760003560e01c8063715018a61161010f578063b712beef116100a2578063f2fde38b11610071578063f2fde38b14610740578063f3a8719614610620578063f774351e14610331578063fdebe9b614610766576101f0565b8063b712beef146106b4578063c0c53b8b146106bc578063e54ac468146106f4578063efcd0db41461071a576101f0565b80639b52edb8116100de5780639b52edb8146103ac5780639fd30de314610658578063a69ed1611461067e578063b5fdf28e146106ac576101f0565b8063715018a6146105ea5780638da5cb5b146105f257806392068f04146105fa57806392e1a29514610620576101f0565b80634cd54b7a116101875780635e5ce05e116101565780635e5ce05e146105445780635fe3b5671461054c5780635ff132f9146105705780636dd955531461059c576101f0565b80634cd54b7a146103ac5780635169448b146103ea57806352afdbfe146105165780635a9fd8c71461053c576101f0565b80632e764b49116101c35780632e764b49146103295780632f7d336a146103315780633637d97414610369578063397aded714610386576101f0565b8063011875b5146101f557806302c4678b146102a8578063247092ce146102e85780632e68d32d1461030c575b600080fd5b6102a66004803603604081101561020b57600080fd5b6001600160a01b038235169190810190604081016020820135600160201b81111561023557600080fd5b82018360208201111561024757600080fd5b803590602001918460208302840111600160201b8311171561026857600080fd5b919080806020026020016040519081016040528093929190818152602001838360200280828437600092019190915250929550610807945050505050565b005b6102d6600480360360408110156102be57600080fd5b506001600160a01b038135811691602001351661086a565b60408051918252519081900360200190f35b6102f0610887565b604080516001600160e01b039092168252519081900360200190f35b6102a66004803603602081101561032257600080fd5b503561089a565b6102a6610941565b6102a66004803603606081101561034757600080fd5b506001600160a01b0381358116916020810135909116906040013515156109a3565b6102a66004803603602081101561037f57600080fd5b5035610a21565b6102a66004803603602081101561039c57600080fd5b50356001600160a01b0316610b15565b6102a6600480360360808110156103c257600080fd5b506001600160a01b038135811691602081013582169160408201351690606001351515610c66565b6102a66004803603608081101561040057600080fd5b810190602081018135600160201b81111561041a57600080fd5b82018360208201111561042c57600080fd5b803590602001918460208302840111600160201b8311171561044d57600080fd5b9190808060200260200160405190810160405280939291908181526020018383602002808284376000920191909152509295949360208101935035915050600160201b81111561049c57600080fd5b8201836020820111156104ae57600080fd5b803590602001918460208302840111600160201b831117156104cf57600080fd5b919080806020026020016040519081016040528093929190818152602001838360200280828437600092019190915250929550505050803515159150602001351515610d09565b6102d66004803603602081101561052c57600080fd5b50356001600160a01b0316610f0e565b6102d6610f20565b6102d6610f26565b610554610f31565b604080516001600160a01b039092168252519081900360200190f35b6102a66004803603604081101561058657600080fd5b506001600160a01b038135169060200135610f40565b6105c2600480360360208110156105b257600080fd5b50356001600160a01b0316611153565b604080516001600160e01b03909316835263ffffffff90911660208301528051918290030190f35b6102a661117d565b61055461121f565b6102d66004803603602081101561061057600080fd5b50356001600160a01b031661122e565b6102a66004803603606081101561063657600080fd5b506001600160a01b038135811691602081013590911690604001351515611240565b6102a66004803603602081101561066e57600080fd5b50356001600160a01b0316611350565b6102d66004803603604081101561069457600080fd5b506001600160a01b038135811691602001351661152c565b610554611549565b610554611558565b6102a6600480360360608110156106d257600080fd5b506001600160a01b038135811691602081013582169160409091013516611567565b6102a66004803603602081101561070a57600080fd5b50356001600160a01b0316611650565b6105c26004803603602081101561073057600080fd5b50356001600160a01b031661176e565b6102a66004803603602081101561075657600080fd5b50356001600160a01b0316611798565b6102a66004803603602081101561077c57600080fd5b810190602081018135600160201b81111561079657600080fd5b8201836020820111156107a857600080fd5b803590602001918460208302840111600160201b831117156107c957600080fd5b919080806020026020016040519081016040528093929190818152602001838360200280828437600092019190915250929550611891945050505050565b60408051600180825281830190925260609160208083019080368337019050509050828160008151811061083757fe5b60200260200101906001600160a01b031690816001600160a01b031681525050610865818360016000610d09565b505050565b609e60209081526000928352604080842090915290825290205481565b6ec097ce7bc90715b34b9f100000000081565b6108a2611922565b6065546001600160a01b039081169116146108f2576040805162461bcd60e51b815260206004820181905260248201526000805160206134f8833981519152604482015290519081900360640190fd5b609a805490829055604080518281526020810184905281517f4c1be5c7ad23ccf2cf85122949f883cc9005d1f9b0db2d9ad5467829cbf42bc1929181900390910190a161093d611926565b5050565b610949611922565b6065546001600160a01b03908116911614610999576040805162461bcd60e51b815260206004820181905260248201526000805160206134f8833981519152604482015290519081900360640190fd5b6109a1611926565b565b6099546001600160a01b03163314806109d457506109bf61121f565b6001600160a01b0316336001600160a01b0316145b610865576040805162461bcd60e51b815260206004820152601960248201527837b7363c9031b7b6b83a3937b63632b91037b91037bbb732b960391b604482015290519081900360640190fd5b610a29611922565b6065546001600160a01b03908116911614610a79576040805162461bcd60e51b815260206004820181905260248201526000805160206134f8833981519152604482015290519081900360640190fd5b6098546040805163379607f560e01b81526004810184905290516001600160a01b039092169163379607f59160248082019260009290919082900301818387803b158015610ac657600080fd5b505af1158015610ada573d6000803e3d6000fd5b50506040805184815290517f44542e73ff1ebfa31eab4e203a32710f1b2be84fe883bc080772cf78b455b32d9350908190036020019150a150565b610b1d611922565b6065546001600160a01b03908116911614610b6d576040805162461bcd60e51b815260206004820181905260248201526000805160206134f8833981519152604482015290519081900360640190fd5b609754604080516370a0823160e01b815230600482015290516001600160a01b039092169163a9059cbb91849184916370a08231916024808301926020929190829003018186803b158015610bc157600080fd5b505afa158015610bd5573d6000803e3d6000fd5b505050506040513d6020811015610beb57600080fd5b5051604080516001600160e01b031960e086901b1681526001600160a01b03909316600484015260248301919091525160448083019260209291908290030181600087803b158015610c3c57600080fd5b505af1158015610c50573d6000803e3d6000fd5b505050506040513d602081101561086557600080fd5b6099546001600160a01b0316331480610c975750610c8261121f565b6001600160a01b0316336001600160a01b0316145b610ce4576040805162461bcd60e51b815260206004820152601960248201527837b7363c9031b7b6b83a3937b63632b91037b91037bbb732b960391b604482015290519081900360640190fd5b610ced84611f75565b610cf88484836121ea565b610d038483836121ea565b50505050565b60005b8351811015610f07576000848281518110610d2357fe5b60209081029190910181015160995460408051633d98a1e560e01b81526001600160a01b0380851660048301529151939550911692633d98a1e592602480840193829003018186803b158015610d7857600080fd5b505afa158015610d8c573d6000803e3d6000fd5b505050506040513d6020811015610da257600080fd5b5051610ded576040805162461bcd60e51b81526020600482015260156024820152741b585c9ad95d081b5d5cdd081899481b1a5cdd1959605a1b604482015290519081900360640190fd5b60018415151415610eb557610e006134be565b6040518060200160405280836001600160a01b031663aa5af0fd6040518163ffffffff1660e01b815260040160206040518083038186803b158015610e4457600080fd5b505afa158015610e58573d6000803e3d6000fd5b505050506040513d6020811015610e6e57600080fd5b505190529050610e7e82826123e1565b60005b8751811015610eb257610eaa83898381518110610e9a57fe5b6020026020010151846001612661565b600101610e81565b50505b60018315151415610efe57610ec981611f75565b60005b8651811015610efc57610ef482888381518110610ee557fe5b602002602001015160016121ea565b600101610ecc565b505b50600101610d0c565b5050505050565b60a06020526000908152604090205481565b609a5481565b66038d7ea4c6800081565b6099546001600160a01b031681565b610f48611922565b6065546001600160a01b03908116911614610f98576040805162461bcd60e51b815260206004820181905260248201526000805160206134f8833981519152604482015290519081900360640190fd5b6000826001600160a01b03166370a08231306040518263ffffffff1660e01b815260040180826001600160a01b0316815260200191505060206040518083038186803b158015610fe757600080fd5b505afa158015610ffb573d6000803e3d6000fd5b505050506040513d602081101561101157600080fd5b50516098546040805163095ea7b360e01b81526001600160a01b0392831660048201526024810184905290519293509085169163095ea7b3916044808201926020929091908290030181600087803b15801561106c57600080fd5b505af1158015611080573d6000803e3d6000fd5b505050506040513d602081101561109657600080fd5b5050609854604080516307b0472f60e41b8152600481018590526024810184905290516001600160a01b0390921691637b0472f09160448082019260009290919082900301818387803b1580156110ec57600080fd5b505af1158015611100573d6000803e3d6000fd5b5050604080516001600160a01b03871681526020810186905280820185905290517f9e607a7395a4b086a7a32e21952e8789eb525dafb3978a5f51a63d7e13b929919350908190036060019150a1505050565b609d602052600090815260409020546001600160e01b03811690600160e01b900463ffffffff1682565b611185611922565b6065546001600160a01b039081169116146111d5576040805162461bcd60e51b815260206004820181905260248201526000805160206134f8833981519152604482015290519081900360640190fd5b6065546040516000916001600160a01b0316907f8be0079c531659141344cd1fd0a4f28419497f9722a3daafe3b4186f6b6457e0908390a3606580546001600160a01b0319169055565b6065546001600160a01b031690565b609b6020526000908152604090205481565b6099546001600160a01b0316331480611271575061125c61121f565b6001600160a01b0316336001600160a01b0316145b6112be576040805162461bcd60e51b815260206004820152601960248201527837b7363c9031b7b6b83a3937b63632b91037b91037bbb732b960391b604482015290519081900360640190fd5b6112c66134be565b6040518060200160405280856001600160a01b031663aa5af0fd6040518163ffffffff1660e01b815260040160206040518083038186803b15801561130a57600080fd5b505afa15801561131e573d6000803e3d6000fd5b505050506040513d602081101561133457600080fd5b50519052905061134484826123e1565b610d0384848385612661565b611358611922565b6065546001600160a01b039081169116146113a8576040805162461bcd60e51b815260206004820181905260248201526000805160206134f8833981519152604482015290519081900360640190fd5b609954604080516390ba830760e01b81526001600160a01b038481166004830152915191909216916390ba8307916024808301926020929190829003018186803b1580156113f557600080fd5b505afa158015611409573d6000803e3d6000fd5b505050506040513d602081101561141f57600080fd5b5051611472576040805162461bcd60e51b815260206004820152601a60248201527f6d61726b6574206973206e6f74206120777063206d61726b6574000000000000604482015290519081900360640190fd5b609954604080516308f1c6ad60e31b81526001600160a01b038481166004830152600060248301819052925193169263478e35689260448084019391929182900301818387803b1580156114c557600080fd5b505af11580156114d9573d6000803e3d6000fd5b5050604080516001600160a01b03851681526000602082015281517f3c34bac179e6c022508e0c96fe515e56508d11c6f3bcf2b7004878f94a9f5ae69450908190039091019150a1611529611926565b50565b609f60209081526000928352604080842090915290825290205481565b6097546001600160a01b031681565b6098546001600160a01b031681565b600054610100900460ff1680611580575061158061283b565b8061158e575060005460ff16155b6115c95760405162461bcd60e51b815260040180806020018281038252602e815260200180613518602e913960400191505060405180910390fd5b600054610100900460ff161580156115f4576000805460ff1961ff0019909116610100171660011790555b609780546001600160a01b038087166001600160a01b031992831617909255609880548684169083161790556099805492851692909116919091179055611639612841565b8015610d03576000805461ff001916905550505050565b61152981609960009054906101000a90046001600160a01b03166001600160a01b031663b0772d0b6040518163ffffffff1660e01b815260040160006040518083038186803b1580156116a257600080fd5b505afa1580156116b6573d6000803e3d6000fd5b505050506040513d6000823e601f3d908101601f1916820160405260208110156116df57600080fd5b8101908080516040519392919084600160201b8211156116fe57600080fd5b90830190602082018581111561171357600080fd5b82518660208202830111600160201b8211171561172f57600080fd5b82525081516020918201928201910280838360005b8381101561175c578181015183820152602001611744565b50505050905001604052505050610807565b609c602052600090815260409020546001600160e01b03811690600160e01b900463ffffffff1682565b6117a0611922565b6065546001600160a01b039081169116146117f0576040805162461bcd60e51b815260206004820181905260248201526000805160206134f8833981519152604482015290519081900360640190fd5b6001600160a01b0381166118355760405162461bcd60e51b81526004018080602001828103825260268152602001806134d26026913960400191505060405180910390fd5b6065546040516001600160a01b038084169216907f8be0079c531659141344cd1fd0a4f28419497f9722a3daafe3b4186f6b6457e090600090a3606580546001600160a01b0319166001600160a01b0392909216919091179055565b611899611922565b6065546001600160a01b039081169116146118e9576040805162461bcd60e51b815260206004820181905260248201526000805160206134f8833981519152604482015290519081900360640190fd5b60005b81518110156119195761191182828151811061190457fe5b60200260200101516128f2565b6001016118ec565b50611529611926565b3390565b6099546040805163b0772d0b60e01b815290516060926001600160a01b03169163b0772d0b916004808301926000929190829003018186803b15801561196b57600080fd5b505afa15801561197f573d6000803e3d6000fd5b505050506040513d6000823e601f3d908101601f1916820160405260208110156119a857600080fd5b8101908080516040519392919084600160201b8211156119c757600080fd5b9083019060208201858111156119dc57600080fd5b82518660208202830111600160201b821117156119f857600080fd5b82525081516020918201928201910280838360005b83811015611a25578181015183820152602001611a0d565b50505050905001604052505050905060005b8151811015611af1576000828281518110611a4e57fe5b60200260200101519050611a606134be565b6040518060200160405280836001600160a01b031663aa5af0fd6040518163ffffffff1660e01b815260040160206040518083038186803b158015611aa457600080fd5b505afa158015611ab8573d6000803e3d6000fd5b505050506040513d6020811015611ace57600080fd5b505190529050611add82611f75565b611ae782826123e1565b5050600101611a37565b50611afa6134be565b6040518060200160405280600081525090506060825167ffffffffffffffff81118015611b2657600080fd5b50604051908082528060200260200182016040528015611b6057816020015b611b4d6134be565b815260200190600190039081611b455790505b50905060005b8351811015611dac576000848281518110611b7d57fe5b602090810291909101810151609954604080516390ba830760e01b81526001600160a01b03808516600483015291519395509116926390ba830792602480840193829003018186803b158015611bd257600080fd5b505afa158015611be6573d6000803e3d6000fd5b505050506040513d6020811015611bfc57600080fd5b505115611da357609954604080516307dc0d1d60e41b815290516000926001600160a01b031691637dc0d1d0916004808301926020929190829003018186803b158015611c4857600080fd5b505afa158015611c5c573d6000803e3d6000fd5b505050506040513d6020811015611c7257600080fd5b50516040805163fc57d4df60e01b81526001600160a01b0385811660048301529151919092169163fc57d4df916024808301926020929190829003018186803b158015611cbe57600080fd5b505afa158015611cd2573d6000803e3d6000fd5b505050506040513d6020811015611ce857600080fd5b50519050611cf46134be565b506040805160208101909152818152611d0b6134be565b611d7982856001600160a01b03166347bd37186040518163ffffffff1660e01b815260040160206040518083038186803b158015611d4857600080fd5b505afa158015611d5c573d6000803e3d6000fd5b505050506040513d6020811015611d7257600080fd5b5051612d4a565b905080868681518110611d8857fe5b6020026020010181905250611d9d8782612d74565b96505050505b50600101611b66565b5060005b8351811015610d03576099546040805163b0772d0b60e01b815290516000926001600160a01b03169163b0772d0b9160048083019286929190829003018186803b158015611dfd57600080fd5b505afa158015611e11573d6000803e3d6000fd5b505050506040513d6000823e601f3d908101601f191682016040526020811015611e3a57600080fd5b8101908080516040519392919084600160201b821115611e5957600080fd5b908301906020820185811115611e6e57600080fd5b82518660208202830111600160201b82111715611e8a57600080fd5b82525081516020918201928201910280838360005b83811015611eb7578181015183820152602001611e9f565b505050509050016040525050508281518110611ecf57fe5b60200260200101519050600080856000015111611eed576000611f15565b611f15609a54611f10868681518110611f0257fe5b602002602001015188612d99565b612dcc565b6001600160a01b0383166000818152609b60209081526040918290208490558151848152915193945091927fff762c446cf74e816bf5f9eaeadb8596574ad13acd08e7bce6d246991645e328929181900390910190a25050600101611db0565b6001600160a01b0381166000908152609c60209081526040808320609b909252822054815491929091439190611fb9908390600160e01b900463ffffffff16612df4565b9050600081118015611fcb5750600083115b15612191576000856001600160a01b03166318160ddd6040518163ffffffff1660e01b815260040160206040518083038186803b15801561200b57600080fd5b505afa15801561201f573d6000803e3d6000fd5b505050506040513d602081101561203557600080fd5b5051905060006120458386612e35565b905061204f6134be565b6000831161206c5760405180602001604052806000815250612076565b6120768284612e77565b90506120806134be565b604080516020810190915288546001600160e01b031681526120a29083612d74565b905060405180604001604052806120f283600001516040518060400160405280601a81526020017f6e657720696e6465782065786365656473203232342062697473000000000000815250612eac565b6001600160e01b0316815260200161212d886040518060400160405280601c8152602001600080516020613546833981519152815250612f46565b63ffffffff9081169091526001600160a01b038b166000908152609c60209081526040909120835181549490920151909216600160e01b026001600160e01b039182166001600160e01b0319909416939093171691909117905550610f0792505050565b8015610f07576121c4826040518060400160405280601c8152602001600080516020613546833981519152815250612f46565b845463ffffffff91909116600160e01b026001600160e01b039091161784555050505050565b6001600160a01b0383166000908152609c6020526040902061220a6134be565b50604080516020810190915281546001600160e01b0316815261222b6134be565b5060408051602080820183526001600160a01b038089166000908152609e83528481209189168082528284529481208054855286519590915291529190915580511580156122795750815115155b15612291576ec097ce7bc90715b34b9f100000000081525b6122996134be565b6122a38383612f9b565b90506000876001600160a01b03166370a08231886040518263ffffffff1660e01b815260040180826001600160a01b0316815260200191505060206040518083038186803b1580156122f457600080fd5b505afa158015612308573d6000803e3d6000fd5b505050506040513d602081101561231e57600080fd5b50519050600061232e8284612fc0565b6001600160a01b038916600090815260a06020526040812054919250906123559083612fe0565b905061237689828a61236e5766038d7ea4c68000612371565b60005b613016565b6001600160a01b03808b16600081815260a0602090815260409182902094909455895181518781529485015280519193928e16927fbe0c0c96a4998bc3a0d03adf87afe52655ee22c978742a6fd827cbb2a7544a80929081900390910190a350505050505050505050565b6001600160a01b0382166000908152609d60209081526040808320609b909252822054815491929091439190612425908390600160e01b900463ffffffff16612df4565b90506000811180156124375750600083115b156126065760006124ac876001600160a01b03166347bd37186040518163ffffffff1660e01b815260040160206040518083038186803b15801561247a57600080fd5b505afa15801561248e573d6000803e3d6000fd5b505050506040513d60208110156124a457600080fd5b505187613144565b905060006124ba8386612e35565b90506124c46134be565b600083116124e157604051806020016040528060008152506124eb565b6124eb8284612e77565b90506124f56134be565b604080516020810190915288546001600160e01b031681526125179083612d74565b9050604051806040016040528061256783600001516040518060400160405280601a81526020017f6e657720696e6465782065786365656473203232342062697473000000000000815250612eac565b6001600160e01b031681526020016125a2886040518060400160405280601c8152602001600080516020613546833981519152815250612f46565b63ffffffff9081169091526001600160a01b038c166000908152609d60209081526040909120835181549490920151909216600160e01b026001600160e01b039182166001600160e01b031990941693909317169190911790555061265992505050565b801561265957612639826040518060400160405280601c8152602001600080516020613546833981519152815250612f46565b845463ffffffff91909116600160e01b026001600160e01b039091161784555b505050505050565b6001600160a01b0384166000908152609d602052604090206126816134be565b50604080516020810190915281546001600160e01b031681526126a26134be565b5060408051602080820183526001600160a01b03808a166000908152609f8352848120918a1680825282845294812080548552865195909152915291909155805115612832576126f06134be565b6126fa8383612f9b565b90506000612780896001600160a01b03166395dd91938a6040518263ffffffff1660e01b815260040180826001600160a01b0316815260200191505060206040518083038186803b15801561274e57600080fd5b505afa158015612762573d6000803e3d6000fd5b505050506040513d602081101561277857600080fd5b505188613144565b9050600061278e8284612fc0565b6001600160a01b038a16600090815260a06020526040812054919250906127b59083612fe0565b90506127ce8a828a61236e5766038d7ea4c68000612371565b6001600160a01b03808c16600081815260a0602090815260409182902094909455895181518781529485015280519193928f16927f51c85dc0c0081306f30e8294ba3e28ddb525503774c20605841b8b161b39845b929081900390910190a3505050505b50505050505050565b303b1590565b600054610100900460ff168061285a575061285a61283b565b80612868575060005460ff16155b6128a35760405162461bcd60e51b815260040180806020018281038252602e815260200180613518602e913960400191505060405180910390fd5b600054610100900460ff161580156128ce576000805460ff1961ff0019909116610100171660011790555b6128d6613162565b6128de613202565b8015611529576000805461ff001916905550565b60995460408051633d98a1e560e01b81526001600160a01b03848116600483015291519190921691633d98a1e5916024808301926020929190829003018186803b15801561293f57600080fd5b505afa158015612953573d6000803e3d6000fd5b505050506040513d602081101561296957600080fd5b50516129bc576040805162461bcd60e51b815260206004820152601860248201527f777063206d61726b6574206973206e6f74206c69737465640000000000000000604482015290519081900360640190fd5b609954604080516390ba830760e01b81526001600160a01b038481166004830152915191909216916390ba8307916024808301926020929190829003018186803b158015612a0957600080fd5b505afa158015612a1d573d6000803e3d6000fd5b505050506040513d6020811015612a3357600080fd5b505115612a87576040805162461bcd60e51b815260206004820152601860248201527f777063206d61726b657420616c72656164792061646465640000000000000000604482015290519081900360640190fd5b609954604080516308f1c6ad60e31b81526001600160a01b038481166004830152600160248301529151919092169163478e356891604480830192600092919082900301818387803b158015612adc57600080fd5b505af1158015612af0573d6000803e3d6000fd5b5050604080516001600160a01b03851681526001602082015281517f3c34bac179e6c022508e0c96fe515e56508d11c6f3bcf2b7004878f94a9f5ae69450908190039091019150a16001600160a01b0381166000908152609c60205260409020546001600160e01b0316158015612b8a57506001600160a01b0381166000908152609c6020526040902054600160e01b900463ffffffff16155b15612c405760405180604001604052806ec097ce7bc90715b34b9f10000000006001600160e01b03168152602001612be5436040518060400160405280601c8152602001600080516020613546833981519152815250612f46565b63ffffffff9081169091526001600160a01b0383166000908152609c60209081526040909120835181549490920151909216600160e01b026001600160e01b039182166001600160e01b031990941693909317169190911790555b6001600160a01b0381166000908152609d60205260409020546001600160e01b0316158015612c9257506001600160a01b0381166000908152609d6020526040902054600160e01b900463ffffffff16155b156115295760405180604001604052806ec097ce7bc90715b34b9f10000000006001600160e01b03168152602001612ced436040518060400160405280601c8152602001600080516020613546833981519152815250612f46565b63ffffffff9081169091526001600160a01b0383166000908152609d60209081526040909120835181549490920151909216600160e01b026001600160e01b039182166001600160e01b0319909416939093171691909117905550565b612d526134be565b6040518060200160405280612d6b856000015185612e35565b90529392505050565b612d7c6134be565b6040518060200160405280612d6b85600001518560000151612fe0565b612da16134be565b6040518060200160405280612d6b612dc58660000151670de0b6b3a7640000612e35565b85516132fb565b6000670de0b6b3a7640000612de5848460000151612e35565b81612dec57fe5b049392505050565b6000612e2e8383604051806040016040528060158152602001747375627472616374696f6e20756e646572666c6f7760581b81525061332e565b9392505050565b6000612e2e83836040518060400160405280601781526020017f6d756c7469706c69636174696f6e206f766572666c6f77000000000000000000815250613388565b612e7f6134be565b6040518060200160405280612d6b612ea6866ec097ce7bc90715b34b9f1000000000612e35565b856132fb565b600081600160e01b8410612f3e5760405162461bcd60e51b81526004018080602001828103825283818151815260200191508051906020019080838360005b83811015612f03578181015183820152602001612eeb565b50505050905090810190601f168015612f305780820380516001836020036101000a031916815260200191505b509250505060405180910390fd5b509192915050565b600081600160201b8410612f3e5760405162461bcd60e51b8152602060048201818152835160248401528351909283926044909101919085019080838360008315612f03578181015183820152602001612eeb565b612fa36134be565b6040518060200160405280612d6b85600001518560000151612df4565b60006ec097ce7bc90715b34b9f1000000000612de5848460000151612e35565b6000612e2e8383604051806040016040528060118152602001706164646974696f6e206f766572666c6f7760781b815250613407565b60008183101580156130285750600083115b1561313c57609754604080516370a0823160e01b815230600482015290516000926001600160a01b0316916370a08231916024808301926020929190829003018186803b15801561307857600080fd5b505afa15801561308c573d6000803e3d6000fd5b505050506040513d60208110156130a257600080fd5b5051905080841161313a576097546040805163a9059cbb60e01b81526001600160a01b038881166004830152602482018890529151919092169163a9059cbb9160448083019260209291908290030181600087803b15801561310357600080fd5b505af1158015613117573d6000803e3d6000fd5b505050506040513d602081101561312d57600080fd5b5060009250612e2e915050565b505b509092915050565b6000612e2e61315b84670de0b6b3a7640000612e35565b83516132fb565b600054610100900460ff168061317b575061317b61283b565b80613189575060005460ff16155b6131c45760405162461bcd60e51b815260040180806020018281038252602e815260200180613518602e913960400191505060405180910390fd5b600054610100900460ff161580156128de576000805460ff1961ff0019909116610100171660011790558015611529576000805461ff001916905550565b600054610100900460ff168061321b575061321b61283b565b80613229575060005460ff16155b6132645760405162461bcd60e51b815260040180806020018281038252602e815260200180613518602e913960400191505060405180910390fd5b600054610100900460ff1615801561328f576000805460ff1961ff0019909116610100171660011790555b6000613299611922565b606580546001600160a01b0319166001600160a01b038316908117909155604051919250906000907f8be0079c531659141344cd1fd0a4f28419497f9722a3daafe3b4186f6b6457e0908290a3508015611529576000805461ff001916905550565b6000612e2e83836040518060400160405280600e81526020016d646976696465206279207a65726f60901b81525061345c565b600081848411156133805760405162461bcd60e51b8152602060048201818152835160248401528351909283926044909101919085019080838360008315612f03578181015183820152602001612eeb565b505050900390565b6000831580613395575082155b156133a257506000612e2e565b838302838582816133af57fe5b041483906133fe5760405162461bcd60e51b8152602060048201818152835160248401528351909283926044909101919085019080838360008315612f03578181015183820152602001612eeb565b50949350505050565b600083830182858210156133fe5760405162461bcd60e51b8152602060048201818152835160248401528351909283926044909101919085019080838360008315612f03578181015183820152602001612eeb565b600081836134ab5760405162461bcd60e51b8152602060048201818152835160248401528351909283926044909101919085019080838360008315612f03578181015183820152602001612eeb565b508284816134b557fe5b04949350505050565b604051806020016040528060008152509056fe4f776e61626c653a206e6577206f776e657220697320746865207a65726f20616464726573734f776e61626c653a2063616c6c6572206973206e6f7420746865206f776e6572436f6e747261637420696e7374616e63652068617320616c7265616479206265656e20696e697469616c697a6564626c6f636b206e756d6265722065786365656473203332206269747300000000a264697066735822122073a0b1e74db47dab1e6ba8393f1be6a73d6f9836d297c1b0e67f8791de75eec364736f6c634300060c0033",
  "linkReferences": {},
  "deployedLinkReferences": {}
}