{
  "_format": "hh-sol-artifact-1",
  "contractName": "PiggyDistribution",
  "sourceName": "contracts/Lend/farm/PiggyDistribution.sol",
  "abi": [
    {
      "anonymous": false,
      "inputs": [
        {
          "indexed": false,
          "internalType": "uint256",
          "name": "pid",
          "type": "uint256"
        }
      ],
      "name": "ClaimWpcFromPiggyBreeder",
      "type": "event"
    },
    {
      "anonymous": false,
      "inputs": [
        {
          "indexed": true,
          "internalType": "contract PToken",
          "name": "pToken",
          "type": "address"
        },
        {
          "indexed": true,
          "internalType": "address",
          "name": "borrower",
          "type": "address"
        },
        {
          "indexed": false,
          "internalType": "uint256",
          "name": "wpcDelta",
          "type": "uint256"
        },
        {
          "indexed": false,
          "internalType": "uint256",
          "name": "wpcBorrowIndex",
          "type": "uint256"
        }
      ],
      "name": "DistributedBorrowerWpc",
      "type": "event"
    },
    {
      "anonymous": false,
      "inputs": [
        {
          "indexed": true,
          "internalType": "contract PToken",
          "name": "pToken",
          "type": "address"
        },
        {
          "indexed": true,
          "internalType": "address",
          "name": "supplier",
          "type": "address"
        },
        {
          "indexed": false,
          "internalType": "uint256",
          "name": "wpcDelta",
          "type": "uint256"
        },
        {
          "indexed": false,
          "internalType": "uint256",
          "name": "wpcSupplyIndex",
          "type": "uint256"
        }
      ],
      "name": "DistributedSupplierWpc",
      "type": "event"
    },
    {
      "anonymous": false,
      "inputs": [
        {
          "indexed": false,
          "internalType": "string",
          "name": "action",
          "type": "string"
        },
        {
          "indexed": false,
          "internalType": "bool",
          "name": "state",
          "type": "bool"
        }
      ],
      "name": "EnableState",
      "type": "event"
    },
    {
      "anonymous": false,
      "inputs": [
        {
          "indexed": true,
          "internalType": "address",
          "name": "previousOwner",
          "type": "address"
        },
        {
          "indexed": true,
          "internalType": "address",
          "name": "newOwner",
          "type": "address"
        }
      ],
      "name": "OwnershipTransferred",
      "type": "event"
    },
    {
      "anonymous": false,
      "inputs": [
        {
          "indexed": false,
          "internalType": "contract IERC20",
          "name": "token",
          "type": "address"
        },
        {
          "indexed": false,
          "internalType": "uint256",
          "name": "pid",
          "type": "uint256"
        },
        {
          "indexed": false,
          "internalType": "uint256",
          "name": "amount",
          "type": "uint256"
        }
      ],
      "name": "StakeTokenToPiggyBreeder",
      "type": "event"
    },
    {
      "anonymous": false,
      "inputs": [
        {
          "indexed": true,
          "internalType": "contract PToken",
          "name": "pToken",
          "type": "address"
        },
        {
          "indexed": false,
          "internalType": "uint256",
          "name": "newSpeed",
          "type": "uint256"
        }
      ],
      "name": "WpcSpeedUpdated",
      "type": "event"
    },
    {
      "inputs": [
        {
          "internalType": "uint256",
          "name": "pid",
          "type": "uint256"
        }
      ],
      "name": "_claimWpcFromPiggyBreeder",
      "outputs": [],
      "stateMutability": "nonpayable",
      "type": "function"
    },
    {
      "inputs": [
        {
          "internalType": "bool",
          "name": "state",
          "type": "bool"
        }
      ],
      "name": "_setEnableAll",
      "outputs": [],
      "stateMutability": "nonpayable",
      "type": "function"
    },
    {
      "inputs": [
        {
          "internalType": "bool",
          "name": "state",
          "type": "bool"
        }
      ],
      "name": "_setEnableDistributeBorrowWpc",
      "outputs": [],
      "stateMutability": "nonpayable",
      "type": "function"
    },
    {
      "inputs": [
        {
          "internalType": "bool",
          "name": "state",
          "type": "bool"
        }
      ],
      "name": "_setEnableDistributeMintWpc",
      "outputs": [],
      "stateMutability": "nonpayable",
      "type": "function"
    },
    {
      "inputs": [
        {
          "internalType": "bool",
          "name": "state",
          "type": "bool"
        }
      ],
      "name": "_setEnableDistributeRedeemWpc",
      "outputs": [],
      "stateMutability": "nonpayable",
      "type": "function"
    },
    {
      "inputs": [
        {
          "internalType": "bool",
          "name": "state",
          "type": "bool"
        }
      ],
      "name": "_setEnableDistributeRepayBorrowWpc",
      "outputs": [],
      "stateMutability": "nonpayable",
      "type": "function"
    },
    {
      "inputs": [
        {
          "internalType": "bool",
          "name": "state",
          "type": "bool"
        }
      ],
      "name": "_setEnableDistributeSeizeWpc",
      "outputs": [],
      "stateMutability": "nonpayable",
      "type": "function"
    },
    {
      "inputs": [
        {
          "internalType": "bool",
          "name": "state",
          "type": "bool"
        }
      ],
      "name": "_setEnableDistributeTransferWpc",
      "outputs": [],
      "stateMutability": "nonpayable",
      "type": "function"
    },
    {
      "inputs": [
        {
          "internalType": "bool",
          "name": "state",
          "type": "bool"
        }
      ],
      "name": "_setEnableWpcClaim",
      "outputs": [],
      "stateMutability": "nonpayable",
      "type": "function"
    },
    {
      "inputs": [
        {
          "internalType": "contract PToken",
          "name": "pToken",
          "type": "address"
        },
        {
          "internalType": "uint256",
          "name": "wpcSpeed",
          "type": "uint256"
        }
      ],
      "name": "_setWpcSpeed",
      "outputs": [],
      "stateMutability": "nonpayable",
      "type": "function"
    },
    {
      "inputs": [
        {
          "internalType": "contract IERC20",
          "name": "token",
          "type": "address"
        },
        {
          "internalType": "uint256",
          "name": "pid",
          "type": "uint256"
        }
      ],
      "name": "_stakeTokenToPiggyBreeder",
      "outputs": [],
      "stateMutability": "nonpayable",
      "type": "function"
    },
    {
      "inputs": [
        {
          "internalType": "address",
          "name": "token",
          "type": "address"
        },
        {
          "internalType": "address",
          "name": "to",
          "type": "address"
        },
        {
          "internalType": "uint256",
          "name": "amount",
          "type": "uint256"
        }
      ],
      "name": "_transferToken",
      "outputs": [],
      "stateMutability": "nonpayable",
      "type": "function"
    },
    {
      "inputs": [
        {
          "internalType": "address",
          "name": "to",
          "type": "address"
        },
        {
          "internalType": "uint256",
          "name": "amount",
          "type": "uint256"
        }
      ],
      "name": "_transferWpc",
      "outputs": [],
      "stateMutability": "nonpayable",
      "type": "function"
    },
    {
      "inputs": [
        {
          "internalType": "address",
          "name": "holder",
          "type": "address"
        },
        {
          "internalType": "contract PToken[]",
          "name": "pTokens",
          "type": "address[]"
        }
      ],
      "name": "claimWpc",
      "outputs": [],
      "stateMutability": "nonpayable",
      "type": "function"
    },
    {
      "inputs": [
        {
          "internalType": "address[]",
          "name": "holders",
          "type": "address[]"
        },
        {
          "internalType": "contract PToken[]",
          "name": "pTokens",
          "type": "address[]"
        },
        {
          "internalType": "bool",
          "name": "borrowers",
          "type": "bool"
        },
        {
          "internalType": "bool",
          "name": "suppliers",
          "type": "bool"
        }
      ],
      "name": "claimWpc",
      "outputs": [],
      "stateMutability": "nonpayable",
      "type": "function"
    },
    {
      "inputs": [
        {
          "internalType": "address",
          "name": "holder",
          "type": "address"
        }
      ],
      "name": "claimWpc",
      "outputs": [],
      "stateMutability": "nonpayable",
      "type": "function"
    },
    {
      "inputs": [],
      "name": "comptroller",
      "outputs": [
        {
          "internalType": "contract Comptroller",
          "name": "",
          "type": "address"
        }
      ],
      "stateMutability": "view",
      "type": "function"
    },
    {
      "inputs": [
        {
          "internalType": "address",
          "name": "pToken",
          "type": "address"
        },
        {
          "internalType": "address",
          "name": "borrower",
          "type": "address"
        },
        {
          "internalType": "bool",
          "name": "distributeAll",
          "type": "bool"
        }
      ],
      "name": "distributeBorrowWpc",
      "outputs": [],
      "stateMutability": "nonpayable",
      "type": "function"
    },
    {
      "inputs": [
        {
          "internalType": "address",
          "name": "pToken",
          "type": "address"
        },
        {
          "internalType": "address",
          "name": "minter",
          "type": "address"
        },
        {
          "internalType": "bool",
          "name": "distributeAll",
          "type": "bool"
        }
      ],
      "name": "distributeMintWpc",
      "outputs": [],
      "stateMutability": "nonpayable",
      "type": "function"
    },
    {
      "inputs": [
        {
          "internalType": "address",
          "name": "pToken",
          "type": "address"
        },
        {
          "internalType": "address",
          "name": "redeemer",
          "type": "address"
        },
        {
          "internalType": "bool",
          "name": "distributeAll",
          "type": "bool"
        }
      ],
      "name": "distributeRedeemWpc",
      "outputs": [],
      "stateMutability": "nonpayable",
      "type": "function"
    },
    {
      "inputs": [
        {
          "internalType": "address",
          "name": "pToken",
          "type": "address"
        },
        {
          "internalType": "address",
          "name": "borrower",
          "type": "address"
        },
        {
          "internalType": "bool",
          "name": "distributeAll",
          "type": "bool"
        }
      ],
      "name": "distributeRepayBorrowWpc",
      "outputs": [],
      "stateMutability": "nonpayable",
      "type": "function"
    },
    {
      "inputs": [
        {
          "internalType": "address",
          "name": "pTokenCollateral",
          "type": "address"
        },
        {
          "internalType": "address",
          "name": "borrower",
          "type": "address"
        },
        {
          "internalType": "address",
          "name": "liquidator",
          "type": "address"
        },
        {
          "internalType": "bool",
          "name": "distributeAll",
          "type": "bool"
        }
      ],
      "name": "distributeSeizeWpc",
      "outputs": [],
      "stateMutability": "nonpayable",
      "type": "function"
    },
    {
      "inputs": [
        {
          "internalType": "address",
          "name": "pToken",
          "type": "address"
        },
        {
          "internalType": "address",
          "name": "src",
          "type": "address"
        },
        {
          "internalType": "address",
          "name": "dst",
          "type": "address"
        },
        {
          "internalType": "bool",
          "name": "distributeAll",
          "type": "bool"
        }
      ],
      "name": "distributeTransferWpc",
      "outputs": [],
      "stateMutability": "nonpayable",
      "type": "function"
    },
    {
      "inputs": [],
      "name": "enableDistributeBorrowWpc",
      "outputs": [
        {
          "internalType": "bool",
          "name": "",
          "type": "bool"
        }
      ],
      "stateMutability": "view",
      "type": "function"
    },
    {
      "inputs": [],
      "name": "enableDistributeMintWpc",
      "outputs": [
        {
          "internalType": "bool",
          "name": "",
          "type": "bool"
        }
      ],
      "stateMutability": "view",
      "type": "function"
    },
    {
      "inputs": [],
      "name": "enableDistributeRedeemWpc",
      "outputs": [
        {
          "internalType": "bool",
          "name": "",
          "type": "bool"
        }
      ],
      "stateMutability": "view",
      "type": "function"
    },
    {
      "inputs": [],
      "name": "enableDistributeRepayBorrowWpc",
      "outputs": [
        {
          "internalType": "bool",
          "name": "",
          "type": "bool"
        }
      ],
      "stateMutability": "view",
      "type": "function"
    },
    {
      "inputs": [],
      "name": "enableDistributeSeizeWpc",
      "outputs": [
        {
          "internalType": "bool",
          "name": "",
          "type": "bool"
        }
      ],
      "stateMutability": "view",
      "type": "function"
    },
    {
      "inputs": [],
      "name": "enableDistributeTransferWpc",
      "outputs": [
        {
          "internalType": "bool",
          "name": "",
          "type": "bool"
        }
      ],
      "stateMutability": "view",
      "type": "function"
    },
    {
      "inputs": [],
      "name": "enableWpcClaim",
      "outputs": [
        {
          "internalType": "bool",
          "name": "",
          "type": "bool"
        }
      ],
      "stateMutability": "view",
      "type": "function"
    },
    {
      "inputs": [
        {
          "internalType": "contract IERC20",
          "name": "_piggy",
          "type": "address"
        },
        {
          "internalType": "contract IPiggyBreeder",
          "name": "_piggyBreeder",
          "type": "address"
        },
        {
          "internalType": "contract Comptroller",
          "name": "_comptroller",
          "type": "address"
        }
      ],
      "name": "initialize",
      "outputs": [],
      "stateMutability": "nonpayable",
      "type": "function"
    },
    {
      "inputs": [],
      "name": "owner",
      "outputs": [
        {
          "internalType": "address",
          "name": "",
          "type": "address"
        }
      ],
      "stateMutability": "view",
      "type": "function"
    },
    {
      "inputs": [
        {
          "internalType": "address",
          "name": "holder",
          "type": "address"
        },
        {
          "internalType": "bool",
          "name": "borrowers",
          "type": "bool"
        },
        {
          "internalType": "bool",
          "name": "suppliers",
          "type": "bool"
        }
      ],
      "name": "pendingWpcAccrued",
      "outputs": [
        {
          "internalType": "uint256",
          "name": "",
          "type": "uint256"
        }
      ],
      "stateMutability": "view",
      "type": "function"
    },
    {
      "inputs": [],
      "name": "piggy",
      "outputs": [
        {
          "internalType": "contract IERC20",
          "name": "",
          "type": "address"
        }
      ],
      "stateMutability": "view",
      "type": "function"
    },
    {
      "inputs": [],
      "name": "piggyBreeder",
      "outputs": [
        {
          "internalType": "contract IPiggyBreeder",
          "name": "",
          "type": "address"
        }
      ],
      "stateMutability": "view",
      "type": "function"
    },
    {
      "inputs": [],
      "name": "renounceOwnership",
      "outputs": [],
      "stateMutability": "nonpayable",
      "type": "function"
    },
    {
      "inputs": [
        {
          "internalType": "address",
          "name": "newOwner",
          "type": "address"
        }
      ],
      "name": "transferOwnership",
      "outputs": [],
      "stateMutability": "nonpayable",
      "type": "function"
    },
    {
      "inputs": [
        {
          "internalType": "address",
          "name": "",
          "type": "address"
        }
      ],
      "name": "wpcAccrued",
      "outputs": [
        {
          "internalType": "uint256",
          "name": "",
          "type": "uint256"
        }
      ],
      "stateMutability": "view",
      "type": "function"
    },
    {
      "inputs": [
        {
          "internalType": "address",
          "name": "",
          "type": "address"
        }
      ],
      "name": "wpcBorrowState",
      "outputs": [
        {
          "internalType": "uint224",
          "name": "index",
          "type": "uint224"
        },
        {
          "internalType": "uint32",
          "name": "block",
          "type": "uint32"
        }
      ],
      "stateMutability": "view",
      "type": "function"
    },
    {
      "inputs": [
        {
          "internalType": "address",
          "name": "",
          "type": "address"
        },
        {
          "internalType": "address",
          "name": "",
          "type": "address"
        }
      ],
      "name": "wpcBorrowerIndex",
      "outputs": [
        {
          "internalType": "uint256",
          "name": "",
          "type": "uint256"
        }
      ],
      "stateMutability": "view",
      "type": "function"
    },
    {
      "inputs": [],
      "name": "wpcClaimThreshold",
      "outputs": [
        {
          "internalType": "uint256",
          "name": "",
          "type": "uint256"
        }
      ],
      "stateMutability": "view",
      "type": "function"
    },
    {
      "inputs": [],
      "name": "wpcInitialIndex",
      "outputs": [
        {
          "internalType": "uint224",
          "name": "",
          "type": "uint224"
        }
      ],
      "stateMutability": "view",
      "type": "function"
    },
    {
      "inputs": [
        {
          "internalType": "address",
          "name": "",
          "type": "address"
        }
      ],
      "name": "wpcSpeeds",
      "outputs": [
        {
          "internalType": "uint256",
          "name": "",
          "type": "uint256"
        }
      ],
      "stateMutability": "view",
      "type": "function"
    },
    {
      "inputs": [
        {
          "internalType": "address",
          "name": "",
          "type": "address"
        },
        {
          "internalType": "address",
          "name": "",
          "type": "address"
        }
      ],
      "name": "wpcSupplierIndex",
      "outputs": [
        {
          "internalType": "uint256",
          "name": "",
          "type": "uint256"
        }
      ],
      "stateMutability": "view",
      "type": "function"
    },
    {
      "inputs": [
        {
          "internalType": "address",
          "name": "",
          "type": "address"
        }
      ],
      "name": "wpcSupplyState",
      "outputs": [
        {
          "internalType": "uint224",
          "name": "index",
          "type": "uint224"
        },
        {
          "internalType": "uint32",
          "name": "block",
          "type": "uint32"
        }
      ],
      "stateMutability": "view",
      "type": "function"
    }
  ],
  "bytecode": "0x608060405234801561001057600080fd5b50614156806100206000396000f3fe608060405234801561001057600080fd5b506004361061027f5760003560e01c80638da5cb5b1161015c578063c48a3940116100ce578063eb4d3c3611610087578063eb4d3c361461094f578063efcd0db414610957578063f2fde38b1461097d578063f3a87196146109a3578063f774351e146109db578063f90ec13314610a135761027f565b8063c48a394014610881578063c771ea1914610889578063ce1afbe1146108a8578063d0fe0412146108de578063d3ad34cc146108fd578063e54ac468146109295761027f565b80639ce393f7116101205780639ce393f7146107a9578063a69ed161146107d5578063b5fdf28e14610803578063b712beef1461080b578063c0c53b8b14610813578063c16bb15c1461084b5761027f565b80638da5cb5b146106fd57806392068f041461070557806392e1a2951461072b57806399329c33146107635780639b52edb81461076b5761027f565b80634cd54b7a116101f55780635ff132f9116101b95780635ff132f9146106355780635ff8821914610661578063692c1d44146106695780636dd955531461068857806370d05be4146106d6578063715018a6146106f55761027f565b80634cd54b7a146104795780635169448b146104b757806352afdbfe146105e35780635e5ce05e146106095780635fe3b567146106115761027f565b80631f6c7a41116102475780631f6c7a41146103ba578063247092ce146103d957806327190769146103fd5780632f7d336a146104055780633637d9741461043d5780634485a2861461045a5761027f565b8063011875b51461028457806302c4678b1461033757806304f6e19c1461037757806304f79da81461039357806313f7cea11461039b575b600080fd5b6103356004803603604081101561029a57600080fd5b6001600160a01b038235169190810190604081016020820135600160201b8111156102c457600080fd5b8201836020820111156102d657600080fd5b803590602001918460208302840111600160201b831117156102f757600080fd5b919080806020026020016040519081016040528093929190818152602001838360200280828437600092019190915250929550610a32945050505050565b005b6103656004803603604081101561034d57600080fd5b506001600160a01b0381358116916020013516610a95565b60408051918252519081900360200190f35b61037f610ab2565b604080519115158252519081900360200190f35b61037f610ac2565b610335600480360360208110156103b157600080fd5b50351515610ad0565b610335600480360360208110156103d057600080fd5b50351515610b99565b6103e1610c66565b604080516001600160e01b039092168252519081900360200190f35b61037f610c78565b6103356004803603606081101561041b57600080fd5b506001600160a01b038135811691602081013590911690604001351515610c81565b6103356004803603602081101561045357600080fd5b5035610d15565b6103356004803603602081101561047057600080fd5b50351515610e09565b6103356004803603608081101561048f57600080fd5b506001600160a01b038135811691602081013582169160408201351690606001351515610ed9565b610335600480360360808110156104cd57600080fd5b810190602081018135600160201b8111156104e757600080fd5b8201836020820111156104f957600080fd5b803590602001918460208302840111600160201b8311171561051a57600080fd5b9190808060200260200160405190810160405280939291908181526020018383602002808284376000920191909152509295949360208101935035915050600160201b81111561056957600080fd5b82018360208201111561057b57600080fd5b803590602001918460208302840111600160201b8311171561059c57600080fd5b919080806020026020016040519081016040528093929190818152602001838360200280828437600092019190915250929550505050803515159150602001351515610f80565b610365600480360360208110156105f957600080fd5b50356001600160a01b03166111d3565b6103656111e5565b6106196111f0565b604080516001600160a01b039092168252519081900360200190f35b6103356004803603604081101561064b57600080fd5b506001600160a01b0381351690602001356111ff565b61037f611412565b6103356004803603602081101561067f57600080fd5b50351515611424565b6106ae6004803603602081101561069e57600080fd5b50356001600160a01b03166114be565b604080516001600160e01b03909316835263ffffffff90911660208301528051918290030190f35b610335600480360360208110156106ec57600080fd5b503515156114e8565b6103356115b6565b610619611658565b6103656004803603602081101561071b57600080fd5b50356001600160a01b0316611667565b6103356004803603606081101561074157600080fd5b506001600160a01b038135811691602081013590911690604001351515611679565b61037f61178d565b6103356004803603608081101561078157600080fd5b506001600160a01b03813581169160208101358216916040820135169060600135151561179c565b610335600480360360408110156107bf57600080fd5b506001600160a01b038135169060200135611829565b610365600480360360408110156107eb57600080fd5b506001600160a01b038135811691602001351661189c565b6106196118b9565b6106196118c8565b6103356004803603606081101561082957600080fd5b506001600160a01b0381358116916020810135821691604090910135166118d7565b6103656004803603606081101561086157600080fd5b506001600160a01b038135169060208101351515906040013515156119d0565b61037f6119e7565b6103356004803603602081101561089f57600080fd5b503515156119f7565b610335600480360360608110156108be57600080fd5b506001600160a01b03813581169160208101359091169060400135611aa9565b610335600480360360208110156108f457600080fd5b50351515611c10565b6103356004803603604081101561091357600080fd5b506001600160a01b038135169060200135611ce1565b6103356004803603602081101561093f57600080fd5b50356001600160a01b0316611d43565b61037f611e61565b6106ae6004803603602081101561096d57600080fd5b50356001600160a01b0316611e71565b6103356004803603602081101561099357600080fd5b50356001600160a01b0316611e9b565b610335600480360360608110156109b957600080fd5b506001600160a01b038135811691602081013590911690604001351515611f94565b610335600480360360608110156109f157600080fd5b506001600160a01b03813581169160208101359091169060400135151561201e565b61033560048036036020811015610a2957600080fd5b503515156120a8565b604080516001808252818301909252606091602080830190803683370190505090508281600081518110610a6257fe5b60200260200101906001600160a01b031690816001600160a01b031681525050610a90818360016000610f80565b505050565b609d60209081526000928352604080842090915290825290205481565b60a054600160201b900460ff1681565b60a054610100900460ff1681565b610ad8612173565b6065546001600160a01b03908116911614610b28576040805162461bcd60e51b81526020600482018190526024820152600080516020614073833981519152604482015290519081900360640190fd5b60a08054821515610100810261ff0019909216919091179091556040805160208101929092528082526017828201527f656e61626c65446973747269627574654d696e745770630000000000000000006060830152516000805160206140c18339815191529181900360800190a150565b610ba1612173565b6065546001600160a01b03908116911614610bf1576040805162461bcd60e51b81526020600482018190526024820152600080516020614073833981519152604482015290519081900360640190fd5b60a080548215156301000000810263ff00000019909216919091179091556040805160208101929092528082526019828201527f656e61626c6544697374726962757465426f72726f77577063000000000000006060830152516000805160206140c18339815191529181900360800190a150565b6a0c097ce7bc90715b34b9f160241b81565b60a05460ff1681565b6099546001600160a01b0316331480610cb25750610c9d611658565b6001600160a01b0316336001600160a01b0316145b610cf1576040805162461bcd60e51b81526020600482015260196024820152600080516020614101833981519152604482015290519081900360640190fd5b60a054610100900460ff1615610a9057610d0a83612177565b610a908383836123e9565b610d1d612173565b6065546001600160a01b03908116911614610d6d576040805162461bcd60e51b81526020600482018190526024820152600080516020614073833981519152604482015290519081900360640190fd5b6098546040805163379607f560e01b81526004810184905290516001600160a01b039092169163379607f59160248082019260009290919082900301818387803b158015610dba57600080fd5b505af1158015610dce573d6000803e3d6000fd5b50506040805184815290517f44542e73ff1ebfa31eab4e203a32710f1b2be84fe883bc080772cf78b455b32d9350908190036020019150a150565b610e11612173565b6065546001600160a01b03908116911614610e61576040805162461bcd60e51b81526020600482018190526024820152600080516020614073833981519152604482015290519081900360640190fd5b60a08054821515600160301b810266ff0000000000001990921691909117909155604080516020810192909252808252601b828201527f656e61626c65446973747269627574655472616e7366657257706300000000006060830152516000805160206140c18339815191529181900360800190a150565b6099546001600160a01b0316331480610f0a5750610ef5611658565b6001600160a01b0316336001600160a01b0316145b610f49576040805162461bcd60e51b81526020600482015260196024820152600080516020614101833981519152604482015290519081900360640190fd5b60a054600160301b900460ff1615610f7a57610f6484612177565b610f6f8484836123e9565b610f7a8483836123e9565b50505050565b60a05460ff16610fce576040805162461bcd60e51b815260206004820152601460248201527310db185a5b481a5cc81b9bdd08195b98589b195960621b604482015290519081900360640190fd5b60005b83518110156111cc576000848281518110610fe857fe5b60209081029190910181015160995460408051633d98a1e560e01b81526001600160a01b0380851660048301529151939550911692633d98a1e592602480840193829003018186803b15801561103d57600080fd5b505afa158015611051573d6000803e3d6000fd5b505050506040513d602081101561106757600080fd5b50516110b2576040805162461bcd60e51b81526020600482015260156024820152741b585c9ad95d081b5d5cdd081899481b1a5cdd1959605a1b604482015290519081900360640190fd5b6001841515141561117a576110c5614022565b6040518060200160405280836001600160a01b031663aa5af0fd6040518163ffffffff1660e01b815260040160206040518083038186803b15801561110957600080fd5b505afa15801561111d573d6000803e3d6000fd5b505050506040513d602081101561113357600080fd5b50519052905061114382826125df565b60005b87518110156111775761116f8389838151811061115f57fe5b602002602001015184600161285c565b600101611146565b50505b600183151514156111c35761118e81612177565b60005b86518110156111c1576111b9828883815181106111aa57fe5b602002602001015160016123e9565b600101611191565b505b50600101610fd1565b5050505050565b609f6020526000908152604090205481565b66038d7ea4c6800081565b6099546001600160a01b031681565b611207612173565b6065546001600160a01b03908116911614611257576040805162461bcd60e51b81526020600482018190526024820152600080516020614073833981519152604482015290519081900360640190fd5b6000826001600160a01b03166370a08231306040518263ffffffff1660e01b815260040180826001600160a01b0316815260200191505060206040518083038186803b1580156112a657600080fd5b505afa1580156112ba573d6000803e3d6000fd5b505050506040513d60208110156112d057600080fd5b50516098546040805163095ea7b360e01b81526001600160a01b0392831660048201526024810184905290519293509085169163095ea7b3916044808201926020929091908290030181600087803b15801561132b57600080fd5b505af115801561133f573d6000803e3d6000fd5b505050506040513d602081101561135557600080fd5b5050609854604080516307b0472f60e41b8152600481018590526024810184905290516001600160a01b0390921691637b0472f09160448082019260009290919082900301818387803b1580156113ab57600080fd5b505af11580156113bf573d6000803e3d6000fd5b5050604080516001600160a01b03871681526020810186905280820185905290517f9e607a7395a4b086a7a32e21952e8789eb525dafb3978a5f51a63d7e13b929919350908190036060019150a1505050565b60a05465010000000000900460ff1681565b61142c612173565b6065546001600160a01b0390811691161461147c576040805162461bcd60e51b81526020600482018190526024820152600080516020614073833981519152604482015290519081900360640190fd5b61148581610ad0565b61148e816120a8565b61149781610b99565b6114a0816114e8565b6114a981611c10565b6114b281610e09565b6114bb816119f7565b50565b609c602052600090815260409020546001600160e01b03811690600160e01b900463ffffffff1682565b6114f0612173565b6065546001600160a01b03908116911614611540576040805162461bcd60e51b81526020600482018190526024820152600080516020614073833981519152604482015290519081900360640190fd5b60a08054821515600160201b810264ff000000001990921691909117909155604080516020810192909252808252601e828201527f656e61626c65446973747269627574655265706179426f72726f7757706300006060830152516000805160206140c18339815191529181900360800190a150565b6115be612173565b6065546001600160a01b0390811691161461160e576040805162461bcd60e51b81526020600482018190526024820152600080516020614073833981519152604482015290519081900360640190fd5b6065546040516000916001600160a01b0316907f8be0079c531659141344cd1fd0a4f28419497f9722a3daafe3b4186f6b6457e0908390a3606580546001600160a01b0319169055565b6065546001600160a01b031690565b609a6020526000908152604090205481565b6099546001600160a01b03163314806116aa5750611695611658565b6001600160a01b0316336001600160a01b0316145b6116e9576040805162461bcd60e51b81526020600482015260196024820152600080516020614101833981519152604482015290519081900360640190fd5b60a054600160201b900460ff1615610a9057611703614022565b6040518060200160405280856001600160a01b031663aa5af0fd6040518163ffffffff1660e01b815260040160206040518083038186803b15801561174757600080fd5b505afa15801561175b573d6000803e3d6000fd5b505050506040513d602081101561177157600080fd5b50519052905061178184826125df565b610f7a8484838561285c565b60a05462010000900460ff1681565b6099546001600160a01b03163314806117cd57506117b8611658565b6001600160a01b0316336001600160a01b0316145b61180c576040805162461bcd60e51b81526020600482015260196024820152600080516020614101833981519152604482015290519081900360640190fd5b60a05465010000000000900460ff1615610f7a57610f6484612177565b611831612173565b6065546001600160a01b03908116911614611881576040805162461bcd60e51b81526020600482018190526024820152600080516020614073833981519152604482015290519081900360640190fd5b609754611898906001600160a01b03168383611aa9565b5050565b609e60209081526000928352604080842090915290825290205481565b6097546001600160a01b031681565b6098546001600160a01b031681565b600054610100900460ff16806118f057506118f0612a35565b806118fe575060005460ff16155b6119395760405162461bcd60e51b815260040180806020018281038252602e815260200180614093602e913960400191505060405180910390fd5b600054610100900460ff16158015611964576000805460ff1961ff0019909116610100171660011790555b609780546001600160a01b038087166001600160a01b03199283161790925560988054868416908316179055609980549285169290911691909117905560a0805466ffffffffffffff191690556119b9612a3b565b8015610f7a576000805461ff001916905550505050565b60006119dd848484612aec565b90505b9392505050565b60a054600160301b900460ff1681565b6119ff612173565b6065546001600160a01b03908116911614611a4f576040805162461bcd60e51b81526020600482018190526024820152600080516020614073833981519152604482015290519081900360640190fd5b60a0805482151560ff199091168117909155604080516020810192909252808252600e828201526d656e61626c65577063436c61696d60901b6060830152516000805160206140c18339815191529181900360800190a150565b611ab1612173565b6065546001600160a01b03908116911614611b01576040805162461bcd60e51b81526020600482018190526024820152600080516020614073833981519152604482015290519081900360640190fd5b604080516370a0823160e01b8152306004820152905184916000916001600160a01b038416916370a08231916024808301926020929190829003018186803b158015611b4c57600080fd5b505afa158015611b60573d6000803e3d6000fd5b505050506040513d6020811015611b7657600080fd5b5051905082811015611b86578092505b816001600160a01b031663a9059cbb85856040518363ffffffff1660e01b815260040180836001600160a01b0316815260200182815260200192505050602060405180830381600087803b158015611bdd57600080fd5b505af1158015611bf1573d6000803e3d6000fd5b505050506040513d6020811015611c0757600080fd5b50505050505050565b611c18612173565b6065546001600160a01b03908116911614611c68576040805162461bcd60e51b81526020600482018190526024820152600080516020614073833981519152604482015290519081900360640190fd5b60a0805482151565010000000000810265ff000000000019909216919091179091556040805160208101929092528082526018828201527f656e61626c65446973747269627574655365697a6557706300000000000000006060830152516000805160206140c18339815191529181900360800190a150565b611ce9612173565b6065546001600160a01b03908116911614611d39576040805162461bcd60e51b81526020600482018190526024820152600080516020614073833981519152604482015290519081900360640190fd5b6118988282612c97565b6114bb81609960009054906101000a90046001600160a01b03166001600160a01b031663b0772d0b6040518163ffffffff1660e01b815260040160006040518083038186803b158015611d9557600080fd5b505afa158015611da9573d6000803e3d6000fd5b505050506040513d6000823e601f3d908101601f191682016040526020811015611dd257600080fd5b8101908080516040519392919084600160201b821115611df157600080fd5b908301906020820185811115611e0657600080fd5b82518660208202830111600160201b82111715611e2257600080fd5b82525081516020918201928201910280838360005b83811015611e4f578181015183820152602001611e37565b50505050905001604052505050610a32565b60a0546301000000900460ff1681565b609b602052600090815260409020546001600160e01b03811690600160e01b900463ffffffff1682565b611ea3612173565b6065546001600160a01b03908116911614611ef3576040805162461bcd60e51b81526020600482018190526024820152600080516020614073833981519152604482015290519081900360640190fd5b6001600160a01b038116611f385760405162461bcd60e51b815260040180806020018281038252602681526020018061404d6026913960400191505060405180910390fd5b6065546040516001600160a01b038084169216907f8be0079c531659141344cd1fd0a4f28419497f9722a3daafe3b4186f6b6457e090600090a3606580546001600160a01b0319166001600160a01b0392909216919091179055565b6099546001600160a01b0316331480611fc55750611fb0611658565b6001600160a01b0316336001600160a01b0316145b612004576040805162461bcd60e51b81526020600482015260196024820152600080516020614101833981519152604482015290519081900360640190fd5b60a0546301000000900460ff1615610a9057611703614022565b6099546001600160a01b031633148061204f575061203a611658565b6001600160a01b0316336001600160a01b0316145b61208e576040805162461bcd60e51b81526020600482015260196024820152600080516020614101833981519152604482015290519081900360640190fd5b60a05462010000900460ff1615610a9057610d0a83612177565b6120b0612173565b6065546001600160a01b03908116911614612100576040805162461bcd60e51b81526020600482018190526024820152600080516020614073833981519152604482015290519081900360640190fd5b60a0805482151562010000810262ff000019909216919091179091556040805160208101929092528082526019828201527f656e61626c654469737472696275746552656465656d577063000000000000006060830152516000805160206140c18339815191529181900360800190a150565b3390565b6001600160a01b0381166000908152609b60209081526040808320609a9092528220548154919290914391906121bb908390600160e01b900463ffffffff16613170565b90506000811180156121cd5750600083115b15612390576000856001600160a01b03166318160ddd6040518163ffffffff1660e01b815260040160206040518083038186803b15801561220d57600080fd5b505afa158015612221573d6000803e3d6000fd5b505050506040513d602081101561223757600080fd5b50519050600061224783866131b3565b9050612251614022565b6000831161226e5760405180602001604052806000815250612278565b61227882846131f5565b9050612282614022565b604080516020810190915288546001600160e01b031681526122a49083613232565b905060405180604001604052806122f183600001516040518060400160405280601a8152602001796e657720696e646578206578636565647320323234206269747360301b815250613257565b6001600160e01b0316815260200161232c886040518060400160405280601c81526020016000805160206140e18339815191528152506132f1565b63ffffffff9081169091526001600160a01b038b166000908152609b60209081526040909120835181549490920151909216600160e01b026001600160e01b039182166001600160e01b03199094169390931716919091179055506111cc92505050565b80156111cc576123c3826040518060400160405280601c81526020016000805160206140e18339815191528152506132f1565b845463ffffffff91909116600160e01b026001600160e01b039091161784555050505050565b6001600160a01b0383166000908152609b60205260409020612409614022565b50604080516020810190915281546001600160e01b0316815261242a614022565b5060408051602080820183526001600160a01b038089166000908152609d83528481209189168082528284529481208054855286519590915291529190915580511580156124785750815115155b1561248f576a0c097ce7bc90715b34b9f160241b81525b612497614022565b6124a18383613346565b90506000876001600160a01b03166370a08231886040518263ffffffff1660e01b815260040180826001600160a01b0316815260200191505060206040518083038186803b1580156124f257600080fd5b505afa158015612506573d6000803e3d6000fd5b505050506040513d602081101561251c57600080fd5b50519050600061252c828461336b565b6001600160a01b0389166000908152609f6020526040812054919250906125539083613399565b905061257489828a61256c5766038d7ea4c6800061256f565b60005b6133cf565b6001600160a01b03808b166000818152609f602090815260409182902094909455895181518781529485015280519193928e16927fbe0c0c96a4998bc3a0d03adf87afe52655ee22c978742a6fd827cbb2a7544a80929081900390910190a350505050505050505050565b6001600160a01b0382166000908152609c60209081526040808320609a909252822054815491929091439190612623908390600160e01b900463ffffffff16613170565b90506000811180156126355750600083115b156128015760006126aa876001600160a01b03166347bd37186040518163ffffffff1660e01b815260040160206040518083038186803b15801561267857600080fd5b505afa15801561268c573d6000803e3d6000fd5b505050506040513d60208110156126a257600080fd5b5051876134fd565b905060006126b883866131b3565b90506126c2614022565b600083116126df57604051806020016040528060008152506126e9565b6126e982846131f5565b90506126f3614022565b604080516020810190915288546001600160e01b031681526127159083613232565b9050604051806040016040528061276283600001516040518060400160405280601a8152602001796e657720696e646578206578636565647320323234206269747360301b815250613257565b6001600160e01b0316815260200161279d886040518060400160405280601c81526020016000805160206140e18339815191528152506132f1565b63ffffffff9081169091526001600160a01b038c166000908152609c60209081526040909120835181549490920151909216600160e01b026001600160e01b039182166001600160e01b031990941693909317169190911790555061285492505050565b801561285457612834826040518060400160405280601c81526020016000805160206140e18339815191528152506132f1565b845463ffffffff91909116600160e01b026001600160e01b039091161784555b505050505050565b6001600160a01b0384166000908152609c6020526040902061287c614022565b50604080516020810190915281546001600160e01b0316815261289d614022565b5060408051602080820183526001600160a01b03808a166000908152609e8352848120918a1680825282845294812080548552865195909152915291909155805115611c07576128eb614022565b6128f58383613346565b9050600061297b896001600160a01b03166395dd91938a6040518263ffffffff1660e01b815260040180826001600160a01b0316815260200191505060206040518083038186803b15801561294957600080fd5b505afa15801561295d573d6000803e3d6000fd5b505050506040513d602081101561297357600080fd5b5051886134fd565b90506000612989828461336b565b6001600160a01b038a166000908152609f6020526040812054919250906129b09083613399565b90506129c98a828a61256c5766038d7ea4c6800061256f565b6001600160a01b03808c166000818152609f602090815260409182902094909455895181518781529485015280519193928f16927f51c85dc0c0081306f30e8294ba3e28ddb525503774c20605841b8b161b39845b929081900390910190a35050505050505050505050565b303b1590565b600054610100900460ff1680612a545750612a54612a35565b80612a62575060005460ff16155b612a9d5760405162461bcd60e51b815260040180806020018281038252602e815260200180614093602e913960400191505060405180910390fd5b600054610100900460ff16158015612ac8576000805460ff1961ff0019909116610100171660011790555b612ad061351b565b612ad86135bb565b80156114bb576000805461ff001916905550565b6001600160a01b038084166000908152609f602052604080822054609954825163b0772d0b60e01b8152925193949193606093919092169163b0772d0b916004808201928892909190829003018186803b158015612b4957600080fd5b505afa158015612b5d573d6000803e3d6000fd5b505050506040513d6000823e601f3d908101601f191682016040526020811015612b8657600080fd5b8101908080516040519392919084600160201b821115612ba557600080fd5b908301906020820185811115612bba57600080fd5b82518660208202830111600160201b82111715612bd657600080fd5b82525081516020918201928201910280838360005b83811015612c03578181015183820152602001612beb565b50505050905001604052505050905060005b8151811015612c8c576000828281518110612c2c57fe5b602002602001015190506000871515600115151415612c5e57612c4f89836136b4565b9050612c5b8582613399565b94505b60018715151415612c8257612c73898361385f565b9050612c7f8582613399565b94505b5050600101612c15565b509095945050505050565b6001600160a01b0382166000908152609a60205260409020548015612d4b57612cbe614022565b6040518060200160405280856001600160a01b031663aa5af0fd6040518163ffffffff1660e01b815260040160206040518083038186803b158015612d0257600080fd5b505afa158015612d16573d6000803e3d6000fd5b505050506040513d6020811015612d2c57600080fd5b505190529050612d3b84612177565b612d4584826125df565b50613114565b81156131145760995460408051633d98a1e560e01b81526001600160a01b03868116600483015291519190921691633d98a1e5916024808301926020929190829003018186803b158015612d9e57600080fd5b505afa158015612db2573d6000803e3d6000fd5b505050506040513d6020811015612dc857600080fd5b5051612e1b576040805162461bcd60e51b815260206004820152601860248201527f777063206d61726b6574206973206e6f74206c69737465640000000000000000604482015290519081900360640190fd5b609954604080516390ba830760e01b81526001600160a01b038681166004830152915191909216916390ba8307916024808301926020929190829003018186803b158015612e6857600080fd5b505afa158015612e7c573d6000803e3d6000fd5b505050506040513d6020811015612e9257600080fd5b5051612f0657609954604080516308f1c6ad60e31b81526001600160a01b038681166004830152600160248301529151919092169163478e356891604480830192600092919082900301818387803b158015612eed57600080fd5b505af1158015612f01573d6000803e3d6000fd5b505050505b6001600160a01b0383166000908152609b60205260409020546001600160e01b0316158015612f5857506001600160a01b0383166000908152609b6020526040902054600160e01b900463ffffffff16155b1561300d5760405180604001604052806a0c097ce7bc90715b34b9f160241b6001600160e01b03168152602001612fb2436040518060400160405280601c81526020016000805160206140e18339815191528152506132f1565b63ffffffff9081169091526001600160a01b0385166000908152609b60209081526040909120835181549490920151909216600160e01b026001600160e01b039182166001600160e01b031990941693909317169190911790555b6001600160a01b0383166000908152609c60205260409020546001600160e01b031615801561305f57506001600160a01b0383166000908152609c6020526040902054600160e01b900463ffffffff16155b156131145760405180604001604052806a0c097ce7bc90715b34b9f160241b6001600160e01b031681526020016130b9436040518060400160405280601c81526020016000805160206140e18339815191528152506132f1565b63ffffffff9081169091526001600160a01b0385166000908152609c60209081526040909120835181549490920151909216600160e01b026001600160e01b039182166001600160e01b031990941693909317169190911790555b818114610a90576001600160a01b0383166000818152609a6020908152604091829020859055815185815291517fff762c446cf74e816bf5f9eaeadb8596574ad13acd08e7bce6d246991645e3289281900390910190a2505050565b60006131aa8383604051806040016040528060158152602001747375627472616374696f6e20756e646572666c6f7760581b8152506139c3565b90505b92915050565b60006131aa83836040518060400160405280601781526020017f6d756c7469706c69636174696f6e206f766572666c6f77000000000000000000815250613a1d565b6131fd614022565b6040518060200160405280613229613223866a0c097ce7bc90715b34b9f160241b6131b3565b85613a9c565b90529392505050565b61323a614022565b604051806020016040528061322985600001518560000151613399565b600081600160e01b84106132e95760405162461bcd60e51b81526004018080602001828103825283818151815260200191508051906020019080838360005b838110156132ae578181015183820152602001613296565b50505050905090810190601f1680156132db5780820380516001836020036101000a031916815260200191505b509250505060405180910390fd5b509192915050565b600081600160201b84106132e95760405162461bcd60e51b81526020600482018181528351602484015283519092839260449091019190850190808383600083156132ae578181015183820152602001613296565b61334e614022565b604051806020016040528061322985600001518560000151613170565b60006a0c097ce7bc90715b34b9f160241b61338a8484600001516131b3565b8161339157fe5b049392505050565b60006131aa8383604051806040016040528060118152602001706164646974696f6e206f766572666c6f7760781b815250613acf565b60008183101580156133e15750600083115b156134f557609754604080516370a0823160e01b815230600482015290516000926001600160a01b0316916370a08231916024808301926020929190829003018186803b15801561343157600080fd5b505afa158015613445573d6000803e3d6000fd5b505050506040513d602081101561345b57600080fd5b505190508084116134f3576097546040805163a9059cbb60e01b81526001600160a01b038881166004830152602482018890529151919092169163a9059cbb9160448083019260209291908290030181600087803b1580156134bc57600080fd5b505af11580156134d0573d6000803e3d6000fd5b505050506040513d60208110156134e657600080fd5b50600092506119e0915050565b505b509092915050565b60006131aa61351484670de0b6b3a76400006131b3565b8351613a9c565b600054610100900460ff16806135345750613534612a35565b80613542575060005460ff16155b61357d5760405162461bcd60e51b815260040180806020018281038252602e815260200180614093602e913960400191505060405180910390fd5b600054610100900460ff16158015612ad8576000805460ff1961ff00199091166101001716600117905580156114bb576000805461ff001916905550565b600054610100900460ff16806135d457506135d4612a35565b806135e2575060005460ff16155b61361d5760405162461bcd60e51b815260040180806020018281038252602e815260200180614093602e913960400191505060405180910390fd5b600054610100900460ff16158015613648576000805460ff1961ff0019909116610100171660011790555b6000613652612173565b606580546001600160a01b0319166001600160a01b038316908117909155604051919250906000907f8be0079c531659141344cd1fd0a4f28419497f9722a3daafe3b4186f6b6457e0908290a35080156114bb576000805461ff001916905550565b60a0546000906301000000900460ff1680156136d9575060a054600160201b900460ff165b15613856576136e6614022565b6040518060200160405280846001600160a01b031663aa5af0fd6040518163ffffffff1660e01b815260040160206040518083038186803b15801561372a57600080fd5b505afa15801561373e573d6000803e3d6000fd5b505050506040513d602081101561375457600080fd5b505190529050613762614035565b61376c8483613b24565b9050613776614022565b50604080516020810190915281516001600160e01b03168152613797614022565b5060408051602080820183526001600160a01b038089166000908152609e8352848120918b1681529152919091205480825215613851576137d6614022565b6137e08383613346565b90506000613834886001600160a01b03166395dd91938b6040518263ffffffff1660e01b815260040180826001600160a01b0316815260200191505060206040518083038186803b15801561267857600080fd5b90506000613842828461336b565b97506131ad9650505050505050565b505050505b50600092915050565b60a054600090610100900460ff168015613881575060a05462010000900460ff165b156138565761388e614035565b61389783613d5e565b90506138a1614022565b50604080516020810190915281516001600160e01b031681526138c2614022565b5060408051602080820183526001600160a01b038088166000908152609d8352848120918a168152915291909120548082521580156139015750815115155b15613918576a0c097ce7bc90715b34b9f160241b81525b613920614022565b61392a8383613346565b90506000866001600160a01b03166370a08231896040518263ffffffff1660e01b815260040180826001600160a01b0316815260200191505060206040518083038186803b15801561397b57600080fd5b505afa15801561398f573d6000803e3d6000fd5b505050506040513d60208110156139a557600080fd5b5051905060006139b5828461336b565b96506131ad95505050505050565b60008184841115613a155760405162461bcd60e51b81526020600482018181528351602484015283519092839260449091019190850190808383600083156132ae578181015183820152602001613296565b505050900390565b6000831580613a2a575082155b15613a37575060006119e0565b83830283858281613a4457fe5b04148390613a935760405162461bcd60e51b81526020600482018181528351602484015283519092839260449091019190850190808383600083156132ae578181015183820152602001613296565b50949350505050565b60006131aa83836040518060400160405280600e81526020016d646976696465206279207a65726f60901b815250613fc0565b60008383018285821015613a935760405162461bcd60e51b81526020600482018181528351602484015283519092839260449091019190850190808383600083156132ae578181015183820152602001613296565b613b2c614035565b613b34614035565b506001600160a01b0383166000818152609c602090815260408083208151808301835290546001600160e01b038116825263ffffffff600160e01b9091048116828501908152958552609a90935290832054935190939243929091613b9b91849116613170565b9050600081118015613bad5750600083115b15613cf7576000613bf0886001600160a01b03166347bd37186040518163ffffffff1660e01b815260040160206040518083038186803b15801561294957600080fd5b90506000613bfe83866131b3565b9050613c08614022565b60008311613c255760405180602001604052806000815250613c2f565b613c2f82846131f5565b9050613c39614022565b604080516020810190915288516001600160e01b03168152613c5b9083613232565b90506040518060400160405280613ca883600001516040518060400160405280601a8152602001796e657720696e646578206578636565647320323234206269747360301b815250613257565b6001600160e01b03168152602001613ce3886040518060400160405280601c81526020016000805160206140e18339815191528152506132f1565b63ffffffff16815250975050505050613d53565b8015613d5357604051806040016040528085600001516001600160e01b03168152602001613d48846040518060400160405280601c81526020016000805160206140e18339815191528152506132f1565b63ffffffff16905293505b509195945050505050565b613d66614035565b613d6e614035565b506001600160a01b0382166000818152609b602090815260408083208151808301835290546001600160e01b038116825263ffffffff600160e01b9091048116828501908152958552609a90935290832054935190939243929091613dd591849116613170565b9050600081118015613de75750600083115b15613f5a576000866001600160a01b03166318160ddd6040518163ffffffff1660e01b815260040160206040518083038186803b158015613e2757600080fd5b505afa158015613e3b573d6000803e3d6000fd5b505050506040513d6020811015613e5157600080fd5b505190506000613e6183866131b3565b9050613e6b614022565b60008311613e885760405180602001604052806000815250613e92565b613e9282846131f5565b9050613e9c614022565b604080516020810190915288516001600160e01b03168152613ebe9083613232565b90506040518060400160405280613f0b83600001516040518060400160405280601a8152602001796e657720696e646578206578636565647320323234206269747360301b815250613257565b6001600160e01b03168152602001613f46886040518060400160405280601c81526020016000805160206140e18339815191528152506132f1565b63ffffffff16815250975050505050613fb6565b8015613fb657604051806040016040528085600001516001600160e01b03168152602001613fab846040518060400160405280601c81526020016000805160206140e18339815191528152506132f1565b63ffffffff16905293505b5091949350505050565b6000818361400f5760405162461bcd60e51b81526020600482018181528351602484015283519092839260449091019190850190808383600083156132ae578181015183820152602001613296565b5082848161401957fe5b04949350505050565b6040518060200160405280600081525090565b60408051808201909152600080825260208201529056fe4f776e61626c653a206e6577206f776e657220697320746865207a65726f20616464726573734f776e61626c653a2063616c6c6572206973206e6f7420746865206f776e6572436f6e747261637420696e7374616e63652068617320616c7265616479206265656e20696e697469616c697a656412ad31419ea664a1cf3160aa34e0fddd4ef4471faffbea66015bfc8bd1f7a61d626c6f636b206e756d62657220657863656564732033322062697473000000006f6e6c7920636f6d7074726f6c6c6572206f72206f776e657200000000000000a2646970667358221220b3f8a624204d04a9028dfd8987a76927b0e9aba08d13205ca443e3f4c46a0e2264736f6c634300060c0033",
  "linkReferences": {},
  "deployedLinkReferences": {}
}