{
  "_format": "hh-sol-artifact-1",
  "contractName": "Flashloan",
  "sourceName": "contracts/Lend/flashloan/Flashloan.sol",
  "abi": [
    {
      "anonymous": false,
      "inputs": [
        {
          "indexed": false,
          "internalType": "string",
          "name": "action",
          "type": "string"
        },
        {
          "indexed": false,
          "internalType": "address[]",
          "name": "addresses",
          "type": "address[]"
        }
      ],
      "name": "Action",
      "type": "event"
    },
    {
      "anonymous": false,
      "inputs": [
        {
          "indexed": false,
          "internalType": "address",
          "name": "_receiver",
          "type": "address"
        },
        {
          "indexed": false,
          "internalType": "address",
          "name": "_reserve",
          "type": "address"
        },
        {
          "indexed": false,
          "internalType": "uint256",
          "name": "_amount",
          "type": "uint256"
        },
        {
          "indexed": false,
          "internalType": "uint256",
          "name": "amountFee",
          "type": "uint256"
        },
        {
          "indexed": false,
          "internalType": "uint256",
          "name": "timestamp",
          "type": "uint256"
        }
      ],
      "name": "FlashLoan",
      "type": "event"
    },
    {
      "anonymous": false,
      "inputs": [
        {
          "indexed": true,
          "internalType": "address",
          "name": "previousOwner",
          "type": "address"
        },
        {
          "indexed": true,
          "internalType": "address",
          "name": "newOwner",
          "type": "address"
        }
      ],
      "name": "OwnershipTransferred",
      "type": "event"
    },
    {
      "inputs": [
        {
          "internalType": "address",
          "name": "",
          "type": "address"
        }
      ],
      "name": "activeCaller",
      "outputs": [
        {
          "internalType": "bool",
          "name": "",
          "type": "bool"
        }
      ],
      "stateMutability": "view",
      "type": "function"
    },
    {
      "inputs": [
        {
          "internalType": "address",
          "name": "",
          "type": "address"
        }
      ],
      "name": "activeReceiver",
      "outputs": [
        {
          "internalType": "bool",
          "name": "",
          "type": "bool"
        }
      ],
      "stateMutability": "view",
      "type": "function"
    },
    {
      "inputs": [],
      "name": "ethAddress",
      "outputs": [
        {
          "internalType": "address",
          "name": "",
          "type": "address"
        }
      ],
      "stateMutability": "view",
      "type": "function"
    },
    {
      "inputs": [
        {
          "internalType": "address",
          "name": "_pToken",
          "type": "address"
        },
        {
          "internalType": "address",
          "name": "_receiver",
          "type": "address"
        },
        {
          "internalType": "address",
          "name": "_reserve",
          "type": "address"
        },
        {
          "internalType": "uint256",
          "name": "_amount",
          "type": "uint256"
        },
        {
          "internalType": "bytes",
          "name": "_params",
          "type": "bytes"
        }
      ],
      "name": "flashloan",
      "outputs": [],
      "stateMutability": "nonpayable",
      "type": "function"
    },
    {
      "inputs": [],
      "name": "initialize",
      "outputs": [],
      "stateMutability": "nonpayable",
      "type": "function"
    },
    {
      "inputs": [],
      "name": "owner",
      "outputs": [
        {
          "internalType": "address",
          "name": "",
          "type": "address"
        }
      ],
      "stateMutability": "view",
      "type": "function"
    },
    {
      "inputs": [
        {
          "internalType": "address[]",
          "name": "callers",
          "type": "address[]"
        }
      ],
      "name": "registerActiveCaller",
      "outputs": [],
      "stateMutability": "nonpayable",
      "type": "function"
    },
    {
      "inputs": [
        {
          "internalType": "address[]",
          "name": "receivers",
          "type": "address[]"
        }
      ],
      "name": "registerActiveReceiver",
      "outputs": [],
      "stateMutability": "nonpayable",
      "type": "function"
    },
    {
      "inputs": [],
      "name": "renounceOwnership",
      "outputs": [],
      "stateMutability": "nonpayable",
      "type": "function"
    },
    {
      "inputs": [
        {
          "internalType": "address payable",
          "name": "_destination",
          "type": "address"
        },
        {
          "internalType": "address",
          "name": "_reserve",
          "type": "address"
        },
        {
          "internalType": "uint256",
          "name": "_amount",
          "type": "uint256"
        }
      ],
      "name": "transfer",
      "outputs": [],
      "stateMutability": "nonpayable",
      "type": "function"
    },
    {
      "inputs": [
        {
          "internalType": "address",
          "name": "newOwner",
          "type": "address"
        }
      ],
      "name": "transferOwnership",
      "outputs": [],
      "stateMutability": "nonpayable",
      "type": "function"
    },
    {
      "inputs": [
        {
          "internalType": "address[]",
          "name": "callers",
          "type": "address[]"
        }
      ],
      "name": "unRegisterActiveCaller",
      "outputs": [],
      "stateMutability": "nonpayable",
      "type": "function"
    },
    {
      "inputs": [
        {
          "internalType": "address[]",
          "name": "receivers",
          "type": "address[]"
        }
      ],
      "name": "unRegisterActiveReceiver",
      "outputs": [],
      "stateMutability": "nonpayable",
      "type": "function"
    },
    {
      "stateMutability": "payable",
      "type": "receive"
    }
  ],
  "bytecode": "0x608060405234801561001057600080fd5b506118ce806100206000396000f3fe6080604052600436106100c65760003560e01c80638129fc1c1161007f578063beabacc811610059578063beabacc81461046e578063befdd1e8146104b1578063e73396af1461055f578063f2fde38b14610592576100cd565b80638129fc1c146103965780638bca6559146103ab5780638da5cb5b14610459576100cd565b80632ee0e4fd146100d2578063322042f21461011957806341398b15146101f4578063715018a614610225578063726707fa1461023a57806372d998c8146102e8576100cd565b366100cd57005b600080fd5b3480156100de57600080fd5b50610105600480360360208110156100f557600080fd5b50356001600160a01b03166105c5565b604080519115158252519081900360200190f35b34801561012557600080fd5b506101f2600480360360a081101561013c57600080fd5b6001600160a01b03823581169260208101358216926040820135909216916060820135919081019060a081016080820135600160201b81111561017e57600080fd5b82018360208201111561019057600080fd5b803590602001918460018302840111600160201b831117156101b157600080fd5b91908080601f0160208091040260200160405190810160405280939291908181526020018383808284376000920191909152509295506105da945050505050565b005b34801561020057600080fd5b50610209610922565b604080516001600160a01b039092168252519081900360200190f35b34801561023157600080fd5b506101f261093a565b34801561024657600080fd5b506101f26004803603602081101561025d57600080fd5b810190602081018135600160201b81111561027757600080fd5b82018360208201111561028957600080fd5b803590602001918460208302840111600160201b831117156102aa57600080fd5b9190808060200260200160405190810160405280939291908181526020018383602002808284376000920191909152509295506109dc945050505050565b3480156102f457600080fd5b506101f26004803603602081101561030b57600080fd5b810190602081018135600160201b81111561032557600080fd5b82018360208201111561033757600080fd5b803590602001918460208302840111600160201b8311171561035857600080fd5b919080806020026020016040519081016040528093929190818152602001838360200280828437600092019190915250929550610b1b945050505050565b3480156103a257600080fd5b506101f2610c4a565b3480156103b757600080fd5b506101f2600480360360208110156103ce57600080fd5b810190602081018135600160201b8111156103e857600080fd5b8201836020820111156103fa57600080fd5b803590602001918460208302840111600160201b8311171561041b57600080fd5b919080806020026020016040519081016040528093929190818152602001838360200280828437600092019190915250929550610cf4945050505050565b34801561046557600080fd5b50610209610e21565b34801561047a57600080fd5b506101f26004803603606081101561049157600080fd5b506001600160a01b03813581169160208101359091169060400135610e30565b3480156104bd57600080fd5b506101f2600480360360208110156104d457600080fd5b810190602081018135600160201b8111156104ee57600080fd5b82018360208201111561050057600080fd5b803590602001918460208302840111600160201b8311171561052157600080fd5b919080806020026020016040519081016040528093929190818152602001838360200280828437600092019190915250929550610e98945050505050565b34801561056b57600080fd5b506101056004803603602081101561058257600080fd5b50356001600160a01b0316610fc6565b34801561059e57600080fd5b506101f2600480360360208110156105b557600080fd5b50356001600160a01b0316610fdb565b60976020526000908152604090205460ff1681565b3360008181526097602052604090205460ff1661063e576040805162461bcd60e51b815260206004820152601f60248201527f416374696f6e207265717569726520616e206163746976652063616c6c657200604482015290519081900360640190fd5b60008311610693576040805162461bcd60e51b815260206004820152601c60248201527f616d6f756e74206d75737420626967676572207468616e207a65726f00000000604482015290519081900360640190fd5b6001600160a01b03851660009081526098602052604090205460ff16610700576040805162461bcd60e51b815260206004820152601a60248201527f7265717569726520616e20616374697665207265636569766572000000000000604482015290519081900360640190fd5b600061070c30866110d4565b90508381101561074d5760405162461bcd60e51b81526004018080602001828103825260318152602001806117786031913960400191505060405180910390fd5b6000610759868661118e565b90508680610768818989611196565b816001600160a01b031663ee8725588989868a6040518563ffffffff1660e01b815260040180856001600160a01b0316815260200184815260200183815260200180602001828103825283818151815260200191508051906020019080838360005b838110156107e25781810151838201526020016107ca565b50505050905090810190601f16801561080f5780820380516001836020036101000a031916815260200191505b5095505050505050600060405180830381600087803b15801561083157600080fd5b505af1158015610845573d6000803e3d6000fd5b505050506000610855308a6110d4565b90506000610863828761120b565b9050848110156108a45760405162461bcd60e51b81526004018080602001828103825260328152602001806117ef6032913960400191505060405180910390fd5b6108af878b8b611196565b8b6108bc818c8989611254565b604080516001600160a01b03808f1682528d1660208201528082018c90526060810188905242608082015290517fea9aac78e0e48af4897630506e75b1ddba28503b58e70fe7bd92bce4f6efde7c9181900360a00190a150505050505050505050505050565b73eeeeeeeeeeeeeeeeeeeeeeeeeeeeeeeeeeeeeeee81565b61094261125a565b6065546001600160a01b03908116911614610992576040805162461bcd60e51b81526020600482018190526024820152600080516020611821833981519152604482015290519081900360640190fd5b6065546040516000916001600160a01b0316907f8be0079c531659141344cd1fd0a4f28419497f9722a3daafe3b4186f6b6457e0908390a3606580546001600160a01b0319169055565b6109e461125a565b6065546001600160a01b03908116911614610a34576040805162461bcd60e51b81526020600482018190526024820152600080516020611821833981519152604482015290519081900360640190fd5b60005b8151811015610a82576000828281518110610a4e57fe5b6020908102919091018101516001600160a01b03166000908152609790915260409020805460ff1916905550600101610a37565b506000805160206117cf8339815191528160405180806020018060200183810383526016815260200180753ab72932b3b4b9ba32b920b1ba34bb32a1b0b63632b960511b815250602001838103825284818151815260200191508051906020019060200280838360005b83811015610b04578181015183820152602001610aec565b50505050905001935050505060405180910390a150565b610b2361125a565b6065546001600160a01b03908116911614610b73576040805162461bcd60e51b81526020600482018190526024820152600080516020611821833981519152604482015290519081900360640190fd5b60005b8151811015610bc9576000828281518110610b8d57fe5b6020908102919091018101516001600160a01b03166000908152609890915260409020805460ff19166001908117909155919091019050610b76565b506000805160206117cf8339815191528160405180806020018060200183810383526016815260200180753932b3b4b9ba32b920b1ba34bb32a932b1b2b4bb32b960511b8152506020018381038252848181518152602001915080519060200190602002808383600083811015610b04578181015183820152602001610aec565b600054610100900460ff1680610c635750610c6361125e565b80610c71575060005460ff16155b610cac5760405162461bcd60e51b815260040180806020018281038252602e815260200180611841602e913960400191505060405180910390fd5b600054610100900460ff16158015610cd7576000805460ff1961ff0019909116610100171660011790555b610cdf611264565b8015610cf1576000805461ff00191690555b50565b610cfc61125a565b6065546001600160a01b03908116911614610d4c576040805162461bcd60e51b81526020600482018190526024820152600080516020611821833981519152604482015290519081900360640190fd5b60005b8151811015610da2576000828281518110610d6657fe5b6020908102919091018101516001600160a01b03166000908152609790915260409020805460ff19166001908117909155919091019050610d4f565b506000805160206117cf8339815191528160405180806020018060200183810383526014815260200180733932b3b4b9ba32b920b1ba34bb32a1b0b63632b960611b8152506020018381038252848181518152602001915080519060200190602002808383600083811015610b04578181015183820152602001610aec565b6065546001600160a01b031690565b610e3861125a565b6065546001600160a01b03908116911614610e88576040805162461bcd60e51b81526020600482018190526024820152600080516020611821833981519152604482015290519081900360640190fd5b610e93838383611196565b505050565b610ea061125a565b6065546001600160a01b03908116911614610ef0576040805162461bcd60e51b81526020600482018190526024820152600080516020611821833981519152604482015290519081900360640190fd5b60005b8151811015610f3e576000828281518110610f0a57fe5b6020908102919091018101516001600160a01b03166000908152609890915260409020805460ff1916905550600101610ef3565b506000805160206117cf83398151915281604051808060200180602001838103835260188152602001807f756e5265676973746572416374697665526563656976657200000000000000008152506020018381038252848181518152602001915080519060200190602002808383600083811015610b04578181015183820152602001610aec565b60986020526000908152604090205460ff1681565b610fe361125a565b6065546001600160a01b03908116911614611033576040805162461bcd60e51b81526020600482018190526024820152600080516020611821833981519152604482015290519081900360640190fd5b6001600160a01b0381166110785760405162461bcd60e51b81526004018080602001828103825260268152602001806117a96026913960400191505060405180910390fd5b6065546040516001600160a01b038084169216907f8be0079c531659141344cd1fd0a4f28419497f9722a3daafe3b4186f6b6457e090600090a3606580546001600160a01b0319166001600160a01b0392909216919091179055565b60006001600160a01b03821673eeeeeeeeeeeeeeeeeeeeeeeeeeeeeeeeeeeeeeee141561110c57506001600160a01b03821631611188565b816001600160a01b03166370a08231846040518263ffffffff1660e01b815260040180826001600160a01b0316815260200191505060206040518083038186803b15801561115957600080fd5b505afa15801561116d573d6000803e3d6000fd5b505050506040513d602081101561118357600080fd5b505190505b92915050565b600092915050565b6001600160a01b03821673eeeeeeeeeeeeeeeeeeeeeeeeeeeeeeeeeeeeeeee14156111f7576040516001600160a01b0384169082156108fc029083906000818181858888f193505050501580156111f1573d6000803e3d6000fd5b50610e93565b610e936001600160a01b0383168483611301565b600061124d83836040518060400160405280601e81526020017f536166654d6174683a207375627472616374696f6e206f766572666c6f770000815250611353565b9392505050565b50505050565b3390565b303b1590565b600054610100900460ff168061127d575061127d61125e565b8061128b575060005460ff16155b6112c65760405162461bcd60e51b815260040180806020018281038252602e815260200180611841602e913960400191505060405180910390fd5b600054610100900460ff161580156112f1576000805460ff1961ff0019909116610100171660011790555b6112f96113ea565b610cdf61148a565b604080516001600160a01b038416602482015260448082018490528251808303909101815260649091019091526020810180516001600160e01b031663a9059cbb60e01b179052610e93908490611583565b600081848411156113e25760405162461bcd60e51b81526004018080602001828103825283818151815260200191508051906020019080838360005b838110156113a757818101518382015260200161138f565b50505050905090810190601f1680156113d45780820380516001836020036101000a031916815260200191505b509250505060405180910390fd5b505050900390565b600054610100900460ff1680611403575061140361125e565b80611411575060005460ff16155b61144c5760405162461bcd60e51b815260040180806020018281038252602e815260200180611841602e913960400191505060405180910390fd5b600054610100900460ff16158015610cdf576000805460ff1961ff0019909116610100171660011790558015610cf1576000805461ff001916905550565b600054610100900460ff16806114a357506114a361125e565b806114b1575060005460ff16155b6114ec5760405162461bcd60e51b815260040180806020018281038252602e815260200180611841602e913960400191505060405180910390fd5b600054610100900460ff16158015611517576000805460ff1961ff0019909116610100171660011790555b600061152161125a565b606580546001600160a01b0319166001600160a01b038316908117909155604051919250906000907f8be0079c531659141344cd1fd0a4f28419497f9722a3daafe3b4186f6b6457e0908290a3508015610cf1576000805461ff001916905550565b611595826001600160a01b031661173b565b6115e6576040805162461bcd60e51b815260206004820152601f60248201527f5361666545524332303a2063616c6c20746f206e6f6e2d636f6e747261637400604482015290519081900360640190fd5b60006060836001600160a01b0316836040518082805190602001908083835b602083106116245780518252601f199092019160209182019101611605565b6001836020036101000a0380198251168184511680821785525050505050509050019150506000604051808303816000865af19150503d8060008114611686576040519150601f19603f3d011682016040523d82523d6000602084013e61168b565b606091505b5091509150816116e2576040805162461bcd60e51b815260206004820181905260248201527f5361666545524332303a206c6f772d6c6576656c2063616c6c206661696c6564604482015290519081900360640190fd5b805115611254578080602001905160208110156116fe57600080fd5b50516112545760405162461bcd60e51b815260040180806020018281038252602a81526020018061186f602a913960400191505060405180910390fd5b6000813f7fc5d2460186f7233c927e7db2dcc703c0e500b653ca82273b7bfad8045d85a47081811480159061176f57508115155b94935050505056fe5468657265206973206e6f7420656e6f756768206c697175696469747920617661696c61626c6520746f20626f72726f774f776e61626c653a206e6577206f776e657220697320746865207a65726f20616464726573732f8d6363bfbcd5d3290cd5be86d5f11e49adf8133a989b3ba36f350da139b7ba5468652061637475616c2062616c616e6365206f66207468652070726f746f636f6c20697320696e636f6e73697374656e744f776e61626c653a2063616c6c6572206973206e6f7420746865206f776e6572436f6e747261637420696e7374616e63652068617320616c7265616479206265656e20696e697469616c697a65645361666545524332303a204552433230206f7065726174696f6e20646964206e6f742073756363656564a2646970667358221220f451b88c53839d8738fa61f0cd2eb355e786d3d878aba1eed8812838309a4af364736f6c634300060c0033",
  "linkReferences": {},
  "deployedLinkReferences": {}
}