{
  "_format": "hh-sol-artifact-1",
  "contractName": "PEther",
  "sourceName": "contracts/Lend/token/PEther.sol",
  "abi": [
    {
      "anonymous": false,
      "inputs": [
        {
          "indexed": false,
          "internalType": "uint256",
          "name": "cashPrior",
          "type": "uint256"
        },
        {
          "indexed": false,
          "internalType": "uint256",
          "name": "interestAccumulated",
          "type": "uint256"
        },
        {
          "indexed": false,
          "internalType": "uint256",
          "name": "borrowIndex",
          "type": "uint256"
        },
        {
          "indexed": false,
          "internalType": "uint256",
          "name": "totalBorrows",
          "type": "uint256"
        },
        {
          "indexed": false,
          "internalType": "uint256",
          "name": "totalReserves",
          "type": "uint256"
        }
      ],
      "name": "AccrueInterest",
      "type": "event"
    },
    {
      "anonymous": false,
      "inputs": [
        {
          "indexed": true,
          "internalType": "address",
          "name": "owner",
          "type": "address"
        },
        {
          "indexed": true,
          "internalType": "address",
          "name": "spender",
          "type": "address"
        },
        {
          "indexed": false,
          "internalType": "uint256",
          "name": "amount",
          "type": "uint256"
        }
      ],
      "name": "Approval",
      "type": "event"
    },
    {
      "anonymous": false,
      "inputs": [
        {
          "indexed": false,
          "internalType": "address",
          "name": "borrower",
          "type": "address"
        },
        {
          "indexed": false,
          "internalType": "uint256",
          "name": "borrowAmount",
          "type": "uint256"
        },
        {
          "indexed": false,
          "internalType": "uint256",
          "name": "accountBorrows",
          "type": "uint256"
        },
        {
          "indexed": false,
          "internalType": "uint256",
          "name": "totalBorrows",
          "type": "uint256"
        },
        {
          "indexed": false,
          "internalType": "uint256",
          "name": "interestBalancePrior",
          "type": "uint256"
        }
      ],
      "name": "Borrow",
      "type": "event"
    },
    {
      "anonymous": false,
      "inputs": [
        {
          "indexed": false,
          "internalType": "uint256",
          "name": "error",
          "type": "uint256"
        },
        {
          "indexed": false,
          "internalType": "uint256",
          "name": "info",
          "type": "uint256"
        },
        {
          "indexed": false,
          "internalType": "uint256",
          "name": "detail",
          "type": "uint256"
        }
      ],
      "name": "Failure",
      "type": "event"
    },
    {
      "anonymous": false,
      "inputs": [
        {
          "indexed": false,
          "internalType": "address",
          "name": "liquidator",
          "type": "address"
        },
        {
          "indexed": false,
          "internalType": "address",
          "name": "borrower",
          "type": "address"
        },
        {
          "indexed": false,
          "internalType": "uint256",
          "name": "repayAmount",
          "type": "uint256"
        },
        {
          "indexed": false,
          "internalType": "address",
          "name": "pTokenCollateral",
          "type": "address"
        },
        {
          "indexed": false,
          "internalType": "uint256",
          "name": "seizeTokens",
          "type": "uint256"
        }
      ],
      "name": "LiquidateBorrow",
      "type": "event"
    },
    {
      "anonymous": false,
      "inputs": [
        {
          "indexed": false,
          "internalType": "address",
          "name": "minter",
          "type": "address"
        },
        {
          "indexed": false,
          "internalType": "uint256",
          "name": "mintAmount",
          "type": "uint256"
        },
        {
          "indexed": false,
          "internalType": "uint256",
          "name": "mintTokens",
          "type": "uint256"
        },
        {
          "indexed": false,
          "internalType": "uint256",
          "name": "totalSupply",
          "type": "uint256"
        },
        {
          "indexed": false,
          "internalType": "uint256",
          "name": "accountTokens",
          "type": "uint256"
        }
      ],
      "name": "Mint",
      "type": "event"
    },
    {
      "anonymous": false,
      "inputs": [
        {
          "indexed": false,
          "internalType": "contract IComptroller",
          "name": "oldComptroller",
          "type": "address"
        },
        {
          "indexed": false,
          "internalType": "contract IComptroller",
          "name": "newComptroller",
          "type": "address"
        }
      ],
      "name": "NewComptroller",
      "type": "event"
    },
    {
      "anonymous": false,
      "inputs": [
        {
          "indexed": false,
          "internalType": "contract IInterestRateModel",
          "name": "oldInterestRateModel",
          "type": "address"
        },
        {
          "indexed": false,
          "internalType": "contract IInterestRateModel",
          "name": "newInterestRateModel",
          "type": "address"
        }
      ],
      "name": "NewMarketInterestRateModel",
      "type": "event"
    },
    {
      "anonymous": false,
      "inputs": [
        {
          "indexed": false,
          "internalType": "address",
          "name": "oldMigrator",
          "type": "address"
        },
        {
          "indexed": false,
          "internalType": "address",
          "name": "newMigrator",
          "type": "address"
        }
      ],
      "name": "NewMigrator",
      "type": "event"
    },
    {
      "anonymous": false,
      "inputs": [
        {
          "indexed": false,
          "internalType": "uint256",
          "name": "oldMinInterestAccumulated",
          "type": "uint256"
        },
        {
          "indexed": false,
          "internalType": "uint256",
          "name": "newMinInterestAccumulated",
          "type": "uint256"
        }
      ],
      "name": "NewMinInterestAccumulated",
      "type": "event"
    },
    {
      "anonymous": false,
      "inputs": [
        {
          "indexed": false,
          "internalType": "uint256",
          "name": "oldReserveFactorMantissa",
          "type": "uint256"
        },
        {
          "indexed": false,
          "internalType": "uint256",
          "name": "newReserveFactorMantissa",
          "type": "uint256"
        }
      ],
      "name": "NewReserveFactor",
      "type": "event"
    },
    {
      "anonymous": false,
      "inputs": [
        {
          "indexed": true,
          "internalType": "address",
          "name": "previousOwner",
          "type": "address"
        },
        {
          "indexed": true,
          "internalType": "address",
          "name": "newOwner",
          "type": "address"
        }
      ],
      "name": "OwnershipTransferred",
      "type": "event"
    },
    {
      "anonymous": false,
      "inputs": [
        {
          "indexed": false,
          "internalType": "address",
          "name": "redeemer",
          "type": "address"
        },
        {
          "indexed": false,
          "internalType": "uint256",
          "name": "redeemAmount",
          "type": "uint256"
        },
        {
          "indexed": false,
          "internalType": "uint256",
          "name": "redeemTokens",
          "type": "uint256"
        },
        {
          "indexed": false,
          "internalType": "uint256",
          "name": "totalSupply",
          "type": "uint256"
        },
        {
          "indexed": false,
          "internalType": "uint256",
          "name": "accountTokens",
          "type": "uint256"
        }
      ],
      "name": "Redeem",
      "type": "event"
    },
    {
      "anonymous": false,
      "inputs": [
        {
          "indexed": false,
          "internalType": "address",
          "name": "payer",
          "type": "address"
        },
        {
          "indexed": false,
          "internalType": "address",
          "name": "borrower",
          "type": "address"
        },
        {
          "indexed": false,
          "internalType": "uint256",
          "name": "repayAmount",
          "type": "uint256"
        },
        {
          "indexed": false,
          "internalType": "uint256",
          "name": "accountBorrows",
          "type": "uint256"
        },
        {
          "indexed": false,
          "internalType": "uint256",
          "name": "totalBorrows",
          "type": "uint256"
        },
        {
          "indexed": false,
          "internalType": "uint256",
          "name": "interestBalancePrior",
          "type": "uint256"
        }
      ],
      "name": "RepayBorrow",
      "type": "event"
    },
    {
      "anonymous": false,
      "inputs": [
        {
          "indexed": false,
          "internalType": "address",
          "name": "benefactor",
          "type": "address"
        },
        {
          "indexed": false,
          "internalType": "uint256",
          "name": "addAmount",
          "type": "uint256"
        },
        {
          "indexed": false,
          "internalType": "uint256",
          "name": "newTotalReserves",
          "type": "uint256"
        }
      ],
      "name": "ReservesAdded",
      "type": "event"
    },
    {
      "anonymous": false,
      "inputs": [
        {
          "indexed": false,
          "internalType": "address",
          "name": "admin",
          "type": "address"
        },
        {
          "indexed": false,
          "internalType": "uint256",
          "name": "reduceAmount",
          "type": "uint256"
        },
        {
          "indexed": false,
          "internalType": "uint256",
          "name": "newTotalReserves",
          "type": "uint256"
        }
      ],
      "name": "ReservesReduced",
      "type": "event"
    },
    {
      "anonymous": false,
      "inputs": [
        {
          "indexed": true,
          "internalType": "address",
          "name": "from",
          "type": "address"
        },
        {
          "indexed": true,
          "internalType": "address",
          "name": "to",
          "type": "address"
        },
        {
          "indexed": false,
          "internalType": "uint256",
          "name": "amount",
          "type": "uint256"
        }
      ],
      "name": "Transfer",
      "type": "event"
    },
    {
      "inputs": [
        {
          "internalType": "uint256",
          "name": "reduceAmount",
          "type": "uint256"
        }
      ],
      "name": "_reduceReserves",
      "outputs": [
        {
          "internalType": "uint256",
          "name": "",
          "type": "uint256"
        }
      ],
      "stateMutability": "nonpayable",
      "type": "function"
    },
    {
      "inputs": [
        {
          "internalType": "contract IComptroller",
          "name": "newComptroller",
          "type": "address"
        }
      ],
      "name": "_setComptroller",
      "outputs": [
        {
          "internalType": "uint256",
          "name": "",
          "type": "uint256"
        }
      ],
      "stateMutability": "nonpayable",
      "type": "function"
    },
    {
      "inputs": [
        {
          "internalType": "address",
          "name": "_flashloan",
          "type": "address"
        }
      ],
      "name": "_setFlashloan",
      "outputs": [],
      "stateMutability": "nonpayable",
      "type": "function"
    },
    {
      "inputs": [
        {
          "internalType": "contract IInterestRateModel",
          "name": "newInterestRateModel",
          "type": "address"
        }
      ],
      "name": "_setInterestRateModel",
      "outputs": [
        {
          "internalType": "uint256",
          "name": "",
          "type": "uint256"
        }
      ],
      "stateMutability": "nonpayable",
      "type": "function"
    },
    {
      "inputs": [
        {
          "internalType": "address",
          "name": "newMigrator",
          "type": "address"
        }
      ],
      "name": "_setMigrator",
      "outputs": [
        {
          "internalType": "uint256",
          "name": "",
          "type": "uint256"
        }
      ],
      "stateMutability": "nonpayable",
      "type": "function"
    },
    {
      "inputs": [
        {
          "internalType": "uint256",
          "name": "_minInterestAccumulated",
          "type": "uint256"
        }
      ],
      "name": "_setMinInterestAccumulated",
      "outputs": [
        {
          "internalType": "uint256",
          "name": "",
          "type": "uint256"
        }
      ],
      "stateMutability": "nonpayable",
      "type": "function"
    },
    {
      "inputs": [
        {
          "internalType": "uint256",
          "name": "newReserveFactorMantissa",
          "type": "uint256"
        }
      ],
      "name": "_setReserveFactor",
      "outputs": [
        {
          "internalType": "uint256",
          "name": "",
          "type": "uint256"
        }
      ],
      "stateMutability": "nonpayable",
      "type": "function"
    },
    {
      "inputs": [],
      "name": "accrualBlockNumber",
      "outputs": [
        {
          "internalType": "uint256",
          "name": "",
          "type": "uint256"
        }
      ],
      "stateMutability": "view",
      "type": "function"
    },
    {
      "inputs": [],
      "name": "accrueInterest",
      "outputs": [
        {
          "internalType": "uint256",
          "name": "",
          "type": "uint256"
        }
      ],
      "stateMutability": "nonpayable",
      "type": "function"
    },
    {
      "inputs": [],
      "name": "accrueInterestSnapshot",
      "outputs": [
        {
          "internalType": "uint256[]",
          "name": "",
          "type": "uint256[]"
        }
      ],
      "stateMutability": "view",
      "type": "function"
    },
    {
      "inputs": [
        {
          "internalType": "address",
          "name": "owner",
          "type": "address"
        },
        {
          "internalType": "address",
          "name": "spender",
          "type": "address"
        }
      ],
      "name": "allowance",
      "outputs": [
        {
          "internalType": "uint256",
          "name": "",
          "type": "uint256"
        }
      ],
      "stateMutability": "view",
      "type": "function"
    },
    {
      "inputs": [
        {
          "internalType": "address",
          "name": "spender",
          "type": "address"
        },
        {
          "internalType": "uint256",
          "name": "amount",
          "type": "uint256"
        }
      ],
      "name": "approve",
      "outputs": [
        {
          "internalType": "bool",
          "name": "",
          "type": "bool"
        }
      ],
      "stateMutability": "nonpayable",
      "type": "function"
    },
    {
      "inputs": [
        {
          "internalType": "address",
          "name": "owner",
          "type": "address"
        }
      ],
      "name": "balanceOf",
      "outputs": [
        {
          "internalType": "uint256",
          "name": "",
          "type": "uint256"
        }
      ],
      "stateMutability": "view",
      "type": "function"
    },
    {
      "inputs": [
        {
          "internalType": "address",
          "name": "owner",
          "type": "address"
        }
      ],
      "name": "balanceOfUnderlying",
      "outputs": [
        {
          "internalType": "uint256",
          "name": "",
          "type": "uint256"
        }
      ],
      "stateMutability": "nonpayable",
      "type": "function"
    },
    {
      "inputs": [
        {
          "internalType": "uint256",
          "name": "borrowAmount",
          "type": "uint256"
        }
      ],
      "name": "borrow",
      "outputs": [
        {
          "internalType": "uint256",
          "name": "",
          "type": "uint256"
        }
      ],
      "stateMutability": "nonpayable",
      "type": "function"
    },
    {
      "inputs": [
        {
          "internalType": "address",
          "name": "account",
          "type": "address"
        }
      ],
      "name": "borrowBalanceCurrent",
      "outputs": [
        {
          "internalType": "uint256",
          "name": "",
          "type": "uint256"
        }
      ],
      "stateMutability": "nonpayable",
      "type": "function"
    },
    {
      "inputs": [
        {
          "internalType": "address",
          "name": "account",
          "type": "address"
        }
      ],
      "name": "borrowBalanceStored",
      "outputs": [
        {
          "internalType": "uint256",
          "name": "",
          "type": "uint256"
        }
      ],
      "stateMutability": "view",
      "type": "function"
    },
    {
      "inputs": [],
      "name": "borrowIndex",
      "outputs": [
        {
          "internalType": "uint256",
          "name": "",
          "type": "uint256"
        }
      ],
      "stateMutability": "view",
      "type": "function"
    },
    {
      "inputs": [],
      "name": "borrowRatePerBlock",
      "outputs": [
        {
          "internalType": "uint256",
          "name": "",
          "type": "uint256"
        }
      ],
      "stateMutability": "view",
      "type": "function"
    },
    {
      "inputs": [],
      "name": "comptroller",
      "outputs": [
        {
          "internalType": "contract IComptroller",
          "name": "",
          "type": "address"
        }
      ],
      "stateMutability": "view",
      "type": "function"
    },
    {
      "inputs": [],
      "name": "decimals",
      "outputs": [
        {
          "internalType": "uint8",
          "name": "",
          "type": "uint8"
        }
      ],
      "stateMutability": "view",
      "type": "function"
    },
    {
      "inputs": [],
      "name": "exchangeRateCurrent",
      "outputs": [
        {
          "internalType": "uint256",
          "name": "",
          "type": "uint256"
        }
      ],
      "stateMutability": "nonpayable",
      "type": "function"
    },
    {
      "inputs": [],
      "name": "exchangeRateStored",
      "outputs": [
        {
          "internalType": "uint256",
          "name": "",
          "type": "uint256"
        }
      ],
      "stateMutability": "view",
      "type": "function"
    },
    {
      "inputs": [
        {
          "internalType": "address",
          "name": "_receiver",
          "type": "address"
        },
        {
          "internalType": "uint256",
          "name": "_amount",
          "type": "uint256"
        },
        {
          "internalType": "bytes",
          "name": "_params",
          "type": "bytes"
        }
      ],
      "name": "flashloan",
      "outputs": [],
      "stateMutability": "nonpayable",
      "type": "function"
    },
    {
      "inputs": [],
      "name": "flashloanInstance",
      "outputs": [
        {
          "internalType": "contract IFlashloan",
          "name": "",
          "type": "address"
        }
      ],
      "stateMutability": "view",
      "type": "function"
    },
    {
      "inputs": [
        {
          "internalType": "address",
          "name": "account",
          "type": "address"
        }
      ],
      "name": "getAccountSnapshot",
      "outputs": [
        {
          "internalType": "uint256",
          "name": "",
          "type": "uint256"
        },
        {
          "internalType": "uint256",
          "name": "",
          "type": "uint256"
        },
        {
          "internalType": "uint256",
          "name": "",
          "type": "uint256"
        },
        {
          "internalType": "uint256",
          "name": "",
          "type": "uint256"
        }
      ],
      "stateMutability": "view",
      "type": "function"
    },
    {
      "inputs": [],
      "name": "getCash",
      "outputs": [
        {
          "internalType": "uint256",
          "name": "",
          "type": "uint256"
        }
      ],
      "stateMutability": "view",
      "type": "function"
    },
    {
      "inputs": [
        {
          "internalType": "contract IComptroller",
          "name": "comptroller_",
          "type": "address"
        },
        {
          "internalType": "contract IInterestRateModel",
          "name": "interestRateModel_",
          "type": "address"
        },
        {
          "internalType": "uint256",
          "name": "initialExchangeRateMantissa_",
          "type": "uint256"
        },
        {
          "internalType": "string",
          "name": "name_",
          "type": "string"
        },
        {
          "internalType": "string",
          "name": "symbol_",
          "type": "string"
        },
        {
          "internalType": "uint8",
          "name": "decimals_",
          "type": "uint8"
        }
      ],
      "name": "init",
      "outputs": [],
      "stateMutability": "nonpayable",
      "type": "function"
    },
    {
      "inputs": [
        {
          "internalType": "contract IComptroller",
          "name": "comptroller_",
          "type": "address"
        },
        {
          "internalType": "contract IInterestRateModel",
          "name": "interestRateModel_",
          "type": "address"
        },
        {
          "internalType": "uint256",
          "name": "initialExchangeRateMantissa_",
          "type": "uint256"
        },
        {
          "internalType": "string",
          "name": "name_",
          "type": "string"
        },
        {
          "internalType": "string",
          "name": "symbol_",
          "type": "string"
        },
        {
          "internalType": "uint8",
          "name": "decimals_",
          "type": "uint8"
        }
      ],
      "name": "initialize",
      "outputs": [],
      "stateMutability": "nonpayable",
      "type": "function"
    },
    {
      "inputs": [],
      "name": "interestRateModel",
      "outputs": [
        {
          "internalType": "contract IInterestRateModel",
          "name": "",
          "type": "address"
        }
      ],
      "stateMutability": "view",
      "type": "function"
    },
    {
      "inputs": [],
      "name": "isPToken",
      "outputs": [
        {
          "internalType": "bool",
          "name": "",
          "type": "bool"
        }
      ],
      "stateMutability": "view",
      "type": "function"
    },
    {
      "inputs": [
        {
          "internalType": "address",
          "name": "borrower",
          "type": "address"
        },
        {
          "internalType": "contract PToken",
          "name": "pTokenCollateral",
          "type": "address"
        }
      ],
      "name": "liquidateBorrow",
      "outputs": [],
      "stateMutability": "payable",
      "type": "function"
    },
    {
      "inputs": [],
      "name": "migrator",
      "outputs": [
        {
          "internalType": "address",
          "name": "",
          "type": "address"
        }
      ],
      "stateMutability": "view",
      "type": "function"
    },
    {
      "inputs": [],
      "name": "minInterestAccumulated",
      "outputs": [
        {
          "internalType": "uint256",
          "name": "",
          "type": "uint256"
        }
      ],
      "stateMutability": "view",
      "type": "function"
    },
    {
      "inputs": [],
      "name": "mint",
      "outputs": [],
      "stateMutability": "payable",
      "type": "function"
    },
    {
      "inputs": [
        {
          "internalType": "uint256",
          "name": "mintTokens",
          "type": "uint256"
        }
      ],
      "name": "mintForMigrate",
      "outputs": [],
      "stateMutability": "payable",
      "type": "function"
    },
    {
      "inputs": [],
      "name": "name",
      "outputs": [
        {
          "internalType": "string",
          "name": "",
          "type": "string"
        }
      ],
      "stateMutability": "view",
      "type": "function"
    },
    {
      "inputs": [],
      "name": "owner",
      "outputs": [
        {
          "internalType": "address",
          "name": "",
          "type": "address"
        }
      ],
      "stateMutability": "view",
      "type": "function"
    },
    {
      "inputs": [
        {
          "internalType": "uint256",
          "name": "redeemTokens",
          "type": "uint256"
        }
      ],
      "name": "redeem",
      "outputs": [
        {
          "internalType": "uint256",
          "name": "",
          "type": "uint256"
        }
      ],
      "stateMutability": "nonpayable",
      "type": "function"
    },
    {
      "inputs": [
        {
          "internalType": "uint256",
          "name": "redeemAmount",
          "type": "uint256"
        }
      ],
      "name": "redeemUnderlying",
      "outputs": [
        {
          "internalType": "uint256",
          "name": "",
          "type": "uint256"
        }
      ],
      "stateMutability": "nonpayable",
      "type": "function"
    },
    {
      "inputs": [],
      "name": "renounceOwnership",
      "outputs": [],
      "stateMutability": "nonpayable",
      "type": "function"
    },
    {
      "inputs": [],
      "name": "repayBorrow",
      "outputs": [],
      "stateMutability": "payable",
      "type": "function"
    },
    {
      "inputs": [
        {
          "internalType": "address",
          "name": "borrower",
          "type": "address"
        }
      ],
      "name": "repayBorrowBehalf",
      "outputs": [],
      "stateMutability": "payable",
      "type": "function"
    },
    {
      "inputs": [],
      "name": "reserveFactorMantissa",
      "outputs": [
        {
          "internalType": "uint256",
          "name": "",
          "type": "uint256"
        }
      ],
      "stateMutability": "view",
      "type": "function"
    },
    {
      "inputs": [
        {
          "internalType": "address",
          "name": "liquidator",
          "type": "address"
        },
        {
          "internalType": "address",
          "name": "borrower",
          "type": "address"
        },
        {
          "internalType": "uint256",
          "name": "seizeTokens",
          "type": "uint256"
        }
      ],
      "name": "seize",
      "outputs": [
        {
          "internalType": "uint256",
          "name": "",
          "type": "uint256"
        }
      ],
      "stateMutability": "nonpayable",
      "type": "function"
    },
    {
      "inputs": [],
      "name": "supplyRatePerBlock",
      "outputs": [
        {
          "internalType": "uint256",
          "name": "",
          "type": "uint256"
        }
      ],
      "stateMutability": "view",
      "type": "function"
    },
    {
      "inputs": [],
      "name": "symbol",
      "outputs": [
        {
          "internalType": "string",
          "name": "",
          "type": "string"
        }
      ],
      "stateMutability": "view",
      "type": "function"
    },
    {
      "inputs": [],
      "name": "totalBorrows",
      "outputs": [
        {
          "internalType": "uint256",
          "name": "",
          "type": "uint256"
        }
      ],
      "stateMutability": "view",
      "type": "function"
    },
    {
      "inputs": [],
      "name": "totalBorrowsCurrent",
      "outputs": [
        {
          "internalType": "uint256",
          "name": "",
          "type": "uint256"
        }
      ],
      "stateMutability": "nonpayable",
      "type": "function"
    },
    {
      "inputs": [],
      "name": "totalReserves",
      "outputs": [
        {
          "internalType": "uint256",
          "name": "",
          "type": "uint256"
        }
      ],
      "stateMutability": "view",
      "type": "function"
    },
    {
      "inputs": [],
      "name": "totalSupply",
      "outputs": [
        {
          "internalType": "uint256",
          "name": "",
          "type": "uint256"
        }
      ],
      "stateMutability": "view",
      "type": "function"
    },
    {
      "inputs": [
        {
          "internalType": "address",
          "name": "dst",
          "type": "address"
        },
        {
          "internalType": "uint256",
          "name": "amount",
          "type": "uint256"
        }
      ],
      "name": "transfer",
      "outputs": [
        {
          "internalType": "bool",
          "name": "",
          "type": "bool"
        }
      ],
      "stateMutability": "nonpayable",
      "type": "function"
    },
    {
      "inputs": [
        {
          "internalType": "address",
          "name": "src",
          "type": "address"
        },
        {
          "internalType": "address",
          "name": "dst",
          "type": "address"
        },
        {
          "internalType": "uint256",
          "name": "amount",
          "type": "uint256"
        }
      ],
      "name": "transferFrom",
      "outputs": [
        {
          "internalType": "bool",
          "name": "",
          "type": "bool"
        }
      ],
      "stateMutability": "nonpayable",
      "type": "function"
    },
    {
      "inputs": [
        {
          "internalType": "address",
          "name": "newOwner",
          "type": "address"
        }
      ],
      "name": "transferOwnership",
      "outputs": [],
      "stateMutability": "nonpayable",
      "type": "function"
    },
    {
      "stateMutability": "payable",
      "type": "receive"
    }
  ],
  "bytecode": "0x608060405234801561001057600080fd5b50615ffb80620000216000396000f3fe6080604052600436106103395760003560e01c80638f840ddd116101ab578063c23d91bd116100f7578063f2b3abbd11610095578063f71e6e921161006f578063f71e6e9214610e43578063f8f9da2814610e58578063fca7820b14610e6d578063fe17b28f14610e9757610340565b8063f2b3abbd14610dc8578063f2fde38b14610dfb578063f3fdb15a14610e2e57610340565b8063db006a75116100d1578063db006a7514610d28578063dd62ed3e14610d52578063e228bb4314610d8d578063e597461914610da257610340565b8063c23d91bd14610c40578063c37f68e214610ca5578063c5ebeaec14610cfe57610340565b8063a6afed9511610164578063aae40a2a1161013e578063aae40a2a14610ba5578063ae9d70b014610bd3578063b2a02ff114610be8578063bd6d894d14610c2b57610340565b8063a6afed9514610b42578063a9059cbb14610b57578063aa5af0fd14610b9057610340565b80638f840ddd1461081257806394d6c5741461082757806394f224121461098257806395d89b411461099f57806395dd9193146109b457806399d8c1b4146109e757610340565b80634576b5db116102855780636c540baf1161022357806373acee98116101fd57806373acee98146107a95780637cd07e47146107be578063852a12e3146107d35780638da5cb5b146107fd57610340565b80636c540baf1461074c57806370a0823114610761578063715018a61461079457610340565b80634e4d9fea1161025f5780634e4d9fea146106d45780635a890c0e146106dc5780635fe3b567146106f1578063601a0bf11461072257610340565b80634576b5db1461065957806347bd37181461068c57806347dfe70d146106a157610340565b806318160ddd116102f2578063313ce567116102cc578063313ce567146105b357806337050117146105de5780633af9e669146106115780633b1d21a21461064457610340565b806318160ddd14610546578063182df0f51461055b57806323b872dd1461057057610340565b806306fdde0314610345578063095ea7b3146103cf5780630c5c9fa81461041c5780631249c58b146104e4578063173b9904146104ec57806317bfdfbc1461051357610340565b3661034057005b600080fd5b34801561035157600080fd5b5061035a610ec1565b6040805160208082528351818301528351919283929083019185019080838360005b8381101561039457818101518382015260200161037c565b50505050905090810190601f1680156103c15780820380516001836020036101000a031916815260200191505b509250505060405180910390f35b3480156103db57600080fd5b50610408600480360360408110156103f257600080fd5b506001600160a01b038135169060200135610f4e565b604080519115158252519081900360200190f35b34801561042857600080fd5b506104e26004803603606081101561043f57600080fd5b6001600160a01b0382351691602081013591810190606081016040820135600160201b81111561046e57600080fd5b82018360208201111561048057600080fd5b803590602001918460018302840111600160201b831117156104a157600080fd5b91908080601f016020809104026020016040519081016040528093929190818152602001838380828437600092019190915250929550610fbb945050505050565b005b6104e2611191565b3480156104f857600080fd5b506105016111cf565b60408051918252519081900360200190f35b34801561051f57600080fd5b506105016004803603602081101561053657600080fd5b50356001600160a01b03166111d5565b34801561055257600080fd5b50610501611295565b34801561056757600080fd5b5061050161129b565b34801561057c57600080fd5b506104086004803603606081101561059357600080fd5b506001600160a01b038135811691602081013590911690604001356112fe565b3480156105bf57600080fd5b506105c8611370565b6040805160ff9092168252519081900360200190f35b3480156105ea57600080fd5b506104e26004803603602081101561060157600080fd5b50356001600160a01b0316611379565b34801561061d57600080fd5b506105016004803603602081101561063457600080fd5b50356001600160a01b03166113f3565b34801561065057600080fd5b506105016114ab565b34801561066557600080fd5b506105016004803603602081101561067c57600080fd5b50356001600160a01b03166114ba565b34801561069857600080fd5b50610501611587565b3480156106ad57600080fd5b50610501600480360360208110156106c457600080fd5b50356001600160a01b031661158d565b6104e261164d565b3480156106e857600080fd5b5061040861168f565b3480156106fd57600080fd5b50610706611694565b604080516001600160a01b039092168252519081900360200190f35b34801561072e57600080fd5b506105016004803603602081101561074557600080fd5b50356116a8565b34801561075857600080fd5b50610501611743565b34801561076d57600080fd5b506105016004803603602081101561078457600080fd5b50356001600160a01b0316611749565b3480156107a057600080fd5b506104e2611764565b3480156107b557600080fd5b50610501611806565b3480156107ca57600080fd5b506107066118bc565b3480156107df57600080fd5b50610501600480360360208110156107f657600080fd5b50356118cb565b34801561080957600080fd5b506107066118d6565b34801561081e57600080fd5b506105016118e5565b34801561083357600080fd5b506104e2600480360360c081101561084a57600080fd5b6001600160a01b03823581169260208101359091169160408201359190810190608081016060820135600160201b81111561088457600080fd5b82018360208201111561089657600080fd5b803590602001918460018302840111600160201b831117156108b757600080fd5b91908080601f0160208091040260200160405190810160405280939291908181526020018383808284376000920191909152509295949360208101935035915050600160201b81111561090957600080fd5b82018360208201111561091b57600080fd5b803590602001918460018302840111600160201b8311171561093c57600080fd5b91908080601f0160208091040260200160405190810160405280939291908181526020018383808284376000920191909152509295505050903560ff1691506118eb9050565b6104e26004803603602081101561099857600080fd5b5035611adc565b3480156109ab57600080fd5b5061035a611b1c565b3480156109c057600080fd5b50610501600480360360208110156109d757600080fd5b50356001600160a01b0316611b74565b3480156109f357600080fd5b506104e2600480360360c0811015610a0a57600080fd5b6001600160a01b03823581169260208101359091169160408201359190810190608081016060820135600160201b811115610a4457600080fd5b820183602082011115610a5657600080fd5b803590602001918460018302840111600160201b83111715610a7757600080fd5b91908080601f0160208091040260200160405190810160405280939291908181526020018383808284376000920191909152509295949360208101935035915050600160201b811115610ac957600080fd5b820183602082011115610adb57600080fd5b803590602001918460018302840111600160201b83111715610afc57600080fd5b91908080601f0160208091040260200160405190810160405280939291908181526020018383808284376000920191909152509295505050903560ff169150611bd19050565b348015610b4e57600080fd5b50610501611c8f565b348015610b6357600080fd5b5061040860048036036040811015610b7a57600080fd5b506001600160a01b038135169060200135612013565b348015610b9c57600080fd5b50610501612084565b6104e260048036036040811015610bbb57600080fd5b506001600160a01b038135811691602001351661208a565b348015610bdf57600080fd5b506105016120d7565b348015610bf457600080fd5b5061050160048036036060811015610c0b57600080fd5b506001600160a01b03813581169160208101359091169060400135612176565b348015610c3757600080fd5b506105016121e7565b348015610c4c57600080fd5b50610c556122a3565b60408051602080825283518183015283519192839290830191858101910280838360005b83811015610c91578181015183820152602001610c79565b505050509050019250505060405180910390f35b348015610cb157600080fd5b50610cd860048036036020811015610cc857600080fd5b50356001600160a01b031661263f565b604080519485526020850193909352838301919091526060830152519081900360800190f35b348015610d0a57600080fd5b5061050160048036036020811015610d2157600080fd5b50356126d4565b348015610d3457600080fd5b5061050160048036036020811015610d4b57600080fd5b50356126df565b348015610d5e57600080fd5b5061050160048036036040811015610d7557600080fd5b506001600160a01b03813581169160200135166126ea565b348015610d9957600080fd5b50610501612715565b6104e260048036036020811015610db857600080fd5b50356001600160a01b031661271b565b348015610dd457600080fd5b5061050160048036036020811015610deb57600080fd5b50356001600160a01b0316612769565b348015610e0757600080fd5b506104e260048036036020811015610e1e57600080fd5b50356001600160a01b03166127a3565b348015610e3a57600080fd5b5061070661289c565b348015610e4f57600080fd5b506107066128ab565b348015610e6457600080fd5b506105016128ba565b348015610e7957600080fd5b5061050160048036036020811015610e9057600080fd5b503561291e565b348015610ea357600080fd5b5061050160048036036020811015610eba57600080fd5b503561299c565b60018054604080516020600284861615610100026000190190941693909304601f81018490048402820184019092528181529291830182828015610f465780601f10610f1b57610100808354040283529160200191610f46565b820191906000526020600020905b815481529060010190602001808311610f2957829003601f168201915b505050505081565b336000818152600d602090815260408083206001600160a01b03871680855290835281842086905581518681529151939493909284927f8c5be1e5ebec7d5bd14f71427d1e84f3dd0314c0f7b2291e5b200ac8c7c3b925929081900390910190a360019150505b92915050565b60005460ff16610fff576040805162461bcd60e51b815260206004820152600a6024820152691c994b595b9d195c995960b21b604482015290519081900360640190fd5b6000805460ff19168155611011612a40565b60a85490915061102a906001600160a01b031684612a6c565b60a854604051631910217960e11b815230600482018181526001600160a01b03888116602485015273eeeeeeeeeeeeeeeeeeeeeeeeeeeeeeeeeeeeeeee604485018190526064850189905260a060848601908152885160a48701528851929096169563322042f2958b9492938b938b939092909160c490910190602085019080838360005b838110156110c75781810151838201526020016110af565b50505050905090810190601f1680156110f45780820380516001836020036101000a031916815260200191505b509650505050505050600060405180830381600087803b15801561111757600080fd5b505af115801561112b573d6000803e3d6000fd5b5050505080611138612a40565b10156111755760405162461bcd60e51b8152600401808060200182810382526022815260200180615cfd6022913960400191505060405180910390fd5b61117d611c8f565b50506000805460ff19166001179055505050565b600061119c34612aa2565b5090506111cc816040518060400160405280600b81526020016a1b5a5b9d0819985a5b195960aa1b815250612b4b565b50565b60065481565b6000805460ff1661121a576040805162461bcd60e51b815260206004820152600a6024820152691c994b595b9d195c995960b21b604482015290519081900360640190fd5b6000805460ff1916815561122c611c8f565b14611277576040805162461bcd60e51b81526020600482015260166024820152751858d8dc9d59481a5b9d195c995cdd0819985a5b195960521b604482015290519081900360640190fd5b61128082611b74565b90505b6000805460ff19166001179055919050565b600b5481565b60008060006112a8612d61565b909250905060008260038111156112bb57fe5b146112f75760405162461bcd60e51b8152600401808060200182810382526035815260200180615f116035913960400191505060405180910390fd5b9150505b90565b6000805460ff16611343576040805162461bcd60e51b815260206004820152600a6024820152691c994b595b9d195c995960b21b604482015290519081900360640190fd5b6000805460ff1916815561135933868686612e10565b1490506000805460ff191660011790559392505050565b60035460ff1681565b611381613132565b6076546001600160a01b039081169116146113d1576040805162461bcd60e51b81526020600482018190526024820152600080516020615e05833981519152604482015290519081900360640190fd5b60a880546001600160a01b0319166001600160a01b0392909216919091179055565b60006113fd615b52565b60405180602001604052806114106121e7565b90526001600160a01b0384166000908152600c602052604081205491925090819061143c908490613136565b9092509050600082600381111561144f57fe5b146114a1576040805162461bcd60e51b815260206004820152601f60248201527f62616c616e636520636f756c64206e6f742062652063616c63756c6174656400604482015290519081900360640190fd5b925050505b919050565b60006114b5612a40565b905090565b60006114c4613132565b6076546001600160a01b03908116911614611514576040805162461bcd60e51b81526020600482018190526024820152600080516020615e05833981519152604482015290519081900360640190fd5b600380546001600160a01b03848116610100818102610100600160a81b03198516179094556040805194909304919091168084526020840191909152815190927f7ac369dbd14fa5ea3f473ed67cc9d598964a77501540ba6751eb0b3decf5870d92908290030190a160005b9392505050565b60095481565b6000611597613132565b6076546001600160a01b039081169116146115e7576040805162461bcd60e51b81526020600482018190526024820152600080516020615e05833981519152604482015290519081900360640190fd5b600f80546001600160a01b038481166001600160a01b0319831681179093556040805191909216808252602082019390935281517f99b2b7456799067566d467831e63363500739eac62c12ccb8cf9745078f06d2a929181900390910190a16000611580565b60006116583461318a565b5090506111cc81604051806040016040528060128152602001711c995c185e509bdc9c9bddc819985a5b195960721b815250612b4b565b600181565b60035461010090046001600160a01b031681565b6000805460ff166116ed576040805162461bcd60e51b815260206004820152600a6024820152691c994b595b9d195c995960b21b604482015290519081900360640190fd5b6000805460ff191681556116ff611c8f565b905080156117255761171d81601081111561171657fe5b603161320c565b915050611283565b61172e83613272565b9150506000805460ff19166001179055919050565b60075481565b6001600160a01b03166000908152600c602052604090205490565b61176c613132565b6076546001600160a01b039081169116146117bc576040805162461bcd60e51b81526020600482018190526024820152600080516020615e05833981519152604482015290519081900360640190fd5b6076546040516000916001600160a01b0316907f8be0079c531659141344cd1fd0a4f28419497f9722a3daafe3b4186f6b6457e0908390a3607680546001600160a01b0319169055565b6000805460ff1661184b576040805162461bcd60e51b815260206004820152600a6024820152691c994b595b9d195c995960b21b604482015290519081900360640190fd5b6000805460ff1916815561185d611c8f565b146118a8576040805162461bcd60e51b81526020600482015260166024820152751858d8dc9d59481a5b9d195c995cdd0819985a5b195960521b604482015290519081900360640190fd5b506009546000805460ff1916600117905590565b600f546001600160a01b031681565b6000610fb5826133cf565b6076546001600160a01b031690565b600a5481565b6118f3613132565b6076546001600160a01b03908116911614611943576040805162461bcd60e51b81526020600482018190526024820152600080516020615e05833981519152604482015290519081900360640190fd5b6007541580156119535750600854155b61198e5760405162461bcd60e51b8152600401808060200182810382526023815260200180615cb46023913960400191505060405180910390fd5b6005849055836119cf5760405162461bcd60e51b8152600401808060200182810382526030815260200180615d516030913960400191505060405180910390fd5b60006119da876114ba565b90508015611a2f576040805162461bcd60e51b815260206004820152601a60248201527f73657474696e6720636f6d7074726f6c6c6572206661696c6564000000000000604482015290519081900360640190fd5b611a37613450565b600755670de0b6b3a7640000600855611a4f86613454565b90508015611a8e5760405162461bcd60e51b8152600401808060200182810382526022815260200180615d816022913960400191505060405180910390fd5b8351611aa1906001906020870190615b65565b508251611ab5906002906020860190615b65565b50506003805460ff90921660ff199283161790556000805490911660011790555050505050565b6000611ae83483613533565b509050611b18816040518060400160405280600b81526020016a1b5a5b9d0819985a5b195960aa1b815250612b4b565b5050565b6002805460408051602060018416156101000260001901909316849004601f81018490048402820184019092528181529291830182828015610f465780601f10610f1b57610100808354040283529160200191610f46565b6000806000611b8284613621565b90925090506000826003811115611b9557fe5b146115805760405162461bcd60e51b8152600401808060200182810382526037815260200180615dce6037913960400191505060405180910390fd5b601154610100900460ff1680611bea5750611bea6136d4565b80611bf8575060115460ff16155b611c335760405162461bcd60e51b815260040180806020018281038252602e815260200180615e5f602e913960400191505060405180910390fd5b601154610100900460ff16158015611c5e576011805460ff1961ff0019909116610100171660011790555b611c666136da565b611c748787878787876118eb565b8015611c86576011805461ff00191690555b50505050505050565b600080611c9a613450565b60075490915080821415611cb3576000925050506112fb565b6000611cbd612a40565b600954600a5460085460048054604080516315f2405360e01b81529283018790526024830186905260448301859052519596509394929391926000926001600160a01b0316916315f24053916064808301926020929190829003018186803b158015611d2857600080fd5b505afa158015611d3c573d6000803e3d6000fd5b505050506040513d6020811015611d5257600080fd5b5051905065048c27395000811115611db1576040805162461bcd60e51b815260206004820152601c60248201527f626f72726f772072617465206973206162737572646c79206869676800000000604482015290519081900360640190fd5b600080611dbe898961378b565b90925090506000826003811115611dd157fe5b14611e23576040805162461bcd60e51b815260206004820152601f60248201527f636f756c64206e6f742063616c63756c61746520626c6f636b2064656c746100604482015290519081900360640190fd5b611e2b615b52565b600080600080611e4960405180602001604052808a815250876137ae565b90975094506000876003811115611e5c57fe5b14611e8e57611e7960096006896003811115611e7457fe5b613816565b9e5050505050505050505050505050506112fb565b611e98858c613136565b90975093506000876003811115611eab57fe5b14611ec357611e7960096001896003811115611e7457fe5b611ecf8460105461378b565b5096506000876003811115611ee057fe5b14611eeb5760105493505b611ef5848c61387c565b90975092506000876003811115611f0857fe5b14611f2057611e7960096004896003811115611e7457fe5b611f3b6040518060200160405280600654815250858c6138a2565b90975091506000876003811115611f4e57fe5b14611f6657611e7960096005896003811115611e7457fe5b611f71858a8b6138a2565b90975090506000876003811115611f8457fe5b14611f9c57611e7960096003896003811115611e7457fe5b60078e905560088190556009839055600a829055604080518d815260208101869052808201839052606081018590526080810184905290517f717fee053884ab1935ba6d0140f6ed225371439611d9674ff445419d6a0fa1b79181900360a00190a160009e50505050505050505050505050505090565b6000805460ff16612058576040805162461bcd60e51b815260206004820152600a6024820152691c994b595b9d195c995960b21b604482015290519081900360640190fd5b6000805460ff1916815561206e33338686612e10565b1490506000805460ff1916600117905592915050565b60085481565b60006120978334846138fe565b5090506120d281604051806040016040528060168152602001751b1a5c5d5a59185d19509bdc9c9bddc819985a5b195960521b815250612b4b565b505050565b6004546000906001600160a01b031663b81688166120f3612a40565b600954600a546006546040518563ffffffff1660e01b81526004018085815260200184815260200183815260200182815260200194505050505060206040518083038186803b15801561214557600080fd5b505afa158015612159573d6000803e3d6000fd5b505050506040513d602081101561216f57600080fd5b5051905090565b6000805460ff166121bb576040805162461bcd60e51b815260206004820152600a6024820152691c994b595b9d195c995960b21b604482015290519081900360640190fd5b6000805460ff191690556121d133858585613a2f565b90506000805460ff191660011790559392505050565b6000805460ff1661222c576040805162461bcd60e51b815260206004820152600a6024820152691c994b595b9d195c995960b21b604482015290519081900360640190fd5b6000805460ff1916815561223e611c8f565b14612289576040805162461bcd60e51b81526020600482015260166024820152751858d8dc9d59481a5b9d195c995cdd0819985a5b195960521b604482015290519081900360640190fd5b61229161129b565b90506000805460ff1916600117905590565b606060006122af613450565b60075490915060006122bf612a40565b600954600a5460085460048054604080516315f2405360e01b81529283018790526024830186905260448301859052519596509394929391926000926001600160a01b0316916315f24053916064808301926020929190829003018186803b15801561232a57600080fd5b505afa15801561233e573d6000803e3d6000fd5b505050506040513d602081101561235457600080fd5b5051905065048c273950008111156123b3576040805162461bcd60e51b815260206004820152601c60248201527f626f72726f772072617465206973206162737572646c79206869676800000000604482015290519081900360640190fd5b6000806123c0898961378b565b909250905060008260038111156123d357fe5b14612425576040805162461bcd60e51b815260206004820152601f60248201527f636f756c64206e6f742063616c63756c61746520626c6f636b2064656c746100604482015290519081900360640190fd5b61242d615b52565b60408051600680825260e082019092526000918291829182916060916020820160c08036833701905050905061247160405180602001604052808b815250886137ae565b9098509550600088600381111561248457fe5b1461249f579e506112fb9d5050505050505050505050505050565b6124a9868d613136565b909850945060008860038111156124bc57fe5b146124d7579e506112fb9d5050505050505050505050505050565b6124e1858d61387c565b909850935060008860038111156124f457fe5b1461250f579e506112fb9d5050505050505050505050505050565b61252a6040518060200160405280600654815250868d6138a2565b9098509250600088600381111561253d57fe5b14612558579e506112fb9d5050505050505050505050505050565b612563868b8c6138a2565b9098509150600088600381111561257657fe5b14612591579e506112fb9d5050505050505050505050505050565b8e8160008151811061259f57fe5b6020026020010181815250508c816001815181106125b957fe5b60200260200101818152505084816002815181106125d357fe5b60200260200101818152505083816003815181106125ed57fe5b602002602001018181525050828160048151811061260757fe5b602002602001018181525050818160058151811061262157fe5b60209081029190910101529e50505050505050505050505050505090565b6001600160a01b0381166000908152600c602052604081205481908190819081808061266a89613621565b93509050600081600381111561267c57fe5b1461269a5760095b60008060009750975097509750505050506126cd565b6126a2612d61565b9250905060008160038111156126b457fe5b146126c0576009612684565b5060009650919450925090505b9193509193565b6000610fb582613ca1565b6000610fb582613d20565b6001600160a01b039182166000908152600d6020908152604080832093909416825291909152205490565b60105481565b60006127278234613d9a565b509050611b18816040518060400160405280601881526020017f7265706179426f72726f77426568616c66206661696c65640000000000000000815250612b4b565b600080612774611c8f565b9050801561279a5761279281601081111561278b57fe5b604261320c565b9150506114a6565b61158083613454565b6127ab613132565b6076546001600160a01b039081169116146127fb576040805162461bcd60e51b81526020600482018190526024820152600080516020615e05833981519152604482015290519081900360640190fd5b6001600160a01b0381166128405760405162461bcd60e51b8152600401808060200182810382526026815260200180615cd76026913960400191505060405180910390fd5b6076546040516001600160a01b038084169216907f8be0079c531659141344cd1fd0a4f28419497f9722a3daafe3b4186f6b6457e090600090a3607680546001600160a01b0319166001600160a01b0392909216919091179055565b6004546001600160a01b031681565b60a8546001600160a01b031681565b6004546000906001600160a01b03166315f240536128d6612a40565b600954600a546040518463ffffffff1660e01b815260040180848152602001838152602001828152602001935050505060206040518083038186803b15801561214557600080fd5b6000805460ff16612963576040805162461bcd60e51b815260206004820152600a6024820152691c994b595b9d195c995960b21b604482015290519081900360640190fd5b6000805460ff19168155612975611c8f565b905080156129935761171d81601081111561298c57fe5b604861320c565b61172e83613e1c565b60006129a6613132565b6076546001600160a01b039081169116146129f6576040805162461bcd60e51b81526020600482018190526024820152600080516020615e05833981519152604482015290519081900360640190fd5b6010805490839055604080518281526020810185905281517f0fef09b67597ccf3dbb342dd705d9a10d14b4813c09c55e010cd5f4bf219ddaa929181900390910190a16000611580565b6000806000612a4f473461378b565b90925090506000826003811115612a6257fe5b146112f757600080fd5b6040516001600160a01b0383169082156108fc029083906000818181858888f193505050501580156120d2573d6000803e3d6000fd5b60008054819060ff16612ae9576040805162461bcd60e51b815260206004820152600a6024820152691c994b595b9d195c995960b21b604482015290519081900360640190fd5b6000805460ff19168155612afb611c8f565b90508015612b2557612b19816010811115612b1257fe5b601f61320c565b60009250925050612b37565b612b3133856000613eff565b92509250505b6000805460ff191660011790559092909150565b81612b5557611b18565b6060815160050167ffffffffffffffff81118015612b7257600080fd5b506040519080825280601f01601f191660200182016040528015612b9d576020820181803683370190505b50905060005b8251811015612bee57828181518110612bb857fe5b602001015160f81c60f81b828281518110612bcf57fe5b60200101906001600160f81b031916908160001a905350600101612ba3565b8151600160fd1b90839083908110612c0257fe5b60200101906001600160f81b031916908160001a905350602860f81b828260010181518110612c2d57fe5b60200101906001600160f81b031916908160001a905350600a840460300160f81b828260020181518110612c5d57fe5b60200101906001600160f81b031916908160001a905350600a840660300160f81b828260030181518110612c8d57fe5b60200101906001600160f81b031916908160001a905350602960f81b828260040181518110612cb857fe5b60200101906001600160f81b031916908160001a905350818415612d5a5760405162461bcd60e51b81526004018080602001828103825283818151815260200191508051906020019080838360005b83811015612d1f578181015183820152602001612d07565b50505050905090810190601f168015612d4c5780820380516001836020036101000a031916815260200191505b509250505060405180910390fd5b5050505050565b600b54600090819080612d7c57505060055460009150612e0c565b6000612d86612a40565b90506000612d92615b52565b6000612da384600954600a5461439d565b935090506000816003811115612db557fe5b14612dca57955060009450612e0c9350505050565b612dd483866143db565b925090506000816003811115612de657fe5b14612dfb57955060009450612e0c9350505050565b5051600095509350612e0c92505050565b9091565b600354604080516317b9b84b60e31b81523060048201526001600160a01b03868116602483015285811660448301526064820185905291516000938493610100909104169163bdcdc25891608480830192602092919082900301818787803b158015612e7b57600080fd5b505af1158015612e8f573d6000803e3d6000fd5b505050506040513d6020811015612ea557600080fd5b505190508015612ec457612ebc6003604c83613816565b91505061312a565b836001600160a01b0316856001600160a01b03161415612eea57612ebc6002604d61320c565b6000856001600160a01b0316876001600160a01b03161415612f0f5750600019612f37565b506001600160a01b038086166000908152600d60209081526040808320938a16835292905220545b600080600080612f47858961378b565b90945092506000846003811115612f5a57fe5b14612f7857612f6b6009604d61320c565b965050505050505061312a565b6001600160a01b038a166000908152600c6020526040902054612f9b908961378b565b90945091506000846003811115612fae57fe5b14612fbf57612f6b6009604e61320c565b6001600160a01b0389166000908152600c6020526040902054612fe2908961387c565b90945090506000846003811115612ff557fe5b1461300657612f6b6009604f61320c565b6001600160a01b03808b166000908152600c6020526040808220859055918b16815220819055600019851461305e576001600160a01b03808b166000908152600d60209081526040808320938f168352929052208390555b886001600160a01b03168a6001600160a01b0316600080516020615e8d8339815191528a6040518082815260200191505060405180910390a36003546040805163352b4a3f60e11b81523060048201526001600160a01b038d811660248301528c81166044830152606482018c9052915161010090930490911691636a56947e9160848082019260009290919082900301818387803b15801561310057600080fd5b505af1158015613114573d6000803e3d6000fd5b5060009250613121915050565b96505050505050505b949350505050565b3390565b6000806000613143615b52565b61314d86866137ae565b9092509050600082600381111561316057fe5b146131715750915060009050613183565b600061317c8261448c565b9350935050505b9250929050565b60008054819060ff166131d1576040805162461bcd60e51b815260206004820152600a6024820152691c994b595b9d195c995960b21b604482015290519081900360640190fd5b6000805460ff191681556131e3611c8f565b9050801561320157612b198160108111156131fa57fe5b603761320c565b612b3133338661449b565b60007f45b96fe442630264581b197e84bbada861235052c5a1aadfff9ea4e40a969aa083601081111561323b57fe5b83605281111561324757fe5b604080519283526020830191909152600082820152519081900360600190a182601081111561158057fe5b600061327c613132565b6076546001600160a01b039081169116146132cc576040805162461bcd60e51b81526020600482018190526024820152600080516020615e05833981519152604482015290519081900360640190fd5b60006132d6613450565b600754146132ea57612792600a603461320c565b826132f3612a40565b101561330557612792600e603361320c565b600a5483111561331b576127926002603561320c565b50600a54828103908111156133615760405162461bcd60e51b8152600401808060200182810382526024815260200180615fa26024913960400191505060405180910390fd5b600a8190556133776133716118d6565b84612a6c565b7f3bad0c59cf2f06e7314077049f48a93578cd16f5ef92329f1dab1420a99c177e6133a06118d6565b604080516001600160a01b03909216825260208201869052818101849052519081900360600190a16000611580565b6000805460ff16613414576040805162461bcd60e51b815260206004820152600a6024820152691c994b595b9d195c995960b21b604482015290519081900360640190fd5b6000805460ff19168155613426611c8f565b905080156134445761171d81601081111561343d57fe5b602861320c565b61172e33600085614933565b4390565b600061345e613132565b6076546001600160a01b039081169116146134ae576040805162461bcd60e51b81526020600482018190526024820152600080516020615e05833981519152604482015290519081900360640190fd5b60006134b8613450565b600754146134cc57612792600a604361320c565b50600480546001600160a01b038481166001600160a01b0319831681179093556040805191909216808252602082019390935281517fedffc32e068c7c95dfd4bdfd5c4d939a084d6b11c4199eac8436ed234d72f926929181900390910190a16000611580565b60008054819060ff1661357a576040805162461bcd60e51b815260206004820152600a6024820152691c994b595b9d195c995960b21b604482015290519081900360640190fd5b6000805460ff19169055600f546001600160a01b031633146135cd5760405162461bcd60e51b8152600401808060200182810382526032815260200180615d1f6032913960400191505060405180910390fd5b60006135d7611c8f565b905080156135fa576135ee816010811115612b1257fe5b6000925092505061360b565b613605338686613eff565b92509250505b6000805460ff1916600117905590939092509050565b6001600160a01b0381166000908152600e60205260408120805482918291829182916136575760008095509550505050506136cf565b6136678160000154600854614e1f565b9094509250600084600381111561367a57fe5b1461368f5783600095509550505050506136cf565b61369d838260010154614e5e565b909450915060008460038111156136b057fe5b146136c55783600095509550505050506136cf565b5060009450925050505b915091565b303b1590565b601154610100900460ff16806136f357506136f36136d4565b80613701575060115460ff16155b61373c5760405162461bcd60e51b815260040180806020018281038252602e815260200180615e5f602e913960400191505060405180910390fd5b601154610100900460ff16158015613767576011805460ff1961ff0019909116610100171660011790555b61376f614e89565b613777614f29565b80156111cc576011805461ff001916905550565b6000808383116137a2575060009050818303613183565b50600390506000613183565b60006137b8615b52565b6000806137c9866000015186614e1f565b909250905060008260038111156137dc57fe5b146137fb57506040805160208101909152600081529092509050613183565b60408051602081019091529081526000969095509350505050565b60007f45b96fe442630264581b197e84bbada861235052c5a1aadfff9ea4e40a969aa084601081111561384557fe5b84605281111561385157fe5b604080519283526020830191909152818101859052519081900360600190a183601081111561312a57fe5b60008083830184811061389457600092509050613183565b600260009250925050613183565b60008060006138af615b52565b6138b987876137ae565b909250905060008260038111156138cc57fe5b146138dd57509150600090506138f6565b6138ef6138e98261448c565b8661387c565b9350935050505b935093915050565b60008054819060ff16613945576040805162461bcd60e51b815260206004820152600a6024820152691c994b595b9d195c995960b21b604482015290519081900360640190fd5b6000805460ff19168155613957611c8f565b905080156139815761397581601081111561396e57fe5b601061320c565b60009250925050613a18565b836001600160a01b031663a6afed956040518163ffffffff1660e01b8152600401602060405180830381600087803b1580156139bc57600080fd5b505af11580156139d0573d6000803e3d6000fd5b505050506040513d60208110156139e657600080fd5b505190508015613a06576139758160108111156139ff57fe5b601161320c565b613a1233878787615022565b92509250505b6000805460ff191660011790559094909350915050565b6003546040805163d02f735160e01b81523060048201526001600160a01b038781166024830152868116604483015285811660648301526084820185905291516000938493610100909104169163d02f73519160a480830192602092919082900301818787803b158015613aa257600080fd5b505af1158015613ab6573d6000803e3d6000fd5b505050506040513d6020811015613acc57600080fd5b505190508015613ae357612ebc6003601c83613816565b846001600160a01b0316846001600160a01b03161415613b0957612ebc6006601d61320c565b6001600160a01b0384166000908152600c602052604081205481908190613b30908761378b565b90935091506000836003811115613b4357fe5b14613b6657613b5b6009601b856003811115611e7457fe5b94505050505061312a565b6001600160a01b0388166000908152600c6020526040902054613b89908761387c565b90935090506000836003811115613b9c57fe5b14613bb457613b5b6009601a856003811115611e7457fe5b6001600160a01b038088166000818152600c60209081526040808320879055938c168083529184902085905583518a815293519193600080516020615e8d833981519152929081900390910190a360035460408051636d35bf9160e01b81523060048201526001600160a01b038c811660248301528b811660448301528a81166064830152608482018a9052915161010090930490911691636d35bf919160a48082019260009290919082900301818387803b158015613c7357600080fd5b505af1158015613c87573d6000803e3d6000fd5b5060009250613c94915050565b9998505050505050505050565b6000805460ff16613ce6576040805162461bcd60e51b815260206004820152600a6024820152691c994b595b9d195c995960b21b604482015290519081900360640190fd5b6000805460ff19168155613cf8611c8f565b90508015613d165761171d816010811115613d0f57fe5b600961320c565b61172e33846155b9565b6000805460ff16613d65576040805162461bcd60e51b815260206004820152600a6024820152691c994b595b9d195c995960b21b604482015290519081900360640190fd5b6000805460ff19168155613d77611c8f565b90508015613d8e5761171d81601081111561343d57fe5b61172e33846000614933565b60008054819060ff16613de1576040805162461bcd60e51b815260206004820152600a6024820152691c994b595b9d195c995960b21b604482015290519081900360640190fd5b6000805460ff19168155613df3611c8f565b90508015613e11576135ee816010811115613e0a57fe5b603661320c565b61360533868661449b565b6000613e26613132565b6076546001600160a01b03908116911614613e76576040805162461bcd60e51b81526020600482018190526024820152600080516020615e05833981519152604482015290519081900360640190fd5b613e7e613450565b60075414613e9957613e92600a604a61320c565b90506114a6565b670de0b6b3a7640000821115613eb557613e926002604b61320c565b6006805490839055604080518281526020810185905281517faaa68312e2ea9d50e16af5068410ab56e1a1fd06037b1a35664812c30f821460929181900390910190a16000611580565b60008082613fb95760035460408051634ef4c3e160e01b81523060048201526001600160a01b038881166024830152604482018890529151600093610100900490921691634ef4c3e19160648082019260209290919082900301818787803b158015613f6a57600080fd5b505af1158015613f7e573d6000803e3d6000fd5b505050506040513d6020811015613f9457600080fd5b505190508015613fb757613fab6003602083613816565b600092509250506138f6565b505b613fc1613450565b60075414613fe057613fd5600a602361320c565b6000915091506138f6565b613fe8615be3565b8361404a57613ff5612d61565b604083018190526020830182600381111561400c57fe5b600381111561401757fe5b905250600090508160200151600381111561402e57fe5b1461404a57613fab6009602283602001516003811115611e7457fe5b6140548686615936565b60c08201528361410e5761407e8160c00151604051806020016040528084604001518152506159d2565b606083018190526020830182600381111561409557fe5b60038111156140a057fe5b90525060009050816020015160038111156140b757fe5b14614109576040805162461bcd60e51b815260206004820181905260248201527f4d494e545f45584348414e47455f43414c43554c4154494f4e5f4641494c4544604482015290519081900360640190fd5b614116565b606081018490525b614126600b54826060015161387c565b608083018190526020830182600381111561413d57fe5b600381111561414857fe5b905250600090508160200151600381111561415f57fe5b1461419b5760405162461bcd60e51b8152600401808060200182810382526028815260200180615f466028913960400191505060405180910390fd5b6001600160a01b0386166000908152600c602052604090205460608201516141c3919061387c565b60a08301819052602083018260038111156141da57fe5b60038111156141e557fe5b90525060009050816020015160038111156141fc57fe5b146142385760405162461bcd60e51b815260040180806020018281038252602b815260200180615da3602b913960400191505060405180910390fd5b60808082018051600b5560a080840180516001600160a01b038b166000818152600c60209081526040918290209390935560c08801516060808a01519751955183519485529484019190915282820196909652948101929092529381019390935290517f94c792774c59479f7bd68442f3af3691c02123a5aabee8b6f9116d8af8aa66699281900390910190a1606081015160408051918252516001600160a01b038816913091600080516020615e8d8339815191529181900360200190a360035460c08201516060830151604080516341c728b960e01b81523060048201526001600160a01b038b811660248301526044820194909452606481019290925251610100909304909116916341c728b99160848082019260009290919082900301818387803b15801561436a57600080fd5b505af115801561437e573d6000803e3d6000fd5b506000925061438b915050565b8160c001519250925050935093915050565b6000806000806143ad878761387c565b909250905060008260038111156143c057fe5b146143d157509150600090506138f6565b6138ef818661378b565b60006143e5615b52565b6000806143fa86670de0b6b3a7640000614e1f565b9092509050600082600381111561440d57fe5b1461442c57506040805160208101909152600081529092509050613183565b6000806144398388614e5e565b9092509050600082600381111561444c57fe5b1461446f5781604051806020016040528060008152509550955050505050613183565b604080516020810190915290815260009890975095505050505050565b51670de0b6b3a7640000900490565b60035460408051631200453160e11b81523060048201526001600160a01b03868116602483015285811660448301526064820185905291516000938493849361010090920416916324008a629160848082019260209290919082900301818787803b15801561450957600080fd5b505af115801561451d573d6000803e3d6000fd5b505050506040513d602081101561453357600080fd5b50519050801561454a57613fab6003603a83613816565b614552613450565b6007541461456657613fab600a603b61320c565b61456e615c21565b6001600160a01b0386166000908152600e60205260409020600101546060820152614598866159e9565b6101008301819052602083018260038111156145b057fe5b60038111156145bb57fe5b90525060009050816020015160038111156145d257fe5b146145fb576145ee6009603883602001516003811115611e7457fe5b60009350935050506138f6565b61460486613621565b608083018190526020830182600381111561461b57fe5b600381111561462657fe5b905250600090508160200151600381111561463d57fe5b14614659576145ee6009603983602001516003811115611e7457fe5b600019851415614672576080810151604082015261467a565b604081018590525b614688878260400151615936565b60e08201819052608082015161469d9161378b565b60a08301819052602083018260038111156146b457fe5b60038111156146bf57fe5b90525060009050816020015160038111156146d657fe5b146147125760405162461bcd60e51b815260040180806020018281038252603a815260200180615e25603a913960400191505060405180910390fd5b6147226009548260e0015161378b565b60c083018190526020830182600381111561473957fe5b600381111561474457fe5b905250600090508160200151600381111561475b57fe5b146147975760405162461bcd60e51b8152600401808060200182810382526031815260200180615ead6031913960400191505060405180910390fd5b8060a00151600e6000886001600160a01b03166001600160a01b0316815260200190815260200160002060000181905550600854600e6000886001600160a01b03166001600160a01b03168152602001908152602001600020600101819055508060c001516009819055507f6fadbf7329d21f278e724fa0d4511001a158f2a97ee35c5bc4cf8b64417399ef87878360e001518460a001518560c0015186610100015160405180876001600160a01b03168152602001866001600160a01b03168152602001858152602001848152602001838152602001828152602001965050505050505060405180910390a160035460e0820151606083015160408051631ededc9160e01b81523060048201526001600160a01b038c811660248301528b81166044830152606482019490945260848101929092525161010090930490911691631ededc919160a48082019260009290919082900301818387803b1580156148ff57600080fd5b505af1158015614913573d6000803e3d6000fd5b5060009250614920915050565b8160e00151935093505050935093915050565b6000821580614940575081155b61497b5760405162461bcd60e51b8152600401808060200182810382526034815260200180615f6e6034913960400191505060405180910390fd5b614983615be3565b61498b612d61565b60408301819052602083018260038111156149a257fe5b60038111156149ad57fe5b90525060009050816020015160038111156149c457fe5b146149e8576149e06009602c83602001516003811115611e7457fe5b915050611580565b8315614a69576060810184905260408051602081018252908201518152614a0f9085613136565b6080830181905260208301826003811115614a2657fe5b6003811115614a3157fe5b9052506000905081602001516003811115614a4857fe5b14614a64576149e06009602a83602001516003811115611e7457fe5b614ae2565b614a8583604051806020016040528084604001518152506159d2565b6060830181905260208301826003811115614a9c57fe5b6003811115614aa757fe5b9052506000905081602001516003811115614abe57fe5b14614ada576149e06009602b83602001516003811115611e7457fe5b608081018390525b60035460608201516040805163eabe7d9160e01b81523060048201526001600160a01b0389811660248301526044820193909352905160009361010090049092169163eabe7d919160648082019260209290919082900301818787803b158015614b4b57600080fd5b505af1158015614b5f573d6000803e3d6000fd5b505050506040513d6020811015614b7557600080fd5b505190508015614b9557614b8c6003602983613816565b92505050611580565b614b9d613450565b60075414614bb157614b8c600a602d61320c565b614bc1600b54836060015161378b565b60a0840181905260208401826003811115614bd857fe5b6003811115614be357fe5b9052506000905082602001516003811115614bfa57fe5b14614c1657614b8c6009602f84602001516003811115611e7457fe5b6001600160a01b0386166000908152600c60205260409020546060830151614c3e919061378b565b60c0840181905260208401826003811115614c5557fe5b6003811115614c6057fe5b9052506000905082602001516003811115614c7757fe5b14614c9357614b8c6009602e84602001516003811115611e7457fe5b8160800151614ca0612a40565b1015614cb257614b8c600e603061320c565b614cc0868360800151612a6c565b60a0820151600b5560c08201516001600160a01b0387166000818152600c6020908152604091829020939093556060850151815190815290513093600080516020615e8d833981519152928290030190a37fe02f6383e19e87c24e0c03e2cd5dbd05156cb29a1b0f3dbca1fa3430e444f63d86836080015184606001518560a001518660c0015160405180866001600160a01b031681526020018581526020018481526020018381526020018281526020019550505050505060405180910390a160035460808301516060840151604080516351dff98960e01b81523060048201526001600160a01b038b811660248301526044820194909452606481019290925251610100909304909116916351dff9899160848082019260009290919082900301818387803b158015614df457600080fd5b505af1158015614e08573d6000803e3d6000fd5b5060009250614e15915050565b9695505050505050565b60008083614e3257506000905080613183565b83830283858281614e3f57fe5b0414614e5357600260009250925050613183565b600092509050613183565b60008082614e725750600190506000613183565b6000838581614e7d57fe5b04915091509250929050565b601154610100900460ff1680614ea25750614ea26136d4565b80614eb0575060115460ff16155b614eeb5760405162461bcd60e51b815260040180806020018281038252602e815260200180615e5f602e913960400191505060405180910390fd5b601154610100900460ff16158015613777576011805460ff1961ff00199091166101001716600117905580156111cc576011805461ff001916905550565b601154610100900460ff1680614f425750614f426136d4565b80614f50575060115460ff16155b614f8b5760405162461bcd60e51b815260040180806020018281038252602e815260200180615e5f602e913960400191505060405180910390fd5b601154610100900460ff16158015614fb6576011805460ff1961ff0019909116610100171660011790555b6000614fc0613132565b607680546001600160a01b0319166001600160a01b038316908117909155604051919250906000907f8be0079c531659141344cd1fd0a4f28419497f9722a3daafe3b4186f6b6457e0908290a35080156111cc576011805461ff001916905550565b60035460408051632fe3f38f60e11b81523060048201526001600160a01b03848116602483015287811660448301528681166064830152608482018690529151600093849384936101009092041691635fc7e71e9160a48082019260209290919082900301818787803b15801561509857600080fd5b505af11580156150ac573d6000803e3d6000fd5b505050506040513d60208110156150c257600080fd5b5051905080156150e5576150d96003601383613816565b600092509250506155b0565b6150ed613450565b60075414615101576150d9600a601761320c565b615109613450565b846001600160a01b0316636c540baf6040518163ffffffff1660e01b815260040160206040518083038186803b15801561514257600080fd5b505afa158015615156573d6000803e3d6000fd5b505050506040513d602081101561516c57600080fd5b50511461517f576150d9600a601261320c565b866001600160a01b0316866001600160a01b031614156151a5576150d96006601861320c565b846151b6576150d96007601661320c565b6000198514156151cc576150d96007601561320c565b6000806151da89898961449b565b90925090508115615209576151fb8260108111156151f457fe5b601961320c565b6000945094505050506155b0565b6003546040805163c488847b60e01b81523060048201526001600160a01b03898116602483015260448201859052825160009485946101009091049092169263c488847b926064808301939192829003018186803b15801561526a57600080fd5b505afa15801561527e573d6000803e3d6000fd5b505050506040513d604081101561529457600080fd5b508051602090910151909250905081156152df5760405162461bcd60e51b8152600401808060200182810382526033815260200180615ede6033913960400191505060405180910390fd5b80886001600160a01b03166370a082318c6040518263ffffffff1660e01b815260040180826001600160a01b0316815260200191505060206040518083038186803b15801561532d57600080fd5b505afa158015615341573d6000803e3d6000fd5b505050506040513d602081101561535757600080fd5b505110156153ac576040805162461bcd60e51b815260206004820152601860248201527f4c49515549444154455f5345495a455f544f4f5f4d5543480000000000000000604482015290519081900360640190fd5b60006001600160a01b0389163014156153d2576153cb308d8d85613a2f565b9050615469565b886001600160a01b031663b2a02ff18d8d856040518463ffffffff1660e01b815260040180846001600160a01b03168152602001836001600160a01b031681526020018281526020019350505050602060405180830381600087803b15801561543a57600080fd5b505af115801561544e573d6000803e3d6000fd5b505050506040513d602081101561546457600080fd5b505190505b80156154b3576040805162461bcd60e51b81526020600482015260146024820152731d1bdad95b881cd95a5e9d5c994819985a5b195960621b604482015290519081900360640190fd5b604080516001600160a01b03808f168252808e1660208301528183018790528b1660608201526080810184905290517f298637f684da70674f26509b10f07ec2fbc77a335ab1e7d6215a4b2484d8bb529181900360a00190a1600354604080516347ef3b3b60e01b81523060048201526001600160a01b038c811660248301528f811660448301528e811660648301526084820188905260a482018690529151610100909304909116916347ef3b3b9160c48082019260009290919082900301818387803b15801561558457600080fd5b505af1158015615598573d6000803e3d6000fd5b50600092506155a5915050565b975092955050505050505b94509492505050565b6003546040805163368f515360e21b81523060048201526001600160a01b0385811660248301526044820185905291516000938493610100909104169163da3d454c91606480830192602092919082900301818787803b15801561561c57600080fd5b505af1158015615630573d6000803e3d6000fd5b505050506040513d602081101561564657600080fd5b5051905080156156655761565d6003600f83613816565b915050610fb5565b61566d613450565b600754146156815761565d600a600b61320c565b8261568a612a40565b101561569c5761565d600e600a61320c565b6156a4615c6e565b6156ad856159e9565b60808301819052828260038111156156c157fe5b60038111156156cc57fe5b90525060009050815160038111156156e057fe5b14615705576156fc6009600783600001516003811115611e7457fe5b92505050610fb5565b61570e85613621565b602083018190528282600381111561572257fe5b600381111561572d57fe5b905250600090508151600381111561574157fe5b1461575d576156fc6009600883600001516003811115611e7457fe5b61576b81602001518561387c565b604083018190528282600381111561577f57fe5b600381111561578a57fe5b905250600090508151600381111561579e57fe5b146157ba576156fc6009600d83600001516003811115611e7457fe5b6157c66009548561387c565b60608301819052828260038111156157da57fe5b60038111156157e557fe5b90525060009050815160038111156157f957fe5b14615815576156fc6009600c83600001516003811115611e7457fe5b61581f8585612a6c565b604080820180516001600160a01b0388166000818152600e6020908152908590209283556008546001909301929092556060808601516009819055935160808088015187519485529484018b905283870191909152908201939093529182015290517f2dd79f4fccfd18c360ce7f9132f3621bf05eee18f995224badb32d17f172df739181900360a00190a160035460408051635c77860560e01b81523060048201526001600160a01b03888116602483015260448201889052915161010090930490911691635c7786059160648082019260009290919082900301818387803b15801561590c57600080fd5b505af1158015615920573d6000803e3d6000fd5b506000925061592d915050565b95945050505050565b6000336001600160a01b03841614615987576040805162461bcd60e51b815260206004820152600f60248201526e0e6cadcc8cae440dad2e6dac2e8c6d608b1b604482015290519081900360640190fd5b8134146159cc576040805162461bcd60e51b815260206004820152600e60248201526d0ecc2d8eaca40dad2e6dac2e8c6d60931b604482015290519081900360640190fd5b50919050565b60008060006159df615b52565b61314d8686615af3565b6001600160a01b0381166000908152600e6020526040812080548291829182918291829190615a23576000809650965050505050506136cf565b615a338160000154600854614e1f565b90955093506000856003811115615a4657fe5b14615a5c578460009650965050505050506136cf565b6001810154615a76576000809650965050505050506136cf565b615a84848260010154614e5e565b90955092506000856003811115615a9757fe5b14615aad578460009650965050505050506136cf565b615abb83826000015461378b565b90955091506000856003811115615ace57fe5b14615ae4578460009650965050505050506136cf565b50600095509350505050915091565b6000615afd615b52565b600080615b12670de0b6b3a764000087614e1f565b90925090506000826003811115615b2557fe5b14615b4457506040805160208101909152600081529092509050613183565b61317c8186600001516143db565b6040518060200160405280600081525090565b828054600181600116156101000203166002900490600052602060002090601f016020900481019282601f10615ba657805160ff1916838001178555615bd3565b82800160010185558215615bd3579182015b82811115615bd3578251825591602001919060010190615bb8565b50615bdf929150615c9e565b5090565b6040805160e0810190915280600081526020016000815260200160008152602001600081526020016000815260200160008152602001600081525090565b604080516101208101909152806000815260200160008152602001600081526020016000815260200160008152602001600081526020016000815260200160008152602001600081525090565b6040805160a081019091528060008152602001600081526020016000815260200160008152602001600081525090565b5b80821115615bdf5760008155600101615c9f56fe6d61726b6574206d6179206f6e6c7920626520696e697469616c697a6564206f6e63654f776e61626c653a206e6577206f776e657220697320746865207a65726f20616464726573735468652061637475616c2062616c616e636520697320696e636f6e73697374656e746d696e74496e7465726e616c466f724d6967726174653a2063616c6c6572206973206e6f7420746865206d69677261746f72696e697469616c2065786368616e67652072617465206d7573742062652067726561746572207468616e207a65726f2e73657474696e6720696e7465726573742072617465206d6f64656c206661696c65644d494e545f4e45575f4143434f554e545f42414c414e43455f43414c43554c4154494f4e5f4641494c4544626f72726f7742616c616e636553746f7265643a20626f72726f7742616c616e636553746f726564496e7465726e616c206661696c65644f776e61626c653a2063616c6c6572206973206e6f7420746865206f776e657252455041595f424f52524f575f4e45575f4143434f554e545f424f52524f575f42414c414e43455f43414c43554c4154494f4e5f4641494c4544436f6e747261637420696e7374616e63652068617320616c7265616479206265656e20696e697469616c697a6564ddf252ad1be2c89b69c2b068fc378daa952ba7f163c4a11628f55a4df523b3ef52455041595f424f52524f575f4e45575f544f54414c5f42414c414e43455f43414c43554c4154494f4e5f4641494c45444c49515549444154455f434f4d5054524f4c4c45525f43414c43554c4154455f414d4f554e545f5345495a455f4641494c454465786368616e67655261746553746f7265643a2065786368616e67655261746553746f726564496e7465726e616c206661696c65644d494e545f4e45575f544f54414c5f535550504c595f43414c43554c4154494f4e5f4641494c45446f6e65206f662072656465656d546f6b656e73496e206f722072656465656d416d6f756e74496e206d757374206265207a65726f72656475636520726573657276657320756e657870656374656420756e646572666c6f77a26469706673582212207c7c079c4fd11539edcddb70ef6ec54b448252108e0b9d788e168526302dc3d664736f6c634300060c0033",
  "linkReferences": {},
  "deployedLinkReferences": {}
}