{
  "_format": "hh-sol-artifact-1",
  "contractName": "ComptrollerG5",
  "sourceName": "contracts/Lend/ComptrollerG5.sol",
  "abi": [
    {
      "inputs": [],
      "payable": false,
      "stateMutability": "nonpayable",
      "type": "constructor"
    },
    {
      "anonymous": false,
      "inputs": [
        {
          "indexed": false,
          "internalType": "string",
          "name": "action",
          "type": "string"
        },
        {
          "indexed": false,
          "internalType": "bool",
          "name": "pauseState",
          "type": "bool"
        }
      ],
      "name": "ActionPaused",
      "type": "event"
    },
    {
      "anonymous": false,
      "inputs": [
        {
          "indexed": false,
          "internalType": "contract CToken",
          "name": "cToken",
          "type": "address"
        },
        {
          "indexed": false,
          "internalType": "string",
          "name": "action",
          "type": "string"
        },
        {
          "indexed": false,
          "internalType": "bool",
          "name": "pauseState",
          "type": "bool"
        }
      ],
      "name": "ActionPaused",
      "type": "event"
    },
    {
      "anonymous": false,
      "inputs": [
        {
          "indexed": true,
          "internalType": "contract CToken",
          "name": "cToken",
          "type": "address"
        },
        {
          "indexed": false,
          "internalType": "uint256",
          "name": "newSpeed",
          "type": "uint256"
        }
      ],
      "name": "CompSpeedUpdated",
      "type": "event"
    },
    {
      "anonymous": false,
      "inputs": [
        {
          "indexed": true,
          "internalType": "contract CToken",
          "name": "cToken",
          "type": "address"
        },
        {
          "indexed": true,
          "internalType": "address",
          "name": "borrower",
          "type": "address"
        },
        {
          "indexed": false,
          "internalType": "uint256",
          "name": "compDelta",
          "type": "uint256"
        },
        {
          "indexed": false,
          "internalType": "uint256",
          "name": "compBorrowIndex",
          "type": "uint256"
        }
      ],
      "name": "DistributedBorrowerComp",
      "type": "event"
    },
    {
      "anonymous": false,
      "inputs": [
        {
          "indexed": true,
          "internalType": "contract CToken",
          "name": "cToken",
          "type": "address"
        },
        {
          "indexed": true,
          "internalType": "address",
          "name": "supplier",
          "type": "address"
        },
        {
          "indexed": false,
          "internalType": "uint256",
          "name": "compDelta",
          "type": "uint256"
        },
        {
          "indexed": false,
          "internalType": "uint256",
          "name": "compSupplyIndex",
          "type": "uint256"
        }
      ],
      "name": "DistributedSupplierComp",
      "type": "event"
    },
    {
      "anonymous": false,
      "inputs": [
        {
          "indexed": false,
          "internalType": "uint256",
          "name": "error",
          "type": "uint256"
        },
        {
          "indexed": false,
          "internalType": "uint256",
          "name": "info",
          "type": "uint256"
        },
        {
          "indexed": false,
          "internalType": "uint256",
          "name": "detail",
          "type": "uint256"
        }
      ],
      "name": "Failure",
      "type": "event"
    },
    {
      "anonymous": false,
      "inputs": [
        {
          "indexed": false,
          "internalType": "contract CToken",
          "name": "cToken",
          "type": "address"
        },
        {
          "indexed": false,
          "internalType": "bool",
          "name": "isComped",
          "type": "bool"
        }
      ],
      "name": "MarketComped",
      "type": "event"
    },
    {
      "anonymous": false,
      "inputs": [
        {
          "indexed": false,
          "internalType": "contract CToken",
          "name": "cToken",
          "type": "address"
        },
        {
          "indexed": false,
          "internalType": "address",
          "name": "account",
          "type": "address"
        }
      ],
      "name": "MarketEntered",
      "type": "event"
    },
    {
      "anonymous": false,
      "inputs": [
        {
          "indexed": false,
          "internalType": "contract CToken",
          "name": "cToken",
          "type": "address"
        },
        {
          "indexed": false,
          "internalType": "address",
          "name": "account",
          "type": "address"
        }
      ],
      "name": "MarketExited",
      "type": "event"
    },
    {
      "anonymous": false,
      "inputs": [
        {
          "indexed": false,
          "internalType": "contract CToken",
          "name": "cToken",
          "type": "address"
        }
      ],
      "name": "MarketListed",
      "type": "event"
    },
    {
      "anonymous": false,
      "inputs": [
        {
          "indexed": true,
          "internalType": "contract CToken",
          "name": "cToken",
          "type": "address"
        },
        {
          "indexed": false,
          "internalType": "uint256",
          "name": "newBorrowCap",
          "type": "uint256"
        }
      ],
      "name": "NewBorrowCap",
      "type": "event"
    },
    {
      "anonymous": false,
      "inputs": [
        {
          "indexed": false,
          "internalType": "address",
          "name": "oldBorrowCapGuardian",
          "type": "address"
        },
        {
          "indexed": false,
          "internalType": "address",
          "name": "newBorrowCapGuardian",
          "type": "address"
        }
      ],
      "name": "NewBorrowCapGuardian",
      "type": "event"
    },
    {
      "anonymous": false,
      "inputs": [
        {
          "indexed": false,
          "internalType": "uint256",
          "name": "oldCloseFactorMantissa",
          "type": "uint256"
        },
        {
          "indexed": false,
          "internalType": "uint256",
          "name": "newCloseFactorMantissa",
          "type": "uint256"
        }
      ],
      "name": "NewCloseFactor",
      "type": "event"
    },
    {
      "anonymous": false,
      "inputs": [
        {
          "indexed": false,
          "internalType": "contract CToken",
          "name": "cToken",
          "type": "address"
        },
        {
          "indexed": false,
          "internalType": "uint256",
          "name": "oldCollateralFactorMantissa",
          "type": "uint256"
        },
        {
          "indexed": false,
          "internalType": "uint256",
          "name": "newCollateralFactorMantissa",
          "type": "uint256"
        }
      ],
      "name": "NewCollateralFactor",
      "type": "event"
    },
    {
      "anonymous": false,
      "inputs": [
        {
          "indexed": false,
          "internalType": "uint256",
          "name": "oldCompRate",
          "type": "uint256"
        },
        {
          "indexed": false,
          "internalType": "uint256",
          "name": "newCompRate",
          "type": "uint256"
        }
      ],
      "name": "NewCompRate",
      "type": "event"
    },
    {
      "anonymous": false,
      "inputs": [
        {
          "indexed": false,
          "internalType": "uint256",
          "name": "oldLiquidationIncentiveMantissa",
          "type": "uint256"
        },
        {
          "indexed": false,
          "internalType": "uint256",
          "name": "newLiquidationIncentiveMantissa",
          "type": "uint256"
        }
      ],
      "name": "NewLiquidationIncentive",
      "type": "event"
    },
    {
      "anonymous": false,
      "inputs": [
        {
          "indexed": false,
          "internalType": "uint256",
          "name": "oldMaxAssets",
          "type": "uint256"
        },
        {
          "indexed": false,
          "internalType": "uint256",
          "name": "newMaxAssets",
          "type": "uint256"
        }
      ],
      "name": "NewMaxAssets",
      "type": "event"
    },
    {
      "anonymous": false,
      "inputs": [
        {
          "indexed": false,
          "internalType": "address",
          "name": "oldPauseGuardian",
          "type": "address"
        },
        {
          "indexed": false,
          "internalType": "address",
          "name": "newPauseGuardian",
          "type": "address"
        }
      ],
      "name": "NewPauseGuardian",
      "type": "event"
    },
    {
      "anonymous": false,
      "inputs": [
        {
          "indexed": false,
          "internalType": "contract PriceOracle",
          "name": "oldPriceOracle",
          "type": "address"
        },
        {
          "indexed": false,
          "internalType": "contract PriceOracle",
          "name": "newPriceOracle",
          "type": "address"
        }
      ],
      "name": "NewPriceOracle",
      "type": "event"
    },
    {
      "constant": false,
      "inputs": [
        {
          "internalType": "address[]",
          "name": "cTokens",
          "type": "address[]"
        }
      ],
      "name": "_addCompMarkets",
      "outputs": [],
      "payable": false,
      "stateMutability": "nonpayable",
      "type": "function"
    },
    {
      "constant": false,
      "inputs": [
        {
          "internalType": "contract Unitroller",
          "name": "unitroller",
          "type": "address"
        }
      ],
      "name": "_become",
      "outputs": [],
      "payable": false,
      "stateMutability": "nonpayable",
      "type": "function"
    },
    {
      "constant": true,
      "inputs": [],
      "name": "_borrowGuardianPaused",
      "outputs": [
        {
          "internalType": "bool",
          "name": "",
          "type": "bool"
        }
      ],
      "payable": false,
      "stateMutability": "view",
      "type": "function"
    },
    {
      "constant": false,
      "inputs": [
        {
          "internalType": "address",
          "name": "cToken",
          "type": "address"
        }
      ],
      "name": "_dropCompMarket",
      "outputs": [],
      "payable": false,
      "stateMutability": "nonpayable",
      "type": "function"
    },
    {
      "constant": true,
      "inputs": [],
      "name": "_mintGuardianPaused",
      "outputs": [
        {
          "internalType": "bool",
          "name": "",
          "type": "bool"
        }
      ],
      "payable": false,
      "stateMutability": "view",
      "type": "function"
    },
    {
      "constant": false,
      "inputs": [
        {
          "internalType": "address",
          "name": "newBorrowCapGuardian",
          "type": "address"
        }
      ],
      "name": "_setBorrowCapGuardian",
      "outputs": [],
      "payable": false,
      "stateMutability": "nonpayable",
      "type": "function"
    },
    {
      "constant": false,
      "inputs": [
        {
          "internalType": "contract CToken",
          "name": "cToken",
          "type": "address"
        },
        {
          "internalType": "bool",
          "name": "state",
          "type": "bool"
        }
      ],
      "name": "_setBorrowPaused",
      "outputs": [
        {
          "internalType": "bool",
          "name": "",
          "type": "bool"
        }
      ],
      "payable": false,
      "stateMutability": "nonpayable",
      "type": "function"
    },
    {
      "constant": false,
      "inputs": [
        {
          "internalType": "uint256",
          "name": "newCloseFactorMantissa",
          "type": "uint256"
        }
      ],
      "name": "_setCloseFactor",
      "outputs": [
        {
          "internalType": "uint256",
          "name": "",
          "type": "uint256"
        }
      ],
      "payable": false,
      "stateMutability": "nonpayable",
      "type": "function"
    },
    {
      "constant": false,
      "inputs": [
        {
          "internalType": "contract CToken",
          "name": "cToken",
          "type": "address"
        },
        {
          "internalType": "uint256",
          "name": "newCollateralFactorMantissa",
          "type": "uint256"
        }
      ],
      "name": "_setCollateralFactor",
      "outputs": [
        {
          "internalType": "uint256",
          "name": "",
          "type": "uint256"
        }
      ],
      "payable": false,
      "stateMutability": "nonpayable",
      "type": "function"
    },
    {
      "constant": false,
      "inputs": [
        {
          "internalType": "uint256",
          "name": "compRate_",
          "type": "uint256"
        }
      ],
      "name": "_setCompRate",
      "outputs": [],
      "payable": false,
      "stateMutability": "nonpayable",
      "type": "function"
    },
    {
      "constant": false,
      "inputs": [
        {
          "internalType": "uint256",
          "name": "newLiquidationIncentiveMantissa",
          "type": "uint256"
        }
      ],
      "name": "_setLiquidationIncentive",
      "outputs": [
        {
          "internalType": "uint256",
          "name": "",
          "type": "uint256"
        }
      ],
      "payable": false,
      "stateMutability": "nonpayable",
      "type": "function"
    },
    {
      "constant": false,
      "inputs": [
        {
          "internalType": "contract CToken[]",
          "name": "cTokens",
          "type": "address[]"
        },
        {
          "internalType": "uint256[]",
          "name": "newBorrowCaps",
          "type": "uint256[]"
        }
      ],
      "name": "_setMarketBorrowCaps",
      "outputs": [],
      "payable": false,
      "stateMutability": "nonpayable",
      "type": "function"
    },
    {
      "constant": false,
      "inputs": [
        {
          "internalType": "uint256",
          "name": "newMaxAssets",
          "type": "uint256"
        }
      ],
      "name": "_setMaxAssets",
      "outputs": [
        {
          "internalType": "uint256",
          "name": "",
          "type": "uint256"
        }
      ],
      "payable": false,
      "stateMutability": "nonpayable",
      "type": "function"
    },
    {
      "constant": false,
      "inputs": [
        {
          "internalType": "contract CToken",
          "name": "cToken",
          "type": "address"
        },
        {
          "internalType": "bool",
          "name": "state",
          "type": "bool"
        }
      ],
      "name": "_setMintPaused",
      "outputs": [
        {
          "internalType": "bool",
          "name": "",
          "type": "bool"
        }
      ],
      "payable": false,
      "stateMutability": "nonpayable",
      "type": "function"
    },
    {
      "constant": false,
      "inputs": [
        {
          "internalType": "address",
          "name": "newPauseGuardian",
          "type": "address"
        }
      ],
      "name": "_setPauseGuardian",
      "outputs": [
        {
          "internalType": "uint256",
          "name": "",
          "type": "uint256"
        }
      ],
      "payable": false,
      "stateMutability": "nonpayable",
      "type": "function"
    },
    {
      "constant": false,
      "inputs": [
        {
          "internalType": "contract PriceOracle",
          "name": "newOracle",
          "type": "address"
        }
      ],
      "name": "_setPriceOracle",
      "outputs": [
        {
          "internalType": "uint256",
          "name": "",
          "type": "uint256"
        }
      ],
      "payable": false,
      "stateMutability": "nonpayable",
      "type": "function"
    },
    {
      "constant": false,
      "inputs": [
        {
          "internalType": "bool",
          "name": "state",
          "type": "bool"
        }
      ],
      "name": "_setSeizePaused",
      "outputs": [
        {
          "internalType": "bool",
          "name": "",
          "type": "bool"
        }
      ],
      "payable": false,
      "stateMutability": "nonpayable",
      "type": "function"
    },
    {
      "constant": false,
      "inputs": [
        {
          "internalType": "bool",
          "name": "state",
          "type": "bool"
        }
      ],
      "name": "_setTransferPaused",
      "outputs": [
        {
          "internalType": "bool",
          "name": "",
          "type": "bool"
        }
      ],
      "payable": false,
      "stateMutability": "nonpayable",
      "type": "function"
    },
    {
      "constant": false,
      "inputs": [
        {
          "internalType": "contract CToken",
          "name": "cToken",
          "type": "address"
        }
      ],
      "name": "_supportMarket",
      "outputs": [
        {
          "internalType": "uint256",
          "name": "",
          "type": "uint256"
        }
      ],
      "payable": false,
      "stateMutability": "nonpayable",
      "type": "function"
    },
    {
      "constant": true,
      "inputs": [
        {
          "internalType": "address",
          "name": "",
          "type": "address"
        },
        {
          "internalType": "uint256",
          "name": "",
          "type": "uint256"
        }
      ],
      "name": "accountAssets",
      "outputs": [
        {
          "internalType": "contract CToken",
          "name": "",
          "type": "address"
        }
      ],
      "payable": false,
      "stateMutability": "view",
      "type": "function"
    },
    {
      "constant": true,
      "inputs": [],
      "name": "admin",
      "outputs": [
        {
          "internalType": "address",
          "name": "",
          "type": "address"
        }
      ],
      "payable": false,
      "stateMutability": "view",
      "type": "function"
    },
    {
      "constant": true,
      "inputs": [
        {
          "internalType": "uint256",
          "name": "",
          "type": "uint256"
        }
      ],
      "name": "allMarkets",
      "outputs": [
        {
          "internalType": "contract CToken",
          "name": "",
          "type": "address"
        }
      ],
      "payable": false,
      "stateMutability": "view",
      "type": "function"
    },
    {
      "constant": false,
      "inputs": [
        {
          "internalType": "address",
          "name": "cToken",
          "type": "address"
        },
        {
          "internalType": "address",
          "name": "borrower",
          "type": "address"
        },
        {
          "internalType": "uint256",
          "name": "borrowAmount",
          "type": "uint256"
        }
      ],
      "name": "borrowAllowed",
      "outputs": [
        {
          "internalType": "uint256",
          "name": "",
          "type": "uint256"
        }
      ],
      "payable": false,
      "stateMutability": "nonpayable",
      "type": "function"
    },
    {
      "constant": true,
      "inputs": [],
      "name": "borrowCapGuardian",
      "outputs": [
        {
          "internalType": "address",
          "name": "",
          "type": "address"
        }
      ],
      "payable": false,
      "stateMutability": "view",
      "type": "function"
    },
    {
      "constant": true,
      "inputs": [
        {
          "internalType": "address",
          "name": "",
          "type": "address"
        }
      ],
      "name": "borrowCaps",
      "outputs": [
        {
          "internalType": "uint256",
          "name": "",
          "type": "uint256"
        }
      ],
      "payable": false,
      "stateMutability": "view",
      "type": "function"
    },
    {
      "constant": true,
      "inputs": [
        {
          "internalType": "address",
          "name": "",
          "type": "address"
        }
      ],
      "name": "borrowGuardianPaused",
      "outputs": [
        {
          "internalType": "bool",
          "name": "",
          "type": "bool"
        }
      ],
      "payable": false,
      "stateMutability": "view",
      "type": "function"
    },
    {
      "constant": false,
      "inputs": [
        {
          "internalType": "address",
          "name": "cToken",
          "type": "address"
        },
        {
          "internalType": "address",
          "name": "borrower",
          "type": "address"
        },
        {
          "internalType": "uint256",
          "name": "borrowAmount",
          "type": "uint256"
        }
      ],
      "name": "borrowVerify",
      "outputs": [],
      "payable": false,
      "stateMutability": "nonpayable",
      "type": "function"
    },
    {
      "constant": true,
      "inputs": [
        {
          "internalType": "address",
          "name": "account",
          "type": "address"
        },
        {
          "internalType": "contract CToken",
          "name": "cToken",
          "type": "address"
        }
      ],
      "name": "checkMembership",
      "outputs": [
        {
          "internalType": "bool",
          "name": "",
          "type": "bool"
        }
      ],
      "payable": false,
      "stateMutability": "view",
      "type": "function"
    },
    {
      "constant": false,
      "inputs": [
        {
          "internalType": "address",
          "name": "holder",
          "type": "address"
        },
        {
          "internalType": "contract CToken[]",
          "name": "cTokens",
          "type": "address[]"
        }
      ],
      "name": "claimComp",
      "outputs": [],
      "payable": false,
      "stateMutability": "nonpayable",
      "type": "function"
    },
    {
      "constant": false,
      "inputs": [
        {
          "internalType": "address[]",
          "name": "holders",
          "type": "address[]"
        },
        {
          "internalType": "contract CToken[]",
          "name": "cTokens",
          "type": "address[]"
        },
        {
          "internalType": "bool",
          "name": "borrowers",
          "type": "bool"
        },
        {
          "internalType": "bool",
          "name": "suppliers",
          "type": "bool"
        }
      ],
      "name": "claimComp",
      "outputs": [],
      "payable": false,
      "stateMutability": "nonpayable",
      "type": "function"
    },
    {
      "constant": false,
      "inputs": [
        {
          "internalType": "address",
          "name": "holder",
          "type": "address"
        }
      ],
      "name": "claimComp",
      "outputs": [],
      "payable": false,
      "stateMutability": "nonpayable",
      "type": "function"
    },
    {
      "constant": true,
      "inputs": [],
      "name": "closeFactorMantissa",
      "outputs": [
        {
          "internalType": "uint256",
          "name": "",
          "type": "uint256"
        }
      ],
      "payable": false,
      "stateMutability": "view",
      "type": "function"
    },
    {
      "constant": true,
      "inputs": [
        {
          "internalType": "address",
          "name": "",
          "type": "address"
        }
      ],
      "name": "compAccrued",
      "outputs": [
        {
          "internalType": "uint256",
          "name": "",
          "type": "uint256"
        }
      ],
      "payable": false,
      "stateMutability": "view",
      "type": "function"
    },
    {
      "constant": true,
      "inputs": [
        {
          "internalType": "address",
          "name": "",
          "type": "address"
        }
      ],
      "name": "compBorrowState",
      "outputs": [
        {
          "internalType": "uint224",
          "name": "index",
          "type": "uint224"
        },
        {
          "internalType": "uint32",
          "name": "block",
          "type": "uint32"
        }
      ],
      "payable": false,
      "stateMutability": "view",
      "type": "function"
    },
    {
      "constant": true,
      "inputs": [
        {
          "internalType": "address",
          "name": "",
          "type": "address"
        },
        {
          "internalType": "address",
          "name": "",
          "type": "address"
        }
      ],
      "name": "compBorrowerIndex",
      "outputs": [
        {
          "internalType": "uint256",
          "name": "",
          "type": "uint256"
        }
      ],
      "payable": false,
      "stateMutability": "view",
      "type": "function"
    },
    {
      "constant": true,
      "inputs": [],
      "name": "compClaimThreshold",
      "outputs": [
        {
          "internalType": "uint256",
          "name": "",
          "type": "uint256"
        }
      ],
      "payable": false,
      "stateMutability": "view",
      "type": "function"
    },
    {
      "constant": true,
      "inputs": [],
      "name": "compInitialIndex",
      "outputs": [
        {
          "internalType": "uint224",
          "name": "",
          "type": "uint224"
        }
      ],
      "payable": false,
      "stateMutability": "view",
      "type": "function"
    },
    {
      "constant": true,
      "inputs": [],
      "name": "compRate",
      "outputs": [
        {
          "internalType": "uint256",
          "name": "",
          "type": "uint256"
        }
      ],
      "payable": false,
      "stateMutability": "view",
      "type": "function"
    },
    {
      "constant": true,
      "inputs": [
        {
          "internalType": "address",
          "name": "",
          "type": "address"
        }
      ],
      "name": "compSpeeds",
      "outputs": [
        {
          "internalType": "uint256",
          "name": "",
          "type": "uint256"
        }
      ],
      "payable": false,
      "stateMutability": "view",
      "type": "function"
    },
    {
      "constant": true,
      "inputs": [
        {
          "internalType": "address",
          "name": "",
          "type": "address"
        },
        {
          "internalType": "address",
          "name": "",
          "type": "address"
        }
      ],
      "name": "compSupplierIndex",
      "outputs": [
        {
          "internalType": "uint256",
          "name": "",
          "type": "uint256"
        }
      ],
      "payable": false,
      "stateMutability": "view",
      "type": "function"
    },
    {
      "constant": true,
      "inputs": [
        {
          "internalType": "address",
          "name": "",
          "type": "address"
        }
      ],
      "name": "compSupplyState",
      "outputs": [
        {
          "internalType": "uint224",
          "name": "index",
          "type": "uint224"
        },
        {
          "internalType": "uint32",
          "name": "block",
          "type": "uint32"
        }
      ],
      "payable": false,
      "stateMutability": "view",
      "type": "function"
    },
    {
      "constant": true,
      "inputs": [],
      "name": "comptrollerImplementation",
      "outputs": [
        {
          "internalType": "address",
          "name": "",
          "type": "address"
        }
      ],
      "payable": false,
      "stateMutability": "view",
      "type": "function"
    },
    {
      "constant": false,
      "inputs": [
        {
          "internalType": "address[]",
          "name": "cTokens",
          "type": "address[]"
        }
      ],
      "name": "enterMarkets",
      "outputs": [
        {
          "internalType": "uint256[]",
          "name": "",
          "type": "uint256[]"
        }
      ],
      "payable": false,
      "stateMutability": "nonpayable",
      "type": "function"
    },
    {
      "constant": false,
      "inputs": [
        {
          "internalType": "address",
          "name": "cTokenAddress",
          "type": "address"
        }
      ],
      "name": "exitMarket",
      "outputs": [
        {
          "internalType": "uint256",
          "name": "",
          "type": "uint256"
        }
      ],
      "payable": false,
      "stateMutability": "nonpayable",
      "type": "function"
    },
    {
      "constant": true,
      "inputs": [
        {
          "internalType": "address",
          "name": "account",
          "type": "address"
        }
      ],
      "name": "getAccountLiquidity",
      "outputs": [
        {
          "internalType": "uint256",
          "name": "",
          "type": "uint256"
        },
        {
          "internalType": "uint256",
          "name": "",
          "type": "uint256"
        },
        {
          "internalType": "uint256",
          "name": "",
          "type": "uint256"
        }
      ],
      "payable": false,
      "stateMutability": "view",
      "type": "function"
    },
    {
      "constant": true,
      "inputs": [],
      "name": "getAllMarkets",
      "outputs": [
        {
          "internalType": "contract CToken[]",
          "name": "",
          "type": "address[]"
        }
      ],
      "payable": false,
      "stateMutability": "view",
      "type": "function"
    },
    {
      "constant": true,
      "inputs": [
        {
          "internalType": "address",
          "name": "account",
          "type": "address"
        }
      ],
      "name": "getAssetsIn",
      "outputs": [
        {
          "internalType": "contract CToken[]",
          "name": "",
          "type": "address[]"
        }
      ],
      "payable": false,
      "stateMutability": "view",
      "type": "function"
    },
    {
      "constant": true,
      "inputs": [],
      "name": "getBlockNumber",
      "outputs": [
        {
          "internalType": "uint256",
          "name": "",
          "type": "uint256"
        }
      ],
      "payable": false,
      "stateMutability": "view",
      "type": "function"
    },
    {
      "constant": true,
      "inputs": [],
      "name": "getCompAddress",
      "outputs": [
        {
          "internalType": "address",
          "name": "",
          "type": "address"
        }
      ],
      "payable": false,
      "stateMutability": "view",
      "type": "function"
    },
    {
      "constant": true,
      "inputs": [
        {
          "internalType": "address",
          "name": "account",
          "type": "address"
        },
        {
          "internalType": "address",
          "name": "cTokenModify",
          "type": "address"
        },
        {
          "internalType": "uint256",
          "name": "redeemTokens",
          "type": "uint256"
        },
        {
          "internalType": "uint256",
          "name": "borrowAmount",
          "type": "uint256"
        }
      ],
      "name": "getHypotheticalAccountLiquidity",
      "outputs": [
        {
          "internalType": "uint256",
          "name": "",
          "type": "uint256"
        },
        {
          "internalType": "uint256",
          "name": "",
          "type": "uint256"
        },
        {
          "internalType": "uint256",
          "name": "",
          "type": "uint256"
        }
      ],
      "payable": false,
      "stateMutability": "view",
      "type": "function"
    },
    {
      "constant": true,
      "inputs": [],
      "name": "isComptroller",
      "outputs": [
        {
          "internalType": "bool",
          "name": "",
          "type": "bool"
        }
      ],
      "payable": false,
      "stateMutability": "view",
      "type": "function"
    },
    {
      "constant": false,
      "inputs": [
        {
          "internalType": "address",
          "name": "cTokenBorrowed",
          "type": "address"
        },
        {
          "internalType": "address",
          "name": "cTokenCollateral",
          "type": "address"
        },
        {
          "internalType": "address",
          "name": "liquidator",
          "type": "address"
        },
        {
          "internalType": "address",
          "name": "borrower",
          "type": "address"
        },
        {
          "internalType": "uint256",
          "name": "repayAmount",
          "type": "uint256"
        }
      ],
      "name": "liquidateBorrowAllowed",
      "outputs": [
        {
          "internalType": "uint256",
          "name": "",
          "type": "uint256"
        }
      ],
      "payable": false,
      "stateMutability": "nonpayable",
      "type": "function"
    },
    {
      "constant": false,
      "inputs": [
        {
          "internalType": "address",
          "name": "cTokenBorrowed",
          "type": "address"
        },
        {
          "internalType": "address",
          "name": "cTokenCollateral",
          "type": "address"
        },
        {
          "internalType": "address",
          "name": "liquidator",
          "type": "address"
        },
        {
          "internalType": "address",
          "name": "borrower",
          "type": "address"
        },
        {
          "internalType": "uint256",
          "name": "actualRepayAmount",
          "type": "uint256"
        },
        {
          "internalType": "uint256",
          "name": "seizeTokens",
          "type": "uint256"
        }
      ],
      "name": "liquidateBorrowVerify",
      "outputs": [],
      "payable": false,
      "stateMutability": "nonpayable",
      "type": "function"
    },
    {
      "constant": true,
      "inputs": [
        {
          "internalType": "address",
          "name": "cTokenBorrowed",
          "type": "address"
        },
        {
          "internalType": "address",
          "name": "cTokenCollateral",
          "type": "address"
        },
        {
          "internalType": "uint256",
          "name": "actualRepayAmount",
          "type": "uint256"
        }
      ],
      "name": "liquidateCalculateSeizeTokens",
      "outputs": [
        {
          "internalType": "uint256",
          "name": "",
          "type": "uint256"
        },
        {
          "internalType": "uint256",
          "name": "",
          "type": "uint256"
        }
      ],
      "payable": false,
      "stateMutability": "view",
      "type": "function"
    },
    {
      "constant": true,
      "inputs": [],
      "name": "liquidationIncentiveMantissa",
      "outputs": [
        {
          "internalType": "uint256",
          "name": "",
          "type": "uint256"
        }
      ],
      "payable": false,
      "stateMutability": "view",
      "type": "function"
    },
    {
      "constant": true,
      "inputs": [
        {
          "internalType": "address",
          "name": "",
          "type": "address"
        }
      ],
      "name": "markets",
      "outputs": [
        {
          "internalType": "bool",
          "name": "isListed",
          "type": "bool"
        },
        {
          "internalType": "uint256",
          "name": "collateralFactorMantissa",
          "type": "uint256"
        },
        {
          "internalType": "bool",
          "name": "isComped",
          "type": "bool"
        }
      ],
      "payable": false,
      "stateMutability": "view",
      "type": "function"
    },
    {
      "constant": true,
      "inputs": [],
      "name": "maxAssets",
      "outputs": [
        {
          "internalType": "uint256",
          "name": "",
          "type": "uint256"
        }
      ],
      "payable": false,
      "stateMutability": "view",
      "type": "function"
    },
    {
      "constant": false,
      "inputs": [
        {
          "internalType": "address",
          "name": "cToken",
          "type": "address"
        },
        {
          "internalType": "address",
          "name": "minter",
          "type": "address"
        },
        {
          "internalType": "uint256",
          "name": "mintAmount",
          "type": "uint256"
        }
      ],
      "name": "mintAllowed",
      "outputs": [
        {
          "internalType": "uint256",
          "name": "",
          "type": "uint256"
        }
      ],
      "payable": false,
      "stateMutability": "nonpayable",
      "type": "function"
    },
    {
      "constant": true,
      "inputs": [
        {
          "internalType": "address",
          "name": "",
          "type": "address"
        }
      ],
      "name": "mintGuardianPaused",
      "outputs": [
        {
          "internalType": "bool",
          "name": "",
          "type": "bool"
        }
      ],
      "payable": false,
      "stateMutability": "view",
      "type": "function"
    },
    {
      "constant": false,
      "inputs": [
        {
          "internalType": "address",
          "name": "cToken",
          "type": "address"
        },
        {
          "internalType": "address",
          "name": "minter",
          "type": "address"
        },
        {
          "internalType": "uint256",
          "name": "actualMintAmount",
          "type": "uint256"
        },
        {
          "internalType": "uint256",
          "name": "mintTokens",
          "type": "uint256"
        }
      ],
      "name": "mintVerify",
      "outputs": [],
      "payable": false,
      "stateMutability": "nonpayable",
      "type": "function"
    },
    {
      "constant": true,
      "inputs": [],
      "name": "oracle",
      "outputs": [
        {
          "internalType": "contract PriceOracle",
          "name": "",
          "type": "address"
        }
      ],
      "payable": false,
      "stateMutability": "view",
      "type": "function"
    },
    {
      "constant": true,
      "inputs": [],
      "name": "pauseGuardian",
      "outputs": [
        {
          "internalType": "address",
          "name": "",
          "type": "address"
        }
      ],
      "payable": false,
      "stateMutability": "view",
      "type": "function"
    },
    {
      "constant": true,
      "inputs": [],
      "name": "pendingAdmin",
      "outputs": [
        {
          "internalType": "address",
          "name": "",
          "type": "address"
        }
      ],
      "payable": false,
      "stateMutability": "view",
      "type": "function"
    },
    {
      "constant": true,
      "inputs": [],
      "name": "pendingComptrollerImplementation",
      "outputs": [
        {
          "internalType": "address",
          "name": "",
          "type": "address"
        }
      ],
      "payable": false,
      "stateMutability": "view",
      "type": "function"
    },
    {
      "constant": false,
      "inputs": [
        {
          "internalType": "address",
          "name": "cToken",
          "type": "address"
        },
        {
          "internalType": "address",
          "name": "redeemer",
          "type": "address"
        },
        {
          "internalType": "uint256",
          "name": "redeemTokens",
          "type": "uint256"
        }
      ],
      "name": "redeemAllowed",
      "outputs": [
        {
          "internalType": "uint256",
          "name": "",
          "type": "uint256"
        }
      ],
      "payable": false,
      "stateMutability": "nonpayable",
      "type": "function"
    },
    {
      "constant": false,
      "inputs": [
        {
          "internalType": "address",
          "name": "cToken",
          "type": "address"
        },
        {
          "internalType": "address",
          "name": "redeemer",
          "type": "address"
        },
        {
          "internalType": "uint256",
          "name": "redeemAmount",
          "type": "uint256"
        },
        {
          "internalType": "uint256",
          "name": "redeemTokens",
          "type": "uint256"
        }
      ],
      "name": "redeemVerify",
      "outputs": [],
      "payable": false,
      "stateMutability": "nonpayable",
      "type": "function"
    },
    {
      "constant": false,
      "inputs": [],
      "name": "refreshCompSpeeds",
      "outputs": [],
      "payable": false,
      "stateMutability": "nonpayable",
      "type": "function"
    },
    {
      "constant": false,
      "inputs": [
        {
          "internalType": "address",
          "name": "cToken",
          "type": "address"
        },
        {
          "internalType": "address",
          "name": "payer",
          "type": "address"
        },
        {
          "internalType": "address",
          "name": "borrower",
          "type": "address"
        },
        {
          "internalType": "uint256",
          "name": "repayAmount",
          "type": "uint256"
        }
      ],
      "name": "repayBorrowAllowed",
      "outputs": [
        {
          "internalType": "uint256",
          "name": "",
          "type": "uint256"
        }
      ],
      "payable": false,
      "stateMutability": "nonpayable",
      "type": "function"
    },
    {
      "constant": false,
      "inputs": [
        {
          "internalType": "address",
          "name": "cToken",
          "type": "address"
        },
        {
          "internalType": "address",
          "name": "payer",
          "type": "address"
        },
        {
          "internalType": "address",
          "name": "borrower",
          "type": "address"
        },
        {
          "internalType": "uint256",
          "name": "actualRepayAmount",
          "type": "uint256"
        },
        {
          "internalType": "uint256",
          "name": "borrowerIndex",
          "type": "uint256"
        }
      ],
      "name": "repayBorrowVerify",
      "outputs": [],
      "payable": false,
      "stateMutability": "nonpayable",
      "type": "function"
    },
    {
      "constant": false,
      "inputs": [
        {
          "internalType": "address",
          "name": "cTokenCollateral",
          "type": "address"
        },
        {
          "internalType": "address",
          "name": "cTokenBorrowed",
          "type": "address"
        },
        {
          "internalType": "address",
          "name": "liquidator",
          "type": "address"
        },
        {
          "internalType": "address",
          "name": "borrower",
          "type": "address"
        },
        {
          "internalType": "uint256",
          "name": "seizeTokens",
          "type": "uint256"
        }
      ],
      "name": "seizeAllowed",
      "outputs": [
        {
          "internalType": "uint256",
          "name": "",
          "type": "uint256"
        }
      ],
      "payable": false,
      "stateMutability": "nonpayable",
      "type": "function"
    },
    {
      "constant": true,
      "inputs": [],
      "name": "seizeGuardianPaused",
      "outputs": [
        {
          "internalType": "bool",
          "name": "",
          "type": "bool"
        }
      ],
      "payable": false,
      "stateMutability": "view",
      "type": "function"
    },
    {
      "constant": false,
      "inputs": [
        {
          "internalType": "address",
          "name": "cTokenCollateral",
          "type": "address"
        },
        {
          "internalType": "address",
          "name": "cTokenBorrowed",
          "type": "address"
        },
        {
          "internalType": "address",
          "name": "liquidator",
          "type": "address"
        },
        {
          "internalType": "address",
          "name": "borrower",
          "type": "address"
        },
        {
          "internalType": "uint256",
          "name": "seizeTokens",
          "type": "uint256"
        }
      ],
      "name": "seizeVerify",
      "outputs": [],
      "payable": false,
      "stateMutability": "nonpayable",
      "type": "function"
    },
    {
      "constant": false,
      "inputs": [
        {
          "internalType": "address",
          "name": "cToken",
          "type": "address"
        },
        {
          "internalType": "address",
          "name": "src",
          "type": "address"
        },
        {
          "internalType": "address",
          "name": "dst",
          "type": "address"
        },
        {
          "internalType": "uint256",
          "name": "transferTokens",
          "type": "uint256"
        }
      ],
      "name": "transferAllowed",
      "outputs": [
        {
          "internalType": "uint256",
          "name": "",
          "type": "uint256"
        }
      ],
      "payable": false,
      "stateMutability": "nonpayable",
      "type": "function"
    },
    {
      "constant": true,
      "inputs": [],
      "name": "transferGuardianPaused",
      "outputs": [
        {
          "internalType": "bool",
          "name": "",
          "type": "bool"
        }
      ],
      "payable": false,
      "stateMutability": "view",
      "type": "function"
    },
    {
      "constant": false,
      "inputs": [
        {
          "internalType": "address",
          "name": "cToken",
          "type": "address"
        },
        {
          "internalType": "address",
          "name": "src",
          "type": "address"
        },
        {
          "internalType": "address",
          "name": "dst",
          "type": "address"
        },
        {
          "internalType": "uint256",
          "name": "transferTokens",
          "type": "uint256"
        }
      ],
      "name": "transferVerify",
      "outputs": [],
      "payable": false,
      "stateMutability": "nonpayable",
      "type": "function"
    }
  ],
  "bytecode": "0x608060405234801561001057600080fd5b50600080546001600160a01b03191633179055615f9480620000336000396000f3fe608060405234801561001057600080fd5b50600436106104485760003560e01c80636d154ea511610241578063bb82aa5e1161013b578063da3d454c116100c3578063e875544611610087578063e875544614611208578063e9af029214611210578063eabe7d9114611236578063ede4edd01461126c578063f851a4401461129257610448565b8063da3d454c1461116a578063dce15449146111a0578063dcfbc0c7146111cc578063e4028eee146111d4578063e6653f3d1461120057610448565b8063ca0af0431161010a578063ca0af04314611012578063cc7ebdc414611040578063ce485c5e14611066578063d02f735114611107578063d9226ced1461114d57610448565b8063bb82aa5e14610ede578063bdcdc25814610ee6578063c299823814610f22578063c488847b14610fc357610448565b8063929fe9a1116101c9578063aa9007541161018d578063aa90075414610e22578063abfceffc14610e2a578063ac0b0bb714610ea0578063b0772d0b14610ea8578063b21be7fd14610eb057610448565b8063929fe9a114610d9a57806394b2294b14610dc85780639d1b5a0a14610dd0578063a76b3fda14610dd8578063a7f0e23114610dfe57610448565b80637dc0d1d0116102105780637dc0d1d014610cfd57806387f7630314610d055780638c57804e14610d0d5780638e8f294b14610d335780638ebf636414610d7b57610448565b80636d154ea514610c635780636d35bf9114610c89578063731f0c2b14610ccf578063747026c914610cf557610448565b806347ef3b3b1161035257806355ee1fe1116102da578063607ef6c11161029e578063607ef6c1146109d25780636810dfa614610a905780636a49111214610bbc5780636a56947e14610bd95780636b79c38d14610c1557610448565b806355ee1fe1146108e45780635c7786051461090a5780635ec88c79146109405780635f5af1aa146109665780635fc7e71e1461098c57610448565b80634e79238f116103215780634e79238f146107de5780634ef4c3e1146108385780634fd42e171461086e57806351dff9891461088b57806352d84d1e146108c757610448565b806347ef3b3b1461075c5780634a584432146107a85780634ada90af146107ce5780634d8e5037146107d657610448565b806326782247116103d55780633aa729b4116103a45780633aa729b4146106bc5780633bcf7ec1146106e25780633c94786f1461071057806341c728b91461071857806342cbb15c1461075457610448565b806326782247146106525780632d70db781461065a578063317b0b7714610679578063391957d71461069657610448565b80631d7b33d71161041c5780631d7b33d7146105705780631ededc91146105a857806321af4569146105ea57806324008a621461060e57806324a3d6221461064a57610448565b80627e3dd21461044d57806318c882a5146104695780631c3db2e0146104975780631d504dc61461054a575b600080fd5b61045561129a565b604080519115158252519081900360200190f35b6104556004803603604081101561047f57600080fd5b506001600160a01b038135169060200135151561129f565b610548600480360360408110156104ad57600080fd5b6001600160a01b038235169190810190604081016020820135600160201b8111156104d757600080fd5b8201836020820111156104e957600080fd5b803590602001918460208302840111600160201b8311171561050a57600080fd5b91908080602002602001604051908101604052809392919081815260200183836020028082843760009201919091525092955061143f945050505050565b005b6105486004803603602081101561056057600080fd5b50356001600160a01b03166114a1565b6105966004803603602081101561058657600080fd5b50356001600160a01b0316611600565b60408051918252519081900360200190f35b610548600480360360a08110156105be57600080fd5b506001600160a01b03813581169160208101358216916040820135169060608101359060800135611612565b6105f2611619565b604080516001600160a01b039092168252519081900360200190f35b6105966004803603608081101561062457600080fd5b506001600160a01b03813581169160208101358216916040820135169060600135611628565b6105f26116f1565b6105f2611700565b6104556004803603602081101561067057600080fd5b5035151561170f565b6105966004803603602081101561068f57600080fd5b5035611849565b610548600480360360208110156106ac57600080fd5b50356001600160a01b031661195a565b610548600480360360208110156106d257600080fd5b50356001600160a01b0316611a06565b610455600480360360408110156106f857600080fd5b506001600160a01b0381351690602001351515611b37565b610455611cd2565b6105486004803603608081101561072e57600080fd5b506001600160a01b03813581169160208101359091169060408101359060600135611ce2565b610596611ce8565b610548600480360360c081101561077257600080fd5b506001600160a01b0381358116916020810135821691604082013581169160608101359091169060808101359060a00135611ced565b610596600480360360208110156107be57600080fd5b50356001600160a01b0316611cf5565b610596611d07565b610548611d0d565b61081a600480360360808110156107f457600080fd5b506001600160a01b03813581169160208101359091169060408101359060600135611d55565b60408051938452602084019290925282820152519081900360600190f35b6105966004803603606081101561084e57600080fd5b506001600160a01b03813581169160208101359091169060400135611d8f565b6105966004803603602081101561088457600080fd5b5035611e3a565b610548600480360360808110156108a157600080fd5b506001600160a01b03813581169160208101359091169060408101359060600135611f2e565b6105f2600480360360208110156108dd57600080fd5b5035611f82565b610596600480360360208110156108fa57600080fd5b50356001600160a01b0316611fa9565b6105486004803603606081101561092057600080fd5b506001600160a01b03813581169160208101359091169060400135612030565b61081a6004803603602081101561095657600080fd5b50356001600160a01b0316612035565b6105966004803603602081101561097c57600080fd5b50356001600160a01b031661206a565b610596600480360360a08110156109a257600080fd5b506001600160a01b03813581169160208101358216916040820135811691606081013590911690608001356120ee565b610548600480360360408110156109e857600080fd5b810190602081018135600160201b811115610a0257600080fd5b820183602082011115610a1457600080fd5b803590602001918460208302840111600160201b83111715610a3557600080fd5b919390929091602081019035600160201b811115610a5257600080fd5b820183602082011115610a6457600080fd5b803590602001918460208302840111600160201b83111715610a8557600080fd5b509092509050612275565b61054860048036036080811015610aa657600080fd5b810190602081018135600160201b811115610ac057600080fd5b820183602082011115610ad257600080fd5b803590602001918460208302840111600160201b83111715610af357600080fd5b9190808060200260200160405190810160405280939291908181526020018383602002808284376000920191909152509295949360208101935035915050600160201b811115610b4257600080fd5b820183602082011115610b5457600080fd5b803590602001918460208302840111600160201b83111715610b7557600080fd5b919080806020026020016040519081016040528093929190818152602001838360200280828437600092019190915250929550505050803515159150602001351515612405565b61054860048036036020811015610bd257600080fd5b50356125ae565b61054860048036036080811015610bef57600080fd5b506001600160a01b03813581169160208101358216916040820135169060600135611ce2565b610c3b60048036036020811015610c2b57600080fd5b50356001600160a01b0316612652565b604080516001600160e01b03909316835263ffffffff90911660208301528051918290030190f35b61045560048036036020811015610c7957600080fd5b50356001600160a01b031661267c565b610548600480360360a0811015610c9f57600080fd5b506001600160a01b0381358116916020810135821691604082013581169160608101359091169060800135611612565b61045560048036036020811015610ce557600080fd5b50356001600160a01b0316612691565b6105966126a6565b6105f26126b1565b6104556126c0565b610c3b60048036036020811015610d2357600080fd5b50356001600160a01b03166126d0565b610d5960048036036020811015610d4957600080fd5b50356001600160a01b03166126fa565b6040805193151584526020840192909252151582820152519081900360600190f35b61045560048036036020811015610d9157600080fd5b50351515612720565b61045560048036036040811015610db057600080fd5b506001600160a01b0381358116916020013516612859565b61059661288c565b6105f2612892565b61059660048036036020811015610dee57600080fd5b50356001600160a01b03166128aa565b610e06612a07565b604080516001600160e01b039092168252519081900360200190f35b610596612a1a565b610e5060048036036020811015610e4057600080fd5b50356001600160a01b0316612a20565b60408051602080825283518183015283519192839290830191858101910280838360005b83811015610e8c578181015183820152602001610e74565b505050509050019250505060405180910390f35b610455612aa9565b610e50612ab9565b61059660048036036040811015610ec657600080fd5b506001600160a01b0381358116916020013516612b1b565b6105f2612b38565b61059660048036036080811015610efc57600080fd5b506001600160a01b03813581169160208101358216916040820135169060600135612b47565b610e5060048036036020811015610f3857600080fd5b810190602081018135600160201b811115610f5257600080fd5b820183602082011115610f6457600080fd5b803590602001918460208302840111600160201b83111715610f8557600080fd5b919080806020026020016040519081016040528093929190818152602001838360200280828437600092019190915250929550612bdb945050505050565b610ff960048036036060811015610fd957600080fd5b506001600160a01b03813581169160208101359091169060400135612c72565b6040805192835260208301919091528051918290030190f35b6105966004803603604081101561102857600080fd5b506001600160a01b0381358116916020013516612ee7565b6105966004803603602081101561105657600080fd5b50356001600160a01b0316612f04565b6105486004803603602081101561107c57600080fd5b810190602081018135600160201b81111561109657600080fd5b8201836020820111156110a857600080fd5b803590602001918460208302840111600160201b831117156110c957600080fd5b919080806020026020016040519081016040528093929190818152602001838360200280828437600092019190915250929550612f16945050505050565b610596600480360360a081101561111d57600080fd5b506001600160a01b0381358116916020810135821691604082013581169160608101359091169060800135612fa8565b6105966004803603602081101561116357600080fd5b5035613160565b6105966004803603606081101561118057600080fd5b506001600160a01b038135811691602081013590911690604001356131c9565b6105f2600480360360408110156111b657600080fd5b506001600160a01b038135169060200135613603565b6105f2613638565b610596600480360360408110156111ea57600080fd5b506001600160a01b038135169060200135613647565b6104556137f7565b610596613807565b6105486004803603602081101561122657600080fd5b50356001600160a01b031661380d565b6105966004803603606081101561124c57600080fd5b506001600160a01b03813581169160208101359091169060400135613871565b6105966004803603602081101561128257600080fd5b50356001600160a01b03166138ae565b6105f2613bc1565b600181565b6001600160a01b03821660009081526009602052604081205460ff166112f65760405162461bcd60e51b8152600401808060200182810382526028815260200180615e196028913960400191505060405180910390fd5b600a546001600160a01b031633148061131957506000546001600160a01b031633145b6113545760405162461bcd60e51b8152600401808060200182810382526027815260200180615e726027913960400191505060405180910390fd5b6000546001600160a01b031633148061136f57506001821515145b6113b9576040805162461bcd60e51b81526020600482015260166024820152756f6e6c792061646d696e2063616e20756e706175736560501b604482015290519081900360640190fd5b6001600160a01b0383166000818152600c6020908152604091829020805486151560ff199091168117909155825193845283830152606090830181905260069083015265426f72726f7760d01b6080830152517f71aec636243f9709bb0007ae15e9afb8150ab01716d75fd7573be5cc096e03b09181900360a00190a150805b92915050565b60408051600180825281830190925260609160208083019080388339019050509050828160008151811061146f57fe5b60200260200101906001600160a01b031690816001600160a01b03168152505061149c8183600180612405565b505050565b806001600160a01b031663f851a4406040518163ffffffff1660e01b815260040160206040518083038186803b1580156114da57600080fd5b505afa1580156114ee573d6000803e3d6000fd5b505050506040513d602081101561150457600080fd5b50516001600160a01b0316331461154c5760405162461bcd60e51b8152600401808060200182810382526027815260200180615f396027913960400191505060405180910390fd5b806001600160a01b031663c1e803346040518163ffffffff1660e01b8152600401602060405180830381600087803b15801561158757600080fd5b505af115801561159b573d6000803e3d6000fd5b505050506040513d60208110156115b157600080fd5b5051156115fd576040805162461bcd60e51b815260206004820152601560248201527418da185b99d9481b9bdd08185d5d1a1bdc9a5e9959605a1b604482015290519081900360640190fd5b50565b600f6020526000908152604090205481565b5050505050565b6015546001600160a01b031681565b6001600160a01b03841660009081526009602052604081205460ff16611650575060096116e9565b611658615d59565b6040518060200160405280876001600160a01b031663aa5af0fd6040518163ffffffff1660e01b815260040160206040518083038186803b15801561169c57600080fd5b505afa1580156116b0573d6000803e3d6000fd5b505050506040513d60208110156116c657600080fd5b5051905290506116d68682613bd0565b6116e38685836000613e58565b60009150505b949350505050565b600a546001600160a01b031681565b6001546001600160a01b031681565b600a546000906001600160a01b031633148061173557506000546001600160a01b031633145b6117705760405162461bcd60e51b8152600401808060200182810382526027815260200180615e726027913960400191505060405180910390fd5b6000546001600160a01b031633148061178b57506001821515145b6117d5576040805162461bcd60e51b81526020600482015260166024820152756f6e6c792061646d696e2063616e20756e706175736560501b604482015290519081900360640190fd5b600a8054831515600160b81b810260ff60b81b1990921691909117909155604080516020810192909252808252600582820152645365697a6560d81b6060830152517fef159d9a32b2472e32b098f954f3ce62d232939f1c207070b584df1814de2de09181900360800190a150805b919050565b600080546001600160a01b0316331461186f5761186860016004614042565b9050611844565b611877615d59565b50604080516020810190915282815261188e615d59565b50604080516020810190915266b1a2bc2ec5000081526118ae82826140a8565b156118c7576118be600580614042565b92505050611844565b6118cf615d59565b506040805160208101909152670c7d713b49da000081526118f081846140b0565b1561190a57611900600580614042565b9350505050611844565b6005805490869055604080518281526020810188905281517f3b9670cf975d26958e754b57098eaa2ac914d8d2a31b83257997b9f346110fd9929181900390910190a160005b9695505050505050565b6000546001600160a01b031633146119a35760405162461bcd60e51b8152600401808060200182810382526026815260200180615e996026913960400191505060405180910390fd5b601580546001600160a01b038381166001600160a01b0319831681179093556040805191909216808252602082019390935281517feda98690e518e9a05f8ec6837663e188211b2da8f4906648b323f2c1d4434e29929181900390910190a15050565b6000546001600160a01b03163314611a65576040805162461bcd60e51b815260206004820152601f60248201527f6f6e6c792061646d696e2063616e2064726f7020636f6d70206d61726b657400604482015290519081900360640190fd5b6001600160a01b0381166000908152600960205260409020600381015460ff161515600114611adb576040805162461bcd60e51b815260206004820152601b60248201527f6d61726b6574206973206e6f74206120636f6d70206d61726b65740000000000604482015290519081900360640190fd5b60038101805460ff19169055604080516001600160a01b03841681526000602082015281517f93c1f3e36ed71139f466a4ce8c9751790e2e33f5afb2df0dcfb3aeabe55d5aa2929181900390910190a1611b336140b7565b5050565b6001600160a01b03821660009081526009602052604081205460ff16611b8e5760405162461bcd60e51b8152600401808060200182810382526028815260200180615e196028913960400191505060405180910390fd5b600a546001600160a01b0316331480611bb157506000546001600160a01b031633145b611bec5760405162461bcd60e51b8152600401808060200182810382526027815260200180615e726027913960400191505060405180910390fd5b6000546001600160a01b0316331480611c0757506001821515145b611c51576040805162461bcd60e51b81526020600482015260166024820152756f6e6c792061646d696e2063616e20756e706175736560501b604482015290519081900360640190fd5b6001600160a01b0383166000818152600b6020908152604091829020805486151560ff199091168117909155825193845283830152606090830181905260049083015263135a5b9d60e21b6080830152517f71aec636243f9709bb0007ae15e9afb8150ab01716d75fd7573be5cc096e03b09181900360a00190a150919050565b600a54600160a01b900460ff1681565b50505050565b435b90565b505050505050565b60166020526000908152604090205481565b60065481565b333214611d4b5760405162461bcd60e51b8152600401808060200182810382526031815260200180615e416031913960400191505060405180910390fd5b611d536140b7565b565b600080600080600080611d6a8a8a8a8a61447c565b925092509250826011811115611d7c57fe5b95509093509150505b9450945094915050565b6001600160a01b0383166000908152600b602052604081205460ff1615611dee576040805162461bcd60e51b815260206004820152600e60248201526d1b5a5b9d081a5cc81c185d5cd95960921b604482015290519081900360640190fd5b6001600160a01b03841660009081526009602052604090205460ff16611e185760095b9050611e33565b611e2184614897565b611e2d84846000614b15565b60005b90505b9392505050565b600080546001600160a01b03163314611e59576118686001600b614042565b611e61615d59565b506040805160208101909152828152611e78615d59565b506040805160208101909152670de0b6b3a76400008152611e9982826140b0565b15611eaa576118be6007600c614042565b611eb2615d59565b5060408051602081019091526714d1120d7b1600008152611ed381846140b0565b15611ee4576119006007600c614042565b6006805490869055604080518281526020810188905281517faeba5a6c40a8ac138134bff1aaa65debf25971188a58804bad717f82f0ec1316929181900390910190a16000611950565b80158015611f3c5750600082115b15611ce2576040805162461bcd60e51b815260206004820152601160248201527072656465656d546f6b656e73207a65726f60781b604482015290519081900360640190fd5b600d8181548110611f8f57fe5b6000918252602090912001546001600160a01b0316905081565b600080546001600160a01b03163314611fc85761186860016010614042565b600480546001600160a01b038481166001600160a01b0319831681179093556040805191909216808252602082019390935281517fd52b2b9b7e9ee655fcb95d2e5b9e0c9f69e7ef2b8e9d2d0ea78402d576d22e22929181900390910190a160009392505050565b61149c565b60008060008060008061204c87600080600061447c565b92509250925082601181111561205e57fe5b97919650945092505050565b600080546001600160a01b031633146120895761186860016013614042565b600a80546001600160a01b038481166001600160a01b0319831617928390556040805192821680845293909116602083015280517f0613b6ee6a04f0d09f390e4d9318894b9f6ac7fd83897cd8d18896ba579c401e9281900390910190a16000611e33565b6001600160a01b03851660009081526009602052604081205460ff16158061212f57506001600160a01b03851660009081526009602052604090205460ff16155b1561213e5760095b905061226c565b60008061214a85614d0d565b9193509091506000905082601181111561216057fe5b1461217a5781601181111561217157fe5b9250505061226c565b80612186576003612171565b6000886001600160a01b03166395dd9193876040518263ffffffff1660e01b815260040180826001600160a01b03166001600160a01b0316815260200191505060206040518083038186803b1580156121de57600080fd5b505afa1580156121f2573d6000803e3d6000fd5b505050506040513d602081101561220857600080fd5b505160408051602081019091526005548152909150600090819061222c9084614d2d565b9092509050600082600381111561223f57fe5b1461225357600b5b9550505050505061226c565b80871115612262576011612247565b6000955050505050505b95945050505050565b6000546001600160a01b031633148061229857506015546001600160a01b031633145b6122d35760405162461bcd60e51b8152600401808060200182810382526035815260200180615ebf6035913960400191505060405180910390fd5b828181158015906122e357508082145b612324576040805162461bcd60e51b815260206004820152600d60248201526c1a5b9d985b1a59081a5b9c1d5d609a1b604482015290519081900360640190fd5b60005b828110156123fc5784848281811061233b57fe5b905060200201356016600089898581811061235257fe5b905060200201356001600160a01b03166001600160a01b03166001600160a01b031681526020019081526020016000208190555086868281811061239257fe5b905060200201356001600160a01b03166001600160a01b03167f6f1951b2aad10f3fc81b86d91105b413a5b3f847a34bbc5ce1904201b14438f68686848181106123d857fe5b905060200201356040518082815260200191505060405180910390a2600101612327565b50505050505050565b60005b835181101561161257600084828151811061241f57fe5b6020908102919091018101516001600160a01b0381166000908152600990925260409091205490915060ff16612494576040805162461bcd60e51b81526020600482015260156024820152741b585c9ad95d081b5d5cdd081899481b1a5cdd1959605a1b604482015290519081900360640190fd5b6001841515141561255c576124a7615d59565b6040518060200160405280836001600160a01b031663aa5af0fd6040518163ffffffff1660e01b815260040160206040518083038186803b1580156124eb57600080fd5b505afa1580156124ff573d6000803e3d6000fd5b505050506040513d602081101561251557600080fd5b5051905290506125258282613bd0565b60005b8751811015612559576125518389838151811061254157fe5b6020026020010151846001613e58565b600101612528565b50505b600183151514156125a55761257081614897565b60005b86518110156125a35761259b8288838151811061258c57fe5b60200260200101516001614b15565b600101612573565b505b50600101612408565b6125b6614d81565b612607576040805162461bcd60e51b815260206004820152601f60248201527f6f6e6c792061646d696e2063616e206368616e676520636f6d70207261746500604482015290519081900360640190fd5b600e805490829055604080518281526020810184905281517fc227c9272633c3a307d9845bf2bc2509cefb20d655b5f3c1002d8e1e3f22c8b0929181900390910190a1611b336140b7565b6010602052600090815260409020546001600160e01b03811690600160e01b900463ffffffff1682565b600c6020526000908152604090205460ff1681565b600b6020526000908152604090205460ff1681565b66038d7ea4c6800081565b6004546001600160a01b031681565b600a54600160b01b900460ff1681565b6011602052600090815260409020546001600160e01b03811690600160e01b900463ffffffff1682565b60096020526000908152604090208054600182015460039092015460ff91821692911683565b600a546000906001600160a01b031633148061274657506000546001600160a01b031633145b6127815760405162461bcd60e51b8152600401808060200182810382526027815260200180615e726027913960400191505060405180910390fd5b6000546001600160a01b031633148061279c57506001821515145b6127e6576040805162461bcd60e51b81526020600482015260166024820152756f6e6c792061646d696e2063616e20756e706175736560501b604482015290519081900360640190fd5b600a8054831515600160b01b810260ff60b01b1990921691909117909155604080516020810192909252808252600882820152672a3930b739b332b960c11b6060830152517fef159d9a32b2472e32b098f954f3ce62d232939f1c207070b584df1814de2de09181900360800190a15090565b6001600160a01b038082166000908152600960209081526040808320938616835260029093019052205460ff1692915050565b60075481565b73c00e94cb662c3520282e6f5717214004a7f2688890565b600080546001600160a01b031633146128c95761186860016012614042565b6001600160a01b03821660009081526009602052604090205460ff16156128f657611868600a6011614042565b816001600160a01b031663fe9c44ae6040518163ffffffff1660e01b815260040160206040518083038186803b15801561292f57600080fd5b505afa158015612943573d6000803e3d6000fd5b505050506040513d602081101561295957600080fd5b5050604080516060810182526001808252600060208381018281528486018381526001600160a01b03891684526009909252949091209251835490151560ff199182161784559351918301919091555160039091018054911515919092161790556129c382614daa565b604080516001600160a01b038416815290517fcf583bb0c569eb967f806b11601c4cb93c10310485c67add5f8362c2f212321f9181900360200190a1600092915050565b6ec097ce7bc90715b34b9f100000000081565b600e5481565b60608060086000846001600160a01b03166001600160a01b03168152602001908152602001600020805480602002602001604051908101604052809291908181526020018280548015612a9c57602002820191906000526020600020905b81546001600160a01b03168152600190910190602001808311612a7e575b5093979650505050505050565b600a54600160b81b900460ff1681565b6060600d805480602002602001604051908101604052809291908181526020018280548015612b1157602002820191906000526020600020905b81546001600160a01b03168152600190910190602001808311612af3575b5050505050905090565b601260209081526000928352604080842090915290825290205481565b6002546001600160a01b031681565b600a54600090600160b01b900460ff1615612b9e576040805162461bcd60e51b81526020600482015260126024820152711d1c985b9cd9995c881a5cc81c185d5cd95960721b604482015290519081900360640190fd5b6000612bab868685614e88565b90508015612bba5790506116e9565b612bc386614897565b612bcf86866000614b15565b6116e386856000614b15565b6060600082519050606081604051908082528060200260200182016040528015612c0f578160200160208202803883390190505b50905060005b82811015612c6a576000858281518110612c2b57fe5b60200260200101519050612c3f8133614f34565b6011811115612c4a57fe5b838381518110612c5657fe5b602090810291909101015250600101612c15565b509392505050565b600480546040805163fc57d4df60e01b81526001600160a01b038781169482019490945290516000938493849391169163fc57d4df91602480820192602092909190829003018186803b158015612cc857600080fd5b505afa158015612cdc573d6000803e3d6000fd5b505050506040513d6020811015612cf257600080fd5b5051600480546040805163fc57d4df60e01b81526001600160a01b038a8116948201949094529051939450600093929091169163fc57d4df91602480820192602092909190829003018186803b158015612d4b57600080fd5b505afa158015612d5f573d6000803e3d6000fd5b505050506040513d6020811015612d7557600080fd5b50519050811580612d84575080155b15612d9957600d935060009250612edf915050565b6000866001600160a01b031663182df0f56040518163ffffffff1660e01b815260040160206040518083038186803b158015612dd457600080fd5b505afa158015612de8573d6000803e3d6000fd5b505050506040513d6020811015612dfe57600080fd5b505190506000612e0c615d59565b612e14615d59565b612e1c615d59565b6000612e2a60065489615055565b945090506000816003811115612e3c57fe5b14612e5857600b5b995060009850612edf975050505050505050565b612e628787615055565b935090506000816003811115612e7457fe5b14612e8057600b612e44565b612e8a8484615090565b925090506000816003811115612e9c57fe5b14612ea857600b612e44565b612eb2828c614d2d565b955090506000816003811115612ec457fe5b14612ed057600b612e44565b60009950939750505050505050505b935093915050565b601360209081526000928352604080842090915290825290205481565b60146020526000908152604090205481565b612f1e614d81565b612f6f576040805162461bcd60e51b815260206004820152601e60248201527f6f6e6c792061646d696e2063616e2061646420636f6d70206d61726b65740000604482015290519081900360640190fd5b60005b8151811015612f9f57612f97828281518110612f8a57fe5b60200260200101516150a8565b600101612f72565b506115fd6140b7565b600a54600090600160b81b900460ff1615612ffc576040805162461bcd60e51b815260206004820152600f60248201526e1cd95a5e99481a5cc81c185d5cd959608a1b604482015290519081900360640190fd5b6001600160a01b03861660009081526009602052604090205460ff16158061303d57506001600160a01b03851660009081526009602052604090205460ff16155b15613049576009612137565b846001600160a01b0316635fe3b5676040518163ffffffff1660e01b815260040160206040518083038186803b15801561308257600080fd5b505afa158015613096573d6000803e3d6000fd5b505050506040513d60208110156130ac57600080fd5b505160408051635fe3b56760e01b815290516001600160a01b0392831692891691635fe3b567916004808301926020929190829003018186803b1580156130f257600080fd5b505afa158015613106573d6000803e3d6000fd5b505050506040513d602081101561311c57600080fd5b50516001600160a01b031614613133576002612137565b61313c86614897565b61314886846000614b15565b61315486856000614b15565b60009695505050505050565b600080546001600160a01b0316331461317f576118686001600d614042565b6007805490839055604080518281526020810185905281517f7093cf1eb653f749c3ff531d6df7f92764536a7fa0d13530cd26e070780c32ea929181900390910190a16000611e33565b6001600160a01b0383166000908152600c602052604081205460ff161561322a576040805162461bcd60e51b815260206004820152601060248201526f189bdc9c9bddc81a5cc81c185d5cd95960821b604482015290519081900360640190fd5b6001600160a01b03841660009081526009602052604090205460ff16613251576009611e11565b6001600160a01b038085166000908152600960209081526040808320938716835260029093019052205460ff1661334157336001600160a01b038516146132d7576040805162461bcd60e51b815260206004820152601560248201527439b2b73232b91036bab9ba1031329031aa37b5b2b760591b604482015290519081900360640190fd5b60006132e33385614f34565b905060008160118111156132f357fe5b1461330c5780601181111561330457fe5b915050611e33565b6001600160a01b038086166000908152600960209081526040808320938816835260029093019052205460ff1661333f57fe5b505b600480546040805163fc57d4df60e01b81526001600160a01b03888116948201949094529051929091169163fc57d4df91602480820192602092909190829003018186803b15801561339257600080fd5b505afa1580156133a6573d6000803e3d6000fd5b505050506040513d60208110156133bc57600080fd5b50516133c957600d611e11565b6001600160a01b0384166000908152601660205260409020548015613514576000856001600160a01b03166347bd37186040518163ffffffff1660e01b815260040160206040518083038186803b15801561342357600080fd5b505afa158015613437573d6000803e3d6000fd5b505050506040513d602081101561344d57600080fd5b5051905060008061345e83876153c3565b9092509050600082600381111561347157fe5b146134bc576040805162461bcd60e51b8152602060048201526016602482015275746f74616c20626f72726f7773206f766572666c6f7760501b604482015290519081900360640190fd5b838110613510576040805162461bcd60e51b815260206004820152601960248201527f6d61726b657420626f72726f7720636170207265616368656400000000000000604482015290519081900360640190fd5b5050505b600080613524868860008861447c565b9193509091506000905082601181111561353a57fe5b146135555781601181111561354b57fe5b9350505050611e33565b801561356257600461354b565b61356a615d59565b6040518060200160405280896001600160a01b031663aa5af0fd6040518163ffffffff1660e01b815260040160206040518083038186803b1580156135ae57600080fd5b505afa1580156135c2573d6000803e3d6000fd5b505050506040513d60208110156135d857600080fd5b5051905290506135e88882613bd0565b6135f58888836000613e58565b600098975050505050505050565b6008602052816000526040600020818154811061361c57fe5b6000918252602090912001546001600160a01b03169150829050565b6003546001600160a01b031681565b600080546001600160a01b0316331461366d5761366660016006614042565b9050611439565b6001600160a01b0383166000908152600960205260409020805460ff166136a25761369a60096007614042565b915050611439565b6136aa615d59565b5060408051602081019091528381526136c1615d59565b506040805160208101909152670c7d713b49da000081526136e281836140b0565b156136fd576136f360066008614042565b9350505050611439565b84158015906137865750600480546040805163fc57d4df60e01b81526001600160a01b038a8116948201949094529051929091169163fc57d4df91602480820192602092909190829003018186803b15801561375857600080fd5b505afa15801561376c573d6000803e3d6000fd5b505050506040513d602081101561378257600080fd5b5051155b15613797576136f3600d6009614042565b60018301805490869055604080516001600160a01b03891681526020810183905280820188905290517f70483e6592cd5182d45ac970e05bc62cdcc90e9d8ef2c2dbe686cf383bcd7fc59181900360600190a16000979650505050505050565b600a54600160a81b900460ff1681565b60055481565b6115fd81600d80548060200260200160405190810160405280929190818152602001828054801561386757602002820191906000526020600020905b81546001600160a01b03168152600190910190602001808311613849575b505050505061143f565b60008061387f858585614e88565b9050801561388e579050611e33565b61389785614897565b6138a385856000614b15565b600095945050505050565b6000808290506000806000836001600160a01b031663c37f68e2336040518263ffffffff1660e01b815260040180826001600160a01b03166001600160a01b0316815260200191505060806040518083038186803b15801561390f57600080fd5b505afa158015613923573d6000803e3d6000fd5b505050506040513d608081101561393957600080fd5b50805160208201516040909201519094509092509050821561398c5760405162461bcd60e51b8152600401808060200182810382526025815260200180615ef46025913960400191505060405180910390fd5b80156139a95761399e600c6002614042565b945050505050611844565b60006139b6873385614e88565b905080156139d7576139cb600e6003836153e9565b95505050505050611844565b6001600160a01b0385166000908152600960209081526040808320338452600281019092529091205460ff16613a165760009650505050505050611844565b3360009081526002820160209081526040808320805460ff191690556008825291829020805483518184028101840190945280845260609392830182828015613a8857602002820191906000526020600020905b81546001600160a01b03168152600190910190602001808311613a6a575b5050835193945083925060009150505b82811015613add57896001600160a01b0316848281518110613ab657fe5b60200260200101516001600160a01b03161415613ad557809150613add565b600101613a98565b50818110613ae757fe5b336000908152600860205260409020805481906000198101908110613b0857fe5b9060005260206000200160009054906101000a90046001600160a01b0316818381548110613b3257fe5b600091825260209091200180546001600160a01b0319166001600160a01b03929092169190911790558054613b6b826000198301615d6c565b50604080516001600160a01b038c16815233602082015281517fe699a64c18b07ac5b7301aa273f36a2287239eb9501d81950672794afba29a0d929181900390910190a160009c9b505050505050505050505050565b6000546001600160a01b031681565b6001600160a01b0382166000908152601160209081526040808320600f9092528220549091613bfd611ce8565b8354909150600090613c1d908390600160e01b900463ffffffff1661544f565b9050600081118015613c2f5750600083115b15613dfe576000613ca4876001600160a01b03166347bd37186040518163ffffffff1660e01b815260040160206040518083038186803b158015613c7257600080fd5b505afa158015613c86573d6000803e3d6000fd5b505050506040513d6020811015613c9c57600080fd5b505187615489565b90506000613cb283866154a7565b9050613cbc615d59565b60008311613cd95760405180602001604052806000815250613ce3565b613ce382846154e9565b9050613ced615d59565b604080516020810190915288546001600160e01b03168152613d0f9083615527565b90506040518060400160405280613d5f83600001516040518060400160405280601a81526020017f6e657720696e646578206578636565647320323234206269747300000000000081525061554c565b6001600160e01b03168152602001613d9a886040518060400160405280601c8152602001600080516020615f198339815191528152506155e6565b63ffffffff9081169091526001600160a01b038c166000908152601160209081526040909120835181549490920151909216600160e01b026001600160e01b039182166001600160e01b0319909416939093171691909117905550611ced92505050565b8015611ced57613e31826040518060400160405280601c8152602001600080516020615f198339815191528152506155e6565b845463ffffffff91909116600160e01b026001600160e01b03909116178455505050505050565b6001600160a01b0384166000908152601160205260409020613e78615d59565b50604080516020810190915281546001600160e01b03168152613e99615d59565b5060408051602080820183526001600160a01b03808a16600090815260138352848120918a16808252828452948120805485528651959091529152919091558051156123fc57613ee7615d59565b613ef1838361563b565b90506000613f80896001600160a01b03166395dd91938a6040518263ffffffff1660e01b815260040180826001600160a01b03166001600160a01b0316815260200191505060206040518083038186803b158015613f4e57600080fd5b505afa158015613f62573d6000803e3d6000fd5b505050506040513d6020811015613f7857600080fd5b505188615489565b90506000613f8e8284615660565b6001600160a01b038a1660009081526014602052604081205491925090613fb5908361568f565b9050613fd68a828a613fce5766038d7ea4c68000613fd1565b60005b6156c5565b6001600160a01b03808c1660008181526014602090815260409182902094909455895181518781529485015280519193928f16927f1fc3ecc087d8d2d15e23d0032af5a47059c3892d003d8e139fdcb6bb327c99a6929081900390910190a35050505050505050505050565b60007f45b96fe442630264581b197e84bbada861235052c5a1aadfff9ea4e40a969aa083601181111561407157fe5b83601381111561407d57fe5b604080519283526020830191909152600082820152519081900360600190a1826011811115611e3357fe5b519051111590565b5190511090565b6060600d80548060200260200160405190810160405280929190818152602001828054801561410f57602002820191906000526020600020905b81546001600160a01b031681526001909101906020018083116140f1575b50939450600093505050505b81518110156141d557600082828151811061413257fe5b60200260200101519050614144615d59565b6040518060200160405280836001600160a01b031663aa5af0fd6040518163ffffffff1660e01b815260040160206040518083038186803b15801561418857600080fd5b505afa15801561419c573d6000803e3d6000fd5b505050506040513d60208110156141b257600080fd5b5051905290506141c182614897565b6141cb8282613bd0565b505060010161411b565b506141de615d59565b6040518060200160405280600081525090506060825160405190808252806020026020018201604052801561422d57816020015b61421a615d59565b8152602001906001900390816142125790505b50905060005b83518110156143b357600084828151811061424a57fe5b6020908102919091018101516001600160a01b0381166000908152600990925260409091206003015490915060ff16156143aa57614286615d59565b60408051602080820180845260045463fc57d4df60e01b9091526001600160a01b03868116602485015293519293849391169163fc57d4df916044808601929190818703018186803b1580156142db57600080fd5b505afa1580156142ef573d6000803e3d6000fd5b505050506040513d602081101561430557600080fd5b505190529050614313615d59565b61438182846001600160a01b03166347bd37186040518163ffffffff1660e01b815260040160206040518083038186803b15801561435057600080fd5b505afa158015614364573d6000803e3d6000fd5b505050506040513d602081101561437a57600080fd5b505161580a565b90508085858151811061439057fe5b60200260200101819052506143a58682615527565b955050505b50600101614233565b5060005b8351811015611ce2576000600d82815481106143cf57fe5b600091825260208220015485516001600160a01b0390911692506143f457600061441c565b61441c600e5461441786868151811061440957fe5b60200260200101518861582b565b61585e565b6001600160a01b0383166000818152600f60209081526040918290208490558151848152915193945091927f2ab93f65628379309f36cb125e90d7c902454a545c4f8b8cb0794af75c24b807929181900390910190a250506001016143b7565b6000806000614489615d90565b6001600160a01b0388166000908152600860209081526040808320805482518185028101850190935280835284936060939291908301828280156144f657602002820191906000526020600020905b81546001600160a01b031681526001909101906020018083116144d8575b50939450600093505050505b815181101561485257600082828151811061451957fe5b60200260200101519050806001600160a01b031663c37f68e28e6040518263ffffffff1660e01b815260040180826001600160a01b03166001600160a01b0316815260200191505060806040518083038186803b15801561457957600080fd5b505afa15801561458d573d6000803e3d6000fd5b505050506040513d60808110156145a357600080fd5b508051602082015160408084015160609485015160808c0152938a019390935291880191909152945084156145e95750600f975060009650869550611d85945050505050565b60408051602080820183526001600160a01b0380851660008181526009845285902060010154845260c08b01939093528351808301855260808b0151815260e08b015260048054855163fc57d4df60e01b815291820194909452935192169263fc57d4df9260248083019392829003018186803b15801561466957600080fd5b505afa15801561467d573d6000803e3d6000fd5b505050506040513d602081101561469357600080fd5b505160a087018190526146b75750600d975060009650869550611d85945050505050565b604080516020810190915260a08701518152610100870181905260c087015160e08801516146e492615877565b610120880152935060008460038111156146fa57fe5b146147165750600b975060009650869550611d85945050505050565b61472e866101200151876040015188600001516158cf565b87529350600084600381111561474057fe5b1461475c5750600b975060009650869550611d85945050505050565b614774866101000151876060015188602001516158cf565b60208801529350600084600381111561478957fe5b146147a55750600b975060009650869550611d85945050505050565b8b6001600160a01b0316816001600160a01b03161415614849576147d38661012001518c88602001516158cf565b6020880152935060008460038111156147e857fe5b146148045750600b975060009650869550611d85945050505050565b6148188661010001518b88602001516158cf565b60208801529350600084600381111561482d57fe5b146148495750600b975060009650869550611d85945050505050565b50600101614502565b50602084015184511115614879575050506020810151905160009450039150829050611d85565b5050815160209092015160009550859450919091039150611d859050565b6001600160a01b0381166000908152601060209081526040808320600f90925282205490916148c4611ce8565b83549091506000906148e4908390600160e01b900463ffffffff1661544f565b90506000811180156148f65750600083115b15614abc576000856001600160a01b03166318160ddd6040518163ffffffff1660e01b815260040160206040518083038186803b15801561493657600080fd5b505afa15801561494a573d6000803e3d6000fd5b505050506040513d602081101561496057600080fd5b50519050600061497083866154a7565b905061497a615d59565b6000831161499757604051806020016040528060008152506149a1565b6149a182846154e9565b90506149ab615d59565b604080516020810190915288546001600160e01b031681526149cd9083615527565b90506040518060400160405280614a1d83600001516040518060400160405280601a81526020017f6e657720696e646578206578636565647320323234206269747300000000000081525061554c565b6001600160e01b03168152602001614a58886040518060400160405280601c8152602001600080516020615f198339815191528152506155e6565b63ffffffff9081169091526001600160a01b038b166000908152601060209081526040909120835181549490920151909216600160e01b026001600160e01b039182166001600160e01b031990941693909317169190911790555061161292505050565b801561161257614aef826040518060400160405280601c8152602001600080516020615f198339815191528152506155e6565b845463ffffffff91909116600160e01b026001600160e01b039091161784555050505050565b6001600160a01b0383166000908152601060205260409020614b35615d59565b50604080516020810190915281546001600160e01b03168152614b56615d59565b5060408051602080820183526001600160a01b03808916600090815260128352848120918916808252828452948120805485528651959091529152919091558051158015614ba45750815115155b15614bbc576ec097ce7bc90715b34b9f100000000081525b614bc4615d59565b614bce838361563b565b90506000876001600160a01b03166370a08231886040518263ffffffff1660e01b815260040180826001600160a01b03166001600160a01b0316815260200191505060206040518083038186803b158015614c2857600080fd5b505afa158015614c3c573d6000803e3d6000fd5b505050506040513d6020811015614c5257600080fd5b505190506000614c628284615660565b6001600160a01b03891660009081526014602052604081205491925090614c89908361568f565b9050614ca289828a613fce5766038d7ea4c68000613fd1565b6001600160a01b03808b1660008181526014602090815260409182902094909455895181518781529485015280519193928e16927f2caecd17d02f56fa897705dcc740da2d237c373f70686f4e0d9bd3bf0400ea7a929081900390910190a350505050505050505050565b6000806000614d2084600080600061447c565b9250925092509193909250565b6000806000614d3a615d59565b614d44868661591c565b90925090506000826003811115614d5757fe5b14614d685750915060009050614d7a565b6000614d7382615984565b9350935050505b9250929050565b600080546001600160a01b0316331480614da557506002546001600160a01b031633145b905090565b60005b600d54811015614e3557816001600160a01b0316600d8281548110614dce57fe5b6000918252602090912001546001600160a01b03161415614e2d576040805162461bcd60e51b81526020600482015260146024820152731b585c9ad95d08185b1c9958591e48185919195960621b604482015290519081900360640190fd5b600101614dad565b50600d80546001810182556000919091527fd7b6990105719101dabeb77144f2a3385c8033acd3af97e9423a695e81ad1eb50180546001600160a01b0319166001600160a01b0392909216919091179055565b6001600160a01b03831660009081526009602052604081205460ff16614eaf576009611e11565b6001600160a01b038085166000908152600960209081526040808320938716835260029093019052205460ff16614ee7576000611e11565b600080614ef7858786600061447c565b91935090915060009050826011811115614f0d57fe5b14614f2757816011811115614f1e57fe5b92505050611e33565b8015613154576004614f1e565b6001600160a01b0382166000908152600960205260408120805460ff16614f5f576009915050611439565b6001600160a01b038316600090815260028201602052604090205460ff16151560011415614f91576000915050611439565b6007546001600160a01b03841660009081526008602052604090205410614fbc576010915050611439565b6001600160a01b0380841660008181526002840160209081526040808320805460ff19166001908117909155600883528184208054918201815584529282902090920180549489166001600160a01b031990951685179055815193845283019190915280517f3ab23ab0d51cccc0c3085aec51f99228625aa1a922b3a8ca89a26b0f2027a1a59281900390910190a15060009392505050565b600061505f615d59565b615085604051806020016040528086815250604051806020016040528086815250615993565b915091509250929050565b600061509a615d59565b835183516150859190615a7c565b6001600160a01b0381166000908152600960205260409020805460ff16151560011461511b576040805162461bcd60e51b815260206004820152601960248201527f636f6d70206d61726b6574206973206e6f74206c697374656400000000000000604482015290519081900360640190fd5b600381015460ff1615615175576040805162461bcd60e51b815260206004820152601960248201527f636f6d70206d61726b657420616c726561647920616464656400000000000000604482015290519081900360640190fd5b60038101805460ff19166001908117909155604080516001600160a01b0385168152602081019290925280517f93c1f3e36ed71139f466a4ce8c9751790e2e33f5afb2df0dcfb3aeabe55d5aa29281900390910190a16001600160a01b0382166000908152601060205260409020546001600160e01b031615801561521d57506001600160a01b038216600090815260106020526040902054600160e01b900463ffffffff16155b156152da5760405180604001604052806ec097ce7bc90715b34b9f10000000006001600160e01b0316815260200161527f615256611ce8565b6040518060400160405280601c8152602001600080516020615f198339815191528152506155e6565b63ffffffff9081169091526001600160a01b0384166000908152601060209081526040909120835181549490920151909216600160e01b026001600160e01b039182166001600160e01b031990941693909317169190911790555b6001600160a01b0382166000908152601160205260409020546001600160e01b031615801561532c57506001600160a01b038216600090815260116020526040902054600160e01b900463ffffffff16155b15611b335760405180604001604052806ec097ce7bc90715b34b9f10000000006001600160e01b03168152602001615365615256611ce8565b63ffffffff9081169091526001600160a01b0384166000908152601160209081526040909120835181549490920151909216600160e01b026001600160e01b039182166001600160e01b031990941693909317169190911790555050565b6000808383018481106153db57600092509050614d7a565b506002915060009050614d7a565b60007f45b96fe442630264581b197e84bbada861235052c5a1aadfff9ea4e40a969aa084601181111561541857fe5b84601381111561542457fe5b604080519283526020830191909152818101859052519081900360600190a1836011811115611e3057fe5b6000611e338383604051806040016040528060158152602001747375627472616374696f6e20756e646572666c6f7760581b815250615b2c565b6000611e336154a084670de0b6b3a76400006154a7565b8351615b86565b6000611e3383836040518060400160405280601781526020017f6d756c7469706c69636174696f6e206f766572666c6f77000000000000000000815250615bb9565b6154f1615d59565b604051806020016040528061551e615518866ec097ce7bc90715b34b9f10000000006154a7565b85615b86565b90529392505050565b61552f615d59565b604051806020016040528061551e8560000151856000015161568f565b600081600160e01b84106155de5760405162461bcd60e51b81526004018080602001828103825283818151815260200191508051906020019080838360005b838110156155a357818101518382015260200161558b565b50505050905090810190601f1680156155d05780820380516001836020036101000a031916815260200191505b509250505060405180910390fd5b509192915050565b600081600160201b84106155de5760405162461bcd60e51b81526020600482018181528351602484015283519092839260449091019190850190808383600083156155a357818101518382015260200161558b565b615643615d59565b604051806020016040528061551e8560000151856000015161544f565b60006ec097ce7bc90715b34b9f10000000006156808484600001516154a7565b8161568757fe5b049392505050565b6000611e338383604051806040016040528060118152602001706164646974696f6e206f766572666c6f7760781b815250615c38565b60008183101580156156d75750600083115b156158025760006156e6612892565b604080516370a0823160e01b815230600482015290519192506000916001600160a01b038416916370a08231916024808301926020929190829003018186803b15801561573257600080fd5b505afa158015615746573d6000803e3d6000fd5b505050506040513d602081101561575c57600080fd5b505190508085116157ff57816001600160a01b031663a9059cbb87876040518363ffffffff1660e01b815260040180836001600160a01b03166001600160a01b0316815260200182815260200192505050602060405180830381600087803b1580156157c757600080fd5b505af11580156157db573d6000803e3d6000fd5b505050506040513d60208110156157f157600080fd5b5060009350611e3392505050565b50505b509092915050565b615812615d59565b604051806020016040528061551e8560000151856154a7565b615833615d59565b604051806020016040528061551e6158578660000151670de0b6b3a76400006154a7565b8551615b86565b6000670de0b6b3a76400006156808484600001516154a7565b6000615881615d59565b600061588b615d59565b6158958787615993565b909250905060008260038111156158a857fe5b146158b7579092509050612edf565b6158c18186615993565b935093505050935093915050565b60008060006158dc615d59565b6158e6878761591c565b909250905060008260038111156158f957fe5b1461590a5750915060009050612edf565b6158c161591682615984565b866153c3565b6000615926615d59565b600080615937866000015186615c8d565b9092509050600082600381111561594a57fe5b1461596957506040805160208101909152600081529092509050614d7a565b60408051602081019091529081526000969095509350505050565b51670de0b6b3a7640000900490565b600061599d615d59565b6000806159b286600001518660000151615c8d565b909250905060008260038111156159c557fe5b146159e457506040805160208101909152600081529092509050614d7a565b6000806159f96706f05b59d3b20000846153c3565b90925090506000826003811115615a0c57fe5b14615a2e57506040805160208101909152600081529094509250614d7a915050565b600080615a4383670de0b6b3a7640000615ccc565b90925090506000826003811115615a5657fe5b14615a5d57fe5b604080516020810190915290815260009a909950975050505050505050565b6000615a86615d59565b600080615a9b86670de0b6b3a7640000615c8d565b90925090506000826003811115615aae57fe5b14615acd57506040805160208101909152600081529092509050614d7a565b600080615ada8388615ccc565b90925090506000826003811115615aed57fe5b14615b0f57506040805160208101909152600081529094509250614d7a915050565b604080516020810190915290815260009890975095505050505050565b60008184841115615b7e5760405162461bcd60e51b81526020600482018181528351602484015283519092839260449091019190850190808383600083156155a357818101518382015260200161558b565b505050900390565b6000611e3383836040518060400160405280600e81526020016d646976696465206279207a65726f60901b815250615cf7565b6000831580615bc6575082155b15615bd357506000611e33565b83830283858281615be057fe5b04148390615c2f5760405162461bcd60e51b81526020600482018181528351602484015283519092839260449091019190850190808383600083156155a357818101518382015260200161558b565b50949350505050565b60008383018285821015615c2f5760405162461bcd60e51b81526020600482018181528351602484015283519092839260449091019190850190808383600083156155a357818101518382015260200161558b565b60008083615ca057506000905080614d7a565b83830283858281615cad57fe5b0414615cc157506002915060009050614d7a565b600092509050614d7a565b60008082615ce05750600190506000614d7a565b6000838581615ceb57fe5b04915091509250929050565b60008183615d465760405162461bcd60e51b81526020600482018181528351602484015283519092839260449091019190850190808383600083156155a357818101518382015260200161558b565b50828481615d5057fe5b04949350505050565b6040518060200160405280600081525090565b81548183558181111561149c5760008381526020902061149c918101908301615dfa565b604051806101400160405280600081526020016000815260200160008152602001600081526020016000815260200160008152602001615dce615d59565b8152602001615ddb615d59565b8152602001615de8615d59565b8152602001615df5615d59565b905290565b611cea91905b80821115615e145760008155600101615e00565b509056fe63616e6e6f742070617573652061206d61726b65742074686174206973206e6f74206c69737465646f6e6c792065787465726e616c6c79206f776e6564206163636f756e7473206d61792072656672657368207370656564736f6e6c7920706175736520677561726469616e20616e642061646d696e2063616e2070617573656f6e6c792061646d696e2063616e2073657420626f72726f772063617020677561726469616e6f6e6c792061646d696e206f7220626f72726f772063617020677561726469616e2063616e2073657420626f72726f772063617073657869744d61726b65743a206765744163636f756e74536e617073686f74206661696c6564626c6f636b206e756d62657220657863656564732033322062697473000000006f6e6c7920756e6974726f6c6c65722061646d696e2063616e206368616e676520627261696e73a265627a7a723158202018a9bb151e97eba5f6f759c815bcce727c00ab24695b57c780a8446767217b64736f6c63430005100032",
  "linkReferences": {},
  "deployedLinkReferences": {}
}