{
  "_format": "hh-sol-artifact-1",
  "contractName": "DAIInterestRateModel",
  "sourceName": "contracts/Lend/rate/DAIInterestRateModel.sol",
  "abi": [
    {
      "anonymous": false,
      "inputs": [
        {
          "indexed": false,
          "internalType": "uint256",
          "name": "baseRatePerBlock",
          "type": "uint256"
        },
        {
          "indexed": false,
          "internalType": "uint256",
          "name": "multiplierPerBlock",
          "type": "uint256"
        },
        {
          "indexed": false,
          "internalType": "uint256",
          "name": "jumpMultiplierPerBlock",
          "type": "uint256"
        },
        {
          "indexed": false,
          "internalType": "uint256",
          "name": "kink",
          "type": "uint256"
        }
      ],
      "name": "NewInterestParams",
      "type": "event"
    },
    {
      "anonymous": false,
      "inputs": [
        {
          "indexed": true,
          "internalType": "address",
          "name": "previousOwner",
          "type": "address"
        },
        {
          "indexed": true,
          "internalType": "address",
          "name": "newOwner",
          "type": "address"
        }
      ],
      "name": "OwnershipTransferred",
      "type": "event"
    },
    {
      "inputs": [],
      "name": "assumedOneMinusReserveFactorMantissa",
      "outputs": [
        {
          "internalType": "uint256",
          "name": "",
          "type": "uint256"
        }
      ],
      "stateMutability": "view",
      "type": "function"
    },
    {
      "inputs": [],
      "name": "baseRatePerBlock",
      "outputs": [
        {
          "internalType": "uint256",
          "name": "",
          "type": "uint256"
        }
      ],
      "stateMutability": "view",
      "type": "function"
    },
    {
      "inputs": [],
      "name": "blocksPerYear",
      "outputs": [
        {
          "internalType": "uint256",
          "name": "",
          "type": "uint256"
        }
      ],
      "stateMutability": "view",
      "type": "function"
    },
    {
      "inputs": [],
      "name": "dsrPerBlock",
      "outputs": [
        {
          "internalType": "uint256",
          "name": "",
          "type": "uint256"
        }
      ],
      "stateMutability": "view",
      "type": "function"
    },
    {
      "inputs": [],
      "name": "gapPerBlock",
      "outputs": [
        {
          "internalType": "uint256",
          "name": "",
          "type": "uint256"
        }
      ],
      "stateMutability": "view",
      "type": "function"
    },
    {
      "inputs": [
        {
          "internalType": "uint256",
          "name": "cash",
          "type": "uint256"
        },
        {
          "internalType": "uint256",
          "name": "borrows",
          "type": "uint256"
        },
        {
          "internalType": "uint256",
          "name": "reserves",
          "type": "uint256"
        }
      ],
      "name": "getBorrowRate",
      "outputs": [
        {
          "internalType": "uint256",
          "name": "",
          "type": "uint256"
        }
      ],
      "stateMutability": "view",
      "type": "function"
    },
    {
      "inputs": [
        {
          "internalType": "uint256",
          "name": "cash",
          "type": "uint256"
        },
        {
          "internalType": "uint256",
          "name": "borrows",
          "type": "uint256"
        },
        {
          "internalType": "uint256",
          "name": "reserves",
          "type": "uint256"
        },
        {
          "internalType": "uint256",
          "name": "reserveFactorMantissa",
          "type": "uint256"
        }
      ],
      "name": "getSupplyRate",
      "outputs": [
        {
          "internalType": "uint256",
          "name": "",
          "type": "uint256"
        }
      ],
      "stateMutability": "view",
      "type": "function"
    },
    {
      "inputs": [
        {
          "internalType": "uint256",
          "name": "jumpMultiplierPerYear",
          "type": "uint256"
        },
        {
          "internalType": "uint256",
          "name": "kink_",
          "type": "uint256"
        },
        {
          "internalType": "address",
          "name": "pot_",
          "type": "address"
        },
        {
          "internalType": "address",
          "name": "jug_",
          "type": "address"
        }
      ],
      "name": "initialize",
      "outputs": [],
      "stateMutability": "nonpayable",
      "type": "function"
    },
    {
      "inputs": [],
      "name": "jumpMultiplierPerBlock",
      "outputs": [
        {
          "internalType": "uint256",
          "name": "",
          "type": "uint256"
        }
      ],
      "stateMutability": "view",
      "type": "function"
    },
    {
      "inputs": [],
      "name": "kink",
      "outputs": [
        {
          "internalType": "uint256",
          "name": "",
          "type": "uint256"
        }
      ],
      "stateMutability": "view",
      "type": "function"
    },
    {
      "inputs": [],
      "name": "multiplierPerBlock",
      "outputs": [
        {
          "internalType": "uint256",
          "name": "",
          "type": "uint256"
        }
      ],
      "stateMutability": "view",
      "type": "function"
    },
    {
      "inputs": [],
      "name": "owner",
      "outputs": [
        {
          "internalType": "address",
          "name": "",
          "type": "address"
        }
      ],
      "stateMutability": "view",
      "type": "function"
    },
    {
      "inputs": [],
      "name": "poke",
      "outputs": [],
      "stateMutability": "nonpayable",
      "type": "function"
    },
    {
      "inputs": [],
      "name": "renounceOwnership",
      "outputs": [],
      "stateMutability": "nonpayable",
      "type": "function"
    },
    {
      "inputs": [
        {
          "internalType": "address",
          "name": "newOwner",
          "type": "address"
        }
      ],
      "name": "transferOwnership",
      "outputs": [],
      "stateMutability": "nonpayable",
      "type": "function"
    },
    {
      "inputs": [
        {
          "internalType": "uint256",
          "name": "gapPerYear",
          "type": "uint256"
        },
        {
          "internalType": "uint256",
          "name": "jumpMultiplierPerYear",
          "type": "uint256"
        },
        {
          "internalType": "uint256",
          "name": "kink_",
          "type": "uint256"
        }
      ],
      "name": "updateDAIJumpRateModel",
      "outputs": [],
      "stateMutability": "nonpayable",
      "type": "function"
    },
    {
      "inputs": [
        {
          "internalType": "uint256",
          "name": "baseRatePerYear",
          "type": "uint256"
        },
        {
          "internalType": "uint256",
          "name": "multiplierPerYear",
          "type": "uint256"
        },
        {
          "internalType": "uint256",
          "name": "jumpMultiplierPerYear",
          "type": "uint256"
        },
        {
          "internalType": "uint256",
          "name": "kink_",
          "type": "uint256"
        }
      ],
      "name": "updateJumpRateModel",
      "outputs": [],
      "stateMutability": "nonpayable",
      "type": "function"
    },
    {
      "inputs": [
        {
          "internalType": "uint256",
          "name": "cash",
          "type": "uint256"
        },
        {
          "internalType": "uint256",
          "name": "borrows",
          "type": "uint256"
        },
        {
          "internalType": "uint256",
          "name": "reserves",
          "type": "uint256"
        }
      ],
      "name": "utilizationRate",
      "outputs": [
        {
          "internalType": "uint256",
          "name": "",
          "type": "uint256"
        }
      ],
      "stateMutability": "pure",
      "type": "function"
    }
  ],
  "bytecode": "0x608060405234801561001057600080fd5b506110cf806100206000396000f3fe608060405234801561001057600080fd5b50600436106101165760003560e01c806396456c5c116100a2578063d0353b7611610071578063d0353b7614610275578063f14039de1461029e578063f2fde38b146102a6578063f52d21f3146102cc578063fd2da339146102d457610116565b806396456c5c1461022e578063a385fb9614610236578063b81688161461023e578063b9f9850a1461026d57610116565b80636dac7cd5116100e95780636dac7cd5146101c95780636e71e2d8146101d1578063715018a6146101fa5780638726bb89146102025780638da5cb5b1461020a57610116565b8063019e27291461011b57806315f240531461015757806318178358146101925780632037f3e71461019a575b600080fd5b6101556004803603608081101561013157600080fd5b508035906020810135906001600160a01b03604082013581169160600135166102dc565b005b6101806004803603606081101561016d57600080fd5b50803590602081013590604001356103df565b60408051918252519081900360200190f35b6101556103f6565b610155600480360360808110156101b057600080fd5b5080359060208101359060408101359060600135610616565b610180610628565b610180600480360360608110156101e757600080fd5b5080359060208101359060400135610634565b610155610666565b61018061071a565b610212610720565b604080516001600160a01b039092168252519081900360200190f35b61018061072f565b6101806107d3565b6101806004803603608081101561025457600080fd5b50803590602081013590604081013590606001356107da565b61018061083c565b6101556004803603606081101561028b57600080fd5b5080359060208101359060400135610842565b610180610865565b610155600480360360208110156102bc57600080fd5b50356001600160a01b031661086b565b610180610976565b61018061097c565b600054610100900460ff16806102f557506102f5610982565b80610303575060005460ff16155b61033e5760405162461bcd60e51b815260040180806020018281038252602e81526020018061106c602e913960400191505060405180910390fd5b600054610100900460ff16158015610369576000805460ff1961ff0019909116610100171660011790555b610371610988565b61037e6000808787610a3a565b62201480668e1bc9bf04000004609b55609c80546001600160a01b038086166001600160a01b031992831617909255609d8054928516929091169190911790556103c66103f6565b80156103d8576000805461ff00191690555b5050505050565b60006103ec848484610b33565b90505b9392505050565b609d5460408051636cb1c69b60e11b8152644554482d4160d81b600482015281516000936001600160a01b03169263d9638d369260248082019391829003018186803b15801561044557600080fd5b505afa158015610459573d6000803e3d6000fd5b505050506040513d604081101561046f57600080fd5b5051609d5460408051635001f3b560e01b8152905192935060009261053092600f92610524926b033b2e3c9fd0803ce80000009261052a92670de0b6b3a7640000928692869261051e926001600160a01b0390921691635001f3b591600480820192602092909190829003018186803b1580156104eb57600080fd5b505afa1580156104ff573d6000803e3d6000fd5b505050506040513d602081101561051557600080fd5b50518b90610bf0565b90610c53565b90610c95565b90610cee565b9050610552670d2f13f7789f000061052a670de0b6b3a764000061052461072f565b609881905581111561059957610591609a5461052a670de0b6b3a7640000610524609b5461058b60985488610c5390919063ffffffff16565b90610bf0565b6097556105c0565b6105bc609a5461052a670de0b6b3a7640000609b54610c9590919063ffffffff16565b6097555b609854609754609954609a54604080519485526020850193909352838301919091526060830152517f6960ab234c7ef4b0c9197100f5393cfcde7c453ac910a27bd2000aa1dd4c068d9181900360800190a15050565b61062284848484610a3a565b50505050565b670d2f13f7789f000081565b600082610643575060006103ef565b6103ec6106548361051e8787610bf0565b61052a85670de0b6b3a7640000610c95565b61066e610d30565b6065546001600160a01b039081169116146106d0576040805162461bcd60e51b815260206004820181905260248201527f4f776e61626c653a2063616c6c6572206973206e6f7420746865206f776e6572604482015290519081900360640190fd5b6065546040516000916001600160a01b0316907f8be0079c531659141344cd1fd0a4f28419497f9722a3daafe3b4186f6b6457e0908390a3606580546001600160a01b0319169055565b60975481565b6065546001600160a01b031690565b60006107ce600f610524633b9aca0061052a6b033b2e3c9fd0803ce8000000609c60009054906101000a90046001600160a01b03166001600160a01b031663487bf0826040518163ffffffff1660e01b815260040160206040518083038186803b15801561079c57600080fd5b505afa1580156107b0573d6000803e3d6000fd5b505050506040513d60208110156107c657600080fd5b505190610c53565b905090565b6220148081565b6000806107e986868686610d34565b905060006107fb8561051e8989610bf0565b90508061080a57509050610834565b60006108228261052a61081b61072f565b8b90610c95565b905061082e8184610bf0565b93505050505b949350505050565b60995481565b622014808304609b556108586000808484610a3a565b6108606103f6565b505050565b60985481565b610873610d30565b6065546001600160a01b039081169116146108d5576040805162461bcd60e51b815260206004820181905260248201527f4f776e61626c653a2063616c6c6572206973206e6f7420746865206f776e6572604482015290519081900360640190fd5b6001600160a01b03811661091a5760405162461bcd60e51b81526004018080602001828103825260268152602001806110256026913960400191505060405180910390fd5b6065546040516001600160a01b038084169216907f8be0079c531659141344cd1fd0a4f28419497f9722a3daafe3b4186f6b6457e090600090a3606580546001600160a01b0319166001600160a01b0392909216919091179055565b609b5481565b609a5481565b303b1590565b600054610100900460ff16806109a157506109a1610982565b806109af575060005460ff16155b6109ea5760405162461bcd60e51b815260040180806020018281038252602e81526020018061106c602e913960400191505060405180910390fd5b600054610100900460ff16158015610a15576000805460ff1961ff0019909116610100171660011790555b610a1d610d8f565b610a25610e2f565b8015610a37576000805461ff00191690555b50565b610a42610d30565b6065546001600160a01b03908116911614610aa4576040805162461bcd60e51b815260206004820181905260248201527f4f776e61626c653a2063616c6c6572206973206e6f7420746865206f776e6572604482015290519081900360640190fd5b610ab18462201480610cee565b609855610ac46106546220148083610c95565b609755610ad48262201480610cee565b6099819055609a829055609854609754604080519283526020830191909152818101929092526060810183905290517f6960ab234c7ef4b0c9197100f5393cfcde7c453ac910a27bd2000aa1dd4c068d9181900360800190a150505050565b600080610b41858585610634565b9050609a548111610b7b57610b7360985461058b670de0b6b3a764000061052a60975486610c9590919063ffffffff16565b9150506103ef565b6000610ba660985461058b670de0b6b3a764000061052a609754609a54610c9590919063ffffffff16565b90506000610bbf609a5484610c5390919063ffffffff16565b9050610be68261058b670de0b6b3a764000061052a60995486610c9590919063ffffffff16565b93505050506103ef565b600082820183811015610c4a576040805162461bcd60e51b815260206004820152601b60248201527f536166654d6174683a206164646974696f6e206f766572666c6f770000000000604482015290519081900360640190fd5b90505b92915050565b6000610c4a83836040518060400160405280601e81526020017f536166654d6174683a207375627472616374696f6e206f766572666c6f770000815250610f28565b600082610ca457506000610c4d565b82820282848281610cb157fe5b0414610c4a5760405162461bcd60e51b815260040180806020018281038252602181526020018061104b6021913960400191505060405180910390fd5b6000610c4a83836040518060400160405280601a81526020017f536166654d6174683a206469766973696f6e206279207a65726f000000000000815250610fbf565b3390565b600080610d49670de0b6b3a764000084610c53565b90506000610d58878787610b33565b90506000610d72670de0b6b3a764000061052a8486610c95565b905061082e670de0b6b3a764000061052a836105248c8c8c610634565b600054610100900460ff1680610da85750610da8610982565b80610db6575060005460ff16155b610df15760405162461bcd60e51b815260040180806020018281038252602e81526020018061106c602e913960400191505060405180910390fd5b600054610100900460ff16158015610a25576000805460ff1961ff0019909116610100171660011790558015610a37576000805461ff001916905550565b600054610100900460ff1680610e485750610e48610982565b80610e56575060005460ff16155b610e915760405162461bcd60e51b815260040180806020018281038252602e81526020018061106c602e913960400191505060405180910390fd5b600054610100900460ff16158015610ebc576000805460ff1961ff0019909116610100171660011790555b6000610ec6610d30565b606580546001600160a01b0319166001600160a01b038316908117909155604051919250906000907f8be0079c531659141344cd1fd0a4f28419497f9722a3daafe3b4186f6b6457e0908290a3508015610a37576000805461ff001916905550565b60008184841115610fb75760405162461bcd60e51b81526004018080602001828103825283818151815260200191508051906020019080838360005b83811015610f7c578181015183820152602001610f64565b50505050905090810190601f168015610fa95780820380516001836020036101000a031916815260200191505b509250505060405180910390fd5b505050900390565b6000818361100e5760405162461bcd60e51b8152602060048201818152835160248401528351909283926044909101919085019080838360008315610f7c578181015183820152602001610f64565b50600083858161101a57fe5b049594505050505056fe4f776e61626c653a206e6577206f776e657220697320746865207a65726f2061646472657373536166654d6174683a206d756c7469706c69636174696f6e206f766572666c6f77436f6e747261637420696e7374616e63652068617320616c7265616479206265656e20696e697469616c697a6564a26469706673582212203218f2790548ce8c9943c174f31ab86785da7d998edf2f57d8504c97bde68d6d64736f6c634300060c0033",
  "linkReferences": {},
  "deployedLinkReferences": {}
}