{
  "_format": "hh-sol-artifact-1",
  "contractName": "JugLike",
  "sourceName": "contracts/Lend/rate/DAIInterestRateModel.sol",
  "abi": [
    {
      "inputs": [],
      "name": "base",
      "outputs": [
        {
          "internalType": "uint256",
          "name": "",
          "type": "uint256"
        }
      ],
      "stateMutability": "view",
      "type": "function"
    },
    {
      "inputs": [
        {
          "internalType": "bytes32",
          "name": "",
          "type": "bytes32"
        }
      ],
      "name": "ilks",
      "outputs": [
        {
          "internalType": "uint256",
          "name": "duty",
          "type": "uint256"
        },
        {
          "internalType": "uint256",
          "name": "rho",
          "type": "uint256"
        }
      ],
      "stateMutability": "view",
      "type": "function"
    }
  ],
  "bytecode": "0x608060405234801561001057600080fd5b5060d78061001f6000396000f3fe6080604052348015600f57600080fd5b506004361060325760003560e01c80635001f3b5146037578063d9638d3614604f575b600080fd5b603d6082565b60408051918252519081900360200190f35b606960048036036020811015606357600080fd5b50356088565b6040805192835260208301919091528051918290030190f35b60015481565b600060208190529081526040902080546001909101548256fea2646970667358221220971bfd178c934269d63efdd0b5ae97eeda3287cf115abbab8e6abbf5d24d0c4364736f6c634300060c0033",
  "linkReferences": {},
  "deployedLinkReferences": {}
}