{
  "_format": "hh-sol-artifact-1",
  "contractName": "CErc20",
  "sourceName": "contracts/Lend/CErc20.sol",
  "abi": [
    {
      "anonymous": false,
      "inputs": [
        {
          "indexed": false,
          "internalType": "uint256",
          "name": "cashPrior",
          "type": "uint256"
        },
        {
          "indexed": false,
          "internalType": "uint256",
          "name": "interestAccumulated",
          "type": "uint256"
        },
        {
          "indexed": false,
          "internalType": "uint256",
          "name": "borrowIndex",
          "type": "uint256"
        },
        {
          "indexed": false,
          "internalType": "uint256",
          "name": "totalBorrows",
          "type": "uint256"
        }
      ],
      "name": "AccrueInterest",
      "type": "event"
    },
    {
      "anonymous": false,
      "inputs": [
        {
          "indexed": true,
          "internalType": "address",
          "name": "owner",
          "type": "address"
        },
        {
          "indexed": true,
          "internalType": "address",
          "name": "spender",
          "type": "address"
        },
        {
          "indexed": false,
          "internalType": "uint256",
          "name": "amount",
          "type": "uint256"
        }
      ],
      "name": "Approval",
      "type": "event"
    },
    {
      "anonymous": false,
      "inputs": [
        {
          "indexed": false,
          "internalType": "address",
          "name": "borrower",
          "type": "address"
        },
        {
          "indexed": false,
          "internalType": "uint256",
          "name": "borrowAmount",
          "type": "uint256"
        },
        {
          "indexed": false,
          "internalType": "uint256",
          "name": "accountBorrows",
          "type": "uint256"
        },
        {
          "indexed": false,
          "internalType": "uint256",
          "name": "totalBorrows",
          "type": "uint256"
        }
      ],
      "name": "Borrow",
      "type": "event"
    },
    {
      "anonymous": false,
      "inputs": [
        {
          "indexed": false,
          "internalType": "uint256",
          "name": "error",
          "type": "uint256"
        },
        {
          "indexed": false,
          "internalType": "uint256",
          "name": "info",
          "type": "uint256"
        },
        {
          "indexed": false,
          "internalType": "uint256",
          "name": "detail",
          "type": "uint256"
        }
      ],
      "name": "Failure",
      "type": "event"
    },
    {
      "anonymous": false,
      "inputs": [
        {
          "indexed": false,
          "internalType": "address",
          "name": "liquidator",
          "type": "address"
        },
        {
          "indexed": false,
          "internalType": "address",
          "name": "borrower",
          "type": "address"
        },
        {
          "indexed": false,
          "internalType": "uint256",
          "name": "repayAmount",
          "type": "uint256"
        },
        {
          "indexed": false,
          "internalType": "address",
          "name": "cTokenCollateral",
          "type": "address"
        },
        {
          "indexed": false,
          "internalType": "uint256",
          "name": "seizeTokens",
          "type": "uint256"
        }
      ],
      "name": "LiquidateBorrow",
      "type": "event"
    },
    {
      "anonymous": false,
      "inputs": [
        {
          "indexed": false,
          "internalType": "address",
          "name": "minter",
          "type": "address"
        },
        {
          "indexed": false,
          "internalType": "uint256",
          "name": "mintAmount",
          "type": "uint256"
        },
        {
          "indexed": false,
          "internalType": "uint256",
          "name": "mintTokens",
          "type": "uint256"
        }
      ],
      "name": "Mint",
      "type": "event"
    },
    {
      "anonymous": false,
      "inputs": [
        {
          "indexed": false,
          "internalType": "address",
          "name": "oldAdmin",
          "type": "address"
        },
        {
          "indexed": false,
          "internalType": "address",
          "name": "newAdmin",
          "type": "address"
        }
      ],
      "name": "NewAdmin",
      "type": "event"
    },
    {
      "anonymous": false,
      "inputs": [
        {
          "indexed": false,
          "internalType": "contract ComptrollerInterface",
          "name": "oldComptroller",
          "type": "address"
        },
        {
          "indexed": false,
          "internalType": "contract ComptrollerInterface",
          "name": "newComptroller",
          "type": "address"
        }
      ],
      "name": "NewComptroller",
      "type": "event"
    },
    {
      "anonymous": false,
      "inputs": [
        {
          "indexed": false,
          "internalType": "contract InterestRateModel",
          "name": "oldInterestRateModel",
          "type": "address"
        },
        {
          "indexed": false,
          "internalType": "contract InterestRateModel",
          "name": "newInterestRateModel",
          "type": "address"
        }
      ],
      "name": "NewMarketInterestRateModel",
      "type": "event"
    },
    {
      "anonymous": false,
      "inputs": [
        {
          "indexed": false,
          "internalType": "address",
          "name": "oldPendingAdmin",
          "type": "address"
        },
        {
          "indexed": false,
          "internalType": "address",
          "name": "newPendingAdmin",
          "type": "address"
        }
      ],
      "name": "NewPendingAdmin",
      "type": "event"
    },
    {
      "anonymous": false,
      "inputs": [
        {
          "indexed": false,
          "internalType": "uint256",
          "name": "oldReserveFactorMantissa",
          "type": "uint256"
        },
        {
          "indexed": false,
          "internalType": "uint256",
          "name": "newReserveFactorMantissa",
          "type": "uint256"
        }
      ],
      "name": "NewReserveFactor",
      "type": "event"
    },
    {
      "anonymous": false,
      "inputs": [
        {
          "indexed": false,
          "internalType": "address",
          "name": "redeemer",
          "type": "address"
        },
        {
          "indexed": false,
          "internalType": "uint256",
          "name": "redeemAmount",
          "type": "uint256"
        },
        {
          "indexed": false,
          "internalType": "uint256",
          "name": "redeemTokens",
          "type": "uint256"
        }
      ],
      "name": "Redeem",
      "type": "event"
    },
    {
      "anonymous": false,
      "inputs": [
        {
          "indexed": false,
          "internalType": "address",
          "name": "payer",
          "type": "address"
        },
        {
          "indexed": false,
          "internalType": "address",
          "name": "borrower",
          "type": "address"
        },
        {
          "indexed": false,
          "internalType": "uint256",
          "name": "repayAmount",
          "type": "uint256"
        },
        {
          "indexed": false,
          "internalType": "uint256",
          "name": "accountBorrows",
          "type": "uint256"
        },
        {
          "indexed": false,
          "internalType": "uint256",
          "name": "totalBorrows",
          "type": "uint256"
        }
      ],
      "name": "RepayBorrow",
      "type": "event"
    },
    {
      "anonymous": false,
      "inputs": [
        {
          "indexed": false,
          "internalType": "address",
          "name": "benefactor",
          "type": "address"
        },
        {
          "indexed": false,
          "internalType": "uint256",
          "name": "addAmount",
          "type": "uint256"
        },
        {
          "indexed": false,
          "internalType": "uint256",
          "name": "newTotalReserves",
          "type": "uint256"
        }
      ],
      "name": "ReservesAdded",
      "type": "event"
    },
    {
      "anonymous": false,
      "inputs": [
        {
          "indexed": false,
          "internalType": "address",
          "name": "admin",
          "type": "address"
        },
        {
          "indexed": false,
          "internalType": "uint256",
          "name": "reduceAmount",
          "type": "uint256"
        },
        {
          "indexed": false,
          "internalType": "uint256",
          "name": "newTotalReserves",
          "type": "uint256"
        }
      ],
      "name": "ReservesReduced",
      "type": "event"
    },
    {
      "anonymous": false,
      "inputs": [
        {
          "indexed": true,
          "internalType": "address",
          "name": "from",
          "type": "address"
        },
        {
          "indexed": true,
          "internalType": "address",
          "name": "to",
          "type": "address"
        },
        {
          "indexed": false,
          "internalType": "uint256",
          "name": "amount",
          "type": "uint256"
        }
      ],
      "name": "Transfer",
      "type": "event"
    },
    {
      "constant": false,
      "inputs": [],
      "name": "_acceptAdmin",
      "outputs": [
        {
          "internalType": "uint256",
          "name": "",
          "type": "uint256"
        }
      ],
      "payable": false,
      "stateMutability": "nonpayable",
      "type": "function"
    },
    {
      "constant": false,
      "inputs": [
        {
          "internalType": "uint256",
          "name": "addAmount",
          "type": "uint256"
        }
      ],
      "name": "_addReserves",
      "outputs": [
        {
          "internalType": "uint256",
          "name": "",
          "type": "uint256"
        }
      ],
      "payable": false,
      "stateMutability": "nonpayable",
      "type": "function"
    },
    {
      "constant": false,
      "inputs": [
        {
          "internalType": "uint256",
          "name": "reduceAmount",
          "type": "uint256"
        }
      ],
      "name": "_reduceReserves",
      "outputs": [
        {
          "internalType": "uint256",
          "name": "",
          "type": "uint256"
        }
      ],
      "payable": false,
      "stateMutability": "nonpayable",
      "type": "function"
    },
    {
      "constant": false,
      "inputs": [
        {
          "internalType": "contract ComptrollerInterface",
          "name": "newComptroller",
          "type": "address"
        }
      ],
      "name": "_setComptroller",
      "outputs": [
        {
          "internalType": "uint256",
          "name": "",
          "type": "uint256"
        }
      ],
      "payable": false,
      "stateMutability": "nonpayable",
      "type": "function"
    },
    {
      "constant": false,
      "inputs": [
        {
          "internalType": "contract InterestRateModel",
          "name": "newInterestRateModel",
          "type": "address"
        }
      ],
      "name": "_setInterestRateModel",
      "outputs": [
        {
          "internalType": "uint256",
          "name": "",
          "type": "uint256"
        }
      ],
      "payable": false,
      "stateMutability": "nonpayable",
      "type": "function"
    },
    {
      "constant": false,
      "inputs": [
        {
          "internalType": "address payable",
          "name": "newPendingAdmin",
          "type": "address"
        }
      ],
      "name": "_setPendingAdmin",
      "outputs": [
        {
          "internalType": "uint256",
          "name": "",
          "type": "uint256"
        }
      ],
      "payable": false,
      "stateMutability": "nonpayable",
      "type": "function"
    },
    {
      "constant": false,
      "inputs": [
        {
          "internalType": "uint256",
          "name": "newReserveFactorMantissa",
          "type": "uint256"
        }
      ],
      "name": "_setReserveFactor",
      "outputs": [
        {
          "internalType": "uint256",
          "name": "",
          "type": "uint256"
        }
      ],
      "payable": false,
      "stateMutability": "nonpayable",
      "type": "function"
    },
    {
      "constant": true,
      "inputs": [],
      "name": "accrualBlockNumber",
      "outputs": [
        {
          "internalType": "uint256",
          "name": "",
          "type": "uint256"
        }
      ],
      "payable": false,
      "stateMutability": "view",
      "type": "function"
    },
    {
      "constant": false,
      "inputs": [],
      "name": "accrueInterest",
      "outputs": [
        {
          "internalType": "uint256",
          "name": "",
          "type": "uint256"
        }
      ],
      "payable": false,
      "stateMutability": "nonpayable",
      "type": "function"
    },
    {
      "constant": true,
      "inputs": [],
      "name": "admin",
      "outputs": [
        {
          "internalType": "address payable",
          "name": "",
          "type": "address"
        }
      ],
      "payable": false,
      "stateMutability": "view",
      "type": "function"
    },
    {
      "constant": true,
      "inputs": [
        {
          "internalType": "address",
          "name": "owner",
          "type": "address"
        },
        {
          "internalType": "address",
          "name": "spender",
          "type": "address"
        }
      ],
      "name": "allowance",
      "outputs": [
        {
          "internalType": "uint256",
          "name": "",
          "type": "uint256"
        }
      ],
      "payable": false,
      "stateMutability": "view",
      "type": "function"
    },
    {
      "constant": false,
      "inputs": [
        {
          "internalType": "address",
          "name": "spender",
          "type": "address"
        },
        {
          "internalType": "uint256",
          "name": "amount",
          "type": "uint256"
        }
      ],
      "name": "approve",
      "outputs": [
        {
          "internalType": "bool",
          "name": "",
          "type": "bool"
        }
      ],
      "payable": false,
      "stateMutability": "nonpayable",
      "type": "function"
    },
    {
      "constant": true,
      "inputs": [
        {
          "internalType": "address",
          "name": "owner",
          "type": "address"
        }
      ],
      "name": "balanceOf",
      "outputs": [
        {
          "internalType": "uint256",
          "name": "",
          "type": "uint256"
        }
      ],
      "payable": false,
      "stateMutability": "view",
      "type": "function"
    },
    {
      "constant": false,
      "inputs": [
        {
          "internalType": "address",
          "name": "owner",
          "type": "address"
        }
      ],
      "name": "balanceOfUnderlying",
      "outputs": [
        {
          "internalType": "uint256",
          "name": "",
          "type": "uint256"
        }
      ],
      "payable": false,
      "stateMutability": "nonpayable",
      "type": "function"
    },
    {
      "constant": false,
      "inputs": [
        {
          "internalType": "uint256",
          "name": "borrowAmount",
          "type": "uint256"
        }
      ],
      "name": "borrow",
      "outputs": [
        {
          "internalType": "uint256",
          "name": "",
          "type": "uint256"
        }
      ],
      "payable": false,
      "stateMutability": "nonpayable",
      "type": "function"
    },
    {
      "constant": false,
      "inputs": [
        {
          "internalType": "address",
          "name": "account",
          "type": "address"
        }
      ],
      "name": "borrowBalanceCurrent",
      "outputs": [
        {
          "internalType": "uint256",
          "name": "",
          "type": "uint256"
        }
      ],
      "payable": false,
      "stateMutability": "nonpayable",
      "type": "function"
    },
    {
      "constant": true,
      "inputs": [
        {
          "internalType": "address",
          "name": "account",
          "type": "address"
        }
      ],
      "name": "borrowBalanceStored",
      "outputs": [
        {
          "internalType": "uint256",
          "name": "",
          "type": "uint256"
        }
      ],
      "payable": false,
      "stateMutability": "view",
      "type": "function"
    },
    {
      "constant": true,
      "inputs": [],
      "name": "borrowIndex",
      "outputs": [
        {
          "internalType": "uint256",
          "name": "",
          "type": "uint256"
        }
      ],
      "payable": false,
      "stateMutability": "view",
      "type": "function"
    },
    {
      "constant": true,
      "inputs": [],
      "name": "borrowRatePerBlock",
      "outputs": [
        {
          "internalType": "uint256",
          "name": "",
          "type": "uint256"
        }
      ],
      "payable": false,
      "stateMutability": "view",
      "type": "function"
    },
    {
      "constant": true,
      "inputs": [],
      "name": "comptroller",
      "outputs": [
        {
          "internalType": "contract ComptrollerInterface",
          "name": "",
          "type": "address"
        }
      ],
      "payable": false,
      "stateMutability": "view",
      "type": "function"
    },
    {
      "constant": true,
      "inputs": [],
      "name": "decimals",
      "outputs": [
        {
          "internalType": "uint8",
          "name": "",
          "type": "uint8"
        }
      ],
      "payable": false,
      "stateMutability": "view",
      "type": "function"
    },
    {
      "constant": false,
      "inputs": [],
      "name": "exchangeRateCurrent",
      "outputs": [
        {
          "internalType": "uint256",
          "name": "",
          "type": "uint256"
        }
      ],
      "payable": false,
      "stateMutability": "nonpayable",
      "type": "function"
    },
    {
      "constant": true,
      "inputs": [],
      "name": "exchangeRateStored",
      "outputs": [
        {
          "internalType": "uint256",
          "name": "",
          "type": "uint256"
        }
      ],
      "payable": false,
      "stateMutability": "view",
      "type": "function"
    },
    {
      "constant": true,
      "inputs": [
        {
          "internalType": "address",
          "name": "account",
          "type": "address"
        }
      ],
      "name": "getAccountSnapshot",
      "outputs": [
        {
          "internalType": "uint256",
          "name": "",
          "type": "uint256"
        },
        {
          "internalType": "uint256",
          "name": "",
          "type": "uint256"
        },
        {
          "internalType": "uint256",
          "name": "",
          "type": "uint256"
        },
        {
          "internalType": "uint256",
          "name": "",
          "type": "uint256"
        }
      ],
      "payable": false,
      "stateMutability": "view",
      "type": "function"
    },
    {
      "constant": true,
      "inputs": [],
      "name": "getCash",
      "outputs": [
        {
          "internalType": "uint256",
          "name": "",
          "type": "uint256"
        }
      ],
      "payable": false,
      "stateMutability": "view",
      "type": "function"
    },
    {
      "constant": false,
      "inputs": [
        {
          "internalType": "address",
          "name": "underlying_",
          "type": "address"
        },
        {
          "internalType": "contract ComptrollerInterface",
          "name": "comptroller_",
          "type": "address"
        },
        {
          "internalType": "contract InterestRateModel",
          "name": "interestRateModel_",
          "type": "address"
        },
        {
          "internalType": "uint256",
          "name": "initialExchangeRateMantissa_",
          "type": "uint256"
        },
        {
          "internalType": "string",
          "name": "name_",
          "type": "string"
        },
        {
          "internalType": "string",
          "name": "symbol_",
          "type": "string"
        },
        {
          "internalType": "uint8",
          "name": "decimals_",
          "type": "uint8"
        }
      ],
      "name": "initialize",
      "outputs": [],
      "payable": false,
      "stateMutability": "nonpayable",
      "type": "function"
    },
    {
      "constant": false,
      "inputs": [
        {
          "internalType": "contract ComptrollerInterface",
          "name": "comptroller_",
          "type": "address"
        },
        {
          "internalType": "contract InterestRateModel",
          "name": "interestRateModel_",
          "type": "address"
        },
        {
          "internalType": "uint256",
          "name": "initialExchangeRateMantissa_",
          "type": "uint256"
        },
        {
          "internalType": "string",
          "name": "name_",
          "type": "string"
        },
        {
          "internalType": "string",
          "name": "symbol_",
          "type": "string"
        },
        {
          "internalType": "uint8",
          "name": "decimals_",
          "type": "uint8"
        }
      ],
      "name": "initialize",
      "outputs": [],
      "payable": false,
      "stateMutability": "nonpayable",
      "type": "function"
    },
    {
      "constant": true,
      "inputs": [],
      "name": "interestRateModel",
      "outputs": [
        {
          "internalType": "contract InterestRateModel",
          "name": "",
          "type": "address"
        }
      ],
      "payable": false,
      "stateMutability": "view",
      "type": "function"
    },
    {
      "constant": true,
      "inputs": [],
      "name": "isCToken",
      "outputs": [
        {
          "internalType": "bool",
          "name": "",
          "type": "bool"
        }
      ],
      "payable": false,
      "stateMutability": "view",
      "type": "function"
    },
    {
      "constant": false,
      "inputs": [
        {
          "internalType": "address",
          "name": "borrower",
          "type": "address"
        },
        {
          "internalType": "uint256",
          "name": "repayAmount",
          "type": "uint256"
        },
        {
          "internalType": "contract CTokenInterface",
          "name": "cTokenCollateral",
          "type": "address"
        }
      ],
      "name": "liquidateBorrow",
      "outputs": [
        {
          "internalType": "uint256",
          "name": "",
          "type": "uint256"
        }
      ],
      "payable": false,
      "stateMutability": "nonpayable",
      "type": "function"
    },
    {
      "constant": false,
      "inputs": [
        {
          "internalType": "uint256",
          "name": "mintAmount",
          "type": "uint256"
        }
      ],
      "name": "mint",
      "outputs": [
        {
          "internalType": "uint256",
          "name": "",
          "type": "uint256"
        }
      ],
      "payable": false,
      "stateMutability": "nonpayable",
      "type": "function"
    },
    {
      "constant": true,
      "inputs": [],
      "name": "name",
      "outputs": [
        {
          "internalType": "string",
          "name": "",
          "type": "string"
        }
      ],
      "payable": false,
      "stateMutability": "view",
      "type": "function"
    },
    {
      "constant": true,
      "inputs": [],
      "name": "pendingAdmin",
      "outputs": [
        {
          "internalType": "address payable",
          "name": "",
          "type": "address"
        }
      ],
      "payable": false,
      "stateMutability": "view",
      "type": "function"
    },
    {
      "constant": false,
      "inputs": [
        {
          "internalType": "uint256",
          "name": "redeemTokens",
          "type": "uint256"
        }
      ],
      "name": "redeem",
      "outputs": [
        {
          "internalType": "uint256",
          "name": "",
          "type": "uint256"
        }
      ],
      "payable": false,
      "stateMutability": "nonpayable",
      "type": "function"
    },
    {
      "constant": false,
      "inputs": [
        {
          "internalType": "uint256",
          "name": "redeemAmount",
          "type": "uint256"
        }
      ],
      "name": "redeemUnderlying",
      "outputs": [
        {
          "internalType": "uint256",
          "name": "",
          "type": "uint256"
        }
      ],
      "payable": false,
      "stateMutability": "nonpayable",
      "type": "function"
    },
    {
      "constant": false,
      "inputs": [
        {
          "internalType": "uint256",
          "name": "repayAmount",
          "type": "uint256"
        }
      ],
      "name": "repayBorrow",
      "outputs": [
        {
          "internalType": "uint256",
          "name": "",
          "type": "uint256"
        }
      ],
      "payable": false,
      "stateMutability": "nonpayable",
      "type": "function"
    },
    {
      "constant": false,
      "inputs": [
        {
          "internalType": "address",
          "name": "borrower",
          "type": "address"
        },
        {
          "internalType": "uint256",
          "name": "repayAmount",
          "type": "uint256"
        }
      ],
      "name": "repayBorrowBehalf",
      "outputs": [
        {
          "internalType": "uint256",
          "name": "",
          "type": "uint256"
        }
      ],
      "payable": false,
      "stateMutability": "nonpayable",
      "type": "function"
    },
    {
      "constant": true,
      "inputs": [],
      "name": "reserveFactorMantissa",
      "outputs": [
        {
          "internalType": "uint256",
          "name": "",
          "type": "uint256"
        }
      ],
      "payable": false,
      "stateMutability": "view",
      "type": "function"
    },
    {
      "constant": false,
      "inputs": [
        {
          "internalType": "address",
          "name": "liquidator",
          "type": "address"
        },
        {
          "internalType": "address",
          "name": "borrower",
          "type": "address"
        },
        {
          "internalType": "uint256",
          "name": "seizeTokens",
          "type": "uint256"
        }
      ],
      "name": "seize",
      "outputs": [
        {
          "internalType": "uint256",
          "name": "",
          "type": "uint256"
        }
      ],
      "payable": false,
      "stateMutability": "nonpayable",
      "type": "function"
    },
    {
      "constant": true,
      "inputs": [],
      "name": "supplyRatePerBlock",
      "outputs": [
        {
          "internalType": "uint256",
          "name": "",
          "type": "uint256"
        }
      ],
      "payable": false,
      "stateMutability": "view",
      "type": "function"
    },
    {
      "constant": false,
      "inputs": [
        {
          "internalType": "contract EIP20NonStandardInterface",
          "name": "token",
          "type": "address"
        }
      ],
      "name": "sweepToken",
      "outputs": [],
      "payable": false,
      "stateMutability": "nonpayable",
      "type": "function"
    },
    {
      "constant": true,
      "inputs": [],
      "name": "symbol",
      "outputs": [
        {
          "internalType": "string",
          "name": "",
          "type": "string"
        }
      ],
      "payable": false,
      "stateMutability": "view",
      "type": "function"
    },
    {
      "constant": true,
      "inputs": [],
      "name": "totalBorrows",
      "outputs": [
        {
          "internalType": "uint256",
          "name": "",
          "type": "uint256"
        }
      ],
      "payable": false,
      "stateMutability": "view",
      "type": "function"
    },
    {
      "constant": false,
      "inputs": [],
      "name": "totalBorrowsCurrent",
      "outputs": [
        {
          "internalType": "uint256",
          "name": "",
          "type": "uint256"
        }
      ],
      "payable": false,
      "stateMutability": "nonpayable",
      "type": "function"
    },
    {
      "constant": true,
      "inputs": [],
      "name": "totalReserves",
      "outputs": [
        {
          "internalType": "uint256",
          "name": "",
          "type": "uint256"
        }
      ],
      "payable": false,
      "stateMutability": "view",
      "type": "function"
    },
    {
      "constant": true,
      "inputs": [],
      "name": "totalSupply",
      "outputs": [
        {
          "internalType": "uint256",
          "name": "",
          "type": "uint256"
        }
      ],
      "payable": false,
      "stateMutability": "view",
      "type": "function"
    },
    {
      "constant": false,
      "inputs": [
        {
          "internalType": "address",
          "name": "dst",
          "type": "address"
        },
        {
          "internalType": "uint256",
          "name": "amount",
          "type": "uint256"
        }
      ],
      "name": "transfer",
      "outputs": [
        {
          "internalType": "bool",
          "name": "",
          "type": "bool"
        }
      ],
      "payable": false,
      "stateMutability": "nonpayable",
      "type": "function"
    },
    {
      "constant": false,
      "inputs": [
        {
          "internalType": "address",
          "name": "src",
          "type": "address"
        },
        {
          "internalType": "address",
          "name": "dst",
          "type": "address"
        },
        {
          "internalType": "uint256",
          "name": "amount",
          "type": "uint256"
        }
      ],
      "name": "transferFrom",
      "outputs": [
        {
          "internalType": "bool",
          "name": "",
          "type": "bool"
        }
      ],
      "payable": false,
      "stateMutability": "nonpayable",
      "type": "function"
    },
    {
      "constant": true,
      "inputs": [],
      "name": "underlying",
      "outputs": [
        {
          "internalType": "address",
          "name": "",
          "type": "address"
        }
      ],
      "payable": false,
      "stateMutability": "view",
      "type": "function"
    }
  ],
  "bytecode": "0x608060405234801561001057600080fd5b50614da7806100206000396000f3fe608060405234801561001057600080fd5b50600436106102bb5760003560e01c8063852a12e311610182578063bd6d894d116100e9578063f2b3abbd116100a2578063f851a4401161007c578063f851a44014610a6e578063f8f9da2814610a76578063fca7820b14610a7e578063fe9c44ae14610a9b576102bb565b8063f2b3abbd14610a0a578063f3fdb15a14610a30578063f5e3c46214610a38576102bb565b8063bd6d894d14610946578063c37f68e21461094e578063c5ebeaec1461099a578063db006a75146109b7578063dd62ed3e146109d4578063e9c714f214610a02576102bb565b8063a6afed951161013b578063a6afed95146108a6578063a9059cbb146108ae578063aa5af0fd146108da578063ae9d70b0146108e2578063b2a02ff1146108ea578063b71d1a0c14610920576102bb565b8063852a12e3146106e85780638f840ddd1461070557806395d89b411461070d57806395dd91931461071557806399d8c1b41461073b578063a0712d6814610889576102bb565b8063313ce567116102265780635fe3b567116101df5780635fe3b56714610685578063601a0bf11461068d5780636c540baf146106aa5780636f307dc3146106b257806370a08231146106ba57806373acee98146106e0576102bb565b8063313ce567146105ee5780633af9e6691461060c5780633b1d21a2146106325780633e9410101461063a5780634576b5db1461065757806347bd37181461067d576102bb565b8063182df0f511610278578063182df0f5146103e25780631a31d465146103ea5780631be195601461054257806323b872dd146105685780632608f8181461059e57806326782247146105ca576102bb565b806306fdde03146102c0578063095ea7b31461033d5780630e7527021461037d578063173b9904146103ac57806317bfdfbc146103b457806318160ddd146103da575b600080fd5b6102c8610aa3565b6040805160208082528351818301528351919283929083019185019080838360005b838110156103025781810151838201526020016102ea565b50505050905090810190601f16801561032f5780820380516001836020036101000a031916815260200191505b509250505060405180910390f35b6103696004803603604081101561035357600080fd5b506001600160a01b038135169060200135610b30565b604080519115158252519081900360200190f35b61039a6004803603602081101561039357600080fd5b5035610b9d565b60408051918252519081900360200190f35b61039a610bb3565b61039a600480360360208110156103ca57600080fd5b50356001600160a01b0316610bb9565b61039a610c79565b61039a610c7f565b610540600480360360e081101561040057600080fd5b6001600160a01b03823581169260208101358216926040820135909216916060820135919081019060a081016080820135600160201b81111561044257600080fd5b82018360208201111561045457600080fd5b803590602001918460018302840111600160201b8311171561047557600080fd5b91908080601f0160208091040260200160405190810160405280939291908181526020018383808284376000920191909152509295949360208101935035915050600160201b8111156104c757600080fd5b8201836020820111156104d957600080fd5b803590602001918460018302840111600160201b831117156104fa57600080fd5b91908080601f0160208091040260200160405190810160405280939291908181526020018383808284376000920191909152509295505050903560ff169150610ce29050565b005b6105406004803603602081101561055857600080fd5b50356001600160a01b0316610d81565b6103696004803603606081101561057e57600080fd5b506001600160a01b03813581169160208101359091169060400135610ebd565b61039a600480360360408110156105b457600080fd5b506001600160a01b038135169060200135610f2f565b6105d2610f45565b604080516001600160a01b039092168252519081900360200190f35b6105f6610f54565b6040805160ff9092168252519081900360200190f35b61039a6004803603602081101561062257600080fd5b50356001600160a01b0316610f5d565b61039a611013565b61039a6004803603602081101561065057600080fd5b5035611022565b61039a6004803603602081101561066d57600080fd5b50356001600160a01b031661102d565b61039a611182565b6105d2611188565b61039a600480360360208110156106a357600080fd5b5035611197565b61039a611232565b6105d2611238565b61039a600480360360208110156106d057600080fd5b50356001600160a01b0316611247565b61039a611262565b61039a600480360360208110156106fe57600080fd5b5035611318565b61039a611323565b6102c8611329565b61039a6004803603602081101561072b57600080fd5b50356001600160a01b0316611381565b610540600480360360c081101561075157600080fd5b6001600160a01b03823581169260208101359091169160408201359190810190608081016060820135600160201b81111561078b57600080fd5b82018360208201111561079d57600080fd5b803590602001918460018302840111600160201b831117156107be57600080fd5b91908080601f0160208091040260200160405190810160405280939291908181526020018383808284376000920191909152509295949360208101935035915050600160201b81111561081057600080fd5b82018360208201111561082257600080fd5b803590602001918460018302840111600160201b8311171561084357600080fd5b91908080601f0160208091040260200160405190810160405280939291908181526020018383808284376000920191909152509295505050903560ff1691506113de9050565b61039a6004803603602081101561089f57600080fd5b50356115c5565b61039a6115d1565b610369600480360360408110156108c457600080fd5b506001600160a01b038135169060200135611929565b61039a61199a565b61039a6119a0565b61039a6004803603606081101561090057600080fd5b506001600160a01b03813581169160208101359091169060400135611a3f565b61039a6004803603602081101561093657600080fd5b50356001600160a01b0316611ab0565b61039a611b3c565b6109746004803603602081101561096457600080fd5b50356001600160a01b0316611bf8565b604080519485526020850193909352838301919091526060830152519081900360800190f35b61039a600480360360208110156109b057600080fd5b5035611c8d565b61039a600480360360208110156109cd57600080fd5b5035611c98565b61039a600480360360408110156109ea57600080fd5b506001600160a01b0381358116916020013516611ca3565b61039a611cce565b61039a60048036036020811015610a2057600080fd5b50356001600160a01b0316611dd1565b6105d2611e0b565b61039a60048036036060811015610a4e57600080fd5b506001600160a01b03813581169160208101359160409091013516611e1a565b6105d2611e32565b61039a611e46565b61039a60048036036020811015610a9457600080fd5b5035611eaa565b610369611f28565b60018054604080516020600284861615610100026000190190941693909304601f81018490048402820184019092528181529291830182828015610b285780601f10610afd57610100808354040283529160200191610b28565b820191906000526020600020905b815481529060010190602001808311610b0b57829003601f168201915b505050505081565b336000818152600f602090815260408083206001600160a01b03871680855290835281842086905581518681529151939493909284927f8c5be1e5ebec7d5bd14f71427d1e84f3dd0314c0f7b2291e5b200ac8c7c3b925929081900390910190a360019150505b92915050565b600080610ba983611f2d565b509150505b919050565b60085481565b6000805460ff16610bfe576040805162461bcd60e51b815260206004820152600a6024820152691c994b595b9d195c995960b21b604482015290519081900360640190fd5b6000805460ff19168155610c106115d1565b14610c5b576040805162461bcd60e51b81526020600482015260166024820152751858d8dc9d59481a5b9d195c995cdd0819985a5b195960521b604482015290519081900360640190fd5b610c6482611381565b90505b6000805460ff19166001179055919050565b600d5481565b6000806000610c8c611fd6565b90925090506000826003811115610c9f57fe5b14610cdb5760405162461bcd60e51b8152600401808060200182810382526035815260200180614cbe6035913960400191505060405180910390fd5b9150505b90565b610cf08686868686866113de565b601180546001600160a01b0319166001600160a01b038981169190911791829055604080516318160ddd60e01b8152905192909116916318160ddd91600480820192602092909190829003018186803b158015610d4c57600080fd5b505afa158015610d60573d6000803e3d6000fd5b505050506040513d6020811015610d7657600080fd5b505050505050505050565b6011546001600160a01b0382811691161415610dce5760405162461bcd60e51b8152600401808060200182810382526032815260200180614b1a6032913960400191505060405180910390fd5b604080516370a0823160e01b815230600482015290516000916001600160a01b038416916370a0823191602480820192602092909190829003018186803b158015610e1857600080fd5b505afa158015610e2c573d6000803e3d6000fd5b505050506040513d6020811015610e4257600080fd5b50516003546040805163a9059cbb60e01b81526101009092046001600160a01b03908116600484015260248301849052905192935084169163a9059cbb9160448082019260009290919082900301818387803b158015610ea157600080fd5b505af1158015610eb5573d6000803e3d6000fd5b505050505050565b6000805460ff16610f02576040805162461bcd60e51b815260206004820152600a6024820152691c994b595b9d195c995960b21b604482015290519081900360640190fd5b6000805460ff19168155610f1833868686612085565b1490506000805460ff191660011790559392505050565b600080610f3c8484612311565b50949350505050565b6004546001600160a01b031681565b60035460ff1681565b6000610f6761497a565b6040518060200160405280610f7a611b3c565b90526001600160a01b0384166000908152600e6020526040812054919250908190610fa69084906123bc565b90925090506000826003811115610fb957fe5b1461100b576040805162461bcd60e51b815260206004820152601f60248201527f62616c616e636520636f756c64206e6f742062652063616c63756c6174656400604482015290519081900360640190fd5b949350505050565b600061101d612410565b905090565b6000610b9782612490565b60035460009061010090046001600160a01b0316331461105a576110536001603f612524565b9050610bae565b60055460408051623f1ee960e11b815290516001600160a01b0392831692851691627e3dd2916004808301926020929190829003018186803b15801561109f57600080fd5b505afa1580156110b3573d6000803e3d6000fd5b505050506040513d60208110156110c957600080fd5b505161111c576040805162461bcd60e51b815260206004820152601c60248201527f6d61726b6572206d6574686f642072657475726e65642066616c736500000000604482015290519081900360640190fd5b600580546001600160a01b0319166001600160a01b03858116918217909255604080519284168352602083019190915280517f7ac369dbd14fa5ea3f473ed67cc9d598964a77501540ba6751eb0b3decf5870d9281900390910190a160005b9392505050565b600b5481565b6005546001600160a01b031681565b6000805460ff166111dc576040805162461bcd60e51b815260206004820152600a6024820152691c994b595b9d195c995960b21b604482015290519081900360640190fd5b6000805460ff191681556111ee6115d1565b905080156112145761120c81601081111561120557fe5b6030612524565b915050610c67565b61121d8361258a565b9150506000805460ff19166001179055919050565b60095481565b6011546001600160a01b031681565b6001600160a01b03166000908152600e602052604090205490565b6000805460ff166112a7576040805162461bcd60e51b815260206004820152600a6024820152691c994b595b9d195c995960b21b604482015290519081900360640190fd5b6000805460ff191681556112b96115d1565b14611304576040805162461bcd60e51b81526020600482015260166024820152751858d8dc9d59481a5b9d195c995cdd0819985a5b195960521b604482015290519081900360640190fd5b50600b546000805460ff1916600117905590565b6000610b97826126bd565b600c5481565b6002805460408051602060018416156101000260001901909316849004601f81018490048402820184019092528181529291830182828015610b285780601f10610afd57610100808354040283529160200191610b28565b600080600061138f8461273e565b909250905060008260038111156113a257fe5b1461117b5760405162461bcd60e51b8152600401808060200182810382526037815260200180614bc96037913960400191505060405180910390fd5b60035461010090046001600160a01b0316331461142c5760405162461bcd60e51b8152600401808060200182810382526024815260200180614ad36024913960400191505060405180910390fd5b60095415801561143c5750600a54155b6114775760405162461bcd60e51b8152600401808060200182810382526023815260200180614af76023913960400191505060405180910390fd5b6007849055836114b85760405162461bcd60e51b8152600401808060200182810382526030815260200180614b4c6030913960400191505060405180910390fd5b60006114c38761102d565b90508015611518576040805162461bcd60e51b815260206004820152601a60248201527f73657474696e6720636f6d7074726f6c6c6572206661696c6564000000000000604482015290519081900360640190fd5b6115206127f2565b600955670de0b6b3a7640000600a55611538866127f6565b905080156115775760405162461bcd60e51b8152600401808060200182810382526022815260200180614b7c6022913960400191505060405180910390fd5b835161158a90600190602087019061498d565b50825161159e90600290602086019061498d565b50506003805460ff90921660ff199283161790556000805490911660011790555050505050565b600080610ba98361296b565b6000806115dc6127f2565b600954909150808214156115f557600092505050610cdf565b60006115ff612410565b600b54600c54600a54600654604080516315f2405360e01b815260048101879052602481018690526044810185905290519596509394929391926000926001600160a01b03909216916315f24053916064808301926020929190829003018186803b15801561166d57600080fd5b505afa158015611681573d6000803e3d6000fd5b505050506040513d602081101561169757600080fd5b5051905065048c273950008111156116f6576040805162461bcd60e51b815260206004820152601c60248201527f626f72726f772072617465206973206162737572646c79206869676800000000604482015290519081900360640190fd5b60008061170389896129ec565b9092509050600082600381111561171657fe5b14611768576040805162461bcd60e51b815260206004820152601f60248201527f636f756c64206e6f742063616c63756c61746520626c6f636b2064656c746100604482015290519081900360640190fd5b61177061497a565b60008060008061178e60405180602001604052808a81525087612a0f565b909750945060008760038111156117a157fe5b146117d3576117be600960068960038111156117b957fe5b612a77565b9e505050505050505050505050505050610cdf565b6117dd858c6123bc565b909750935060008760038111156117f057fe5b14611808576117be600960018960038111156117b957fe5b611812848c612add565b9097509250600087600381111561182557fe5b1461183d576117be600960048960038111156117b957fe5b6118586040518060200160405280600854815250858c612b03565b9097509150600087600381111561186b57fe5b14611883576117be600960058960038111156117b957fe5b61188e858a8b612b03565b909750905060008760038111156118a157fe5b146118b9576117be600960038960038111156117b957fe5b60098e9055600a819055600b839055600c829055604080518d8152602081018690528082018390526060810185905290517f4dec04e750ca11537cabcd8a9eab06494de08da3735bc8871cd41250e190bc049181900360800190a160009e50505050505050505050505050505090565b6000805460ff1661196e576040805162461bcd60e51b815260206004820152600a6024820152691c994b595b9d195c995960b21b604482015290519081900360640190fd5b6000805460ff1916815561198433338686612085565b1490506000805460ff1916600117905592915050565b600a5481565b6006546000906001600160a01b031663b81688166119bc612410565b600b54600c546008546040518563ffffffff1660e01b81526004018085815260200184815260200183815260200182815260200194505050505060206040518083038186803b158015611a0e57600080fd5b505afa158015611a22573d6000803e3d6000fd5b505050506040513d6020811015611a3857600080fd5b5051905090565b6000805460ff16611a84576040805162461bcd60e51b815260206004820152600a6024820152691c994b595b9d195c995960b21b604482015290519081900360640190fd5b6000805460ff19169055611a9a33858585612b5f565b90506000805460ff191660011790559392505050565b60035460009061010090046001600160a01b03163314611ad65761105360016045612524565b600480546001600160a01b038481166001600160a01b0319831681179093556040805191909216808252602082019390935281517fca4f2f25d0898edd99413412fb94012f9e54ec8142f9b093e7720646a95b16a9929181900390910190a1600061117b565b6000805460ff16611b81576040805162461bcd60e51b815260206004820152600a6024820152691c994b595b9d195c995960b21b604482015290519081900360640190fd5b6000805460ff19168155611b936115d1565b14611bde576040805162461bcd60e51b81526020600482015260166024820152751858d8dc9d59481a5b9d195c995cdd0819985a5b195960521b604482015290519081900360640190fd5b611be6610c7f565b90506000805460ff1916600117905590565b6001600160a01b0381166000908152600e6020526040812054819081908190818080611c238961273e565b935090506000816003811115611c3557fe5b14611c535760095b975060009650869550859450611c869350505050565b611c5b611fd6565b925090506000816003811115611c6d57fe5b14611c79576009611c3d565b5060009650919450925090505b9193509193565b6000610b9782612d3b565b6000610b9782612dba565b6001600160a01b039182166000908152600f6020908152604080832093909416825291909152205490565b6004546000906001600160a01b031633141580611ce9575033155b15611d0157611cfa60016000612524565b9050610cdf565b60038054600480546001600160a01b03818116610100818102610100600160a81b0319871617968790556001600160a01b031990931690935560408051948390048216808652929095041660208401528351909391927ff9ffabca9c8276e99321725bcb43fb076a6c66a54b7f21c4e8146d8519b417dc92908290030190a1600454604080516001600160a01b038085168252909216602083015280517fca4f2f25d0898edd99413412fb94012f9e54ec8142f9b093e7720646a95b16a99281900390910190a160009250505090565b600080611ddc6115d1565b90508015611e0257611dfa816010811115611df357fe5b6040612524565b915050610bae565b61117b836127f6565b6006546001600160a01b031681565b600080611e28858585612e34565b5095945050505050565b60035461010090046001600160a01b031681565b6006546000906001600160a01b03166315f24053611e62612410565b600b54600c546040518463ffffffff1660e01b815260040180848152602001838152602001828152602001935050505060206040518083038186803b158015611a0e57600080fd5b6000805460ff16611eef576040805162461bcd60e51b815260206004820152600a6024820152691c994b595b9d195c995960b21b604482015290519081900360640190fd5b6000805460ff19168155611f016115d1565b90508015611f1f5761120c816010811115611f1857fe5b6046612524565b61121d83612f66565b600181565b60008054819060ff16611f74576040805162461bcd60e51b815260206004820152600a6024820152691c994b595b9d195c995960b21b604482015290519081900360640190fd5b6000805460ff19168155611f866115d1565b90508015611fb157611fa4816010811115611f9d57fe5b6036612524565b925060009150611fc29050565b611fbc33338661300e565b92509250505b6000805460ff191660011790559092909150565b600d54600090819080611ff157505060075460009150612081565b6000611ffb612410565b9050600061200761497a565b600061201884600b54600c5461335c565b93509050600081600381111561202a57fe5b1461203f579550600094506120819350505050565b612049838661339a565b92509050600081600381111561205b57fe5b14612070579550600094506120819350505050565b505160009550935061208192505050565b9091565b600554604080516317b9b84b60e31b81523060048201526001600160a01b03868116602483015285811660448301526064820185905291516000938493169163bdcdc25891608480830192602092919082900301818787803b1580156120ea57600080fd5b505af11580156120fe573d6000803e3d6000fd5b505050506040513d602081101561211457600080fd5b5051905080156121335761212b6003604a83612a77565b91505061100b565b836001600160a01b0316856001600160a01b031614156121595761212b6002604b612524565b60006001600160a01b03878116908716141561217857506000196121a0565b506001600160a01b038086166000908152600f60209081526040808320938a16835292905220545b6000806000806121b085896129ec565b909450925060008460038111156121c357fe5b146121e1576121d46009604b612524565b965050505050505061100b565b6001600160a01b038a166000908152600e602052604090205461220490896129ec565b9094509150600084600381111561221757fe5b14612228576121d46009604c612524565b6001600160a01b0389166000908152600e602052604090205461224b9089612add565b9094509050600084600381111561225e57fe5b1461226f576121d46009604d612524565b6001600160a01b03808b166000908152600e6020526040808220859055918b1681522081905560001985146122c7576001600160a01b03808b166000908152600f60209081526040808320938f168352929052208390555b886001600160a01b03168a6001600160a01b0316600080516020614c3a8339815191528a6040518082815260200191505060405180910390a35060009a9950505050505050505050565b60008054819060ff16612358576040805162461bcd60e51b815260206004820152600a6024820152691c994b595b9d195c995960b21b604482015290519081900360640190fd5b6000805460ff1916815561236a6115d1565b905080156123955761238881601081111561238157fe5b6035612524565b9250600091506123a69050565b6123a033868661300e565b92509250505b6000805460ff1916600117905590939092509050565b60008060006123c961497a565b6123d38686612a0f565b909250905060008260038111156123e657fe5b146123f75750915060009050612409565b60006124028261344a565b9350935050505b9250929050565b601154604080516370a0823160e01b815230600482015290516000926001600160a01b03169182916370a0823191602480820192602092909190829003018186803b15801561245e57600080fd5b505afa158015612472573d6000803e3d6000fd5b505050506040513d602081101561248857600080fd5b505191505090565b6000805460ff166124d5576040805162461bcd60e51b815260206004820152600a6024820152691c994b595b9d195c995960b21b604482015290519081900360640190fd5b6000805460ff191681556124e76115d1565b905080156125055761120c8160108111156124fe57fe5b604e612524565b61250e83613459565b509150506000805460ff19166001179055919050565b60007f45b96fe442630264581b197e84bbada861235052c5a1aadfff9ea4e40a969aa083601081111561255357fe5b83605081111561255f57fe5b604080519283526020830191909152600082820152519081900360600190a182601081111561117b57fe5b600354600090819061010090046001600160a01b031633146125b257611dfa60016031612524565b6125ba6127f2565b600954146125ce57611dfa600a6033612524565b826125d7612410565b10156125e957611dfa600e6032612524565b600c548311156125ff57611dfa60026034612524565b50600c54828103908111156126455760405162461bcd60e51b8152600401808060200182810382526024815260200180614d4f6024913960400191505060405180910390fd5b600c8190556003546126659061010090046001600160a01b031684613541565b600354604080516101009092046001600160a01b0316825260208201859052818101839052517f3bad0c59cf2f06e7314077049f48a93578cd16f5ef92329f1dab1420a99c177e916060908290030190a1600061117b565b6000805460ff16612702576040805162461bcd60e51b815260206004820152600a6024820152691c994b595b9d195c995960b21b604482015290519081900360640190fd5b6000805460ff191681556127146115d1565b905080156127325761120c81601081111561272b57fe5b6027612524565b61121d33600085613638565b6001600160a01b0381166000908152601060205260408120805482918291829182916127755750600094508493506127ed92505050565b6127858160000154600a54613aff565b9094509250600084600381111561279857fe5b146127ad5750919350600092506127ed915050565b6127bb838260010154613b3e565b909450915060008460038111156127ce57fe5b146127e35750919350600092506127ed915050565b5060009450925050505b915091565b4390565b600354600090819061010090046001600160a01b0316331461281e57611dfa60016042612524565b6128266127f2565b6009541461283a57611dfa600a6041612524565b600660009054906101000a90046001600160a01b03169050826001600160a01b0316632191f92a6040518163ffffffff1660e01b815260040160206040518083038186803b15801561288b57600080fd5b505afa15801561289f573d6000803e3d6000fd5b505050506040513d60208110156128b557600080fd5b5051612908576040805162461bcd60e51b815260206004820152601c60248201527f6d61726b6572206d6574686f642072657475726e65642066616c736500000000604482015290519081900360640190fd5b600680546001600160a01b0319166001600160a01b03858116918217909255604080519284168352602083019190915280517fedffc32e068c7c95dfd4bdfd5c4d939a084d6b11c4199eac8436ed234d72f9269281900390910190a1600061117b565b60008054819060ff166129b2576040805162461bcd60e51b815260206004820152600a6024820152691c994b595b9d195c995960b21b604482015290519081900360640190fd5b6000805460ff191681556129c46115d1565b905080156129e257611fa48160108111156129db57fe5b601e612524565b611fbc3385613b69565b600080838311612a03575060009050818303612409565b50600390506000612409565b6000612a1961497a565b600080612a2a866000015186613aff565b90925090506000826003811115612a3d57fe5b14612a5c57506040805160208101909152600081529092509050612409565b60408051602081019091529081526000969095509350505050565b60007f45b96fe442630264581b197e84bbada861235052c5a1aadfff9ea4e40a969aa0846010811115612aa657fe5b846050811115612ab257fe5b604080519283526020830191909152818101859052519081900360600190a183601081111561100b57fe5b600080838301848110612af557600092509050612409565b506002915060009050612409565b6000806000612b1061497a565b612b1a8787612a0f565b90925090506000826003811115612b2d57fe5b14612b3e5750915060009050612b57565b612b50612b4a8261344a565b86612add565b9350935050505b935093915050565b6005546040805163d02f735160e01b81523060048201526001600160a01b038781166024830152868116604483015285811660648301526084820185905291516000938493169163d02f73519160a480830192602092919082900301818787803b158015612bcc57600080fd5b505af1158015612be0573d6000803e3d6000fd5b505050506040513d6020811015612bf657600080fd5b505190508015612c0d5761212b6003601b83612a77565b846001600160a01b0316846001600160a01b03161415612c335761212b6006601c612524565b6001600160a01b0384166000908152600e602052604081205481908190612c5a90876129ec565b90935091506000836003811115612c6d57fe5b14612c9057612c856009601a8560038111156117b957fe5b94505050505061100b565b6001600160a01b0388166000908152600e6020526040902054612cb39087612add565b90935090506000836003811115612cc657fe5b14612cde57612c85600960198560038111156117b957fe5b6001600160a01b038088166000818152600e60209081526040808320879055938c168083529184902085905583518a815293519193600080516020614c3a833981519152929081900390910190a360009998505050505050505050565b6000805460ff16612d80576040805162461bcd60e51b815260206004820152600a6024820152691c994b595b9d195c995960b21b604482015290519081900360640190fd5b6000805460ff19168155612d926115d1565b90508015612db05761120c816010811115612da957fe5b6008612524565b61121d3384613f39565b6000805460ff16612dff576040805162461bcd60e51b815260206004820152600a6024820152691c994b595b9d195c995960b21b604482015290519081900360640190fd5b6000805460ff19168155612e116115d1565b90508015612e285761120c81601081111561272b57fe5b61121d33846000613638565b60008054819060ff16612e7b576040805162461bcd60e51b815260206004820152600a6024820152691c994b595b9d195c995960b21b604482015290519081900360640190fd5b6000805460ff19168155612e8d6115d1565b90508015612eb857612eab816010811115612ea457fe5b600f612524565b925060009150612f4f9050565b836001600160a01b031663a6afed956040518163ffffffff1660e01b8152600401602060405180830381600087803b158015612ef357600080fd5b505af1158015612f07573d6000803e3d6000fd5b505050506040513d6020811015612f1d57600080fd5b505190508015612f3d57612eab816010811115612f3657fe5b6010612524565b612f49338787876141cd565b92509250505b6000805460ff191660011790559094909350915050565b60035460009061010090046001600160a01b03163314612f8c5761105360016047612524565b612f946127f2565b60095414612fa857611053600a6048612524565b670de0b6b3a7640000821115612fc45761105360026049612524565b6008805490839055604080518281526020810185905281517faaa68312e2ea9d50e16af5068410ab56e1a1fd06037b1a35664812c30f821460929181900390910190a1600061117b565b60055460408051631200453160e11b81523060048201526001600160a01b0386811660248301528581166044830152606482018590529151600093849384939116916324008a629160848082019260209290919082900301818787803b15801561307757600080fd5b505af115801561308b573d6000803e3d6000fd5b505050506040513d60208110156130a157600080fd5b5051905080156130c5576130b86003603883612a77565b925060009150612b579050565b6130cd6127f2565b600954146130e1576130b8600a6039612524565b6130e9614a0b565b6001600160a01b03861660009081526010602052604090206001015460608201526131138661273e565b608083018190526020830182600381111561312a57fe5b600381111561313557fe5b905250600090508160200151600381111561314c57fe5b146131765761316860096037836020015160038111156117b957fe5b935060009250612b57915050565b60001985141561318f5760808101516040820152613197565b604081018590525b6131a58782604001516146bf565b60e0820181905260808201516131ba916129ec565b60a08301819052602083018260038111156131d157fe5b60038111156131dc57fe5b90525060009050816020015160038111156131f357fe5b1461322f5760405162461bcd60e51b815260040180806020018281038252603a815260200180614c00603a913960400191505060405180910390fd5b61323f600b548260e001516129ec565b60c083018190526020830182600381111561325657fe5b600381111561326157fe5b905250600090508160200151600381111561327857fe5b146132b45760405162461bcd60e51b8152600401808060200182810382526031815260200180614c5a6031913960400191505060405180910390fd5b60a080820180516001600160a01b03808a16600081815260106020908152604091829020948555600a5460019095019490945560c0870151600b81905560e088015195518251948f16855294840192909252828101949094526060820192909252608081019190915290517f1a2a22cb034d26d1854bdc6666a5b91fe25efbbb5dcad3b0355478d6f5c362a1929181900390910190a160e00151600097909650945050505050565b60008060008061336c8787612add565b9092509050600082600381111561337f57fe5b146133905750915060009050612b57565b612b5081866129ec565b60006133a461497a565b6000806133b986670de0b6b3a7640000613aff565b909250905060008260038111156133cc57fe5b146133eb57506040805160208101909152600081529092509050612409565b6000806133f88388613b3e565b9092509050600082600381111561340b57fe5b1461342d57506040805160208101909152600081529094509250612409915050565b604080516020810190915290815260009890975095505050505050565b51670de0b6b3a7640000900490565b6000806000806134676127f2565b600954146134865761347b600a604f612524565b935091506127ed9050565b61349033866146bf565b905080600c54019150600c548210156134f0576040805162461bcd60e51b815260206004820181905260248201527f61646420726573657276657320756e6578706563746564206f766572666c6f77604482015290519081900360640190fd5b600c829055604080513381526020810183905280820184905290517fa91e67c5ea634cd43a12c5a482724b03de01e85ca68702a53d0c2f45cb7c1dc59181900360600190a160009350915050915091565b6011546040805163a9059cbb60e01b81526001600160a01b0385811660048301526024820185905291519190921691829163a9059cbb9160448082019260009290919082900301818387803b15801561359957600080fd5b505af11580156135ad573d6000803e3d6000fd5b5050505060003d600081146135c957602081146135d357600080fd5b60001991506135df565b60206000803e60005191505b5080613632576040805162461bcd60e51b815260206004820152601960248201527f544f4b454e5f5452414e534645525f4f55545f4641494c454400000000000000604482015290519081900360640190fd5b50505050565b6000821580613645575081155b6136805760405162461bcd60e51b8152600401808060200182810382526034815260200180614d1b6034913960400191505060405180910390fd5b613688614a51565b613690611fd6565b60408301819052602083018260038111156136a757fe5b60038111156136b257fe5b90525060009050816020015160038111156136c957fe5b146136ed576136e56009602b836020015160038111156117b957fe5b91505061117b565b831561376e57606081018490526040805160208101825290820151815261371490856123bc565b608083018190526020830182600381111561372b57fe5b600381111561373657fe5b905250600090508160200151600381111561374d57fe5b14613769576136e560096029836020015160038111156117b957fe5b6137e7565b61378a8360405180602001604052808460400151815250614909565b60608301819052602083018260038111156137a157fe5b60038111156137ac57fe5b90525060009050816020015160038111156137c357fe5b146137df576136e56009602a836020015160038111156117b957fe5b608081018390525b60055460608201516040805163eabe7d9160e01b81523060048201526001600160a01b03898116602483015260448201939093529051600093929092169163eabe7d919160648082019260209290919082900301818787803b15801561384c57600080fd5b505af1158015613860573d6000803e3d6000fd5b505050506040513d602081101561387657600080fd5b5051905080156138965761388d6003602883612a77565b9250505061117b565b61389e6127f2565b600954146138b25761388d600a602c612524565b6138c2600d5483606001516129ec565b60a08401819052602084018260038111156138d957fe5b60038111156138e457fe5b90525060009050826020015160038111156138fb57fe5b146139175761388d6009602e846020015160038111156117b957fe5b6001600160a01b0386166000908152600e6020526040902054606083015161393f91906129ec565b60c084018190526020840182600381111561395657fe5b600381111561396157fe5b905250600090508260200151600381111561397857fe5b146139945761388d6009602d846020015160038111156117b957fe5b81608001516139a1612410565b10156139b35761388d600e602f612524565b6139c1868360800151613541565b60a0820151600d5560c08201516001600160a01b0387166000818152600e6020908152604091829020939093556060850151815190815290513093600080516020614c3a833981519152928290030190a36080820151606080840151604080516001600160a01b038b168152602081019490945283810191909152517fe5b754fb1abb7f01b499791d0b820ae3b6af3424ac1c59768edb53f4ec31a9299281900390910190a160055460808301516060840151604080516351dff98960e01b81523060048201526001600160a01b038b81166024830152604482019490945260648101929092525191909216916351dff98991608480830192600092919082900301818387803b158015613ad457600080fd5b505af1158015613ae8573d6000803e3d6000fd5b5060009250613af5915050565b9695505050505050565b60008083613b1257506000905080612409565b83830283858281613b1f57fe5b0414613b3357506002915060009050612409565b600092509050612409565b60008082613b525750600190506000612409565b6000838581613b5d57fe5b04915091509250929050565b60055460408051634ef4c3e160e01b81523060048201526001600160a01b03858116602483015260448201859052915160009384938493911691634ef4c3e19160648082019260209290919082900301818787803b158015613bca57600080fd5b505af1158015613bde573d6000803e3d6000fd5b505050506040513d6020811015613bf457600080fd5b505190508015613c1857613c0b6003601f83612a77565b9250600091506124099050565b613c206127f2565b60095414613c3457613c0b600a6022612524565b613c3c614a51565b613c44611fd6565b6040830181905260208301826003811115613c5b57fe5b6003811115613c6657fe5b9052506000905081602001516003811115613c7d57fe5b14613ca757613c9960096021836020015160038111156117b957fe5b935060009250612409915050565b613cb186866146bf565b60c0820181905260408051602081018252908301518152613cd29190614909565b6060830181905260208301826003811115613ce957fe5b6003811115613cf457fe5b9052506000905081602001516003811115613d0b57fe5b14613d5d576040805162461bcd60e51b815260206004820181905260248201527f4d494e545f45584348414e47455f43414c43554c4154494f4e5f4641494c4544604482015290519081900360640190fd5b613d6d600d548260600151612add565b6080830181905260208301826003811115613d8457fe5b6003811115613d8f57fe5b9052506000905081602001516003811115613da657fe5b14613de25760405162461bcd60e51b8152600401808060200182810382526028815260200180614cf36028913960400191505060405180910390fd5b6001600160a01b0386166000908152600e60205260409020546060820151613e0a9190612add565b60a0830181905260208301826003811115613e2157fe5b6003811115613e2c57fe5b9052506000905081602001516003811115613e4357fe5b14613e7f5760405162461bcd60e51b815260040180806020018281038252602b815260200180614b9e602b913960400191505060405180910390fd5b6080810151600d5560a08101516001600160a01b0387166000818152600e60209081526040918290209390935560c084015160608086015183519485529484019190915282820193909352517f4c209b5fc8ad50758f13e2e1088ba56a560dff690a1c6fef26394f4c03821c4f929181900390910190a1606081015160408051918252516001600160a01b038816913091600080516020614c3a8339815191529181900360200190a360c001516000969095509350505050565b6005546040805163368f515360e21b81523060048201526001600160a01b0385811660248301526044820185905291516000938493169163da3d454c91606480830192602092919082900301818787803b158015613f9657600080fd5b505af1158015613faa573d6000803e3d6000fd5b505050506040513d6020811015613fc057600080fd5b505190508015613fdf57613fd76003600e83612a77565b915050610b97565b613fe76127f2565b60095414613ffa57613fd7600a80612524565b82614003612410565b101561401557613fd7600e6009612524565b61401d614a8f565b6140268561273e565b602083018190528282600381111561403a57fe5b600381111561404557fe5b905250600090508151600381111561405957fe5b1461407e5761407560096007836000015160038111156117b957fe5b92505050610b97565b61408c816020015185612add565b60408301819052828260038111156140a057fe5b60038111156140ab57fe5b90525060009050815160038111156140bf57fe5b146140db576140756009600c836000015160038111156117b957fe5b6140e7600b5485612add565b60608301819052828260038111156140fb57fe5b600381111561410657fe5b905250600090508151600381111561411a57fe5b14614136576140756009600b836000015160038111156117b957fe5b6141408585613541565b604080820180516001600160a01b03881660008181526010602090815290859020928355600a54600190930192909255606080860151600b81905593518551928352928201899052818501929092529081019190915290517f13ed6866d4e1ee6da46f845c46d7e54120883d75c5ea9a2dacc1c4ca8984ab809181900360800190a1600095945050505050565b60055460408051632fe3f38f60e11b81523060048201526001600160a01b0384811660248301528781166044830152868116606483015260848201869052915160009384938493911691635fc7e71e9160a48082019260209290919082900301818787803b15801561423e57600080fd5b505af1158015614252573d6000803e3d6000fd5b505050506040513d602081101561426857600080fd5b50519050801561428c5761427f6003601283612a77565b9250600091506146b69050565b6142946127f2565b600954146142a85761427f600a6016612524565b6142b06127f2565b846001600160a01b0316636c540baf6040518163ffffffff1660e01b815260040160206040518083038186803b1580156142e957600080fd5b505afa1580156142fd573d6000803e3d6000fd5b505050506040513d602081101561431357600080fd5b5051146143265761427f600a6011612524565b866001600160a01b0316866001600160a01b0316141561434c5761427f60066017612524565b8461435d5761427f60076015612524565b6000198514156143735761427f60076014612524565b60008061438189898961300e565b909250905081156143b1576143a282601081111561439b57fe5b6018612524565b9450600093506146b692505050565b6005546040805163c488847b60e01b81523060048201526001600160a01b038981166024830152604482018590528251600094859492169263c488847b926064808301939192829003018186803b15801561440b57600080fd5b505afa15801561441f573d6000803e3d6000fd5b505050506040513d604081101561443557600080fd5b508051602090910151909250905081156144805760405162461bcd60e51b8152600401808060200182810382526033815260200180614c8b6033913960400191505060405180910390fd5b80886001600160a01b03166370a082318c6040518263ffffffff1660e01b815260040180826001600160a01b03166001600160a01b0316815260200191505060206040518083038186803b1580156144d757600080fd5b505afa1580156144eb573d6000803e3d6000fd5b505050506040513d602081101561450157600080fd5b50511015614556576040805162461bcd60e51b815260206004820152601860248201527f4c49515549444154455f5345495a455f544f4f5f4d5543480000000000000000604482015290519081900360640190fd5b60006001600160a01b03891630141561457c57614575308d8d85612b5f565b9050614606565b6040805163b2a02ff160e01b81526001600160a01b038e811660048301528d81166024830152604482018590529151918b169163b2a02ff1916064808201926020929091908290030181600087803b1580156145d757600080fd5b505af11580156145eb573d6000803e3d6000fd5b505050506040513d602081101561460157600080fd5b505190505b8015614650576040805162461bcd60e51b81526020600482015260146024820152731d1bdad95b881cd95a5e9d5c994819985a5b195960621b604482015290519081900360640190fd5b604080516001600160a01b03808f168252808e1660208301528183018790528b1660608201526080810184905290517f298637f684da70674f26509b10f07ec2fbc77a335ab1e7d6215a4b2484d8bb529181900360a00190a16000975092955050505050505b94509492505050565b601154604080516370a0823160e01b815230600482015290516000926001600160a01b031691839183916370a08231916024808301926020929190829003018186803b15801561470e57600080fd5b505afa158015614722573d6000803e3d6000fd5b505050506040513d602081101561473857600080fd5b5051604080516323b872dd60e01b81526001600160a01b038881166004830152306024830152604482018890529151929350908416916323b872dd9160648082019260009290919082900301818387803b15801561479557600080fd5b505af11580156147a9573d6000803e3d6000fd5b5050505060003d600081146147c557602081146147cf57600080fd5b60001991506147db565b60206000803e60005191505b508061482e576040805162461bcd60e51b815260206004820152601860248201527f544f4b454e5f5452414e534645525f494e5f4641494c45440000000000000000604482015290519081900360640190fd5b601154604080516370a0823160e01b815230600482015290516000926001600160a01b0316916370a08231916024808301926020929190829003018186803b15801561487957600080fd5b505afa15801561488d573d6000803e3d6000fd5b505050506040513d60208110156148a357600080fd5b50519050828110156148fc576040805162461bcd60e51b815260206004820152601a60248201527f544f4b454e5f5452414e534645525f494e5f4f564552464c4f57000000000000604482015290519081900360640190fd5b9190910395945050505050565b600080600061491661497a565b6123d38686600061492561497a565b60008061493a670de0b6b3a764000087613aff565b9092509050600082600381111561494d57fe5b1461496c57506040805160208101909152600081529092509050612409565b61240281866000015161339a565b6040518060200160405280600081525090565b828054600181600116156101000203166002900490600052602060002090601f016020900481019282601f106149ce57805160ff19168380011785556149fb565b828001600101855582156149fb579182015b828111156149fb5782518255916020019190600101906149e0565b50614a07929150614ab8565b5090565b6040805161010081019091528060008152602001600081526020016000815260200160008152602001600081526020016000815260200160008152602001600081525090565b6040805160e0810190915280600081526020016000815260200160008152602001600081526020016000815260200160008152602001600081525090565b604080516080810190915280600081526020016000815260200160008152602001600081525090565b610cdf91905b80821115614a075760008155600101614abe56fe6f6e6c792061646d696e206d617920696e697469616c697a6520746865206d61726b65746d61726b6574206d6179206f6e6c7920626520696e697469616c697a6564206f6e63654345726332303a3a7377656570546f6b656e3a2063616e206e6f7420737765657020756e6465726c79696e6720746f6b656e696e697469616c2065786368616e67652072617465206d7573742062652067726561746572207468616e207a65726f2e73657474696e6720696e7465726573742072617465206d6f64656c206661696c65644d494e545f4e45575f4143434f554e545f42414c414e43455f43414c43554c4154494f4e5f4641494c4544626f72726f7742616c616e636553746f7265643a20626f72726f7742616c616e636553746f726564496e7465726e616c206661696c656452455041595f424f52524f575f4e45575f4143434f554e545f424f52524f575f42414c414e43455f43414c43554c4154494f4e5f4641494c4544ddf252ad1be2c89b69c2b068fc378daa952ba7f163c4a11628f55a4df523b3ef52455041595f424f52524f575f4e45575f544f54414c5f42414c414e43455f43414c43554c4154494f4e5f4641494c45444c49515549444154455f434f4d5054524f4c4c45525f43414c43554c4154455f414d4f554e545f5345495a455f4641494c454465786368616e67655261746553746f7265643a2065786368616e67655261746553746f726564496e7465726e616c206661696c65644d494e545f4e45575f544f54414c5f535550504c595f43414c43554c4154494f4e5f4641494c45446f6e65206f662072656465656d546f6b656e73496e206f722072656465656d416d6f756e74496e206d757374206265207a65726f72656475636520726573657276657320756e657870656374656420756e646572666c6f77a265627a7a72315820e426e7b2f118ae74a3afc95d819707d93bafe4b5bd161be05cba606a4c5f73b564736f6c63430005100032",
  "linkReferences": {},
  "deployedLinkReferences": {}
}