{
  "_format": "hh-sol-artifact-1",
  "contractName": "LERC20",
  "sourceName": "contracts/Lend/token/LERC20.sol",
  "abi": [
    {
      "anonymous": false,
      "inputs": [
        {
          "indexed": false,
          "internalType": "uint256",
          "name": "cashPrior",
          "type": "uint256"
        },
        {
          "indexed": false,
          "internalType": "uint256",
          "name": "interestAccumulated",
          "type": "uint256"
        },
        {
          "indexed": false,
          "internalType": "uint256",
          "name": "borrowIndex",
          "type": "uint256"
        },
        {
          "indexed": false,
          "internalType": "uint256",
          "name": "totalBorrows",
          "type": "uint256"
        },
        {
          "indexed": false,
          "internalType": "uint256",
          "name": "totalReserves",
          "type": "uint256"
        }
      ],
      "name": "AccrueInterest",
      "type": "event"
    },
    {
      "anonymous": false,
      "inputs": [
        {
          "indexed": true,
          "internalType": "address",
          "name": "owner",
          "type": "address"
        },
        {
          "indexed": true,
          "internalType": "address",
          "name": "spender",
          "type": "address"
        },
        {
          "indexed": false,
          "internalType": "uint256",
          "name": "amount",
          "type": "uint256"
        }
      ],
      "name": "Approval",
      "type": "event"
    },
    {
      "anonymous": false,
      "inputs": [
        {
          "indexed": false,
          "internalType": "address",
          "name": "borrower",
          "type": "address"
        },
        {
          "indexed": false,
          "internalType": "uint256",
          "name": "borrowAmount",
          "type": "uint256"
        },
        {
          "indexed": false,
          "internalType": "uint256",
          "name": "accountBorrows",
          "type": "uint256"
        },
        {
          "indexed": false,
          "internalType": "uint256",
          "name": "totalBorrows",
          "type": "uint256"
        },
        {
          "indexed": false,
          "internalType": "uint256",
          "name": "interestBalancePrior",
          "type": "uint256"
        }
      ],
      "name": "Borrow",
      "type": "event"
    },
    {
      "anonymous": false,
      "inputs": [
        {
          "indexed": false,
          "internalType": "uint256",
          "name": "error",
          "type": "uint256"
        },
        {
          "indexed": false,
          "internalType": "uint256",
          "name": "info",
          "type": "uint256"
        },
        {
          "indexed": false,
          "internalType": "uint256",
          "name": "detail",
          "type": "uint256"
        }
      ],
      "name": "Failure",
      "type": "event"
    },
    {
      "anonymous": false,
      "inputs": [
        {
          "indexed": false,
          "internalType": "address",
          "name": "liquidator",
          "type": "address"
        },
        {
          "indexed": false,
          "internalType": "address",
          "name": "borrower",
          "type": "address"
        },
        {
          "indexed": false,
          "internalType": "uint256",
          "name": "repayAmount",
          "type": "uint256"
        },
        {
          "indexed": false,
          "internalType": "address",
          "name": "lTokenCollateral",
          "type": "address"
        },
        {
          "indexed": false,
          "internalType": "uint256",
          "name": "seizeTokens",
          "type": "uint256"
        }
      ],
      "name": "LiquidateBorrow",
      "type": "event"
    },
    {
      "anonymous": false,
      "inputs": [
        {
          "indexed": false,
          "internalType": "address",
          "name": "minter",
          "type": "address"
        },
        {
          "indexed": false,
          "internalType": "uint256",
          "name": "mintAmount",
          "type": "uint256"
        },
        {
          "indexed": false,
          "internalType": "uint256",
          "name": "mintTokens",
          "type": "uint256"
        },
        {
          "indexed": false,
          "internalType": "uint256",
          "name": "totalSupply",
          "type": "uint256"
        },
        {
          "indexed": false,
          "internalType": "uint256",
          "name": "accountTokens",
          "type": "uint256"
        }
      ],
      "name": "Mint",
      "type": "event"
    },
    {
      "anonymous": false,
      "inputs": [
        {
          "indexed": false,
          "internalType": "contract IComptroller",
          "name": "oldComptroller",
          "type": "address"
        },
        {
          "indexed": false,
          "internalType": "contract IComptroller",
          "name": "newComptroller",
          "type": "address"
        }
      ],
      "name": "NewComptroller",
      "type": "event"
    },
    {
      "anonymous": false,
      "inputs": [
        {
          "indexed": false,
          "internalType": "contract IInterestRateModel",
          "name": "oldInterestRateModel",
          "type": "address"
        },
        {
          "indexed": false,
          "internalType": "contract IInterestRateModel",
          "name": "newInterestRateModel",
          "type": "address"
        }
      ],
      "name": "NewMarketInterestRateModel",
      "type": "event"
    },
    {
      "anonymous": false,
      "inputs": [
        {
          "indexed": false,
          "internalType": "address",
          "name": "oldMigrator",
          "type": "address"
        },
        {
          "indexed": false,
          "internalType": "address",
          "name": "newMigrator",
          "type": "address"
        }
      ],
      "name": "NewMigrator",
      "type": "event"
    },
    {
      "anonymous": false,
      "inputs": [
        {
          "indexed": false,
          "internalType": "uint256",
          "name": "oldMinInterestAccumulated",
          "type": "uint256"
        },
        {
          "indexed": false,
          "internalType": "uint256",
          "name": "newMinInterestAccumulated",
          "type": "uint256"
        }
      ],
      "name": "NewMinInterestAccumulated",
      "type": "event"
    },
    {
      "anonymous": false,
      "inputs": [
        {
          "indexed": false,
          "internalType": "uint256",
          "name": "oldReserveFactorMantissa",
          "type": "uint256"
        },
        {
          "indexed": false,
          "internalType": "uint256",
          "name": "newReserveFactorMantissa",
          "type": "uint256"
        }
      ],
      "name": "NewReserveFactor",
      "type": "event"
    },
    {
      "anonymous": false,
      "inputs": [
        {
          "indexed": true,
          "internalType": "address",
          "name": "previousOwner",
          "type": "address"
        },
        {
          "indexed": true,
          "internalType": "address",
          "name": "newOwner",
          "type": "address"
        }
      ],
      "name": "OwnershipTransferred",
      "type": "event"
    },
    {
      "anonymous": false,
      "inputs": [
        {
          "indexed": false,
          "internalType": "address",
          "name": "redeemer",
          "type": "address"
        },
        {
          "indexed": false,
          "internalType": "uint256",
          "name": "redeemAmount",
          "type": "uint256"
        },
        {
          "indexed": false,
          "internalType": "uint256",
          "name": "redeemTokens",
          "type": "uint256"
        },
        {
          "indexed": false,
          "internalType": "uint256",
          "name": "totalSupply",
          "type": "uint256"
        },
        {
          "indexed": false,
          "internalType": "uint256",
          "name": "accountTokens",
          "type": "uint256"
        }
      ],
      "name": "Redeem",
      "type": "event"
    },
    {
      "anonymous": false,
      "inputs": [
        {
          "indexed": false,
          "internalType": "address",
          "name": "payer",
          "type": "address"
        },
        {
          "indexed": false,
          "internalType": "address",
          "name": "borrower",
          "type": "address"
        },
        {
          "indexed": false,
          "internalType": "uint256",
          "name": "repayAmount",
          "type": "uint256"
        },
        {
          "indexed": false,
          "internalType": "uint256",
          "name": "accountBorrows",
          "type": "uint256"
        },
        {
          "indexed": false,
          "internalType": "uint256",
          "name": "totalBorrows",
          "type": "uint256"
        },
        {
          "indexed": false,
          "internalType": "uint256",
          "name": "interestBalancePrior",
          "type": "uint256"
        }
      ],
      "name": "RepayBorrow",
      "type": "event"
    },
    {
      "anonymous": false,
      "inputs": [
        {
          "indexed": false,
          "internalType": "address",
          "name": "benefactor",
          "type": "address"
        },
        {
          "indexed": false,
          "internalType": "uint256",
          "name": "addAmount",
          "type": "uint256"
        },
        {
          "indexed": false,
          "internalType": "uint256",
          "name": "newTotalReserves",
          "type": "uint256"
        }
      ],
      "name": "ReservesAdded",
      "type": "event"
    },
    {
      "anonymous": false,
      "inputs": [
        {
          "indexed": false,
          "internalType": "address",
          "name": "admin",
          "type": "address"
        },
        {
          "indexed": false,
          "internalType": "uint256",
          "name": "reduceAmount",
          "type": "uint256"
        },
        {
          "indexed": false,
          "internalType": "uint256",
          "name": "newTotalReserves",
          "type": "uint256"
        }
      ],
      "name": "ReservesReduced",
      "type": "event"
    },
    {
      "anonymous": false,
      "inputs": [
        {
          "indexed": true,
          "internalType": "address",
          "name": "from",
          "type": "address"
        },
        {
          "indexed": true,
          "internalType": "address",
          "name": "to",
          "type": "address"
        },
        {
          "indexed": false,
          "internalType": "uint256",
          "name": "amount",
          "type": "uint256"
        }
      ],
      "name": "Transfer",
      "type": "event"
    },
    {
      "inputs": [
        {
          "internalType": "uint256",
          "name": "addAmount",
          "type": "uint256"
        }
      ],
      "name": "_addReserves",
      "outputs": [
        {
          "internalType": "uint256",
          "name": "",
          "type": "uint256"
        }
      ],
      "stateMutability": "nonpayable",
      "type": "function"
    },
    {
      "inputs": [
        {
          "internalType": "uint256",
          "name": "reduceAmount",
          "type": "uint256"
        }
      ],
      "name": "_reduceReserves",
      "outputs": [
        {
          "internalType": "uint256",
          "name": "",
          "type": "uint256"
        }
      ],
      "stateMutability": "nonpayable",
      "type": "function"
    },
    {
      "inputs": [
        {
          "internalType": "contract IComptroller",
          "name": "newComptroller",
          "type": "address"
        }
      ],
      "name": "_setComptroller",
      "outputs": [
        {
          "internalType": "uint256",
          "name": "",
          "type": "uint256"
        }
      ],
      "stateMutability": "nonpayable",
      "type": "function"
    },
    {
      "inputs": [
        {
          "internalType": "address",
          "name": "_flashloan",
          "type": "address"
        }
      ],
      "name": "_setFlashloan",
      "outputs": [],
      "stateMutability": "nonpayable",
      "type": "function"
    },
    {
      "inputs": [
        {
          "internalType": "contract IInterestRateModel",
          "name": "newInterestRateModel",
          "type": "address"
        }
      ],
      "name": "_setInterestRateModel",
      "outputs": [
        {
          "internalType": "uint256",
          "name": "",
          "type": "uint256"
        }
      ],
      "stateMutability": "nonpayable",
      "type": "function"
    },
    {
      "inputs": [
        {
          "internalType": "address",
          "name": "newMigrator",
          "type": "address"
        }
      ],
      "name": "_setMigrator",
      "outputs": [
        {
          "internalType": "uint256",
          "name": "",
          "type": "uint256"
        }
      ],
      "stateMutability": "nonpayable",
      "type": "function"
    },
    {
      "inputs": [
        {
          "internalType": "uint256",
          "name": "_minInterestAccumulated",
          "type": "uint256"
        }
      ],
      "name": "_setMinInterestAccumulated",
      "outputs": [
        {
          "internalType": "uint256",
          "name": "",
          "type": "uint256"
        }
      ],
      "stateMutability": "nonpayable",
      "type": "function"
    },
    {
      "inputs": [
        {
          "internalType": "uint256",
          "name": "newReserveFactorMantissa",
          "type": "uint256"
        }
      ],
      "name": "_setReserveFactor",
      "outputs": [
        {
          "internalType": "uint256",
          "name": "",
          "type": "uint256"
        }
      ],
      "stateMutability": "nonpayable",
      "type": "function"
    },
    {
      "inputs": [],
      "name": "accrualBlockNumber",
      "outputs": [
        {
          "internalType": "uint256",
          "name": "",
          "type": "uint256"
        }
      ],
      "stateMutability": "view",
      "type": "function"
    },
    {
      "inputs": [],
      "name": "accrueInterest",
      "outputs": [
        {
          "internalType": "uint256",
          "name": "",
          "type": "uint256"
        }
      ],
      "stateMutability": "nonpayable",
      "type": "function"
    },
    {
      "inputs": [],
      "name": "accrueInterestSnapshot",
      "outputs": [
        {
          "internalType": "uint256[]",
          "name": "",
          "type": "uint256[]"
        }
      ],
      "stateMutability": "view",
      "type": "function"
    },
    {
      "inputs": [
        {
          "internalType": "address",
          "name": "owner",
          "type": "address"
        },
        {
          "internalType": "address",
          "name": "spender",
          "type": "address"
        }
      ],
      "name": "allowance",
      "outputs": [
        {
          "internalType": "uint256",
          "name": "",
          "type": "uint256"
        }
      ],
      "stateMutability": "view",
      "type": "function"
    },
    {
      "inputs": [
        {
          "internalType": "address",
          "name": "spender",
          "type": "address"
        },
        {
          "internalType": "uint256",
          "name": "amount",
          "type": "uint256"
        }
      ],
      "name": "approve",
      "outputs": [
        {
          "internalType": "bool",
          "name": "",
          "type": "bool"
        }
      ],
      "stateMutability": "nonpayable",
      "type": "function"
    },
    {
      "inputs": [
        {
          "internalType": "address",
          "name": "owner",
          "type": "address"
        }
      ],
      "name": "balanceOf",
      "outputs": [
        {
          "internalType": "uint256",
          "name": "",
          "type": "uint256"
        }
      ],
      "stateMutability": "view",
      "type": "function"
    },
    {
      "inputs": [
        {
          "internalType": "address",
          "name": "owner",
          "type": "address"
        }
      ],
      "name": "balanceOfUnderlying",
      "outputs": [
        {
          "internalType": "uint256",
          "name": "",
          "type": "uint256"
        }
      ],
      "stateMutability": "nonpayable",
      "type": "function"
    },
    {
      "inputs": [
        {
          "internalType": "uint256",
          "name": "borrowAmount",
          "type": "uint256"
        }
      ],
      "name": "borrow",
      "outputs": [
        {
          "internalType": "uint256",
          "name": "",
          "type": "uint256"
        }
      ],
      "stateMutability": "nonpayable",
      "type": "function"
    },
    {
      "inputs": [
        {
          "internalType": "address",
          "name": "account",
          "type": "address"
        }
      ],
      "name": "borrowBalanceCurrent",
      "outputs": [
        {
          "internalType": "uint256",
          "name": "",
          "type": "uint256"
        }
      ],
      "stateMutability": "nonpayable",
      "type": "function"
    },
    {
      "inputs": [
        {
          "internalType": "address",
          "name": "account",
          "type": "address"
        }
      ],
      "name": "borrowBalanceStored",
      "outputs": [
        {
          "internalType": "uint256",
          "name": "",
          "type": "uint256"
        }
      ],
      "stateMutability": "view",
      "type": "function"
    },
    {
      "inputs": [],
      "name": "borrowIndex",
      "outputs": [
        {
          "internalType": "uint256",
          "name": "",
          "type": "uint256"
        }
      ],
      "stateMutability": "view",
      "type": "function"
    },
    {
      "inputs": [],
      "name": "borrowRatePerBlock",
      "outputs": [
        {
          "internalType": "uint256",
          "name": "",
          "type": "uint256"
        }
      ],
      "stateMutability": "view",
      "type": "function"
    },
    {
      "inputs": [],
      "name": "comptroller",
      "outputs": [
        {
          "internalType": "contract IComptroller",
          "name": "",
          "type": "address"
        }
      ],
      "stateMutability": "view",
      "type": "function"
    },
    {
      "inputs": [],
      "name": "decimals",
      "outputs": [
        {
          "internalType": "uint8",
          "name": "",
          "type": "uint8"
        }
      ],
      "stateMutability": "view",
      "type": "function"
    },
    {
      "inputs": [],
      "name": "exchangeRateCurrent",
      "outputs": [
        {
          "internalType": "uint256",
          "name": "",
          "type": "uint256"
        }
      ],
      "stateMutability": "nonpayable",
      "type": "function"
    },
    {
      "inputs": [],
      "name": "exchangeRateStored",
      "outputs": [
        {
          "internalType": "uint256",
          "name": "",
          "type": "uint256"
        }
      ],
      "stateMutability": "view",
      "type": "function"
    },
    {
      "inputs": [
        {
          "internalType": "address",
          "name": "_receiver",
          "type": "address"
        },
        {
          "internalType": "uint256",
          "name": "_amount",
          "type": "uint256"
        },
        {
          "internalType": "bytes",
          "name": "_params",
          "type": "bytes"
        }
      ],
      "name": "flashloan",
      "outputs": [],
      "stateMutability": "nonpayable",
      "type": "function"
    },
    {
      "inputs": [],
      "name": "flashloanInstance",
      "outputs": [
        {
          "internalType": "contract IFlashloan",
          "name": "",
          "type": "address"
        }
      ],
      "stateMutability": "view",
      "type": "function"
    },
    {
      "inputs": [
        {
          "internalType": "address",
          "name": "account",
          "type": "address"
        }
      ],
      "name": "getAccountSnapshot",
      "outputs": [
        {
          "internalType": "uint256",
          "name": "",
          "type": "uint256"
        },
        {
          "internalType": "uint256",
          "name": "",
          "type": "uint256"
        },
        {
          "internalType": "uint256",
          "name": "",
          "type": "uint256"
        },
        {
          "internalType": "uint256",
          "name": "",
          "type": "uint256"
        }
      ],
      "stateMutability": "view",
      "type": "function"
    },
    {
      "inputs": [],
      "name": "getCash",
      "outputs": [
        {
          "internalType": "uint256",
          "name": "",
          "type": "uint256"
        }
      ],
      "stateMutability": "view",
      "type": "function"
    },
    {
      "inputs": [
        {
          "internalType": "contract IComptroller",
          "name": "comptroller_",
          "type": "address"
        },
        {
          "internalType": "contract IInterestRateModel",
          "name": "interestRateModel_",
          "type": "address"
        },
        {
          "internalType": "uint256",
          "name": "initialExchangeRateMantissa_",
          "type": "uint256"
        },
        {
          "internalType": "string",
          "name": "name_",
          "type": "string"
        },
        {
          "internalType": "string",
          "name": "symbol_",
          "type": "string"
        },
        {
          "internalType": "uint8",
          "name": "decimals_",
          "type": "uint8"
        }
      ],
      "name": "init",
      "outputs": [],
      "stateMutability": "nonpayable",
      "type": "function"
    },
    {
      "inputs": [
        {
          "internalType": "address",
          "name": "underlying_",
          "type": "address"
        },
        {
          "internalType": "contract IComptroller",
          "name": "comptroller_",
          "type": "address"
        },
        {
          "internalType": "contract IInterestRateModel",
          "name": "interestRateModel_",
          "type": "address"
        },
        {
          "internalType": "uint256",
          "name": "initialExchangeRateMantissa_",
          "type": "uint256"
        },
        {
          "internalType": "string",
          "name": "name_",
          "type": "string"
        },
        {
          "internalType": "string",
          "name": "symbol_",
          "type": "string"
        },
        {
          "internalType": "uint8",
          "name": "decimals_",
          "type": "uint8"
        }
      ],
      "name": "initialize",
      "outputs": [],
      "stateMutability": "nonpayable",
      "type": "function"
    },
    {
      "inputs": [],
      "name": "interestRateModel",
      "outputs": [
        {
          "internalType": "contract IInterestRateModel",
          "name": "",
          "type": "address"
        }
      ],
      "stateMutability": "view",
      "type": "function"
    },
    {
      "inputs": [],
      "name": "isLToken",
      "outputs": [
        {
          "internalType": "bool",
          "name": "",
          "type": "bool"
        }
      ],
      "stateMutability": "view",
      "type": "function"
    },
    {
      "inputs": [
        {
          "internalType": "address",
          "name": "borrower",
          "type": "address"
        },
        {
          "internalType": "uint256",
          "name": "repayAmount",
          "type": "uint256"
        },
        {
          "internalType": "contract ILToken",
          "name": "cTokenCollateral",
          "type": "address"
        }
      ],
      "name": "liquidateBorrow",
      "outputs": [
        {
          "internalType": "uint256",
          "name": "",
          "type": "uint256"
        }
      ],
      "stateMutability": "nonpayable",
      "type": "function"
    },
    {
      "inputs": [],
      "name": "migrator",
      "outputs": [
        {
          "internalType": "address",
          "name": "",
          "type": "address"
        }
      ],
      "stateMutability": "view",
      "type": "function"
    },
    {
      "inputs": [],
      "name": "minInterestAccumulated",
      "outputs": [
        {
          "internalType": "uint256",
          "name": "",
          "type": "uint256"
        }
      ],
      "stateMutability": "view",
      "type": "function"
    },
    {
      "inputs": [
        {
          "internalType": "uint256",
          "name": "mintAmount",
          "type": "uint256"
        }
      ],
      "name": "mint",
      "outputs": [
        {
          "internalType": "uint256",
          "name": "",
          "type": "uint256"
        }
      ],
      "stateMutability": "nonpayable",
      "type": "function"
    },
    {
      "inputs": [
        {
          "internalType": "uint256",
          "name": "mintAmount",
          "type": "uint256"
        },
        {
          "internalType": "uint256",
          "name": "mintTokens",
          "type": "uint256"
        }
      ],
      "name": "mintForMigrate",
      "outputs": [
        {
          "internalType": "uint256",
          "name": "",
          "type": "uint256"
        }
      ],
      "stateMutability": "nonpayable",
      "type": "function"
    },
    {
      "inputs": [],
      "name": "name",
      "outputs": [
        {
          "internalType": "string",
          "name": "",
          "type": "string"
        }
      ],
      "stateMutability": "view",
      "type": "function"
    },
    {
      "inputs": [],
      "name": "owner",
      "outputs": [
        {
          "internalType": "address",
          "name": "",
          "type": "address"
        }
      ],
      "stateMutability": "view",
      "type": "function"
    },
    {
      "inputs": [
        {
          "internalType": "uint256",
          "name": "redeemTokens",
          "type": "uint256"
        }
      ],
      "name": "redeem",
      "outputs": [
        {
          "internalType": "uint256",
          "name": "",
          "type": "uint256"
        }
      ],
      "stateMutability": "nonpayable",
      "type": "function"
    },
    {
      "inputs": [
        {
          "internalType": "uint256",
          "name": "redeemAmount",
          "type": "uint256"
        }
      ],
      "name": "redeemUnderlying",
      "outputs": [
        {
          "internalType": "uint256",
          "name": "",
          "type": "uint256"
        }
      ],
      "stateMutability": "nonpayable",
      "type": "function"
    },
    {
      "inputs": [],
      "name": "renounceOwnership",
      "outputs": [],
      "stateMutability": "nonpayable",
      "type": "function"
    },
    {
      "inputs": [
        {
          "internalType": "uint256",
          "name": "repayAmount",
          "type": "uint256"
        }
      ],
      "name": "repayBorrow",
      "outputs": [
        {
          "internalType": "uint256",
          "name": "",
          "type": "uint256"
        }
      ],
      "stateMutability": "nonpayable",
      "type": "function"
    },
    {
      "inputs": [
        {
          "internalType": "address",
          "name": "borrower",
          "type": "address"
        },
        {
          "internalType": "uint256",
          "name": "repayAmount",
          "type": "uint256"
        }
      ],
      "name": "repayBorrowBehalf",
      "outputs": [
        {
          "internalType": "uint256",
          "name": "",
          "type": "uint256"
        }
      ],
      "stateMutability": "nonpayable",
      "type": "function"
    },
    {
      "inputs": [],
      "name": "reserveFactorMantissa",
      "outputs": [
        {
          "internalType": "uint256",
          "name": "",
          "type": "uint256"
        }
      ],
      "stateMutability": "view",
      "type": "function"
    },
    {
      "inputs": [
        {
          "internalType": "address",
          "name": "liquidator",
          "type": "address"
        },
        {
          "internalType": "address",
          "name": "borrower",
          "type": "address"
        },
        {
          "internalType": "uint256",
          "name": "seizeTokens",
          "type": "uint256"
        }
      ],
      "name": "seize",
      "outputs": [
        {
          "internalType": "uint256",
          "name": "",
          "type": "uint256"
        }
      ],
      "stateMutability": "nonpayable",
      "type": "function"
    },
    {
      "inputs": [],
      "name": "supplyRatePerBlock",
      "outputs": [
        {
          "internalType": "uint256",
          "name": "",
          "type": "uint256"
        }
      ],
      "stateMutability": "view",
      "type": "function"
    },
    {
      "inputs": [],
      "name": "symbol",
      "outputs": [
        {
          "internalType": "string",
          "name": "",
          "type": "string"
        }
      ],
      "stateMutability": "view",
      "type": "function"
    },
    {
      "inputs": [],
      "name": "totalBorrows",
      "outputs": [
        {
          "internalType": "uint256",
          "name": "",
          "type": "uint256"
        }
      ],
      "stateMutability": "view",
      "type": "function"
    },
    {
      "inputs": [],
      "name": "totalBorrowsCurrent",
      "outputs": [
        {
          "internalType": "uint256",
          "name": "",
          "type": "uint256"
        }
      ],
      "stateMutability": "nonpayable",
      "type": "function"
    },
    {
      "inputs": [],
      "name": "totalReserves",
      "outputs": [
        {
          "internalType": "uint256",
          "name": "",
          "type": "uint256"
        }
      ],
      "stateMutability": "view",
      "type": "function"
    },
    {
      "inputs": [],
      "name": "totalSupply",
      "outputs": [
        {
          "internalType": "uint256",
          "name": "",
          "type": "uint256"
        }
      ],
      "stateMutability": "view",
      "type": "function"
    },
    {
      "inputs": [
        {
          "internalType": "address",
          "name": "dst",
          "type": "address"
        },
        {
          "internalType": "uint256",
          "name": "amount",
          "type": "uint256"
        }
      ],
      "name": "transfer",
      "outputs": [
        {
          "internalType": "bool",
          "name": "",
          "type": "bool"
        }
      ],
      "stateMutability": "nonpayable",
      "type": "function"
    },
    {
      "inputs": [
        {
          "internalType": "address",
          "name": "src",
          "type": "address"
        },
        {
          "internalType": "address",
          "name": "dst",
          "type": "address"
        },
        {
          "internalType": "uint256",
          "name": "amount",
          "type": "uint256"
        }
      ],
      "name": "transferFrom",
      "outputs": [
        {
          "internalType": "bool",
          "name": "",
          "type": "bool"
        }
      ],
      "stateMutability": "nonpayable",
      "type": "function"
    },
    {
      "inputs": [
        {
          "internalType": "address",
          "name": "newOwner",
          "type": "address"
        }
      ],
      "name": "transferOwnership",
      "outputs": [],
      "stateMutability": "nonpayable",
      "type": "function"
    },
    {
      "inputs": [],
      "name": "underlying",
      "outputs": [
        {
          "internalType": "address",
          "name": "",
          "type": "address"
        }
      ],
      "stateMutability": "view",
      "type": "function"
    }
  ],
  "bytecode": "0x608060405234801561001057600080fd5b50615fed80620000216000396000f3fe608060405234801561001057600080fd5b50600436106103785760003560e01c8063852a12e3116101d3578063c23d91bd11610104578063f2fde38b116100a2578063f71e6e921161007c578063f71e6e9214610c9d578063f8f9da2814610ca5578063fca7820b14610cad578063fe17b28f14610cca57610378565b8063f2fde38b14610c39578063f3fdb15a14610c5f578063f5e3c46214610c6757610378565b8063db006a75116100de578063db006a7514610bc0578063dd62ed3e14610bdd578063e228bb4314610c0b578063f2b3abbd14610c1357610378565b8063c23d91bd14610aff578063c37f68e214610b57578063c5ebeaec14610ba357610378565b8063a6afed9511610171578063ae9d70b01161014b578063ae9d70b014610ab1578063b2a02ff114610ab9578063b9ebb89814610aef578063bd6d894d14610af757610378565b8063a6afed9514610a75578063a9059cbb14610a7d578063aa5af0fd14610aa957610378565b806394d6c574116101ad57806394d6c574146108dc57806395d89b4114610a2a57806395dd919314610a32578063a0712d6814610a5857610378565b8063852a12e3146108af5780638da5cb5b146108cc5780638f840ddd146108d457610378565b80633b1d21a2116102ad5780636c540baf1161024b578063715018a611610225578063715018a61461087457806373acee981461087c578063791d8915146108845780637cd07e47146108a757610378565b80636c540baf1461083e5780636f307dc31461084657806370a082311461084e57610378565b806347bd37181161028757806347bd3718146107cf57806347dfe70d146107d75780635fe3b567146107fd578063601a0bf11461082157610378565b80633b1d21a2146107845780633e9410101461078c5780634576b5db146107a957610378565b8063182df0f51161031a5780632608f818116102f45780632608f818146106ee578063313ce5671461071a57806337050117146107385780633af9e6691461075e57610378565b8063182df0f51461055a5780631a31d4651461056257806323b872dd146106b857610378565b80630e752702116103565780630e752702146104f5578063173b99041461052457806317bfdfbc1461052c57806318160ddd1461055257610378565b806306fdde031461037d578063095ea7b3146103fa5780630c5c9fa81461043a575b600080fd5b610385610ce7565b6040805160208082528351818301528351919283929083019185019080838360005b838110156103bf5781810151838201526020016103a7565b50505050905090810190601f1680156103ec5780820380516001836020036101000a031916815260200191505b509250505060405180910390f35b6104266004803603604081101561041057600080fd5b506001600160a01b038135169060200135610d74565b604080519115158252519081900360200190f35b6104f36004803603606081101561045057600080fd5b6001600160a01b0382351691602081013591810190606081016040820135600160201b81111561047f57600080fd5b82018360208201111561049157600080fd5b803590602001918460018302840111600160201b831117156104b257600080fd5b91908080601f016020809104026020016040519081016040528093929190818152602001838380828437600092019190915250929550610de1945050505050565b005b6105126004803603602081101561050b57600080fd5b5035610fad565b60408051918252519081900360200190f35b610512610fc3565b6105126004803603602081101561054257600080fd5b50356001600160a01b0316610fc9565b610512611089565b61051261108f565b6104f3600480360360e081101561057857600080fd5b6001600160a01b03823581169260208101358216926040820135909216916060820135919081019060a081016080820135600160201b8111156105ba57600080fd5b8201836020820111156105cc57600080fd5b803590602001918460018302840111600160201b831117156105ed57600080fd5b91908080601f0160208091040260200160405190810160405280939291908181526020018383808284376000920191909152509295949360208101935035915050600160201b81111561063f57600080fd5b82018360208201111561065157600080fd5b803590602001918460018302840111600160201b8311171561067257600080fd5b91908080601f0160208091040260200160405190810160405280939291908181526020018383808284376000920191909152509295505050903560ff1691506110f29050565b610426600480360360608110156106ce57600080fd5b506001600160a01b03813581169160208101359091169060400135611239565b6105126004803603604081101561070457600080fd5b506001600160a01b0381351690602001356112ab565b6107226112c1565b6040805160ff9092168252519081900360200190f35b6104f36004803603602081101561074e57600080fd5b50356001600160a01b03166112ca565b6105126004803603602081101561077457600080fd5b50356001600160a01b0316611344565b6105126113fa565b610512600480360360208110156107a257600080fd5b5035611409565b610512600480360360208110156107bf57600080fd5b50356001600160a01b0316611414565b6105126114e1565b610512600480360360208110156107ed57600080fd5b50356001600160a01b03166114e7565b6108056115a7565b604080516001600160a01b039092168252519081900360200190f35b6105126004803603602081101561083757600080fd5b50356115bb565b610512611656565b61080561165c565b6105126004803603602081101561086457600080fd5b50356001600160a01b031661166b565b6104f3611686565b610512611728565b6105126004803603604081101561089a57600080fd5b50803590602001356117de565b6108056117eb565b610512600480360360208110156108c557600080fd5b50356117fa565b610805611805565b610512611814565b6104f3600480360360c08110156108f257600080fd5b6001600160a01b03823581169260208101359091169160408201359190810190608081016060820135600160201b81111561092c57600080fd5b82018360208201111561093e57600080fd5b803590602001918460018302840111600160201b8311171561095f57600080fd5b91908080601f0160208091040260200160405190810160405280939291908181526020018383808284376000920191909152509295949360208101935035915050600160201b8111156109b157600080fd5b8201836020820111156109c357600080fd5b803590602001918460018302840111600160201b831117156109e457600080fd5b91908080601f0160208091040260200160405190810160405280939291908181526020018383808284376000920191909152509295505050903560ff16915061181a9050565b610385611a0b565b61051260048036036020811015610a4857600080fd5b50356001600160a01b0316611a63565b61051260048036036020811015610a6e57600080fd5b5035611ac0565b610512611acc565b61042660048036036040811015610a9357600080fd5b506001600160a01b038135169060200135611e50565b610512611ec1565b610512611ec7565b61051260048036036060811015610acf57600080fd5b506001600160a01b03813581169160208101359091169060400135611f66565b610426611fd7565b610512611fdc565b610b07612098565b60408051602080825283518183015283519192839290830191858101910280838360005b83811015610b43578181015183820152602001610b2b565b505050509050019250505060405180910390f35b610b7d60048036036020811015610b6d57600080fd5b50356001600160a01b0316612434565b604080519485526020850193909352838301919091526060830152519081900360800190f35b61051260048036036020811015610bb957600080fd5b50356124c9565b61051260048036036020811015610bd657600080fd5b50356124d4565b61051260048036036040811015610bf357600080fd5b506001600160a01b03813581169160200135166124df565b61051261250a565b61051260048036036020811015610c2957600080fd5b50356001600160a01b0316612510565b6104f360048036036020811015610c4f57600080fd5b50356001600160a01b031661254a565b610805612643565b61051260048036036060811015610c7d57600080fd5b506001600160a01b03813581169160208101359160409091013516612652565b61080561266a565b610512612679565b61051260048036036020811015610cc357600080fd5b50356126dd565b61051260048036036020811015610ce057600080fd5b503561275b565b60018054604080516020600284861615610100026000190190941693909304601f81018490048402820184019092528181529291830182828015610d6c5780601f10610d4157610100808354040283529160200191610d6c565b820191906000526020600020905b815481529060010190602001808311610d4f57829003601f168201915b505050505081565b336000818152600d602090815260408083206001600160a01b03871680855290835281842086905581518681529151939493909284927f8c5be1e5ebec7d5bd14f71427d1e84f3dd0314c0f7b2291e5b200ac8c7c3b925929081900390910190a360019150505b92915050565b60005460ff16610e25576040805162461bcd60e51b815260206004820152600a6024820152691c994b595b9d195c995960b21b604482015290519081900360640190fd5b6000805460ff19168155610e376127ff565b60a9549091506001600160a01b0316610e50818561287f565b60a95460a854604051631910217960e11b815230600482018181526001600160a01b038a8116602485015293841660448401819052606484018a905260a060848501908152895160a48601528951959096169563322042f29593948c9492938c938c93919260c40190602085019080838360005b83811015610edc578181015183820152602001610ec4565b50505050905090810190601f168015610f095780820380516001836020036101000a031916815260200191505b509650505050505050600060405180830381600087803b158015610f2c57600080fd5b505af1158015610f40573d6000803e3d6000fd5b505050506000610f4e6127ff565b905082811015610f8f5760405162461bcd60e51b8152600401808060200182810382526032815260200180615d636032913960400191505060405180910390fd5b610f97611acc565b50506000805460ff191660011790555050505050565b600080610fb983612976565b509150505b919050565b60065481565b6000805460ff1661100e576040805162461bcd60e51b815260206004820152600a6024820152691c994b595b9d195c995960b21b604482015290519081900360640190fd5b6000805460ff19168155611020611acc565b1461106b576040805162461bcd60e51b81526020600482015260166024820152751858d8dc9d59481a5b9d195c995cdd0819985a5b195960521b604482015290519081900360640190fd5b61107482611a63565b90505b6000805460ff19166001179055919050565b600b5481565b600080600061109c612a1e565b909250905060008260038111156110af57fe5b146110eb5760405162461bcd60e51b8152600401808060200182810382526035815260200180615f036035913960400191505060405180910390fd5b9150505b90565b601154610100900460ff168061110b575061110b612acd565b80611119575060115460ff16155b6111545760405162461bcd60e51b815260040180806020018281038252602e815260200180615e51602e913960400191505060405180910390fd5b601154610100900460ff1615801561117f576011805460ff1961ff0019909116610100171660011790555b611187612ad3565b61119587878787878761181a565b60a880546001600160a01b0319166001600160a01b038a81169190911791829055604080516318160ddd60e01b8152905192909116916318160ddd91600480820192602092909190829003018186803b1580156111f157600080fd5b505afa158015611205573d6000803e3d6000fd5b505050506040513d602081101561121b57600080fd5b5050801561122f576011805461ff00191690555b5050505050505050565b6000805460ff1661127e576040805162461bcd60e51b815260206004820152600a6024820152691c994b595b9d195c995960b21b604482015290519081900360640190fd5b6000805460ff1916815561129433868686612b85565b1490506000805460ff191660011790559392505050565b6000806112b88484612ea5565b50949350505050565b60035460ff1681565b6112d2612f4f565b6076546001600160a01b03908116911614611322576040805162461bcd60e51b81526020600482018190526024820152600080516020615df7833981519152604482015290519081900360640190fd5b60a980546001600160a01b0319166001600160a01b0392909216919091179055565b600061134e615b34565b6040518060200160405280611361611fdc565b90526001600160a01b0384166000908152600c602052604081205491925090819061138d908490612f53565b909250905060008260038111156113a057fe5b146113f2576040805162461bcd60e51b815260206004820152601f60248201527f62616c616e636520636f756c64206e6f742062652063616c63756c6174656400604482015290519081900360640190fd5b949350505050565b60006114046127ff565b905090565b6000610ddb82612fa7565b600061141e612f4f565b6076546001600160a01b0390811691161461146e576040805162461bcd60e51b81526020600482018190526024820152600080516020615df7833981519152604482015290519081900360640190fd5b600380546001600160a01b03848116610100818102610100600160a81b03198516179094556040805194909304919091168084526020840191909152815190927f7ac369dbd14fa5ea3f473ed67cc9d598964a77501540ba6751eb0b3decf5870d92908290030190a160005b9392505050565b60095481565b60006114f1612f4f565b6076546001600160a01b03908116911614611541576040805162461bcd60e51b81526020600482018190526024820152600080516020615df7833981519152604482015290519081900360640190fd5b600f80546001600160a01b038481166001600160a01b0319831681179093556040805191909216808252602082019390935281517f99b2b7456799067566d467831e63363500739eac62c12ccb8cf9745078f06d2a929181900390910190a160006114da565b60035461010090046001600160a01b031681565b6000805460ff16611600576040805162461bcd60e51b815260206004820152600a6024820152691c994b595b9d195c995960b21b604482015290519081900360640190fd5b6000805460ff19168155611612611acc565b905080156116385761163081601081111561162957fe5b603161303b565b915050611077565b611641836130a1565b9150506000805460ff19166001179055919050565b60075481565b60a8546001600160a01b031681565b6001600160a01b03166000908152600c602052604090205490565b61168e612f4f565b6076546001600160a01b039081169116146116de576040805162461bcd60e51b81526020600482018190526024820152600080516020615df7833981519152604482015290519081900360640190fd5b6076546040516000916001600160a01b0316907f8be0079c531659141344cd1fd0a4f28419497f9722a3daafe3b4186f6b6457e0908390a3607680546001600160a01b0319169055565b6000805460ff1661176d576040805162461bcd60e51b815260206004820152600a6024820152691c994b595b9d195c995960b21b604482015290519081900360640190fd5b6000805460ff1916815561177f611acc565b146117ca576040805162461bcd60e51b81526020600482015260166024820152751858d8dc9d59481a5b9d195c995cdd0819985a5b195960521b604482015290519081900360640190fd5b506009546000805460ff1916600117905590565b6000806112b884846131fe565b600f546001600160a01b031681565b6000610ddb826132cb565b6076546001600160a01b031690565b600a5481565b611822612f4f565b6076546001600160a01b03908116911614611872576040805162461bcd60e51b81526020600482018190526024820152600080516020615df7833981519152604482015290519081900360640190fd5b6007541580156118825750600854155b6118bd5760405162461bcd60e51b8152600401808060200182810382526023815260200180615c966023913960400191505060405180910390fd5b6005849055836118fe5760405162461bcd60e51b8152600401808060200182810382526030815260200180615d116030913960400191505060405180910390fd5b600061190987611414565b9050801561195e576040805162461bcd60e51b815260206004820152601a60248201527f73657474696e6720636f6d7074726f6c6c6572206661696c6564000000000000604482015290519081900360640190fd5b61196661334c565b600755670de0b6b3a764000060085561197e86613350565b905080156119bd5760405162461bcd60e51b8152600401808060200182810382526022815260200180615d416022913960400191505060405180910390fd5b83516119d0906001906020870190615b47565b5082516119e4906002906020860190615b47565b50506003805460ff90921660ff199283161790556000805490911660011790555050505050565b6002805460408051602060018416156101000260001901909316849004601f81018490048402820184019092528181529291830182828015610d6c5780601f10610d4157610100808354040283529160200191610d6c565b6000806000611a718461342f565b90925090506000826003811115611a8457fe5b146114da5760405162461bcd60e51b8152600401808060200182810382526037815260200180615dc06037913960400191505060405180910390fd5b600080610fb9836134e2565b600080611ad761334c565b60075490915080821415611af0576000925050506110ef565b6000611afa6127ff565b600954600a5460085460048054604080516315f2405360e01b81529283018790526024830186905260448301859052519596509394929391926000926001600160a01b0316916315f24053916064808301926020929190829003018186803b158015611b6557600080fd5b505afa158015611b79573d6000803e3d6000fd5b505050506040513d6020811015611b8f57600080fd5b5051905065048c27395000811115611bee576040805162461bcd60e51b815260206004820152601c60248201527f626f72726f772072617465206973206162737572646c79206869676800000000604482015290519081900360640190fd5b600080611bfb898961355e565b90925090506000826003811115611c0e57fe5b14611c60576040805162461bcd60e51b815260206004820152601f60248201527f636f756c64206e6f742063616c63756c61746520626c6f636b2064656c746100604482015290519081900360640190fd5b611c68615b34565b600080600080611c8660405180602001604052808a81525087613581565b90975094506000876003811115611c9957fe5b14611ccb57611cb660096006896003811115611cb157fe5b6135e9565b9e5050505050505050505050505050506110ef565b611cd5858c612f53565b90975093506000876003811115611ce857fe5b14611d0057611cb660096001896003811115611cb157fe5b611d0c8460105461355e565b5096506000876003811115611d1d57fe5b14611d285760105493505b611d32848c61364f565b90975092506000876003811115611d4557fe5b14611d5d57611cb660096004896003811115611cb157fe5b611d786040518060200160405280600654815250858c613675565b90975091506000876003811115611d8b57fe5b14611da357611cb660096005896003811115611cb157fe5b611dae858a8b613675565b90975090506000876003811115611dc157fe5b14611dd957611cb660096003896003811115611cb157fe5b60078e905560088190556009839055600a829055604080518d815260208101869052808201839052606081018590526080810184905290517f717fee053884ab1935ba6d0140f6ed225371439611d9674ff445419d6a0fa1b79181900360a00190a160009e50505050505050505050505050505090565b6000805460ff16611e95576040805162461bcd60e51b815260206004820152600a6024820152691c994b595b9d195c995960b21b604482015290519081900360640190fd5b6000805460ff19168155611eab33338686612b85565b1490506000805460ff1916600117905592915050565b60085481565b6004546000906001600160a01b031663b8168816611ee36127ff565b600954600a546006546040518563ffffffff1660e01b81526004018085815260200184815260200183815260200182815260200194505050505060206040518083038186803b158015611f3557600080fd5b505afa158015611f49573d6000803e3d6000fd5b505050506040513d6020811015611f5f57600080fd5b5051905090565b6000805460ff16611fab576040805162461bcd60e51b815260206004820152600a6024820152691c994b595b9d195c995960b21b604482015290519081900360640190fd5b6000805460ff19169055611fc1338585856136d1565b90506000805460ff191660011790559392505050565b600181565b6000805460ff16612021576040805162461bcd60e51b815260206004820152600a6024820152691c994b595b9d195c995960b21b604482015290519081900360640190fd5b6000805460ff19168155612033611acc565b1461207e576040805162461bcd60e51b81526020600482015260166024820152751858d8dc9d59481a5b9d195c995cdd0819985a5b195960521b604482015290519081900360640190fd5b61208661108f565b90506000805460ff1916600117905590565b606060006120a461334c565b60075490915060006120b46127ff565b600954600a5460085460048054604080516315f2405360e01b81529283018790526024830186905260448301859052519596509394929391926000926001600160a01b0316916315f24053916064808301926020929190829003018186803b15801561211f57600080fd5b505afa158015612133573d6000803e3d6000fd5b505050506040513d602081101561214957600080fd5b5051905065048c273950008111156121a8576040805162461bcd60e51b815260206004820152601c60248201527f626f72726f772072617465206973206162737572646c79206869676800000000604482015290519081900360640190fd5b6000806121b5898961355e565b909250905060008260038111156121c857fe5b1461221a576040805162461bcd60e51b815260206004820152601f60248201527f636f756c64206e6f742063616c63756c61746520626c6f636b2064656c746100604482015290519081900360640190fd5b612222615b34565b60408051600680825260e082019092526000918291829182916060916020820160c08036833701905050905061226660405180602001604052808b81525088613581565b9098509550600088600381111561227957fe5b14612294579e506110ef9d5050505050505050505050505050565b61229e868d612f53565b909850945060008860038111156122b157fe5b146122cc579e506110ef9d5050505050505050505050505050565b6122d6858d61364f565b909850935060008860038111156122e957fe5b14612304579e506110ef9d5050505050505050505050505050565b61231f6040518060200160405280600654815250868d613675565b9098509250600088600381111561233257fe5b1461234d579e506110ef9d5050505050505050505050505050565b612358868b8c613675565b9098509150600088600381111561236b57fe5b14612386579e506110ef9d5050505050505050505050505050565b8e8160008151811061239457fe5b6020026020010181815250508c816001815181106123ae57fe5b60200260200101818152505084816002815181106123c857fe5b60200260200101818152505083816003815181106123e257fe5b60200260200101818152505082816004815181106123fc57fe5b602002602001018181525050818160058151811061241657fe5b60209081029190910101529e50505050505050505050505050505090565b6001600160a01b0381166000908152600c602052604081205481908190819081808061245f8961342f565b93509050600081600381111561247157fe5b1461248f5760095b60008060009750975097509750505050506124c2565b612497612a1e565b9250905060008160038111156124a957fe5b146124b5576009612479565b5060009650919450925090505b9193509193565b6000610ddb82613943565b6000610ddb826139c2565b6001600160a01b039182166000908152600d6020908152604080832093909416825291909152205490565b60105481565b60008061251b611acc565b905080156125415761253981601081111561253257fe5b604261303b565b915050610fbe565b6114da83613350565b612552612f4f565b6076546001600160a01b039081169116146125a2576040805162461bcd60e51b81526020600482018190526024820152600080516020615df7833981519152604482015290519081900360640190fd5b6001600160a01b0381166125e75760405162461bcd60e51b8152600401808060200182810382526026815260200180615cb96026913960400191505060405180910390fd5b6076546040516001600160a01b038084169216907f8be0079c531659141344cd1fd0a4f28419497f9722a3daafe3b4186f6b6457e090600090a3607680546001600160a01b0319166001600160a01b0392909216919091179055565b6004546001600160a01b031681565b600080612660858585613a3c565b5095945050505050565b60a9546001600160a01b031681565b6004546000906001600160a01b03166315f240536126956127ff565b600954600a546040518463ffffffff1660e01b815260040180848152602001838152602001828152602001935050505060206040518083038186803b158015611f3557600080fd5b6000805460ff16612722576040805162461bcd60e51b815260206004820152600a6024820152691c994b595b9d195c995960b21b604482015290519081900360640190fd5b6000805460ff19168155612734611acc565b905080156127525761163081601081111561274b57fe5b604861303b565b61164183613b6d565b6000612765612f4f565b6076546001600160a01b039081169116146127b5576040805162461bcd60e51b81526020600482018190526024820152600080516020615df7833981519152604482015290519081900360640190fd5b6010805490839055604080518281526020810185905281517f0fef09b67597ccf3dbb342dd705d9a10d14b4813c09c55e010cd5f4bf219ddaa929181900390910190a160006114da565b60a854604080516370a0823160e01b815230600482015290516000926001600160a01b03169182916370a0823191602480820192602092909190829003018186803b15801561284d57600080fd5b505afa158015612861573d6000803e3d6000fd5b505050506040513d602081101561287757600080fd5b505191505090565b60a8546040805163a9059cbb60e01b81526001600160a01b0385811660048301526024820185905291519190921691829163a9059cbb9160448082019260009290919082900301818387803b1580156128d757600080fd5b505af11580156128eb573d6000803e3d6000fd5b5050505060003d60008114612907576020811461291157600080fd5b600019915061291d565b60206000803e60005191505b5080612970576040805162461bcd60e51b815260206004820152601960248201527f544f4b454e5f5452414e534645525f4f55545f4641494c454400000000000000604482015290519081900360640190fd5b50505050565b60008054819060ff166129bd576040805162461bcd60e51b815260206004820152600a6024820152691c994b595b9d195c995960b21b604482015290519081900360640190fd5b6000805460ff191681556129cf611acc565b905080156129f9576129ed8160108111156129e657fe5b603761303b565b60009250925050612a0a565b612a04333386613c50565b92509250505b6000805460ff191660011790559092909150565b600b54600090819080612a3957505060055460009150612ac9565b6000612a436127ff565b90506000612a4f615b34565b6000612a6084600954600a546140f4565b935090506000816003811115612a7257fe5b14612a8757955060009450612ac99350505050565b612a918386614132565b925090506000816003811115612aa357fe5b14612ab857955060009450612ac99350505050565b5051600095509350612ac992505050565b9091565b303b1590565b601154610100900460ff1680612aec5750612aec612acd565b80612afa575060115460ff16155b612b355760405162461bcd60e51b815260040180806020018281038252602e815260200180615e51602e913960400191505060405180910390fd5b601154610100900460ff16158015612b60576011805460ff1961ff0019909116610100171660011790555b612b686141e3565b612b70614283565b8015612b82576011805461ff00191690555b50565b600354604080516317b9b84b60e31b81523060048201526001600160a01b03868116602483015285811660448301526064820185905291516000938493610100909104169163bdcdc25891608480830192602092919082900301818787803b158015612bf057600080fd5b505af1158015612c04573d6000803e3d6000fd5b505050506040513d6020811015612c1a57600080fd5b505190508015612c3957612c316003604c836135e9565b9150506113f2565b836001600160a01b0316856001600160a01b03161415612c5f57612c316002604d61303b565b6000856001600160a01b0316876001600160a01b03161415612c845750600019612cac565b506001600160a01b038086166000908152600d60209081526040808320938a16835292905220545b600080600080612cbc858961355e565b90945092506000846003811115612ccf57fe5b14612ced57612ce06009604d61303b565b96505050505050506113f2565b6001600160a01b038a166000908152600c6020526040902054612d10908961355e565b90945091506000846003811115612d2357fe5b14612d3457612ce06009604e61303b565b6001600160a01b0389166000908152600c6020526040902054612d57908961364f565b90945090506000846003811115612d6a57fe5b14612d7b57612ce06009604f61303b565b6001600160a01b03808b166000908152600c6020526040808220859055918b168152208190556000198514612dd3576001600160a01b03808b166000908152600d60209081526040808320938f168352929052208390555b886001600160a01b03168a6001600160a01b0316600080516020615e7f8339815191528a6040518082815260200191505060405180910390a36003546040805163352b4a3f60e11b81523060048201526001600160a01b038d811660248301528c81166044830152606482018c9052915161010090930490911691636a56947e9160848082019260009290919082900301818387803b158015612e7557600080fd5b505af1158015612e89573d6000803e3d6000fd5b5060009250612e96915050565b9b9a5050505050505050505050565b60008054819060ff16612eec576040805162461bcd60e51b815260206004820152600a6024820152691c994b595b9d195c995960b21b604482015290519081900360640190fd5b6000805460ff19168155612efe611acc565b90508015612f2857612f1c816010811115612f1557fe5b603661303b565b60009250925050612f39565b612f33338686613c50565b92509250505b6000805460ff1916600117905590939092509050565b3390565b6000806000612f60615b34565b612f6a8686613581565b90925090506000826003811115612f7d57fe5b14612f8e5750915060009050612fa0565b6000612f998261437c565b9350935050505b9250929050565b6000805460ff16612fec576040805162461bcd60e51b815260206004820152600a6024820152691c994b595b9d195c995960b21b604482015290519081900360640190fd5b6000805460ff19168155612ffe611acc565b9050801561301c5761163081601081111561301557fe5b605061303b565b6130258361438b565b509150506000805460ff19166001179055919050565b60007f45b96fe442630264581b197e84bbada861235052c5a1aadfff9ea4e40a969aa083601081111561306a57fe5b83605281111561307657fe5b604080519283526020830191909152600082820152519081900360600190a18260108111156114da57fe5b60006130ab612f4f565b6076546001600160a01b039081169116146130fb576040805162461bcd60e51b81526020600482018190526024820152600080516020615df7833981519152604482015290519081900360640190fd5b600061310561334c565b6007541461311957612539600a603461303b565b826131226127ff565b101561313457612539600e603361303b565b600a5483111561314a576125396002603561303b565b50600a54828103908111156131905760405162461bcd60e51b8152600401808060200182810382526024815260200180615f946024913960400191505060405180910390fd5b600a8190556131a66131a0611805565b8461287f565b7f3bad0c59cf2f06e7314077049f48a93578cd16f5ef92329f1dab1420a99c177e6131cf611805565b604080516001600160a01b03909216825260208201869052818101849052519081900360600190a160006114da565b60008054819060ff16613245576040805162461bcd60e51b815260206004820152600a6024820152691c994b595b9d195c995960b21b604482015290519081900360640190fd5b6000805460ff19169055600f546001600160a01b031633146132985760405162461bcd60e51b8152600401808060200182810382526032815260200180615cdf6032913960400191505060405180910390fd5b60006132a2611acc565b905080156132c057612f1c8160108111156132b957fe5b601f61303b565b612f33338686614473565b6000805460ff16613310576040805162461bcd60e51b815260206004820152600a6024820152691c994b595b9d195c995960b21b604482015290519081900360640190fd5b6000805460ff19168155613322611acc565b905080156133405761163081601081111561333957fe5b602861303b565b61164133600085614905565b4390565b600061335a612f4f565b6076546001600160a01b039081169116146133aa576040805162461bcd60e51b81526020600482018190526024820152600080516020615df7833981519152604482015290519081900360640190fd5b60006133b461334c565b600754146133c857612539600a604361303b565b50600480546001600160a01b038481166001600160a01b0319831681179093556040805191909216808252602082019390935281517fedffc32e068c7c95dfd4bdfd5c4d939a084d6b11c4199eac8436ed234d72f926929181900390910190a160006114da565b6001600160a01b0381166000908152600e60205260408120805482918291829182916134655760008095509550505050506134dd565b6134758160000154600854614df1565b9094509250600084600381111561348857fe5b1461349d5783600095509550505050506134dd565b6134ab838260010154614e30565b909450915060008460038111156134be57fe5b146134d35783600095509550505050506134dd565b5060009450925050505b915091565b60008054819060ff16613529576040805162461bcd60e51b815260206004820152600a6024820152691c994b595b9d195c995960b21b604482015290519081900360640190fd5b6000805460ff1916815561353b611acc565b90508015613552576129ed8160108111156132b957fe5b612a0433856000614473565b600080838311613575575060009050818303612fa0565b50600390506000612fa0565b600061358b615b34565b60008061359c866000015186614df1565b909250905060008260038111156135af57fe5b146135ce57506040805160208101909152600081529092509050612fa0565b60408051602081019091529081526000969095509350505050565b60007f45b96fe442630264581b197e84bbada861235052c5a1aadfff9ea4e40a969aa084601081111561361857fe5b84605281111561362457fe5b604080519283526020830191909152818101859052519081900360600190a18360108111156113f257fe5b60008083830184811061366757600092509050612fa0565b600260009250925050612fa0565b6000806000613682615b34565b61368c8787613581565b9092509050600082600381111561369f57fe5b146136b057509150600090506136c9565b6136c26136bc8261437c565b8661364f565b9350935050505b935093915050565b6003546040805163d02f735160e01b81523060048201526001600160a01b038781166024830152868116604483015285811660648301526084820185905291516000938493610100909104169163d02f73519160a480830192602092919082900301818787803b15801561374457600080fd5b505af1158015613758573d6000803e3d6000fd5b505050506040513d602081101561376e57600080fd5b50519050801561378557612c316003601c836135e9565b846001600160a01b0316846001600160a01b031614156137ab57612c316006601d61303b565b6001600160a01b0384166000908152600c6020526040812054819081906137d2908761355e565b909350915060008360038111156137e557fe5b14613808576137fd6009601b856003811115611cb157fe5b9450505050506113f2565b6001600160a01b0388166000908152600c602052604090205461382b908761364f565b9093509050600083600381111561383e57fe5b14613856576137fd6009601a856003811115611cb157fe5b6001600160a01b038088166000818152600c60209081526040808320879055938c168083529184902085905583518a815293519193600080516020615e7f833981519152929081900390910190a360035460408051636d35bf9160e01b81523060048201526001600160a01b038c811660248301528b811660448301528a81166064830152608482018a9052915161010090930490911691636d35bf919160a48082019260009290919082900301818387803b15801561391557600080fd5b505af1158015613929573d6000803e3d6000fd5b5060009250613936915050565b9998505050505050505050565b6000805460ff16613988576040805162461bcd60e51b815260206004820152600a6024820152691c994b595b9d195c995960b21b604482015290519081900360640190fd5b6000805460ff1916815561399a611acc565b905080156139b8576116308160108111156139b157fe5b600961303b565b6116413384614e5b565b6000805460ff16613a07576040805162461bcd60e51b815260206004820152600a6024820152691c994b595b9d195c995960b21b604482015290519081900360640190fd5b6000805460ff19168155613a19611acc565b90508015613a305761163081601081111561333957fe5b61164133846000614905565b60008054819060ff16613a83576040805162461bcd60e51b815260206004820152600a6024820152691c994b595b9d195c995960b21b604482015290519081900360640190fd5b6000805460ff19168155613a95611acc565b90508015613abf57613ab3816010811115613aac57fe5b601061303b565b60009250925050613b56565b836001600160a01b031663a6afed956040518163ffffffff1660e01b8152600401602060405180830381600087803b158015613afa57600080fd5b505af1158015613b0e573d6000803e3d6000fd5b505050506040513d6020811015613b2457600080fd5b505190508015613b4457613ab3816010811115613b3d57fe5b601161303b565b613b50338787876151d8565b92509250505b6000805460ff191660011790559094909350915050565b6000613b77612f4f565b6076546001600160a01b03908116911614613bc7576040805162461bcd60e51b81526020600482018190526024820152600080516020615df7833981519152604482015290519081900360640190fd5b613bcf61334c565b60075414613bea57613be3600a604a61303b565b9050610fbe565b670de0b6b3a7640000821115613c0657613be36002604b61303b565b6006805490839055604080518281526020810185905281517faaa68312e2ea9d50e16af5068410ab56e1a1fd06037b1a35664812c30f821460929181900390910190a160006114da565b60035460408051631200453160e11b81523060048201526001600160a01b03868116602483015285811660448301526064820185905291516000938493849361010090920416916324008a629160848082019260209290919082900301818787803b158015613cbe57600080fd5b505af1158015613cd2573d6000803e3d6000fd5b505050506040513d6020811015613ce857600080fd5b505190508015613d0b57613cff6003603a836135e9565b600092509250506136c9565b613d1361334c565b60075414613d2757613cff600a603b61303b565b613d2f615bc5565b6001600160a01b0386166000908152600e60205260409020600101546060820152613d598661576f565b610100830181905260208301826003811115613d7157fe5b6003811115613d7c57fe5b9052506000905081602001516003811115613d9357fe5b14613dbc57613daf6009603883602001516003811115611cb157fe5b60009350935050506136c9565b613dc58661342f565b6080830181905260208301826003811115613ddc57fe5b6003811115613de757fe5b9052506000905081602001516003811115613dfe57fe5b14613e1a57613daf6009603983602001516003811115611cb157fe5b600019851415613e335760808101516040820152613e3b565b604081018590525b613e49878260400151615879565b60e082018190526080820151613e5e9161355e565b60a0830181905260208301826003811115613e7557fe5b6003811115613e8057fe5b9052506000905081602001516003811115613e9757fe5b14613ed35760405162461bcd60e51b815260040180806020018281038252603a815260200180615e17603a913960400191505060405180910390fd5b613ee36009548260e0015161355e565b60c0830181905260208301826003811115613efa57fe5b6003811115613f0557fe5b9052506000905081602001516003811115613f1c57fe5b14613f585760405162461bcd60e51b8152600401808060200182810382526031815260200180615e9f6031913960400191505060405180910390fd5b8060a00151600e6000886001600160a01b03166001600160a01b0316815260200190815260200160002060000181905550600854600e6000886001600160a01b03166001600160a01b03168152602001908152602001600020600101819055508060c001516009819055507f6fadbf7329d21f278e724fa0d4511001a158f2a97ee35c5bc4cf8b64417399ef87878360e001518460a001518560c0015186610100015160405180876001600160a01b03168152602001866001600160a01b03168152602001858152602001848152602001838152602001828152602001965050505050505060405180910390a160035460e0820151606083015160408051631ededc9160e01b81523060048201526001600160a01b038c811660248301528b81166044830152606482019490945260848101929092525161010090930490911691631ededc919160a48082019260009290919082900301818387803b1580156140c057600080fd5b505af11580156140d4573d6000803e3d6000fd5b50600092506140e1915050565b8160e00151935093505050935093915050565b600080600080614104878761364f565b9092509050600082600381111561411757fe5b1461412857509150600090506136c9565b6136c2818661355e565b600061413c615b34565b60008061415186670de0b6b3a7640000614df1565b9092509050600082600381111561416457fe5b1461418357506040805160208101909152600081529092509050612fa0565b6000806141908388614e30565b909250905060008260038111156141a357fe5b146141c65781604051806020016040528060008152509550955050505050612fa0565b604080516020810190915290815260009890975095505050505050565b601154610100900460ff16806141fc57506141fc612acd565b8061420a575060115460ff16155b6142455760405162461bcd60e51b815260040180806020018281038252602e815260200180615e51602e913960400191505060405180910390fd5b601154610100900460ff16158015612b70576011805460ff1961ff0019909116610100171660011790558015612b82576011805461ff001916905550565b601154610100900460ff168061429c575061429c612acd565b806142aa575060115460ff16155b6142e55760405162461bcd60e51b815260040180806020018281038252602e815260200180615e51602e913960400191505060405180910390fd5b601154610100900460ff16158015614310576011805460ff1961ff0019909116610100171660011790555b600061431a612f4f565b607680546001600160a01b0319166001600160a01b038316908117909155604051919250906000907f8be0079c531659141344cd1fd0a4f28419497f9722a3daafe3b4186f6b6457e0908290a3508015612b82576011805461ff001916905550565b51670de0b6b3a7640000900490565b60008060008061439961334c565b600754146143b8576143ad600a605161303b565b935091506134dd9050565b6143c23386615879565b905080600a54019150600a54821015614422576040805162461bcd60e51b815260206004820181905260248201527f61646420726573657276657320756e6578706563746564206f766572666c6f77604482015290519081900360640190fd5b600a829055604080513381526020810183905280820184905290517fa91e67c5ea634cd43a12c5a482724b03de01e85ca68702a53d0c2f45cb7c1dc59181900360600190a160009350915050915091565b600080826145215760035460408051634ef4c3e160e01b81523060048201526001600160a01b038881166024830152604482018890529151600093610100900490921691634ef4c3e19160648082019260209290919082900301818787803b1580156144de57600080fd5b505af11580156144f2573d6000803e3d6000fd5b505050506040513d602081101561450857600080fd5b50519050801561451f57613cff60036020836135e9565b505b61452961334c565b600754146145485761453d600a602361303b565b6000915091506136c9565b614550615c12565b836145b25761455d612a1e565b604083018190526020830182600381111561457457fe5b600381111561457f57fe5b905250600090508160200151600381111561459657fe5b146145b257613cff6009602283602001516003811115611cb157fe5b6145bc8686615879565b60c082015283614676576145e68160c0015160405180602001604052808460400151815250615ac3565b60608301819052602083018260038111156145fd57fe5b600381111561460857fe5b905250600090508160200151600381111561461f57fe5b14614671576040805162461bcd60e51b815260206004820181905260248201527f4d494e545f45584348414e47455f43414c43554c4154494f4e5f4641494c4544604482015290519081900360640190fd5b61467e565b606081018490525b61468e600b54826060015161364f565b60808301819052602083018260038111156146a557fe5b60038111156146b057fe5b90525060009050816020015160038111156146c757fe5b146147035760405162461bcd60e51b8152600401808060200182810382526028815260200180615f386028913960400191505060405180910390fd5b6001600160a01b0386166000908152600c6020526040902054606082015161472b919061364f565b60a083018190526020830182600381111561474257fe5b600381111561474d57fe5b905250600090508160200151600381111561476457fe5b146147a05760405162461bcd60e51b815260040180806020018281038252602b815260200180615d95602b913960400191505060405180910390fd5b60808082018051600b5560a080840180516001600160a01b038b166000818152600c60209081526040918290209390935560c08801516060808a01519751955183519485529484019190915282820196909652948101929092529381019390935290517f94c792774c59479f7bd68442f3af3691c02123a5aabee8b6f9116d8af8aa66699281900390910190a1606081015160408051918252516001600160a01b038816913091600080516020615e7f8339815191529181900360200190a360035460c08201516060830151604080516341c728b960e01b81523060048201526001600160a01b038b811660248301526044820194909452606481019290925251610100909304909116916341c728b99160848082019260009290919082900301818387803b1580156148d257600080fd5b505af11580156148e6573d6000803e3d6000fd5b50600092506148f3915050565b8160c001519250925050935093915050565b6000821580614912575081155b61494d5760405162461bcd60e51b8152600401808060200182810382526034815260200180615f606034913960400191505060405180910390fd5b614955615c12565b61495d612a1e565b604083018190526020830182600381111561497457fe5b600381111561497f57fe5b905250600090508160200151600381111561499657fe5b146149ba576149b26009602c83602001516003811115611cb157fe5b9150506114da565b8315614a3b5760608101849052604080516020810182529082015181526149e19085612f53565b60808301819052602083018260038111156149f857fe5b6003811115614a0357fe5b9052506000905081602001516003811115614a1a57fe5b14614a36576149b26009602a83602001516003811115611cb157fe5b614ab4565b614a578360405180602001604052808460400151815250615ac3565b6060830181905260208301826003811115614a6e57fe5b6003811115614a7957fe5b9052506000905081602001516003811115614a9057fe5b14614aac576149b26009602b83602001516003811115611cb157fe5b608081018390525b60035460608201516040805163eabe7d9160e01b81523060048201526001600160a01b0389811660248301526044820193909352905160009361010090049092169163eabe7d919160648082019260209290919082900301818787803b158015614b1d57600080fd5b505af1158015614b31573d6000803e3d6000fd5b505050506040513d6020811015614b4757600080fd5b505190508015614b6757614b5e60036029836135e9565b925050506114da565b614b6f61334c565b60075414614b8357614b5e600a602d61303b565b614b93600b54836060015161355e565b60a0840181905260208401826003811115614baa57fe5b6003811115614bb557fe5b9052506000905082602001516003811115614bcc57fe5b14614be857614b5e6009602f84602001516003811115611cb157fe5b6001600160a01b0386166000908152600c60205260409020546060830151614c10919061355e565b60c0840181905260208401826003811115614c2757fe5b6003811115614c3257fe5b9052506000905082602001516003811115614c4957fe5b14614c6557614b5e6009602e84602001516003811115611cb157fe5b8160800151614c726127ff565b1015614c8457614b5e600e603061303b565b614c9286836080015161287f565b60a0820151600b5560c08201516001600160a01b0387166000818152600c6020908152604091829020939093556060850151815190815290513093600080516020615e7f833981519152928290030190a37fe02f6383e19e87c24e0c03e2cd5dbd05156cb29a1b0f3dbca1fa3430e444f63d86836080015184606001518560a001518660c0015160405180866001600160a01b031681526020018581526020018481526020018381526020018281526020019550505050505060405180910390a160035460808301516060840151604080516351dff98960e01b81523060048201526001600160a01b038b811660248301526044820194909452606481019290925251610100909304909116916351dff9899160848082019260009290919082900301818387803b158015614dc657600080fd5b505af1158015614dda573d6000803e3d6000fd5b5060009250614de7915050565b9695505050505050565b60008083614e0457506000905080612fa0565b83830283858281614e1157fe5b0414614e2557600260009250925050612fa0565b600092509050612fa0565b60008082614e445750600190506000612fa0565b6000838581614e4f57fe5b04915091509250929050565b6003546040805163368f515360e21b81523060048201526001600160a01b0385811660248301526044820185905291516000938493610100909104169163da3d454c91606480830192602092919082900301818787803b158015614ebe57600080fd5b505af1158015614ed2573d6000803e3d6000fd5b505050506040513d6020811015614ee857600080fd5b505190508015614f0757614eff6003600f836135e9565b915050610ddb565b614f0f61334c565b60075414614f2357614eff600a600b61303b565b82614f2c6127ff565b1015614f3e57614eff600e600a61303b565b614f46615c50565b614f4f8561576f565b6080830181905282826003811115614f6357fe5b6003811115614f6e57fe5b9052506000905081516003811115614f8257fe5b14614fa757614f9e6009600783600001516003811115611cb157fe5b92505050610ddb565b614fb08561342f565b6020830181905282826003811115614fc457fe5b6003811115614fcf57fe5b9052506000905081516003811115614fe357fe5b14614fff57614f9e6009600883600001516003811115611cb157fe5b61500d81602001518561364f565b604083018190528282600381111561502157fe5b600381111561502c57fe5b905250600090508151600381111561504057fe5b1461505c57614f9e6009600d83600001516003811115611cb157fe5b6150686009548561364f565b606083018190528282600381111561507c57fe5b600381111561508757fe5b905250600090508151600381111561509b57fe5b146150b757614f9e6009600c83600001516003811115611cb157fe5b6150c1858561287f565b604080820180516001600160a01b0388166000818152600e6020908152908590209283556008546001909301929092556060808601516009819055935160808088015187519485529484018b905283870191909152908201939093529182015290517f2dd79f4fccfd18c360ce7f9132f3621bf05eee18f995224badb32d17f172df739181900360a00190a160035460408051635c77860560e01b81523060048201526001600160a01b03888116602483015260448201889052915161010090930490911691635c7786059160648082019260009290919082900301818387803b1580156151ae57600080fd5b505af11580156151c2573d6000803e3d6000fd5b50600092506151cf915050565b95945050505050565b60035460408051632fe3f38f60e11b81523060048201526001600160a01b03848116602483015287811660448301528681166064830152608482018690529151600093849384936101009092041691635fc7e71e9160a48082019260209290919082900301818787803b15801561524e57600080fd5b505af1158015615262573d6000803e3d6000fd5b505050506040513d602081101561527857600080fd5b50519050801561529b5761528f60036013836135e9565b60009250925050615766565b6152a361334c565b600754146152b75761528f600a601761303b565b6152bf61334c565b846001600160a01b0316636c540baf6040518163ffffffff1660e01b815260040160206040518083038186803b1580156152f857600080fd5b505afa15801561530c573d6000803e3d6000fd5b505050506040513d602081101561532257600080fd5b5051146153355761528f600a601261303b565b866001600160a01b0316866001600160a01b0316141561535b5761528f6006601861303b565b8461536c5761528f6007601661303b565b6000198514156153825761528f6007601561303b565b600080615390898989613c50565b909250905081156153bf576153b18260108111156153aa57fe5b601961303b565b600094509450505050615766565b6003546040805163c488847b60e01b81523060048201526001600160a01b03898116602483015260448201859052825160009485946101009091049092169263c488847b926064808301939192829003018186803b15801561542057600080fd5b505afa158015615434573d6000803e3d6000fd5b505050506040513d604081101561544a57600080fd5b508051602090910151909250905081156154955760405162461bcd60e51b8152600401808060200182810382526033815260200180615ed06033913960400191505060405180910390fd5b80886001600160a01b03166370a082318c6040518263ffffffff1660e01b815260040180826001600160a01b0316815260200191505060206040518083038186803b1580156154e357600080fd5b505afa1580156154f7573d6000803e3d6000fd5b505050506040513d602081101561550d57600080fd5b50511015615562576040805162461bcd60e51b815260206004820152601860248201527f4c49515549444154455f5345495a455f544f4f5f4d5543480000000000000000604482015290519081900360640190fd5b60006001600160a01b03891630141561558857615581308d8d856136d1565b905061561f565b886001600160a01b031663b2a02ff18d8d856040518463ffffffff1660e01b815260040180846001600160a01b03168152602001836001600160a01b031681526020018281526020019350505050602060405180830381600087803b1580156155f057600080fd5b505af1158015615604573d6000803e3d6000fd5b505050506040513d602081101561561a57600080fd5b505190505b8015615669576040805162461bcd60e51b81526020600482015260146024820152731d1bdad95b881cd95a5e9d5c994819985a5b195960621b604482015290519081900360640190fd5b604080516001600160a01b03808f168252808e1660208301528183018790528b1660608201526080810184905290517f298637f684da70674f26509b10f07ec2fbc77a335ab1e7d6215a4b2484d8bb529181900360a00190a1600354604080516347ef3b3b60e01b81523060048201526001600160a01b038c811660248301528f811660448301528e811660648301526084820188905260a482018690529151610100909304909116916347ef3b3b9160c48082019260009290919082900301818387803b15801561573a57600080fd5b505af115801561574e573d6000803e3d6000fd5b506000925061575b915050565b975092955050505050505b94509492505050565b6001600160a01b0381166000908152600e60205260408120805482918291829182918291906157a9576000809650965050505050506134dd565b6157b98160000154600854614df1565b909550935060008560038111156157cc57fe5b146157e2578460009650965050505050506134dd565b60018101546157fc576000809650965050505050506134dd565b61580a848260010154614e30565b9095509250600085600381111561581d57fe5b14615833578460009650965050505050506134dd565b61584183826000015461355e565b9095509150600085600381111561585457fe5b1461586a578460009650965050505050506134dd565b50600095509350505050915091565b60a854604080516370a0823160e01b815230600482015290516000926001600160a01b031691839183916370a08231916024808301926020929190829003018186803b1580156158c857600080fd5b505afa1580156158dc573d6000803e3d6000fd5b505050506040513d60208110156158f257600080fd5b5051604080516323b872dd60e01b81526001600160a01b038881166004830152306024830152604482018890529151929350908416916323b872dd9160648082019260009290919082900301818387803b15801561594f57600080fd5b505af1158015615963573d6000803e3d6000fd5b5050505060003d6000811461597f576020811461598957600080fd5b6000199150615995565b60206000803e60005191505b50806159e8576040805162461bcd60e51b815260206004820152601860248201527f544f4b454e5f5452414e534645525f494e5f4641494c45440000000000000000604482015290519081900360640190fd5b60a854604080516370a0823160e01b815230600482015290516000926001600160a01b0316916370a08231916024808301926020929190829003018186803b158015615a3357600080fd5b505afa158015615a47573d6000803e3d6000fd5b505050506040513d6020811015615a5d57600080fd5b5051905082811015615ab6576040805162461bcd60e51b815260206004820152601a60248201527f544f4b454e5f5452414e534645525f494e5f4f564552464c4f57000000000000604482015290519081900360640190fd5b9190910395945050505050565b6000806000615ad0615b34565b612f6a86866000615adf615b34565b600080615af4670de0b6b3a764000087614df1565b90925090506000826003811115615b0757fe5b14615b2657506040805160208101909152600081529092509050612fa0565b612f99818660000151614132565b6040518060200160405280600081525090565b828054600181600116156101000203166002900490600052602060002090601f016020900481019282601f10615b8857805160ff1916838001178555615bb5565b82800160010185558215615bb5579182015b82811115615bb5578251825591602001919060010190615b9a565b50615bc1929150615c80565b5090565b604080516101208101909152806000815260200160008152602001600081526020016000815260200160008152602001600081526020016000815260200160008152602001600081525090565b6040805160e0810190915280600081526020016000815260200160008152602001600081526020016000815260200160008152602001600081525090565b6040805160a081019091528060008152602001600081526020016000815260200160008152602001600081525090565b5b80821115615bc15760008155600101615c8156fe6d61726b6574206d6179206f6e6c7920626520696e697469616c697a6564206f6e63654f776e61626c653a206e6577206f776e657220697320746865207a65726f20616464726573736d696e74496e7465726e616c466f724d6967726174653a2063616c6c6572206973206e6f7420746865206d69677261746f72696e697469616c2065786368616e67652072617465206d7573742062652067726561746572207468616e207a65726f2e73657474696e6720696e7465726573742072617465206d6f64656c206661696c65645468652061637475616c2062616c616e6365206f66207468652070726f746f636f6c20697320696e636f6e73697374656e744d494e545f4e45575f4143434f554e545f42414c414e43455f43414c43554c4154494f4e5f4641494c4544626f72726f7742616c616e636553746f7265643a20626f72726f7742616c616e636553746f726564496e7465726e616c206661696c65644f776e61626c653a2063616c6c6572206973206e6f7420746865206f776e657252455041595f424f52524f575f4e45575f4143434f554e545f424f52524f575f42414c414e43455f43414c43554c4154494f4e5f4641494c4544436f6e747261637420696e7374616e63652068617320616c7265616479206265656e20696e697469616c697a6564ddf252ad1be2c89b69c2b068fc378daa952ba7f163c4a11628f55a4df523b3ef52455041595f424f52524f575f4e45575f544f54414c5f42414c414e43455f43414c43554c4154494f4e5f4641494c45444c49515549444154455f434f4d5054524f4c4c45525f43414c43554c4154455f414d4f554e545f5345495a455f4641494c454465786368616e67655261746553746f7265643a2065786368616e67655261746553746f726564496e7465726e616c206661696c65644d494e545f4e45575f544f54414c5f535550504c595f43414c43554c4154494f4e5f4641494c45446f6e65206f662072656465656d546f6b656e73496e206f722072656465656d416d6f756e74496e206d757374206265207a65726f72656475636520726573657276657320756e657870656374656420756e646572666c6f77a2646970667358221220cac5f5944fcb81d8218011d39e44a2f7402b2ce63154b59ceeccb2cd0dd4c66f64736f6c634300060c0033",
  "linkReferences": {},
  "deployedLinkReferences": {}
}