{
  "_format": "hh-sol-artifact-1",
  "contractName": "CEthMigrator",
  "sourceName": "contracts/Lend/farm/migrator/CEthMigrator.sol",
  "abi": [
    {
      "inputs": [
        {
          "internalType": "address",
          "name": "_breeder",
          "type": "address"
        },
        {
          "internalType": "uint256",
          "name": "_notBeforeBlock",
          "type": "uint256"
        },
        {
          "internalType": "address payable",
          "name": "_targetToken",
          "type": "address"
        },
        {
          "internalType": "address",
          "name": "_comptroller",
          "type": "address"
        }
      ],
      "stateMutability": "nonpayable",
      "type": "constructor"
    },
    {
      "anonymous": false,
      "inputs": [
        {
          "indexed": false,
          "internalType": "address",
          "name": "",
          "type": "address"
        },
        {
          "indexed": false,
          "internalType": "uint256",
          "name": "",
          "type": "uint256"
        }
      ],
      "name": "Received",
      "type": "event"
    },
    {
      "inputs": [],
      "name": "breeder",
      "outputs": [
        {
          "internalType": "address",
          "name": "",
          "type": "address"
        }
      ],
      "stateMutability": "view",
      "type": "function"
    },
    {
      "inputs": [
        {
          "internalType": "contract CTokenInterface",
          "name": "oldLpToken",
          "type": "address"
        }
      ],
      "name": "migrate",
      "outputs": [
        {
          "internalType": "contract PEther",
          "name": "",
          "type": "address"
        },
        {
          "internalType": "uint256",
          "name": "",
          "type": "uint256"
        }
      ],
      "stateMutability": "payable",
      "type": "function"
    },
    {
      "inputs": [],
      "name": "notBeforeBlock",
      "outputs": [
        {
          "internalType": "uint256",
          "name": "",
          "type": "uint256"
        }
      ],
      "stateMutability": "view",
      "type": "function"
    },
    {
      "inputs": [
        {
          "internalType": "contract CTokenInterface",
          "name": "oldLpToken",
          "type": "address"
        }
      ],
      "name": "replaceMigrate",
      "outputs": [
        {
          "internalType": "contract PEther",
          "name": "",
          "type": "address"
        },
        {
          "internalType": "uint256",
          "name": "",
          "type": "uint256"
        }
      ],
      "stateMutability": "payable",
      "type": "function"
    },
    {
      "inputs": [],
      "name": "targetToken",
      "outputs": [
        {
          "internalType": "address payable",
          "name": "",
          "type": "address"
        }
      ],
      "stateMutability": "view",
      "type": "function"
    },
    {
      "stateMutability": "payable",
      "type": "receive"
    }
  ],
  "bytecode": "0x608060405234801561001057600080fd5b50604051610be1380380610be18339818101604052608081101561003357600080fd5b50805160208201516040830151606090930151600080546001600160a01b039485166001600160a01b031991821617909155600192909255600280549484169483169490941790935560038054929093169116179055610b49806100986000396000f3fe60806040526004361061004e5760003560e01c80630529313714610094578063327107f7146100bb5780636336cc61146100ec578063ae9dfc4d14610135578063ce5494bb1461014a5761008f565b3661008f576040805133815234602082015281517f88a5966d370b9919b20f3e2c13ff65706f196a4e32cc2c12bf57088f88525874929181900390910190a1005b600080fd5b3480156100a057600080fd5b506100a9610170565b60408051918252519081900360200190f35b3480156100c757600080fd5b506100d0610176565b604080516001600160a01b039092168252519081900360200190f35b6101126004803603602081101561010257600080fd5b50356001600160a01b0316610185565b604080516001600160a01b03909316835260208301919091528051918290030190f35b34801561014157600080fd5b506100d06106df565b6101126004803603602081101561016057600080fd5b50356001600160a01b03166106ee565b60015481565b6002546001600160a01b031681565b6000805481906001600160a01b031633146101da576040805162461bcd60e51b815260206004820152601060248201526f3737ba10333937b690313932b2b232b960811b604482015290519081900360640190fd5b600154431015610228576040805162461bcd60e51b8152602060048201526014602482015273746f6f206561726c7920746f206d69677261746560601b604482015290519081900360640190fd5b604080516370a0823160e01b8152336004820181905291513092916000916001600160a01b038816916370a08231916024808301926020929190829003018186803b15801561027657600080fd5b505afa15801561028a573d6000803e3d6000fd5b505050506040513d60208110156102a057600080fd5b50516002549091506001600160a01b0316816102c5579450600093506106da92505050565b6040805160018082528183019092526060916020808301908036833701905050905087816000815181106102f557fe5b6001600160a01b03928316602091820292909201810191909152600354604051631853304760e31b815260048101838152855160248301528551929094169363c299823893869391928392604490910191858101910280838360005b83811015610369578181015183820152602001610351565b5050505090500192505050600060405180830381600087803b15801561038e57600080fd5b505af11580156103a2573d6000803e3d6000fd5b505050506040513d6000823e601f3d908101601f1916820160405260208110156103cb57600080fd5b81019080805160405193929190846401000000008211156103eb57600080fd5b90830190602082018581111561040057600080fd5b825186602082028301116401000000008211171561041d57600080fd5b82525081516020918201928201910280838360005b8381101561044a578181015183820152602001610432565b5050505090500160405250505050876001600160a01b03166323b872dd8587866040518463ffffffff1660e01b815260040180846001600160a01b03168152602001836001600160a01b031681526020018281526020019350505050602060405180830381600087803b1580156104c057600080fd5b505af11580156104d4573d6000803e3d6000fd5b505050506040513d60208110156104ea57600080fd5b50506040805163db006a7560e01b81526004810185905290516001600160a01b038a169163db006a759160248083019260209291908290030181600087803b15801561053557600080fd5b505af1158015610549573d6000803e3d6000fd5b505050506040513d602081101561055f57600080fd5b505060408051634a79120960e11b81526004810185905290516001600160a01b038088163192908516916394f22412918491602480830192600092919082900301818588803b1580156105b157600080fd5b505af11580156105c5573d6000803e3d6000fd5b50505050506000836001600160a01b03166370a08231886040518263ffffffff1660e01b815260040180826001600160a01b0316815260200191505060206040518083038186803b15801561061957600080fd5b505afa15801561062d573d6000803e3d6000fd5b505050506040513d602081101561064357600080fd5b5051604080516323b872dd60e01b81526001600160a01b038a811660048301528981166024830152604482018490529151929350908616916323b872dd916064808201926020929091908290030181600087803b1580156106a357600080fd5b505af11580156106b7573d6000803e3d6000fd5b505050506040513d60208110156106cd57600080fd5b5093985096505050505050505b915091565b6000546001600160a01b031681565b6000805481906001600160a01b03163314610743576040805162461bcd60e51b815260206004820152601060248201526f3737ba10333937b690313932b2b232b960811b604482015290519081900360640190fd5b600154431015610791576040805162461bcd60e51b8152602060048201526014602482015273746f6f206561726c7920746f206d69677261746560601b604482015290519081900360640190fd5b604080516370a0823160e01b8152336004820181905291513092916000916001600160a01b038816916370a08231916024808301926020929190829003018186803b1580156107df57600080fd5b505afa1580156107f3573d6000803e3d6000fd5b505050506040513d602081101561080957600080fd5b50516002549091506001600160a01b03168161082e579450600093506106da92505050565b60408051600180825281830190925260609160208083019080368337019050509050878160008151811061085e57fe5b6001600160a01b03928316602091820292909201810191909152600354604051631853304760e31b815260048101838152855160248301528551929094169363c299823893869391928392604490910191858101910280838360005b838110156108d25781810151838201526020016108ba565b5050505090500192505050600060405180830381600087803b1580156108f757600080fd5b505af115801561090b573d6000803e3d6000fd5b505050506040513d6000823e601f3d908101601f19168201604052602081101561093457600080fd5b810190808051604051939291908464010000000082111561095457600080fd5b90830190602082018581111561096957600080fd5b825186602082028301116401000000008211171561098657600080fd5b82525081516020918201928201910280838360005b838110156109b357818101518382015260200161099b565b5050505090500160405250505050876001600160a01b03166323b872dd8587866040518463ffffffff1660e01b815260040180846001600160a01b03168152602001836001600160a01b031681526020018281526020019350505050602060405180830381600087803b158015610a2957600080fd5b505af1158015610a3d573d6000803e3d6000fd5b505050506040513d6020811015610a5357600080fd5b50506040805163db006a7560e01b81526004810185905290516001600160a01b038a169163db006a759160248083019260209291908290030181600087803b158015610a9e57600080fd5b505af1158015610ab2573d6000803e3d6000fd5b505050506040513d6020811015610ac857600080fd5b505060408051631249c58b60e01b815290516001600160a01b03808816319290851691631249c58b918491600480830192600092919082900301818588803b1580156105b157600080fdfea2646970667358221220c653c016e6398e980f4780db8596edffdf7fcf4a7651868b8716cc41d314cb4664736f6c634300060c0033",
  "linkReferences": {},
  "deployedLinkReferences": {}
}