{
  "_format": "hh-sol-artifact-1",
  "contractName": "ONOTAirdrop",
  "sourceName": "contracts/Airdrop/ONOTAirdrop.sol",
  "abi": [
    {
      "inputs": [
        {
          "internalType": "address",
          "name": "_lemd",
          "type": "address"
        },
        {
          "internalType": "uint256",
          "name": "_starttime",
          "type": "uint256"
        }
      ],
      "payable": false,
      "stateMutability": "nonpayable",
      "type": "constructor"
    },
    {
      "anonymous": false,
      "inputs": [
        {
          "indexed": true,
          "internalType": "address",
          "name": "previousOwner",
          "type": "address"
        },
        {
          "indexed": true,
          "internalType": "address",
          "name": "newOwner",
          "type": "address"
        }
      ],
      "name": "OwnershipTransferred",
      "type": "event"
    },
    {
      "anonymous": false,
      "inputs": [
        {
          "indexed": true,
          "internalType": "address",
          "name": "user",
          "type": "address"
        },
        {
          "indexed": false,
          "internalType": "uint256",
          "name": "amount",
          "type": "uint256"
        }
      ],
      "name": "Unpack",
      "type": "event"
    },
    {
      "constant": true,
      "inputs": [],
      "name": "Lemd",
      "outputs": [
        {
          "internalType": "contract IERC20",
          "name": "",
          "type": "address"
        }
      ],
      "payable": false,
      "stateMutability": "view",
      "type": "function"
    },
    {
      "constant": true,
      "inputs": [
        {
          "internalType": "address",
          "name": "",
          "type": "address"
        }
      ],
      "name": "airdropList",
      "outputs": [
        {
          "internalType": "uint256",
          "name": "",
          "type": "uint256"
        }
      ],
      "payable": false,
      "stateMutability": "view",
      "type": "function"
    },
    {
      "constant": true,
      "inputs": [
        {
          "internalType": "address",
          "name": "_userAddress",
          "type": "address"
        }
      ],
      "name": "getUser",
      "outputs": [
        {
          "internalType": "uint256",
          "name": "",
          "type": "uint256"
        }
      ],
      "payable": false,
      "stateMutability": "view",
      "type": "function"
    },
    {
      "constant": true,
      "inputs": [
        {
          "internalType": "uint256",
          "name": "upper",
          "type": "uint256"
        },
        {
          "internalType": "uint256",
          "name": "seed",
          "type": "uint256"
        },
        {
          "internalType": "uint256",
          "name": "salt",
          "type": "uint256"
        }
      ],
      "name": "importSeedFromThirdSalt",
      "outputs": [
        {
          "internalType": "uint256",
          "name": "",
          "type": "uint256"
        }
      ],
      "payable": false,
      "stateMutability": "view",
      "type": "function"
    },
    {
      "constant": true,
      "inputs": [],
      "name": "isOwner",
      "outputs": [
        {
          "internalType": "bool",
          "name": "",
          "type": "bool"
        }
      ],
      "payable": false,
      "stateMutability": "view",
      "type": "function"
    },
    {
      "constant": true,
      "inputs": [],
      "name": "owner",
      "outputs": [
        {
          "internalType": "address",
          "name": "",
          "type": "address"
        }
      ],
      "payable": false,
      "stateMutability": "view",
      "type": "function"
    },
    {
      "constant": false,
      "inputs": [],
      "name": "renounceOwnership",
      "outputs": [],
      "payable": false,
      "stateMutability": "nonpayable",
      "type": "function"
    },
    {
      "constant": true,
      "inputs": [],
      "name": "starttime",
      "outputs": [
        {
          "internalType": "uint256",
          "name": "",
          "type": "uint256"
        }
      ],
      "payable": false,
      "stateMutability": "view",
      "type": "function"
    },
    {
      "constant": false,
      "inputs": [
        {
          "internalType": "address",
          "name": "newOwner",
          "type": "address"
        }
      ],
      "name": "transferOwnership",
      "outputs": [],
      "payable": false,
      "stateMutability": "nonpayable",
      "type": "function"
    },
    {
      "constant": false,
      "inputs": [
        {
          "internalType": "bytes32",
          "name": "_ga",
          "type": "bytes32"
        }
      ],
      "name": "unpack",
      "outputs": [
        {
          "internalType": "uint256",
          "name": "",
          "type": "uint256"
        }
      ],
      "payable": false,
      "stateMutability": "nonpayable",
      "type": "function"
    }
  ],
  "bytecode": "0x6080604052600160035534801561001557600080fd5b50604051610aa3380380610aa38339818101604052604081101561003857600080fd5b50805160209091015160006100546001600160e01b036100c616565b600080546001600160a01b0319166001600160a01b0383169081178255604051929350917f8be0079c531659141344cd1fd0a4f28419497f9722a3daafe3b4186f6b6457e0908290a350600155600280546001600160a01b0319166001600160a01b03929092169190911790556100ca565b3390565b6109ca806100d96000396000f3fe608060405234801561001057600080fd5b506004361061009e5760003560e01c80638da58897116100665780638da58897146101515780638da5cb5b146101595780638f32d59b1461017d578063f2fde38b14610199578063fc436c7e146101bf5761009e565b806358cf77fa146100a35780636f77926b146100db578063715018a61461010157806371516dd91461010b5780637816d72114610128575b600080fd5b6100c9600480360360208110156100b957600080fd5b50356001600160a01b03166101c7565b60408051918252519081900360200190f35b6100c9600480360360208110156100f157600080fd5b50356001600160a01b03166101d9565b6101096101f4565b005b6100c96004803603602081101561012157600080fd5b5035610297565b6100c96004803603606081101561013e57600080fd5b50803590602081013590604001356104f9565b6100c9610542565b610161610548565b604080516001600160a01b039092168252519081900360200190f35b610185610557565b604080519115158252519081900360200190f35b610109600480360360208110156101af57600080fd5b50356001600160a01b031661057b565b6101616105e0565b60046020526000908152604090205481565b6001600160a01b031660009081526004602052604090205490565b6101fc610557565b61024d576040805162461bcd60e51b815260206004820181905260248201527f4f776e61626c653a2063616c6c6572206973206e6f7420746865206f776e6572604482015290519081900360640190fd5b600080546040516001600160a01b03909116907f8be0079c531659141344cd1fd0a4f28419497f9722a3daafe3b4186f6b6457e0908390a3600080546001600160a01b0319169055565b60006001544210156102dc576040805162461bcd60e51b8152602060048201526009602482015268139bdd081cdd185c9d60ba1b604482015290519081900360640190fd5b336000908152600460205260409020541561032d576040805162461bcd60e51b815260206004820152600c60248201526b416c726561647920676f742160a01b604482015290519081900360640190fd5b604080513360601b60208083019190915282518083036014018152603490920190925280519101208214610391576040805162461bcd60e51b81526020600482015260066024820152654572726f722160d01b604482015290519081900360640190fd5b60006103c0670de0b6b3a76400006103b4671bc16d674ec80000600354446104f9565b9063ffffffff6105ef16565b600254604080516370a0823160e01b8152306004820152905192935083926001600160a01b03909216916370a0823191602480820192602092909190829003018186803b15801561041057600080fd5b505afa158015610424573d6000803e3d6000fd5b505050506040513d602081101561043a57600080fd5b505111610477576040805162461bcd60e51b8152602060048201526006602482015265456d7074792160d01b604482015290519081900360640190fd5b600254610494906001600160a01b0316338363ffffffff61065016565b3360009081526004602052604090208190556003546104ba90600163ffffffff6105ef16565b60035560408051828152905133917f59184da93971657061c8fdb55f885e42b2b69c3c25be12122258536062d640f3919081900360200190a250919050565b60408051426020808301919091528183018590526060808301859052835180840390910181526080909201909252805191012060009084818161053857fe5b0695945050505050565b60015481565b6000546001600160a01b031690565b600080546001600160a01b031661056c6106a7565b6001600160a01b031614905090565b610583610557565b6105d4576040805162461bcd60e51b815260206004820181905260248201527f4f776e61626c653a2063616c6c6572206973206e6f7420746865206f776e6572604482015290519081900360640190fd5b6105dd816106ab565b50565b6002546001600160a01b031681565b600082820183811015610649576040805162461bcd60e51b815260206004820152601b60248201527f536166654d6174683a206164646974696f6e206f766572666c6f770000000000604482015290519081900360640190fd5b9392505050565b604080516001600160a01b038416602482015260448082018490528251808303909101815260649091019091526020810180516001600160e01b031663a9059cbb60e01b1790526106a290849061074b565b505050565b3390565b6001600160a01b0381166106f05760405162461bcd60e51b81526004018080602001828103825260268152602001806109466026913960400191505060405180910390fd5b600080546040516001600160a01b03808516939216917f8be0079c531659141344cd1fd0a4f28419497f9722a3daafe3b4186f6b6457e091a3600080546001600160a01b0319166001600160a01b0392909216919091179055565b61075d826001600160a01b0316610909565b6107ae576040805162461bcd60e51b815260206004820152601f60248201527f5361666545524332303a2063616c6c20746f206e6f6e2d636f6e747261637400604482015290519081900360640190fd5b60006060836001600160a01b0316836040518082805190602001908083835b602083106107ec5780518252601f1990920191602091820191016107cd565b6001836020036101000a0380198251168184511680821785525050505050509050019150506000604051808303816000865af19150503d806000811461084e576040519150601f19603f3d011682016040523d82523d6000602084013e610853565b606091505b5091509150816108aa576040805162461bcd60e51b815260206004820181905260248201527f5361666545524332303a206c6f772d6c6576656c2063616c6c206661696c6564604482015290519081900360640190fd5b805115610903578080602001905160208110156108c657600080fd5b50516109035760405162461bcd60e51b815260040180806020018281038252602a81526020018061096c602a913960400191505060405180910390fd5b50505050565b6000813f7fc5d2460186f7233c927e7db2dcc703c0e500b653ca82273b7bfad8045d85a47081811480159061093d57508115155b94935050505056fe4f776e61626c653a206e6577206f776e657220697320746865207a65726f20616464726573735361666545524332303a204552433230206f7065726174696f6e20646964206e6f742073756363656564a265627a7a723158204eba89a78e0681d03e21fbc42f2e3a931dcb5e46624b06851ba5e5fe8c64ff0864736f6c63430005100032",
  "linkReferences": {},
  "deployedLinkReferences": {}
}