{
  "_format": "hh-sol-artifact-1",
  "contractName": "ONOTAirdrop",
  "sourceName": "contracts/Airdrop/ONOTAirdrop.sol",
  "abi": [
    {
      "inputs": [
        {
          "internalType": "address",
          "name": "_lemd",
          "type": "address"
        }
      ],
      "payable": false,
      "stateMutability": "nonpayable",
      "type": "constructor"
    },
    {
      "anonymous": false,
      "inputs": [
        {
          "indexed": true,
          "internalType": "address",
          "name": "previousOwner",
          "type": "address"
        },
        {
          "indexed": true,
          "internalType": "address",
          "name": "newOwner",
          "type": "address"
        }
      ],
      "name": "OwnershipTransferred",
      "type": "event"
    },
    {
      "anonymous": false,
      "inputs": [
        {
          "indexed": true,
          "internalType": "address",
          "name": "user",
          "type": "address"
        },
        {
          "indexed": false,
          "internalType": "uint256",
          "name": "amount",
          "type": "uint256"
        }
      ],
      "name": "Unpack",
      "type": "event"
    },
    {
      "constant": true,
      "inputs": [],
      "name": "Lemd",
      "outputs": [
        {
          "internalType": "contract IERC20",
          "name": "",
          "type": "address"
        }
      ],
      "payable": false,
      "stateMutability": "view",
      "type": "function"
    },
    {
      "constant": true,
      "inputs": [
        {
          "internalType": "address",
          "name": "",
          "type": "address"
        }
      ],
      "name": "airdropList",
      "outputs": [
        {
          "internalType": "uint256",
          "name": "",
          "type": "uint256"
        }
      ],
      "payable": false,
      "stateMutability": "view",
      "type": "function"
    },
    {
      "constant": true,
      "inputs": [
        {
          "internalType": "address",
          "name": "_userAddress",
          "type": "address"
        }
      ],
      "name": "getUser",
      "outputs": [
        {
          "internalType": "uint256",
          "name": "",
          "type": "uint256"
        }
      ],
      "payable": false,
      "stateMutability": "view",
      "type": "function"
    },
    {
      "constant": true,
      "inputs": [
        {
          "internalType": "uint256",
          "name": "upper",
          "type": "uint256"
        },
        {
          "internalType": "uint256",
          "name": "seed",
          "type": "uint256"
        },
        {
          "internalType": "uint256",
          "name": "salt",
          "type": "uint256"
        }
      ],
      "name": "importSeedFromThirdSalt",
      "outputs": [
        {
          "internalType": "uint256",
          "name": "",
          "type": "uint256"
        }
      ],
      "payable": false,
      "stateMutability": "view",
      "type": "function"
    },
    {
      "constant": true,
      "inputs": [],
      "name": "isOwner",
      "outputs": [
        {
          "internalType": "bool",
          "name": "",
          "type": "bool"
        }
      ],
      "payable": false,
      "stateMutability": "view",
      "type": "function"
    },
    {
      "constant": true,
      "inputs": [],
      "name": "owner",
      "outputs": [
        {
          "internalType": "address",
          "name": "",
          "type": "address"
        }
      ],
      "payable": false,
      "stateMutability": "view",
      "type": "function"
    },
    {
      "constant": false,
      "inputs": [],
      "name": "renounceOwnership",
      "outputs": [],
      "payable": false,
      "stateMutability": "nonpayable",
      "type": "function"
    },
    {
      "constant": false,
      "inputs": [
        {
          "internalType": "address",
          "name": "newOwner",
          "type": "address"
        }
      ],
      "name": "transferOwnership",
      "outputs": [],
      "payable": false,
      "stateMutability": "nonpayable",
      "type": "function"
    },
    {
      "constant": false,
      "inputs": [
        {
          "internalType": "bytes32",
          "name": "_ga",
          "type": "bytes32"
        }
      ],
      "name": "unpack",
      "outputs": [
        {
          "internalType": "uint256",
          "name": "",
          "type": "uint256"
        }
      ],
      "payable": false,
      "stateMutability": "nonpayable",
      "type": "function"
    }
  ],
  "bytecode": "0x6080604052600160025534801561001557600080fd5b50604051610ab6380380610ab68339818101604052602081101561003857600080fd5b5051600061004d6001600160e01b036100bc16565b600080546001600160a01b0319166001600160a01b0383169081178255604051929350917f8be0079c531659141344cd1fd0a4f28419497f9722a3daafe3b4186f6b6457e0908290a350600180546001600160a01b0319166001600160a01b03929092169190911790556100c0565b3390565b6109e7806100cf6000396000f3fe608060405234801561001057600080fd5b50600436106100935760003560e01c80637816d721116100665780637816d7211461011d5780638da5cb5b146101465780638f32d59b1461016a578063f2fde38b14610186578063fc436c7e146101ac57610093565b806358cf77fa146100985780636f77926b146100d0578063715018a6146100f657806371516dd914610100575b600080fd5b6100be600480360360208110156100ae57600080fd5b50356001600160a01b03166101b4565b60408051918252519081900360200190f35b6100be600480360360208110156100e657600080fd5b50356001600160a01b03166101c6565b6100fe6101e1565b005b6100be6004803603602081101561011657600080fd5b5035610284565b6100be6004803603606081101561013357600080fd5b50803590602081013590604001356104ba565b61014e610503565b604080516001600160a01b039092168252519081900360200190f35b610172610512565b604080519115158252519081900360200190f35b6100fe6004803603602081101561019c57600080fd5b50356001600160a01b0316610536565b61014e61059b565b60036020526000908152604090205481565b6001600160a01b031660009081526003602052604090205490565b6101e9610512565b61023a576040805162461bcd60e51b815260206004820181905260248201527f4f776e61626c653a2063616c6c6572206973206e6f7420746865206f776e6572604482015290519081900360640190fd5b600080546040516001600160a01b03909116907f8be0079c531659141344cd1fd0a4f28419497f9722a3daafe3b4186f6b6457e0908390a3600080546001600160a01b0319169055565b3360009081526003602052604081205461029d906105aa565b33600090815260036020526040902054156102ee576040805162461bcd60e51b815260206004820152600c60248201526b416c726561647920676f742160a01b604482015290519081900360640190fd5b604080513360601b60208083019190915282518083036014018152603490920190925280519101208214610352576040805162461bcd60e51b81526020600482015260066024820152654572726f722160d01b604482015290519081900360640190fd5b6000610381670de0b6b3a7640000610375671bc16d674ec80000600254446104ba565b9063ffffffff6105eb16565b600154604080516370a0823160e01b8152306004820152905192935083926001600160a01b03909216916370a0823191602480820192602092909190829003018186803b1580156103d157600080fd5b505afa1580156103e5573d6000803e3d6000fd5b505050506040513d60208110156103fb57600080fd5b505111610438576040805162461bcd60e51b8152602060048201526006602482015265456d7074792160d01b604482015290519081900360640190fd5b600154610455906001600160a01b0316338363ffffffff61064c16565b33600090815260036020526040902081905560025461047b90600163ffffffff6105eb16565b60025560408051828152905133917f59184da93971657061c8fdb55f885e42b2b69c3c25be12122258536062d640f3919081900360200190a250919050565b6040805142602080830191909152818301859052606080830185905283518084039091018152608090920190925280519101206000908481816104f957fe5b0695945050505050565b6000546001600160a01b031690565b600080546001600160a01b03166105276106a3565b6001600160a01b031614905090565b61053e610512565b61058f576040805162461bcd60e51b815260206004820181905260248201527f4f776e61626c653a2063616c6c6572206973206e6f7420746865206f776e6572604482015290519081900360640190fd5b610598816106a7565b50565b6001546001600160a01b031681565b6040805160248082018490528251808303909101815260449091019091526020810180516001600160e01b031663f5b1bba960e01b17905261059890610747565b600082820183811015610645576040805162461bcd60e51b815260206004820152601b60248201527f536166654d6174683a206164646974696f6e206f766572666c6f770000000000604482015290519081900360640190fd5b9392505050565b604080516001600160a01b038416602482015260448082018490528251808303909101815260649091019091526020810180516001600160e01b031663a9059cbb60e01b17905261069e908490610768565b505050565b3390565b6001600160a01b0381166106ec5760405162461bcd60e51b81526004018080602001828103825260268152602001806109636026913960400191505060405180910390fd5b600080546040516001600160a01b03808516939216917f8be0079c531659141344cd1fd0a4f28419497f9722a3daafe3b4186f6b6457e091a3600080546001600160a01b0319166001600160a01b0392909216919091179055565b80516a636f6e736f6c652e6c6f67602083016000808483855afa5050505050565b61077a826001600160a01b0316610926565b6107cb576040805162461bcd60e51b815260206004820152601f60248201527f5361666545524332303a2063616c6c20746f206e6f6e2d636f6e747261637400604482015290519081900360640190fd5b60006060836001600160a01b0316836040518082805190602001908083835b602083106108095780518252601f1990920191602091820191016107ea565b6001836020036101000a0380198251168184511680821785525050505050509050019150506000604051808303816000865af19150503d806000811461086b576040519150601f19603f3d011682016040523d82523d6000602084013e610870565b606091505b5091509150816108c7576040805162461bcd60e51b815260206004820181905260248201527f5361666545524332303a206c6f772d6c6576656c2063616c6c206661696c6564604482015290519081900360640190fd5b805115610920578080602001905160208110156108e357600080fd5b50516109205760405162461bcd60e51b815260040180806020018281038252602a815260200180610989602a913960400191505060405180910390fd5b50505050565b6000813f7fc5d2460186f7233c927e7db2dcc703c0e500b653ca82273b7bfad8045d85a47081811480159061095a57508115155b94935050505056fe4f776e61626c653a206e6577206f776e657220697320746865207a65726f20616464726573735361666545524332303a204552433230206f7065726174696f6e20646964206e6f742073756363656564a265627a7a72315820841226fcc0d6d14178485c8686159d2054e7e6620ac1255774a5d2004f1f18b364736f6c63430005100032",
  "linkReferences": {},
  "deployedLinkReferences": {}
}