{
  "_format": "hh-sol-artifact-1",
  "contractName": "LemdAirdropFundingManager",
  "sourceName": "contracts/Lend/governance/LemdAirdropFundingManager.sol",
  "abi": [
    {
      "anonymous": false,
      "inputs": [
        {
          "indexed": false,
          "internalType": "uint256",
          "name": "pid",
          "type": "uint256"
        }
      ],
      "name": "ClaimLemdFromLemdBreeder",
      "type": "event"
    },
    {
      "anonymous": false,
      "inputs": [
        {
          "indexed": true,
          "internalType": "address",
          "name": "previousOwner",
          "type": "address"
        },
        {
          "indexed": true,
          "internalType": "address",
          "name": "newOwner",
          "type": "address"
        }
      ],
      "name": "OwnershipTransferred",
      "type": "event"
    },
    {
      "anonymous": false,
      "inputs": [
        {
          "indexed": false,
          "internalType": "contract IERC20",
          "name": "token",
          "type": "address"
        },
        {
          "indexed": false,
          "internalType": "uint256",
          "name": "pid",
          "type": "uint256"
        },
        {
          "indexed": false,
          "internalType": "uint256",
          "name": "amount",
          "type": "uint256"
        }
      ],
      "name": "StakeTokenToLemdBreeder",
      "type": "event"
    },
    {
      "anonymous": false,
      "inputs": [
        {
          "indexed": false,
          "internalType": "contract IERC20",
          "name": "token",
          "type": "address"
        },
        {
          "indexed": false,
          "internalType": "uint256",
          "name": "pid",
          "type": "uint256"
        },
        {
          "indexed": false,
          "internalType": "uint256",
          "name": "amount",
          "type": "uint256"
        }
      ],
      "name": "UnStakeTokenFromLemdBreeder",
      "type": "event"
    },
    {
      "inputs": [
        {
          "internalType": "uint256",
          "name": "pid",
          "type": "uint256"
        }
      ],
      "name": "_claimLemdFromLemdBreeder",
      "outputs": [],
      "stateMutability": "nonpayable",
      "type": "function"
    },
    {
      "inputs": [
        {
          "internalType": "uint256",
          "name": "pid",
          "type": "uint256"
        }
      ],
      "name": "_stakeTokenToLemdBreeder",
      "outputs": [],
      "stateMutability": "nonpayable",
      "type": "function"
    },
    {
      "inputs": [
        {
          "internalType": "address",
          "name": "_to",
          "type": "address"
        },
        {
          "internalType": "uint256",
          "name": "_amount",
          "type": "uint256"
        }
      ],
      "name": "_transferLemd",
      "outputs": [],
      "stateMutability": "nonpayable",
      "type": "function"
    },
    {
      "inputs": [
        {
          "internalType": "uint256",
          "name": "pid",
          "type": "uint256"
        },
        {
          "internalType": "uint256",
          "name": "amount",
          "type": "uint256"
        }
      ],
      "name": "_unStakeTokenFromLemdBreeder",
      "outputs": [],
      "stateMutability": "nonpayable",
      "type": "function"
    },
    {
      "inputs": [
        {
          "internalType": "contract IERC20",
          "name": "_token",
          "type": "address"
        },
        {
          "internalType": "contract IERC20",
          "name": "_lemd",
          "type": "address"
        },
        {
          "internalType": "contract ILemdBreeder",
          "name": "_lemdBreeder",
          "type": "address"
        }
      ],
      "name": "initialize",
      "outputs": [],
      "stateMutability": "nonpayable",
      "type": "function"
    },
    {
      "inputs": [],
      "name": "lemd",
      "outputs": [
        {
          "internalType": "contract IERC20",
          "name": "",
          "type": "address"
        }
      ],
      "stateMutability": "view",
      "type": "function"
    },
    {
      "inputs": [],
      "name": "lemdBreeder",
      "outputs": [
        {
          "internalType": "contract ILemdBreeder",
          "name": "",
          "type": "address"
        }
      ],
      "stateMutability": "view",
      "type": "function"
    },
    {
      "inputs": [],
      "name": "owner",
      "outputs": [
        {
          "internalType": "address",
          "name": "",
          "type": "address"
        }
      ],
      "stateMutability": "view",
      "type": "function"
    },
    {
      "inputs": [],
      "name": "renounceOwnership",
      "outputs": [],
      "stateMutability": "nonpayable",
      "type": "function"
    },
    {
      "inputs": [],
      "name": "token",
      "outputs": [
        {
          "internalType": "contract IERC20",
          "name": "",
          "type": "address"
        }
      ],
      "stateMutability": "view",
      "type": "function"
    },
    {
      "inputs": [
        {
          "internalType": "address",
          "name": "newOwner",
          "type": "address"
        }
      ],
      "name": "transferOwnership",
      "outputs": [],
      "stateMutability": "nonpayable",
      "type": "function"
    }
  ],
  "bytecode": "0x608060405234801561001057600080fd5b50610da0806100206000396000f3fe608060405234801561001057600080fd5b50600436106100a95760003560e01c8063c0c53b8b11610071578063c0c53b8b14610148578063d851a6df14610180578063db66361514610188578063eb60157e146101a5578063f2fde38b146101ad578063fc0c546a146101d3576100a9565b80635155a38d146100ae5780635f21eccd146100dc578063715018a6146100ff5780638da5cb5b146101075780639dff82721461012b575b600080fd5b6100da600480360360408110156100c457600080fd5b506001600160a01b0381351690602001356101db565b005b6100da600480360360408110156100f257600080fd5b50803590602001356103c4565b6100da6104d9565b61010f61057b565b604080516001600160a01b039092168252519081900360200190f35b6100da6004803603602081101561014157600080fd5b503561058a565b6100da6004803603606081101561015e57600080fd5b506001600160a01b03813581169160208101358216916040909101351661079d565b61010f610887565b6100da6004803603602081101561019e57600080fd5b5035610896565b61010f61098a565b6100da600480360360208110156101c357600080fd5b50356001600160a01b0316610999565b61010f610a92565b6101e3610aa1565b6065546001600160a01b03908116911614610233576040805162461bcd60e51b81526020600482018190526024820152600080516020610d1d833981519152604482015290519081900360640190fd5b609754604080516370a0823160e01b815230600482015290516000926001600160a01b0316916370a08231916024808301926020929190829003018186803b15801561027e57600080fd5b505afa158015610292573d6000803e3d6000fd5b505050506040513d60208110156102a857600080fd5b505190508082111561033c576097546040805163a9059cbb60e01b81526001600160a01b038681166004830152602482018590529151919092169163a9059cbb9160448083019260209291908290030181600087803b15801561030a57600080fd5b505af115801561031e573d6000803e3d6000fd5b505050506040513d602081101561033457600080fd5b506103bf9050565b6097546040805163a9059cbb60e01b81526001600160a01b038681166004830152602482018690529151919092169163a9059cbb9160448083019260209291908290030181600087803b15801561039257600080fd5b505af11580156103a6573d6000803e3d6000fd5b505050506040513d60208110156103bc57600080fd5b50505b505050565b6103cc610aa1565b6065546001600160a01b0390811691161461041c576040805162461bcd60e51b81526020600482018190526024820152600080516020610d1d833981519152604482015290519081900360640190fd5b609954604080516306e595d760e31b8152600481018590526024810184905290516001600160a01b039092169163372caeb89160448082019260009290919082900301818387803b15801561047057600080fd5b505af1158015610484573d6000803e3d6000fd5b5050609854604080516001600160a01b03909216825260208201869052818101859052517faabf8e055cb455cd97acc92083d1d3eecb1739ffc141876b512b44db344d9dc19350908190036060019150a15050565b6104e1610aa1565b6065546001600160a01b03908116911614610531576040805162461bcd60e51b81526020600482018190526024820152600080516020610d1d833981519152604482015290519081900360640190fd5b6065546040516000916001600160a01b0316907f8be0079c531659141344cd1fd0a4f28419497f9722a3daafe3b4186f6b6457e0908390a3606580546001600160a01b0319169055565b6065546001600160a01b031690565b610592610aa1565b6065546001600160a01b039081169116146105e2576040805162461bcd60e51b81526020600482018190526024820152600080516020610d1d833981519152604482015290519081900360640190fd5b609854604080516370a0823160e01b815230600482015290516000926001600160a01b0316916370a08231916024808301926020929190829003018186803b15801561062d57600080fd5b505afa158015610641573d6000803e3d6000fd5b505050506040513d602081101561065757600080fd5b50516098546099546040805163095ea7b360e01b81526001600160a01b03928316600482015260248101859052905193945091169163095ea7b3916044808201926020929091908290030181600087803b1580156106b457600080fd5b505af11580156106c8573d6000803e3d6000fd5b505050506040513d60208110156106de57600080fd5b5050609954604080516307b0472f60e41b8152600481018590526024810184905290516001600160a01b0390921691637b0472f09160448082019260009290919082900301818387803b15801561073457600080fd5b505af1158015610748573d6000803e3d6000fd5b5050609854604080516001600160a01b03909216825260208201869052818101859052517f90387958605fcf4270bdb03df6aae51660511e79f5315305aac7338e914371fe9350908190036060019150a15050565b600054610100900460ff16806107b657506107b6610aa5565b806107c4575060005460ff16155b6107ff5760405162461bcd60e51b815260040180806020018281038252602e815260200180610d3d602e913960400191505060405180910390fd5b600054610100900460ff1615801561082a576000805460ff1961ff0019909116610100171660011790555b609880546001600160a01b038087166001600160a01b03199283161790925560978054868416908316179055609980549285169290911691909117905561086f610aab565b8015610881576000805461ff00191690555b50505050565b6099546001600160a01b031681565b61089e610aa1565b6065546001600160a01b039081169116146108ee576040805162461bcd60e51b81526020600482018190526024820152600080516020610d1d833981519152604482015290519081900360640190fd5b6099546040805163379607f560e01b81526004810184905290516001600160a01b039092169163379607f59160248082019260009290919082900301818387803b15801561093b57600080fd5b505af115801561094f573d6000803e3d6000fd5b50506040805184815290517f6038da5812b162fcbe45d51831ba9b6bb02aacad1377cb60fdce8a734039db249350908190036020019150a150565b6097546001600160a01b031681565b6109a1610aa1565b6065546001600160a01b039081169116146109f1576040805162461bcd60e51b81526020600482018190526024820152600080516020610d1d833981519152604482015290519081900360640190fd5b6001600160a01b038116610a365760405162461bcd60e51b8152600401808060200182810382526026815260200180610cf76026913960400191505060405180910390fd5b6065546040516001600160a01b038084169216907f8be0079c531659141344cd1fd0a4f28419497f9722a3daafe3b4186f6b6457e090600090a3606580546001600160a01b0319166001600160a01b0392909216919091179055565b6098546001600160a01b031681565b3390565b303b1590565b600054610100900460ff1680610ac45750610ac4610aa5565b80610ad2575060005460ff16155b610b0d5760405162461bcd60e51b815260040180806020018281038252602e815260200180610d3d602e913960400191505060405180910390fd5b600054610100900460ff16158015610b38576000805460ff1961ff0019909116610100171660011790555b610b40610b5d565b610b48610bfd565b8015610b5a576000805461ff00191690555b50565b600054610100900460ff1680610b765750610b76610aa5565b80610b84575060005460ff16155b610bbf5760405162461bcd60e51b815260040180806020018281038252602e815260200180610d3d602e913960400191505060405180910390fd5b600054610100900460ff16158015610b48576000805460ff1961ff0019909116610100171660011790558015610b5a576000805461ff001916905550565b600054610100900460ff1680610c165750610c16610aa5565b80610c24575060005460ff16155b610c5f5760405162461bcd60e51b815260040180806020018281038252602e815260200180610d3d602e913960400191505060405180910390fd5b600054610100900460ff16158015610c8a576000805460ff1961ff0019909116610100171660011790555b6000610c94610aa1565b606580546001600160a01b0319166001600160a01b038316908117909155604051919250906000907f8be0079c531659141344cd1fd0a4f28419497f9722a3daafe3b4186f6b6457e0908290a3508015610b5a576000805461ff00191690555056fe4f776e61626c653a206e6577206f776e657220697320746865207a65726f20616464726573734f776e61626c653a2063616c6c6572206973206e6f7420746865206f776e6572436f6e747261637420696e7374616e63652068617320616c7265616479206265656e20696e697469616c697a6564a26469706673582212206659b77091fcc38bb43af945deb70111535308f4e9e918a11f13fc7a2bf682f264736f6c634300060c0033",
  "linkReferences": {},
  "deployedLinkReferences": {}
}