{
  "_format": "hh-sol-artifact-1",
  "contractName": "JumpRateModel",
  "sourceName": "contracts/Lend/rate/JumpRateModel.sol",
  "abi": [
    {
      "anonymous": false,
      "inputs": [
        {
          "indexed": false,
          "internalType": "uint256",
          "name": "baseRatePerBlock",
          "type": "uint256"
        },
        {
          "indexed": false,
          "internalType": "uint256",
          "name": "multiplierPerBlock",
          "type": "uint256"
        },
        {
          "indexed": false,
          "internalType": "uint256",
          "name": "jumpMultiplierPerBlock",
          "type": "uint256"
        },
        {
          "indexed": false,
          "internalType": "uint256",
          "name": "kink",
          "type": "uint256"
        }
      ],
      "name": "NewInterestParams",
      "type": "event"
    },
    {
      "anonymous": false,
      "inputs": [
        {
          "indexed": true,
          "internalType": "address",
          "name": "previousOwner",
          "type": "address"
        },
        {
          "indexed": true,
          "internalType": "address",
          "name": "newOwner",
          "type": "address"
        }
      ],
      "name": "OwnershipTransferred",
      "type": "event"
    },
    {
      "inputs": [],
      "name": "baseRatePerBlock",
      "outputs": [
        {
          "internalType": "uint256",
          "name": "",
          "type": "uint256"
        }
      ],
      "stateMutability": "view",
      "type": "function"
    },
    {
      "inputs": [],
      "name": "blocksPerYear",
      "outputs": [
        {
          "internalType": "uint256",
          "name": "",
          "type": "uint256"
        }
      ],
      "stateMutability": "view",
      "type": "function"
    },
    {
      "inputs": [
        {
          "internalType": "uint256",
          "name": "cash",
          "type": "uint256"
        },
        {
          "internalType": "uint256",
          "name": "borrows",
          "type": "uint256"
        },
        {
          "internalType": "uint256",
          "name": "reserves",
          "type": "uint256"
        }
      ],
      "name": "getBorrowRate",
      "outputs": [
        {
          "internalType": "uint256",
          "name": "",
          "type": "uint256"
        }
      ],
      "stateMutability": "view",
      "type": "function"
    },
    {
      "inputs": [
        {
          "internalType": "uint256",
          "name": "cash",
          "type": "uint256"
        },
        {
          "internalType": "uint256",
          "name": "borrows",
          "type": "uint256"
        },
        {
          "internalType": "uint256",
          "name": "reserves",
          "type": "uint256"
        },
        {
          "internalType": "uint256",
          "name": "reserveFactorMantissa",
          "type": "uint256"
        }
      ],
      "name": "getSupplyRate",
      "outputs": [
        {
          "internalType": "uint256",
          "name": "",
          "type": "uint256"
        }
      ],
      "stateMutability": "view",
      "type": "function"
    },
    {
      "inputs": [
        {
          "internalType": "uint256",
          "name": "baseRatePerYear",
          "type": "uint256"
        },
        {
          "internalType": "uint256",
          "name": "multiplierPerYear",
          "type": "uint256"
        },
        {
          "internalType": "uint256",
          "name": "jumpMultiplierPerYear",
          "type": "uint256"
        },
        {
          "internalType": "uint256",
          "name": "kink_",
          "type": "uint256"
        }
      ],
      "name": "initialize",
      "outputs": [],
      "stateMutability": "nonpayable",
      "type": "function"
    },
    {
      "inputs": [],
      "name": "jumpMultiplierPerBlock",
      "outputs": [
        {
          "internalType": "uint256",
          "name": "",
          "type": "uint256"
        }
      ],
      "stateMutability": "view",
      "type": "function"
    },
    {
      "inputs": [],
      "name": "kink",
      "outputs": [
        {
          "internalType": "uint256",
          "name": "",
          "type": "uint256"
        }
      ],
      "stateMutability": "view",
      "type": "function"
    },
    {
      "inputs": [],
      "name": "multiplierPerBlock",
      "outputs": [
        {
          "internalType": "uint256",
          "name": "",
          "type": "uint256"
        }
      ],
      "stateMutability": "view",
      "type": "function"
    },
    {
      "inputs": [],
      "name": "owner",
      "outputs": [
        {
          "internalType": "address",
          "name": "",
          "type": "address"
        }
      ],
      "stateMutability": "view",
      "type": "function"
    },
    {
      "inputs": [],
      "name": "renounceOwnership",
      "outputs": [],
      "stateMutability": "nonpayable",
      "type": "function"
    },
    {
      "inputs": [
        {
          "internalType": "address",
          "name": "newOwner",
          "type": "address"
        }
      ],
      "name": "transferOwnership",
      "outputs": [],
      "stateMutability": "nonpayable",
      "type": "function"
    },
    {
      "inputs": [
        {
          "internalType": "uint256",
          "name": "baseRatePerYear",
          "type": "uint256"
        },
        {
          "internalType": "uint256",
          "name": "multiplierPerYear",
          "type": "uint256"
        },
        {
          "internalType": "uint256",
          "name": "jumpMultiplierPerYear",
          "type": "uint256"
        },
        {
          "internalType": "uint256",
          "name": "kink_",
          "type": "uint256"
        }
      ],
      "name": "updateJumpRateModel",
      "outputs": [],
      "stateMutability": "nonpayable",
      "type": "function"
    },
    {
      "inputs": [
        {
          "internalType": "uint256",
          "name": "cash",
          "type": "uint256"
        },
        {
          "internalType": "uint256",
          "name": "borrows",
          "type": "uint256"
        },
        {
          "internalType": "uint256",
          "name": "reserves",
          "type": "uint256"
        }
      ],
      "name": "utilizationRate",
      "outputs": [
        {
          "internalType": "uint256",
          "name": "",
          "type": "uint256"
        }
      ],
      "stateMutability": "pure",
      "type": "function"
    }
  ],
  "bytecode": "0x608060405234801561001057600080fd5b50610ccb806100206000396000f3fe608060405234801561001057600080fd5b50600436106100cf5760003560e01c80638da5cb5b1161008c578063b9f9850a11610066578063b9f9850a14610203578063f14039de1461020b578063f2fde38b14610213578063fd2da33914610239576100cf565b80638da5cb5b146101a8578063a385fb96146101cc578063b8168816146101d4576100cf565b806315f24053146100d45780632037f3e71461010f57806360a2da44146101405780636e71e2d81461016f578063715018a6146101985780638726bb89146101a0575b600080fd5b6100fd600480360360608110156100ea57600080fd5b5080359060208101359060400135610241565b60408051918252519081900360200190f35b61013e6004803603608081101561012557600080fd5b5080359060208101359060408101359060600135610258565b005b61013e6004803603608081101561015657600080fd5b508035906020810135906040810135906060013561026a565b6100fd6004803603606081101561018557600080fd5b5080359060208101359060400135610324565b61013e610362565b6100fd610416565b6101b061041c565b604080516001600160a01b039092168252519081900360200190f35b6100fd61042b565b6100fd600480360360808110156101ea57600080fd5b5080359060208101359060408101359060600135610432565b6100fd610449565b6100fd61044f565b61013e6004803603602081101561022957600080fd5b50356001600160a01b0316610455565b6100fd610560565b600061024e848484610566565b90505b9392505050565b61026484848484610629565b50505050565b600054610100900460ff16806102835750610283610722565b80610291575060005460ff16155b6102cc5760405162461bcd60e51b815260040180806020018281038252602e815260200180610c68602e913960400191505060405180910390fd5b600054610100900460ff161580156102f7576000805460ff1961ff0019909116610100171660011790555b6102ff610728565b61030b85858585610629565b801561031d576000805461ff00191690555b5050505050565b60008261033357506000610251565b61024e61034a8361034487876107da565b9061083d565b61035c85670de0b6b3a764000061087f565b906108d8565b61036a61091a565b6065546001600160a01b039081169116146103cc576040805162461bcd60e51b815260206004820181905260248201527f4f776e61626c653a2063616c6c6572206973206e6f7420746865206f776e6572604482015290519081900360640190fd5b6065546040516000916001600160a01b0316907f8be0079c531659141344cd1fd0a4f28419497f9722a3daafe3b4186f6b6457e0908390a3606580546001600160a01b0319169055565b60975481565b6065546001600160a01b031690565b6220148081565b60006104408585858561091e565b95945050505050565b60995481565b60985481565b61045d61091a565b6065546001600160a01b039081169116146104bf576040805162461bcd60e51b815260206004820181905260248201527f4f776e61626c653a2063616c6c6572206973206e6f7420746865206f776e6572604482015290519081900360640190fd5b6001600160a01b0381166105045760405162461bcd60e51b8152600401808060200182810382526026815260200180610c216026913960400191505060405180910390fd5b6065546040516001600160a01b038084169216907f8be0079c531659141344cd1fd0a4f28419497f9722a3daafe3b4186f6b6457e090600090a3606580546001600160a01b0319166001600160a01b0392909216919091179055565b609a5481565b600080610574858585610324565b9050609a5481116105b4576105ac6098546105a6670de0b6b3a764000061035c6097548661087f90919063ffffffff16565b906107da565b915050610251565b60006105df6098546105a6670de0b6b3a764000061035c609754609a5461087f90919063ffffffff16565b905060006105f8609a548461083d90919063ffffffff16565b905061061f826105a6670de0b6b3a764000061035c6099548661087f90919063ffffffff16565b9350505050610251565b61063161091a565b6065546001600160a01b03908116911614610693576040805162461bcd60e51b815260206004820181905260248201527f4f776e61626c653a2063616c6c6572206973206e6f7420746865206f776e6572604482015290519081900360640190fd5b6106a084622014806108d8565b6098556106b361034a622014808361087f565b6097556106c382622014806108d8565b6099819055609a829055609854609754604080519283526020830191909152818101929092526060810183905290517f6960ab234c7ef4b0c9197100f5393cfcde7c453ac910a27bd2000aa1dd4c068d9181900360800190a150505050565b303b1590565b600054610100900460ff16806107415750610741610722565b8061074f575060005460ff16155b61078a5760405162461bcd60e51b815260040180806020018281038252602e815260200180610c68602e913960400191505060405180910390fd5b600054610100900460ff161580156107b5576000805460ff1961ff0019909116610100171660011790555b6107bd61098b565b6107c5610a2b565b80156107d7576000805461ff00191690555b50565b600082820183811015610834576040805162461bcd60e51b815260206004820152601b60248201527f536166654d6174683a206164646974696f6e206f766572666c6f770000000000604482015290519081900360640190fd5b90505b92915050565b600061083483836040518060400160405280601e81526020017f536166654d6174683a207375627472616374696f6e206f766572666c6f770000815250610b24565b60008261088e57506000610837565b8282028284828161089b57fe5b04146108345760405162461bcd60e51b8152600401808060200182810382526021815260200180610c476021913960400191505060405180910390fd5b600061083483836040518060400160405280601a81526020017f536166654d6174683a206469766973696f6e206279207a65726f000000000000815250610bbb565b3390565b600080610933670de0b6b3a76400008461083d565b90506000610942878787610566565b9050600061095c670de0b6b3a764000061035c848661087f565b905061097f670de0b6b3a764000061035c836109798c8c8c610324565b9061087f565b98975050505050505050565b600054610100900460ff16806109a457506109a4610722565b806109b2575060005460ff16155b6109ed5760405162461bcd60e51b815260040180806020018281038252602e815260200180610c68602e913960400191505060405180910390fd5b600054610100900460ff161580156107c5576000805460ff1961ff00199091166101001716600117905580156107d7576000805461ff001916905550565b600054610100900460ff1680610a445750610a44610722565b80610a52575060005460ff16155b610a8d5760405162461bcd60e51b815260040180806020018281038252602e815260200180610c68602e913960400191505060405180910390fd5b600054610100900460ff16158015610ab8576000805460ff1961ff0019909116610100171660011790555b6000610ac261091a565b606580546001600160a01b0319166001600160a01b038316908117909155604051919250906000907f8be0079c531659141344cd1fd0a4f28419497f9722a3daafe3b4186f6b6457e0908290a35080156107d7576000805461ff001916905550565b60008184841115610bb35760405162461bcd60e51b81526004018080602001828103825283818151815260200191508051906020019080838360005b83811015610b78578181015183820152602001610b60565b50505050905090810190601f168015610ba55780820380516001836020036101000a031916815260200191505b509250505060405180910390fd5b505050900390565b60008183610c0a5760405162461bcd60e51b8152602060048201818152835160248401528351909283926044909101919085019080838360008315610b78578181015183820152602001610b60565b506000838581610c1657fe5b049594505050505056fe4f776e61626c653a206e6577206f776e657220697320746865207a65726f2061646472657373536166654d6174683a206d756c7469706c69636174696f6e206f766572666c6f77436f6e747261637420696e7374616e63652068617320616c7265616479206265656e20696e697469616c697a6564a2646970667358221220f8aa2f0211170de5e41fe4848beb594bbe4e0fb0dbae528306d5e50e4e4ac0ad64736f6c634300060c0033",
  "linkReferences": {},
  "deployedLinkReferences": {}
}