{
  "_format": "hh-sol-artifact-1",
  "contractName": "SimplePriceOracle",
  "sourceName": "contracts/Lend/oracle/SimplePriceOracle.sol",
  "abi": [
    {
      "anonymous": false,
      "inputs": [
        {
          "indexed": true,
          "internalType": "address",
          "name": "previousOwner",
          "type": "address"
        },
        {
          "indexed": true,
          "internalType": "address",
          "name": "newOwner",
          "type": "address"
        }
      ],
      "name": "OwnershipTransferred",
      "type": "event"
    },
    {
      "anonymous": false,
      "inputs": [
        {
          "indexed": false,
          "internalType": "address",
          "name": "asset",
          "type": "address"
        },
        {
          "indexed": false,
          "internalType": "uint256",
          "name": "previousPriceMantissa",
          "type": "uint256"
        },
        {
          "indexed": false,
          "internalType": "uint256",
          "name": "requestedPriceMantissa",
          "type": "uint256"
        },
        {
          "indexed": false,
          "internalType": "uint256",
          "name": "newPriceMantissa",
          "type": "uint256"
        },
        {
          "indexed": false,
          "internalType": "uint256",
          "name": "timestamp",
          "type": "uint256"
        }
      ],
      "name": "PricePosted",
      "type": "event"
    },
    {
      "inputs": [
        {
          "internalType": "address",
          "name": "asset",
          "type": "address"
        }
      ],
      "name": "get",
      "outputs": [
        {
          "internalType": "uint256",
          "name": "",
          "type": "uint256"
        },
        {
          "internalType": "uint256",
          "name": "",
          "type": "uint256"
        }
      ],
      "stateMutability": "view",
      "type": "function"
    },
    {
      "inputs": [
        {
          "internalType": "address",
          "name": "asset",
          "type": "address"
        }
      ],
      "name": "getPrice",
      "outputs": [
        {
          "internalType": "uint256",
          "name": "",
          "type": "uint256"
        }
      ],
      "stateMutability": "view",
      "type": "function"
    },
    {
      "inputs": [
        {
          "internalType": "contract LToken",
          "name": "lToken",
          "type": "address"
        }
      ],
      "name": "getUnderlyingPrice",
      "outputs": [
        {
          "internalType": "uint256",
          "name": "",
          "type": "uint256"
        }
      ],
      "stateMutability": "view",
      "type": "function"
    },
    {
      "inputs": [],
      "name": "initialize",
      "outputs": [],
      "stateMutability": "nonpayable",
      "type": "function"
    },
    {
      "inputs": [],
      "name": "owner",
      "outputs": [
        {
          "internalType": "address",
          "name": "",
          "type": "address"
        }
      ],
      "stateMutability": "view",
      "type": "function"
    },
    {
      "inputs": [],
      "name": "renounceOwnership",
      "outputs": [],
      "stateMutability": "nonpayable",
      "type": "function"
    },
    {
      "inputs": [
        {
          "internalType": "address",
          "name": "asset",
          "type": "address"
        },
        {
          "internalType": "uint256",
          "name": "price",
          "type": "uint256"
        }
      ],
      "name": "setPrice",
      "outputs": [],
      "stateMutability": "nonpayable",
      "type": "function"
    },
    {
      "inputs": [
        {
          "internalType": "contract LToken",
          "name": "lToken",
          "type": "address"
        },
        {
          "internalType": "uint256",
          "name": "price",
          "type": "uint256"
        }
      ],
      "name": "setUnderlyingPrice",
      "outputs": [],
      "stateMutability": "nonpayable",
      "type": "function"
    },
    {
      "inputs": [
        {
          "internalType": "address",
          "name": "newOwner",
          "type": "address"
        }
      ],
      "name": "transferOwnership",
      "outputs": [],
      "stateMutability": "nonpayable",
      "type": "function"
    }
  ],
  "bytecode": "0x608060405234801561001057600080fd5b50610d18806100206000396000f3fe608060405234801561001057600080fd5b50600436106100925760003560e01c80638129fc1c116100665780638129fc1c146101315780638da5cb5b14610139578063c2bc2efc1461015d578063f2fde38b1461019c578063fc57d4df146101c257610092565b8062e4768b14610097578063127ffda0146100c557806341976e09146100f1578063715018a614610129575b600080fd5b6100c3600480360360408110156100ad57600080fd5b506001600160a01b0381351690602001356101e8565b005b6100c3600480360360408110156100db57600080fd5b506001600160a01b0381351690602001356102e6565b6101176004803603602081101561010757600080fd5b50356001600160a01b0316610594565b60408051918252519081900360200190f35b6100c36105b6565b6100c3610658565b610141610728565b604080516001600160a01b039092168252519081900360200190f35b6101836004803603602081101561017357600080fd5b50356001600160a01b0316610737565b6040805192835260208301919091528051918290030190f35b6100c3600480360360208110156101b257600080fd5b50356001600160a01b031661075a565b610117600480360360208110156101d857600080fd5b50356001600160a01b0316610853565b6101f0610947565b6065546001600160a01b03908116911614610240576040805162461bcd60e51b81526020600482018190526024820152600080516020610c95833981519152604482015290519081900360640190fd5b6001600160a01b03821660008181526097602090815260409182902060010154825193845290830152818101839052606082018390524260808301819052905190917fe1835c6d053ab96fb521e0b87fcdb281ca989d57558df21dde4f093b50e8a20e919081900360a00190a160408051808201825291825260208083019384526001600160a01b03909416600090815260979094529092209151825551600190910155565b6102ee610947565b6065546001600160a01b0390811691161461033e576040805162461bcd60e51b81526020600482018190526024820152600080516020610c95833981519152604482015290519081900360640190fd5b6000609860009054906101000a90046001600160a01b0316905061049d836001600160a01b03166395d89b416040518163ffffffff1660e01b815260040160006040518083038186803b15801561039457600080fd5b505afa1580156103a8573d6000803e3d6000fd5b505050506040513d6000823e601f3d908101601f1916820160405260208110156103d157600080fd5b81019080805160405193929190846401000000008211156103f157600080fd5b90830190602082018581111561040657600080fd5b825164010000000081118282018810171561042057600080fd5b82525081516020918201929091019080838360005b8381101561044d578181015183820152602001610435565b50505050905090810190601f16801561047a5780820380516001836020036101000a031916815260200191505b506040818101905260048152630e08aa8960e31b6020820152925061094b915050565b61050957826001600160a01b0316636f307dc36040518163ffffffff1660e01b815260040160206040518083038186803b1580156104da57600080fd5b505afa1580156104ee573d6000803e3d6000fd5b505050506040513d602081101561050457600080fd5b505190505b6040805180820182524280825260208083018681526001600160a01b0386166000818152609784528690209451855590516001909401849055845190815290810192909252818301859052606082018590526080820181905291517fe1835c6d053ab96fb521e0b87fcdb281ca989d57558df21dde4f093b50e8a20e9181900360a00190a150505050565b6001600160a01b0381166000908152609760205260409020600101545b919050565b6105be610947565b6065546001600160a01b0390811691161461060e576040805162461bcd60e51b81526020600482018190526024820152600080516020610c95833981519152604482015290519081900360640190fd5b6065546040516000916001600160a01b0316907f8be0079c531659141344cd1fd0a4f28419497f9722a3daafe3b4186f6b6457e0908390a3606580546001600160a01b0319169055565b600054610100900460ff16806106715750610671610a32565b8061067f575060005460ff16155b6106ba5760405162461bcd60e51b815260040180806020018281038252602e815260200180610cb5602e913960400191505060405180910390fd5b600054610100900460ff161580156106e5576000805460ff1961ff0019909116610100171660011790555b609880546001600160a01b03191673eeeeeeeeeeeeeeeeeeeeeeeeeeeeeeeeeeeeeeee179055610713610a38565b8015610725576000805461ff00191690555b50565b6065546001600160a01b031690565b6001600160a01b0316600090815260976020526040902080546001909101549091565b610762610947565b6065546001600160a01b039081169116146107b2576040805162461bcd60e51b81526020600482018190526024820152600080516020610c95833981519152604482015290519081900360640190fd5b6001600160a01b0381166107f75760405162461bcd60e51b8152600401808060200182810382526026815260200180610c6f6026913960400191505060405180910390fd5b6065546040516001600160a01b038084169216907f8be0079c531659141344cd1fd0a4f28419497f9722a3daafe3b4186f6b6457e090600090a3606580546001600160a01b0319166001600160a01b0392909216919091179055565b6000610891826001600160a01b03166395d89b416040518163ffffffff1660e01b815260040160006040518083038186803b15801561039457600080fd5b156108ba57506098546001600160a01b03166000908152609760205260409020600101546105b1565b60976000836001600160a01b0316636f307dc36040518163ffffffff1660e01b815260040160206040518083038186803b1580156108f757600080fd5b505afa15801561090b573d6000803e3d6000fd5b505050506040513d602081101561092157600080fd5b50516001600160a01b0316815260208101919091526040016000206001015490506105b1565b3390565b6000816040516020018082805190602001908083835b602083106109805780518252601f199092019160209182019101610961565b6001836020036101000a03801982511681845116808217855250505050505090500191505060405160208183030381529060405280519060200120836040516020018082805190602001908083835b602083106109ee5780518252601f1990920191602091820191016109cf565b6001836020036101000a0380198251168184511680821785525050505050509050019150506040516020818303038152906040528051906020012014905092915050565b303b1590565b600054610100900460ff1680610a515750610a51610a32565b80610a5f575060005460ff16155b610a9a5760405162461bcd60e51b815260040180806020018281038252602e815260200180610cb5602e913960400191505060405180910390fd5b600054610100900460ff16158015610ac5576000805460ff1961ff0019909116610100171660011790555b610acd610ad5565b610713610b75565b600054610100900460ff1680610aee5750610aee610a32565b80610afc575060005460ff16155b610b375760405162461bcd60e51b815260040180806020018281038252602e815260200180610cb5602e913960400191505060405180910390fd5b600054610100900460ff16158015610713576000805460ff1961ff0019909116610100171660011790558015610725576000805461ff001916905550565b600054610100900460ff1680610b8e5750610b8e610a32565b80610b9c575060005460ff16155b610bd75760405162461bcd60e51b815260040180806020018281038252602e815260200180610cb5602e913960400191505060405180910390fd5b600054610100900460ff16158015610c02576000805460ff1961ff0019909116610100171660011790555b6000610c0c610947565b606580546001600160a01b0319166001600160a01b038316908117909155604051919250906000907f8be0079c531659141344cd1fd0a4f28419497f9722a3daafe3b4186f6b6457e0908290a3508015610725576000805461ff00191690555056fe4f776e61626c653a206e6577206f776e657220697320746865207a65726f20616464726573734f776e61626c653a2063616c6c6572206973206e6f7420746865206f776e6572436f6e747261637420696e7374616e63652068617320616c7265616479206265656e20696e697469616c697a6564a264697066735822122030d318d204b9b3a93208407de730d24d7cdc0522bde51aa4d9f97fcc941b924964736f6c634300060c0033",
  "linkReferences": {},
  "deployedLinkReferences": {}
}