{
  "_format": "hh-sol-artifact-1",
  "contractName": "CCompLikeDelegate",
  "sourceName": "contracts/Lend/CCompLikeDelegate.sol",
  "abi": [
    {
      "inputs": [],
      "payable": false,
      "stateMutability": "nonpayable",
      "type": "constructor"
    },
    {
      "anonymous": false,
      "inputs": [
        {
          "indexed": false,
          "internalType": "uint256",
          "name": "cashPrior",
          "type": "uint256"
        },
        {
          "indexed": false,
          "internalType": "uint256",
          "name": "interestAccumulated",
          "type": "uint256"
        },
        {
          "indexed": false,
          "internalType": "uint256",
          "name": "borrowIndex",
          "type": "uint256"
        },
        {
          "indexed": false,
          "internalType": "uint256",
          "name": "totalBorrows",
          "type": "uint256"
        }
      ],
      "name": "AccrueInterest",
      "type": "event"
    },
    {
      "anonymous": false,
      "inputs": [
        {
          "indexed": true,
          "internalType": "address",
          "name": "owner",
          "type": "address"
        },
        {
          "indexed": true,
          "internalType": "address",
          "name": "spender",
          "type": "address"
        },
        {
          "indexed": false,
          "internalType": "uint256",
          "name": "amount",
          "type": "uint256"
        }
      ],
      "name": "Approval",
      "type": "event"
    },
    {
      "anonymous": false,
      "inputs": [
        {
          "indexed": false,
          "internalType": "address",
          "name": "borrower",
          "type": "address"
        },
        {
          "indexed": false,
          "internalType": "uint256",
          "name": "borrowAmount",
          "type": "uint256"
        },
        {
          "indexed": false,
          "internalType": "uint256",
          "name": "accountBorrows",
          "type": "uint256"
        },
        {
          "indexed": false,
          "internalType": "uint256",
          "name": "totalBorrows",
          "type": "uint256"
        }
      ],
      "name": "Borrow",
      "type": "event"
    },
    {
      "anonymous": false,
      "inputs": [
        {
          "indexed": false,
          "internalType": "uint256",
          "name": "error",
          "type": "uint256"
        },
        {
          "indexed": false,
          "internalType": "uint256",
          "name": "info",
          "type": "uint256"
        },
        {
          "indexed": false,
          "internalType": "uint256",
          "name": "detail",
          "type": "uint256"
        }
      ],
      "name": "Failure",
      "type": "event"
    },
    {
      "anonymous": false,
      "inputs": [
        {
          "indexed": false,
          "internalType": "address",
          "name": "liquidator",
          "type": "address"
        },
        {
          "indexed": false,
          "internalType": "address",
          "name": "borrower",
          "type": "address"
        },
        {
          "indexed": false,
          "internalType": "uint256",
          "name": "repayAmount",
          "type": "uint256"
        },
        {
          "indexed": false,
          "internalType": "address",
          "name": "cTokenCollateral",
          "type": "address"
        },
        {
          "indexed": false,
          "internalType": "uint256",
          "name": "seizeTokens",
          "type": "uint256"
        }
      ],
      "name": "LiquidateBorrow",
      "type": "event"
    },
    {
      "anonymous": false,
      "inputs": [
        {
          "indexed": false,
          "internalType": "address",
          "name": "minter",
          "type": "address"
        },
        {
          "indexed": false,
          "internalType": "uint256",
          "name": "mintAmount",
          "type": "uint256"
        },
        {
          "indexed": false,
          "internalType": "uint256",
          "name": "mintTokens",
          "type": "uint256"
        }
      ],
      "name": "Mint",
      "type": "event"
    },
    {
      "anonymous": false,
      "inputs": [
        {
          "indexed": false,
          "internalType": "address",
          "name": "oldAdmin",
          "type": "address"
        },
        {
          "indexed": false,
          "internalType": "address",
          "name": "newAdmin",
          "type": "address"
        }
      ],
      "name": "NewAdmin",
      "type": "event"
    },
    {
      "anonymous": false,
      "inputs": [
        {
          "indexed": false,
          "internalType": "contract ComptrollerInterface",
          "name": "oldComptroller",
          "type": "address"
        },
        {
          "indexed": false,
          "internalType": "contract ComptrollerInterface",
          "name": "newComptroller",
          "type": "address"
        }
      ],
      "name": "NewComptroller",
      "type": "event"
    },
    {
      "anonymous": false,
      "inputs": [
        {
          "indexed": false,
          "internalType": "contract InterestRateModel",
          "name": "oldInterestRateModel",
          "type": "address"
        },
        {
          "indexed": false,
          "internalType": "contract InterestRateModel",
          "name": "newInterestRateModel",
          "type": "address"
        }
      ],
      "name": "NewMarketInterestRateModel",
      "type": "event"
    },
    {
      "anonymous": false,
      "inputs": [
        {
          "indexed": false,
          "internalType": "address",
          "name": "oldPendingAdmin",
          "type": "address"
        },
        {
          "indexed": false,
          "internalType": "address",
          "name": "newPendingAdmin",
          "type": "address"
        }
      ],
      "name": "NewPendingAdmin",
      "type": "event"
    },
    {
      "anonymous": false,
      "inputs": [
        {
          "indexed": false,
          "internalType": "uint256",
          "name": "oldReserveFactorMantissa",
          "type": "uint256"
        },
        {
          "indexed": false,
          "internalType": "uint256",
          "name": "newReserveFactorMantissa",
          "type": "uint256"
        }
      ],
      "name": "NewReserveFactor",
      "type": "event"
    },
    {
      "anonymous": false,
      "inputs": [
        {
          "indexed": false,
          "internalType": "address",
          "name": "redeemer",
          "type": "address"
        },
        {
          "indexed": false,
          "internalType": "uint256",
          "name": "redeemAmount",
          "type": "uint256"
        },
        {
          "indexed": false,
          "internalType": "uint256",
          "name": "redeemTokens",
          "type": "uint256"
        }
      ],
      "name": "Redeem",
      "type": "event"
    },
    {
      "anonymous": false,
      "inputs": [
        {
          "indexed": false,
          "internalType": "address",
          "name": "payer",
          "type": "address"
        },
        {
          "indexed": false,
          "internalType": "address",
          "name": "borrower",
          "type": "address"
        },
        {
          "indexed": false,
          "internalType": "uint256",
          "name": "repayAmount",
          "type": "uint256"
        },
        {
          "indexed": false,
          "internalType": "uint256",
          "name": "accountBorrows",
          "type": "uint256"
        },
        {
          "indexed": false,
          "internalType": "uint256",
          "name": "totalBorrows",
          "type": "uint256"
        }
      ],
      "name": "RepayBorrow",
      "type": "event"
    },
    {
      "anonymous": false,
      "inputs": [
        {
          "indexed": false,
          "internalType": "address",
          "name": "benefactor",
          "type": "address"
        },
        {
          "indexed": false,
          "internalType": "uint256",
          "name": "addAmount",
          "type": "uint256"
        },
        {
          "indexed": false,
          "internalType": "uint256",
          "name": "newTotalReserves",
          "type": "uint256"
        }
      ],
      "name": "ReservesAdded",
      "type": "event"
    },
    {
      "anonymous": false,
      "inputs": [
        {
          "indexed": false,
          "internalType": "address",
          "name": "admin",
          "type": "address"
        },
        {
          "indexed": false,
          "internalType": "uint256",
          "name": "reduceAmount",
          "type": "uint256"
        },
        {
          "indexed": false,
          "internalType": "uint256",
          "name": "newTotalReserves",
          "type": "uint256"
        }
      ],
      "name": "ReservesReduced",
      "type": "event"
    },
    {
      "anonymous": false,
      "inputs": [
        {
          "indexed": true,
          "internalType": "address",
          "name": "from",
          "type": "address"
        },
        {
          "indexed": true,
          "internalType": "address",
          "name": "to",
          "type": "address"
        },
        {
          "indexed": false,
          "internalType": "uint256",
          "name": "amount",
          "type": "uint256"
        }
      ],
      "name": "Transfer",
      "type": "event"
    },
    {
      "constant": false,
      "inputs": [],
      "name": "_acceptAdmin",
      "outputs": [
        {
          "internalType": "uint256",
          "name": "",
          "type": "uint256"
        }
      ],
      "payable": false,
      "stateMutability": "nonpayable",
      "type": "function"
    },
    {
      "constant": false,
      "inputs": [
        {
          "internalType": "uint256",
          "name": "addAmount",
          "type": "uint256"
        }
      ],
      "name": "_addReserves",
      "outputs": [
        {
          "internalType": "uint256",
          "name": "",
          "type": "uint256"
        }
      ],
      "payable": false,
      "stateMutability": "nonpayable",
      "type": "function"
    },
    {
      "constant": false,
      "inputs": [
        {
          "internalType": "bytes",
          "name": "data",
          "type": "bytes"
        }
      ],
      "name": "_becomeImplementation",
      "outputs": [],
      "payable": false,
      "stateMutability": "nonpayable",
      "type": "function"
    },
    {
      "constant": false,
      "inputs": [
        {
          "internalType": "address",
          "name": "compLikeDelegatee",
          "type": "address"
        }
      ],
      "name": "_delegateCompLikeTo",
      "outputs": [],
      "payable": false,
      "stateMutability": "nonpayable",
      "type": "function"
    },
    {
      "constant": false,
      "inputs": [
        {
          "internalType": "uint256",
          "name": "reduceAmount",
          "type": "uint256"
        }
      ],
      "name": "_reduceReserves",
      "outputs": [
        {
          "internalType": "uint256",
          "name": "",
          "type": "uint256"
        }
      ],
      "payable": false,
      "stateMutability": "nonpayable",
      "type": "function"
    },
    {
      "constant": false,
      "inputs": [],
      "name": "_resignImplementation",
      "outputs": [],
      "payable": false,
      "stateMutability": "nonpayable",
      "type": "function"
    },
    {
      "constant": false,
      "inputs": [
        {
          "internalType": "contract ComptrollerInterface",
          "name": "newComptroller",
          "type": "address"
        }
      ],
      "name": "_setComptroller",
      "outputs": [
        {
          "internalType": "uint256",
          "name": "",
          "type": "uint256"
        }
      ],
      "payable": false,
      "stateMutability": "nonpayable",
      "type": "function"
    },
    {
      "constant": false,
      "inputs": [
        {
          "internalType": "contract InterestRateModel",
          "name": "newInterestRateModel",
          "type": "address"
        }
      ],
      "name": "_setInterestRateModel",
      "outputs": [
        {
          "internalType": "uint256",
          "name": "",
          "type": "uint256"
        }
      ],
      "payable": false,
      "stateMutability": "nonpayable",
      "type": "function"
    },
    {
      "constant": false,
      "inputs": [
        {
          "internalType": "address payable",
          "name": "newPendingAdmin",
          "type": "address"
        }
      ],
      "name": "_setPendingAdmin",
      "outputs": [
        {
          "internalType": "uint256",
          "name": "",
          "type": "uint256"
        }
      ],
      "payable": false,
      "stateMutability": "nonpayable",
      "type": "function"
    },
    {
      "constant": false,
      "inputs": [
        {
          "internalType": "uint256",
          "name": "newReserveFactorMantissa",
          "type": "uint256"
        }
      ],
      "name": "_setReserveFactor",
      "outputs": [
        {
          "internalType": "uint256",
          "name": "",
          "type": "uint256"
        }
      ],
      "payable": false,
      "stateMutability": "nonpayable",
      "type": "function"
    },
    {
      "constant": true,
      "inputs": [],
      "name": "accrualBlockNumber",
      "outputs": [
        {
          "internalType": "uint256",
          "name": "",
          "type": "uint256"
        }
      ],
      "payable": false,
      "stateMutability": "view",
      "type": "function"
    },
    {
      "constant": false,
      "inputs": [],
      "name": "accrueInterest",
      "outputs": [
        {
          "internalType": "uint256",
          "name": "",
          "type": "uint256"
        }
      ],
      "payable": false,
      "stateMutability": "nonpayable",
      "type": "function"
    },
    {
      "constant": true,
      "inputs": [],
      "name": "admin",
      "outputs": [
        {
          "internalType": "address payable",
          "name": "",
          "type": "address"
        }
      ],
      "payable": false,
      "stateMutability": "view",
      "type": "function"
    },
    {
      "constant": true,
      "inputs": [
        {
          "internalType": "address",
          "name": "owner",
          "type": "address"
        },
        {
          "internalType": "address",
          "name": "spender",
          "type": "address"
        }
      ],
      "name": "allowance",
      "outputs": [
        {
          "internalType": "uint256",
          "name": "",
          "type": "uint256"
        }
      ],
      "payable": false,
      "stateMutability": "view",
      "type": "function"
    },
    {
      "constant": false,
      "inputs": [
        {
          "internalType": "address",
          "name": "spender",
          "type": "address"
        },
        {
          "internalType": "uint256",
          "name": "amount",
          "type": "uint256"
        }
      ],
      "name": "approve",
      "outputs": [
        {
          "internalType": "bool",
          "name": "",
          "type": "bool"
        }
      ],
      "payable": false,
      "stateMutability": "nonpayable",
      "type": "function"
    },
    {
      "constant": true,
      "inputs": [
        {
          "internalType": "address",
          "name": "owner",
          "type": "address"
        }
      ],
      "name": "balanceOf",
      "outputs": [
        {
          "internalType": "uint256",
          "name": "",
          "type": "uint256"
        }
      ],
      "payable": false,
      "stateMutability": "view",
      "type": "function"
    },
    {
      "constant": false,
      "inputs": [
        {
          "internalType": "address",
          "name": "owner",
          "type": "address"
        }
      ],
      "name": "balanceOfUnderlying",
      "outputs": [
        {
          "internalType": "uint256",
          "name": "",
          "type": "uint256"
        }
      ],
      "payable": false,
      "stateMutability": "nonpayable",
      "type": "function"
    },
    {
      "constant": false,
      "inputs": [
        {
          "internalType": "uint256",
          "name": "borrowAmount",
          "type": "uint256"
        }
      ],
      "name": "borrow",
      "outputs": [
        {
          "internalType": "uint256",
          "name": "",
          "type": "uint256"
        }
      ],
      "payable": false,
      "stateMutability": "nonpayable",
      "type": "function"
    },
    {
      "constant": false,
      "inputs": [
        {
          "internalType": "address",
          "name": "account",
          "type": "address"
        }
      ],
      "name": "borrowBalanceCurrent",
      "outputs": [
        {
          "internalType": "uint256",
          "name": "",
          "type": "uint256"
        }
      ],
      "payable": false,
      "stateMutability": "nonpayable",
      "type": "function"
    },
    {
      "constant": true,
      "inputs": [
        {
          "internalType": "address",
          "name": "account",
          "type": "address"
        }
      ],
      "name": "borrowBalanceStored",
      "outputs": [
        {
          "internalType": "uint256",
          "name": "",
          "type": "uint256"
        }
      ],
      "payable": false,
      "stateMutability": "view",
      "type": "function"
    },
    {
      "constant": true,
      "inputs": [],
      "name": "borrowIndex",
      "outputs": [
        {
          "internalType": "uint256",
          "name": "",
          "type": "uint256"
        }
      ],
      "payable": false,
      "stateMutability": "view",
      "type": "function"
    },
    {
      "constant": true,
      "inputs": [],
      "name": "borrowRatePerBlock",
      "outputs": [
        {
          "internalType": "uint256",
          "name": "",
          "type": "uint256"
        }
      ],
      "payable": false,
      "stateMutability": "view",
      "type": "function"
    },
    {
      "constant": true,
      "inputs": [],
      "name": "comptroller",
      "outputs": [
        {
          "internalType": "contract ComptrollerInterface",
          "name": "",
          "type": "address"
        }
      ],
      "payable": false,
      "stateMutability": "view",
      "type": "function"
    },
    {
      "constant": true,
      "inputs": [],
      "name": "decimals",
      "outputs": [
        {
          "internalType": "uint8",
          "name": "",
          "type": "uint8"
        }
      ],
      "payable": false,
      "stateMutability": "view",
      "type": "function"
    },
    {
      "constant": false,
      "inputs": [],
      "name": "exchangeRateCurrent",
      "outputs": [
        {
          "internalType": "uint256",
          "name": "",
          "type": "uint256"
        }
      ],
      "payable": false,
      "stateMutability": "nonpayable",
      "type": "function"
    },
    {
      "constant": true,
      "inputs": [],
      "name": "exchangeRateStored",
      "outputs": [
        {
          "internalType": "uint256",
          "name": "",
          "type": "uint256"
        }
      ],
      "payable": false,
      "stateMutability": "view",
      "type": "function"
    },
    {
      "constant": true,
      "inputs": [
        {
          "internalType": "address",
          "name": "account",
          "type": "address"
        }
      ],
      "name": "getAccountSnapshot",
      "outputs": [
        {
          "internalType": "uint256",
          "name": "",
          "type": "uint256"
        },
        {
          "internalType": "uint256",
          "name": "",
          "type": "uint256"
        },
        {
          "internalType": "uint256",
          "name": "",
          "type": "uint256"
        },
        {
          "internalType": "uint256",
          "name": "",
          "type": "uint256"
        }
      ],
      "payable": false,
      "stateMutability": "view",
      "type": "function"
    },
    {
      "constant": true,
      "inputs": [],
      "name": "getCash",
      "outputs": [
        {
          "internalType": "uint256",
          "name": "",
          "type": "uint256"
        }
      ],
      "payable": false,
      "stateMutability": "view",
      "type": "function"
    },
    {
      "constant": true,
      "inputs": [],
      "name": "implementation",
      "outputs": [
        {
          "internalType": "address",
          "name": "",
          "type": "address"
        }
      ],
      "payable": false,
      "stateMutability": "view",
      "type": "function"
    },
    {
      "constant": false,
      "inputs": [
        {
          "internalType": "address",
          "name": "underlying_",
          "type": "address"
        },
        {
          "internalType": "contract ComptrollerInterface",
          "name": "comptroller_",
          "type": "address"
        },
        {
          "internalType": "contract InterestRateModel",
          "name": "interestRateModel_",
          "type": "address"
        },
        {
          "internalType": "uint256",
          "name": "initialExchangeRateMantissa_",
          "type": "uint256"
        },
        {
          "internalType": "string",
          "name": "name_",
          "type": "string"
        },
        {
          "internalType": "string",
          "name": "symbol_",
          "type": "string"
        },
        {
          "internalType": "uint8",
          "name": "decimals_",
          "type": "uint8"
        }
      ],
      "name": "initialize",
      "outputs": [],
      "payable": false,
      "stateMutability": "nonpayable",
      "type": "function"
    },
    {
      "constant": false,
      "inputs": [
        {
          "internalType": "contract ComptrollerInterface",
          "name": "comptroller_",
          "type": "address"
        },
        {
          "internalType": "contract InterestRateModel",
          "name": "interestRateModel_",
          "type": "address"
        },
        {
          "internalType": "uint256",
          "name": "initialExchangeRateMantissa_",
          "type": "uint256"
        },
        {
          "internalType": "string",
          "name": "name_",
          "type": "string"
        },
        {
          "internalType": "string",
          "name": "symbol_",
          "type": "string"
        },
        {
          "internalType": "uint8",
          "name": "decimals_",
          "type": "uint8"
        }
      ],
      "name": "initialize",
      "outputs": [],
      "payable": false,
      "stateMutability": "nonpayable",
      "type": "function"
    },
    {
      "constant": true,
      "inputs": [],
      "name": "interestRateModel",
      "outputs": [
        {
          "internalType": "contract InterestRateModel",
          "name": "",
          "type": "address"
        }
      ],
      "payable": false,
      "stateMutability": "view",
      "type": "function"
    },
    {
      "constant": true,
      "inputs": [],
      "name": "isCToken",
      "outputs": [
        {
          "internalType": "bool",
          "name": "",
          "type": "bool"
        }
      ],
      "payable": false,
      "stateMutability": "view",
      "type": "function"
    },
    {
      "constant": false,
      "inputs": [
        {
          "internalType": "address",
          "name": "borrower",
          "type": "address"
        },
        {
          "internalType": "uint256",
          "name": "repayAmount",
          "type": "uint256"
        },
        {
          "internalType": "contract CTokenInterface",
          "name": "cTokenCollateral",
          "type": "address"
        }
      ],
      "name": "liquidateBorrow",
      "outputs": [
        {
          "internalType": "uint256",
          "name": "",
          "type": "uint256"
        }
      ],
      "payable": false,
      "stateMutability": "nonpayable",
      "type": "function"
    },
    {
      "constant": false,
      "inputs": [
        {
          "internalType": "uint256",
          "name": "mintAmount",
          "type": "uint256"
        }
      ],
      "name": "mint",
      "outputs": [
        {
          "internalType": "uint256",
          "name": "",
          "type": "uint256"
        }
      ],
      "payable": false,
      "stateMutability": "nonpayable",
      "type": "function"
    },
    {
      "constant": true,
      "inputs": [],
      "name": "name",
      "outputs": [
        {
          "internalType": "string",
          "name": "",
          "type": "string"
        }
      ],
      "payable": false,
      "stateMutability": "view",
      "type": "function"
    },
    {
      "constant": true,
      "inputs": [],
      "name": "pendingAdmin",
      "outputs": [
        {
          "internalType": "address payable",
          "name": "",
          "type": "address"
        }
      ],
      "payable": false,
      "stateMutability": "view",
      "type": "function"
    },
    {
      "constant": false,
      "inputs": [
        {
          "internalType": "uint256",
          "name": "redeemTokens",
          "type": "uint256"
        }
      ],
      "name": "redeem",
      "outputs": [
        {
          "internalType": "uint256",
          "name": "",
          "type": "uint256"
        }
      ],
      "payable": false,
      "stateMutability": "nonpayable",
      "type": "function"
    },
    {
      "constant": false,
      "inputs": [
        {
          "internalType": "uint256",
          "name": "redeemAmount",
          "type": "uint256"
        }
      ],
      "name": "redeemUnderlying",
      "outputs": [
        {
          "internalType": "uint256",
          "name": "",
          "type": "uint256"
        }
      ],
      "payable": false,
      "stateMutability": "nonpayable",
      "type": "function"
    },
    {
      "constant": false,
      "inputs": [
        {
          "internalType": "uint256",
          "name": "repayAmount",
          "type": "uint256"
        }
      ],
      "name": "repayBorrow",
      "outputs": [
        {
          "internalType": "uint256",
          "name": "",
          "type": "uint256"
        }
      ],
      "payable": false,
      "stateMutability": "nonpayable",
      "type": "function"
    },
    {
      "constant": false,
      "inputs": [
        {
          "internalType": "address",
          "name": "borrower",
          "type": "address"
        },
        {
          "internalType": "uint256",
          "name": "repayAmount",
          "type": "uint256"
        }
      ],
      "name": "repayBorrowBehalf",
      "outputs": [
        {
          "internalType": "uint256",
          "name": "",
          "type": "uint256"
        }
      ],
      "payable": false,
      "stateMutability": "nonpayable",
      "type": "function"
    },
    {
      "constant": true,
      "inputs": [],
      "name": "reserveFactorMantissa",
      "outputs": [
        {
          "internalType": "uint256",
          "name": "",
          "type": "uint256"
        }
      ],
      "payable": false,
      "stateMutability": "view",
      "type": "function"
    },
    {
      "constant": false,
      "inputs": [
        {
          "internalType": "address",
          "name": "liquidator",
          "type": "address"
        },
        {
          "internalType": "address",
          "name": "borrower",
          "type": "address"
        },
        {
          "internalType": "uint256",
          "name": "seizeTokens",
          "type": "uint256"
        }
      ],
      "name": "seize",
      "outputs": [
        {
          "internalType": "uint256",
          "name": "",
          "type": "uint256"
        }
      ],
      "payable": false,
      "stateMutability": "nonpayable",
      "type": "function"
    },
    {
      "constant": true,
      "inputs": [],
      "name": "supplyRatePerBlock",
      "outputs": [
        {
          "internalType": "uint256",
          "name": "",
          "type": "uint256"
        }
      ],
      "payable": false,
      "stateMutability": "view",
      "type": "function"
    },
    {
      "constant": false,
      "inputs": [
        {
          "internalType": "contract EIP20NonStandardInterface",
          "name": "token",
          "type": "address"
        }
      ],
      "name": "sweepToken",
      "outputs": [],
      "payable": false,
      "stateMutability": "nonpayable",
      "type": "function"
    },
    {
      "constant": true,
      "inputs": [],
      "name": "symbol",
      "outputs": [
        {
          "internalType": "string",
          "name": "",
          "type": "string"
        }
      ],
      "payable": false,
      "stateMutability": "view",
      "type": "function"
    },
    {
      "constant": true,
      "inputs": [],
      "name": "totalBorrows",
      "outputs": [
        {
          "internalType": "uint256",
          "name": "",
          "type": "uint256"
        }
      ],
      "payable": false,
      "stateMutability": "view",
      "type": "function"
    },
    {
      "constant": false,
      "inputs": [],
      "name": "totalBorrowsCurrent",
      "outputs": [
        {
          "internalType": "uint256",
          "name": "",
          "type": "uint256"
        }
      ],
      "payable": false,
      "stateMutability": "nonpayable",
      "type": "function"
    },
    {
      "constant": true,
      "inputs": [],
      "name": "totalReserves",
      "outputs": [
        {
          "internalType": "uint256",
          "name": "",
          "type": "uint256"
        }
      ],
      "payable": false,
      "stateMutability": "view",
      "type": "function"
    },
    {
      "constant": true,
      "inputs": [],
      "name": "totalSupply",
      "outputs": [
        {
          "internalType": "uint256",
          "name": "",
          "type": "uint256"
        }
      ],
      "payable": false,
      "stateMutability": "view",
      "type": "function"
    },
    {
      "constant": false,
      "inputs": [
        {
          "internalType": "address",
          "name": "dst",
          "type": "address"
        },
        {
          "internalType": "uint256",
          "name": "amount",
          "type": "uint256"
        }
      ],
      "name": "transfer",
      "outputs": [
        {
          "internalType": "bool",
          "name": "",
          "type": "bool"
        }
      ],
      "payable": false,
      "stateMutability": "nonpayable",
      "type": "function"
    },
    {
      "constant": false,
      "inputs": [
        {
          "internalType": "address",
          "name": "src",
          "type": "address"
        },
        {
          "internalType": "address",
          "name": "dst",
          "type": "address"
        },
        {
          "internalType": "uint256",
          "name": "amount",
          "type": "uint256"
        }
      ],
      "name": "transferFrom",
      "outputs": [
        {
          "internalType": "bool",
          "name": "",
          "type": "bool"
        }
      ],
      "payable": false,
      "stateMutability": "nonpayable",
      "type": "function"
    },
    {
      "constant": true,
      "inputs": [],
      "name": "underlying",
      "outputs": [
        {
          "internalType": "address",
          "name": "",
          "type": "address"
        }
      ],
      "payable": false,
      "stateMutability": "view",
      "type": "function"
    }
  ],
  "bytecode": "0x608060405234801561001057600080fd5b506150db806100206000396000f3fe608060405234801561001057600080fd5b50600436106103275760003560e01c806373acee98116101b8578063b71d1a0c11610104578063f2b3abbd116100a2578063f851a4401161007c578063f851a44014610bb4578063f8f9da2814610bbc578063fca7820b14610bc4578063fe9c44ae14610be157610327565b8063f2b3abbd14610b50578063f3fdb15a14610b76578063f5e3c46214610b7e57610327565b8063c5ebeaec116100de578063c5ebeaec14610ae0578063db006a7514610afd578063dd62ed3e14610b1a578063e9c714f214610b4857610327565b8063b71d1a0c14610a66578063bd6d894d14610a8c578063c37f68e214610a9457610327565b806399d8c1b411610171578063a9059cbb1161014b578063a9059cbb146109f4578063aa5af0fd14610a20578063ae9d70b014610a28578063b2a02ff114610a3057610327565b806399d8c1b414610881578063a0712d68146109cf578063a6afed95146109ec57610327565b806373acee98146108005780637f1e06be14610808578063852a12e31461082e5780638f840ddd1461084b57806395d89b411461085357806395dd91931461085b57610327565b8063313ce5671161027757806356e6772811610230578063601a0bf11161020a578063601a0bf1146107ad5780636c540baf146107ca5780636f307dc3146107d257806370a08231146107da57610327565b806356e67728146106f95780635c60da1b1461079d5780635fe3b567146107a557610327565b8063313ce567146106625780633af9e669146106805780633b1d21a2146106a65780633e941010146106ae5780634576b5db146106cb57806347bd3718146106f157610327565b806318160ddd116102e45780631be19560116102be5780631be19560146105b657806323b872dd146105dc5780632608f81814610612578063267822471461063e57610327565b806318160ddd14610450578063182df0f5146104585780631a31d4651461046057610327565b806306fdde031461032c578063095ea7b3146103a95780630e752702146103e9578063153ab50514610418578063173b99041461042257806317bfdfbc1461042a575b600080fd5b610334610be9565b6040805160208082528351818301528351919283929083019185019080838360005b8381101561036e578181015183820152602001610356565b50505050905090810190601f16801561039b5780820380516001836020036101000a031916815260200191505b509250505060405180910390f35b6103d5600480360360408110156103bf57600080fd5b506001600160a01b038135169060200135610c76565b604080519115158252519081900360200190f35b610406600480360360208110156103ff57600080fd5b5035610ce3565b60408051918252519081900360200190f35b610420610cf9565b005b610406610d49565b6104066004803603602081101561044057600080fd5b50356001600160a01b0316610d4f565b610406610e0f565b610406610e15565b610420600480360360e081101561047657600080fd5b6001600160a01b03823581169260208101358216926040820135909216916060820135919081019060a081016080820135600160201b8111156104b857600080fd5b8201836020820111156104ca57600080fd5b803590602001918460018302840111600160201b831117156104eb57600080fd5b91908080601f0160208091040260200160405190810160405280939291908181526020018383808284376000920191909152509295949360208101935035915050600160201b81111561053d57600080fd5b82018360208201111561054f57600080fd5b803590602001918460018302840111600160201b8311171561057057600080fd5b91908080601f0160208091040260200160405190810160405280939291908181526020018383808284376000920191909152509295505050903560ff169150610e789050565b610420600480360360208110156105cc57600080fd5b50356001600160a01b0316610f17565b6103d5600480360360608110156105f257600080fd5b506001600160a01b03813581169160208101359091169060400135611053565b6104066004803603604081101561062857600080fd5b506001600160a01b0381351690602001356110c5565b6106466110db565b604080516001600160a01b039092168252519081900360200190f35b61066a6110ea565b6040805160ff9092168252519081900360200190f35b6104066004803603602081101561069657600080fd5b50356001600160a01b03166110f3565b6104066111a9565b610406600480360360208110156106c457600080fd5b50356111b8565b610406600480360360208110156106e157600080fd5b50356001600160a01b03166111c3565b610406611318565b6104206004803603602081101561070f57600080fd5b810190602081018135600160201b81111561072957600080fd5b82018360208201111561073b57600080fd5b803590602001918460018302840111600160201b8311171561075c57600080fd5b91908080601f01602080910402602001604051908101604052809392919081815260200183838082843760009201919091525092955061131e945050505050565b61064661136f565b61064661137e565b610406600480360360208110156107c357600080fd5b503561138d565b610406611428565b61064661142e565b610406600480360360208110156107f057600080fd5b50356001600160a01b031661143d565b610406611458565b6104206004803603602081101561081e57600080fd5b50356001600160a01b031661150e565b6104066004803603602081101561084457600080fd5b50356115c5565b6104066115d0565b6103346115d6565b6104066004803603602081101561087157600080fd5b50356001600160a01b031661162e565b610420600480360360c081101561089757600080fd5b6001600160a01b03823581169260208101359091169160408201359190810190608081016060820135600160201b8111156108d157600080fd5b8201836020820111156108e357600080fd5b803590602001918460018302840111600160201b8311171561090457600080fd5b91908080601f0160208091040260200160405190810160405280939291908181526020018383808284376000920191909152509295949360208101935035915050600160201b81111561095657600080fd5b82018360208201111561096857600080fd5b803590602001918460018302840111600160201b8311171561098957600080fd5b91908080601f0160208091040260200160405190810160405280939291908181526020018383808284376000920191909152509295505050903560ff16915061168b9050565b610406600480360360208110156109e557600080fd5b5035611872565b61040661187e565b6103d560048036036040811015610a0a57600080fd5b506001600160a01b038135169060200135611bd6565b610406611c47565b610406611c4d565b61040660048036036060811015610a4657600080fd5b506001600160a01b03813581169160208101359091169060400135611cec565b61040660048036036020811015610a7c57600080fd5b50356001600160a01b0316611d5d565b610406611de9565b610aba60048036036020811015610aaa57600080fd5b50356001600160a01b0316611ea5565b604080519485526020850193909352838301919091526060830152519081900360800190f35b61040660048036036020811015610af657600080fd5b5035611f3a565b61040660048036036020811015610b1357600080fd5b5035611f45565b61040660048036036040811015610b3057600080fd5b506001600160a01b0381358116916020013516611f50565b610406611f7b565b61040660048036036020811015610b6657600080fd5b50356001600160a01b031661207e565b6106466120b8565b61040660048036036060811015610b9457600080fd5b506001600160a01b038135811691602081013591604090910135166120c7565b6106466120df565b6104066120f3565b61040660048036036020811015610bda57600080fd5b5035612157565b6103d56121d5565b60018054604080516020600284861615610100026000190190941693909304601f81018490048402820184019092528181529291830182828015610c6e5780601f10610c4357610100808354040283529160200191610c6e565b820191906000526020600020905b815481529060010190602001808311610c5157829003601f168201915b505050505081565b336000818152600f602090815260408083206001600160a01b03871680855290835281842086905581518681529151939493909284927f8c5be1e5ebec7d5bd14f71427d1e84f3dd0314c0f7b2291e5b200ac8c7c3b925929081900390910190a360019150505b92915050565b600080610cef836121da565b509150505b919050565b60035461010090046001600160a01b03163314610d475760405162461bcd60e51b815260040180806020018281038252602d815260200180614e78602d913960400191505060405180910390fd5b565b60085481565b6000805460ff16610d94576040805162461bcd60e51b815260206004820152600a6024820152691c994b595b9d195c995960b21b604482015290519081900360640190fd5b6000805460ff19168155610da661187e565b14610df1576040805162461bcd60e51b81526020600482015260166024820152751858d8dc9d59481a5b9d195c995cdd0819985a5b195960521b604482015290519081900360640190fd5b610dfa8261162e565b90505b6000805460ff19166001179055919050565b600d5481565b6000806000610e22612283565b90925090506000826003811115610e3557fe5b14610e715760405162461bcd60e51b8152600401808060200182810382526035815260200180614fc56035913960400191505060405180910390fd5b9150505b90565b610e8686868686868661168b565b601180546001600160a01b0319166001600160a01b038981169190911791829055604080516318160ddd60e01b8152905192909116916318160ddd91600480820192602092909190829003018186803b158015610ee257600080fd5b505afa158015610ef6573d6000803e3d6000fd5b505050506040513d6020811015610f0c57600080fd5b505050505050505050565b6011546001600160a01b0382811691161415610f645760405162461bcd60e51b8152600401808060200182810382526032815260200180614dc76032913960400191505060405180910390fd5b604080516370a0823160e01b815230600482015290516000916001600160a01b038416916370a0823191602480820192602092909190829003018186803b158015610fae57600080fd5b505afa158015610fc2573d6000803e3d6000fd5b505050506040513d6020811015610fd857600080fd5b50516003546040805163a9059cbb60e01b81526101009092046001600160a01b03908116600484015260248301849052905192935084169163a9059cbb9160448082019260009290919082900301818387803b15801561103757600080fd5b505af115801561104b573d6000803e3d6000fd5b505050505050565b6000805460ff16611098576040805162461bcd60e51b815260206004820152600a6024820152691c994b595b9d195c995960b21b604482015290519081900360640190fd5b6000805460ff191681556110ae33868686612332565b1490506000805460ff191660011790559392505050565b6000806110d284846125be565b50949350505050565b6004546001600160a01b031681565b60035460ff1681565b60006110fd614c27565b6040518060200160405280611110611de9565b90526001600160a01b0384166000908152600e602052604081205491925090819061113c908490612669565b9092509050600082600381111561114f57fe5b146111a1576040805162461bcd60e51b815260206004820152601f60248201527f62616c616e636520636f756c64206e6f742062652063616c63756c6174656400604482015290519081900360640190fd5b949350505050565b60006111b36126bd565b905090565b6000610cdd8261273d565b60035460009061010090046001600160a01b031633146111f0576111e96001603f6127d1565b9050610cf4565b60055460408051623f1ee960e11b815290516001600160a01b0392831692851691627e3dd2916004808301926020929190829003018186803b15801561123557600080fd5b505afa158015611249573d6000803e3d6000fd5b505050506040513d602081101561125f57600080fd5b50516112b2576040805162461bcd60e51b815260206004820152601c60248201527f6d61726b6572206d6574686f642072657475726e65642066616c736500000000604482015290519081900360640190fd5b600580546001600160a01b0319166001600160a01b03858116918217909255604080519284168352602083019190915280517f7ac369dbd14fa5ea3f473ed67cc9d598964a77501540ba6751eb0b3decf5870d9281900390910190a160005b9392505050565b600b5481565b60035461010090046001600160a01b0316331461136c5760405162461bcd60e51b815260040180806020018281038252602d81526020018061507a602d913960400191505060405180910390fd5b50565b6012546001600160a01b031681565b6005546001600160a01b031681565b6000805460ff166113d2576040805162461bcd60e51b815260206004820152600a6024820152691c994b595b9d195c995960b21b604482015290519081900360640190fd5b6000805460ff191681556113e461187e565b9050801561140a576114028160108111156113fb57fe5b60306127d1565b915050610dfd565b61141383612837565b9150506000805460ff19166001179055919050565b60095481565b6011546001600160a01b031681565b6001600160a01b03166000908152600e602052604090205490565b6000805460ff1661149d576040805162461bcd60e51b815260206004820152600a6024820152691c994b595b9d195c995960b21b604482015290519081900360640190fd5b6000805460ff191681556114af61187e565b146114fa576040805162461bcd60e51b81526020600482015260166024820152751858d8dc9d59481a5b9d195c995cdd0819985a5b195960521b604482015290519081900360640190fd5b50600b546000805460ff1916600117905590565b60035461010090046001600160a01b0316331461155c5760405162461bcd60e51b815260040180806020018281038252602d815260200180614e29602d913960400191505060405180910390fd5b601154604080516317066a5760e21b81526001600160a01b03848116600483015291519190921691635c19a95c91602480830192600092919082900301818387803b1580156115aa57600080fd5b505af11580156115be573d6000803e3d6000fd5b5050505050565b6000610cdd8261296a565b600c5481565b6002805460408051602060018416156101000260001901909316849004601f81018490048402820184019092528181529291830182828015610c6e5780601f10610c4357610100808354040283529160200191610c6e565b600080600061163c846129eb565b9092509050600082600381111561164f57fe5b146113115760405162461bcd60e51b8152600401808060200182810382526037815260200180614ed06037913960400191505060405180910390fd5b60035461010090046001600160a01b031633146116d95760405162461bcd60e51b8152600401808060200182810382526024815260200180614d806024913960400191505060405180910390fd5b6009541580156116e95750600a54155b6117245760405162461bcd60e51b8152600401808060200182810382526023815260200180614da46023913960400191505060405180910390fd5b6007849055836117655760405162461bcd60e51b8152600401808060200182810382526030815260200180614df96030913960400191505060405180910390fd5b6000611770876111c3565b905080156117c5576040805162461bcd60e51b815260206004820152601a60248201527f73657474696e6720636f6d7074726f6c6c6572206661696c6564000000000000604482015290519081900360640190fd5b6117cd612a9f565b600955670de0b6b3a7640000600a556117e586612aa3565b905080156118245760405162461bcd60e51b8152600401808060200182810382526022815260200180614e566022913960400191505060405180910390fd5b8351611837906001906020870190614c3a565b50825161184b906002906020860190614c3a565b50506003805460ff90921660ff199283161790556000805490911660011790555050505050565b600080610cef83612c18565b600080611889612a9f565b600954909150808214156118a257600092505050610e75565b60006118ac6126bd565b600b54600c54600a54600654604080516315f2405360e01b815260048101879052602481018690526044810185905290519596509394929391926000926001600160a01b03909216916315f24053916064808301926020929190829003018186803b15801561191a57600080fd5b505afa15801561192e573d6000803e3d6000fd5b505050506040513d602081101561194457600080fd5b5051905065048c273950008111156119a3576040805162461bcd60e51b815260206004820152601c60248201527f626f72726f772072617465206973206162737572646c79206869676800000000604482015290519081900360640190fd5b6000806119b08989612c99565b909250905060008260038111156119c357fe5b14611a15576040805162461bcd60e51b815260206004820152601f60248201527f636f756c64206e6f742063616c63756c61746520626c6f636b2064656c746100604482015290519081900360640190fd5b611a1d614c27565b600080600080611a3b60405180602001604052808a81525087612cbc565b90975094506000876003811115611a4e57fe5b14611a8057611a6b60096006896003811115611a6657fe5b612d24565b9e505050505050505050505050505050610e75565b611a8a858c612669565b90975093506000876003811115611a9d57fe5b14611ab557611a6b60096001896003811115611a6657fe5b611abf848c612d8a565b90975092506000876003811115611ad257fe5b14611aea57611a6b60096004896003811115611a6657fe5b611b056040518060200160405280600854815250858c612db0565b90975091506000876003811115611b1857fe5b14611b3057611a6b60096005896003811115611a6657fe5b611b3b858a8b612db0565b90975090506000876003811115611b4e57fe5b14611b6657611a6b60096003896003811115611a6657fe5b60098e9055600a819055600b839055600c829055604080518d8152602081018690528082018390526060810185905290517f4dec04e750ca11537cabcd8a9eab06494de08da3735bc8871cd41250e190bc049181900360800190a160009e50505050505050505050505050505090565b6000805460ff16611c1b576040805162461bcd60e51b815260206004820152600a6024820152691c994b595b9d195c995960b21b604482015290519081900360640190fd5b6000805460ff19168155611c3133338686612332565b1490506000805460ff1916600117905592915050565b600a5481565b6006546000906001600160a01b031663b8168816611c696126bd565b600b54600c546008546040518563ffffffff1660e01b81526004018085815260200184815260200183815260200182815260200194505050505060206040518083038186803b158015611cbb57600080fd5b505afa158015611ccf573d6000803e3d6000fd5b505050506040513d6020811015611ce557600080fd5b5051905090565b6000805460ff16611d31576040805162461bcd60e51b815260206004820152600a6024820152691c994b595b9d195c995960b21b604482015290519081900360640190fd5b6000805460ff19169055611d4733858585612e0c565b90506000805460ff191660011790559392505050565b60035460009061010090046001600160a01b03163314611d83576111e9600160456127d1565b600480546001600160a01b038481166001600160a01b0319831681179093556040805191909216808252602082019390935281517fca4f2f25d0898edd99413412fb94012f9e54ec8142f9b093e7720646a95b16a9929181900390910190a16000611311565b6000805460ff16611e2e576040805162461bcd60e51b815260206004820152600a6024820152691c994b595b9d195c995960b21b604482015290519081900360640190fd5b6000805460ff19168155611e4061187e565b14611e8b576040805162461bcd60e51b81526020600482015260166024820152751858d8dc9d59481a5b9d195c995cdd0819985a5b195960521b604482015290519081900360640190fd5b611e93610e15565b90506000805460ff1916600117905590565b6001600160a01b0381166000908152600e6020526040812054819081908190818080611ed0896129eb565b935090506000816003811115611ee257fe5b14611f005760095b975060009650869550859450611f339350505050565b611f08612283565b925090506000816003811115611f1a57fe5b14611f26576009611eea565b5060009650919450925090505b9193509193565b6000610cdd82612fe8565b6000610cdd82613067565b6001600160a01b039182166000908152600f6020908152604080832093909416825291909152205490565b6004546000906001600160a01b031633141580611f96575033155b15611fae57611fa7600160006127d1565b9050610e75565b60038054600480546001600160a01b03818116610100818102610100600160a81b0319871617968790556001600160a01b031990931690935560408051948390048216808652929095041660208401528351909391927ff9ffabca9c8276e99321725bcb43fb076a6c66a54b7f21c4e8146d8519b417dc92908290030190a1600454604080516001600160a01b038085168252909216602083015280517fca4f2f25d0898edd99413412fb94012f9e54ec8142f9b093e7720646a95b16a99281900390910190a160009250505090565b60008061208961187e565b905080156120af576120a78160108111156120a057fe5b60406127d1565b915050610cf4565b61131183612aa3565b6006546001600160a01b031681565b6000806120d58585856130e1565b5095945050505050565b60035461010090046001600160a01b031681565b6006546000906001600160a01b03166315f2405361210f6126bd565b600b54600c546040518463ffffffff1660e01b815260040180848152602001838152602001828152602001935050505060206040518083038186803b158015611cbb57600080fd5b6000805460ff1661219c576040805162461bcd60e51b815260206004820152600a6024820152691c994b595b9d195c995960b21b604482015290519081900360640190fd5b6000805460ff191681556121ae61187e565b905080156121cc576114028160108111156121c557fe5b60466127d1565b61141383613213565b600181565b60008054819060ff16612221576040805162461bcd60e51b815260206004820152600a6024820152691c994b595b9d195c995960b21b604482015290519081900360640190fd5b6000805460ff1916815561223361187e565b9050801561225e5761225181601081111561224a57fe5b60366127d1565b92506000915061226f9050565b6122693333866132bb565b92509250505b6000805460ff191660011790559092909150565b600d5460009081908061229e5750506007546000915061232e565b60006122a86126bd565b905060006122b4614c27565b60006122c584600b54600c54613609565b9350905060008160038111156122d757fe5b146122ec5795506000945061232e9350505050565b6122f68386613647565b92509050600081600381111561230857fe5b1461231d5795506000945061232e9350505050565b505160009550935061232e92505050565b9091565b600554604080516317b9b84b60e31b81523060048201526001600160a01b03868116602483015285811660448301526064820185905291516000938493169163bdcdc25891608480830192602092919082900301818787803b15801561239757600080fd5b505af11580156123ab573d6000803e3d6000fd5b505050506040513d60208110156123c157600080fd5b5051905080156123e0576123d86003604a83612d24565b9150506111a1565b836001600160a01b0316856001600160a01b03161415612406576123d86002604b6127d1565b60006001600160a01b038781169087161415612425575060001961244d565b506001600160a01b038086166000908152600f60209081526040808320938a16835292905220545b60008060008061245d8589612c99565b9094509250600084600381111561247057fe5b1461248e576124816009604b6127d1565b96505050505050506111a1565b6001600160a01b038a166000908152600e60205260409020546124b19089612c99565b909450915060008460038111156124c457fe5b146124d5576124816009604c6127d1565b6001600160a01b0389166000908152600e60205260409020546124f89089612d8a565b9094509050600084600381111561250b57fe5b1461251c576124816009604d6127d1565b6001600160a01b03808b166000908152600e6020526040808220859055918b168152208190556000198514612574576001600160a01b03808b166000908152600f60209081526040808320938f168352929052208390555b886001600160a01b03168a6001600160a01b0316600080516020614f418339815191528a6040518082815260200191505060405180910390a35060009a9950505050505050505050565b60008054819060ff16612605576040805162461bcd60e51b815260206004820152600a6024820152691c994b595b9d195c995960b21b604482015290519081900360640190fd5b6000805460ff1916815561261761187e565b905080156126425761263581601081111561262e57fe5b60356127d1565b9250600091506126539050565b61264d3386866132bb565b92509250505b6000805460ff1916600117905590939092509050565b6000806000612676614c27565b6126808686612cbc565b9092509050600082600381111561269357fe5b146126a457509150600090506126b6565b60006126af826136f7565b9350935050505b9250929050565b601154604080516370a0823160e01b815230600482015290516000926001600160a01b03169182916370a0823191602480820192602092909190829003018186803b15801561270b57600080fd5b505afa15801561271f573d6000803e3d6000fd5b505050506040513d602081101561273557600080fd5b505191505090565b6000805460ff16612782576040805162461bcd60e51b815260206004820152600a6024820152691c994b595b9d195c995960b21b604482015290519081900360640190fd5b6000805460ff1916815561279461187e565b905080156127b2576114028160108111156127ab57fe5b604e6127d1565b6127bb83613706565b509150506000805460ff19166001179055919050565b60007f45b96fe442630264581b197e84bbada861235052c5a1aadfff9ea4e40a969aa083601081111561280057fe5b83605081111561280c57fe5b604080519283526020830191909152600082820152519081900360600190a182601081111561131157fe5b600354600090819061010090046001600160a01b0316331461285f576120a7600160316127d1565b612867612a9f565b6009541461287b576120a7600a60336127d1565b826128846126bd565b1015612896576120a7600e60326127d1565b600c548311156128ac576120a7600260346127d1565b50600c54828103908111156128f25760405162461bcd60e51b81526004018080602001828103825260248152602001806150566024913960400191505060405180910390fd5b600c8190556003546129129061010090046001600160a01b0316846137ee565b600354604080516101009092046001600160a01b0316825260208201859052818101839052517f3bad0c59cf2f06e7314077049f48a93578cd16f5ef92329f1dab1420a99c177e916060908290030190a16000611311565b6000805460ff166129af576040805162461bcd60e51b815260206004820152600a6024820152691c994b595b9d195c995960b21b604482015290519081900360640190fd5b6000805460ff191681556129c161187e565b905080156129df576114028160108111156129d857fe5b60276127d1565b611413336000856138e5565b6001600160a01b038116600090815260106020526040812080548291829182918291612a22575060009450849350612a9a92505050565b612a328160000154600a54613dac565b90945092506000846003811115612a4557fe5b14612a5a575091935060009250612a9a915050565b612a68838260010154613deb565b90945091506000846003811115612a7b57fe5b14612a90575091935060009250612a9a915050565b5060009450925050505b915091565b4390565b600354600090819061010090046001600160a01b03163314612acb576120a7600160426127d1565b612ad3612a9f565b60095414612ae7576120a7600a60416127d1565b600660009054906101000a90046001600160a01b03169050826001600160a01b0316632191f92a6040518163ffffffff1660e01b815260040160206040518083038186803b158015612b3857600080fd5b505afa158015612b4c573d6000803e3d6000fd5b505050506040513d6020811015612b6257600080fd5b5051612bb5576040805162461bcd60e51b815260206004820152601c60248201527f6d61726b6572206d6574686f642072657475726e65642066616c736500000000604482015290519081900360640190fd5b600680546001600160a01b0319166001600160a01b03858116918217909255604080519284168352602083019190915280517fedffc32e068c7c95dfd4bdfd5c4d939a084d6b11c4199eac8436ed234d72f9269281900390910190a16000611311565b60008054819060ff16612c5f576040805162461bcd60e51b815260206004820152600a6024820152691c994b595b9d195c995960b21b604482015290519081900360640190fd5b6000805460ff19168155612c7161187e565b90508015612c8f57612251816010811115612c8857fe5b601e6127d1565b6122693385613e16565b600080838311612cb05750600090508183036126b6565b506003905060006126b6565b6000612cc6614c27565b600080612cd7866000015186613dac565b90925090506000826003811115612cea57fe5b14612d09575060408051602081019091526000815290925090506126b6565b60408051602081019091529081526000969095509350505050565b60007f45b96fe442630264581b197e84bbada861235052c5a1aadfff9ea4e40a969aa0846010811115612d5357fe5b846050811115612d5f57fe5b604080519283526020830191909152818101859052519081900360600190a18360108111156111a157fe5b600080838301848110612da2576000925090506126b6565b5060029150600090506126b6565b6000806000612dbd614c27565b612dc78787612cbc565b90925090506000826003811115612dda57fe5b14612deb5750915060009050612e04565b612dfd612df7826136f7565b86612d8a565b9350935050505b935093915050565b6005546040805163d02f735160e01b81523060048201526001600160a01b038781166024830152868116604483015285811660648301526084820185905291516000938493169163d02f73519160a480830192602092919082900301818787803b158015612e7957600080fd5b505af1158015612e8d573d6000803e3d6000fd5b505050506040513d6020811015612ea357600080fd5b505190508015612eba576123d86003601b83612d24565b846001600160a01b0316846001600160a01b03161415612ee0576123d86006601c6127d1565b6001600160a01b0384166000908152600e602052604081205481908190612f079087612c99565b90935091506000836003811115612f1a57fe5b14612f3d57612f326009601a856003811115611a6657fe5b9450505050506111a1565b6001600160a01b0388166000908152600e6020526040902054612f609087612d8a565b90935090506000836003811115612f7357fe5b14612f8b57612f3260096019856003811115611a6657fe5b6001600160a01b038088166000818152600e60209081526040808320879055938c168083529184902085905583518a815293519193600080516020614f41833981519152929081900390910190a360009998505050505050505050565b6000805460ff1661302d576040805162461bcd60e51b815260206004820152600a6024820152691c994b595b9d195c995960b21b604482015290519081900360640190fd5b6000805460ff1916815561303f61187e565b9050801561305d5761140281601081111561305657fe5b60086127d1565b61141333846141e6565b6000805460ff166130ac576040805162461bcd60e51b815260206004820152600a6024820152691c994b595b9d195c995960b21b604482015290519081900360640190fd5b6000805460ff191681556130be61187e565b905080156130d5576114028160108111156129d857fe5b611413338460006138e5565b60008054819060ff16613128576040805162461bcd60e51b815260206004820152600a6024820152691c994b595b9d195c995960b21b604482015290519081900360640190fd5b6000805460ff1916815561313a61187e565b905080156131655761315881601081111561315157fe5b600f6127d1565b9250600091506131fc9050565b836001600160a01b031663a6afed956040518163ffffffff1660e01b8152600401602060405180830381600087803b1580156131a057600080fd5b505af11580156131b4573d6000803e3d6000fd5b505050506040513d60208110156131ca57600080fd5b5051905080156131ea576131588160108111156131e357fe5b60106127d1565b6131f63387878761447a565b92509250505b6000805460ff191660011790559094909350915050565b60035460009061010090046001600160a01b03163314613239576111e9600160476127d1565b613241612a9f565b60095414613255576111e9600a60486127d1565b670de0b6b3a7640000821115613271576111e9600260496127d1565b6008805490839055604080518281526020810185905281517faaa68312e2ea9d50e16af5068410ab56e1a1fd06037b1a35664812c30f821460929181900390910190a16000611311565b60055460408051631200453160e11b81523060048201526001600160a01b0386811660248301528581166044830152606482018590529151600093849384939116916324008a629160848082019260209290919082900301818787803b15801561332457600080fd5b505af1158015613338573d6000803e3d6000fd5b505050506040513d602081101561334e57600080fd5b505190508015613372576133656003603883612d24565b925060009150612e049050565b61337a612a9f565b6009541461338e57613365600a60396127d1565b613396614cb8565b6001600160a01b03861660009081526010602052604090206001015460608201526133c0866129eb565b60808301819052602083018260038111156133d757fe5b60038111156133e257fe5b90525060009050816020015160038111156133f957fe5b14613423576134156009603783602001516003811115611a6657fe5b935060009250612e04915050565b60001985141561343c5760808101516040820152613444565b604081018590525b61345287826040015161496c565b60e08201819052608082015161346791612c99565b60a083018190526020830182600381111561347e57fe5b600381111561348957fe5b90525060009050816020015160038111156134a057fe5b146134dc5760405162461bcd60e51b815260040180806020018281038252603a815260200180614f07603a913960400191505060405180910390fd5b6134ec600b548260e00151612c99565b60c083018190526020830182600381111561350357fe5b600381111561350e57fe5b905250600090508160200151600381111561352557fe5b146135615760405162461bcd60e51b8152600401808060200182810382526031815260200180614f616031913960400191505060405180910390fd5b60a080820180516001600160a01b03808a16600081815260106020908152604091829020948555600a5460019095019490945560c0870151600b81905560e088015195518251948f16855294840192909252828101949094526060820192909252608081019190915290517f1a2a22cb034d26d1854bdc6666a5b91fe25efbbb5dcad3b0355478d6f5c362a1929181900390910190a160e00151600097909650945050505050565b6000806000806136198787612d8a565b9092509050600082600381111561362c57fe5b1461363d5750915060009050612e04565b612dfd8186612c99565b6000613651614c27565b60008061366686670de0b6b3a7640000613dac565b9092509050600082600381111561367957fe5b14613698575060408051602081019091526000815290925090506126b6565b6000806136a58388613deb565b909250905060008260038111156136b857fe5b146136da575060408051602081019091526000815290945092506126b6915050565b604080516020810190915290815260009890975095505050505050565b51670de0b6b3a7640000900490565b600080600080613714612a9f565b6009541461373357613728600a604f6127d1565b93509150612a9a9050565b61373d338661496c565b905080600c54019150600c5482101561379d576040805162461bcd60e51b815260206004820181905260248201527f61646420726573657276657320756e6578706563746564206f766572666c6f77604482015290519081900360640190fd5b600c829055604080513381526020810183905280820184905290517fa91e67c5ea634cd43a12c5a482724b03de01e85ca68702a53d0c2f45cb7c1dc59181900360600190a160009350915050915091565b6011546040805163a9059cbb60e01b81526001600160a01b0385811660048301526024820185905291519190921691829163a9059cbb9160448082019260009290919082900301818387803b15801561384657600080fd5b505af115801561385a573d6000803e3d6000fd5b5050505060003d60008114613876576020811461388057600080fd5b600019915061388c565b60206000803e60005191505b50806138df576040805162461bcd60e51b815260206004820152601960248201527f544f4b454e5f5452414e534645525f4f55545f4641494c454400000000000000604482015290519081900360640190fd5b50505050565b60008215806138f2575081155b61392d5760405162461bcd60e51b81526004018080602001828103825260348152602001806150226034913960400191505060405180910390fd5b613935614cfe565b61393d612283565b604083018190526020830182600381111561395457fe5b600381111561395f57fe5b905250600090508160200151600381111561397657fe5b1461399a576139926009602b83602001516003811115611a6657fe5b915050611311565b8315613a1b5760608101849052604080516020810182529082015181526139c19085612669565b60808301819052602083018260038111156139d857fe5b60038111156139e357fe5b90525060009050816020015160038111156139fa57fe5b14613a16576139926009602983602001516003811115611a6657fe5b613a94565b613a378360405180602001604052808460400151815250614bb6565b6060830181905260208301826003811115613a4e57fe5b6003811115613a5957fe5b9052506000905081602001516003811115613a7057fe5b14613a8c576139926009602a83602001516003811115611a6657fe5b608081018390525b60055460608201516040805163eabe7d9160e01b81523060048201526001600160a01b03898116602483015260448201939093529051600093929092169163eabe7d919160648082019260209290919082900301818787803b158015613af957600080fd5b505af1158015613b0d573d6000803e3d6000fd5b505050506040513d6020811015613b2357600080fd5b505190508015613b4357613b3a6003602883612d24565b92505050611311565b613b4b612a9f565b60095414613b5f57613b3a600a602c6127d1565b613b6f600d548360600151612c99565b60a0840181905260208401826003811115613b8657fe5b6003811115613b9157fe5b9052506000905082602001516003811115613ba857fe5b14613bc457613b3a6009602e84602001516003811115611a6657fe5b6001600160a01b0386166000908152600e60205260409020546060830151613bec9190612c99565b60c0840181905260208401826003811115613c0357fe5b6003811115613c0e57fe5b9052506000905082602001516003811115613c2557fe5b14613c4157613b3a6009602d84602001516003811115611a6657fe5b8160800151613c4e6126bd565b1015613c6057613b3a600e602f6127d1565b613c6e8683608001516137ee565b60a0820151600d5560c08201516001600160a01b0387166000818152600e6020908152604091829020939093556060850151815190815290513093600080516020614f41833981519152928290030190a36080820151606080840151604080516001600160a01b038b168152602081019490945283810191909152517fe5b754fb1abb7f01b499791d0b820ae3b6af3424ac1c59768edb53f4ec31a9299281900390910190a160055460808301516060840151604080516351dff98960e01b81523060048201526001600160a01b038b81166024830152604482019490945260648101929092525191909216916351dff98991608480830192600092919082900301818387803b158015613d8157600080fd5b505af1158015613d95573d6000803e3d6000fd5b5060009250613da2915050565b9695505050505050565b60008083613dbf575060009050806126b6565b83830283858281613dcc57fe5b0414613de0575060029150600090506126b6565b6000925090506126b6565b60008082613dff57506001905060006126b6565b6000838581613e0a57fe5b04915091509250929050565b60055460408051634ef4c3e160e01b81523060048201526001600160a01b03858116602483015260448201859052915160009384938493911691634ef4c3e19160648082019260209290919082900301818787803b158015613e7757600080fd5b505af1158015613e8b573d6000803e3d6000fd5b505050506040513d6020811015613ea157600080fd5b505190508015613ec557613eb86003601f83612d24565b9250600091506126b69050565b613ecd612a9f565b60095414613ee157613eb8600a60226127d1565b613ee9614cfe565b613ef1612283565b6040830181905260208301826003811115613f0857fe5b6003811115613f1357fe5b9052506000905081602001516003811115613f2a57fe5b14613f5457613f466009602183602001516003811115611a6657fe5b9350600092506126b6915050565b613f5e868661496c565b60c0820181905260408051602081018252908301518152613f7f9190614bb6565b6060830181905260208301826003811115613f9657fe5b6003811115613fa157fe5b9052506000905081602001516003811115613fb857fe5b1461400a576040805162461bcd60e51b815260206004820181905260248201527f4d494e545f45584348414e47455f43414c43554c4154494f4e5f4641494c4544604482015290519081900360640190fd5b61401a600d548260600151612d8a565b608083018190526020830182600381111561403157fe5b600381111561403c57fe5b905250600090508160200151600381111561405357fe5b1461408f5760405162461bcd60e51b8152600401808060200182810382526028815260200180614ffa6028913960400191505060405180910390fd5b6001600160a01b0386166000908152600e602052604090205460608201516140b79190612d8a565b60a08301819052602083018260038111156140ce57fe5b60038111156140d957fe5b90525060009050816020015160038111156140f057fe5b1461412c5760405162461bcd60e51b815260040180806020018281038252602b815260200180614ea5602b913960400191505060405180910390fd5b6080810151600d5560a08101516001600160a01b0387166000818152600e60209081526040918290209390935560c084015160608086015183519485529484019190915282820193909352517f4c209b5fc8ad50758f13e2e1088ba56a560dff690a1c6fef26394f4c03821c4f929181900390910190a1606081015160408051918252516001600160a01b038816913091600080516020614f418339815191529181900360200190a360c001516000969095509350505050565b6005546040805163368f515360e21b81523060048201526001600160a01b0385811660248301526044820185905291516000938493169163da3d454c91606480830192602092919082900301818787803b15801561424357600080fd5b505af1158015614257573d6000803e3d6000fd5b505050506040513d602081101561426d57600080fd5b50519050801561428c576142846003600e83612d24565b915050610cdd565b614294612a9f565b600954146142a757614284600a806127d1565b826142b06126bd565b10156142c257614284600e60096127d1565b6142ca614d3c565b6142d3856129eb565b60208301819052828260038111156142e757fe5b60038111156142f257fe5b905250600090508151600381111561430657fe5b1461432b576143226009600783600001516003811115611a6657fe5b92505050610cdd565b614339816020015185612d8a565b604083018190528282600381111561434d57fe5b600381111561435857fe5b905250600090508151600381111561436c57fe5b14614388576143226009600c83600001516003811115611a6657fe5b614394600b5485612d8a565b60608301819052828260038111156143a857fe5b60038111156143b357fe5b90525060009050815160038111156143c757fe5b146143e3576143226009600b83600001516003811115611a6657fe5b6143ed85856137ee565b604080820180516001600160a01b03881660008181526010602090815290859020928355600a54600190930192909255606080860151600b81905593518551928352928201899052818501929092529081019190915290517f13ed6866d4e1ee6da46f845c46d7e54120883d75c5ea9a2dacc1c4ca8984ab809181900360800190a1600095945050505050565b60055460408051632fe3f38f60e11b81523060048201526001600160a01b0384811660248301528781166044830152868116606483015260848201869052915160009384938493911691635fc7e71e9160a48082019260209290919082900301818787803b1580156144eb57600080fd5b505af11580156144ff573d6000803e3d6000fd5b505050506040513d602081101561451557600080fd5b5051905080156145395761452c6003601283612d24565b9250600091506149639050565b614541612a9f565b600954146145555761452c600a60166127d1565b61455d612a9f565b846001600160a01b0316636c540baf6040518163ffffffff1660e01b815260040160206040518083038186803b15801561459657600080fd5b505afa1580156145aa573d6000803e3d6000fd5b505050506040513d60208110156145c057600080fd5b5051146145d35761452c600a60116127d1565b866001600160a01b0316866001600160a01b031614156145f95761452c600660176127d1565b8461460a5761452c600760156127d1565b6000198514156146205761452c600760146127d1565b60008061462e8989896132bb565b9092509050811561465e5761464f82601081111561464857fe5b60186127d1565b94506000935061496392505050565b6005546040805163c488847b60e01b81523060048201526001600160a01b038981166024830152604482018590528251600094859492169263c488847b926064808301939192829003018186803b1580156146b857600080fd5b505afa1580156146cc573d6000803e3d6000fd5b505050506040513d60408110156146e257600080fd5b5080516020909101519092509050811561472d5760405162461bcd60e51b8152600401808060200182810382526033815260200180614f926033913960400191505060405180910390fd5b80886001600160a01b03166370a082318c6040518263ffffffff1660e01b815260040180826001600160a01b03166001600160a01b0316815260200191505060206040518083038186803b15801561478457600080fd5b505afa158015614798573d6000803e3d6000fd5b505050506040513d60208110156147ae57600080fd5b50511015614803576040805162461bcd60e51b815260206004820152601860248201527f4c49515549444154455f5345495a455f544f4f5f4d5543480000000000000000604482015290519081900360640190fd5b60006001600160a01b03891630141561482957614822308d8d85612e0c565b90506148b3565b6040805163b2a02ff160e01b81526001600160a01b038e811660048301528d81166024830152604482018590529151918b169163b2a02ff1916064808201926020929091908290030181600087803b15801561488457600080fd5b505af1158015614898573d6000803e3d6000fd5b505050506040513d60208110156148ae57600080fd5b505190505b80156148fd576040805162461bcd60e51b81526020600482015260146024820152731d1bdad95b881cd95a5e9d5c994819985a5b195960621b604482015290519081900360640190fd5b604080516001600160a01b03808f168252808e1660208301528183018790528b1660608201526080810184905290517f298637f684da70674f26509b10f07ec2fbc77a335ab1e7d6215a4b2484d8bb529181900360a00190a16000975092955050505050505b94509492505050565b601154604080516370a0823160e01b815230600482015290516000926001600160a01b031691839183916370a08231916024808301926020929190829003018186803b1580156149bb57600080fd5b505afa1580156149cf573d6000803e3d6000fd5b505050506040513d60208110156149e557600080fd5b5051604080516323b872dd60e01b81526001600160a01b038881166004830152306024830152604482018890529151929350908416916323b872dd9160648082019260009290919082900301818387803b158015614a4257600080fd5b505af1158015614a56573d6000803e3d6000fd5b5050505060003d60008114614a725760208114614a7c57600080fd5b6000199150614a88565b60206000803e60005191505b5080614adb576040805162461bcd60e51b815260206004820152601860248201527f544f4b454e5f5452414e534645525f494e5f4641494c45440000000000000000604482015290519081900360640190fd5b601154604080516370a0823160e01b815230600482015290516000926001600160a01b0316916370a08231916024808301926020929190829003018186803b158015614b2657600080fd5b505afa158015614b3a573d6000803e3d6000fd5b505050506040513d6020811015614b5057600080fd5b5051905082811015614ba9576040805162461bcd60e51b815260206004820152601a60248201527f544f4b454e5f5452414e534645525f494e5f4f564552464c4f57000000000000604482015290519081900360640190fd5b9190910395945050505050565b6000806000614bc3614c27565b61268086866000614bd2614c27565b600080614be7670de0b6b3a764000087613dac565b90925090506000826003811115614bfa57fe5b14614c19575060408051602081019091526000815290925090506126b6565b6126af818660000151613647565b6040518060200160405280600081525090565b828054600181600116156101000203166002900490600052602060002090601f016020900481019282601f10614c7b57805160ff1916838001178555614ca8565b82800160010185558215614ca8579182015b82811115614ca8578251825591602001919060010190614c8d565b50614cb4929150614d65565b5090565b6040805161010081019091528060008152602001600081526020016000815260200160008152602001600081526020016000815260200160008152602001600081525090565b6040805160e0810190915280600081526020016000815260200160008152602001600081526020016000815260200160008152602001600081525090565b604080516080810190915280600081526020016000815260200160008152602001600081525090565b610e7591905b80821115614cb45760008155600101614d6b56fe6f6e6c792061646d696e206d617920696e697469616c697a6520746865206d61726b65746d61726b6574206d6179206f6e6c7920626520696e697469616c697a6564206f6e63654345726332303a3a7377656570546f6b656e3a2063616e206e6f7420737765657020756e6465726c79696e6720746f6b656e696e697469616c2065786368616e67652072617465206d7573742062652067726561746572207468616e207a65726f2e6f6e6c79207468652061646d696e206d6179207365742074686520636f6d702d6c696b652064656c656761746573657474696e6720696e7465726573742072617465206d6f64656c206661696c65646f6e6c79207468652061646d696e206d61792063616c6c205f72657369676e496d706c656d656e746174696f6e4d494e545f4e45575f4143434f554e545f42414c414e43455f43414c43554c4154494f4e5f4641494c4544626f72726f7742616c616e636553746f7265643a20626f72726f7742616c616e636553746f726564496e7465726e616c206661696c656452455041595f424f52524f575f4e45575f4143434f554e545f424f52524f575f42414c414e43455f43414c43554c4154494f4e5f4641494c4544ddf252ad1be2c89b69c2b068fc378daa952ba7f163c4a11628f55a4df523b3ef52455041595f424f52524f575f4e45575f544f54414c5f42414c414e43455f43414c43554c4154494f4e5f4641494c45444c49515549444154455f434f4d5054524f4c4c45525f43414c43554c4154455f414d4f554e545f5345495a455f4641494c454465786368616e67655261746553746f7265643a2065786368616e67655261746553746f726564496e7465726e616c206661696c65644d494e545f4e45575f544f54414c5f535550504c595f43414c43554c4154494f4e5f4641494c45446f6e65206f662072656465656d546f6b656e73496e206f722072656465656d416d6f756e74496e206d757374206265207a65726f72656475636520726573657276657320756e657870656374656420756e646572666c6f776f6e6c79207468652061646d696e206d61792063616c6c205f6265636f6d65496d706c656d656e746174696f6ea265627a7a72315820ca883255468d15178e309e22a04d2567884f48a281a2209ea0ee4b90879e11d664736f6c63430005100032",
  "linkReferences": {},
  "deployedLinkReferences": {}
}