{
  "_format": "hh-sol-artifact-1",
  "contractName": "ATokenMigrator",
  "sourceName": "contracts/Lend/farm/migrator/ATokenMigrator.sol",
  "abi": [
    {
      "inputs": [
        {
          "internalType": "address",
          "name": "_breeder",
          "type": "address"
        },
        {
          "internalType": "uint256",
          "name": "_notBeforeBlock",
          "type": "uint256"
        },
        {
          "internalType": "address payable",
          "name": "_targetToken",
          "type": "address"
        }
      ],
      "stateMutability": "nonpayable",
      "type": "constructor"
    },
    {
      "inputs": [],
      "name": "breeder",
      "outputs": [
        {
          "internalType": "address",
          "name": "",
          "type": "address"
        }
      ],
      "stateMutability": "view",
      "type": "function"
    },
    {
      "inputs": [
        {
          "internalType": "contract ATokenInterface",
          "name": "oldLpToken",
          "type": "address"
        }
      ],
      "name": "migrate",
      "outputs": [
        {
          "internalType": "contract PToken",
          "name": "",
          "type": "address"
        },
        {
          "internalType": "uint256",
          "name": "",
          "type": "uint256"
        }
      ],
      "stateMutability": "payable",
      "type": "function"
    },
    {
      "inputs": [],
      "name": "notBeforeBlock",
      "outputs": [
        {
          "internalType": "uint256",
          "name": "",
          "type": "uint256"
        }
      ],
      "stateMutability": "view",
      "type": "function"
    },
    {
      "inputs": [
        {
          "internalType": "contract ATokenInterface",
          "name": "oldLpToken",
          "type": "address"
        }
      ],
      "name": "replaceMigrate",
      "outputs": [
        {
          "internalType": "contract PToken",
          "name": "",
          "type": "address"
        },
        {
          "internalType": "uint256",
          "name": "",
          "type": "uint256"
        }
      ],
      "stateMutability": "payable",
      "type": "function"
    },
    {
      "inputs": [],
      "name": "targetToken",
      "outputs": [
        {
          "internalType": "address payable",
          "name": "",
          "type": "address"
        }
      ],
      "stateMutability": "view",
      "type": "function"
    },
    {
      "stateMutability": "payable",
      "type": "receive"
    }
  ],
  "bytecode": "0x608060405234801561001057600080fd5b5060405161164d38038061164d8339818101604052606081101561003357600080fd5b5080516020820151604090920151600080546001600160a01b039384166001600160a01b0319918216179091556001939093556002805492909116919092161790556115c9806100846000396000f3fe60806040526004361061004e5760003560e01c8063052931371461005a578063327107f7146100815780636336cc61146100b2578063ae9dfc4d146100fb578063ce5494bb1461011057610055565b3661005557005b600080fd5b34801561006657600080fd5b5061006f610136565b60408051918252519081900360200190f35b34801561008d57600080fd5b5061009661013c565b604080516001600160a01b039092168252519081900360200190f35b6100d8600480360360208110156100c857600080fd5b50356001600160a01b031661014b565b604080516001600160a01b03909316835260208301919091528051918290030190f35b34801561010757600080fd5b50610096610975565b6100d86004803603602081101561012657600080fd5b50356001600160a01b0316610984565b60015481565b6002546001600160a01b031681565b6000805481906001600160a01b031633146101a0576040805162461bcd60e51b815260206004820152601060248201526f3737ba10333937b690313932b2b232b960811b604482015290519081900360640190fd5b6001544310156101ee576040805162461bcd60e51b8152602060048201526014602482015273746f6f206561726c7920746f206d69677261746560601b604482015290519081900360640190fd5b60008054604080516370a0823160e01b81526001600160a01b03928316600482015290513093928716916370a08231916024808301926020929190829003018186803b15801561023d57600080fd5b505afa158015610251573d6000803e3d6000fd5b505050506040513d602081101561026757600080fd5b50519050806102bd576040805162461bcd60e51b815260206004820152601a60248201527f62616c616e6365206d75737420626967676572207468616e2030000000000000604482015290519081900360640190fd5b6000856001600160a01b03166389d1a0fc6040518163ffffffff1660e01b815260040160206040518083038186803b1580156102f857600080fd5b505afa15801561030c573d6000803e3d6000fd5b505050506040513d602081101561032257600080fd5b5051905060006001600160a01b03821673eeeeeeeeeeeeeeeeeeeeeeeeeeeeeeeeeeeeeeee141561035e57506001600160a01b038316316103d8565b604080516370a0823160e01b81526001600160a01b038681166004830152915184928316916370a08231916024808301926020929190829003018186803b1580156103a857600080fd5b505afa1580156103bc573d6000803e3d6000fd5b505050506040513d60208110156103d257600080fd5b50519150505b60008054604080516323b872dd60e01b81526001600160a01b0392831660048201528783166024820152604481018790529051918a16926323b872dd926064808401936020939083900390910190829087803b15801561043757600080fd5b505af115801561044b573d6000803e3d6000fd5b505050506040513d602081101561046157600080fd5b50506040805163db006a7560e01b81526004810185905290516001600160a01b0389169163db006a7591602480830192600092919082900301818387803b1580156104ab57600080fd5b505af11580156104bf573d6000803e3d6000fd5b505050506001600160a01b03821673eeeeeeeeeeeeeeeeeeeeeeeeeeeeeeeeeeeeeeee1415610682576002546001600160a01b039081169060009061050790871631846110c8565b9050816001600160a01b03166394f2241282876040518363ffffffff1660e01b8152600401808281526020019150506000604051808303818588803b15801561054f57600080fd5b505af1158015610563573d6000803e3d6000fd5b50505050506000826001600160a01b03166370a08231886040518263ffffffff1660e01b815260040180826001600160a01b0316815260200191505060206040518083038186803b1580156105b757600080fd5b505afa1580156105cb573d6000803e3d6000fd5b505050506040513d60208110156105e157600080fd5b505160008054604080516323b872dd60e01b81526001600160a01b038c811660048301529283166024820152604481018590529051939450908616926323b872dd92606480840193602093929083900390910190829087803b15801561064657600080fd5b505af115801561065a573d6000803e3d6000fd5b505050506040513d602081101561067057600080fd5b50929850965061097095505050505050565b60025460408051636f307dc360e01b815290516001600160a01b03909216918291636f307dc3916004808301926020929190829003018186803b1580156106c857600080fd5b505afa1580156106dc573d6000803e3d6000fd5b505050506040513d60208110156106f257600080fd5b50516001600160a01b0384811691161461073f576040805162461bcd60e51b81526020600482015260096024820152680dcdee840dac2e8c6d60bb1b604482015290519081900360640190fd5b600083905060006107c984836001600160a01b03166370a082318a6040518263ffffffff1660e01b815260040180826001600160a01b0316815260200191505060206040518083038186803b15801561079757600080fd5b505afa1580156107ab573d6000803e3d6000fd5b505050506040513d60208110156107c157600080fd5b5051906110c8565b90506107df6001600160a01b0383168483611125565b826001600160a01b031663791d891582886040518363ffffffff1660e01b81526004018083815260200182815260200192505050602060405180830381600087803b15801561082d57600080fd5b505af1158015610841573d6000803e3d6000fd5b505050506040513d602081101561085757600080fd5b5050604080516370a0823160e01b81526001600160a01b03898116600483015291516000928616916370a08231916024808301926020929190829003018186803b1580156108a457600080fd5b505afa1580156108b8573d6000803e3d6000fd5b505050506040513d60208110156108ce57600080fd5b505160008054604080516323b872dd60e01b81526001600160a01b038d811660048301529283166024820152604481018590529051939450908716926323b872dd92606480840193602093929083900390910190829087803b15801561093357600080fd5b505af1158015610947573d6000803e3d6000fd5b505050506040513d602081101561095d57600080fd5b5093995097506109709650505050505050565b915091565b6000546001600160a01b031681565b6000805481906001600160a01b031633146109d9576040805162461bcd60e51b815260206004820152601060248201526f3737ba10333937b690313932b2b232b960811b604482015290519081900360640190fd5b600154431015610a27576040805162461bcd60e51b8152602060048201526014602482015273746f6f206561726c7920746f206d69677261746560601b604482015290519081900360640190fd5b60008054604080516370a0823160e01b81526001600160a01b03928316600482015290513093928716916370a08231916024808301926020929190829003018186803b158015610a7657600080fd5b505afa158015610a8a573d6000803e3d6000fd5b505050506040513d6020811015610aa057600080fd5b5051905080610af6576040805162461bcd60e51b815260206004820152601a60248201527f62616c616e6365206d75737420626967676572207468616e2030000000000000604482015290519081900360640190fd5b60008054604080516323b872dd60e01b81526001600160a01b0392831660048201528583166024820152604481018590529051918816926323b872dd926064808401936020939083900390910190829087803b158015610b5557600080fd5b505af1158015610b69573d6000803e3d6000fd5b505050506040513d6020811015610b7f57600080fd5b50506040805163db006a7560e01b81526004810183905290516001600160a01b0387169163db006a7591602480830192600092919082900301818387803b158015610bc957600080fd5b505af1158015610bdd573d6000803e3d6000fd5b505050506000856001600160a01b03166389d1a0fc6040518163ffffffff1660e01b815260040160206040518083038186803b158015610c1c57600080fd5b505afa158015610c30573d6000803e3d6000fd5b505050506040513d6020811015610c4657600080fd5b505190506001600160a01b03811673eeeeeeeeeeeeeeeeeeeeeeeeeeeeeeeeeeeeeeee1415610dee5760025460408051631249c58b60e01b815290516001600160a01b0392831692861631918391631249c58b918491600480830192600092919082900301818588803b158015610cbc57600080fd5b505af1158015610cd0573d6000803e3d6000fd5b50505050506000826001600160a01b03166370a08231876040518263ffffffff1660e01b815260040180826001600160a01b0316815260200191505060206040518083038186803b158015610d2457600080fd5b505afa158015610d38573d6000803e3d6000fd5b505050506040513d6020811015610d4e57600080fd5b505160008054604080516323b872dd60e01b81526001600160a01b038b811660048301529283166024820152604481018590529051939450908616926323b872dd92606480840193602093929083900390910190829087803b158015610db357600080fd5b505af1158015610dc7573d6000803e3d6000fd5b505050506040513d6020811015610ddd57600080fd5b509297509550610970945050505050565b60025460408051636f307dc360e01b815290516001600160a01b03909216918291636f307dc3916004808301926020929190829003018186803b158015610e3457600080fd5b505afa158015610e48573d6000803e3d6000fd5b505050506040513d6020811015610e5e57600080fd5b50516001600160a01b03838116911614610eab576040805162461bcd60e51b81526020600482015260096024820152680dcdee840dac2e8c6d60bb1b604482015290519081900360640190fd5b600080839050806001600160a01b03166370a08231876040518263ffffffff1660e01b815260040180826001600160a01b0316815260200191505060206040518083038186803b158015610efe57600080fd5b505afa158015610f12573d6000803e3d6000fd5b505050506040513d6020811015610f2857600080fd5b50519150610f406001600160a01b0382168484611125565b826001600160a01b031663a0712d68836040518263ffffffff1660e01b815260040180828152602001915050602060405180830381600087803b158015610f8657600080fd5b505af1158015610f9a573d6000803e3d6000fd5b505050506040513d6020811015610fb057600080fd5b5050604080516370a0823160e01b81526001600160a01b03888116600483015291516000928616916370a08231916024808301926020929190829003018186803b158015610ffd57600080fd5b505afa158015611011573d6000803e3d6000fd5b505050506040513d602081101561102757600080fd5b505160008054604080516323b872dd60e01b81526001600160a01b038c811660048301529283166024820152604481018590529051939450908716926323b872dd92606480840193602093929083900390910190829087803b15801561108c57600080fd5b505af11580156110a0573d6000803e3d6000fd5b505050506040513d60208110156110b657600080fd5b50939850965061097095505050505050565b60008282111561111f576040805162461bcd60e51b815260206004820152601e60248201527f536166654d6174683a207375627472616374696f6e206f766572666c6f770000604482015290519081900360640190fd5b50900390565b8015806111ab575060408051636eb1769f60e11b81523060048201526001600160a01b03848116602483015291519185169163dd62ed3e91604480820192602092909190829003018186803b15801561117d57600080fd5b505afa158015611191573d6000803e3d6000fd5b505050506040513d60208110156111a757600080fd5b5051155b6111e65760405162461bcd60e51b815260040180806020018281038252603681526020018061155e6036913960400191505060405180910390fd5b604080516001600160a01b038416602482015260448082018490528251808303909101815260649091019091526020810180516001600160e01b031663095ea7b360e01b17905261123890849061123d565b505050565b6060611292826040518060400160405280602081526020017f5361666545524332303a206c6f772d6c6576656c2063616c6c206661696c6564815250856001600160a01b03166112ee9092919063ffffffff16565b805190915015611238578080602001905160208110156112b157600080fd5b50516112385760405162461bcd60e51b815260040180806020018281038252602a815260200180611534602a913960400191505060405180910390fd5b60606112fd8484600085611307565b90505b9392505050565b6060824710156113485760405162461bcd60e51b815260040180806020018281038252602681526020018061150e6026913960400191505060405180910390fd5b61135185611463565b6113a2576040805162461bcd60e51b815260206004820152601d60248201527f416464726573733a2063616c6c20746f206e6f6e2d636f6e7472616374000000604482015290519081900360640190fd5b60006060866001600160a01b031685876040518082805190602001908083835b602083106113e15780518252601f1990920191602091820191016113c2565b6001836020036101000a03801982511681845116808217855250505050505090500191505060006040518083038185875af1925050503d8060008114611443576040519150601f19603f3d011682016040523d82523d6000602084013e611448565b606091505b5091509150611458828286611469565b979650505050505050565b3b151590565b60608315611478575081611300565b8251156114885782518084602001fd5b8160405162461bcd60e51b81526004018080602001828103825283818151815260200191508051906020019080838360005b838110156114d25781810151838201526020016114ba565b50505050905090810190601f1680156114ff5780820380516001836020036101000a031916815260200191505b509250505060405180910390fdfe416464726573733a20696e73756666696369656e742062616c616e636520666f722063616c6c5361666545524332303a204552433230206f7065726174696f6e20646964206e6f7420737563636565645361666545524332303a20617070726f76652066726f6d206e6f6e2d7a65726f20746f206e6f6e2d7a65726f20616c6c6f77616e6365a26469706673582212203fdb8042977bbb391857e1fc59d37dd4da428b7880fb3040292e1778ddaa558564736f6c634300060c0033",
  "linkReferences": {},
  "deployedLinkReferences": {}
}