{
  "_format": "hh-sol-artifact-1",
  "contractName": "BaseJumpRateModel",
  "sourceName": "contracts/Lend/rate/BaseJumpRateModel.sol",
  "abi": [
    {
      "anonymous": false,
      "inputs": [
        {
          "indexed": false,
          "internalType": "uint256",
          "name": "baseRatePerBlock",
          "type": "uint256"
        },
        {
          "indexed": false,
          "internalType": "uint256",
          "name": "multiplierPerBlock",
          "type": "uint256"
        },
        {
          "indexed": false,
          "internalType": "uint256",
          "name": "jumpMultiplierPerBlock",
          "type": "uint256"
        },
        {
          "indexed": false,
          "internalType": "uint256",
          "name": "kink",
          "type": "uint256"
        }
      ],
      "name": "NewInterestParams",
      "type": "event"
    },
    {
      "anonymous": false,
      "inputs": [
        {
          "indexed": true,
          "internalType": "address",
          "name": "previousOwner",
          "type": "address"
        },
        {
          "indexed": true,
          "internalType": "address",
          "name": "newOwner",
          "type": "address"
        }
      ],
      "name": "OwnershipTransferred",
      "type": "event"
    },
    {
      "inputs": [],
      "name": "baseRatePerBlock",
      "outputs": [
        {
          "internalType": "uint256",
          "name": "",
          "type": "uint256"
        }
      ],
      "stateMutability": "view",
      "type": "function"
    },
    {
      "inputs": [],
      "name": "blocksPerYear",
      "outputs": [
        {
          "internalType": "uint256",
          "name": "",
          "type": "uint256"
        }
      ],
      "stateMutability": "view",
      "type": "function"
    },
    {
      "inputs": [
        {
          "internalType": "uint256",
          "name": "cash",
          "type": "uint256"
        },
        {
          "internalType": "uint256",
          "name": "borrows",
          "type": "uint256"
        },
        {
          "internalType": "uint256",
          "name": "reserves",
          "type": "uint256"
        }
      ],
      "name": "getBorrowRate",
      "outputs": [
        {
          "internalType": "uint256",
          "name": "",
          "type": "uint256"
        }
      ],
      "stateMutability": "view",
      "type": "function"
    },
    {
      "inputs": [
        {
          "internalType": "uint256",
          "name": "cash",
          "type": "uint256"
        },
        {
          "internalType": "uint256",
          "name": "borrows",
          "type": "uint256"
        },
        {
          "internalType": "uint256",
          "name": "reserves",
          "type": "uint256"
        },
        {
          "internalType": "uint256",
          "name": "reserveFactorMantissa",
          "type": "uint256"
        }
      ],
      "name": "getSupplyRate",
      "outputs": [
        {
          "internalType": "uint256",
          "name": "",
          "type": "uint256"
        }
      ],
      "stateMutability": "view",
      "type": "function"
    },
    {
      "inputs": [],
      "name": "jumpMultiplierPerBlock",
      "outputs": [
        {
          "internalType": "uint256",
          "name": "",
          "type": "uint256"
        }
      ],
      "stateMutability": "view",
      "type": "function"
    },
    {
      "inputs": [],
      "name": "kink",
      "outputs": [
        {
          "internalType": "uint256",
          "name": "",
          "type": "uint256"
        }
      ],
      "stateMutability": "view",
      "type": "function"
    },
    {
      "inputs": [],
      "name": "multiplierPerBlock",
      "outputs": [
        {
          "internalType": "uint256",
          "name": "",
          "type": "uint256"
        }
      ],
      "stateMutability": "view",
      "type": "function"
    },
    {
      "inputs": [],
      "name": "owner",
      "outputs": [
        {
          "internalType": "address",
          "name": "",
          "type": "address"
        }
      ],
      "stateMutability": "view",
      "type": "function"
    },
    {
      "inputs": [],
      "name": "renounceOwnership",
      "outputs": [],
      "stateMutability": "nonpayable",
      "type": "function"
    },
    {
      "inputs": [
        {
          "internalType": "address",
          "name": "newOwner",
          "type": "address"
        }
      ],
      "name": "transferOwnership",
      "outputs": [],
      "stateMutability": "nonpayable",
      "type": "function"
    },
    {
      "inputs": [
        {
          "internalType": "uint256",
          "name": "baseRatePerYear",
          "type": "uint256"
        },
        {
          "internalType": "uint256",
          "name": "multiplierPerYear",
          "type": "uint256"
        },
        {
          "internalType": "uint256",
          "name": "jumpMultiplierPerYear",
          "type": "uint256"
        },
        {
          "internalType": "uint256",
          "name": "kink_",
          "type": "uint256"
        }
      ],
      "name": "updateJumpRateModel",
      "outputs": [],
      "stateMutability": "nonpayable",
      "type": "function"
    },
    {
      "inputs": [
        {
          "internalType": "uint256",
          "name": "cash",
          "type": "uint256"
        },
        {
          "internalType": "uint256",
          "name": "borrows",
          "type": "uint256"
        },
        {
          "internalType": "uint256",
          "name": "reserves",
          "type": "uint256"
        }
      ],
      "name": "utilizationRate",
      "outputs": [
        {
          "internalType": "uint256",
          "name": "",
          "type": "uint256"
        }
      ],
      "stateMutability": "pure",
      "type": "function"
    }
  ],
  "bytecode": "0x608060405234801561001057600080fd5b50610948806100206000396000f3fe608060405234801561001057600080fd5b50600436106100b45760003560e01c8063a385fb9611610071578063a385fb9614610182578063b81688161461018a578063b9f9850a146101b9578063f14039de146101c1578063f2fde38b146101c9578063fd2da339146101ef576100b4565b806315f24053146100b95780632037f3e7146100f45780636e71e2d814610125578063715018a61461014e5780638726bb89146101565780638da5cb5b1461015e575b600080fd5b6100e2600480360360608110156100cf57600080fd5b50803590602081013590604001356101f7565b60408051918252519081900360200190f35b6101236004803603608081101561010a57600080fd5b508035906020810135906040810135906060013561020e565b005b6100e26004803603606081101561013b57600080fd5b5080359060208101359060400135610220565b61012361025e565b6100e2610312565b610166610318565b604080516001600160a01b039092168252519081900360200190f35b6100e2610327565b6100e2600480360360808110156101a057600080fd5b508035906020810135906040810135906060013561032e565b6100e2610345565b6100e261034b565b610123600480360360208110156101df57600080fd5b50356001600160a01b0316610351565b6100e261045c565b6000610204848484610462565b90505b9392505050565b61021a84848484610525565b50505050565b60008261022f57506000610207565b61020461024683610240878761061e565b90610681565b61025885670de0b6b3a76400006106c3565b9061071c565b61026661075e565b6065546001600160a01b039081169116146102c8576040805162461bcd60e51b815260206004820181905260248201527f4f776e61626c653a2063616c6c6572206973206e6f7420746865206f776e6572604482015290519081900360640190fd5b6065546040516000916001600160a01b0316907f8be0079c531659141344cd1fd0a4f28419497f9722a3daafe3b4186f6b6457e0908390a3606580546001600160a01b0319169055565b60975481565b6065546001600160a01b031690565b6220148081565b600061033c85858585610762565b95945050505050565b60995481565b60985481565b61035961075e565b6065546001600160a01b039081169116146103bb576040805162461bcd60e51b815260206004820181905260248201527f4f776e61626c653a2063616c6c6572206973206e6f7420746865206f776e6572604482015290519081900360640190fd5b6001600160a01b0381166104005760405162461bcd60e51b81526004018080602001828103825260268152602001806108cc6026913960400191505060405180910390fd5b6065546040516001600160a01b038084169216907f8be0079c531659141344cd1fd0a4f28419497f9722a3daafe3b4186f6b6457e090600090a3606580546001600160a01b0319166001600160a01b0392909216919091179055565b609a5481565b600080610470858585610220565b9050609a5481116104b0576104a86098546104a2670de0b6b3a7640000610258609754866106c390919063ffffffff16565b9061061e565b915050610207565b60006104db6098546104a2670de0b6b3a7640000610258609754609a546106c390919063ffffffff16565b905060006104f4609a548461068190919063ffffffff16565b905061051b826104a2670de0b6b3a7640000610258609954866106c390919063ffffffff16565b9350505050610207565b61052d61075e565b6065546001600160a01b0390811691161461058f576040805162461bcd60e51b815260206004820181905260248201527f4f776e61626c653a2063616c6c6572206973206e6f7420746865206f776e6572604482015290519081900360640190fd5b61059c846220148061071c565b6098556105af61024662201480836106c3565b6097556105bf826220148061071c565b6099819055609a829055609854609754604080519283526020830191909152818101929092526060810183905290517f6960ab234c7ef4b0c9197100f5393cfcde7c453ac910a27bd2000aa1dd4c068d9181900360800190a150505050565b600082820183811015610678576040805162461bcd60e51b815260206004820152601b60248201527f536166654d6174683a206164646974696f6e206f766572666c6f770000000000604482015290519081900360640190fd5b90505b92915050565b600061067883836040518060400160405280601e81526020017f536166654d6174683a207375627472616374696f6e206f766572666c6f7700008152506107cf565b6000826106d25750600061067b565b828202828482816106df57fe5b04146106785760405162461bcd60e51b81526004018080602001828103825260218152602001806108f26021913960400191505060405180910390fd5b600061067883836040518060400160405280601a81526020017f536166654d6174683a206469766973696f6e206279207a65726f000000000000815250610866565b3390565b600080610777670de0b6b3a764000084610681565b90506000610786878787610462565b905060006107a0670de0b6b3a764000061025884866106c3565b90506107c3670de0b6b3a7640000610258836107bd8c8c8c610220565b906106c3565b98975050505050505050565b6000818484111561085e5760405162461bcd60e51b81526004018080602001828103825283818151815260200191508051906020019080838360005b8381101561082357818101518382015260200161080b565b50505050905090810190601f1680156108505780820380516001836020036101000a031916815260200191505b509250505060405180910390fd5b505050900390565b600081836108b55760405162461bcd60e51b815260206004820181815283516024840152835190928392604490910191908501908083836000831561082357818101518382015260200161080b565b5060008385816108c157fe5b049594505050505056fe4f776e61626c653a206e6577206f776e657220697320746865207a65726f2061646472657373536166654d6174683a206d756c7469706c69636174696f6e206f766572666c6f77a264697066735822122057d0f1114dec0acfc0ae8ce8b2f2fe73ae7d9b12b447b09249a4c3c74400ccf464736f6c634300060c0033",
  "linkReferences": {},
  "deployedLinkReferences": {}
}