{
  "_format": "hh-sol-artifact-1",
  "contractName": "ComptrollerG4",
  "sourceName": "contracts/Lend/ComptrollerG4.sol",
  "abi": [
    {
      "inputs": [],
      "payable": false,
      "stateMutability": "nonpayable",
      "type": "constructor"
    },
    {
      "anonymous": false,
      "inputs": [
        {
          "indexed": false,
          "internalType": "string",
          "name": "action",
          "type": "string"
        },
        {
          "indexed": false,
          "internalType": "bool",
          "name": "pauseState",
          "type": "bool"
        }
      ],
      "name": "ActionPaused",
      "type": "event"
    },
    {
      "anonymous": false,
      "inputs": [
        {
          "indexed": false,
          "internalType": "contract CToken",
          "name": "cToken",
          "type": "address"
        },
        {
          "indexed": false,
          "internalType": "string",
          "name": "action",
          "type": "string"
        },
        {
          "indexed": false,
          "internalType": "bool",
          "name": "pauseState",
          "type": "bool"
        }
      ],
      "name": "ActionPaused",
      "type": "event"
    },
    {
      "anonymous": false,
      "inputs": [
        {
          "indexed": true,
          "internalType": "contract CToken",
          "name": "cToken",
          "type": "address"
        },
        {
          "indexed": false,
          "internalType": "uint256",
          "name": "newSpeed",
          "type": "uint256"
        }
      ],
      "name": "CompSpeedUpdated",
      "type": "event"
    },
    {
      "anonymous": false,
      "inputs": [
        {
          "indexed": true,
          "internalType": "contract CToken",
          "name": "cToken",
          "type": "address"
        },
        {
          "indexed": true,
          "internalType": "address",
          "name": "borrower",
          "type": "address"
        },
        {
          "indexed": false,
          "internalType": "uint256",
          "name": "compDelta",
          "type": "uint256"
        },
        {
          "indexed": false,
          "internalType": "uint256",
          "name": "compBorrowIndex",
          "type": "uint256"
        }
      ],
      "name": "DistributedBorrowerComp",
      "type": "event"
    },
    {
      "anonymous": false,
      "inputs": [
        {
          "indexed": true,
          "internalType": "contract CToken",
          "name": "cToken",
          "type": "address"
        },
        {
          "indexed": true,
          "internalType": "address",
          "name": "supplier",
          "type": "address"
        },
        {
          "indexed": false,
          "internalType": "uint256",
          "name": "compDelta",
          "type": "uint256"
        },
        {
          "indexed": false,
          "internalType": "uint256",
          "name": "compSupplyIndex",
          "type": "uint256"
        }
      ],
      "name": "DistributedSupplierComp",
      "type": "event"
    },
    {
      "anonymous": false,
      "inputs": [
        {
          "indexed": false,
          "internalType": "uint256",
          "name": "error",
          "type": "uint256"
        },
        {
          "indexed": false,
          "internalType": "uint256",
          "name": "info",
          "type": "uint256"
        },
        {
          "indexed": false,
          "internalType": "uint256",
          "name": "detail",
          "type": "uint256"
        }
      ],
      "name": "Failure",
      "type": "event"
    },
    {
      "anonymous": false,
      "inputs": [
        {
          "indexed": false,
          "internalType": "contract CToken",
          "name": "cToken",
          "type": "address"
        },
        {
          "indexed": false,
          "internalType": "bool",
          "name": "isComped",
          "type": "bool"
        }
      ],
      "name": "MarketComped",
      "type": "event"
    },
    {
      "anonymous": false,
      "inputs": [
        {
          "indexed": false,
          "internalType": "contract CToken",
          "name": "cToken",
          "type": "address"
        },
        {
          "indexed": false,
          "internalType": "address",
          "name": "account",
          "type": "address"
        }
      ],
      "name": "MarketEntered",
      "type": "event"
    },
    {
      "anonymous": false,
      "inputs": [
        {
          "indexed": false,
          "internalType": "contract CToken",
          "name": "cToken",
          "type": "address"
        },
        {
          "indexed": false,
          "internalType": "address",
          "name": "account",
          "type": "address"
        }
      ],
      "name": "MarketExited",
      "type": "event"
    },
    {
      "anonymous": false,
      "inputs": [
        {
          "indexed": false,
          "internalType": "contract CToken",
          "name": "cToken",
          "type": "address"
        }
      ],
      "name": "MarketListed",
      "type": "event"
    },
    {
      "anonymous": false,
      "inputs": [
        {
          "indexed": false,
          "internalType": "uint256",
          "name": "oldCloseFactorMantissa",
          "type": "uint256"
        },
        {
          "indexed": false,
          "internalType": "uint256",
          "name": "newCloseFactorMantissa",
          "type": "uint256"
        }
      ],
      "name": "NewCloseFactor",
      "type": "event"
    },
    {
      "anonymous": false,
      "inputs": [
        {
          "indexed": false,
          "internalType": "contract CToken",
          "name": "cToken",
          "type": "address"
        },
        {
          "indexed": false,
          "internalType": "uint256",
          "name": "oldCollateralFactorMantissa",
          "type": "uint256"
        },
        {
          "indexed": false,
          "internalType": "uint256",
          "name": "newCollateralFactorMantissa",
          "type": "uint256"
        }
      ],
      "name": "NewCollateralFactor",
      "type": "event"
    },
    {
      "anonymous": false,
      "inputs": [
        {
          "indexed": false,
          "internalType": "uint256",
          "name": "oldCompRate",
          "type": "uint256"
        },
        {
          "indexed": false,
          "internalType": "uint256",
          "name": "newCompRate",
          "type": "uint256"
        }
      ],
      "name": "NewCompRate",
      "type": "event"
    },
    {
      "anonymous": false,
      "inputs": [
        {
          "indexed": false,
          "internalType": "uint256",
          "name": "oldLiquidationIncentiveMantissa",
          "type": "uint256"
        },
        {
          "indexed": false,
          "internalType": "uint256",
          "name": "newLiquidationIncentiveMantissa",
          "type": "uint256"
        }
      ],
      "name": "NewLiquidationIncentive",
      "type": "event"
    },
    {
      "anonymous": false,
      "inputs": [
        {
          "indexed": false,
          "internalType": "uint256",
          "name": "oldMaxAssets",
          "type": "uint256"
        },
        {
          "indexed": false,
          "internalType": "uint256",
          "name": "newMaxAssets",
          "type": "uint256"
        }
      ],
      "name": "NewMaxAssets",
      "type": "event"
    },
    {
      "anonymous": false,
      "inputs": [
        {
          "indexed": false,
          "internalType": "address",
          "name": "oldPauseGuardian",
          "type": "address"
        },
        {
          "indexed": false,
          "internalType": "address",
          "name": "newPauseGuardian",
          "type": "address"
        }
      ],
      "name": "NewPauseGuardian",
      "type": "event"
    },
    {
      "anonymous": false,
      "inputs": [
        {
          "indexed": false,
          "internalType": "contract PriceOracle",
          "name": "oldPriceOracle",
          "type": "address"
        },
        {
          "indexed": false,
          "internalType": "contract PriceOracle",
          "name": "newPriceOracle",
          "type": "address"
        }
      ],
      "name": "NewPriceOracle",
      "type": "event"
    },
    {
      "constant": false,
      "inputs": [
        {
          "internalType": "address[]",
          "name": "cTokens",
          "type": "address[]"
        }
      ],
      "name": "_addCompMarkets",
      "outputs": [],
      "payable": false,
      "stateMutability": "nonpayable",
      "type": "function"
    },
    {
      "constant": false,
      "inputs": [
        {
          "internalType": "contract Unitroller",
          "name": "unitroller",
          "type": "address"
        }
      ],
      "name": "_become",
      "outputs": [],
      "payable": false,
      "stateMutability": "nonpayable",
      "type": "function"
    },
    {
      "constant": true,
      "inputs": [],
      "name": "_borrowGuardianPaused",
      "outputs": [
        {
          "internalType": "bool",
          "name": "",
          "type": "bool"
        }
      ],
      "payable": false,
      "stateMutability": "view",
      "type": "function"
    },
    {
      "constant": false,
      "inputs": [
        {
          "internalType": "address",
          "name": "cToken",
          "type": "address"
        }
      ],
      "name": "_dropCompMarket",
      "outputs": [],
      "payable": false,
      "stateMutability": "nonpayable",
      "type": "function"
    },
    {
      "constant": true,
      "inputs": [],
      "name": "_mintGuardianPaused",
      "outputs": [
        {
          "internalType": "bool",
          "name": "",
          "type": "bool"
        }
      ],
      "payable": false,
      "stateMutability": "view",
      "type": "function"
    },
    {
      "constant": false,
      "inputs": [
        {
          "internalType": "contract CToken",
          "name": "cToken",
          "type": "address"
        },
        {
          "internalType": "bool",
          "name": "state",
          "type": "bool"
        }
      ],
      "name": "_setBorrowPaused",
      "outputs": [
        {
          "internalType": "bool",
          "name": "",
          "type": "bool"
        }
      ],
      "payable": false,
      "stateMutability": "nonpayable",
      "type": "function"
    },
    {
      "constant": false,
      "inputs": [
        {
          "internalType": "uint256",
          "name": "newCloseFactorMantissa",
          "type": "uint256"
        }
      ],
      "name": "_setCloseFactor",
      "outputs": [
        {
          "internalType": "uint256",
          "name": "",
          "type": "uint256"
        }
      ],
      "payable": false,
      "stateMutability": "nonpayable",
      "type": "function"
    },
    {
      "constant": false,
      "inputs": [
        {
          "internalType": "contract CToken",
          "name": "cToken",
          "type": "address"
        },
        {
          "internalType": "uint256",
          "name": "newCollateralFactorMantissa",
          "type": "uint256"
        }
      ],
      "name": "_setCollateralFactor",
      "outputs": [
        {
          "internalType": "uint256",
          "name": "",
          "type": "uint256"
        }
      ],
      "payable": false,
      "stateMutability": "nonpayable",
      "type": "function"
    },
    {
      "constant": false,
      "inputs": [
        {
          "internalType": "uint256",
          "name": "compRate_",
          "type": "uint256"
        }
      ],
      "name": "_setCompRate",
      "outputs": [],
      "payable": false,
      "stateMutability": "nonpayable",
      "type": "function"
    },
    {
      "constant": false,
      "inputs": [
        {
          "internalType": "uint256",
          "name": "newLiquidationIncentiveMantissa",
          "type": "uint256"
        }
      ],
      "name": "_setLiquidationIncentive",
      "outputs": [
        {
          "internalType": "uint256",
          "name": "",
          "type": "uint256"
        }
      ],
      "payable": false,
      "stateMutability": "nonpayable",
      "type": "function"
    },
    {
      "constant": false,
      "inputs": [
        {
          "internalType": "uint256",
          "name": "newMaxAssets",
          "type": "uint256"
        }
      ],
      "name": "_setMaxAssets",
      "outputs": [
        {
          "internalType": "uint256",
          "name": "",
          "type": "uint256"
        }
      ],
      "payable": false,
      "stateMutability": "nonpayable",
      "type": "function"
    },
    {
      "constant": false,
      "inputs": [
        {
          "internalType": "contract CToken",
          "name": "cToken",
          "type": "address"
        },
        {
          "internalType": "bool",
          "name": "state",
          "type": "bool"
        }
      ],
      "name": "_setMintPaused",
      "outputs": [
        {
          "internalType": "bool",
          "name": "",
          "type": "bool"
        }
      ],
      "payable": false,
      "stateMutability": "nonpayable",
      "type": "function"
    },
    {
      "constant": false,
      "inputs": [
        {
          "internalType": "address",
          "name": "newPauseGuardian",
          "type": "address"
        }
      ],
      "name": "_setPauseGuardian",
      "outputs": [
        {
          "internalType": "uint256",
          "name": "",
          "type": "uint256"
        }
      ],
      "payable": false,
      "stateMutability": "nonpayable",
      "type": "function"
    },
    {
      "constant": false,
      "inputs": [
        {
          "internalType": "contract PriceOracle",
          "name": "newOracle",
          "type": "address"
        }
      ],
      "name": "_setPriceOracle",
      "outputs": [
        {
          "internalType": "uint256",
          "name": "",
          "type": "uint256"
        }
      ],
      "payable": false,
      "stateMutability": "nonpayable",
      "type": "function"
    },
    {
      "constant": false,
      "inputs": [
        {
          "internalType": "bool",
          "name": "state",
          "type": "bool"
        }
      ],
      "name": "_setSeizePaused",
      "outputs": [
        {
          "internalType": "bool",
          "name": "",
          "type": "bool"
        }
      ],
      "payable": false,
      "stateMutability": "nonpayable",
      "type": "function"
    },
    {
      "constant": false,
      "inputs": [
        {
          "internalType": "bool",
          "name": "state",
          "type": "bool"
        }
      ],
      "name": "_setTransferPaused",
      "outputs": [
        {
          "internalType": "bool",
          "name": "",
          "type": "bool"
        }
      ],
      "payable": false,
      "stateMutability": "nonpayable",
      "type": "function"
    },
    {
      "constant": false,
      "inputs": [
        {
          "internalType": "contract CToken",
          "name": "cToken",
          "type": "address"
        }
      ],
      "name": "_supportMarket",
      "outputs": [
        {
          "internalType": "uint256",
          "name": "",
          "type": "uint256"
        }
      ],
      "payable": false,
      "stateMutability": "nonpayable",
      "type": "function"
    },
    {
      "constant": true,
      "inputs": [
        {
          "internalType": "address",
          "name": "",
          "type": "address"
        },
        {
          "internalType": "uint256",
          "name": "",
          "type": "uint256"
        }
      ],
      "name": "accountAssets",
      "outputs": [
        {
          "internalType": "contract CToken",
          "name": "",
          "type": "address"
        }
      ],
      "payable": false,
      "stateMutability": "view",
      "type": "function"
    },
    {
      "constant": true,
      "inputs": [],
      "name": "admin",
      "outputs": [
        {
          "internalType": "address",
          "name": "",
          "type": "address"
        }
      ],
      "payable": false,
      "stateMutability": "view",
      "type": "function"
    },
    {
      "constant": true,
      "inputs": [
        {
          "internalType": "uint256",
          "name": "",
          "type": "uint256"
        }
      ],
      "name": "allMarkets",
      "outputs": [
        {
          "internalType": "contract CToken",
          "name": "",
          "type": "address"
        }
      ],
      "payable": false,
      "stateMutability": "view",
      "type": "function"
    },
    {
      "constant": false,
      "inputs": [
        {
          "internalType": "address",
          "name": "cToken",
          "type": "address"
        },
        {
          "internalType": "address",
          "name": "borrower",
          "type": "address"
        },
        {
          "internalType": "uint256",
          "name": "borrowAmount",
          "type": "uint256"
        }
      ],
      "name": "borrowAllowed",
      "outputs": [
        {
          "internalType": "uint256",
          "name": "",
          "type": "uint256"
        }
      ],
      "payable": false,
      "stateMutability": "nonpayable",
      "type": "function"
    },
    {
      "constant": true,
      "inputs": [
        {
          "internalType": "address",
          "name": "",
          "type": "address"
        }
      ],
      "name": "borrowGuardianPaused",
      "outputs": [
        {
          "internalType": "bool",
          "name": "",
          "type": "bool"
        }
      ],
      "payable": false,
      "stateMutability": "view",
      "type": "function"
    },
    {
      "constant": false,
      "inputs": [
        {
          "internalType": "address",
          "name": "cToken",
          "type": "address"
        },
        {
          "internalType": "address",
          "name": "borrower",
          "type": "address"
        },
        {
          "internalType": "uint256",
          "name": "borrowAmount",
          "type": "uint256"
        }
      ],
      "name": "borrowVerify",
      "outputs": [],
      "payable": false,
      "stateMutability": "nonpayable",
      "type": "function"
    },
    {
      "constant": true,
      "inputs": [
        {
          "internalType": "address",
          "name": "account",
          "type": "address"
        },
        {
          "internalType": "contract CToken",
          "name": "cToken",
          "type": "address"
        }
      ],
      "name": "checkMembership",
      "outputs": [
        {
          "internalType": "bool",
          "name": "",
          "type": "bool"
        }
      ],
      "payable": false,
      "stateMutability": "view",
      "type": "function"
    },
    {
      "constant": false,
      "inputs": [
        {
          "internalType": "address",
          "name": "holder",
          "type": "address"
        },
        {
          "internalType": "contract CToken[]",
          "name": "cTokens",
          "type": "address[]"
        }
      ],
      "name": "claimComp",
      "outputs": [],
      "payable": false,
      "stateMutability": "nonpayable",
      "type": "function"
    },
    {
      "constant": false,
      "inputs": [
        {
          "internalType": "address[]",
          "name": "holders",
          "type": "address[]"
        },
        {
          "internalType": "contract CToken[]",
          "name": "cTokens",
          "type": "address[]"
        },
        {
          "internalType": "bool",
          "name": "borrowers",
          "type": "bool"
        },
        {
          "internalType": "bool",
          "name": "suppliers",
          "type": "bool"
        }
      ],
      "name": "claimComp",
      "outputs": [],
      "payable": false,
      "stateMutability": "nonpayable",
      "type": "function"
    },
    {
      "constant": false,
      "inputs": [
        {
          "internalType": "address",
          "name": "holder",
          "type": "address"
        }
      ],
      "name": "claimComp",
      "outputs": [],
      "payable": false,
      "stateMutability": "nonpayable",
      "type": "function"
    },
    {
      "constant": true,
      "inputs": [],
      "name": "closeFactorMantissa",
      "outputs": [
        {
          "internalType": "uint256",
          "name": "",
          "type": "uint256"
        }
      ],
      "payable": false,
      "stateMutability": "view",
      "type": "function"
    },
    {
      "constant": true,
      "inputs": [
        {
          "internalType": "address",
          "name": "",
          "type": "address"
        }
      ],
      "name": "compAccrued",
      "outputs": [
        {
          "internalType": "uint256",
          "name": "",
          "type": "uint256"
        }
      ],
      "payable": false,
      "stateMutability": "view",
      "type": "function"
    },
    {
      "constant": true,
      "inputs": [
        {
          "internalType": "address",
          "name": "",
          "type": "address"
        }
      ],
      "name": "compBorrowState",
      "outputs": [
        {
          "internalType": "uint224",
          "name": "index",
          "type": "uint224"
        },
        {
          "internalType": "uint32",
          "name": "block",
          "type": "uint32"
        }
      ],
      "payable": false,
      "stateMutability": "view",
      "type": "function"
    },
    {
      "constant": true,
      "inputs": [
        {
          "internalType": "address",
          "name": "",
          "type": "address"
        },
        {
          "internalType": "address",
          "name": "",
          "type": "address"
        }
      ],
      "name": "compBorrowerIndex",
      "outputs": [
        {
          "internalType": "uint256",
          "name": "",
          "type": "uint256"
        }
      ],
      "payable": false,
      "stateMutability": "view",
      "type": "function"
    },
    {
      "constant": true,
      "inputs": [],
      "name": "compClaimThreshold",
      "outputs": [
        {
          "internalType": "uint256",
          "name": "",
          "type": "uint256"
        }
      ],
      "payable": false,
      "stateMutability": "view",
      "type": "function"
    },
    {
      "constant": true,
      "inputs": [],
      "name": "compInitialIndex",
      "outputs": [
        {
          "internalType": "uint224",
          "name": "",
          "type": "uint224"
        }
      ],
      "payable": false,
      "stateMutability": "view",
      "type": "function"
    },
    {
      "constant": true,
      "inputs": [],
      "name": "compRate",
      "outputs": [
        {
          "internalType": "uint256",
          "name": "",
          "type": "uint256"
        }
      ],
      "payable": false,
      "stateMutability": "view",
      "type": "function"
    },
    {
      "constant": true,
      "inputs": [
        {
          "internalType": "address",
          "name": "",
          "type": "address"
        }
      ],
      "name": "compSpeeds",
      "outputs": [
        {
          "internalType": "uint256",
          "name": "",
          "type": "uint256"
        }
      ],
      "payable": false,
      "stateMutability": "view",
      "type": "function"
    },
    {
      "constant": true,
      "inputs": [
        {
          "internalType": "address",
          "name": "",
          "type": "address"
        },
        {
          "internalType": "address",
          "name": "",
          "type": "address"
        }
      ],
      "name": "compSupplierIndex",
      "outputs": [
        {
          "internalType": "uint256",
          "name": "",
          "type": "uint256"
        }
      ],
      "payable": false,
      "stateMutability": "view",
      "type": "function"
    },
    {
      "constant": true,
      "inputs": [
        {
          "internalType": "address",
          "name": "",
          "type": "address"
        }
      ],
      "name": "compSupplyState",
      "outputs": [
        {
          "internalType": "uint224",
          "name": "index",
          "type": "uint224"
        },
        {
          "internalType": "uint32",
          "name": "block",
          "type": "uint32"
        }
      ],
      "payable": false,
      "stateMutability": "view",
      "type": "function"
    },
    {
      "constant": true,
      "inputs": [],
      "name": "comptrollerImplementation",
      "outputs": [
        {
          "internalType": "address",
          "name": "",
          "type": "address"
        }
      ],
      "payable": false,
      "stateMutability": "view",
      "type": "function"
    },
    {
      "constant": false,
      "inputs": [
        {
          "internalType": "address[]",
          "name": "cTokens",
          "type": "address[]"
        }
      ],
      "name": "enterMarkets",
      "outputs": [
        {
          "internalType": "uint256[]",
          "name": "",
          "type": "uint256[]"
        }
      ],
      "payable": false,
      "stateMutability": "nonpayable",
      "type": "function"
    },
    {
      "constant": false,
      "inputs": [
        {
          "internalType": "address",
          "name": "cTokenAddress",
          "type": "address"
        }
      ],
      "name": "exitMarket",
      "outputs": [
        {
          "internalType": "uint256",
          "name": "",
          "type": "uint256"
        }
      ],
      "payable": false,
      "stateMutability": "nonpayable",
      "type": "function"
    },
    {
      "constant": true,
      "inputs": [
        {
          "internalType": "address",
          "name": "account",
          "type": "address"
        }
      ],
      "name": "getAccountLiquidity",
      "outputs": [
        {
          "internalType": "uint256",
          "name": "",
          "type": "uint256"
        },
        {
          "internalType": "uint256",
          "name": "",
          "type": "uint256"
        },
        {
          "internalType": "uint256",
          "name": "",
          "type": "uint256"
        }
      ],
      "payable": false,
      "stateMutability": "view",
      "type": "function"
    },
    {
      "constant": true,
      "inputs": [],
      "name": "getAllMarkets",
      "outputs": [
        {
          "internalType": "contract CToken[]",
          "name": "",
          "type": "address[]"
        }
      ],
      "payable": false,
      "stateMutability": "view",
      "type": "function"
    },
    {
      "constant": true,
      "inputs": [
        {
          "internalType": "address",
          "name": "account",
          "type": "address"
        }
      ],
      "name": "getAssetsIn",
      "outputs": [
        {
          "internalType": "contract CToken[]",
          "name": "",
          "type": "address[]"
        }
      ],
      "payable": false,
      "stateMutability": "view",
      "type": "function"
    },
    {
      "constant": true,
      "inputs": [],
      "name": "getBlockNumber",
      "outputs": [
        {
          "internalType": "uint256",
          "name": "",
          "type": "uint256"
        }
      ],
      "payable": false,
      "stateMutability": "view",
      "type": "function"
    },
    {
      "constant": true,
      "inputs": [],
      "name": "getCompAddress",
      "outputs": [
        {
          "internalType": "address",
          "name": "",
          "type": "address"
        }
      ],
      "payable": false,
      "stateMutability": "view",
      "type": "function"
    },
    {
      "constant": true,
      "inputs": [
        {
          "internalType": "address",
          "name": "account",
          "type": "address"
        },
        {
          "internalType": "address",
          "name": "cTokenModify",
          "type": "address"
        },
        {
          "internalType": "uint256",
          "name": "redeemTokens",
          "type": "uint256"
        },
        {
          "internalType": "uint256",
          "name": "borrowAmount",
          "type": "uint256"
        }
      ],
      "name": "getHypotheticalAccountLiquidity",
      "outputs": [
        {
          "internalType": "uint256",
          "name": "",
          "type": "uint256"
        },
        {
          "internalType": "uint256",
          "name": "",
          "type": "uint256"
        },
        {
          "internalType": "uint256",
          "name": "",
          "type": "uint256"
        }
      ],
      "payable": false,
      "stateMutability": "view",
      "type": "function"
    },
    {
      "constant": true,
      "inputs": [],
      "name": "isComptroller",
      "outputs": [
        {
          "internalType": "bool",
          "name": "",
          "type": "bool"
        }
      ],
      "payable": false,
      "stateMutability": "view",
      "type": "function"
    },
    {
      "constant": false,
      "inputs": [
        {
          "internalType": "address",
          "name": "cTokenBorrowed",
          "type": "address"
        },
        {
          "internalType": "address",
          "name": "cTokenCollateral",
          "type": "address"
        },
        {
          "internalType": "address",
          "name": "liquidator",
          "type": "address"
        },
        {
          "internalType": "address",
          "name": "borrower",
          "type": "address"
        },
        {
          "internalType": "uint256",
          "name": "repayAmount",
          "type": "uint256"
        }
      ],
      "name": "liquidateBorrowAllowed",
      "outputs": [
        {
          "internalType": "uint256",
          "name": "",
          "type": "uint256"
        }
      ],
      "payable": false,
      "stateMutability": "nonpayable",
      "type": "function"
    },
    {
      "constant": false,
      "inputs": [
        {
          "internalType": "address",
          "name": "cTokenBorrowed",
          "type": "address"
        },
        {
          "internalType": "address",
          "name": "cTokenCollateral",
          "type": "address"
        },
        {
          "internalType": "address",
          "name": "liquidator",
          "type": "address"
        },
        {
          "internalType": "address",
          "name": "borrower",
          "type": "address"
        },
        {
          "internalType": "uint256",
          "name": "actualRepayAmount",
          "type": "uint256"
        },
        {
          "internalType": "uint256",
          "name": "seizeTokens",
          "type": "uint256"
        }
      ],
      "name": "liquidateBorrowVerify",
      "outputs": [],
      "payable": false,
      "stateMutability": "nonpayable",
      "type": "function"
    },
    {
      "constant": true,
      "inputs": [
        {
          "internalType": "address",
          "name": "cTokenBorrowed",
          "type": "address"
        },
        {
          "internalType": "address",
          "name": "cTokenCollateral",
          "type": "address"
        },
        {
          "internalType": "uint256",
          "name": "actualRepayAmount",
          "type": "uint256"
        }
      ],
      "name": "liquidateCalculateSeizeTokens",
      "outputs": [
        {
          "internalType": "uint256",
          "name": "",
          "type": "uint256"
        },
        {
          "internalType": "uint256",
          "name": "",
          "type": "uint256"
        }
      ],
      "payable": false,
      "stateMutability": "view",
      "type": "function"
    },
    {
      "constant": true,
      "inputs": [],
      "name": "liquidationIncentiveMantissa",
      "outputs": [
        {
          "internalType": "uint256",
          "name": "",
          "type": "uint256"
        }
      ],
      "payable": false,
      "stateMutability": "view",
      "type": "function"
    },
    {
      "constant": true,
      "inputs": [
        {
          "internalType": "address",
          "name": "",
          "type": "address"
        }
      ],
      "name": "markets",
      "outputs": [
        {
          "internalType": "bool",
          "name": "isListed",
          "type": "bool"
        },
        {
          "internalType": "uint256",
          "name": "collateralFactorMantissa",
          "type": "uint256"
        },
        {
          "internalType": "bool",
          "name": "isComped",
          "type": "bool"
        }
      ],
      "payable": false,
      "stateMutability": "view",
      "type": "function"
    },
    {
      "constant": true,
      "inputs": [],
      "name": "maxAssets",
      "outputs": [
        {
          "internalType": "uint256",
          "name": "",
          "type": "uint256"
        }
      ],
      "payable": false,
      "stateMutability": "view",
      "type": "function"
    },
    {
      "constant": false,
      "inputs": [
        {
          "internalType": "address",
          "name": "cToken",
          "type": "address"
        },
        {
          "internalType": "address",
          "name": "minter",
          "type": "address"
        },
        {
          "internalType": "uint256",
          "name": "mintAmount",
          "type": "uint256"
        }
      ],
      "name": "mintAllowed",
      "outputs": [
        {
          "internalType": "uint256",
          "name": "",
          "type": "uint256"
        }
      ],
      "payable": false,
      "stateMutability": "nonpayable",
      "type": "function"
    },
    {
      "constant": true,
      "inputs": [
        {
          "internalType": "address",
          "name": "",
          "type": "address"
        }
      ],
      "name": "mintGuardianPaused",
      "outputs": [
        {
          "internalType": "bool",
          "name": "",
          "type": "bool"
        }
      ],
      "payable": false,
      "stateMutability": "view",
      "type": "function"
    },
    {
      "constant": false,
      "inputs": [
        {
          "internalType": "address",
          "name": "cToken",
          "type": "address"
        },
        {
          "internalType": "address",
          "name": "minter",
          "type": "address"
        },
        {
          "internalType": "uint256",
          "name": "actualMintAmount",
          "type": "uint256"
        },
        {
          "internalType": "uint256",
          "name": "mintTokens",
          "type": "uint256"
        }
      ],
      "name": "mintVerify",
      "outputs": [],
      "payable": false,
      "stateMutability": "nonpayable",
      "type": "function"
    },
    {
      "constant": true,
      "inputs": [],
      "name": "oracle",
      "outputs": [
        {
          "internalType": "contract PriceOracle",
          "name": "",
          "type": "address"
        }
      ],
      "payable": false,
      "stateMutability": "view",
      "type": "function"
    },
    {
      "constant": true,
      "inputs": [],
      "name": "pauseGuardian",
      "outputs": [
        {
          "internalType": "address",
          "name": "",
          "type": "address"
        }
      ],
      "payable": false,
      "stateMutability": "view",
      "type": "function"
    },
    {
      "constant": true,
      "inputs": [],
      "name": "pendingAdmin",
      "outputs": [
        {
          "internalType": "address",
          "name": "",
          "type": "address"
        }
      ],
      "payable": false,
      "stateMutability": "view",
      "type": "function"
    },
    {
      "constant": true,
      "inputs": [],
      "name": "pendingComptrollerImplementation",
      "outputs": [
        {
          "internalType": "address",
          "name": "",
          "type": "address"
        }
      ],
      "payable": false,
      "stateMutability": "view",
      "type": "function"
    },
    {
      "constant": false,
      "inputs": [
        {
          "internalType": "address",
          "name": "cToken",
          "type": "address"
        },
        {
          "internalType": "address",
          "name": "redeemer",
          "type": "address"
        },
        {
          "internalType": "uint256",
          "name": "redeemTokens",
          "type": "uint256"
        }
      ],
      "name": "redeemAllowed",
      "outputs": [
        {
          "internalType": "uint256",
          "name": "",
          "type": "uint256"
        }
      ],
      "payable": false,
      "stateMutability": "nonpayable",
      "type": "function"
    },
    {
      "constant": false,
      "inputs": [
        {
          "internalType": "address",
          "name": "cToken",
          "type": "address"
        },
        {
          "internalType": "address",
          "name": "redeemer",
          "type": "address"
        },
        {
          "internalType": "uint256",
          "name": "redeemAmount",
          "type": "uint256"
        },
        {
          "internalType": "uint256",
          "name": "redeemTokens",
          "type": "uint256"
        }
      ],
      "name": "redeemVerify",
      "outputs": [],
      "payable": false,
      "stateMutability": "nonpayable",
      "type": "function"
    },
    {
      "constant": false,
      "inputs": [],
      "name": "refreshCompSpeeds",
      "outputs": [],
      "payable": false,
      "stateMutability": "nonpayable",
      "type": "function"
    },
    {
      "constant": false,
      "inputs": [
        {
          "internalType": "address",
          "name": "cToken",
          "type": "address"
        },
        {
          "internalType": "address",
          "name": "payer",
          "type": "address"
        },
        {
          "internalType": "address",
          "name": "borrower",
          "type": "address"
        },
        {
          "internalType": "uint256",
          "name": "repayAmount",
          "type": "uint256"
        }
      ],
      "name": "repayBorrowAllowed",
      "outputs": [
        {
          "internalType": "uint256",
          "name": "",
          "type": "uint256"
        }
      ],
      "payable": false,
      "stateMutability": "nonpayable",
      "type": "function"
    },
    {
      "constant": false,
      "inputs": [
        {
          "internalType": "address",
          "name": "cToken",
          "type": "address"
        },
        {
          "internalType": "address",
          "name": "payer",
          "type": "address"
        },
        {
          "internalType": "address",
          "name": "borrower",
          "type": "address"
        },
        {
          "internalType": "uint256",
          "name": "actualRepayAmount",
          "type": "uint256"
        },
        {
          "internalType": "uint256",
          "name": "borrowerIndex",
          "type": "uint256"
        }
      ],
      "name": "repayBorrowVerify",
      "outputs": [],
      "payable": false,
      "stateMutability": "nonpayable",
      "type": "function"
    },
    {
      "constant": false,
      "inputs": [
        {
          "internalType": "address",
          "name": "cTokenCollateral",
          "type": "address"
        },
        {
          "internalType": "address",
          "name": "cTokenBorrowed",
          "type": "address"
        },
        {
          "internalType": "address",
          "name": "liquidator",
          "type": "address"
        },
        {
          "internalType": "address",
          "name": "borrower",
          "type": "address"
        },
        {
          "internalType": "uint256",
          "name": "seizeTokens",
          "type": "uint256"
        }
      ],
      "name": "seizeAllowed",
      "outputs": [
        {
          "internalType": "uint256",
          "name": "",
          "type": "uint256"
        }
      ],
      "payable": false,
      "stateMutability": "nonpayable",
      "type": "function"
    },
    {
      "constant": true,
      "inputs": [],
      "name": "seizeGuardianPaused",
      "outputs": [
        {
          "internalType": "bool",
          "name": "",
          "type": "bool"
        }
      ],
      "payable": false,
      "stateMutability": "view",
      "type": "function"
    },
    {
      "constant": false,
      "inputs": [
        {
          "internalType": "address",
          "name": "cTokenCollateral",
          "type": "address"
        },
        {
          "internalType": "address",
          "name": "cTokenBorrowed",
          "type": "address"
        },
        {
          "internalType": "address",
          "name": "liquidator",
          "type": "address"
        },
        {
          "internalType": "address",
          "name": "borrower",
          "type": "address"
        },
        {
          "internalType": "uint256",
          "name": "seizeTokens",
          "type": "uint256"
        }
      ],
      "name": "seizeVerify",
      "outputs": [],
      "payable": false,
      "stateMutability": "nonpayable",
      "type": "function"
    },
    {
      "constant": false,
      "inputs": [
        {
          "internalType": "address",
          "name": "cToken",
          "type": "address"
        },
        {
          "internalType": "address",
          "name": "src",
          "type": "address"
        },
        {
          "internalType": "address",
          "name": "dst",
          "type": "address"
        },
        {
          "internalType": "uint256",
          "name": "transferTokens",
          "type": "uint256"
        }
      ],
      "name": "transferAllowed",
      "outputs": [
        {
          "internalType": "uint256",
          "name": "",
          "type": "uint256"
        }
      ],
      "payable": false,
      "stateMutability": "nonpayable",
      "type": "function"
    },
    {
      "constant": true,
      "inputs": [],
      "name": "transferGuardianPaused",
      "outputs": [
        {
          "internalType": "bool",
          "name": "",
          "type": "bool"
        }
      ],
      "payable": false,
      "stateMutability": "view",
      "type": "function"
    },
    {
      "constant": false,
      "inputs": [
        {
          "internalType": "address",
          "name": "cToken",
          "type": "address"
        },
        {
          "internalType": "address",
          "name": "src",
          "type": "address"
        },
        {
          "internalType": "address",
          "name": "dst",
          "type": "address"
        },
        {
          "internalType": "uint256",
          "name": "transferTokens",
          "type": "uint256"
        }
      ],
      "name": "transferVerify",
      "outputs": [],
      "payable": false,
      "stateMutability": "nonpayable",
      "type": "function"
    }
  ],
  "bytecode": "0x608060405234801561001057600080fd5b50600080546001600160a01b03191633179055615a4980620000336000396000f3fe608060405234801561001057600080fd5b506004361061041c5760003560e01c8063731f0c2b1161022b578063bdcdc25811610130578063dce15449116100b8578063e875544611610087578063e8755446146110ca578063e9af0292146110d2578063eabe7d91146110f8578063ede4edd01461112e578063f851a440146111545761041c565b8063dce1544914611062578063dcfbc0c71461108e578063e4028eee14611096578063e6653f3d146110c25761041c565b8063cc7ebdc4116100ff578063cc7ebdc414610f02578063ce485c5e14610f28578063d02f735114610fc9578063d9226ced1461100f578063da3d454c1461102c5761041c565b8063bdcdc25814610da8578063c299823814610de4578063c488847b14610e85578063ca0af04314610ed45761041c565b80639d1b5a0a116101b3578063abfceffc11610182578063abfceffc14610cec578063ac0b0bb714610d62578063b0772d0b14610d6a578063b21be7fd14610d72578063bb82aa5e14610da05761041c565b80639d1b5a0a14610c92578063a76b3fda14610c9a578063a7f0e23114610cc0578063aa90075414610ce45761041c565b80638c57804e116101fa5780638c57804e14610bcf5780638e8f294b14610bf55780638ebf636414610c3d578063929fe9a114610c5c57806394b2294b14610c8a5761041c565b8063731f0c2b14610b91578063747026c914610bb75780637dc0d1d014610bbf57806387f7630314610bc75761041c565b80634ada90af116103315780635ec88c79116102b95780636a491112116102885780636a49111214610a7e5780636a56947e14610a9b5780636b79c38d14610ad75780636d154ea514610b255780636d35bf9114610b4b5761041c565b80635ec88c79146108c05780635f5af1aa146108e65780635fc7e71e1461090c5780636810dfa6146109525761041c565b80634fd42e17116103005780634fd42e17146107ee57806351dff9891461080b57806352d84d1e1461084757806355ee1fe1146108645780635c7786051461088a5761041c565b80634ada90af1461074e5780634d8e5037146107565780634e79238f1461075e5780634ef4c3e1146107b85761041c565b806326782247116103b45780633bcf7ec1116103835780633bcf7ec1146106885780633c94786f146106b657806341c728b9146106be57806342cbb15c146106fa57806347ef3b3b146107025761041c565b8063267822471461061e5780632d70db7814610626578063317b0b77146106455780633aa729b4146106625761041c565b80631d7b33d7116103f05780631d7b33d7146105445780631ededc911461057c57806324008a62146105be57806324a3d622146105fa5761041c565b80627e3dd21461042157806318c882a51461043d5780631c3db2e01461046b5780631d504dc61461051e575b600080fd5b61042961115c565b604080519115158252519081900360200190f35b6104296004803603604081101561045357600080fd5b506001600160a01b0381351690602001351515611161565b61051c6004803603604081101561048157600080fd5b6001600160a01b038235169190810190604081016020820135600160201b8111156104ab57600080fd5b8201836020820111156104bd57600080fd5b803590602001918460208302840111600160201b831117156104de57600080fd5b919080806020026020016040519081016040528093929190818152602001838360200280828437600092019190915250929550611301945050505050565b005b61051c6004803603602081101561053457600080fd5b50356001600160a01b0316611363565b61056a6004803603602081101561055a57600080fd5b50356001600160a01b03166114c2565b60408051918252519081900360200190f35b61051c600480360360a081101561059257600080fd5b506001600160a01b038135811691602081013582169160408201351690606081013590608001356114d4565b61056a600480360360808110156105d457600080fd5b506001600160a01b038135811691602081013582169160408201351690606001356114db565b6106026115a4565b604080516001600160a01b039092168252519081900360200190f35b6106026115b3565b6104296004803603602081101561063c57600080fd5b503515156115c2565b61056a6004803603602081101561065b57600080fd5b50356116fc565b61051c6004803603602081101561067857600080fd5b50356001600160a01b031661180d565b6104296004803603604081101561069e57600080fd5b506001600160a01b038135169060200135151561193e565b610429611ad9565b61051c600480360360808110156106d457600080fd5b506001600160a01b03813581169160208101359091169060408101359060600135611ae9565b61056a611aef565b61051c600480360360c081101561071857600080fd5b506001600160a01b0381358116916020810135821691604082013581169160608101359091169060808101359060a00135611af4565b61056a611afc565b61051c611b02565b61079a6004803603608081101561077457600080fd5b506001600160a01b03813581169160208101359091169060408101359060600135611b4a565b60408051938452602084019290925282820152519081900360600190f35b61056a600480360360608110156107ce57600080fd5b506001600160a01b03813581169160208101359091169060400135611b84565b61056a6004803603602081101561080457600080fd5b5035611c2f565b61051c6004803603608081101561082157600080fd5b506001600160a01b03813581169160208101359091169060408101359060600135611d23565b6106026004803603602081101561085d57600080fd5b5035611d77565b61056a6004803603602081101561087a57600080fd5b50356001600160a01b0316611d9e565b61051c600480360360608110156108a057600080fd5b506001600160a01b03813581169160208101359091169060400135611e25565b61079a600480360360208110156108d657600080fd5b50356001600160a01b0316611e2a565b61056a600480360360208110156108fc57600080fd5b50356001600160a01b0316611e5f565b61056a600480360360a081101561092257600080fd5b506001600160a01b0381358116916020810135821691604082013581169160608101359091169060800135611ee3565b61051c6004803603608081101561096857600080fd5b810190602081018135600160201b81111561098257600080fd5b82018360208201111561099457600080fd5b803590602001918460208302840111600160201b831117156109b557600080fd5b9190808060200260200160405190810160405280939291908181526020018383602002808284376000920191909152509295949360208101935035915050600160201b811115610a0457600080fd5b820183602082011115610a1657600080fd5b803590602001918460208302840111600160201b83111715610a3757600080fd5b91908080602002602001604051908101604052809392919081815260200183836020028082843760009201919091525092955050505080351515915060200135151561206a565b61051c60048036036020811015610a9457600080fd5b5035612213565b61051c60048036036080811015610ab157600080fd5b506001600160a01b03813581169160208101358216916040820135169060600135611ae9565b610afd60048036036020811015610aed57600080fd5b50356001600160a01b03166122b7565b604080516001600160e01b03909316835263ffffffff90911660208301528051918290030190f35b61042960048036036020811015610b3b57600080fd5b50356001600160a01b03166122e1565b61051c600480360360a0811015610b6157600080fd5b506001600160a01b03813581169160208101358216916040820135811691606081013590911690608001356114d4565b61042960048036036020811015610ba757600080fd5b50356001600160a01b03166122f6565b61056a61230b565b610602612316565b610429612325565b610afd60048036036020811015610be557600080fd5b50356001600160a01b0316612335565b610c1b60048036036020811015610c0b57600080fd5b50356001600160a01b031661235f565b6040805193151584526020840192909252151582820152519081900360600190f35b61042960048036036020811015610c5357600080fd5b50351515612385565b61042960048036036040811015610c7257600080fd5b506001600160a01b03813581169160200135166124be565b61056a6124f1565b6106026124f7565b61056a60048036036020811015610cb057600080fd5b50356001600160a01b031661250f565b610cc861266c565b604080516001600160e01b039092168252519081900360200190f35b61056a61267f565b610d1260048036036020811015610d0257600080fd5b50356001600160a01b0316612685565b60408051602080825283518183015283519192839290830191858101910280838360005b83811015610d4e578181015183820152602001610d36565b505050509050019250505060405180910390f35b61042961270e565b610d1261271e565b61056a60048036036040811015610d8857600080fd5b506001600160a01b0381358116916020013516612780565b61060261279d565b61056a60048036036080811015610dbe57600080fd5b506001600160a01b038135811691602081013582169160408201351690606001356127ac565b610d1260048036036020811015610dfa57600080fd5b810190602081018135600160201b811115610e1457600080fd5b820183602082011115610e2657600080fd5b803590602001918460208302840111600160201b83111715610e4757600080fd5b919080806020026020016040519081016040528093929190818152602001838360200280828437600092019190915250929550612840945050505050565b610ebb60048036036060811015610e9b57600080fd5b506001600160a01b038135811691602081013590911690604001356128d7565b6040805192835260208301919091528051918290030190f35b61056a60048036036040811015610eea57600080fd5b506001600160a01b0381358116916020013516612b4c565b61056a60048036036020811015610f1857600080fd5b50356001600160a01b0316612b69565b61051c60048036036020811015610f3e57600080fd5b810190602081018135600160201b811115610f5857600080fd5b820183602082011115610f6a57600080fd5b803590602001918460208302840111600160201b83111715610f8b57600080fd5b919080806020026020016040519081016040528093929190818152602001838360200280828437600092019190915250929550612b7b945050505050565b61056a600480360360a0811015610fdf57600080fd5b506001600160a01b0381358116916020810135821691604082013581169160608101359091169060800135612c0d565b61056a6004803603602081101561102557600080fd5b5035612dc5565b61056a6004803603606081101561104257600080fd5b506001600160a01b03813581169160208101359091169060400135612e2e565b6106026004803603604081101561107857600080fd5b506001600160a01b03813516906020013561311b565b610602613150565b61056a600480360360408110156110ac57600080fd5b506001600160a01b03813516906020013561315f565b61042961330f565b61056a61331f565b61051c600480360360208110156110e857600080fd5b50356001600160a01b0316613325565b61056a6004803603606081101561110e57600080fd5b506001600160a01b03813581169160208101359091169060400135613389565b61056a6004803603602081101561114457600080fd5b50356001600160a01b03166133c6565b6106026136d9565b600181565b6001600160a01b03821660009081526009602052604081205460ff166111b85760405162461bcd60e51b81526004018080602001828103825260288152602001806159296028913960400191505060405180910390fd5b600a546001600160a01b03163314806111db57506000546001600160a01b031633145b6112165760405162461bcd60e51b81526004018080602001828103825260278152602001806159826027913960400191505060405180910390fd5b6000546001600160a01b031633148061123157506001821515145b61127b576040805162461bcd60e51b81526020600482015260166024820152756f6e6c792061646d696e2063616e20756e706175736560501b604482015290519081900360640190fd5b6001600160a01b0383166000818152600c6020908152604091829020805486151560ff199091168117909155825193845283830152606090830181905260069083015265426f72726f7760d01b6080830152517f71aec636243f9709bb0007ae15e9afb8150ab01716d75fd7573be5cc096e03b09181900360a00190a150805b92915050565b60408051600180825281830190925260609160208083019080388339019050509050828160008151811061133157fe5b60200260200101906001600160a01b031690816001600160a01b03168152505061135e818360018061206a565b505050565b806001600160a01b031663f851a4406040518163ffffffff1660e01b815260040160206040518083038186803b15801561139c57600080fd5b505afa1580156113b0573d6000803e3d6000fd5b505050506040513d60208110156113c657600080fd5b50516001600160a01b0316331461140e5760405162461bcd60e51b81526004018080602001828103825260278152602001806159ee6027913960400191505060405180910390fd5b806001600160a01b031663c1e803346040518163ffffffff1660e01b8152600401602060405180830381600087803b15801561144957600080fd5b505af115801561145d573d6000803e3d6000fd5b505050506040513d602081101561147357600080fd5b5051156114bf576040805162461bcd60e51b815260206004820152601560248201527418da185b99d9481b9bdd08185d5d1a1bdc9a5e9959605a1b604482015290519081900360640190fd5b50565b600f6020526000908152604090205481565b5050505050565b6001600160a01b03841660009081526009602052604081205460ff166115035750600961159c565b61150b615869565b6040518060200160405280876001600160a01b031663aa5af0fd6040518163ffffffff1660e01b815260040160206040518083038186803b15801561154f57600080fd5b505afa158015611563573d6000803e3d6000fd5b505050506040513d602081101561157957600080fd5b50519052905061158986826136e8565b6115968685836000613970565b60009150505b949350505050565b600a546001600160a01b031681565b6001546001600160a01b031681565b600a546000906001600160a01b03163314806115e857506000546001600160a01b031633145b6116235760405162461bcd60e51b81526004018080602001828103825260278152602001806159826027913960400191505060405180910390fd5b6000546001600160a01b031633148061163e57506001821515145b611688576040805162461bcd60e51b81526020600482015260166024820152756f6e6c792061646d696e2063616e20756e706175736560501b604482015290519081900360640190fd5b600a8054831515600160b81b810260ff60b81b1990921691909117909155604080516020810192909252808252600582820152645365697a6560d81b6060830152517fef159d9a32b2472e32b098f954f3ce62d232939f1c207070b584df1814de2de09181900360800190a150805b919050565b600080546001600160a01b031633146117225761171b60016004613b5b565b90506116f7565b61172a615869565b506040805160208101909152828152611741615869565b50604080516020810190915266b1a2bc2ec5000081526117618282613bc1565b1561177a57611771600580613b5b565b925050506116f7565b611782615869565b506040805160208101909152670c7d713b49da000081526117a38184613bc9565b156117bd576117b3600580613b5b565b93505050506116f7565b6005805490869055604080518281526020810188905281517f3b9670cf975d26958e754b57098eaa2ac914d8d2a31b83257997b9f346110fd9929181900390910190a160005b9695505050505050565b6000546001600160a01b0316331461186c576040805162461bcd60e51b815260206004820152601f60248201527f6f6e6c792061646d696e2063616e2064726f7020636f6d70206d61726b657400604482015290519081900360640190fd5b6001600160a01b0381166000908152600960205260409020600381015460ff1615156001146118e2576040805162461bcd60e51b815260206004820152601b60248201527f6d61726b6574206973206e6f74206120636f6d70206d61726b65740000000000604482015290519081900360640190fd5b60038101805460ff19169055604080516001600160a01b03841681526000602082015281517f93c1f3e36ed71139f466a4ce8c9751790e2e33f5afb2df0dcfb3aeabe55d5aa2929181900390910190a161193a613bd0565b5050565b6001600160a01b03821660009081526009602052604081205460ff166119955760405162461bcd60e51b81526004018080602001828103825260288152602001806159296028913960400191505060405180910390fd5b600a546001600160a01b03163314806119b857506000546001600160a01b031633145b6119f35760405162461bcd60e51b81526004018080602001828103825260278152602001806159826027913960400191505060405180910390fd5b6000546001600160a01b0316331480611a0e57506001821515145b611a58576040805162461bcd60e51b81526020600482015260166024820152756f6e6c792061646d696e2063616e20756e706175736560501b604482015290519081900360640190fd5b6001600160a01b0383166000818152600b6020908152604091829020805486151560ff199091168117909155825193845283830152606090830181905260049083015263135a5b9d60e21b6080830152517f71aec636243f9709bb0007ae15e9afb8150ab01716d75fd7573be5cc096e03b09181900360a00190a150919050565b600a54600160a01b900460ff1681565b50505050565b435b90565b505050505050565b60065481565b333214611b405760405162461bcd60e51b81526004018080602001828103825260318152602001806159516031913960400191505060405180910390fd5b611b48613bd0565b565b600080600080600080611b5f8a8a8a8a613f95565b925092509250826011811115611b7157fe5b95509093509150505b9450945094915050565b6001600160a01b0383166000908152600b602052604081205460ff1615611be3576040805162461bcd60e51b815260206004820152600e60248201526d1b5a5b9d081a5cc81c185d5cd95960921b604482015290519081900360640190fd5b6001600160a01b03841660009081526009602052604090205460ff16611c0d5760095b9050611c28565b611c16846143b0565b611c228484600061462e565b60005b90505b9392505050565b600080546001600160a01b03163314611c4e5761171b6001600b613b5b565b611c56615869565b506040805160208101909152828152611c6d615869565b506040805160208101909152670de0b6b3a76400008152611c8e8282613bc9565b15611c9f576117716007600c613b5b565b611ca7615869565b5060408051602081019091526714d1120d7b1600008152611cc88184613bc9565b15611cd9576117b36007600c613b5b565b6006805490869055604080518281526020810188905281517faeba5a6c40a8ac138134bff1aaa65debf25971188a58804bad717f82f0ec1316929181900390910190a16000611803565b80158015611d315750600082115b15611ae9576040805162461bcd60e51b815260206004820152601160248201527072656465656d546f6b656e73207a65726f60781b604482015290519081900360640190fd5b600d8181548110611d8457fe5b6000918252602090912001546001600160a01b0316905081565b600080546001600160a01b03163314611dbd5761171b60016010613b5b565b600480546001600160a01b038481166001600160a01b0319831681179093556040805191909216808252602082019390935281517fd52b2b9b7e9ee655fcb95d2e5b9e0c9f69e7ef2b8e9d2d0ea78402d576d22e22929181900390910190a160009392505050565b61135e565b600080600080600080611e41876000806000613f95565b925092509250826011811115611e5357fe5b97919650945092505050565b600080546001600160a01b03163314611e7e5761171b60016013613b5b565b600a80546001600160a01b038481166001600160a01b0319831617928390556040805192821680845293909116602083015280517f0613b6ee6a04f0d09f390e4d9318894b9f6ac7fd83897cd8d18896ba579c401e9281900390910190a16000611c28565b6001600160a01b03851660009081526009602052604081205460ff161580611f2457506001600160a01b03851660009081526009602052604090205460ff16155b15611f335760095b9050612061565b600080611f3f85614826565b91935090915060009050826011811115611f5557fe5b14611f6f57816011811115611f6657fe5b92505050612061565b80611f7b576003611f66565b6000886001600160a01b03166395dd9193876040518263ffffffff1660e01b815260040180826001600160a01b03166001600160a01b0316815260200191505060206040518083038186803b158015611fd357600080fd5b505afa158015611fe7573d6000803e3d6000fd5b505050506040513d6020811015611ffd57600080fd5b50516040805160208101909152600554815290915060009081906120219084614846565b9092509050600082600381111561203457fe5b1461204857600b5b95505050505050612061565b8087111561205757601161203c565b6000955050505050505b95945050505050565b60005b83518110156114d457600084828151811061208457fe5b6020908102919091018101516001600160a01b0381166000908152600990925260409091205490915060ff166120f9576040805162461bcd60e51b81526020600482015260156024820152741b585c9ad95d081b5d5cdd081899481b1a5cdd1959605a1b604482015290519081900360640190fd5b600184151514156121c15761210c615869565b6040518060200160405280836001600160a01b031663aa5af0fd6040518163ffffffff1660e01b815260040160206040518083038186803b15801561215057600080fd5b505afa158015612164573d6000803e3d6000fd5b505050506040513d602081101561217a57600080fd5b50519052905061218a82826136e8565b60005b87518110156121be576121b6838983815181106121a657fe5b6020026020010151846001613970565b60010161218d565b50505b6001831515141561220a576121d5816143b0565b60005b865181101561220857612200828883815181106121f157fe5b6020026020010151600161462e565b6001016121d8565b505b5060010161206d565b61221b61489a565b61226c576040805162461bcd60e51b815260206004820152601f60248201527f6f6e6c792061646d696e2063616e206368616e676520636f6d70207261746500604482015290519081900360640190fd5b600e805490829055604080518281526020810184905281517fc227c9272633c3a307d9845bf2bc2509cefb20d655b5f3c1002d8e1e3f22c8b0929181900390910190a161193a613bd0565b6010602052600090815260409020546001600160e01b03811690600160e01b900463ffffffff1682565b600c6020526000908152604090205460ff1681565b600b6020526000908152604090205460ff1681565b66038d7ea4c6800081565b6004546001600160a01b031681565b600a54600160b01b900460ff1681565b6011602052600090815260409020546001600160e01b03811690600160e01b900463ffffffff1682565b60096020526000908152604090208054600182015460039092015460ff91821692911683565b600a546000906001600160a01b03163314806123ab57506000546001600160a01b031633145b6123e65760405162461bcd60e51b81526004018080602001828103825260278152602001806159826027913960400191505060405180910390fd5b6000546001600160a01b031633148061240157506001821515145b61244b576040805162461bcd60e51b81526020600482015260166024820152756f6e6c792061646d696e2063616e20756e706175736560501b604482015290519081900360640190fd5b600a8054831515600160b01b810260ff60b01b1990921691909117909155604080516020810192909252808252600882820152672a3930b739b332b960c11b6060830152517fef159d9a32b2472e32b098f954f3ce62d232939f1c207070b584df1814de2de09181900360800190a15090565b6001600160a01b038082166000908152600960209081526040808320938616835260029093019052205460ff1692915050565b60075481565b73c00e94cb662c3520282e6f5717214004a7f2688890565b600080546001600160a01b0316331461252e5761171b60016012613b5b565b6001600160a01b03821660009081526009602052604090205460ff161561255b5761171b600a6011613b5b565b816001600160a01b031663fe9c44ae6040518163ffffffff1660e01b815260040160206040518083038186803b15801561259457600080fd5b505afa1580156125a8573d6000803e3d6000fd5b505050506040513d60208110156125be57600080fd5b5050604080516060810182526001808252600060208381018281528486018381526001600160a01b03891684526009909252949091209251835490151560ff19918216178455935191830191909155516003909101805491151591909216179055612628826148c3565b604080516001600160a01b038416815290517fcf583bb0c569eb967f806b11601c4cb93c10310485c67add5f8362c2f212321f9181900360200190a1600092915050565b6ec097ce7bc90715b34b9f100000000081565b600e5481565b60608060086000846001600160a01b03166001600160a01b0316815260200190815260200160002080548060200260200160405190810160405280929190818152602001828054801561270157602002820191906000526020600020905b81546001600160a01b031681526001909101906020018083116126e3575b5093979650505050505050565b600a54600160b81b900460ff1681565b6060600d80548060200260200160405190810160405280929190818152602001828054801561277657602002820191906000526020600020905b81546001600160a01b03168152600190910190602001808311612758575b5050505050905090565b601260209081526000928352604080842090915290825290205481565b6002546001600160a01b031681565b600a54600090600160b01b900460ff1615612803576040805162461bcd60e51b81526020600482015260126024820152711d1c985b9cd9995c881a5cc81c185d5cd95960721b604482015290519081900360640190fd5b60006128108686856149a1565b9050801561281f57905061159c565b612828866143b0565b6128348686600061462e565b6115968685600061462e565b6060600082519050606081604051908082528060200260200182016040528015612874578160200160208202803883390190505b50905060005b828110156128cf57600085828151811061289057fe5b602002602001015190506128a48133614a44565b60118111156128af57fe5b8383815181106128bb57fe5b60209081029190910101525060010161287a565b509392505050565b600480546040805163fc57d4df60e01b81526001600160a01b038781169482019490945290516000938493849391169163fc57d4df91602480820192602092909190829003018186803b15801561292d57600080fd5b505afa158015612941573d6000803e3d6000fd5b505050506040513d602081101561295757600080fd5b5051600480546040805163fc57d4df60e01b81526001600160a01b038a8116948201949094529051939450600093929091169163fc57d4df91602480820192602092909190829003018186803b1580156129b057600080fd5b505afa1580156129c4573d6000803e3d6000fd5b505050506040513d60208110156129da57600080fd5b505190508115806129e9575080155b156129fe57600d935060009250612b44915050565b6000866001600160a01b031663182df0f56040518163ffffffff1660e01b815260040160206040518083038186803b158015612a3957600080fd5b505afa158015612a4d573d6000803e3d6000fd5b505050506040513d6020811015612a6357600080fd5b505190506000612a71615869565b612a79615869565b612a81615869565b6000612a8f60065489614b65565b945090506000816003811115612aa157fe5b14612abd57600b5b995060009850612b44975050505050505050565b612ac78787614b65565b935090506000816003811115612ad957fe5b14612ae557600b612aa9565b612aef8484614ba0565b925090506000816003811115612b0157fe5b14612b0d57600b612aa9565b612b17828c614846565b955090506000816003811115612b2957fe5b14612b3557600b612aa9565b60009950939750505050505050505b935093915050565b601360209081526000928352604080842090915290825290205481565b60146020526000908152604090205481565b612b8361489a565b612bd4576040805162461bcd60e51b815260206004820152601e60248201527f6f6e6c792061646d696e2063616e2061646420636f6d70206d61726b65740000604482015290519081900360640190fd5b60005b8151811015612c0457612bfc828281518110612bef57fe5b6020026020010151614bb8565b600101612bd7565b506114bf613bd0565b600a54600090600160b81b900460ff1615612c61576040805162461bcd60e51b815260206004820152600f60248201526e1cd95a5e99481a5cc81c185d5cd959608a1b604482015290519081900360640190fd5b6001600160a01b03861660009081526009602052604090205460ff161580612ca257506001600160a01b03851660009081526009602052604090205460ff16155b15612cae576009611f2c565b846001600160a01b0316635fe3b5676040518163ffffffff1660e01b815260040160206040518083038186803b158015612ce757600080fd5b505afa158015612cfb573d6000803e3d6000fd5b505050506040513d6020811015612d1157600080fd5b505160408051635fe3b56760e01b815290516001600160a01b0392831692891691635fe3b567916004808301926020929190829003018186803b158015612d5757600080fd5b505afa158015612d6b573d6000803e3d6000fd5b505050506040513d6020811015612d8157600080fd5b50516001600160a01b031614612d98576002611f2c565b612da1866143b0565b612dad8684600061462e565b612db98685600061462e565b60009695505050505050565b600080546001600160a01b03163314612de45761171b6001600d613b5b565b6007805490839055604080518281526020810185905281517f7093cf1eb653f749c3ff531d6df7f92764536a7fa0d13530cd26e070780c32ea929181900390910190a16000611c28565b6001600160a01b0383166000908152600c602052604081205460ff1615612e8f576040805162461bcd60e51b815260206004820152601060248201526f189bdc9c9bddc81a5cc81c185d5cd95960821b604482015290519081900360640190fd5b6001600160a01b03841660009081526009602052604090205460ff16612eb6576009611c06565b6001600160a01b038085166000908152600960209081526040808320938716835260029093019052205460ff16612fa657336001600160a01b03851614612f3c576040805162461bcd60e51b815260206004820152601560248201527439b2b73232b91036bab9ba1031329031aa37b5b2b760591b604482015290519081900360640190fd5b6000612f483385614a44565b90506000816011811115612f5857fe5b14612f7157806011811115612f6957fe5b915050611c28565b6001600160a01b038086166000908152600960209081526040808320938816835260029093019052205460ff16612fa457fe5b505b600480546040805163fc57d4df60e01b81526001600160a01b03888116948201949094529051929091169163fc57d4df91602480820192602092909190829003018186803b158015612ff757600080fd5b505afa15801561300b573d6000803e3d6000fd5b505050506040513d602081101561302157600080fd5b505161302e57600d611c06565b60008061303e8587600087613f95565b9193509091506000905082601181111561305457fe5b1461306e5781601181111561306557fe5b92505050611c28565b801561307b576004613065565b613083615869565b6040518060200160405280886001600160a01b031663aa5af0fd6040518163ffffffff1660e01b815260040160206040518083038186803b1580156130c757600080fd5b505afa1580156130db573d6000803e3d6000fd5b505050506040513d60208110156130f157600080fd5b50519052905061310187826136e8565b61310e8787836000613970565b6000979650505050505050565b6008602052816000526040600020818154811061313457fe5b6000918252602090912001546001600160a01b03169150829050565b6003546001600160a01b031681565b600080546001600160a01b031633146131855761317e60016006613b5b565b90506112fb565b6001600160a01b0383166000908152600960205260409020805460ff166131ba576131b260096007613b5b565b9150506112fb565b6131c2615869565b5060408051602081019091528381526131d9615869565b506040805160208101909152670c7d713b49da000081526131fa8183613bc9565b156132155761320b60066008613b5b565b93505050506112fb565b841580159061329e5750600480546040805163fc57d4df60e01b81526001600160a01b038a8116948201949094529051929091169163fc57d4df91602480820192602092909190829003018186803b15801561327057600080fd5b505afa158015613284573d6000803e3d6000fd5b505050506040513d602081101561329a57600080fd5b5051155b156132af5761320b600d6009613b5b565b60018301805490869055604080516001600160a01b03891681526020810183905280820188905290517f70483e6592cd5182d45ac970e05bc62cdcc90e9d8ef2c2dbe686cf383bcd7fc59181900360600190a16000979650505050505050565b600a54600160a81b900460ff1681565b60055481565b6114bf81600d80548060200260200160405190810160405280929190818152602001828054801561337f57602002820191906000526020600020905b81546001600160a01b03168152600190910190602001808311613361575b5050505050611301565b6000806133978585856149a1565b905080156133a6579050611c28565b6133af856143b0565b6133bb8585600061462e565b600095945050505050565b6000808290506000806000836001600160a01b031663c37f68e2336040518263ffffffff1660e01b815260040180826001600160a01b03166001600160a01b0316815260200191505060806040518083038186803b15801561342757600080fd5b505afa15801561343b573d6000803e3d6000fd5b505050506040513d608081101561345157600080fd5b5080516020820151604090920151909450909250905082156134a45760405162461bcd60e51b81526004018080602001828103825260258152602001806159a96025913960400191505060405180910390fd5b80156134c1576134b6600c6002613b5b565b9450505050506116f7565b60006134ce8733856149a1565b905080156134ef576134e3600e600383614ed3565b955050505050506116f7565b6001600160a01b0385166000908152600960209081526040808320338452600281019092529091205460ff1661352e57600096505050505050506116f7565b3360009081526002820160209081526040808320805460ff1916905560088252918290208054835181840281018401909452808452606093928301828280156135a057602002820191906000526020600020905b81546001600160a01b03168152600190910190602001808311613582575b5050835193945083925060009150505b828110156135f557896001600160a01b03168482815181106135ce57fe5b60200260200101516001600160a01b031614156135ed578091506135f5565b6001016135b0565b508181106135ff57fe5b33600090815260086020526040902080548190600019810190811061362057fe5b9060005260206000200160009054906101000a90046001600160a01b031681838154811061364a57fe5b600091825260209091200180546001600160a01b0319166001600160a01b0392909216919091179055805461368382600019830161587c565b50604080516001600160a01b038c16815233602082015281517fe699a64c18b07ac5b7301aa273f36a2287239eb9501d81950672794afba29a0d929181900390910190a160009c9b505050505050505050505050565b6000546001600160a01b031681565b6001600160a01b0382166000908152601160209081526040808320600f9092528220549091613715611aef565b8354909150600090613735908390600160e01b900463ffffffff16614f39565b90506000811180156137475750600083115b156139165760006137bc876001600160a01b03166347bd37186040518163ffffffff1660e01b815260040160206040518083038186803b15801561378a57600080fd5b505afa15801561379e573d6000803e3d6000fd5b505050506040513d60208110156137b457600080fd5b505187614f73565b905060006137ca8386614f91565b90506137d4615869565b600083116137f157604051806020016040528060008152506137fb565b6137fb8284614fd3565b9050613805615869565b604080516020810190915288546001600160e01b031681526138279083615011565b9050604051806040016040528061387783600001516040518060400160405280601a81526020017f6e657720696e6465782065786365656473203232342062697473000000000000815250615036565b6001600160e01b031681526020016138b2886040518060400160405280601c81526020016000805160206159ce8339815191528152506150d0565b63ffffffff9081169091526001600160a01b038c166000908152601160209081526040909120835181549490920151909216600160e01b026001600160e01b039182166001600160e01b0319909416939093171691909117905550611af492505050565b8015611af457613949826040518060400160405280601c81526020016000805160206159ce8339815191528152506150d0565b845463ffffffff91909116600160e01b026001600160e01b03909116178455505050505050565b6001600160a01b0384166000908152601160205260409020613990615869565b50604080516020810190915281546001600160e01b031681526139b1615869565b5060408051602080820183526001600160a01b03808a16600090815260138352848120918a1680825282845294812080548552865195909152915291909155805115613b52576139ff615869565b613a098383615125565b90506000613a98896001600160a01b03166395dd91938a6040518263ffffffff1660e01b815260040180826001600160a01b03166001600160a01b0316815260200191505060206040518083038186803b158015613a6657600080fd5b505afa158015613a7a573d6000803e3d6000fd5b505050506040513d6020811015613a9057600080fd5b505188614f73565b90506000613aa6828461514a565b6001600160a01b038a1660009081526014602052604081205491925090613acd9083615179565b9050613aee8a828a613ae65766038d7ea4c68000613ae9565b60005b6151af565b6001600160a01b03808c1660008181526014602090815260409182902094909455895181518781529485015280519193928f16927f1fc3ecc087d8d2d15e23d0032af5a47059c3892d003d8e139fdcb6bb327c99a6929081900390910190a3505050505b50505050505050565b60007f45b96fe442630264581b197e84bbada861235052c5a1aadfff9ea4e40a969aa0836011811115613b8a57fe5b836013811115613b9657fe5b604080519283526020830191909152600082820152519081900360600190a1826011811115611c2857fe5b519051111590565b5190511090565b6060600d805480602002602001604051908101604052809291908181526020018280548015613c2857602002820191906000526020600020905b81546001600160a01b03168152600190910190602001808311613c0a575b50939450600093505050505b8151811015613cee576000828281518110613c4b57fe5b60200260200101519050613c5d615869565b6040518060200160405280836001600160a01b031663aa5af0fd6040518163ffffffff1660e01b815260040160206040518083038186803b158015613ca157600080fd5b505afa158015613cb5573d6000803e3d6000fd5b505050506040513d6020811015613ccb57600080fd5b505190529050613cda826143b0565b613ce482826136e8565b5050600101613c34565b50613cf7615869565b60405180602001604052806000815250905060608251604051908082528060200260200182016040528015613d4657816020015b613d33615869565b815260200190600190039081613d2b5790505b50905060005b8351811015613ecc576000848281518110613d6357fe5b6020908102919091018101516001600160a01b0381166000908152600990925260409091206003015490915060ff1615613ec357613d9f615869565b60408051602080820180845260045463fc57d4df60e01b9091526001600160a01b03868116602485015293519293849391169163fc57d4df916044808601929190818703018186803b158015613df457600080fd5b505afa158015613e08573d6000803e3d6000fd5b505050506040513d6020811015613e1e57600080fd5b505190529050613e2c615869565b613e9a82846001600160a01b03166347bd37186040518163ffffffff1660e01b815260040160206040518083038186803b158015613e6957600080fd5b505afa158015613e7d573d6000803e3d6000fd5b505050506040513d6020811015613e9357600080fd5b50516152f4565b905080858581518110613ea957fe5b6020026020010181905250613ebe8682615011565b955050505b50600101613d4c565b5060005b8351811015611ae9576000600d8281548110613ee857fe5b600091825260208220015485516001600160a01b039091169250613f0d576000613f35565b613f35600e54613f30868681518110613f2257fe5b602002602001015188615315565b615348565b6001600160a01b0383166000818152600f60209081526040918290208490558151848152915193945091927f2ab93f65628379309f36cb125e90d7c902454a545c4f8b8cb0794af75c24b807929181900390910190a25050600101613ed0565b6000806000613fa26158a0565b6001600160a01b03881660009081526008602090815260408083208054825181850281018501909352808352849360609392919083018282801561400f57602002820191906000526020600020905b81546001600160a01b03168152600190910190602001808311613ff1575b50939450600093505050505b815181101561436b57600082828151811061403257fe5b60200260200101519050806001600160a01b031663c37f68e28e6040518263ffffffff1660e01b815260040180826001600160a01b03166001600160a01b0316815260200191505060806040518083038186803b15801561409257600080fd5b505afa1580156140a6573d6000803e3d6000fd5b505050506040513d60808110156140bc57600080fd5b508051602082015160408084015160609485015160808c0152938a019390935291880191909152945084156141025750600f975060009650869550611b7a945050505050565b60408051602080820183526001600160a01b0380851660008181526009845285902060010154845260c08b01939093528351808301855260808b0151815260e08b015260048054855163fc57d4df60e01b815291820194909452935192169263fc57d4df9260248083019392829003018186803b15801561418257600080fd5b505afa158015614196573d6000803e3d6000fd5b505050506040513d60208110156141ac57600080fd5b505160a087018190526141d05750600d975060009650869550611b7a945050505050565b604080516020810190915260a08701518152610100870181905260c087015160e08801516141fd92615361565b6101208801529350600084600381111561421357fe5b1461422f5750600b975060009650869550611b7a945050505050565b614247866101200151876040015188600001516153b9565b87529350600084600381111561425957fe5b146142755750600b975060009650869550611b7a945050505050565b61428d866101000151876060015188602001516153b9565b6020880152935060008460038111156142a257fe5b146142be5750600b975060009650869550611b7a945050505050565b8b6001600160a01b0316816001600160a01b03161415614362576142ec8661012001518c88602001516153b9565b60208801529350600084600381111561430157fe5b1461431d5750600b975060009650869550611b7a945050505050565b6143318661010001518b88602001516153b9565b60208801529350600084600381111561434657fe5b146143625750600b975060009650869550611b7a945050505050565b5060010161401b565b50602084015184511115614392575050506020810151905160009450039150829050611b7a565b5050815160209092015160009550859450919091039150611b7a9050565b6001600160a01b0381166000908152601060209081526040808320600f90925282205490916143dd611aef565b83549091506000906143fd908390600160e01b900463ffffffff16614f39565b905060008111801561440f5750600083115b156145d5576000856001600160a01b03166318160ddd6040518163ffffffff1660e01b815260040160206040518083038186803b15801561444f57600080fd5b505afa158015614463573d6000803e3d6000fd5b505050506040513d602081101561447957600080fd5b5051905060006144898386614f91565b9050614493615869565b600083116144b057604051806020016040528060008152506144ba565b6144ba8284614fd3565b90506144c4615869565b604080516020810190915288546001600160e01b031681526144e69083615011565b9050604051806040016040528061453683600001516040518060400160405280601a81526020017f6e657720696e6465782065786365656473203232342062697473000000000000815250615036565b6001600160e01b03168152602001614571886040518060400160405280601c81526020016000805160206159ce8339815191528152506150d0565b63ffffffff9081169091526001600160a01b038b166000908152601060209081526040909120835181549490920151909216600160e01b026001600160e01b039182166001600160e01b03199094169390931716919091179055506114d492505050565b80156114d457614608826040518060400160405280601c81526020016000805160206159ce8339815191528152506150d0565b845463ffffffff91909116600160e01b026001600160e01b039091161784555050505050565b6001600160a01b038316600090815260106020526040902061464e615869565b50604080516020810190915281546001600160e01b0316815261466f615869565b5060408051602080820183526001600160a01b038089166000908152601283528481209189168082528284529481208054855286519590915291529190915580511580156146bd5750815115155b156146d5576ec097ce7bc90715b34b9f100000000081525b6146dd615869565b6146e78383615125565b90506000876001600160a01b03166370a08231886040518263ffffffff1660e01b815260040180826001600160a01b03166001600160a01b0316815260200191505060206040518083038186803b15801561474157600080fd5b505afa158015614755573d6000803e3d6000fd5b505050506040513d602081101561476b57600080fd5b50519050600061477b828461514a565b6001600160a01b038916600090815260146020526040812054919250906147a29083615179565b90506147bb89828a613ae65766038d7ea4c68000613ae9565b6001600160a01b03808b1660008181526014602090815260409182902094909455895181518781529485015280519193928e16927f2caecd17d02f56fa897705dcc740da2d237c373f70686f4e0d9bd3bf0400ea7a929081900390910190a350505050505050505050565b6000806000614839846000806000613f95565b9250925092509193909250565b6000806000614853615869565b61485d8686615406565b9092509050600082600381111561487057fe5b146148815750915060009050614893565b600061488c8261546e565b9350935050505b9250929050565b600080546001600160a01b03163314806148be57506002546001600160a01b031633145b905090565b60005b600d5481101561494e57816001600160a01b0316600d82815481106148e757fe5b6000918252602090912001546001600160a01b03161415614946576040805162461bcd60e51b81526020600482015260146024820152731b585c9ad95d08185b1c9958591e48185919195960621b604482015290519081900360640190fd5b6001016148c6565b50600d80546001810182556000919091527fd7b6990105719101dabeb77144f2a3385c8033acd3af97e9423a695e81ad1eb50180546001600160a01b0319166001600160a01b0392909216919091179055565b6001600160a01b03831660009081526009602052604081205460ff166149c8576009611c06565b6001600160a01b038085166000908152600960209081526040808320938716835260029093019052205460ff16614a00576000611c06565b600080614a108587866000613f95565b91935090915060009050826011811115614a2657fe5b14614a375781601181111561306557fe5b8015612db9576004613065565b6001600160a01b0382166000908152600960205260408120805460ff16614a6f5760099150506112fb565b6001600160a01b038316600090815260028201602052604090205460ff16151560011415614aa15760009150506112fb565b6007546001600160a01b03841660009081526008602052604090205410614acc5760109150506112fb565b6001600160a01b0380841660008181526002840160209081526040808320805460ff19166001908117909155600883528184208054918201815584529282902090920180549489166001600160a01b031990951685179055815193845283019190915280517f3ab23ab0d51cccc0c3085aec51f99228625aa1a922b3a8ca89a26b0f2027a1a59281900390910190a15060009392505050565b6000614b6f615869565b614b9560405180602001604052808681525060405180602001604052808681525061547d565b915091509250929050565b6000614baa615869565b83518351614b959190615566565b6001600160a01b0381166000908152600960205260409020805460ff161515600114614c2b576040805162461bcd60e51b815260206004820152601960248201527f636f6d70206d61726b6574206973206e6f74206c697374656400000000000000604482015290519081900360640190fd5b600381015460ff1615614c85576040805162461bcd60e51b815260206004820152601960248201527f636f6d70206d61726b657420616c726561647920616464656400000000000000604482015290519081900360640190fd5b60038101805460ff19166001908117909155604080516001600160a01b0385168152602081019290925280517f93c1f3e36ed71139f466a4ce8c9751790e2e33f5afb2df0dcfb3aeabe55d5aa29281900390910190a16001600160a01b0382166000908152601060205260409020546001600160e01b0316158015614d2d57506001600160a01b038216600090815260106020526040902054600160e01b900463ffffffff16155b15614dea5760405180604001604052806ec097ce7bc90715b34b9f10000000006001600160e01b03168152602001614d8f614d66611aef565b6040518060400160405280601c81526020016000805160206159ce8339815191528152506150d0565b63ffffffff9081169091526001600160a01b0384166000908152601060209081526040909120835181549490920151909216600160e01b026001600160e01b039182166001600160e01b031990941693909317169190911790555b6001600160a01b0382166000908152601160205260409020546001600160e01b0316158015614e3c57506001600160a01b038216600090815260116020526040902054600160e01b900463ffffffff16155b1561193a5760405180604001604052806ec097ce7bc90715b34b9f10000000006001600160e01b03168152602001614e75614d66611aef565b63ffffffff9081169091526001600160a01b0384166000908152601160209081526040909120835181549490920151909216600160e01b026001600160e01b039182166001600160e01b031990941693909317169190911790555050565b60007f45b96fe442630264581b197e84bbada861235052c5a1aadfff9ea4e40a969aa0846011811115614f0257fe5b846013811115614f0e57fe5b604080519283526020830191909152818101859052519081900360600190a1836011811115611c2557fe5b6000611c288383604051806040016040528060158152602001747375627472616374696f6e20756e646572666c6f7760581b815250615616565b6000611c28614f8a84670de0b6b3a7640000614f91565b8351615670565b6000611c2883836040518060400160405280601781526020017f6d756c7469706c69636174696f6e206f766572666c6f770000000000000000008152506156a3565b614fdb615869565b6040518060200160405280615008615002866ec097ce7bc90715b34b9f1000000000614f91565b85615670565b90529392505050565b615019615869565b604051806020016040528061500885600001518560000151615179565b600081600160e01b84106150c85760405162461bcd60e51b81526004018080602001828103825283818151815260200191508051906020019080838360005b8381101561508d578181015183820152602001615075565b50505050905090810190601f1680156150ba5780820380516001836020036101000a031916815260200191505b509250505060405180910390fd5b509192915050565b600081600160201b84106150c85760405162461bcd60e51b815260206004820181815283516024840152835190928392604490910191908501908083836000831561508d578181015183820152602001615075565b61512d615869565b604051806020016040528061500885600001518560000151614f39565b60006ec097ce7bc90715b34b9f100000000061516a848460000151614f91565b8161517157fe5b049392505050565b6000611c288383604051806040016040528060118152602001706164646974696f6e206f766572666c6f7760781b815250615722565b60008183101580156151c15750600083115b156152ec5760006151d06124f7565b604080516370a0823160e01b815230600482015290519192506000916001600160a01b038416916370a08231916024808301926020929190829003018186803b15801561521c57600080fd5b505afa158015615230573d6000803e3d6000fd5b505050506040513d602081101561524657600080fd5b505190508085116152e957816001600160a01b031663a9059cbb87876040518363ffffffff1660e01b815260040180836001600160a01b03166001600160a01b0316815260200182815260200192505050602060405180830381600087803b1580156152b157600080fd5b505af11580156152c5573d6000803e3d6000fd5b505050506040513d60208110156152db57600080fd5b5060009350611c2892505050565b50505b509092915050565b6152fc615869565b6040518060200160405280615008856000015185614f91565b61531d615869565b60405180602001604052806150086153418660000151670de0b6b3a7640000614f91565b8551615670565b6000670de0b6b3a764000061516a848460000151614f91565b600061536b615869565b6000615375615869565b61537f878761547d565b9092509050600082600381111561539257fe5b146153a1579092509050612b44565b6153ab818661547d565b935093505050935093915050565b60008060006153c6615869565b6153d08787615406565b909250905060008260038111156153e357fe5b146153f45750915060009050612b44565b6153ab6154008261546e565b86615777565b6000615410615869565b60008061542186600001518661579d565b9092509050600082600381111561543457fe5b1461545357506040805160208101909152600081529092509050614893565b60408051602081019091529081526000969095509350505050565b51670de0b6b3a7640000900490565b6000615487615869565b60008061549c8660000151866000015161579d565b909250905060008260038111156154af57fe5b146154ce57506040805160208101909152600081529092509050614893565b6000806154e36706f05b59d3b2000084615777565b909250905060008260038111156154f657fe5b1461551857506040805160208101909152600081529094509250614893915050565b60008061552d83670de0b6b3a76400006157dc565b9092509050600082600381111561554057fe5b1461554757fe5b604080516020810190915290815260009a909950975050505050505050565b6000615570615869565b60008061558586670de0b6b3a764000061579d565b9092509050600082600381111561559857fe5b146155b757506040805160208101909152600081529092509050614893565b6000806155c483886157dc565b909250905060008260038111156155d757fe5b146155f957506040805160208101909152600081529094509250614893915050565b604080516020810190915290815260009890975095505050505050565b600081848411156156685760405162461bcd60e51b815260206004820181815283516024840152835190928392604490910191908501908083836000831561508d578181015183820152602001615075565b505050900390565b6000611c2883836040518060400160405280600e81526020016d646976696465206279207a65726f60901b815250615807565b60008315806156b0575082155b156156bd57506000611c28565b838302838582816156ca57fe5b041483906157195760405162461bcd60e51b815260206004820181815283516024840152835190928392604490910191908501908083836000831561508d578181015183820152602001615075565b50949350505050565b600083830182858210156157195760405162461bcd60e51b815260206004820181815283516024840152835190928392604490910191908501908083836000831561508d578181015183820152602001615075565b60008083830184811061578f57600092509050614893565b506002915060009050614893565b600080836157b057506000905080614893565b838302838582816157bd57fe5b04146157d157506002915060009050614893565b600092509050614893565b600080826157f05750600190506000614893565b60008385816157fb57fe5b04915091509250929050565b600081836158565760405162461bcd60e51b815260206004820181815283516024840152835190928392604490910191908501908083836000831561508d578181015183820152602001615075565b5082848161586057fe5b04949350505050565b6040518060200160405280600081525090565b81548183558181111561135e5760008381526020902061135e91810190830161590a565b6040518061014001604052806000815260200160008152602001600081526020016000815260200160008152602001600081526020016158de615869565b81526020016158eb615869565b81526020016158f8615869565b8152602001615905615869565b905290565b611af191905b808211156159245760008155600101615910565b509056fe63616e6e6f742070617573652061206d61726b65742074686174206973206e6f74206c69737465646f6e6c792065787465726e616c6c79206f776e6564206163636f756e7473206d61792072656672657368207370656564736f6e6c7920706175736520677561726469616e20616e642061646d696e2063616e207061757365657869744d61726b65743a206765744163636f756e74536e617073686f74206661696c6564626c6f636b206e756d62657220657863656564732033322062697473000000006f6e6c7920756e6974726f6c6c65722061646d696e2063616e206368616e676520627261696e73a265627a7a723158208175e869d97341df6ddd515eb28d98b4daac49727019864901a900646609087b64736f6c63430005100032",
  "linkReferences": {},
  "deployedLinkReferences": {}
}