{
  "_format": "hh-sol-artifact-1",
  "contractName": "CEther",
  "sourceName": "contracts/Lend/CEther.sol",
  "abi": [
    {
      "inputs": [
        {
          "internalType": "contract ComptrollerInterface",
          "name": "comptroller_",
          "type": "address"
        },
        {
          "internalType": "contract InterestRateModel",
          "name": "interestRateModel_",
          "type": "address"
        },
        {
          "internalType": "uint256",
          "name": "initialExchangeRateMantissa_",
          "type": "uint256"
        },
        {
          "internalType": "string",
          "name": "name_",
          "type": "string"
        },
        {
          "internalType": "string",
          "name": "symbol_",
          "type": "string"
        },
        {
          "internalType": "uint8",
          "name": "decimals_",
          "type": "uint8"
        },
        {
          "internalType": "address payable",
          "name": "admin_",
          "type": "address"
        }
      ],
      "payable": false,
      "stateMutability": "nonpayable",
      "type": "constructor"
    },
    {
      "anonymous": false,
      "inputs": [
        {
          "indexed": false,
          "internalType": "uint256",
          "name": "cashPrior",
          "type": "uint256"
        },
        {
          "indexed": false,
          "internalType": "uint256",
          "name": "interestAccumulated",
          "type": "uint256"
        },
        {
          "indexed": false,
          "internalType": "uint256",
          "name": "borrowIndex",
          "type": "uint256"
        },
        {
          "indexed": false,
          "internalType": "uint256",
          "name": "totalBorrows",
          "type": "uint256"
        }
      ],
      "name": "AccrueInterest",
      "type": "event"
    },
    {
      "anonymous": false,
      "inputs": [
        {
          "indexed": true,
          "internalType": "address",
          "name": "owner",
          "type": "address"
        },
        {
          "indexed": true,
          "internalType": "address",
          "name": "spender",
          "type": "address"
        },
        {
          "indexed": false,
          "internalType": "uint256",
          "name": "amount",
          "type": "uint256"
        }
      ],
      "name": "Approval",
      "type": "event"
    },
    {
      "anonymous": false,
      "inputs": [
        {
          "indexed": false,
          "internalType": "address",
          "name": "borrower",
          "type": "address"
        },
        {
          "indexed": false,
          "internalType": "uint256",
          "name": "borrowAmount",
          "type": "uint256"
        },
        {
          "indexed": false,
          "internalType": "uint256",
          "name": "accountBorrows",
          "type": "uint256"
        },
        {
          "indexed": false,
          "internalType": "uint256",
          "name": "totalBorrows",
          "type": "uint256"
        }
      ],
      "name": "Borrow",
      "type": "event"
    },
    {
      "anonymous": false,
      "inputs": [
        {
          "indexed": false,
          "internalType": "uint256",
          "name": "error",
          "type": "uint256"
        },
        {
          "indexed": false,
          "internalType": "uint256",
          "name": "info",
          "type": "uint256"
        },
        {
          "indexed": false,
          "internalType": "uint256",
          "name": "detail",
          "type": "uint256"
        }
      ],
      "name": "Failure",
      "type": "event"
    },
    {
      "anonymous": false,
      "inputs": [
        {
          "indexed": false,
          "internalType": "address",
          "name": "liquidator",
          "type": "address"
        },
        {
          "indexed": false,
          "internalType": "address",
          "name": "borrower",
          "type": "address"
        },
        {
          "indexed": false,
          "internalType": "uint256",
          "name": "repayAmount",
          "type": "uint256"
        },
        {
          "indexed": false,
          "internalType": "address",
          "name": "cTokenCollateral",
          "type": "address"
        },
        {
          "indexed": false,
          "internalType": "uint256",
          "name": "seizeTokens",
          "type": "uint256"
        }
      ],
      "name": "LiquidateBorrow",
      "type": "event"
    },
    {
      "anonymous": false,
      "inputs": [
        {
          "indexed": false,
          "internalType": "address",
          "name": "minter",
          "type": "address"
        },
        {
          "indexed": false,
          "internalType": "uint256",
          "name": "mintAmount",
          "type": "uint256"
        },
        {
          "indexed": false,
          "internalType": "uint256",
          "name": "mintTokens",
          "type": "uint256"
        }
      ],
      "name": "Mint",
      "type": "event"
    },
    {
      "anonymous": false,
      "inputs": [
        {
          "indexed": false,
          "internalType": "address",
          "name": "oldAdmin",
          "type": "address"
        },
        {
          "indexed": false,
          "internalType": "address",
          "name": "newAdmin",
          "type": "address"
        }
      ],
      "name": "NewAdmin",
      "type": "event"
    },
    {
      "anonymous": false,
      "inputs": [
        {
          "indexed": false,
          "internalType": "contract ComptrollerInterface",
          "name": "oldComptroller",
          "type": "address"
        },
        {
          "indexed": false,
          "internalType": "contract ComptrollerInterface",
          "name": "newComptroller",
          "type": "address"
        }
      ],
      "name": "NewComptroller",
      "type": "event"
    },
    {
      "anonymous": false,
      "inputs": [
        {
          "indexed": false,
          "internalType": "contract InterestRateModel",
          "name": "oldInterestRateModel",
          "type": "address"
        },
        {
          "indexed": false,
          "internalType": "contract InterestRateModel",
          "name": "newInterestRateModel",
          "type": "address"
        }
      ],
      "name": "NewMarketInterestRateModel",
      "type": "event"
    },
    {
      "anonymous": false,
      "inputs": [
        {
          "indexed": false,
          "internalType": "address",
          "name": "oldPendingAdmin",
          "type": "address"
        },
        {
          "indexed": false,
          "internalType": "address",
          "name": "newPendingAdmin",
          "type": "address"
        }
      ],
      "name": "NewPendingAdmin",
      "type": "event"
    },
    {
      "anonymous": false,
      "inputs": [
        {
          "indexed": false,
          "internalType": "uint256",
          "name": "oldReserveFactorMantissa",
          "type": "uint256"
        },
        {
          "indexed": false,
          "internalType": "uint256",
          "name": "newReserveFactorMantissa",
          "type": "uint256"
        }
      ],
      "name": "NewReserveFactor",
      "type": "event"
    },
    {
      "anonymous": false,
      "inputs": [
        {
          "indexed": false,
          "internalType": "address",
          "name": "redeemer",
          "type": "address"
        },
        {
          "indexed": false,
          "internalType": "uint256",
          "name": "redeemAmount",
          "type": "uint256"
        },
        {
          "indexed": false,
          "internalType": "uint256",
          "name": "redeemTokens",
          "type": "uint256"
        }
      ],
      "name": "Redeem",
      "type": "event"
    },
    {
      "anonymous": false,
      "inputs": [
        {
          "indexed": false,
          "internalType": "address",
          "name": "payer",
          "type": "address"
        },
        {
          "indexed": false,
          "internalType": "address",
          "name": "borrower",
          "type": "address"
        },
        {
          "indexed": false,
          "internalType": "uint256",
          "name": "repayAmount",
          "type": "uint256"
        },
        {
          "indexed": false,
          "internalType": "uint256",
          "name": "accountBorrows",
          "type": "uint256"
        },
        {
          "indexed": false,
          "internalType": "uint256",
          "name": "totalBorrows",
          "type": "uint256"
        }
      ],
      "name": "RepayBorrow",
      "type": "event"
    },
    {
      "anonymous": false,
      "inputs": [
        {
          "indexed": false,
          "internalType": "address",
          "name": "benefactor",
          "type": "address"
        },
        {
          "indexed": false,
          "internalType": "uint256",
          "name": "addAmount",
          "type": "uint256"
        },
        {
          "indexed": false,
          "internalType": "uint256",
          "name": "newTotalReserves",
          "type": "uint256"
        }
      ],
      "name": "ReservesAdded",
      "type": "event"
    },
    {
      "anonymous": false,
      "inputs": [
        {
          "indexed": false,
          "internalType": "address",
          "name": "admin",
          "type": "address"
        },
        {
          "indexed": false,
          "internalType": "uint256",
          "name": "reduceAmount",
          "type": "uint256"
        },
        {
          "indexed": false,
          "internalType": "uint256",
          "name": "newTotalReserves",
          "type": "uint256"
        }
      ],
      "name": "ReservesReduced",
      "type": "event"
    },
    {
      "anonymous": false,
      "inputs": [
        {
          "indexed": true,
          "internalType": "address",
          "name": "from",
          "type": "address"
        },
        {
          "indexed": true,
          "internalType": "address",
          "name": "to",
          "type": "address"
        },
        {
          "indexed": false,
          "internalType": "uint256",
          "name": "amount",
          "type": "uint256"
        }
      ],
      "name": "Transfer",
      "type": "event"
    },
    {
      "payable": true,
      "stateMutability": "payable",
      "type": "fallback"
    },
    {
      "constant": false,
      "inputs": [],
      "name": "_acceptAdmin",
      "outputs": [
        {
          "internalType": "uint256",
          "name": "",
          "type": "uint256"
        }
      ],
      "payable": false,
      "stateMutability": "nonpayable",
      "type": "function"
    },
    {
      "constant": false,
      "inputs": [
        {
          "internalType": "uint256",
          "name": "reduceAmount",
          "type": "uint256"
        }
      ],
      "name": "_reduceReserves",
      "outputs": [
        {
          "internalType": "uint256",
          "name": "",
          "type": "uint256"
        }
      ],
      "payable": false,
      "stateMutability": "nonpayable",
      "type": "function"
    },
    {
      "constant": false,
      "inputs": [
        {
          "internalType": "contract ComptrollerInterface",
          "name": "newComptroller",
          "type": "address"
        }
      ],
      "name": "_setComptroller",
      "outputs": [
        {
          "internalType": "uint256",
          "name": "",
          "type": "uint256"
        }
      ],
      "payable": false,
      "stateMutability": "nonpayable",
      "type": "function"
    },
    {
      "constant": false,
      "inputs": [
        {
          "internalType": "contract InterestRateModel",
          "name": "newInterestRateModel",
          "type": "address"
        }
      ],
      "name": "_setInterestRateModel",
      "outputs": [
        {
          "internalType": "uint256",
          "name": "",
          "type": "uint256"
        }
      ],
      "payable": false,
      "stateMutability": "nonpayable",
      "type": "function"
    },
    {
      "constant": false,
      "inputs": [
        {
          "internalType": "address payable",
          "name": "newPendingAdmin",
          "type": "address"
        }
      ],
      "name": "_setPendingAdmin",
      "outputs": [
        {
          "internalType": "uint256",
          "name": "",
          "type": "uint256"
        }
      ],
      "payable": false,
      "stateMutability": "nonpayable",
      "type": "function"
    },
    {
      "constant": false,
      "inputs": [
        {
          "internalType": "uint256",
          "name": "newReserveFactorMantissa",
          "type": "uint256"
        }
      ],
      "name": "_setReserveFactor",
      "outputs": [
        {
          "internalType": "uint256",
          "name": "",
          "type": "uint256"
        }
      ],
      "payable": false,
      "stateMutability": "nonpayable",
      "type": "function"
    },
    {
      "constant": true,
      "inputs": [],
      "name": "accrualBlockNumber",
      "outputs": [
        {
          "internalType": "uint256",
          "name": "",
          "type": "uint256"
        }
      ],
      "payable": false,
      "stateMutability": "view",
      "type": "function"
    },
    {
      "constant": false,
      "inputs": [],
      "name": "accrueInterest",
      "outputs": [
        {
          "internalType": "uint256",
          "name": "",
          "type": "uint256"
        }
      ],
      "payable": false,
      "stateMutability": "nonpayable",
      "type": "function"
    },
    {
      "constant": true,
      "inputs": [],
      "name": "admin",
      "outputs": [
        {
          "internalType": "address payable",
          "name": "",
          "type": "address"
        }
      ],
      "payable": false,
      "stateMutability": "view",
      "type": "function"
    },
    {
      "constant": true,
      "inputs": [
        {
          "internalType": "address",
          "name": "owner",
          "type": "address"
        },
        {
          "internalType": "address",
          "name": "spender",
          "type": "address"
        }
      ],
      "name": "allowance",
      "outputs": [
        {
          "internalType": "uint256",
          "name": "",
          "type": "uint256"
        }
      ],
      "payable": false,
      "stateMutability": "view",
      "type": "function"
    },
    {
      "constant": false,
      "inputs": [
        {
          "internalType": "address",
          "name": "spender",
          "type": "address"
        },
        {
          "internalType": "uint256",
          "name": "amount",
          "type": "uint256"
        }
      ],
      "name": "approve",
      "outputs": [
        {
          "internalType": "bool",
          "name": "",
          "type": "bool"
        }
      ],
      "payable": false,
      "stateMutability": "nonpayable",
      "type": "function"
    },
    {
      "constant": true,
      "inputs": [
        {
          "internalType": "address",
          "name": "owner",
          "type": "address"
        }
      ],
      "name": "balanceOf",
      "outputs": [
        {
          "internalType": "uint256",
          "name": "",
          "type": "uint256"
        }
      ],
      "payable": false,
      "stateMutability": "view",
      "type": "function"
    },
    {
      "constant": false,
      "inputs": [
        {
          "internalType": "address",
          "name": "owner",
          "type": "address"
        }
      ],
      "name": "balanceOfUnderlying",
      "outputs": [
        {
          "internalType": "uint256",
          "name": "",
          "type": "uint256"
        }
      ],
      "payable": false,
      "stateMutability": "nonpayable",
      "type": "function"
    },
    {
      "constant": false,
      "inputs": [
        {
          "internalType": "uint256",
          "name": "borrowAmount",
          "type": "uint256"
        }
      ],
      "name": "borrow",
      "outputs": [
        {
          "internalType": "uint256",
          "name": "",
          "type": "uint256"
        }
      ],
      "payable": false,
      "stateMutability": "nonpayable",
      "type": "function"
    },
    {
      "constant": false,
      "inputs": [
        {
          "internalType": "address",
          "name": "account",
          "type": "address"
        }
      ],
      "name": "borrowBalanceCurrent",
      "outputs": [
        {
          "internalType": "uint256",
          "name": "",
          "type": "uint256"
        }
      ],
      "payable": false,
      "stateMutability": "nonpayable",
      "type": "function"
    },
    {
      "constant": true,
      "inputs": [
        {
          "internalType": "address",
          "name": "account",
          "type": "address"
        }
      ],
      "name": "borrowBalanceStored",
      "outputs": [
        {
          "internalType": "uint256",
          "name": "",
          "type": "uint256"
        }
      ],
      "payable": false,
      "stateMutability": "view",
      "type": "function"
    },
    {
      "constant": true,
      "inputs": [],
      "name": "borrowIndex",
      "outputs": [
        {
          "internalType": "uint256",
          "name": "",
          "type": "uint256"
        }
      ],
      "payable": false,
      "stateMutability": "view",
      "type": "function"
    },
    {
      "constant": true,
      "inputs": [],
      "name": "borrowRatePerBlock",
      "outputs": [
        {
          "internalType": "uint256",
          "name": "",
          "type": "uint256"
        }
      ],
      "payable": false,
      "stateMutability": "view",
      "type": "function"
    },
    {
      "constant": true,
      "inputs": [],
      "name": "comptroller",
      "outputs": [
        {
          "internalType": "contract ComptrollerInterface",
          "name": "",
          "type": "address"
        }
      ],
      "payable": false,
      "stateMutability": "view",
      "type": "function"
    },
    {
      "constant": true,
      "inputs": [],
      "name": "decimals",
      "outputs": [
        {
          "internalType": "uint8",
          "name": "",
          "type": "uint8"
        }
      ],
      "payable": false,
      "stateMutability": "view",
      "type": "function"
    },
    {
      "constant": false,
      "inputs": [],
      "name": "exchangeRateCurrent",
      "outputs": [
        {
          "internalType": "uint256",
          "name": "",
          "type": "uint256"
        }
      ],
      "payable": false,
      "stateMutability": "nonpayable",
      "type": "function"
    },
    {
      "constant": true,
      "inputs": [],
      "name": "exchangeRateStored",
      "outputs": [
        {
          "internalType": "uint256",
          "name": "",
          "type": "uint256"
        }
      ],
      "payable": false,
      "stateMutability": "view",
      "type": "function"
    },
    {
      "constant": true,
      "inputs": [
        {
          "internalType": "address",
          "name": "account",
          "type": "address"
        }
      ],
      "name": "getAccountSnapshot",
      "outputs": [
        {
          "internalType": "uint256",
          "name": "",
          "type": "uint256"
        },
        {
          "internalType": "uint256",
          "name": "",
          "type": "uint256"
        },
        {
          "internalType": "uint256",
          "name": "",
          "type": "uint256"
        },
        {
          "internalType": "uint256",
          "name": "",
          "type": "uint256"
        }
      ],
      "payable": false,
      "stateMutability": "view",
      "type": "function"
    },
    {
      "constant": true,
      "inputs": [],
      "name": "getCash",
      "outputs": [
        {
          "internalType": "uint256",
          "name": "",
          "type": "uint256"
        }
      ],
      "payable": false,
      "stateMutability": "view",
      "type": "function"
    },
    {
      "constant": false,
      "inputs": [
        {
          "internalType": "contract ComptrollerInterface",
          "name": "comptroller_",
          "type": "address"
        },
        {
          "internalType": "contract InterestRateModel",
          "name": "interestRateModel_",
          "type": "address"
        },
        {
          "internalType": "uint256",
          "name": "initialExchangeRateMantissa_",
          "type": "uint256"
        },
        {
          "internalType": "string",
          "name": "name_",
          "type": "string"
        },
        {
          "internalType": "string",
          "name": "symbol_",
          "type": "string"
        },
        {
          "internalType": "uint8",
          "name": "decimals_",
          "type": "uint8"
        }
      ],
      "name": "initialize",
      "outputs": [],
      "payable": false,
      "stateMutability": "nonpayable",
      "type": "function"
    },
    {
      "constant": true,
      "inputs": [],
      "name": "interestRateModel",
      "outputs": [
        {
          "internalType": "contract InterestRateModel",
          "name": "",
          "type": "address"
        }
      ],
      "payable": false,
      "stateMutability": "view",
      "type": "function"
    },
    {
      "constant": true,
      "inputs": [],
      "name": "isCToken",
      "outputs": [
        {
          "internalType": "bool",
          "name": "",
          "type": "bool"
        }
      ],
      "payable": false,
      "stateMutability": "view",
      "type": "function"
    },
    {
      "constant": false,
      "inputs": [
        {
          "internalType": "address",
          "name": "borrower",
          "type": "address"
        },
        {
          "internalType": "contract CToken",
          "name": "cTokenCollateral",
          "type": "address"
        }
      ],
      "name": "liquidateBorrow",
      "outputs": [],
      "payable": true,
      "stateMutability": "payable",
      "type": "function"
    },
    {
      "constant": false,
      "inputs": [],
      "name": "mint",
      "outputs": [],
      "payable": true,
      "stateMutability": "payable",
      "type": "function"
    },
    {
      "constant": true,
      "inputs": [],
      "name": "name",
      "outputs": [
        {
          "internalType": "string",
          "name": "",
          "type": "string"
        }
      ],
      "payable": false,
      "stateMutability": "view",
      "type": "function"
    },
    {
      "constant": true,
      "inputs": [],
      "name": "pendingAdmin",
      "outputs": [
        {
          "internalType": "address payable",
          "name": "",
          "type": "address"
        }
      ],
      "payable": false,
      "stateMutability": "view",
      "type": "function"
    },
    {
      "constant": false,
      "inputs": [
        {
          "internalType": "uint256",
          "name": "redeemTokens",
          "type": "uint256"
        }
      ],
      "name": "redeem",
      "outputs": [
        {
          "internalType": "uint256",
          "name": "",
          "type": "uint256"
        }
      ],
      "payable": false,
      "stateMutability": "nonpayable",
      "type": "function"
    },
    {
      "constant": false,
      "inputs": [
        {
          "internalType": "uint256",
          "name": "redeemAmount",
          "type": "uint256"
        }
      ],
      "name": "redeemUnderlying",
      "outputs": [
        {
          "internalType": "uint256",
          "name": "",
          "type": "uint256"
        }
      ],
      "payable": false,
      "stateMutability": "nonpayable",
      "type": "function"
    },
    {
      "constant": false,
      "inputs": [],
      "name": "repayBorrow",
      "outputs": [],
      "payable": true,
      "stateMutability": "payable",
      "type": "function"
    },
    {
      "constant": false,
      "inputs": [
        {
          "internalType": "address",
          "name": "borrower",
          "type": "address"
        }
      ],
      "name": "repayBorrowBehalf",
      "outputs": [],
      "payable": true,
      "stateMutability": "payable",
      "type": "function"
    },
    {
      "constant": true,
      "inputs": [],
      "name": "reserveFactorMantissa",
      "outputs": [
        {
          "internalType": "uint256",
          "name": "",
          "type": "uint256"
        }
      ],
      "payable": false,
      "stateMutability": "view",
      "type": "function"
    },
    {
      "constant": false,
      "inputs": [
        {
          "internalType": "address",
          "name": "liquidator",
          "type": "address"
        },
        {
          "internalType": "address",
          "name": "borrower",
          "type": "address"
        },
        {
          "internalType": "uint256",
          "name": "seizeTokens",
          "type": "uint256"
        }
      ],
      "name": "seize",
      "outputs": [
        {
          "internalType": "uint256",
          "name": "",
          "type": "uint256"
        }
      ],
      "payable": false,
      "stateMutability": "nonpayable",
      "type": "function"
    },
    {
      "constant": true,
      "inputs": [],
      "name": "supplyRatePerBlock",
      "outputs": [
        {
          "internalType": "uint256",
          "name": "",
          "type": "uint256"
        }
      ],
      "payable": false,
      "stateMutability": "view",
      "type": "function"
    },
    {
      "constant": true,
      "inputs": [],
      "name": "symbol",
      "outputs": [
        {
          "internalType": "string",
          "name": "",
          "type": "string"
        }
      ],
      "payable": false,
      "stateMutability": "view",
      "type": "function"
    },
    {
      "constant": true,
      "inputs": [],
      "name": "totalBorrows",
      "outputs": [
        {
          "internalType": "uint256",
          "name": "",
          "type": "uint256"
        }
      ],
      "payable": false,
      "stateMutability": "view",
      "type": "function"
    },
    {
      "constant": false,
      "inputs": [],
      "name": "totalBorrowsCurrent",
      "outputs": [
        {
          "internalType": "uint256",
          "name": "",
          "type": "uint256"
        }
      ],
      "payable": false,
      "stateMutability": "nonpayable",
      "type": "function"
    },
    {
      "constant": true,
      "inputs": [],
      "name": "totalReserves",
      "outputs": [
        {
          "internalType": "uint256",
          "name": "",
          "type": "uint256"
        }
      ],
      "payable": false,
      "stateMutability": "view",
      "type": "function"
    },
    {
      "constant": true,
      "inputs": [],
      "name": "totalSupply",
      "outputs": [
        {
          "internalType": "uint256",
          "name": "",
          "type": "uint256"
        }
      ],
      "payable": false,
      "stateMutability": "view",
      "type": "function"
    },
    {
      "constant": false,
      "inputs": [
        {
          "internalType": "address",
          "name": "dst",
          "type": "address"
        },
        {
          "internalType": "uint256",
          "name": "amount",
          "type": "uint256"
        }
      ],
      "name": "transfer",
      "outputs": [
        {
          "internalType": "bool",
          "name": "",
          "type": "bool"
        }
      ],
      "payable": false,
      "stateMutability": "nonpayable",
      "type": "function"
    },
    {
      "constant": false,
      "inputs": [
        {
          "internalType": "address",
          "name": "src",
          "type": "address"
        },
        {
          "internalType": "address",
          "name": "dst",
          "type": "address"
        },
        {
          "internalType": "uint256",
          "name": "amount",
          "type": "uint256"
        }
      ],
      "name": "transferFrom",
      "outputs": [
        {
          "internalType": "bool",
          "name": "",
          "type": "bool"
        }
      ],
      "payable": false,
      "stateMutability": "nonpayable",
      "type": "function"
    }
  ],
  "bytecode": "0x60806040523480156200001157600080fd5b506040516200534238038062005342833981810160405260e08110156200003757600080fd5b8151602083015160408085015160608601805192519496939591949391820192846401000000008211156200006b57600080fd5b9083019060208201858111156200008157600080fd5b82516401000000008111828201881017156200009c57600080fd5b82525081516020918201929091019080838360005b83811015620000cb578181015183820152602001620000b1565b50505050905090810190601f168015620000f95780820380516001836020036101000a031916815260200191505b50604052602001805160405193929190846401000000008211156200011d57600080fd5b9083019060208201858111156200013357600080fd5b82516401000000008111828201881017156200014e57600080fd5b82525081516020918201929091019080838360005b838110156200017d57818101518382015260200162000163565b50505050905090810190601f168015620001ab5780820380516001836020036101000a031916815260200191505b506040908152602082015191015160038054610100600160a81b03191633610100021790559092509050620001e587878787878762000218565b600380546001600160a01b0390921661010002610100600160a81b03199092169190911790555062000853945050505050565b60035461010090046001600160a01b03163314620002685760405162461bcd60e51b8152600401808060200182810382526024815260200180620052a96024913960400191505060405180910390fd5b600954158015620002795750600a54155b620002b65760405162461bcd60e51b8152600401808060200182810382526023815260200180620052cd6023913960400191505060405180910390fd5b600784905583620002f95760405162461bcd60e51b8152600401808060200182810382526030815260200180620052f06030913960400191505060405180910390fd5b60006200030f876001600160e01b036200042e16565b9050801562000365576040805162461bcd60e51b815260206004820152601a60248201527f73657474696e6720636f6d7074726f6c6c6572206661696c6564000000000000604482015290519081900360640190fd5b620003786001600160e01b036200059616565b600955670de0b6b3a7640000600a556200039b866001600160e01b036200059b16565b90508015620003dc5760405162461bcd60e51b8152600401808060200182810382526022815260200180620053206022913960400191505060405180910390fd5b8351620003f1906001906020870190620007b1565b50825162000407906002906020860190620007b1565b50506003805460ff90921660ff199283161790556000805490911660011790555050505050565b60035460009061010090046001600160a01b031633146200046857620004606001603f6001600160e01b036200074116565b905062000591565b60055460408051623f1ee960e11b815290516001600160a01b0392831692851691627e3dd2916004808301926020929190829003018186803b158015620004ae57600080fd5b505afa158015620004c3573d6000803e3d6000fd5b505050506040513d6020811015620004da57600080fd5b50516200052e576040805162461bcd60e51b815260206004820152601c60248201527f6d61726b6572206d6574686f642072657475726e65642066616c736500000000604482015290519081900360640190fd5b600580546001600160a01b0319166001600160a01b03858116918217909255604080519284168352602083019190915280517f7ac369dbd14fa5ea3f473ed67cc9d598964a77501540ba6751eb0b3decf5870d9281900390910190a160005b9150505b919050565b435b90565b600354600090819061010090046001600160a01b03163314620005d857620005cf600160426001600160e01b036200074116565b91505062000591565b620005eb6001600160e01b036200059616565b600954146200060b57620005cf600a60416001600160e01b036200074116565b600660009054906101000a90046001600160a01b03169050826001600160a01b0316632191f92a6040518163ffffffff1660e01b815260040160206040518083038186803b1580156200065d57600080fd5b505afa15801562000672573d6000803e3d6000fd5b505050506040513d60208110156200068957600080fd5b5051620006dd576040805162461bcd60e51b815260206004820152601c60248201527f6d61726b6572206d6574686f642072657475726e65642066616c736500000000604482015290519081900360640190fd5b600680546001600160a01b0319166001600160a01b03858116918217909255604080519284168352602083019190915280517fedffc32e068c7c95dfd4bdfd5c4d939a084d6b11c4199eac8436ed234d72f9269281900390910190a160006200058d565b60007f45b96fe442630264581b197e84bbada861235052c5a1aadfff9ea4e40a969aa08360108111156200077157fe5b8360508111156200077e57fe5b604080519283526020830191909152600082820152519081900360600190a1826010811115620007aa57fe5b9392505050565b828054600181600116156101000203166002900490600052602060002090601f016020900481019282601f10620007f457805160ff191683800117855562000824565b8280016001018555821562000824579182015b828111156200082457825182559160200191906001019062000807565b506200083292915062000836565b5090565b6200059891905b808211156200083257600081556001016200083d565b614a4680620008636000396000f3fe6080604052600436106102725760003560e01c806395d89b411161014f578063c37f68e2116100c1578063f2b3abbd1161007a578063f2b3abbd14610a22578063f3fdb15a14610a55578063f851a44014610a6a578063f8f9da2814610a7f578063fca7820b14610a94578063fe9c44ae14610abe57610272565b8063c37f68e2146108ff578063c5ebeaec14610958578063db006a7514610982578063dd62ed3e146109ac578063e5974619146109e7578063e9c714f214610a0d57610272565b8063aa5af0fd11610113578063aa5af0fd1461081c578063aae40a2a14610831578063ae9d70b01461085f578063b2a02ff114610874578063b71d1a0c146108b7578063bd6d894d146108ea57610272565b806395d89b411461062757806395dd91931461063c57806399d8c1b41461066f578063a6afed95146107ce578063a9059cbb146107e357610272565b80633b1d21a2116101e8578063601a0bf1116101ac578063601a0bf1146105615780636c540baf1461058b57806370a08231146105a057806373acee98146105d3578063852a12e3146105e85780638f840ddd1461061257610272565b80633b1d21a2146104e75780634576b5db146104fc57806347bd37181461052f5780634e4d9fea146105445780635fe3b5671461054c57610272565b806318160ddd1161023a57806318160ddd146103eb578063182df0f51461040057806323b872dd146104155780632678224714610458578063313ce567146104895780633af9e669146104b457610272565b806306fdde03146102b0578063095ea7b31461033a5780631249c58b14610387578063173b99041461039157806317bfdfbc146103b8575b600061027d34610ad3565b5090506102ad816040518060400160405280600b81526020016a1b5a5b9d0819985a5b195960aa1b815250610b7b565b50005b3480156102bc57600080fd5b506102c5610d7b565b6040805160208082528351818301528351919283929083019185019080838360005b838110156102ff5781810151838201526020016102e7565b50505050905090810190601f16801561032c5780820380516001836020036101000a031916815260200191505b509250505060405180910390f35b34801561034657600080fd5b506103736004803603604081101561035d57600080fd5b506001600160a01b038135169060200135610e08565b604080519115158252519081900360200190f35b61038f610e75565b005b34801561039d57600080fd5b506103a6610eb3565b60408051918252519081900360200190f35b3480156103c457600080fd5b506103a6600480360360208110156103db57600080fd5b50356001600160a01b0316610eb9565b3480156103f757600080fd5b506103a6610f79565b34801561040c57600080fd5b506103a6610f7f565b34801561042157600080fd5b506103736004803603606081101561043857600080fd5b506001600160a01b03813581169160208101359091169060400135610fe2565b34801561046457600080fd5b5061046d611054565b604080516001600160a01b039092168252519081900360200190f35b34801561049557600080fd5b5061049e611063565b6040805160ff9092168252519081900360200190f35b3480156104c057600080fd5b506103a6600480360360208110156104d757600080fd5b50356001600160a01b031661106c565b3480156104f357600080fd5b506103a6611124565b34801561050857600080fd5b506103a66004803603602081101561051f57600080fd5b50356001600160a01b0316611133565b34801561053b57600080fd5b506103a6611288565b61038f61128e565b34801561055857600080fd5b5061046d6112d0565b34801561056d57600080fd5b506103a66004803603602081101561058457600080fd5b50356112df565b34801561059757600080fd5b506103a661137a565b3480156105ac57600080fd5b506103a6600480360360208110156105c357600080fd5b50356001600160a01b0316611380565b3480156105df57600080fd5b506103a661139b565b3480156105f457600080fd5b506103a66004803603602081101561060b57600080fd5b5035611451565b34801561061e57600080fd5b506103a661145c565b34801561063357600080fd5b506102c5611462565b34801561064857600080fd5b506103a66004803603602081101561065f57600080fd5b50356001600160a01b03166114ba565b34801561067b57600080fd5b5061038f600480360360c081101561069257600080fd5b6001600160a01b038235811692602081013590911691604082013591908101906080810160608201356401000000008111156106cd57600080fd5b8201836020820111156106df57600080fd5b8035906020019184600183028401116401000000008311171561070157600080fd5b91908080601f016020809104026020016040519081016040528093929190818152602001838380828437600092019190915250929594936020810193503591505064010000000081111561075457600080fd5b82018360208201111561076657600080fd5b8035906020019184600183028401116401000000008311171561078857600080fd5b91908080601f0160208091040260200160405190810160405280939291908181526020018383808284376000920191909152509295505050903560ff1691506115179050565b3480156107da57600080fd5b506103a66116fe565b3480156107ef57600080fd5b506103736004803603604081101561080657600080fd5b506001600160a01b038135169060200135611a56565b34801561082857600080fd5b506103a6611ac7565b61038f6004803603604081101561084757600080fd5b506001600160a01b0381358116916020013516611acd565b34801561086b57600080fd5b506103a6611b1a565b34801561088057600080fd5b506103a66004803603606081101561089757600080fd5b506001600160a01b03813581169160208101359091169060400135611bb9565b3480156108c357600080fd5b506103a6600480360360208110156108da57600080fd5b50356001600160a01b0316611c2a565b3480156108f657600080fd5b506103a6611cb6565b34801561090b57600080fd5b506109326004803603602081101561092257600080fd5b50356001600160a01b0316611d72565b604080519485526020850193909352838301919091526060830152519081900360800190f35b34801561096457600080fd5b506103a66004803603602081101561097b57600080fd5b5035611e07565b34801561098e57600080fd5b506103a6600480360360208110156109a557600080fd5b5035611e12565b3480156109b857600080fd5b506103a6600480360360408110156109cf57600080fd5b506001600160a01b0381358116916020013516611e1d565b61038f600480360360208110156109fd57600080fd5b50356001600160a01b0316611e48565b348015610a1957600080fd5b506103a6611e96565b348015610a2e57600080fd5b506103a660048036036020811015610a4557600080fd5b50356001600160a01b0316611f99565b348015610a6157600080fd5b5061046d611fd3565b348015610a7657600080fd5b5061046d611fe2565b348015610a8b57600080fd5b506103a6611ff6565b348015610aa057600080fd5b506103a660048036036020811015610ab757600080fd5b503561205a565b348015610aca57600080fd5b506103736120d8565b60008054819060ff16610b1a576040805162461bcd60e51b815260206004820152600a6024820152691c994b595b9d195c995960b21b604482015290519081900360640190fd5b6000805460ff19168155610b2c6116fe565b90508015610b5757610b4a816010811115610b4357fe5b601e6120dd565b925060009150610b679050565b610b613385612143565b92509250505b6000805460ff191660011790559092909150565b81610b8557610d77565b606081516005016040519080825280601f01601f191660200182016040528015610bb6576020820181803883390190505b50905060005b8251811015610c0757828181518110610bd157fe5b602001015160f81c60f81b828281518110610be857fe5b60200101906001600160f81b031916908160001a905350600101610bbc565b8151600160fd1b90839083908110610c1b57fe5b60200101906001600160f81b031916908160001a905350602860f81b828260010181518110610c4657fe5b60200101906001600160f81b031916908160001a905350600a840460300160f81b828260020181518110610c7657fe5b60200101906001600160f81b031916908160001a905350600a840660300160f81b828260030181518110610ca657fe5b60200101906001600160f81b031916908160001a905350602960f81b828260040181518110610cd157fe5b60200101906001600160f81b031916908160001a905350818415610d735760405162461bcd60e51b81526004018080602001828103825283818151815260200191508051906020019080838360005b83811015610d38578181015183820152602001610d20565b50505050905090810190601f168015610d655780820380516001836020036101000a031916815260200191505b509250505060405180910390fd5b5050505b5050565b60018054604080516020600284861615610100026000190190941693909304601f81018490048402820184019092528181529291830182828015610e005780601f10610dd557610100808354040283529160200191610e00565b820191906000526020600020905b815481529060010190602001808311610de357829003601f168201915b505050505081565b336000818152600f602090815260408083206001600160a01b03871680855290835281842086905581518681529151939493909284927f8c5be1e5ebec7d5bd14f71427d1e84f3dd0314c0f7b2291e5b200ac8c7c3b925929081900390910190a360019150505b92915050565b6000610e8034610ad3565b509050610eb0816040518060400160405280600b81526020016a1b5a5b9d0819985a5b195960aa1b815250610b7b565b50565b60085481565b6000805460ff16610efe576040805162461bcd60e51b815260206004820152600a6024820152691c994b595b9d195c995960b21b604482015290519081900360640190fd5b6000805460ff19168155610f106116fe565b14610f5b576040805162461bcd60e51b81526020600482015260166024820152751858d8dc9d59481a5b9d195c995cdd0819985a5b195960521b604482015290519081900360640190fd5b610f64826114ba565b90505b6000805460ff19166001179055919050565b600d5481565b6000806000610f8c612515565b90925090506000826003811115610f9f57fe5b14610fdb5760405162461bcd60e51b815260040180806020018281038252603581526020018061495d6035913960400191505060405180910390fd5b9150505b90565b6000805460ff16611027576040805162461bcd60e51b815260206004820152600a6024820152691c994b595b9d195c995960b21b604482015290519081900360640190fd5b6000805460ff1916815561103d338686866125c4565b1490506000805460ff191660011790559392505050565b6004546001600160a01b031681565b60035460ff1681565b600061107661464b565b6040518060200160405280611089611cb6565b90526001600160a01b0384166000908152600e60205260408120549192509081906110b5908490612852565b909250905060008260038111156110c857fe5b1461111a576040805162461bcd60e51b815260206004820152601f60248201527f62616c616e636520636f756c64206e6f742062652063616c63756c6174656400604482015290519081900360640190fd5b925050505b919050565b600061112e6128a5565b905090565b60035460009061010090046001600160a01b03163314611160576111596001603f6120dd565b905061111f565b60055460408051623f1ee960e11b815290516001600160a01b0392831692851691627e3dd2916004808301926020929190829003018186803b1580156111a557600080fd5b505afa1580156111b9573d6000803e3d6000fd5b505050506040513d60208110156111cf57600080fd5b5051611222576040805162461bcd60e51b815260206004820152601c60248201527f6d61726b6572206d6574686f642072657475726e65642066616c736500000000604482015290519081900360640190fd5b600580546001600160a01b0319166001600160a01b03858116918217909255604080519284168352602083019190915280517f7ac369dbd14fa5ea3f473ed67cc9d598964a77501540ba6751eb0b3decf5870d9281900390910190a160005b9392505050565b600b5481565b6000611299346128d1565b509050610eb081604051806040016040528060128152602001711c995c185e509bdc9c9bddc819985a5b195960721b815250610b7b565b6005546001600160a01b031681565b6000805460ff16611324576040805162461bcd60e51b815260206004820152600a6024820152691c994b595b9d195c995960b21b604482015290519081900360640190fd5b6000805460ff191681556113366116fe565b9050801561135c5761135481601081111561134d57fe5b60306120dd565b915050610f67565b61136583612953565b9150506000805460ff19166001179055919050565b60095481565b6001600160a01b03166000908152600e602052604090205490565b6000805460ff166113e0576040805162461bcd60e51b815260206004820152600a6024820152691c994b595b9d195c995960b21b604482015290519081900360640190fd5b6000805460ff191681556113f26116fe565b1461143d576040805162461bcd60e51b81526020600482015260166024820152751858d8dc9d59481a5b9d195c995cdd0819985a5b195960521b604482015290519081900360640190fd5b50600b546000805460ff1916600117905590565b6000610e6f82612a86565b600c5481565b6002805460408051602060018416156101000260001901909316849004601f81018490048402820184019092528181529291830182828015610e005780601f10610dd557610100808354040283529160200191610e00565b60008060006114c884612b07565b909250905060008260038111156114db57fe5b146112815760405162461bcd60e51b81526004018080602001828103825260378152602001806148686037913960400191505060405180910390fd5b60035461010090046001600160a01b031633146115655760405162461bcd60e51b81526004018080602001828103825260248152602001806147a46024913960400191505060405180910390fd5b6009541580156115755750600a54155b6115b05760405162461bcd60e51b81526004018080602001828103825260238152602001806147c86023913960400191505060405180910390fd5b6007849055836115f15760405162461bcd60e51b81526004018080602001828103825260308152602001806147eb6030913960400191505060405180910390fd5b60006115fc87611133565b90508015611651576040805162461bcd60e51b815260206004820152601a60248201527f73657474696e6720636f6d7074726f6c6c6572206661696c6564000000000000604482015290519081900360640190fd5b611659612bbb565b600955670de0b6b3a7640000600a5561167186612bbf565b905080156116b05760405162461bcd60e51b815260040180806020018281038252602281526020018061481b6022913960400191505060405180910390fd5b83516116c390600190602087019061465e565b5082516116d790600290602086019061465e565b50506003805460ff90921660ff199283161790556000805490911660011790555050505050565b600080611709612bbb565b6009549091508082141561172257600092505050610fdf565b600061172c6128a5565b600b54600c54600a54600654604080516315f2405360e01b815260048101879052602481018690526044810185905290519596509394929391926000926001600160a01b03909216916315f24053916064808301926020929190829003018186803b15801561179a57600080fd5b505afa1580156117ae573d6000803e3d6000fd5b505050506040513d60208110156117c457600080fd5b5051905065048c27395000811115611823576040805162461bcd60e51b815260206004820152601c60248201527f626f72726f772072617465206973206162737572646c79206869676800000000604482015290519081900360640190fd5b6000806118308989612d34565b9092509050600082600381111561184357fe5b14611895576040805162461bcd60e51b815260206004820152601f60248201527f636f756c64206e6f742063616c63756c61746520626c6f636b2064656c746100604482015290519081900360640190fd5b61189d61464b565b6000806000806118bb60405180602001604052808a81525087612d57565b909750945060008760038111156118ce57fe5b14611900576118eb600960068960038111156118e657fe5b612dbf565b9e505050505050505050505050505050610fdf565b61190a858c612852565b9097509350600087600381111561191d57fe5b14611935576118eb600960018960038111156118e657fe5b61193f848c612e25565b9097509250600087600381111561195257fe5b1461196a576118eb600960048960038111156118e657fe5b6119856040518060200160405280600854815250858c612e4b565b9097509150600087600381111561199857fe5b146119b0576118eb600960058960038111156118e657fe5b6119bb858a8b612e4b565b909750905060008760038111156119ce57fe5b146119e6576118eb600960038960038111156118e657fe5b60098e9055600a819055600b839055600c829055604080518d8152602081018690528082018390526060810185905290517f4dec04e750ca11537cabcd8a9eab06494de08da3735bc8871cd41250e190bc049181900360800190a160009e50505050505050505050505050505090565b6000805460ff16611a9b576040805162461bcd60e51b815260206004820152600a6024820152691c994b595b9d195c995960b21b604482015290519081900360640190fd5b6000805460ff19168155611ab1333386866125c4565b1490506000805460ff1916600117905592915050565b600a5481565b6000611ada833484612ea7565b509050611b1581604051806040016040528060168152602001751b1a5c5d5a59185d19509bdc9c9bddc819985a5b195960521b815250610b7b565b505050565b6006546000906001600160a01b031663b8168816611b366128a5565b600b54600c546008546040518563ffffffff1660e01b81526004018085815260200184815260200183815260200182815260200194505050505060206040518083038186803b158015611b8857600080fd5b505afa158015611b9c573d6000803e3d6000fd5b505050506040513d6020811015611bb257600080fd5b5051905090565b6000805460ff16611bfe576040805162461bcd60e51b815260206004820152600a6024820152691c994b595b9d195c995960b21b604482015290519081900360640190fd5b6000805460ff19169055611c1433858585612fd9565b90506000805460ff191660011790559392505050565b60035460009061010090046001600160a01b03163314611c5057611159600160456120dd565b600480546001600160a01b038481166001600160a01b0319831681179093556040805191909216808252602082019390935281517fca4f2f25d0898edd99413412fb94012f9e54ec8142f9b093e7720646a95b16a9929181900390910190a16000611281565b6000805460ff16611cfb576040805162461bcd60e51b815260206004820152600a6024820152691c994b595b9d195c995960b21b604482015290519081900360640190fd5b6000805460ff19168155611d0d6116fe565b14611d58576040805162461bcd60e51b81526020600482015260166024820152751858d8dc9d59481a5b9d195c995cdd0819985a5b195960521b604482015290519081900360640190fd5b611d60610f7f565b90506000805460ff1916600117905590565b6001600160a01b0381166000908152600e6020526040812054819081908190818080611d9d89612b07565b935090506000816003811115611daf57fe5b14611dcd5760095b975060009650869550859450611e009350505050565b611dd5612515565b925090506000816003811115611de757fe5b14611df3576009611db7565b5060009650919450925090505b9193509193565b6000610e6f826131b5565b6000610e6f82613234565b6001600160a01b039182166000908152600f6020908152604080832093909416825291909152205490565b6000611e5482346132ae565b509050610d77816040518060400160405280601881526020017f7265706179426f72726f77426568616c66206661696c65640000000000000000815250610b7b565b6004546000906001600160a01b031633141580611eb1575033155b15611ec957611ec2600160006120dd565b9050610fdf565b60038054600480546001600160a01b03818116610100818102610100600160a81b0319871617968790556001600160a01b031990931690935560408051948390048216808652929095041660208401528351909391927ff9ffabca9c8276e99321725bcb43fb076a6c66a54b7f21c4e8146d8519b417dc92908290030190a1600454604080516001600160a01b038085168252909216602083015280517fca4f2f25d0898edd99413412fb94012f9e54ec8142f9b093e7720646a95b16a99281900390910190a160009250505090565b600080611fa46116fe565b90508015611fca57611fc2816010811115611fbb57fe5b60406120dd565b91505061111f565b61128183612bbf565b6006546001600160a01b031681565b60035461010090046001600160a01b031681565b6006546000906001600160a01b03166315f240536120126128a5565b600b54600c546040518463ffffffff1660e01b815260040180848152602001838152602001828152602001935050505060206040518083038186803b158015611b8857600080fd5b6000805460ff1661209f576040805162461bcd60e51b815260206004820152600a6024820152691c994b595b9d195c995960b21b604482015290519081900360640190fd5b6000805460ff191681556120b16116fe565b905080156120cf576113548160108111156120c857fe5b60466120dd565b61136583613359565b600181565b60007f45b96fe442630264581b197e84bbada861235052c5a1aadfff9ea4e40a969aa083601081111561210c57fe5b83605081111561211857fe5b604080519283526020830191909152600082820152519081900360600190a182601081111561128157fe5b60055460408051634ef4c3e160e01b81523060048201526001600160a01b03858116602483015260448201859052915160009384938493911691634ef4c3e19160648082019260209290919082900301818787803b1580156121a457600080fd5b505af11580156121b8573d6000803e3d6000fd5b505050506040513d60208110156121ce57600080fd5b5051905080156121f2576121e56003601f83612dbf565b92506000915061250e9050565b6121fa612bbb565b6009541461220e576121e5600a60226120dd565b6122166146dc565b61221e612515565b604083018190526020830182600381111561223557fe5b600381111561224057fe5b905250600090508160200151600381111561225757fe5b146122815761227360096021836020015160038111156118e657fe5b93506000925061250e915050565b61228b8686613401565b60c08201819052604080516020810182529083015181526122ac919061349d565b60608301819052602083018260038111156122c357fe5b60038111156122ce57fe5b90525060009050816020015160038111156122e557fe5b14612337576040805162461bcd60e51b815260206004820181905260248201527f4d494e545f45584348414e47455f43414c43554c4154494f4e5f4641494c4544604482015290519081900360640190fd5b612347600d548260600151612e25565b608083018190526020830182600381111561235e57fe5b600381111561236957fe5b905250600090508160200151600381111561238057fe5b146123bc5760405162461bcd60e51b81526004018080602001828103825260288152602001806149926028913960400191505060405180910390fd5b6001600160a01b0386166000908152600e602052604090205460608201516123e49190612e25565b60a08301819052602083018260038111156123fb57fe5b600381111561240657fe5b905250600090508160200151600381111561241d57fe5b146124595760405162461bcd60e51b815260040180806020018281038252602b81526020018061483d602b913960400191505060405180910390fd5b6080810151600d5560a08101516001600160a01b0387166000818152600e60209081526040918290209390935560c084015160608086015183519485529484019190915282820193909352517f4c209b5fc8ad50758f13e2e1088ba56a560dff690a1c6fef26394f4c03821c4f929181900390910190a1606081015160408051918252516001600160a01b0388169130916000805160206148d98339815191529181900360200190a360c00151600093509150505b9250929050565b600d54600090819080612530575050600754600091506125c0565b600061253a6128a5565b9050600061254661464b565b600061255784600b54600c546134b4565b93509050600081600381111561256957fe5b1461257e579550600094506125c09350505050565b61258883866134f2565b92509050600081600381111561259a57fe5b146125af579550600094506125c09350505050565b50516000955093506125c092505050565b9091565b600554604080516317b9b84b60e31b81523060048201526001600160a01b03868116602483015285811660448301526064820185905291516000938493169163bdcdc25891608480830192602092919082900301818787803b15801561262957600080fd5b505af115801561263d573d6000803e3d6000fd5b505050506040513d602081101561265357600080fd5b5051905080156126725761266a6003604a83612dbf565b91505061284a565b836001600160a01b0316856001600160a01b031614156126985761266a6002604b6120dd565b60006001600160a01b0387811690871614156126b757506000196126df565b506001600160a01b038086166000908152600f60209081526040808320938a16835292905220545b6000806000806126ef8589612d34565b9094509250600084600381111561270257fe5b14612720576127136009604b6120dd565b965050505050505061284a565b6001600160a01b038a166000908152600e60205260409020546127439089612d34565b9094509150600084600381111561275657fe5b14612767576127136009604c6120dd565b6001600160a01b0389166000908152600e602052604090205461278a9089612e25565b9094509050600084600381111561279d57fe5b146127ae576127136009604d6120dd565b6001600160a01b03808b166000908152600e6020526040808220859055918b168152208190556000198514612806576001600160a01b03808b166000908152600f60209081526040808320938f168352929052208390555b886001600160a01b03168a6001600160a01b03166000805160206148d98339815191528a6040518082815260200191505060405180910390a3600096505050505050505b949350505050565b600080600061285f61464b565b6128698686612d57565b9092509050600082600381111561287c57fe5b1461288d575091506000905061250e565b6000612898826135a2565b9350935050509250929050565b60008060006128b44734612d34565b909250905060008260038111156128c757fe5b14610fdb57600080fd5b60008054819060ff16612918576040805162461bcd60e51b815260206004820152600a6024820152691c994b595b9d195c995960b21b604482015290519081900360640190fd5b6000805460ff1916815561292a6116fe565b9050801561294857610b4a81601081111561294157fe5b60366120dd565b610b613333866135b1565b600354600090819061010090046001600160a01b0316331461297b57611fc2600160316120dd565b612983612bbb565b6009541461299757611fc2600a60336120dd565b826129a06128a5565b10156129b257611fc2600e60326120dd565b600c548311156129c857611fc2600260346120dd565b50600c5482810390811115612a0e5760405162461bcd60e51b81526004018080602001828103825260248152602001806149ee6024913960400191505060405180910390fd5b600c819055600354612a2e9061010090046001600160a01b0316846138ff565b600354604080516101009092046001600160a01b0316825260208201859052818101839052517f3bad0c59cf2f06e7314077049f48a93578cd16f5ef92329f1dab1420a99c177e916060908290030190a16000611281565b6000805460ff16612acb576040805162461bcd60e51b815260206004820152600a6024820152691c994b595b9d195c995960b21b604482015290519081900360640190fd5b6000805460ff19168155612add6116fe565b90508015612afb57611354816010811115612af457fe5b60276120dd565b61136533600085613935565b6001600160a01b038116600090815260106020526040812080548291829182918291612b3e575060009450849350612bb692505050565b612b4e8160000154600a54613dfc565b90945092506000846003811115612b6157fe5b14612b76575091935060009250612bb6915050565b612b84838260010154613e3b565b90945091506000846003811115612b9757fe5b14612bac575091935060009250612bb6915050565b5060009450925050505b915091565b4390565b600354600090819061010090046001600160a01b03163314612be757611fc2600160426120dd565b612bef612bbb565b60095414612c0357611fc2600a60416120dd565b600660009054906101000a90046001600160a01b03169050826001600160a01b0316632191f92a6040518163ffffffff1660e01b815260040160206040518083038186803b158015612c5457600080fd5b505afa158015612c68573d6000803e3d6000fd5b505050506040513d6020811015612c7e57600080fd5b5051612cd1576040805162461bcd60e51b815260206004820152601c60248201527f6d61726b6572206d6574686f642072657475726e65642066616c736500000000604482015290519081900360640190fd5b600680546001600160a01b0319166001600160a01b03858116918217909255604080519284168352602083019190915280517fedffc32e068c7c95dfd4bdfd5c4d939a084d6b11c4199eac8436ed234d72f9269281900390910190a16000611281565b600080838311612d4b57506000905081830361250e565b5060039050600061250e565b6000612d6161464b565b600080612d72866000015186613dfc565b90925090506000826003811115612d8557fe5b14612da45750604080516020810190915260008152909250905061250e565b60408051602081019091529081526000969095509350505050565b60007f45b96fe442630264581b197e84bbada861235052c5a1aadfff9ea4e40a969aa0846010811115612dee57fe5b846050811115612dfa57fe5b604080519283526020830191909152818101859052519081900360600190a183601081111561284a57fe5b600080838301848110612e3d5760009250905061250e565b50600291506000905061250e565b6000806000612e5861464b565b612e628787612d57565b90925090506000826003811115612e7557fe5b14612e865750915060009050612e9f565b612e98612e92826135a2565b86612e25565b9350935050505b935093915050565b60008054819060ff16612eee576040805162461bcd60e51b815260206004820152600a6024820152691c994b595b9d195c995960b21b604482015290519081900360640190fd5b6000805460ff19168155612f006116fe565b90508015612f2b57612f1e816010811115612f1757fe5b600f6120dd565b925060009150612fc29050565b836001600160a01b031663a6afed956040518163ffffffff1660e01b8152600401602060405180830381600087803b158015612f6657600080fd5b505af1158015612f7a573d6000803e3d6000fd5b505050506040513d6020811015612f9057600080fd5b505190508015612fb057612f1e816010811115612fa957fe5b60106120dd565b612fbc33878787613e66565b92509250505b6000805460ff191660011790559094909350915050565b6005546040805163d02f735160e01b81523060048201526001600160a01b038781166024830152868116604483015285811660648301526084820185905291516000938493169163d02f73519160a480830192602092919082900301818787803b15801561304657600080fd5b505af115801561305a573d6000803e3d6000fd5b505050506040513d602081101561307057600080fd5b5051905080156130875761266a6003601b83612dbf565b846001600160a01b0316846001600160a01b031614156130ad5761266a6006601c6120dd565b6001600160a01b0384166000908152600e6020526040812054819081906130d49087612d34565b909350915060008360038111156130e757fe5b1461310a576130ff6009601a8560038111156118e657fe5b94505050505061284a565b6001600160a01b0388166000908152600e602052604090205461312d9087612e25565b9093509050600083600381111561314057fe5b14613158576130ff600960198560038111156118e657fe5b6001600160a01b038088166000818152600e60209081526040808320879055938c168083529184902085905583518a8152935191936000805160206148d9833981519152929081900390910190a360009998505050505050505050565b6000805460ff166131fa576040805162461bcd60e51b815260206004820152600a6024820152691c994b595b9d195c995960b21b604482015290519081900360640190fd5b6000805460ff1916815561320c6116fe565b9050801561322a5761135481601081111561322357fe5b60086120dd565b6113653384614358565b6000805460ff16613279576040805162461bcd60e51b815260206004820152600a6024820152691c994b595b9d195c995960b21b604482015290519081900360640190fd5b6000805460ff1916815561328b6116fe565b905080156132a257611354816010811115612af457fe5b61136533846000613935565b60008054819060ff166132f5576040805162461bcd60e51b815260206004820152600a6024820152691c994b595b9d195c995960b21b604482015290519081900360640190fd5b6000805460ff191681556133076116fe565b905080156133325761332581601081111561331e57fe5b60356120dd565b9250600091506133439050565b61333d3386866135b1565b92509250505b6000805460ff1916600117905590939092509050565b60035460009061010090046001600160a01b0316331461337f57611159600160476120dd565b613387612bbb565b6009541461339b57611159600a60486120dd565b670de0b6b3a76400008211156133b757611159600260496120dd565b6008805490839055604080518281526020810185905281517faaa68312e2ea9d50e16af5068410ab56e1a1fd06037b1a35664812c30f821460929181900390910190a16000611281565b6000336001600160a01b03841614613452576040805162461bcd60e51b815260206004820152600f60248201526e0e6cadcc8cae440dad2e6dac2e8c6d608b1b604482015290519081900360640190fd5b813414613497576040805162461bcd60e51b815260206004820152600e60248201526d0ecc2d8eaca40dad2e6dac2e8c6d60931b604482015290519081900360640190fd5b50919050565b60008060006134aa61464b565b61286986866145ec565b6000806000806134c48787612e25565b909250905060008260038111156134d757fe5b146134e85750915060009050612e9f565b612e988186612d34565b60006134fc61464b565b60008061351186670de0b6b3a7640000613dfc565b9092509050600082600381111561352457fe5b146135435750604080516020810190915260008152909250905061250e565b6000806135508388613e3b565b9092509050600082600381111561356357fe5b146135855750604080516020810190915260008152909450925061250e915050565b604080516020810190915290815260009890975095505050505050565b51670de0b6b3a7640000900490565b60055460408051631200453160e11b81523060048201526001600160a01b0386811660248301528581166044830152606482018590529151600093849384939116916324008a629160848082019260209290919082900301818787803b15801561361a57600080fd5b505af115801561362e573d6000803e3d6000fd5b505050506040513d602081101561364457600080fd5b5051905080156136685761365b6003603883612dbf565b925060009150612e9f9050565b613670612bbb565b600954146136845761365b600a60396120dd565b61368c61471a565b6001600160a01b03861660009081526010602052604090206001015460608201526136b686612b07565b60808301819052602083018260038111156136cd57fe5b60038111156136d857fe5b90525060009050816020015160038111156136ef57fe5b146137195761370b60096037836020015160038111156118e657fe5b935060009250612e9f915050565b600019851415613732576080810151604082015261373a565b604081018590525b613748878260400151613401565b60e08201819052608082015161375d91612d34565b60a083018190526020830182600381111561377457fe5b600381111561377f57fe5b905250600090508160200151600381111561379657fe5b146137d25760405162461bcd60e51b815260040180806020018281038252603a81526020018061489f603a913960400191505060405180910390fd5b6137e2600b548260e00151612d34565b60c08301819052602083018260038111156137f957fe5b600381111561380457fe5b905250600090508160200151600381111561381b57fe5b146138575760405162461bcd60e51b81526004018080602001828103825260318152602001806148f96031913960400191505060405180910390fd5b60a080820180516001600160a01b03808a16600081815260106020908152604091829020948555600a5460019095019490945560c0870151600b81905560e088015195518251948f16855294840192909252828101949094526060820192909252608081019190915290517f1a2a22cb034d26d1854bdc6666a5b91fe25efbbb5dcad3b0355478d6f5c362a1929181900390910190a160e00151600097909650945050505050565b6040516001600160a01b0383169082156108fc029083906000818181858888f19350505050158015611b15573d6000803e3d6000fd5b6000821580613942575081155b61397d5760405162461bcd60e51b81526004018080602001828103825260348152602001806149ba6034913960400191505060405180910390fd5b6139856146dc565b61398d612515565b60408301819052602083018260038111156139a457fe5b60038111156139af57fe5b90525060009050816020015160038111156139c657fe5b146139ea576139e26009602b836020015160038111156118e657fe5b915050611281565b8315613a6b576060810184905260408051602081018252908201518152613a119085612852565b6080830181905260208301826003811115613a2857fe5b6003811115613a3357fe5b9052506000905081602001516003811115613a4a57fe5b14613a66576139e260096029836020015160038111156118e657fe5b613ae4565b613a87836040518060200160405280846040015181525061349d565b6060830181905260208301826003811115613a9e57fe5b6003811115613aa957fe5b9052506000905081602001516003811115613ac057fe5b14613adc576139e26009602a836020015160038111156118e657fe5b608081018390525b60055460608201516040805163eabe7d9160e01b81523060048201526001600160a01b03898116602483015260448201939093529051600093929092169163eabe7d919160648082019260209290919082900301818787803b158015613b4957600080fd5b505af1158015613b5d573d6000803e3d6000fd5b505050506040513d6020811015613b7357600080fd5b505190508015613b9357613b8a6003602883612dbf565b92505050611281565b613b9b612bbb565b60095414613baf57613b8a600a602c6120dd565b613bbf600d548360600151612d34565b60a0840181905260208401826003811115613bd657fe5b6003811115613be157fe5b9052506000905082602001516003811115613bf857fe5b14613c1457613b8a6009602e846020015160038111156118e657fe5b6001600160a01b0386166000908152600e60205260409020546060830151613c3c9190612d34565b60c0840181905260208401826003811115613c5357fe5b6003811115613c5e57fe5b9052506000905082602001516003811115613c7557fe5b14613c9157613b8a6009602d846020015160038111156118e657fe5b8160800151613c9e6128a5565b1015613cb057613b8a600e602f6120dd565b613cbe8683608001516138ff565b60a0820151600d5560c08201516001600160a01b0387166000818152600e60209081526040918290209390935560608501518151908152905130936000805160206148d9833981519152928290030190a36080820151606080840151604080516001600160a01b038b168152602081019490945283810191909152517fe5b754fb1abb7f01b499791d0b820ae3b6af3424ac1c59768edb53f4ec31a9299281900390910190a160055460808301516060840151604080516351dff98960e01b81523060048201526001600160a01b038b81166024830152604482019490945260648101929092525191909216916351dff98991608480830192600092919082900301818387803b158015613dd157600080fd5b505af1158015613de5573d6000803e3d6000fd5b5060009250613df2915050565b9695505050505050565b60008083613e0f5750600090508061250e565b83830283858281613e1c57fe5b0414613e305750600291506000905061250e565b60009250905061250e565b60008082613e4f575060019050600061250e565b6000838581613e5a57fe5b04915091509250929050565b60055460408051632fe3f38f60e11b81523060048201526001600160a01b0384811660248301528781166044830152868116606483015260848201869052915160009384938493911691635fc7e71e9160a48082019260209290919082900301818787803b158015613ed757600080fd5b505af1158015613eeb573d6000803e3d6000fd5b505050506040513d6020811015613f0157600080fd5b505190508015613f2557613f186003601283612dbf565b92506000915061434f9050565b613f2d612bbb565b60095414613f4157613f18600a60166120dd565b613f49612bbb565b846001600160a01b0316636c540baf6040518163ffffffff1660e01b815260040160206040518083038186803b158015613f8257600080fd5b505afa158015613f96573d6000803e3d6000fd5b505050506040513d6020811015613fac57600080fd5b505114613fbf57613f18600a60116120dd565b866001600160a01b0316866001600160a01b03161415613fe557613f18600660176120dd565b84613ff657613f18600760156120dd565b60001985141561400c57613f18600760146120dd565b60008061401a8989896135b1565b9092509050811561404a5761403b82601081111561403457fe5b60186120dd565b94506000935061434f92505050565b6005546040805163c488847b60e01b81523060048201526001600160a01b038981166024830152604482018590528251600094859492169263c488847b926064808301939192829003018186803b1580156140a457600080fd5b505afa1580156140b8573d6000803e3d6000fd5b505050506040513d60408110156140ce57600080fd5b508051602090910151909250905081156141195760405162461bcd60e51b815260040180806020018281038252603381526020018061492a6033913960400191505060405180910390fd5b80886001600160a01b03166370a082318c6040518263ffffffff1660e01b815260040180826001600160a01b03166001600160a01b0316815260200191505060206040518083038186803b15801561417057600080fd5b505afa158015614184573d6000803e3d6000fd5b505050506040513d602081101561419a57600080fd5b505110156141ef576040805162461bcd60e51b815260206004820152601860248201527f4c49515549444154455f5345495a455f544f4f5f4d5543480000000000000000604482015290519081900360640190fd5b60006001600160a01b0389163014156142155761420e308d8d85612fd9565b905061429f565b6040805163b2a02ff160e01b81526001600160a01b038e811660048301528d81166024830152604482018590529151918b169163b2a02ff1916064808201926020929091908290030181600087803b15801561427057600080fd5b505af1158015614284573d6000803e3d6000fd5b505050506040513d602081101561429a57600080fd5b505190505b80156142e9576040805162461bcd60e51b81526020600482015260146024820152731d1bdad95b881cd95a5e9d5c994819985a5b195960621b604482015290519081900360640190fd5b604080516001600160a01b03808f168252808e1660208301528183018790528b1660608201526080810184905290517f298637f684da70674f26509b10f07ec2fbc77a335ab1e7d6215a4b2484d8bb529181900360a00190a16000975092955050505050505b94509492505050565b6005546040805163368f515360e21b81523060048201526001600160a01b0385811660248301526044820185905291516000938493169163da3d454c91606480830192602092919082900301818787803b1580156143b557600080fd5b505af11580156143c9573d6000803e3d6000fd5b505050506040513d60208110156143df57600080fd5b5051905080156143fe576143f66003600e83612dbf565b915050610e6f565b614406612bbb565b60095414614419576143f6600a806120dd565b826144226128a5565b1015614434576143f6600e60096120dd565b61443c614760565b61444585612b07565b602083018190528282600381111561445957fe5b600381111561446457fe5b905250600090508151600381111561447857fe5b1461449d5761449460096007836000015160038111156118e657fe5b92505050610e6f565b6144ab816020015185612e25565b60408301819052828260038111156144bf57fe5b60038111156144ca57fe5b90525060009050815160038111156144de57fe5b146144fa576144946009600c836000015160038111156118e657fe5b614506600b5485612e25565b606083018190528282600381111561451a57fe5b600381111561452557fe5b905250600090508151600381111561453957fe5b14614555576144946009600b836000015160038111156118e657fe5b61455f85856138ff565b604080820180516001600160a01b03881660008181526010602090815290859020928355600a54600190930192909255606080860151600b81905593518551928352928201899052818501929092529081019190915290517f13ed6866d4e1ee6da46f845c46d7e54120883d75c5ea9a2dacc1c4ca8984ab809181900360800190a1600095945050505050565b60006145f661464b565b60008061460b670de0b6b3a764000087613dfc565b9092509050600082600381111561461e57fe5b1461463d5750604080516020810190915260008152909250905061250e565b6128988186600001516134f2565b6040518060200160405280600081525090565b828054600181600116156101000203166002900490600052602060002090601f016020900481019282601f1061469f57805160ff19168380011785556146cc565b828001600101855582156146cc579182015b828111156146cc5782518255916020019190600101906146b1565b506146d8929150614789565b5090565b6040805160e0810190915280600081526020016000815260200160008152602001600081526020016000815260200160008152602001600081525090565b6040805161010081019091528060008152602001600081526020016000815260200160008152602001600081526020016000815260200160008152602001600081525090565b604080516080810190915280600081526020016000815260200160008152602001600081525090565b610fdf91905b808211156146d8576000815560010161478f56fe6f6e6c792061646d696e206d617920696e697469616c697a6520746865206d61726b65746d61726b6574206d6179206f6e6c7920626520696e697469616c697a6564206f6e6365696e697469616c2065786368616e67652072617465206d7573742062652067726561746572207468616e207a65726f2e73657474696e6720696e7465726573742072617465206d6f64656c206661696c65644d494e545f4e45575f4143434f554e545f42414c414e43455f43414c43554c4154494f4e5f4641494c4544626f72726f7742616c616e636553746f7265643a20626f72726f7742616c616e636553746f726564496e7465726e616c206661696c656452455041595f424f52524f575f4e45575f4143434f554e545f424f52524f575f42414c414e43455f43414c43554c4154494f4e5f4641494c4544ddf252ad1be2c89b69c2b068fc378daa952ba7f163c4a11628f55a4df523b3ef52455041595f424f52524f575f4e45575f544f54414c5f42414c414e43455f43414c43554c4154494f4e5f4641494c45444c49515549444154455f434f4d5054524f4c4c45525f43414c43554c4154455f414d4f554e545f5345495a455f4641494c454465786368616e67655261746553746f7265643a2065786368616e67655261746553746f726564496e7465726e616c206661696c65644d494e545f4e45575f544f54414c5f535550504c595f43414c43554c4154494f4e5f4641494c45446f6e65206f662072656465656d546f6b656e73496e206f722072656465656d416d6f756e74496e206d757374206265207a65726f72656475636520726573657276657320756e657870656374656420756e646572666c6f77a265627a7a7231582011d340079c4118853d4cfa5700100c60061e71f9b568020cd5b42cd7546a3b6564736f6c634300051000326f6e6c792061646d696e206d617920696e697469616c697a6520746865206d61726b65746d61726b6574206d6179206f6e6c7920626520696e697469616c697a6564206f6e6365696e697469616c2065786368616e67652072617465206d7573742062652067726561746572207468616e207a65726f2e73657474696e6720696e7465726573742072617465206d6f64656c206661696c6564",
  "linkReferences": {},
  "deployedLinkReferences": {}
}