{
  "_format": "hh-sol-artifact-1",
  "contractName": "Comptroller",
  "sourceName": "contracts/Lend/Comptroller.sol",
  "abi": [
    {
      "inputs": [],
      "payable": false,
      "stateMutability": "nonpayable",
      "type": "constructor"
    },
    {
      "anonymous": false,
      "inputs": [
        {
          "indexed": false,
          "internalType": "string",
          "name": "action",
          "type": "string"
        },
        {
          "indexed": false,
          "internalType": "bool",
          "name": "pauseState",
          "type": "bool"
        }
      ],
      "name": "ActionPaused",
      "type": "event"
    },
    {
      "anonymous": false,
      "inputs": [
        {
          "indexed": false,
          "internalType": "contract CToken",
          "name": "cToken",
          "type": "address"
        },
        {
          "indexed": false,
          "internalType": "string",
          "name": "action",
          "type": "string"
        },
        {
          "indexed": false,
          "internalType": "bool",
          "name": "pauseState",
          "type": "bool"
        }
      ],
      "name": "ActionPaused",
      "type": "event"
    },
    {
      "anonymous": false,
      "inputs": [
        {
          "indexed": false,
          "internalType": "address",
          "name": "recipient",
          "type": "address"
        },
        {
          "indexed": false,
          "internalType": "uint256",
          "name": "amount",
          "type": "uint256"
        }
      ],
      "name": "CompGranted",
      "type": "event"
    },
    {
      "anonymous": false,
      "inputs": [
        {
          "indexed": true,
          "internalType": "contract CToken",
          "name": "cToken",
          "type": "address"
        },
        {
          "indexed": false,
          "internalType": "uint256",
          "name": "newSpeed",
          "type": "uint256"
        }
      ],
      "name": "CompSpeedUpdated",
      "type": "event"
    },
    {
      "anonymous": false,
      "inputs": [
        {
          "indexed": true,
          "internalType": "address",
          "name": "contributor",
          "type": "address"
        },
        {
          "indexed": false,
          "internalType": "uint256",
          "name": "newSpeed",
          "type": "uint256"
        }
      ],
      "name": "ContributorCompSpeedUpdated",
      "type": "event"
    },
    {
      "anonymous": false,
      "inputs": [
        {
          "indexed": true,
          "internalType": "contract CToken",
          "name": "cToken",
          "type": "address"
        },
        {
          "indexed": true,
          "internalType": "address",
          "name": "borrower",
          "type": "address"
        },
        {
          "indexed": false,
          "internalType": "uint256",
          "name": "compDelta",
          "type": "uint256"
        },
        {
          "indexed": false,
          "internalType": "uint256",
          "name": "compBorrowIndex",
          "type": "uint256"
        }
      ],
      "name": "DistributedBorrowerComp",
      "type": "event"
    },
    {
      "anonymous": false,
      "inputs": [
        {
          "indexed": true,
          "internalType": "contract CToken",
          "name": "cToken",
          "type": "address"
        },
        {
          "indexed": true,
          "internalType": "address",
          "name": "supplier",
          "type": "address"
        },
        {
          "indexed": false,
          "internalType": "uint256",
          "name": "compDelta",
          "type": "uint256"
        },
        {
          "indexed": false,
          "internalType": "uint256",
          "name": "compSupplyIndex",
          "type": "uint256"
        }
      ],
      "name": "DistributedSupplierComp",
      "type": "event"
    },
    {
      "anonymous": false,
      "inputs": [
        {
          "indexed": false,
          "internalType": "uint256",
          "name": "error",
          "type": "uint256"
        },
        {
          "indexed": false,
          "internalType": "uint256",
          "name": "info",
          "type": "uint256"
        },
        {
          "indexed": false,
          "internalType": "uint256",
          "name": "detail",
          "type": "uint256"
        }
      ],
      "name": "Failure",
      "type": "event"
    },
    {
      "anonymous": false,
      "inputs": [
        {
          "indexed": false,
          "internalType": "contract CToken",
          "name": "cToken",
          "type": "address"
        },
        {
          "indexed": false,
          "internalType": "address",
          "name": "account",
          "type": "address"
        }
      ],
      "name": "MarketEntered",
      "type": "event"
    },
    {
      "anonymous": false,
      "inputs": [
        {
          "indexed": false,
          "internalType": "contract CToken",
          "name": "cToken",
          "type": "address"
        },
        {
          "indexed": false,
          "internalType": "address",
          "name": "account",
          "type": "address"
        }
      ],
      "name": "MarketExited",
      "type": "event"
    },
    {
      "anonymous": false,
      "inputs": [
        {
          "indexed": false,
          "internalType": "contract CToken",
          "name": "cToken",
          "type": "address"
        }
      ],
      "name": "MarketListed",
      "type": "event"
    },
    {
      "anonymous": false,
      "inputs": [
        {
          "indexed": true,
          "internalType": "contract CToken",
          "name": "cToken",
          "type": "address"
        },
        {
          "indexed": false,
          "internalType": "uint256",
          "name": "newBorrowCap",
          "type": "uint256"
        }
      ],
      "name": "NewBorrowCap",
      "type": "event"
    },
    {
      "anonymous": false,
      "inputs": [
        {
          "indexed": false,
          "internalType": "address",
          "name": "oldBorrowCapGuardian",
          "type": "address"
        },
        {
          "indexed": false,
          "internalType": "address",
          "name": "newBorrowCapGuardian",
          "type": "address"
        }
      ],
      "name": "NewBorrowCapGuardian",
      "type": "event"
    },
    {
      "anonymous": false,
      "inputs": [
        {
          "indexed": false,
          "internalType": "uint256",
          "name": "oldCloseFactorMantissa",
          "type": "uint256"
        },
        {
          "indexed": false,
          "internalType": "uint256",
          "name": "newCloseFactorMantissa",
          "type": "uint256"
        }
      ],
      "name": "NewCloseFactor",
      "type": "event"
    },
    {
      "anonymous": false,
      "inputs": [
        {
          "indexed": false,
          "internalType": "contract CToken",
          "name": "cToken",
          "type": "address"
        },
        {
          "indexed": false,
          "internalType": "uint256",
          "name": "oldCollateralFactorMantissa",
          "type": "uint256"
        },
        {
          "indexed": false,
          "internalType": "uint256",
          "name": "newCollateralFactorMantissa",
          "type": "uint256"
        }
      ],
      "name": "NewCollateralFactor",
      "type": "event"
    },
    {
      "anonymous": false,
      "inputs": [
        {
          "indexed": false,
          "internalType": "uint256",
          "name": "oldLiquidationIncentiveMantissa",
          "type": "uint256"
        },
        {
          "indexed": false,
          "internalType": "uint256",
          "name": "newLiquidationIncentiveMantissa",
          "type": "uint256"
        }
      ],
      "name": "NewLiquidationIncentive",
      "type": "event"
    },
    {
      "anonymous": false,
      "inputs": [
        {
          "indexed": false,
          "internalType": "address",
          "name": "oldPauseGuardian",
          "type": "address"
        },
        {
          "indexed": false,
          "internalType": "address",
          "name": "newPauseGuardian",
          "type": "address"
        }
      ],
      "name": "NewPauseGuardian",
      "type": "event"
    },
    {
      "anonymous": false,
      "inputs": [
        {
          "indexed": false,
          "internalType": "contract PriceOracle",
          "name": "oldPriceOracle",
          "type": "address"
        },
        {
          "indexed": false,
          "internalType": "contract PriceOracle",
          "name": "newPriceOracle",
          "type": "address"
        }
      ],
      "name": "NewPriceOracle",
      "type": "event"
    },
    {
      "constant": false,
      "inputs": [
        {
          "internalType": "contract Unitroller",
          "name": "unitroller",
          "type": "address"
        }
      ],
      "name": "_become",
      "outputs": [],
      "payable": false,
      "stateMutability": "nonpayable",
      "type": "function"
    },
    {
      "constant": true,
      "inputs": [],
      "name": "_borrowGuardianPaused",
      "outputs": [
        {
          "internalType": "bool",
          "name": "",
          "type": "bool"
        }
      ],
      "payable": false,
      "stateMutability": "view",
      "type": "function"
    },
    {
      "constant": false,
      "inputs": [
        {
          "internalType": "address",
          "name": "recipient",
          "type": "address"
        },
        {
          "internalType": "uint256",
          "name": "amount",
          "type": "uint256"
        }
      ],
      "name": "_grantComp",
      "outputs": [],
      "payable": false,
      "stateMutability": "nonpayable",
      "type": "function"
    },
    {
      "constant": true,
      "inputs": [],
      "name": "_mintGuardianPaused",
      "outputs": [
        {
          "internalType": "bool",
          "name": "",
          "type": "bool"
        }
      ],
      "payable": false,
      "stateMutability": "view",
      "type": "function"
    },
    {
      "constant": false,
      "inputs": [
        {
          "internalType": "address",
          "name": "newBorrowCapGuardian",
          "type": "address"
        }
      ],
      "name": "_setBorrowCapGuardian",
      "outputs": [],
      "payable": false,
      "stateMutability": "nonpayable",
      "type": "function"
    },
    {
      "constant": false,
      "inputs": [
        {
          "internalType": "contract CToken",
          "name": "cToken",
          "type": "address"
        },
        {
          "internalType": "bool",
          "name": "state",
          "type": "bool"
        }
      ],
      "name": "_setBorrowPaused",
      "outputs": [
        {
          "internalType": "bool",
          "name": "",
          "type": "bool"
        }
      ],
      "payable": false,
      "stateMutability": "nonpayable",
      "type": "function"
    },
    {
      "constant": false,
      "inputs": [
        {
          "internalType": "uint256",
          "name": "newCloseFactorMantissa",
          "type": "uint256"
        }
      ],
      "name": "_setCloseFactor",
      "outputs": [
        {
          "internalType": "uint256",
          "name": "",
          "type": "uint256"
        }
      ],
      "payable": false,
      "stateMutability": "nonpayable",
      "type": "function"
    },
    {
      "constant": false,
      "inputs": [
        {
          "internalType": "contract CToken",
          "name": "cToken",
          "type": "address"
        },
        {
          "internalType": "uint256",
          "name": "newCollateralFactorMantissa",
          "type": "uint256"
        }
      ],
      "name": "_setCollateralFactor",
      "outputs": [
        {
          "internalType": "uint256",
          "name": "",
          "type": "uint256"
        }
      ],
      "payable": false,
      "stateMutability": "nonpayable",
      "type": "function"
    },
    {
      "constant": false,
      "inputs": [
        {
          "internalType": "contract CToken",
          "name": "cToken",
          "type": "address"
        },
        {
          "internalType": "uint256",
          "name": "compSpeed",
          "type": "uint256"
        }
      ],
      "name": "_setCompSpeed",
      "outputs": [],
      "payable": false,
      "stateMutability": "nonpayable",
      "type": "function"
    },
    {
      "constant": false,
      "inputs": [
        {
          "internalType": "address",
          "name": "contributor",
          "type": "address"
        },
        {
          "internalType": "uint256",
          "name": "compSpeed",
          "type": "uint256"
        }
      ],
      "name": "_setContributorCompSpeed",
      "outputs": [],
      "payable": false,
      "stateMutability": "nonpayable",
      "type": "function"
    },
    {
      "constant": false,
      "inputs": [
        {
          "internalType": "uint256",
          "name": "newLiquidationIncentiveMantissa",
          "type": "uint256"
        }
      ],
      "name": "_setLiquidationIncentive",
      "outputs": [
        {
          "internalType": "uint256",
          "name": "",
          "type": "uint256"
        }
      ],
      "payable": false,
      "stateMutability": "nonpayable",
      "type": "function"
    },
    {
      "constant": false,
      "inputs": [
        {
          "internalType": "contract CToken[]",
          "name": "cTokens",
          "type": "address[]"
        },
        {
          "internalType": "uint256[]",
          "name": "newBorrowCaps",
          "type": "uint256[]"
        }
      ],
      "name": "_setMarketBorrowCaps",
      "outputs": [],
      "payable": false,
      "stateMutability": "nonpayable",
      "type": "function"
    },
    {
      "constant": false,
      "inputs": [
        {
          "internalType": "contract CToken",
          "name": "cToken",
          "type": "address"
        },
        {
          "internalType": "bool",
          "name": "state",
          "type": "bool"
        }
      ],
      "name": "_setMintPaused",
      "outputs": [
        {
          "internalType": "bool",
          "name": "",
          "type": "bool"
        }
      ],
      "payable": false,
      "stateMutability": "nonpayable",
      "type": "function"
    },
    {
      "constant": false,
      "inputs": [
        {
          "internalType": "address",
          "name": "newPauseGuardian",
          "type": "address"
        }
      ],
      "name": "_setPauseGuardian",
      "outputs": [
        {
          "internalType": "uint256",
          "name": "",
          "type": "uint256"
        }
      ],
      "payable": false,
      "stateMutability": "nonpayable",
      "type": "function"
    },
    {
      "constant": false,
      "inputs": [
        {
          "internalType": "contract PriceOracle",
          "name": "newOracle",
          "type": "address"
        }
      ],
      "name": "_setPriceOracle",
      "outputs": [
        {
          "internalType": "uint256",
          "name": "",
          "type": "uint256"
        }
      ],
      "payable": false,
      "stateMutability": "nonpayable",
      "type": "function"
    },
    {
      "constant": false,
      "inputs": [
        {
          "internalType": "bool",
          "name": "state",
          "type": "bool"
        }
      ],
      "name": "_setSeizePaused",
      "outputs": [
        {
          "internalType": "bool",
          "name": "",
          "type": "bool"
        }
      ],
      "payable": false,
      "stateMutability": "nonpayable",
      "type": "function"
    },
    {
      "constant": false,
      "inputs": [
        {
          "internalType": "bool",
          "name": "state",
          "type": "bool"
        }
      ],
      "name": "_setTransferPaused",
      "outputs": [
        {
          "internalType": "bool",
          "name": "",
          "type": "bool"
        }
      ],
      "payable": false,
      "stateMutability": "nonpayable",
      "type": "function"
    },
    {
      "constant": false,
      "inputs": [
        {
          "internalType": "contract CToken",
          "name": "cToken",
          "type": "address"
        }
      ],
      "name": "_supportMarket",
      "outputs": [
        {
          "internalType": "uint256",
          "name": "",
          "type": "uint256"
        }
      ],
      "payable": false,
      "stateMutability": "nonpayable",
      "type": "function"
    },
    {
      "constant": true,
      "inputs": [
        {
          "internalType": "address",
          "name": "",
          "type": "address"
        },
        {
          "internalType": "uint256",
          "name": "",
          "type": "uint256"
        }
      ],
      "name": "accountAssets",
      "outputs": [
        {
          "internalType": "contract CToken",
          "name": "",
          "type": "address"
        }
      ],
      "payable": false,
      "stateMutability": "view",
      "type": "function"
    },
    {
      "constant": true,
      "inputs": [],
      "name": "admin",
      "outputs": [
        {
          "internalType": "address",
          "name": "",
          "type": "address"
        }
      ],
      "payable": false,
      "stateMutability": "view",
      "type": "function"
    },
    {
      "constant": true,
      "inputs": [
        {
          "internalType": "uint256",
          "name": "",
          "type": "uint256"
        }
      ],
      "name": "allMarkets",
      "outputs": [
        {
          "internalType": "contract CToken",
          "name": "",
          "type": "address"
        }
      ],
      "payable": false,
      "stateMutability": "view",
      "type": "function"
    },
    {
      "constant": false,
      "inputs": [
        {
          "internalType": "address",
          "name": "cToken",
          "type": "address"
        },
        {
          "internalType": "address",
          "name": "borrower",
          "type": "address"
        },
        {
          "internalType": "uint256",
          "name": "borrowAmount",
          "type": "uint256"
        }
      ],
      "name": "borrowAllowed",
      "outputs": [
        {
          "internalType": "uint256",
          "name": "",
          "type": "uint256"
        }
      ],
      "payable": false,
      "stateMutability": "nonpayable",
      "type": "function"
    },
    {
      "constant": true,
      "inputs": [],
      "name": "borrowCapGuardian",
      "outputs": [
        {
          "internalType": "address",
          "name": "",
          "type": "address"
        }
      ],
      "payable": false,
      "stateMutability": "view",
      "type": "function"
    },
    {
      "constant": true,
      "inputs": [
        {
          "internalType": "address",
          "name": "",
          "type": "address"
        }
      ],
      "name": "borrowCaps",
      "outputs": [
        {
          "internalType": "uint256",
          "name": "",
          "type": "uint256"
        }
      ],
      "payable": false,
      "stateMutability": "view",
      "type": "function"
    },
    {
      "constant": true,
      "inputs": [
        {
          "internalType": "address",
          "name": "",
          "type": "address"
        }
      ],
      "name": "borrowGuardianPaused",
      "outputs": [
        {
          "internalType": "bool",
          "name": "",
          "type": "bool"
        }
      ],
      "payable": false,
      "stateMutability": "view",
      "type": "function"
    },
    {
      "constant": false,
      "inputs": [
        {
          "internalType": "address",
          "name": "cToken",
          "type": "address"
        },
        {
          "internalType": "address",
          "name": "borrower",
          "type": "address"
        },
        {
          "internalType": "uint256",
          "name": "borrowAmount",
          "type": "uint256"
        }
      ],
      "name": "borrowVerify",
      "outputs": [],
      "payable": false,
      "stateMutability": "nonpayable",
      "type": "function"
    },
    {
      "constant": true,
      "inputs": [
        {
          "internalType": "address",
          "name": "account",
          "type": "address"
        },
        {
          "internalType": "contract CToken",
          "name": "cToken",
          "type": "address"
        }
      ],
      "name": "checkMembership",
      "outputs": [
        {
          "internalType": "bool",
          "name": "",
          "type": "bool"
        }
      ],
      "payable": false,
      "stateMutability": "view",
      "type": "function"
    },
    {
      "constant": false,
      "inputs": [
        {
          "internalType": "address",
          "name": "holder",
          "type": "address"
        },
        {
          "internalType": "contract CToken[]",
          "name": "cTokens",
          "type": "address[]"
        }
      ],
      "name": "claimComp",
      "outputs": [],
      "payable": false,
      "stateMutability": "nonpayable",
      "type": "function"
    },
    {
      "constant": false,
      "inputs": [
        {
          "internalType": "address[]",
          "name": "holders",
          "type": "address[]"
        },
        {
          "internalType": "contract CToken[]",
          "name": "cTokens",
          "type": "address[]"
        },
        {
          "internalType": "bool",
          "name": "borrowers",
          "type": "bool"
        },
        {
          "internalType": "bool",
          "name": "suppliers",
          "type": "bool"
        }
      ],
      "name": "claimComp",
      "outputs": [],
      "payable": false,
      "stateMutability": "nonpayable",
      "type": "function"
    },
    {
      "constant": false,
      "inputs": [
        {
          "internalType": "address",
          "name": "holder",
          "type": "address"
        }
      ],
      "name": "claimComp",
      "outputs": [],
      "payable": false,
      "stateMutability": "nonpayable",
      "type": "function"
    },
    {
      "constant": true,
      "inputs": [],
      "name": "closeFactorMantissa",
      "outputs": [
        {
          "internalType": "uint256",
          "name": "",
          "type": "uint256"
        }
      ],
      "payable": false,
      "stateMutability": "view",
      "type": "function"
    },
    {
      "constant": true,
      "inputs": [
        {
          "internalType": "address",
          "name": "",
          "type": "address"
        }
      ],
      "name": "compAccrued",
      "outputs": [
        {
          "internalType": "uint256",
          "name": "",
          "type": "uint256"
        }
      ],
      "payable": false,
      "stateMutability": "view",
      "type": "function"
    },
    {
      "constant": true,
      "inputs": [
        {
          "internalType": "address",
          "name": "",
          "type": "address"
        }
      ],
      "name": "compBorrowState",
      "outputs": [
        {
          "internalType": "uint224",
          "name": "index",
          "type": "uint224"
        },
        {
          "internalType": "uint32",
          "name": "block",
          "type": "uint32"
        }
      ],
      "payable": false,
      "stateMutability": "view",
      "type": "function"
    },
    {
      "constant": true,
      "inputs": [
        {
          "internalType": "address",
          "name": "",
          "type": "address"
        },
        {
          "internalType": "address",
          "name": "",
          "type": "address"
        }
      ],
      "name": "compBorrowerIndex",
      "outputs": [
        {
          "internalType": "uint256",
          "name": "",
          "type": "uint256"
        }
      ],
      "payable": false,
      "stateMutability": "view",
      "type": "function"
    },
    {
      "constant": true,
      "inputs": [
        {
          "internalType": "address",
          "name": "",
          "type": "address"
        }
      ],
      "name": "compContributorSpeeds",
      "outputs": [
        {
          "internalType": "uint256",
          "name": "",
          "type": "uint256"
        }
      ],
      "payable": false,
      "stateMutability": "view",
      "type": "function"
    },
    {
      "constant": true,
      "inputs": [],
      "name": "compInitialIndex",
      "outputs": [
        {
          "internalType": "uint224",
          "name": "",
          "type": "uint224"
        }
      ],
      "payable": false,
      "stateMutability": "view",
      "type": "function"
    },
    {
      "constant": true,
      "inputs": [],
      "name": "compRate",
      "outputs": [
        {
          "internalType": "uint256",
          "name": "",
          "type": "uint256"
        }
      ],
      "payable": false,
      "stateMutability": "view",
      "type": "function"
    },
    {
      "constant": true,
      "inputs": [
        {
          "internalType": "address",
          "name": "",
          "type": "address"
        }
      ],
      "name": "compSpeeds",
      "outputs": [
        {
          "internalType": "uint256",
          "name": "",
          "type": "uint256"
        }
      ],
      "payable": false,
      "stateMutability": "view",
      "type": "function"
    },
    {
      "constant": true,
      "inputs": [
        {
          "internalType": "address",
          "name": "",
          "type": "address"
        },
        {
          "internalType": "address",
          "name": "",
          "type": "address"
        }
      ],
      "name": "compSupplierIndex",
      "outputs": [
        {
          "internalType": "uint256",
          "name": "",
          "type": "uint256"
        }
      ],
      "payable": false,
      "stateMutability": "view",
      "type": "function"
    },
    {
      "constant": true,
      "inputs": [
        {
          "internalType": "address",
          "name": "",
          "type": "address"
        }
      ],
      "name": "compSupplyState",
      "outputs": [
        {
          "internalType": "uint224",
          "name": "index",
          "type": "uint224"
        },
        {
          "internalType": "uint32",
          "name": "block",
          "type": "uint32"
        }
      ],
      "payable": false,
      "stateMutability": "view",
      "type": "function"
    },
    {
      "constant": true,
      "inputs": [],
      "name": "comptrollerImplementation",
      "outputs": [
        {
          "internalType": "address",
          "name": "",
          "type": "address"
        }
      ],
      "payable": false,
      "stateMutability": "view",
      "type": "function"
    },
    {
      "constant": false,
      "inputs": [
        {
          "internalType": "address[]",
          "name": "cTokens",
          "type": "address[]"
        }
      ],
      "name": "enterMarkets",
      "outputs": [
        {
          "internalType": "uint256[]",
          "name": "",
          "type": "uint256[]"
        }
      ],
      "payable": false,
      "stateMutability": "nonpayable",
      "type": "function"
    },
    {
      "constant": false,
      "inputs": [
        {
          "internalType": "address",
          "name": "cTokenAddress",
          "type": "address"
        }
      ],
      "name": "exitMarket",
      "outputs": [
        {
          "internalType": "uint256",
          "name": "",
          "type": "uint256"
        }
      ],
      "payable": false,
      "stateMutability": "nonpayable",
      "type": "function"
    },
    {
      "constant": true,
      "inputs": [
        {
          "internalType": "address",
          "name": "account",
          "type": "address"
        }
      ],
      "name": "getAccountLiquidity",
      "outputs": [
        {
          "internalType": "uint256",
          "name": "",
          "type": "uint256"
        },
        {
          "internalType": "uint256",
          "name": "",
          "type": "uint256"
        },
        {
          "internalType": "uint256",
          "name": "",
          "type": "uint256"
        }
      ],
      "payable": false,
      "stateMutability": "view",
      "type": "function"
    },
    {
      "constant": true,
      "inputs": [],
      "name": "getAllMarkets",
      "outputs": [
        {
          "internalType": "contract CToken[]",
          "name": "",
          "type": "address[]"
        }
      ],
      "payable": false,
      "stateMutability": "view",
      "type": "function"
    },
    {
      "constant": true,
      "inputs": [
        {
          "internalType": "address",
          "name": "account",
          "type": "address"
        }
      ],
      "name": "getAssetsIn",
      "outputs": [
        {
          "internalType": "contract CToken[]",
          "name": "",
          "type": "address[]"
        }
      ],
      "payable": false,
      "stateMutability": "view",
      "type": "function"
    },
    {
      "constant": true,
      "inputs": [],
      "name": "getBlockNumber",
      "outputs": [
        {
          "internalType": "uint256",
          "name": "",
          "type": "uint256"
        }
      ],
      "payable": false,
      "stateMutability": "view",
      "type": "function"
    },
    {
      "constant": true,
      "inputs": [],
      "name": "getCompAddress",
      "outputs": [
        {
          "internalType": "address",
          "name": "",
          "type": "address"
        }
      ],
      "payable": false,
      "stateMutability": "view",
      "type": "function"
    },
    {
      "constant": true,
      "inputs": [
        {
          "internalType": "address",
          "name": "account",
          "type": "address"
        },
        {
          "internalType": "address",
          "name": "cTokenModify",
          "type": "address"
        },
        {
          "internalType": "uint256",
          "name": "redeemTokens",
          "type": "uint256"
        },
        {
          "internalType": "uint256",
          "name": "borrowAmount",
          "type": "uint256"
        }
      ],
      "name": "getHypotheticalAccountLiquidity",
      "outputs": [
        {
          "internalType": "uint256",
          "name": "",
          "type": "uint256"
        },
        {
          "internalType": "uint256",
          "name": "",
          "type": "uint256"
        },
        {
          "internalType": "uint256",
          "name": "",
          "type": "uint256"
        }
      ],
      "payable": false,
      "stateMutability": "view",
      "type": "function"
    },
    {
      "constant": true,
      "inputs": [],
      "name": "isComptroller",
      "outputs": [
        {
          "internalType": "bool",
          "name": "",
          "type": "bool"
        }
      ],
      "payable": false,
      "stateMutability": "view",
      "type": "function"
    },
    {
      "constant": true,
      "inputs": [
        {
          "internalType": "address",
          "name": "",
          "type": "address"
        }
      ],
      "name": "lastContributorBlock",
      "outputs": [
        {
          "internalType": "uint256",
          "name": "",
          "type": "uint256"
        }
      ],
      "payable": false,
      "stateMutability": "view",
      "type": "function"
    },
    {
      "constant": false,
      "inputs": [
        {
          "internalType": "address",
          "name": "cTokenBorrowed",
          "type": "address"
        },
        {
          "internalType": "address",
          "name": "cTokenCollateral",
          "type": "address"
        },
        {
          "internalType": "address",
          "name": "liquidator",
          "type": "address"
        },
        {
          "internalType": "address",
          "name": "borrower",
          "type": "address"
        },
        {
          "internalType": "uint256",
          "name": "repayAmount",
          "type": "uint256"
        }
      ],
      "name": "liquidateBorrowAllowed",
      "outputs": [
        {
          "internalType": "uint256",
          "name": "",
          "type": "uint256"
        }
      ],
      "payable": false,
      "stateMutability": "nonpayable",
      "type": "function"
    },
    {
      "constant": false,
      "inputs": [
        {
          "internalType": "address",
          "name": "cTokenBorrowed",
          "type": "address"
        },
        {
          "internalType": "address",
          "name": "cTokenCollateral",
          "type": "address"
        },
        {
          "internalType": "address",
          "name": "liquidator",
          "type": "address"
        },
        {
          "internalType": "address",
          "name": "borrower",
          "type": "address"
        },
        {
          "internalType": "uint256",
          "name": "actualRepayAmount",
          "type": "uint256"
        },
        {
          "internalType": "uint256",
          "name": "seizeTokens",
          "type": "uint256"
        }
      ],
      "name": "liquidateBorrowVerify",
      "outputs": [],
      "payable": false,
      "stateMutability": "nonpayable",
      "type": "function"
    },
    {
      "constant": true,
      "inputs": [
        {
          "internalType": "address",
          "name": "cTokenBorrowed",
          "type": "address"
        },
        {
          "internalType": "address",
          "name": "cTokenCollateral",
          "type": "address"
        },
        {
          "internalType": "uint256",
          "name": "actualRepayAmount",
          "type": "uint256"
        }
      ],
      "name": "liquidateCalculateSeizeTokens",
      "outputs": [
        {
          "internalType": "uint256",
          "name": "",
          "type": "uint256"
        },
        {
          "internalType": "uint256",
          "name": "",
          "type": "uint256"
        }
      ],
      "payable": false,
      "stateMutability": "view",
      "type": "function"
    },
    {
      "constant": true,
      "inputs": [],
      "name": "liquidationIncentiveMantissa",
      "outputs": [
        {
          "internalType": "uint256",
          "name": "",
          "type": "uint256"
        }
      ],
      "payable": false,
      "stateMutability": "view",
      "type": "function"
    },
    {
      "constant": true,
      "inputs": [
        {
          "internalType": "address",
          "name": "",
          "type": "address"
        }
      ],
      "name": "markets",
      "outputs": [
        {
          "internalType": "bool",
          "name": "isListed",
          "type": "bool"
        },
        {
          "internalType": "uint256",
          "name": "collateralFactorMantissa",
          "type": "uint256"
        },
        {
          "internalType": "bool",
          "name": "isComped",
          "type": "bool"
        }
      ],
      "payable": false,
      "stateMutability": "view",
      "type": "function"
    },
    {
      "constant": true,
      "inputs": [],
      "name": "maxAssets",
      "outputs": [
        {
          "internalType": "uint256",
          "name": "",
          "type": "uint256"
        }
      ],
      "payable": false,
      "stateMutability": "view",
      "type": "function"
    },
    {
      "constant": false,
      "inputs": [
        {
          "internalType": "address",
          "name": "cToken",
          "type": "address"
        },
        {
          "internalType": "address",
          "name": "minter",
          "type": "address"
        },
        {
          "internalType": "uint256",
          "name": "mintAmount",
          "type": "uint256"
        }
      ],
      "name": "mintAllowed",
      "outputs": [
        {
          "internalType": "uint256",
          "name": "",
          "type": "uint256"
        }
      ],
      "payable": false,
      "stateMutability": "nonpayable",
      "type": "function"
    },
    {
      "constant": true,
      "inputs": [
        {
          "internalType": "address",
          "name": "",
          "type": "address"
        }
      ],
      "name": "mintGuardianPaused",
      "outputs": [
        {
          "internalType": "bool",
          "name": "",
          "type": "bool"
        }
      ],
      "payable": false,
      "stateMutability": "view",
      "type": "function"
    },
    {
      "constant": false,
      "inputs": [
        {
          "internalType": "address",
          "name": "cToken",
          "type": "address"
        },
        {
          "internalType": "address",
          "name": "minter",
          "type": "address"
        },
        {
          "internalType": "uint256",
          "name": "actualMintAmount",
          "type": "uint256"
        },
        {
          "internalType": "uint256",
          "name": "mintTokens",
          "type": "uint256"
        }
      ],
      "name": "mintVerify",
      "outputs": [],
      "payable": false,
      "stateMutability": "nonpayable",
      "type": "function"
    },
    {
      "constant": true,
      "inputs": [],
      "name": "oracle",
      "outputs": [
        {
          "internalType": "contract PriceOracle",
          "name": "",
          "type": "address"
        }
      ],
      "payable": false,
      "stateMutability": "view",
      "type": "function"
    },
    {
      "constant": true,
      "inputs": [],
      "name": "pauseGuardian",
      "outputs": [
        {
          "internalType": "address",
          "name": "",
          "type": "address"
        }
      ],
      "payable": false,
      "stateMutability": "view",
      "type": "function"
    },
    {
      "constant": true,
      "inputs": [],
      "name": "pendingAdmin",
      "outputs": [
        {
          "internalType": "address",
          "name": "",
          "type": "address"
        }
      ],
      "payable": false,
      "stateMutability": "view",
      "type": "function"
    },
    {
      "constant": true,
      "inputs": [],
      "name": "pendingComptrollerImplementation",
      "outputs": [
        {
          "internalType": "address",
          "name": "",
          "type": "address"
        }
      ],
      "payable": false,
      "stateMutability": "view",
      "type": "function"
    },
    {
      "constant": false,
      "inputs": [
        {
          "internalType": "address",
          "name": "cToken",
          "type": "address"
        },
        {
          "internalType": "address",
          "name": "redeemer",
          "type": "address"
        },
        {
          "internalType": "uint256",
          "name": "redeemTokens",
          "type": "uint256"
        }
      ],
      "name": "redeemAllowed",
      "outputs": [
        {
          "internalType": "uint256",
          "name": "",
          "type": "uint256"
        }
      ],
      "payable": false,
      "stateMutability": "nonpayable",
      "type": "function"
    },
    {
      "constant": false,
      "inputs": [
        {
          "internalType": "address",
          "name": "cToken",
          "type": "address"
        },
        {
          "internalType": "address",
          "name": "redeemer",
          "type": "address"
        },
        {
          "internalType": "uint256",
          "name": "redeemAmount",
          "type": "uint256"
        },
        {
          "internalType": "uint256",
          "name": "redeemTokens",
          "type": "uint256"
        }
      ],
      "name": "redeemVerify",
      "outputs": [],
      "payable": false,
      "stateMutability": "nonpayable",
      "type": "function"
    },
    {
      "constant": false,
      "inputs": [
        {
          "internalType": "address",
          "name": "cToken",
          "type": "address"
        },
        {
          "internalType": "address",
          "name": "payer",
          "type": "address"
        },
        {
          "internalType": "address",
          "name": "borrower",
          "type": "address"
        },
        {
          "internalType": "uint256",
          "name": "repayAmount",
          "type": "uint256"
        }
      ],
      "name": "repayBorrowAllowed",
      "outputs": [
        {
          "internalType": "uint256",
          "name": "",
          "type": "uint256"
        }
      ],
      "payable": false,
      "stateMutability": "nonpayable",
      "type": "function"
    },
    {
      "constant": false,
      "inputs": [
        {
          "internalType": "address",
          "name": "cToken",
          "type": "address"
        },
        {
          "internalType": "address",
          "name": "payer",
          "type": "address"
        },
        {
          "internalType": "address",
          "name": "borrower",
          "type": "address"
        },
        {
          "internalType": "uint256",
          "name": "actualRepayAmount",
          "type": "uint256"
        },
        {
          "internalType": "uint256",
          "name": "borrowerIndex",
          "type": "uint256"
        }
      ],
      "name": "repayBorrowVerify",
      "outputs": [],
      "payable": false,
      "stateMutability": "nonpayable",
      "type": "function"
    },
    {
      "constant": false,
      "inputs": [
        {
          "internalType": "address",
          "name": "cTokenCollateral",
          "type": "address"
        },
        {
          "internalType": "address",
          "name": "cTokenBorrowed",
          "type": "address"
        },
        {
          "internalType": "address",
          "name": "liquidator",
          "type": "address"
        },
        {
          "internalType": "address",
          "name": "borrower",
          "type": "address"
        },
        {
          "internalType": "uint256",
          "name": "seizeTokens",
          "type": "uint256"
        }
      ],
      "name": "seizeAllowed",
      "outputs": [
        {
          "internalType": "uint256",
          "name": "",
          "type": "uint256"
        }
      ],
      "payable": false,
      "stateMutability": "nonpayable",
      "type": "function"
    },
    {
      "constant": true,
      "inputs": [],
      "name": "seizeGuardianPaused",
      "outputs": [
        {
          "internalType": "bool",
          "name": "",
          "type": "bool"
        }
      ],
      "payable": false,
      "stateMutability": "view",
      "type": "function"
    },
    {
      "constant": false,
      "inputs": [
        {
          "internalType": "address",
          "name": "cTokenCollateral",
          "type": "address"
        },
        {
          "internalType": "address",
          "name": "cTokenBorrowed",
          "type": "address"
        },
        {
          "internalType": "address",
          "name": "liquidator",
          "type": "address"
        },
        {
          "internalType": "address",
          "name": "borrower",
          "type": "address"
        },
        {
          "internalType": "uint256",
          "name": "seizeTokens",
          "type": "uint256"
        }
      ],
      "name": "seizeVerify",
      "outputs": [],
      "payable": false,
      "stateMutability": "nonpayable",
      "type": "function"
    },
    {
      "constant": false,
      "inputs": [
        {
          "internalType": "address",
          "name": "cToken",
          "type": "address"
        },
        {
          "internalType": "address",
          "name": "src",
          "type": "address"
        },
        {
          "internalType": "address",
          "name": "dst",
          "type": "address"
        },
        {
          "internalType": "uint256",
          "name": "transferTokens",
          "type": "uint256"
        }
      ],
      "name": "transferAllowed",
      "outputs": [
        {
          "internalType": "uint256",
          "name": "",
          "type": "uint256"
        }
      ],
      "payable": false,
      "stateMutability": "nonpayable",
      "type": "function"
    },
    {
      "constant": true,
      "inputs": [],
      "name": "transferGuardianPaused",
      "outputs": [
        {
          "internalType": "bool",
          "name": "",
          "type": "bool"
        }
      ],
      "payable": false,
      "stateMutability": "view",
      "type": "function"
    },
    {
      "constant": false,
      "inputs": [
        {
          "internalType": "address",
          "name": "cToken",
          "type": "address"
        },
        {
          "internalType": "address",
          "name": "src",
          "type": "address"
        },
        {
          "internalType": "address",
          "name": "dst",
          "type": "address"
        },
        {
          "internalType": "uint256",
          "name": "transferTokens",
          "type": "uint256"
        }
      ],
      "name": "transferVerify",
      "outputs": [],
      "payable": false,
      "stateMutability": "nonpayable",
      "type": "function"
    },
    {
      "constant": false,
      "inputs": [
        {
          "internalType": "address",
          "name": "contributor",
          "type": "address"
        }
      ],
      "name": "updateContributorRewards",
      "outputs": [],
      "payable": false,
      "stateMutability": "nonpayable",
      "type": "function"
    }
  ],
  "bytecode": "0x608060405234801561001057600080fd5b50600080546001600160a01b0319163317905561562580620000336000396000f3fe608060405234801561001057600080fd5b50600436106104485760003560e01c80636d154ea511610241578063b21be7fd1161013b578063da3d454c116100c3578063e875544611610087578063e8755446146111ed578063e9af0292146111f5578063eabe7d911461121b578063ede4edd014611251578063f851a4401461127757610448565b8063da3d454c1461114f578063dce1544914611185578063dcfbc0c7146111b1578063e4028eee146111b9578063e6653f3d146111e557610448565b8063c29982381161010a578063c299823814610fc5578063c488847b14611066578063ca0af043146110b5578063cc7ebdc4146110e3578063d02f73511461110957610448565b8063b21be7fd14610f2d578063bb82aa5e14610f5b578063bdcdc25814610f63578063bea6b8b814610f9f57610448565b8063929fe9a1116101c9578063a7f0e2311161018d578063a7f0e23114610e7b578063aa90075414610e9f578063abfceffc14610ea7578063ac0b0bb714610f1d578063b0772d0b14610f2557610448565b8063929fe9a114610df157806394b2294b14610e1f578063986ab83814610e275780639d1b5a0a14610e4d578063a76b3fda14610e5557610448565b80637dc0d1d0116102105780637dc0d1d014610d5457806387f7630314610d5c5780638c57804e14610d645780638e8f294b14610d8a5780638ebf636414610dd257610448565b80636d154ea514610c9c5780636d35bf9114610cc2578063731f0c2b14610d08578063741b252514610d2e57610448565b8063434caf251161035257806355ee1fe1116102da5780635fc7e71e1161029e5780635fc7e71e146109e2578063607ef6c114610a285780636810dfa614610ae65780636a56947e14610c125780636b79c38d14610c4e57610448565b806355ee1fe11461090e578063598ee1cb146109345780635c778605146109605780635ec88c79146109965780635f5af1aa146109bc57610448565b80634e79238f116103215780634e79238f146108085780634ef4c3e1146108625780634fd42e171461089857806351dff989146108b557806352d84d1e146108f157610448565b8063434caf251461076257806347ef3b3b1461078e5780634a584432146107da5780634ada90af1461080057610448565b806326782247116103d5578063391957d7116103a4578063391957d7146106c25780633bcf7ec1146106e85780633c94786f1461071657806341c728b91461071e57806342cbb15c1461075a57610448565b8063267822471461065257806327efe3cb1461065a5780632d70db7814610686578063317b0b77146106a557610448565b80631d7b33d71161041c5780631d7b33d7146105705780631ededc91146105a857806321af4569146105ea57806324008a621461060e57806324a3d6221461064a57610448565b80627e3dd21461044d57806318c882a5146104695780631c3db2e0146104975780631d504dc61461054a575b600080fd5b61045561127f565b604080519115158252519081900360200190f35b6104556004803603604081101561047f57600080fd5b506001600160a01b0381351690602001351515611284565b610548600480360360408110156104ad57600080fd5b6001600160a01b038235169190810190604081016020820135600160201b8111156104d757600080fd5b8201836020820111156104e957600080fd5b803590602001918460208302840111600160201b8311171561050a57600080fd5b919080806020026020016040519081016040528093929190818152602001838360200280828437600092019190915250929550611424945050505050565b005b6105486004803603602081101561056057600080fd5b50356001600160a01b0316611486565b6105966004803603602081101561058657600080fd5b50356001600160a01b03166115e5565b60408051918252519081900360200190f35b610548600480360360a08110156105be57600080fd5b506001600160a01b038135811691602081013582169160408201351690606081013590608001356115f7565b6105f26115fe565b604080516001600160a01b039092168252519081900360200190f35b6105966004803603608081101561062457600080fd5b506001600160a01b0381358116916020810135821691604082013516906060013561160d565b6105f26116d4565b6105f26116e3565b6105486004803603604081101561067057600080fd5b506001600160a01b0381351690602001356116f2565b6104556004803603602081101561069c57600080fd5b503515156117f5565b610596600480360360208110156106bb57600080fd5b503561192f565b610548600480360360208110156106d857600080fd5b50356001600160a01b03166119dc565b610455600480360360408110156106fe57600080fd5b506001600160a01b0381351690602001351515611a88565b610455611c23565b6105486004803603608081101561073457600080fd5b506001600160a01b03813581169160208101359091169060408101359060600135611c33565b610596611c39565b6105486004803603604081101561077857600080fd5b506001600160a01b038135169060200135611c3e565b610548600480360360c08110156107a457600080fd5b506001600160a01b0381358116916020810135821691604082013581169160608101359091169060808101359060a00135611ca5565b610596600480360360208110156107f057600080fd5b50356001600160a01b0316611cad565b610596611cbf565b6108446004803603608081101561081e57600080fd5b506001600160a01b03813581169160208101359091169060408101359060600135611cc5565b60408051938452602084019290925282820152519081900360600190f35b6105966004803603606081101561087857600080fd5b506001600160a01b03813581169160208101359091169060400135611cff565b610596600480360360208110156108ae57600080fd5b5035611da5565b610548600480360360808110156108cb57600080fd5b506001600160a01b03813581169160208101359091169060408101359060600135611e15565b6105f26004803603602081101561090757600080fd5b5035611e69565b6105966004803603602081101561092457600080fd5b50356001600160a01b0316611e90565b6105486004803603604081101561094a57600080fd5b506001600160a01b038135169060200135611f15565b6105486004803603606081101561097657600080fd5b506001600160a01b03813581169160208101359091169060400135612010565b610844600480360360208110156109ac57600080fd5b50356001600160a01b0316612015565b610596600480360360208110156109d257600080fd5b50356001600160a01b031661204a565b610596600480360360a08110156109f857600080fd5b506001600160a01b03813581169160208101358216916040820135811691606081013590911690608001356120ce565b61054860048036036040811015610a3e57600080fd5b810190602081018135600160201b811115610a5857600080fd5b820183602082011115610a6a57600080fd5b803590602001918460208302840111600160201b83111715610a8b57600080fd5b919390929091602081019035600160201b811115610aa857600080fd5b820183602082011115610aba57600080fd5b803590602001918460208302840111600160201b83111715610adb57600080fd5b509092509050612233565b61054860048036036080811015610afc57600080fd5b810190602081018135600160201b811115610b1657600080fd5b820183602082011115610b2857600080fd5b803590602001918460208302840111600160201b83111715610b4957600080fd5b9190808060200260200160405190810160405280939291908181526020018383602002808284376000920191909152509295949360208101935035915050600160201b811115610b9857600080fd5b820183602082011115610baa57600080fd5b803590602001918460208302840111600160201b83111715610bcb57600080fd5b9190808060200260200160405190810160405280939291908181526020018383602002808284376000920191909152509295505050508035151591506020013515156123c3565b61054860048036036080811015610c2857600080fd5b506001600160a01b03813581169160208101358216916040820135169060600135611c33565b610c7460048036036020811015610c6457600080fd5b50356001600160a01b031661264c565b604080516001600160e01b03909316835263ffffffff90911660208301528051918290030190f35b61045560048036036020811015610cb257600080fd5b50356001600160a01b0316612676565b610548600480360360a0811015610cd857600080fd5b506001600160a01b03813581169160208101358216916040820135811691606081013590911690608001356115f7565b61045560048036036020811015610d1e57600080fd5b50356001600160a01b031661268b565b61054860048036036020811015610d4457600080fd5b50356001600160a01b03166126a0565b6105f2612763565b610455612772565b610c7460048036036020811015610d7a57600080fd5b50356001600160a01b0316612782565b610db060048036036020811015610da057600080fd5b50356001600160a01b03166127ac565b6040805193151584526020840192909252151582820152519081900360600190f35b61045560048036036020811015610de857600080fd5b503515156127d2565b61045560048036036040811015610e0757600080fd5b506001600160a01b038135811691602001351661290b565b61059661293e565b61059660048036036020811015610e3d57600080fd5b50356001600160a01b0316612944565b6105f2612956565b61059660048036036020811015610e6b57600080fd5b50356001600160a01b031661296e565b610e83612acb565b604080516001600160e01b039092168252519081900360200190f35b610596612ade565b610ecd60048036036020811015610ebd57600080fd5b50356001600160a01b0316612ae4565b60408051602080825283518183015283519192839290830191858101910280838360005b83811015610f09578181015183820152602001610ef1565b505050509050019250505060405180910390f35b610455612b6d565b610ecd612b7d565b61059660048036036040811015610f4357600080fd5b506001600160a01b0381358116916020013516612bdf565b6105f2612bfc565b61059660048036036080811015610f7957600080fd5b506001600160a01b03813581169160208101358216916040820135169060600135612c0b565b61059660048036036020811015610fb557600080fd5b50356001600160a01b0316612c9b565b610ecd60048036036020811015610fdb57600080fd5b810190602081018135600160201b811115610ff557600080fd5b82018360208201111561100757600080fd5b803590602001918460208302840111600160201b8311171561102857600080fd5b919080806020026020016040519081016040528093929190818152602001838360200280828437600092019190915250929550612cad945050505050565b61109c6004803603606081101561107c57600080fd5b506001600160a01b03813581169160208101359091169060400135612d44565b6040805192835260208301919091528051918290030190f35b610596600480360360408110156110cb57600080fd5b506001600160a01b0381358116916020013516612f6c565b610596600480360360208110156110f957600080fd5b50356001600160a01b0316612f89565b610596600480360360a081101561111f57600080fd5b506001600160a01b0381358116916020810135821691604082013581169160608101359091169060800135612f9b565b6105966004803603606081101561116557600080fd5b506001600160a01b0381358116916020810135909116906040013561314f565b6105f26004803603604081101561119b57600080fd5b506001600160a01b038135169060200135613529565b6105f261355e565b610596600480360360408110156111cf57600080fd5b506001600160a01b03813516906020013561356d565b61045561371d565b61059661372d565b6105486004803603602081101561120b57600080fd5b50356001600160a01b0316613733565b6105966004803603606081101561123157600080fd5b506001600160a01b03813581169160208101359091169060400135613797565b6105966004803603602081101561126757600080fd5b50356001600160a01b03166137d2565b6105f2613ae5565b600181565b6001600160a01b03821660009081526009602052604081205460ff166112db5760405162461bcd60e51b81526004018080602001828103825260288152602001806154db6028913960400191505060405180910390fd5b600a546001600160a01b03163314806112fe57506000546001600160a01b031633145b6113395760405162461bcd60e51b81526004018080602001828103825260278152602001806155036027913960400191505060405180910390fd5b6000546001600160a01b031633148061135457506001821515145b61139e576040805162461bcd60e51b81526020600482015260166024820152756f6e6c792061646d696e2063616e20756e706175736560501b604482015290519081900360640190fd5b6001600160a01b0383166000818152600c6020908152604091829020805486151560ff199091168117909155825193845283830152606090830181905260069083015265426f72726f7760d01b6080830152517f71aec636243f9709bb0007ae15e9afb8150ab01716d75fd7573be5cc096e03b09181900360a00190a150805b92915050565b60408051600180825281830190925260609160208083019080388339019050509050828160008151811061145457fe5b60200260200101906001600160a01b031690816001600160a01b03168152505061148181836001806123c3565b505050565b806001600160a01b031663f851a4406040518163ffffffff1660e01b815260040160206040518083038186803b1580156114bf57600080fd5b505afa1580156114d3573d6000803e3d6000fd5b505050506040513d60208110156114e957600080fd5b50516001600160a01b031633146115315760405162461bcd60e51b81526004018080602001828103825260278152602001806155ca6027913960400191505060405180910390fd5b806001600160a01b031663c1e803346040518163ffffffff1660e01b8152600401602060405180830381600087803b15801561156c57600080fd5b505af1158015611580573d6000803e3d6000fd5b505050506040513d602081101561159657600080fd5b5051156115e2576040805162461bcd60e51b815260206004820152601560248201527418da185b99d9481b9bdd08185d5d1a1bdc9a5e9959605a1b604482015290519081900360640190fd5b50565b600f6020526000908152604090205481565b5050505050565b6015546001600160a01b031681565b6001600160a01b03841660009081526009602052604081205460ff16611635575060096116cc565b61163d61541b565b6040518060200160405280876001600160a01b031663aa5af0fd6040518163ffffffff1660e01b815260040160206040518083038186803b15801561168157600080fd5b505afa158015611695573d6000803e3d6000fd5b505050506040513d60208110156116ab57600080fd5b5051905290506116bb8682613af4565b6116c6868583613d7c565b60009150505b949350505050565b600a546001600160a01b031681565b6001546001600160a01b031681565b6116fa613f13565b61174b576040805162461bcd60e51b815260206004820152601960248201527f6f6e6c792061646d696e2063616e206772616e7420636f6d7000000000000000604482015290519081900360640190fd5b60006117578383613f3c565b905080156117ac576040805162461bcd60e51b815260206004820152601b60248201527f696e73756666696369656e7420636f6d7020666f72206772616e740000000000604482015290519081900360640190fd5b604080516001600160a01b03851681526020810184905281517f98b2f82a3a07f223a0be64b3d0f47711c64dccd1feafb94aa28156b38cd9695c929181900390910190a1505050565b600a546000906001600160a01b031633148061181b57506000546001600160a01b031633145b6118565760405162461bcd60e51b81526004018080602001828103825260278152602001806155036027913960400191505060405180910390fd5b6000546001600160a01b031633148061187157506001821515145b6118bb576040805162461bcd60e51b81526020600482015260166024820152756f6e6c792061646d696e2063616e20756e706175736560501b604482015290519081900360640190fd5b600a8054831515600160b81b810260ff60b81b1990921691909117909155604080516020810192909252808252600582820152645365697a6560d81b6060830152517fef159d9a32b2472e32b098f954f3ce62d232939f1c207070b584df1814de2de09181900360800190a150805b919050565b600080546001600160a01b0316331461198f576040805162461bcd60e51b815260206004820152601f60248201527f6f6e6c792061646d696e2063616e2073657420636c6f736520666163746f7200604482015290519081900360640190fd5b6005805490839055604080518281526020810185905281517f3b9670cf975d26958e754b57098eaa2ac914d8d2a31b83257997b9f346110fd9929181900390910190a160005b9392505050565b6000546001600160a01b03163314611a255760405162461bcd60e51b815260040180806020018281038252602681526020018061552a6026913960400191505060405180910390fd5b601580546001600160a01b038381166001600160a01b0319831681179093556040805191909216808252602082019390935281517feda98690e518e9a05f8ec6837663e188211b2da8f4906648b323f2c1d4434e29929181900390910190a15050565b6001600160a01b03821660009081526009602052604081205460ff16611adf5760405162461bcd60e51b81526004018080602001828103825260288152602001806154db6028913960400191505060405180910390fd5b600a546001600160a01b0316331480611b0257506000546001600160a01b031633145b611b3d5760405162461bcd60e51b81526004018080602001828103825260278152602001806155036027913960400191505060405180910390fd5b6000546001600160a01b0316331480611b5857506001821515145b611ba2576040805162461bcd60e51b81526020600482015260166024820152756f6e6c792061646d696e2063616e20756e706175736560501b604482015290519081900360640190fd5b6001600160a01b0383166000818152600b6020908152604091829020805486151560ff199091168117909155825193845283830152606090830181905260049083015263135a5b9d60e21b6080830152517f71aec636243f9709bb0007ae15e9afb8150ab01716d75fd7573be5cc096e03b09181900360a00190a150919050565b600a54600160a01b900460ff1681565b50505050565b435b90565b611c46613f13565b611c97576040805162461bcd60e51b815260206004820152601d60248201527f6f6e6c792061646d696e2063616e2073657420636f6d70207370656564000000604482015290519081900360640190fd5b611ca18282614076565b5050565b505050505050565b60166020526000908152604090205481565b60065481565b600080600080600080611cda8a8a8a8a6143f6565b925092509250826011811115611cec57fe5b95509093509150505b9450945094915050565b6001600160a01b0383166000908152600b602052604081205460ff1615611d5e576040805162461bcd60e51b815260206004820152600e60248201526d1b5a5b9d081a5cc81c185d5cd95960921b604482015290519081900360640190fd5b6001600160a01b03841660009081526009602052604090205460ff16611d885760095b90506119d5565b611d918461472e565b611d9b84846149ac565b6000949350505050565b600080546001600160a01b03163314611dcb57611dc46001600b614b8b565b905061192a565b6006805490839055604080518281526020810185905281517faeba5a6c40a8ac138134bff1aaa65debf25971188a58804bad717f82f0ec1316929181900390910190a160006119d5565b80158015611e235750600082115b15611c33576040805162461bcd60e51b815260206004820152601160248201527072656465656d546f6b656e73207a65726f60781b604482015290519081900360640190fd5b600d8181548110611e7657fe5b6000918252602090912001546001600160a01b0316905081565b600080546001600160a01b03163314611eaf57611dc460016010614b8b565b600480546001600160a01b038481166001600160a01b0319831681179093556040805191909216808252602082019390935281517fd52b2b9b7e9ee655fcb95d2e5b9e0c9f69e7ef2b8e9d2d0ea78402d576d22e22929181900390910190a160006119d5565b611f1d613f13565b611f6e576040805162461bcd60e51b815260206004820152601d60248201527f6f6e6c792061646d696e2063616e2073657420636f6d70207370656564000000604482015290519081900360640190fd5b611f77826126a0565b80611f9a576001600160a01b038216600090815260186020526040812055611fbc565b611fa2611c39565b6001600160a01b0383166000908152601860205260409020555b6001600160a01b038216600081815260176020908152604091829020849055815184815291517f386537fa92edc3319af95f1f904dcf1900021e4f3f4e08169a577a09076e66b39281900390910190a25050565b611481565b60008060008060008061202c8760008060006143f6565b92509250925082601181111561203e57fe5b97919650945092505050565b600080546001600160a01b0316331461206957611dc460016013614b8b565b600a80546001600160a01b038481166001600160a01b0319831617928390556040805192821680845293909116602083015280517f0613b6ee6a04f0d09f390e4d9318894b9f6ac7fd83897cd8d18896ba579c401e9281900390910190a160006119d5565b6001600160a01b03851660009081526009602052604081205460ff16158061210f57506001600160a01b03851660009081526009602052604090205460ff16155b1561211e5760095b905061222a565b60008061212a85614bf1565b9193509091506000905082601181111561214057fe5b1461215a5781601181111561215157fe5b9250505061222a565b80612166576003612151565b6000886001600160a01b03166395dd9193876040518263ffffffff1660e01b815260040180826001600160a01b03166001600160a01b0316815260200191505060206040518083038186803b1580156121be57600080fd5b505afa1580156121d2573d6000803e3d6000fd5b505050506040513d60208110156121e857600080fd5b50516040805160208101909152600554815290915060009061220a9083614c11565b90508086111561222157601194505050505061222a565b60009450505050505b95945050505050565b6000546001600160a01b031633148061225657506015546001600160a01b031633145b6122915760405162461bcd60e51b81526004018080602001828103825260358152602001806155506035913960400191505060405180910390fd5b828181158015906122a157508082145b6122e2576040805162461bcd60e51b815260206004820152600d60248201526c1a5b9d985b1a59081a5b9c1d5d609a1b604482015290519081900360640190fd5b60005b828110156123ba578484828181106122f957fe5b905060200201356016600089898581811061231057fe5b905060200201356001600160a01b03166001600160a01b03166001600160a01b031681526020019081526020016000208190555086868281811061235057fe5b905060200201356001600160a01b03166001600160a01b03167f6f1951b2aad10f3fc81b86d91105b413a5b3f847a34bbc5ce1904201b14438f686868481811061239657fe5b905060200201356040518082815260200191505060405180910390a26001016122e5565b50505050505050565b60005b83518110156115f75760008482815181106123dd57fe5b6020908102919091018101516001600160a01b0381166000908152600990925260409091205490915060ff16612452576040805162461bcd60e51b81526020600482015260156024820152741b585c9ad95d081b5d5cdd081899481b1a5cdd1959605a1b604482015290519081900360640190fd5b600184151514156125a15761246561541b565b6040518060200160405280836001600160a01b031663aa5af0fd6040518163ffffffff1660e01b815260040160206040518083038186803b1580156124a957600080fd5b505afa1580156124bd573d6000803e3d6000fd5b505050506040513d60208110156124d357600080fd5b5051905290506124e38282613af4565b60005b875181101561259e5761250d838983815181106124ff57fe5b602002602001015184613d7c565b61256288828151811061251c57fe5b6020026020010151601460008b858151811061253457fe5b60200260200101516001600160a01b03166001600160a01b0316815260200190815260200160002054613f3c565b601460008a848151811061257257fe5b6020908102919091018101516001600160a01b03168252810191909152604001600020556001016124e6565b50505b60018315151415612643576125b58161472e565b60005b8651811015612641576125de828883815181106125d157fe5b60200260200101516149ac565b6126058782815181106125ed57fe5b6020026020010151601460008a858151811061253457fe5b6014600089848151811061261557fe5b6020908102919091018101516001600160a01b03168252810191909152604001600020556001016125b8565b505b506001016123c6565b6010602052600090815260409020546001600160e01b03811690600160e01b900463ffffffff1682565b600c6020526000908152604090205460ff1681565b600b6020526000908152604090205460ff1681565b6001600160a01b038116600090815260176020526040812054906126c2611c39565b6001600160a01b038416600090815260186020526040812054919250906126ea908390614c30565b90506000811180156126fc5750600083115b15611c3357600061270d8285614c6a565b6001600160a01b038616600090815260146020526040812054919250906127349083614cac565b6001600160a01b0387166000908152601460209081526040808320939093556018905220849055505050505050565b6004546001600160a01b031681565b600a54600160b01b900460ff1681565b6011602052600090815260409020546001600160e01b03811690600160e01b900463ffffffff1682565b60096020526000908152604090208054600182015460039092015460ff91821692911683565b600a546000906001600160a01b03163314806127f857506000546001600160a01b031633145b6128335760405162461bcd60e51b81526004018080602001828103825260278152602001806155036027913960400191505060405180910390fd5b6000546001600160a01b031633148061284e57506001821515145b612898576040805162461bcd60e51b81526020600482015260166024820152756f6e6c792061646d696e2063616e20756e706175736560501b604482015290519081900360640190fd5b600a8054831515600160b01b810260ff60b01b1990921691909117909155604080516020810192909252808252600882820152672a3930b739b332b960c11b6060830152517fef159d9a32b2472e32b098f954f3ce62d232939f1c207070b584df1814de2de09181900360800190a15090565b6001600160a01b038082166000908152600960209081526040808320938616835260029093019052205460ff1692915050565b60075481565b60176020526000908152604090205481565b73c00e94cb662c3520282e6f5717214004a7f2688890565b600080546001600160a01b0316331461298d57611dc460016012614b8b565b6001600160a01b03821660009081526009602052604090205460ff16156129ba57611dc4600a6011614b8b565b816001600160a01b031663fe9c44ae6040518163ffffffff1660e01b815260040160206040518083038186803b1580156129f357600080fd5b505afa158015612a07573d6000803e3d6000fd5b505050506040513d6020811015612a1d57600080fd5b5050604080516060810182526001808252600060208381018281528486018381526001600160a01b03891684526009909252949091209251835490151560ff19918216178455935191830191909155516003909101805491151591909216179055612a8782614ce2565b604080516001600160a01b038416815290517fcf583bb0c569eb967f806b11601c4cb93c10310485c67add5f8362c2f212321f9181900360200190a1600092915050565b6ec097ce7bc90715b34b9f100000000081565b600e5481565b60608060086000846001600160a01b03166001600160a01b03168152602001908152602001600020805480602002602001604051908101604052809291908181526020018280548015612b6057602002820191906000526020600020905b81546001600160a01b03168152600190910190602001808311612b42575b5093979650505050505050565b600a54600160b81b900460ff1681565b6060600d805480602002602001604051908101604052809291908181526020018280548015612bd557602002820191906000526020600020905b81546001600160a01b03168152600190910190602001808311612bb7575b5050505050905090565b601260209081526000928352604080842090915290825290205481565b6002546001600160a01b031681565b600a54600090600160b01b900460ff1615612c62576040805162461bcd60e51b81526020600482015260126024820152711d1c985b9cd9995c881a5cc81c185d5cd95960721b604482015290519081900360640190fd5b6000612c6f868685614dc0565b90508015612c7e5790506116cc565b612c878661472e565b612c9186866149ac565b6116c686856149ac565b60186020526000908152604090205481565b6060600082519050606081604051908082528060200260200182016040528015612ce1578160200160208202803883390190505b50905060005b82811015612d3c576000858281518110612cfd57fe5b60200260200101519050612d118133614e6c565b6011811115612d1c57fe5b838381518110612d2857fe5b602090810291909101015250600101612ce7565b509392505050565b600480546040805163fc57d4df60e01b81526001600160a01b038781169482019490945290516000938493849391169163fc57d4df91602480820192602092909190829003018186803b158015612d9a57600080fd5b505afa158015612dae573d6000803e3d6000fd5b505050506040513d6020811015612dc457600080fd5b5051600480546040805163fc57d4df60e01b81526001600160a01b038a8116948201949094529051939450600093929091169163fc57d4df91602480820192602092909190829003018186803b158015612e1d57600080fd5b505afa158015612e31573d6000803e3d6000fd5b505050506040513d6020811015612e4757600080fd5b50519050811580612e56575080155b15612e6b57600d935060009250612f64915050565b6000866001600160a01b031663182df0f56040518163ffffffff1660e01b815260040160206040518083038186803b158015612ea657600080fd5b505afa158015612eba573d6000803e3d6000fd5b505050506040513d6020811015612ed057600080fd5b505190506000612ede61541b565b612ee661541b565b612eee61541b565b612f16604051806020016040528060065481525060405180602001604052808a815250614f62565b9250612f3e604051806020016040528088815250604051806020016040528088815250614f62565b9150612f4a8383614fa1565b9050612f56818b614c11565b600099509750505050505050505b935093915050565b601360209081526000928352604080842090915290825290205481565b60146020526000908152604090205481565b600a54600090600160b81b900460ff1615612fef576040805162461bcd60e51b815260206004820152600f60248201526e1cd95a5e99481a5cc81c185d5cd959608a1b604482015290519081900360640190fd5b6001600160a01b03861660009081526009602052604090205460ff16158061303057506001600160a01b03851660009081526009602052604090205460ff16155b1561303c576009612117565b846001600160a01b0316635fe3b5676040518163ffffffff1660e01b815260040160206040518083038186803b15801561307557600080fd5b505afa158015613089573d6000803e3d6000fd5b505050506040513d602081101561309f57600080fd5b505160408051635fe3b56760e01b815290516001600160a01b0392831692891691635fe3b567916004808301926020929190829003018186803b1580156130e557600080fd5b505afa1580156130f9573d6000803e3d6000fd5b505050506040513d602081101561310f57600080fd5b50516001600160a01b031614613126576002612117565b61312f8661472e565b61313986846149ac565b61314386856149ac565b60009695505050505050565b6001600160a01b0383166000908152600c602052604081205460ff16156131b0576040805162461bcd60e51b815260206004820152601060248201526f189bdc9c9bddc81a5cc81c185d5cd95960821b604482015290519081900360640190fd5b6001600160a01b03841660009081526009602052604090205460ff166131d7576009611d81565b6001600160a01b038085166000908152600960209081526040808320938716835260029093019052205460ff166132c757336001600160a01b0385161461325d576040805162461bcd60e51b815260206004820152601560248201527439b2b73232b91036bab9ba1031329031aa37b5b2b760591b604482015290519081900360640190fd5b60006132693385614e6c565b9050600081601181111561327957fe5b146132925780601181111561328a57fe5b9150506119d5565b6001600160a01b038086166000908152600960209081526040808320938816835260029093019052205460ff166132c557fe5b505b600480546040805163fc57d4df60e01b81526001600160a01b03888116948201949094529051929091169163fc57d4df91602480820192602092909190829003018186803b15801561331857600080fd5b505afa15801561332c573d6000803e3d6000fd5b505050506040513d602081101561334257600080fd5b505161334f57600d611d81565b6001600160a01b038416600090815260166020526040902054801561343c576000856001600160a01b03166347bd37186040518163ffffffff1660e01b815260040160206040518083038186803b1580156133a957600080fd5b505afa1580156133bd573d6000803e3d6000fd5b505050506040513d60208110156133d357600080fd5b5051905060006133e38286614cac565b9050828110613439576040805162461bcd60e51b815260206004820152601960248201527f6d61726b657420626f72726f7720636170207265616368656400000000000000604482015290519081900360640190fd5b50505b60008061344c86886000886143f6565b9193509091506000905082601181111561346257fe5b1461347d5781601181111561347357fe5b93505050506119d5565b801561348a576004613473565b61349261541b565b6040518060200160405280896001600160a01b031663aa5af0fd6040518163ffffffff1660e01b815260040160206040518083038186803b1580156134d657600080fd5b505afa1580156134ea573d6000803e3d6000fd5b505050506040513d602081101561350057600080fd5b5051905290506135108882613af4565b61351b888883613d7c565b600098975050505050505050565b6008602052816000526040600020818154811061354257fe5b6000918252602090912001546001600160a01b03169150829050565b6003546001600160a01b031681565b600080546001600160a01b031633146135935761358c60016006614b8b565b905061141e565b6001600160a01b0383166000908152600960205260409020805460ff166135c8576135c060096007614b8b565b91505061141e565b6135d061541b565b5060408051602081019091528381526135e761541b565b506040805160208101909152670c7d713b49da000081526136088183614fdd565b156136235761361960066008614b8b565b935050505061141e565b84158015906136ac5750600480546040805163fc57d4df60e01b81526001600160a01b038a8116948201949094529051929091169163fc57d4df91602480820192602092909190829003018186803b15801561367e57600080fd5b505afa158015613692573d6000803e3d6000fd5b505050506040513d60208110156136a857600080fd5b5051155b156136bd57613619600d6009614b8b565b60018301805490869055604080516001600160a01b03891681526020810183905280820188905290517f70483e6592cd5182d45ac970e05bc62cdcc90e9d8ef2c2dbe686cf383bcd7fc59181900360600190a16000979650505050505050565b600a54600160a81b900460ff1681565b60055481565b6115e281600d80548060200260200160405190810160405280929190818152602001828054801561378d57602002820191906000526020600020905b81546001600160a01b0316815260019091019060200180831161376f575b5050505050611424565b6000806137a5858585614dc0565b905080156137b45790506119d5565b6137bd8561472e565b6137c785856149ac565b600095945050505050565b6000808290506000806000836001600160a01b031663c37f68e2336040518263ffffffff1660e01b815260040180826001600160a01b03166001600160a01b0316815260200191505060806040518083038186803b15801561383357600080fd5b505afa158015613847573d6000803e3d6000fd5b505050506040513d608081101561385d57600080fd5b5080516020820151604090920151909450909250905082156138b05760405162461bcd60e51b81526004018080602001828103825260258152602001806155856025913960400191505060405180910390fd5b80156138cd576138c2600c6002614b8b565b94505050505061192a565b60006138da873385614dc0565b905080156138fb576138ef600e600383614fe4565b9550505050505061192a565b6001600160a01b0385166000908152600960209081526040808320338452600281019092529091205460ff1661393a576000965050505050505061192a565b3360009081526002820160209081526040808320805460ff1916905560088252918290208054835181840281018401909452808452606093928301828280156139ac57602002820191906000526020600020905b81546001600160a01b0316815260019091019060200180831161398e575b5050835193945083925060009150505b82811015613a0157896001600160a01b03168482815181106139da57fe5b60200260200101516001600160a01b031614156139f957809150613a01565b6001016139bc565b50818110613a0b57fe5b336000908152600860205260409020805481906000198101908110613a2c57fe5b9060005260206000200160009054906101000a90046001600160a01b0316818381548110613a5657fe5b600091825260209091200180546001600160a01b0319166001600160a01b03929092169190911790558054613a8f82600019830161542e565b50604080516001600160a01b038c16815233602082015281517fe699a64c18b07ac5b7301aa273f36a2287239eb9501d81950672794afba29a0d929181900390910190a160009c9b505050505050505050505050565b6000546001600160a01b031681565b6001600160a01b0382166000908152601160209081526040808320600f9092528220549091613b21611c39565b8354909150600090613b41908390600160e01b900463ffffffff16614c30565b9050600081118015613b535750600083115b15613d22576000613bc8876001600160a01b03166347bd37186040518163ffffffff1660e01b815260040160206040518083038186803b158015613b9657600080fd5b505afa158015613baa573d6000803e3d6000fd5b505050506040513d6020811015613bc057600080fd5b50518761504a565b90506000613bd68386614c6a565b9050613be061541b565b60008311613bfd5760405180602001604052806000815250613c07565b613c078284615068565b9050613c1161541b565b604080516020810190915288546001600160e01b03168152613c33908361509d565b90506040518060400160405280613c8383600001516040518060400160405280601a81526020017f6e657720696e64657820657863656564732032323420626974730000000000008152506150c2565b6001600160e01b03168152602001613cbe886040518060400160405280601c81526020016000805160206155aa83398151915281525061515c565b63ffffffff9081169091526001600160a01b038c166000908152601160209081526040909120835181549490920151909216600160e01b026001600160e01b039182166001600160e01b0319909416939093171691909117905550611ca592505050565b8015611ca557613d55826040518060400160405280601c81526020016000805160206155aa83398151915281525061515c565b845463ffffffff91909116600160e01b026001600160e01b03909116178455505050505050565b6001600160a01b0383166000908152601160205260409020613d9c61541b565b50604080516020810190915281546001600160e01b03168152613dbd61541b565b5060408051602080820183526001600160a01b0380891660009081526013835284812091891680825282845294812080548552865195909152915291909155805115611ca557613e0b61541b565b613e1583836151b1565b90506000613e72886001600160a01b03166395dd9193896040518263ffffffff1660e01b815260040180826001600160a01b03166001600160a01b0316815260200191505060206040518083038186803b158015613b9657600080fd5b90506000613e8082846151d6565b6001600160a01b03891660009081526014602052604081205491925090613ea79083614cac565b6001600160a01b03808b166000818152601460209081526040918290208590558a5182518881529182015281519495509193928e16927f1fc3ecc087d8d2d15e23d0032af5a47059c3892d003d8e139fdcb6bb327c99a69281900390910190a350505050505050505050565b600080546001600160a01b0316331480613f3757506002546001600160a01b031633145b905090565b600080613f47612956565b604080516370a0823160e01b815230600482015290519192506000916001600160a01b038416916370a08231916024808301926020929190829003018186803b158015613f9357600080fd5b505afa158015613fa7573d6000803e3d6000fd5b505050506040513d6020811015613fbd57600080fd5b505190508315801590613fd05750808411155b1561406d57816001600160a01b031663a9059cbb86866040518363ffffffff1660e01b815260040180836001600160a01b03166001600160a01b0316815260200182815260200192505050602060405180830381600087803b15801561403557600080fd5b505af1158015614049573d6000803e3d6000fd5b505050506040513d602081101561405f57600080fd5b506000935061141e92505050565b50919392505050565b6001600160a01b0382166000908152600f6020526040902054801561412a5761409d61541b565b6040518060200160405280856001600160a01b031663aa5af0fd6040518163ffffffff1660e01b815260040160206040518083038186803b1580156140e157600080fd5b505afa1580156140f5573d6000803e3d6000fd5b505050506040513d602081101561410b57600080fd5b50519052905061411a8461472e565b6141248482613af4565b5061439a565b811561439a576001600160a01b0383166000908152600960205260409020805460ff1615156001146141a3576040805162461bcd60e51b815260206004820152601960248201527f636f6d70206d61726b6574206973206e6f74206c697374656400000000000000604482015290519081900360640190fd5b6001600160a01b0384166000908152601060205260409020546001600160e01b03161580156141f557506001600160a01b038416600090815260106020526040902054600160e01b900463ffffffff16155b156142b25760405180604001604052806ec097ce7bc90715b34b9f10000000006001600160e01b0316815260200161425761422e611c39565b6040518060400160405280601c81526020016000805160206155aa83398151915281525061515c565b63ffffffff9081169091526001600160a01b0386166000908152601060209081526040909120835181549490920151909216600160e01b026001600160e01b039182166001600160e01b031990941693909317169190911790555b6001600160a01b0384166000908152601160205260409020546001600160e01b031615801561430457506001600160a01b038416600090815260116020526040902054600160e01b900463ffffffff16155b156143985760405180604001604052806ec097ce7bc90715b34b9f10000000006001600160e01b0316815260200161433d61422e611c39565b63ffffffff9081169091526001600160a01b0386166000908152601160209081526040909120835181549490920151909216600160e01b026001600160e01b039182166001600160e01b031990941693909317169190911790555b505b818114611481576001600160a01b0383166000818152600f6020908152604091829020859055815185815291517f2ab93f65628379309f36cb125e90d7c902454a545c4f8b8cb0794af75c24b8079281900390910190a2505050565b6000806000614403615452565b6001600160a01b0388166000908152600860209081526040808320805482518185028101850190935280835260609383018282801561446b57602002820191906000526020600020905b81546001600160a01b0316815260019091019060200180831161444d575b50939450600093505050505b81518110156146ef57600082828151811061448e57fe5b60200260200101519050806001600160a01b031663c37f68e28d6040518263ffffffff1660e01b815260040180826001600160a01b03166001600160a01b0316815260200191505060806040518083038186803b1580156144ee57600080fd5b505afa158015614502573d6000803e3d6000fd5b505050506040513d608081101561451857600080fd5b508051602082015160408084015160609485015160808b015293890193909352918701919091529350831561455d5750600f965060009550859450611cf59350505050565b60408051602080820183526001600160a01b0380851660008181526009845285902060010154845260c08a01939093528351808301855260808a0151815260e08a015260048054855163fc57d4df60e01b815291820194909452935192169263fc57d4df9260248083019392829003018186803b1580156145dd57600080fd5b505afa1580156145f1573d6000803e3d6000fd5b505050506040513d602081101561460757600080fd5b505160a0860181905261462a5750600d965060009550859450611cf59350505050565b604080516020810190915260a0860151815261010086015260c085015160e08601516146649161465991614f62565b866101000151614f62565b61012086018190526040860151865161467e929190615205565b85526101008501516060860151602087015161469b929190615205565b60208601526001600160a01b03818116908c1614156146e6576146c88561012001518b8760200151615205565b602086018190526101008601516146e0918b90615205565b60208601525b50600101614477565b506020830151835111156147155750506020810151905160009450039150829050611cf5565b5050805160209091015160009450849350039050611cf5565b6001600160a01b0381166000908152601060209081526040808320600f909252822054909161475b611c39565b835490915060009061477b908390600160e01b900463ffffffff16614c30565b905060008111801561478d5750600083115b15614953576000856001600160a01b03166318160ddd6040518163ffffffff1660e01b815260040160206040518083038186803b1580156147cd57600080fd5b505afa1580156147e1573d6000803e3d6000fd5b505050506040513d60208110156147f757600080fd5b5051905060006148078386614c6a565b905061481161541b565b6000831161482e5760405180602001604052806000815250614838565b6148388284615068565b905061484261541b565b604080516020810190915288546001600160e01b03168152614864908361509d565b905060405180604001604052806148b483600001516040518060400160405280601a81526020017f6e657720696e64657820657863656564732032323420626974730000000000008152506150c2565b6001600160e01b031681526020016148ef886040518060400160405280601c81526020016000805160206155aa83398151915281525061515c565b63ffffffff9081169091526001600160a01b038b166000908152601060209081526040909120835181549490920151909216600160e01b026001600160e01b039182166001600160e01b03199094169390931716919091179055506115f792505050565b80156115f757614986826040518060400160405280601c81526020016000805160206155aa83398151915281525061515c565b845463ffffffff91909116600160e01b026001600160e01b039091161784555050505050565b6001600160a01b03821660009081526010602052604090206149cc61541b565b50604080516020810190915281546001600160e01b031681526149ed61541b565b5060408051602080820183526001600160a01b03808816600090815260128352848120918816808252828452948120805485528651959091529152919091558051158015614a3b5750815115155b15614a53576ec097ce7bc90715b34b9f100000000081525b614a5b61541b565b614a6583836151b1565b90506000866001600160a01b03166370a08231876040518263ffffffff1660e01b815260040180826001600160a01b03166001600160a01b0316815260200191505060206040518083038186803b158015614abf57600080fd5b505afa158015614ad3573d6000803e3d6000fd5b505050506040513d6020811015614ae957600080fd5b505190506000614af982846151d6565b6001600160a01b03881660009081526014602052604081205491925090614b209083614cac565b6001600160a01b03808a166000818152601460209081526040918290208590558a5182518881529182015281519495509193928d16927f2caecd17d02f56fa897705dcc740da2d237c373f70686f4e0d9bd3bf0400ea7a9281900390910190a3505050505050505050565b60007f45b96fe442630264581b197e84bbada861235052c5a1aadfff9ea4e40a969aa0836011811115614bba57fe5b836013811115614bc657fe5b604080519283526020830191909152600082820152519081900360600190a18260118111156119d557fe5b6000806000614c048460008060006143f6565b9250925092509193909250565b6000614c1b61541b565b614c25848461522d565b90506116cc8161524e565b60006119d58383604051806040016040528060158152602001747375627472616374696f6e20756e646572666c6f7760581b81525061525d565b60006119d583836040518060400160405280601781526020017f6d756c7469706c69636174696f6e206f766572666c6f770000000000000000008152506152b7565b60006119d58383604051806040016040528060118152602001706164646974696f6e206f766572666c6f7760781b815250615336565b60005b600d54811015614d6d57816001600160a01b0316600d8281548110614d0657fe5b6000918252602090912001546001600160a01b03161415614d65576040805162461bcd60e51b81526020600482015260146024820152731b585c9ad95d08185b1c9958591e48185919195960621b604482015290519081900360640190fd5b600101614ce5565b50600d80546001810182556000919091527fd7b6990105719101dabeb77144f2a3385c8033acd3af97e9423a695e81ad1eb50180546001600160a01b0319166001600160a01b0392909216919091179055565b6001600160a01b03831660009081526009602052604081205460ff16614de7576009611d81565b6001600160a01b038085166000908152600960209081526040808320938716835260029093019052205460ff16614e1f576000611d81565b600080614e2f85878660006143f6565b91935090915060009050826011811115614e4557fe5b14614e5f57816011811115614e5657fe5b925050506119d5565b8015613143576004614e56565b6001600160a01b0382166000908152600960205260408120805460ff16614e9757600991505061141e565b6001600160a01b038316600090815260028201602052604090205460ff16151560011415614ec957600091505061141e565b6001600160a01b0380841660008181526002840160209081526040808320805460ff19166001908117909155600883528184208054918201815584529282902090920180549489166001600160a01b031990951685179055815193845283019190915280517f3ab23ab0d51cccc0c3085aec51f99228625aa1a922b3a8ca89a26b0f2027a1a59281900390910190a15060009392505050565b614f6a61541b565b6040518060200160405280670de0b6b3a7640000614f9086600001518660000151614c6a565b81614f9757fe5b0490529392505050565b614fa961541b565b6040518060200160405280614fd4614fcd8660000151670de0b6b3a7640000614c6a565b855161538b565b90529392505050565b5190511090565b60007f45b96fe442630264581b197e84bbada861235052c5a1aadfff9ea4e40a969aa084601181111561501357fe5b84601381111561501f57fe5b604080519283526020830191909152818101859052519081900360600190a18360118111156116cc57fe5b60006119d561506184670de0b6b3a7640000614c6a565b835161538b565b61507061541b565b6040518060200160405280614fd4615097866ec097ce7bc90715b34b9f1000000000614c6a565b8561538b565b6150a561541b565b6040518060200160405280614fd485600001518560000151614cac565b600081600160e01b84106151545760405162461bcd60e51b81526004018080602001828103825283818151815260200191508051906020019080838360005b83811015615119578181015183820152602001615101565b50505050905090810190601f1680156151465780820380516001836020036101000a031916815260200191505b509250505060405180910390fd5b509192915050565b600081600160201b84106151545760405162461bcd60e51b8152602060048201818152835160248401528351909283926044909101919085019080838360008315615119578181015183820152602001615101565b6151b961541b565b6040518060200160405280614fd485600001518560000151614c30565b60006ec097ce7bc90715b34b9f10000000006151f6848460000151614c6a565b816151fd57fe5b049392505050565b600061520f61541b565b615219858561522d565b905061222a6152278261524e565b84614cac565b61523561541b565b6040518060200160405280614fd4856000015185614c6a565b51670de0b6b3a7640000900490565b600081848411156152af5760405162461bcd60e51b8152602060048201818152835160248401528351909283926044909101919085019080838360008315615119578181015183820152602001615101565b505050900390565b60008315806152c4575082155b156152d1575060006119d5565b838302838582816152de57fe5b0414839061532d5760405162461bcd60e51b8152602060048201818152835160248401528351909283926044909101919085019080838360008315615119578181015183820152602001615101565b50949350505050565b6000838301828582101561532d5760405162461bcd60e51b8152602060048201818152835160248401528351909283926044909101919085019080838360008315615119578181015183820152602001615101565b60006119d583836040518060400160405280600e81526020016d646976696465206279207a65726f60901b815250600081836154085760405162461bcd60e51b8152602060048201818152835160248401528351909283926044909101919085019080838360008315615119578181015183820152602001615101565b5082848161541257fe5b04949350505050565b6040518060200160405280600081525090565b815481835581811115611481576000838152602090206114819181019083016154bc565b60405180610140016040528060008152602001600081526020016000815260200160008152602001600081526020016000815260200161549061541b565b815260200161549d61541b565b81526020016154aa61541b565b81526020016154b761541b565b905290565b611c3b91905b808211156154d657600081556001016154c2565b509056fe63616e6e6f742070617573652061206d61726b65742074686174206973206e6f74206c69737465646f6e6c7920706175736520677561726469616e20616e642061646d696e2063616e2070617573656f6e6c792061646d696e2063616e2073657420626f72726f772063617020677561726469616e6f6e6c792061646d696e206f7220626f72726f772063617020677561726469616e2063616e2073657420626f72726f772063617073657869744d61726b65743a206765744163636f756e74536e617073686f74206661696c6564626c6f636b206e756d62657220657863656564732033322062697473000000006f6e6c7920756e6974726f6c6c65722061646d696e2063616e206368616e676520627261696e73a265627a7a7231582022dacd065b4277e04d6ab169b894f2bbbd261ae43bfeffcdae06b1cf5d18b3d764736f6c63430005100032",
  "linkReferences": {},
  "deployedLinkReferences": {}
}