{
  "_format": "hh-sol-artifact-1",
  "contractName": "LEMD",
  "sourceName": "contracts/Token/LEMD.sol",
  "abi": [
    {
      "constant": true,
      "inputs": [],
      "name": "name",
      "outputs": [
        {
          "name": "",
          "type": "string"
        }
      ],
      "payable": false,
      "stateMutability": "view",
      "type": "function"
    },
    {
      "constant": false,
      "inputs": [
        {
          "name": "spender",
          "type": "address"
        },
        {
          "name": "amount",
          "type": "uint256"
        }
      ],
      "name": "approve",
      "outputs": [
        {
          "name": "",
          "type": "bool"
        }
      ],
      "payable": false,
      "stateMutability": "nonpayable",
      "type": "function"
    },
    {
      "constant": true,
      "inputs": [],
      "name": "totalSupply",
      "outputs": [
        {
          "name": "",
          "type": "uint256"
        }
      ],
      "payable": false,
      "stateMutability": "view",
      "type": "function"
    },
    {
      "constant": false,
      "inputs": [
        {
          "name": "sender",
          "type": "address"
        },
        {
          "name": "recipient",
          "type": "address"
        },
        {
          "name": "amount",
          "type": "uint256"
        }
      ],
      "name": "transferFrom",
      "outputs": [
        {
          "name": "",
          "type": "bool"
        }
      ],
      "payable": false,
      "stateMutability": "nonpayable",
      "type": "function"
    },
    {
      "constant": true,
      "inputs": [],
      "name": "pendingGov",
      "outputs": [
        {
          "name": "",
          "type": "address"
        }
      ],
      "payable": false,
      "stateMutability": "view",
      "type": "function"
    },
    {
      "constant": false,
      "inputs": [
        {
          "name": "_minter",
          "type": "address"
        }
      ],
      "name": "removeMinter",
      "outputs": [],
      "payable": false,
      "stateMutability": "nonpayable",
      "type": "function"
    },
    {
      "constant": true,
      "inputs": [],
      "name": "decimals",
      "outputs": [
        {
          "name": "",
          "type": "uint8"
        }
      ],
      "payable": false,
      "stateMutability": "view",
      "type": "function"
    },
    {
      "constant": false,
      "inputs": [
        {
          "name": "spender",
          "type": "address"
        },
        {
          "name": "addedValue",
          "type": "uint256"
        }
      ],
      "name": "increaseAllowance",
      "outputs": [
        {
          "name": "",
          "type": "bool"
        }
      ],
      "payable": false,
      "stateMutability": "nonpayable",
      "type": "function"
    },
    {
      "constant": false,
      "inputs": [
        {
          "name": "_account",
          "type": "address"
        },
        {
          "name": "_amount",
          "type": "uint256"
        }
      ],
      "name": "mint",
      "outputs": [],
      "payable": false,
      "stateMutability": "nonpayable",
      "type": "function"
    },
    {
      "constant": true,
      "inputs": [],
      "name": "governance",
      "outputs": [
        {
          "name": "",
          "type": "address"
        }
      ],
      "payable": false,
      "stateMutability": "view",
      "type": "function"
    },
    {
      "constant": true,
      "inputs": [
        {
          "name": "account",
          "type": "address"
        }
      ],
      "name": "balanceOf",
      "outputs": [
        {
          "name": "",
          "type": "uint256"
        }
      ],
      "payable": false,
      "stateMutability": "view",
      "type": "function"
    },
    {
      "constant": false,
      "inputs": [],
      "name": "acceptGov",
      "outputs": [],
      "payable": false,
      "stateMutability": "nonpayable",
      "type": "function"
    },
    {
      "constant": true,
      "inputs": [],
      "name": "symbol",
      "outputs": [
        {
          "name": "",
          "type": "string"
        }
      ],
      "payable": false,
      "stateMutability": "view",
      "type": "function"
    },
    {
      "constant": false,
      "inputs": [
        {
          "name": "_minter",
          "type": "address"
        }
      ],
      "name": "addMinter",
      "outputs": [],
      "payable": false,
      "stateMutability": "nonpayable",
      "type": "function"
    },
    {
      "constant": false,
      "inputs": [
        {
          "name": "spender",
          "type": "address"
        },
        {
          "name": "subtractedValue",
          "type": "uint256"
        }
      ],
      "name": "decreaseAllowance",
      "outputs": [
        {
          "name": "",
          "type": "bool"
        }
      ],
      "payable": false,
      "stateMutability": "nonpayable",
      "type": "function"
    },
    {
      "constant": false,
      "inputs": [
        {
          "name": "recipient",
          "type": "address"
        },
        {
          "name": "amount",
          "type": "uint256"
        }
      ],
      "name": "transfer",
      "outputs": [
        {
          "name": "",
          "type": "bool"
        }
      ],
      "payable": false,
      "stateMutability": "nonpayable",
      "type": "function"
    },
    {
      "constant": true,
      "inputs": [
        {
          "name": "owner",
          "type": "address"
        },
        {
          "name": "spender",
          "type": "address"
        }
      ],
      "name": "allowance",
      "outputs": [
        {
          "name": "",
          "type": "uint256"
        }
      ],
      "payable": false,
      "stateMutability": "view",
      "type": "function"
    },
    {
      "constant": false,
      "inputs": [
        {
          "name": "_pendingGov",
          "type": "address"
        }
      ],
      "name": "setPendingGov",
      "outputs": [],
      "payable": false,
      "stateMutability": "nonpayable",
      "type": "function"
    },
    {
      "constant": true,
      "inputs": [
        {
          "name": "",
          "type": "address"
        }
      ],
      "name": "minters",
      "outputs": [
        {
          "name": "",
          "type": "bool"
        }
      ],
      "payable": false,
      "stateMutability": "view",
      "type": "function"
    },
    {
      "inputs": [],
      "payable": false,
      "stateMutability": "nonpayable",
      "type": "constructor"
    },
    {
      "anonymous": false,
      "inputs": [
        {
          "indexed": false,
          "name": "oldPendingGov",
          "type": "address"
        },
        {
          "indexed": false,
          "name": "newPendingGov",
          "type": "address"
        }
      ],
      "name": "NewPendingGov",
      "type": "event"
    },
    {
      "anonymous": false,
      "inputs": [
        {
          "indexed": false,
          "name": "oldGov",
          "type": "address"
        },
        {
          "indexed": false,
          "name": "newGov",
          "type": "address"
        }
      ],
      "name": "NewGov",
      "type": "event"
    },
    {
      "anonymous": false,
      "inputs": [
        {
          "indexed": true,
          "name": "from",
          "type": "address"
        },
        {
          "indexed": true,
          "name": "to",
          "type": "address"
        },
        {
          "indexed": false,
          "name": "value",
          "type": "uint256"
        }
      ],
      "name": "Transfer",
      "type": "event"
    },
    {
      "anonymous": false,
      "inputs": [
        {
          "indexed": true,
          "name": "owner",
          "type": "address"
        },
        {
          "indexed": true,
          "name": "spender",
          "type": "address"
        },
        {
          "indexed": false,
          "name": "value",
          "type": "uint256"
        }
      ],
      "name": "Approval",
      "type": "event"
    }
  ],
  "bytecode": "0x608060405234801561001057600080fd5b50604080518082018252600c81527f6c656d6f6e642e6d6f6e6579000000000000000000000000000000000000000060208083019182528351808501909452600484527f4c454d440000000000000000000000000000000000000000000000000000000090840152815191929160129161008d91600391906100cf565b5081516100a19060049060208501906100cf565b506005805460ff191660ff9290921691909117610100600160a81b03191661010032021790555061016a9050565b828054600181600116156101000203166002900490600052602060002090601f016020900481019282601f1061011057805160ff191683800117855561013d565b8280016001018555821561013d579182015b8281111561013d578251825591602001919060010190610122565b5061014992915061014d565b5090565b61016791905b808211156101495760008155600101610153565b90565b611009806200017a6000396000f3fe608060405234801561001057600080fd5b50600436106101215760003560e01c80635aa6e675116100ad578063a457c2d711610071578063a457c2d714610359578063a9059cbb14610385578063dd62ed3e146103b1578063efdf0bb0146103df578063f46eccc41461040557610121565b80635aa6e675146102f557806370a08231146102fd5780637bc6729b1461032357806395d89b411461032b578063983b2d561461033357610121565b806325240810116100f457806325240810146102335780633092afd514610257578063313ce5671461027f578063395093511461029d57806340c10f19146102c957610121565b806306fdde0314610126578063095ea7b3146101a357806318160ddd146101e357806323b872dd146101fd575b600080fd5b61012e61042b565b6040805160208082528351818301528351919283929083019185019080838360005b83811015610168578181015183820152602001610150565b50505050905090810190601f1680156101955780820380516001836020036101000a031916815260200191505b509250505060405180910390f35b6101cf600480360360408110156101b957600080fd5b506001600160a01b0381351690602001356104c1565b604080519115158252519081900360200190f35b6101eb6104de565b60408051918252519081900360200190f35b6101cf6004803603606081101561021357600080fd5b506001600160a01b038135811691602081013590911690604001356104e4565b61023b610571565b604080516001600160a01b039092168252519081900360200190f35b61027d6004803603602081101561026d57600080fd5b50356001600160a01b0316610580565b005b610287610608565b6040805160ff9092168252519081900360200190f35b6101cf600480360360408110156102b357600080fd5b506001600160a01b038135169060200135610611565b61027d600480360360408110156102df57600080fd5b506001600160a01b038135169060200135610665565b61023b6106da565b6101eb6004803603602081101561031357600080fd5b50356001600160a01b03166106ee565b61027d610709565b61012e6107d6565b61027d6004803603602081101561034957600080fd5b50356001600160a01b0316610837565b6101cf6004803603604081101561036f57600080fd5b506001600160a01b0381351690602001356108c2565b6101cf6004803603604081101561039b57600080fd5b506001600160a01b038135169060200135610930565b6101eb600480360360408110156103c757600080fd5b506001600160a01b0381358116916020013516610944565b61027d600480360360208110156103f557600080fd5b50356001600160a01b031661096f565b6101cf6004803603602081101561041b57600080fd5b50356001600160a01b0316610a39565b60038054604080516020601f60026000196101006001881615020190951694909404938401819004810282018101909252828152606093909290918301828280156104b75780601f1061048c576101008083540402835291602001916104b7565b820191906000526020600020905b81548152906001019060200180831161049a57829003601f168201915b5050505050905090565b60006104d56104ce610a4e565b8484610a52565b50600192915050565b60025490565b60006104f1848484610b44565b610567846104fd610a4e565b61056285604051806060016040528060288152602001610f48602891396001600160a01b038a1660009081526001602052604081209061053b610a4e565b6001600160a01b03168152602081019190915260400160002054919063ffffffff610cb116565b610a52565b5060019392505050565b6006546001600160a01b031681565b60055461010090046001600160a01b031633146105e75760408051600160e51b62461bcd02815260206004820152601a60248201527f596f7520617265206e6f742074686520676f7665726e616e6365000000000000604482015290519081900360640190fd5b6001600160a01b03166000908152600760205260409020805460ff19169055565b60055460ff1690565b60006104d561061e610a4e565b84610562856001600061062f610a4e565b6001600160a01b03908116825260208083019390935260409182016000908120918c16815292529020549063ffffffff610d4b16565b3360009081526007602052604090205460ff166106cc5760408051600160e51b62461bcd02815260206004820152601660248201527f596f7520617265206e6f7420746865206d696e74657200000000000000000000604482015290519081900360640190fd5b6106d68282610daf565b5050565b60055461010090046001600160a01b031681565b6001600160a01b031660009081526020819052604090205490565b6006546001600160a01b0316331461075557604051600160e51b62461bcd028152600401808060200182810382526022815260200180610ede6022913960400191505060405180910390fd5b60058054600680546001600160a01b03818116610100908102610100600160a81b0319861617958690556001600160a01b031990921690925560408051938290048316808552919094049091166020830152825190927f1f14cfc03e486d23acee577b07bc0b3b23f4888c91fcdba5e0fef5a2549d5523928290030190a150565b60048054604080516020601f60026000196101006001881615020190951694909404938401819004810282018101909252828152606093909290918301828280156104b75780601f1061048c576101008083540402835291602001916104b7565b60055461010090046001600160a01b0316331461089e5760408051600160e51b62461bcd02815260206004820152601a60248201527f596f7520617265206e6f742074686520676f7665726e616e6365000000000000604482015290519081900360640190fd5b6001600160a01b03166000908152600760205260409020805460ff19166001179055565b60006104d56108cf610a4e565b8461056285604051806060016040528060258152602001610fb960259139600160006108f9610a4e565b6001600160a01b03908116825260208083019390935260409182016000908120918d1681529252902054919063ffffffff610cb116565b60006104d561093d610a4e565b8484610b44565b6001600160a01b03918216600090815260016020908152604080832093909416825291909152205490565b60055461010090046001600160a01b031633146109d65760408051600160e51b62461bcd02815260206004820152601a60248201527f596f7520617265206e6f742074686520676f7665726e616e6365000000000000604482015290519081900360640190fd5b600680546001600160a01b038381166001600160a01b0319831681179093556040805191909216808252602082019390935281517f6163d5b9efd962645dd649e6e48a61bcb0f9df00997a2398b80d135a9ab0c61e929181900390910190a15050565b60076020526000908152604090205460ff1681565b3390565b6001600160a01b038316610a9a57604051600160e51b62461bcd028152600401808060200182810382526024815260200180610f956024913960400191505060405180910390fd5b6001600160a01b038216610ae257604051600160e51b62461bcd028152600401808060200182810382526022815260200180610f006022913960400191505060405180910390fd5b6001600160a01b03808416600081815260016020908152604080832094871680845294825291829020859055815185815291517f8c5be1e5ebec7d5bd14f71427d1e84f3dd0314c0f7b2291e5b200ac8c7c3b9259281900390910190a3505050565b6001600160a01b038316610b8c57604051600160e51b62461bcd028152600401808060200182810382526025815260200180610f706025913960400191505060405180910390fd5b6001600160a01b038216610bd457604051600160e51b62461bcd028152600401808060200182810382526023815260200180610ebb6023913960400191505060405180910390fd5b610bdf838383610eae565b610c2281604051806060016040528060268152602001610f22602691396001600160a01b038616600090815260208190526040902054919063ffffffff610cb116565b6001600160a01b038085166000908152602081905260408082209390935590841681522054610c57908263ffffffff610d4b16565b6001600160a01b038084166000818152602081815260409182902094909455805185815290519193928716927fddf252ad1be2c89b69c2b068fc378daa952ba7f163c4a11628f55a4df523b3ef92918290030190a3505050565b60008184841115610d4357604051600160e51b62461bcd0281526004018080602001828103825283818151815260200191508051906020019080838360005b83811015610d08578181015183820152602001610cf0565b50505050905090810190601f168015610d355780820380516001836020036101000a031916815260200191505b509250505060405180910390fd5b505050900390565b600082820183811015610da85760408051600160e51b62461bcd02815260206004820152601b60248201527f536166654d6174683a206164646974696f6e206f766572666c6f770000000000604482015290519081900360640190fd5b9392505050565b6001600160a01b038216610e0d5760408051600160e51b62461bcd02815260206004820152601f60248201527f45524332303a206d696e7420746f20746865207a65726f206164647265737300604482015290519081900360640190fd5b610e1960008383610eae565b600254610e2c908263ffffffff610d4b16565b6002556001600160a01b038216600090815260208190526040902054610e58908263ffffffff610d4b16565b6001600160a01b0383166000818152602081815260408083209490945583518581529351929391927fddf252ad1be2c89b69c2b068fc378daa952ba7f163c4a11628f55a4df523b3ef9281900390910190a35050565b610eb58383835b50505056fe45524332303a207472616e7366657220746f20746865207a65726f2061646472657373596f7520617265206e6f74207468652070656e64696e6720676f7665726e616e636545524332303a20617070726f766520746f20746865207a65726f206164647265737345524332303a207472616e7366657220616d6f756e7420657863656564732062616c616e636545524332303a207472616e7366657220616d6f756e74206578636565647320616c6c6f77616e636545524332303a207472616e736665722066726f6d20746865207a65726f206164647265737345524332303a20617070726f76652066726f6d20746865207a65726f206164647265737345524332303a2064656372656173656420616c6c6f77616e63652062656c6f77207a65726fa165627a7a723058205bf64f86f3509c48e5154f635dc05f139223298e9e9ef204d7b24eb4727602460029",
  "linkReferences": {},
  "deployedLinkReferences": {}
}