{
  "_format": "hh-sol-artifact-1",
  "contractName": "ComptrollerStorage",
  "sourceName": "contracts/Lend/comptroller/ComptrollerStorage.sol",
  "abi": [
    {
      "inputs": [],
      "name": "_borrowGuardianPaused",
      "outputs": [
        {
          "internalType": "bool",
          "name": "",
          "type": "bool"
        }
      ],
      "stateMutability": "view",
      "type": "function"
    },
    {
      "inputs": [],
      "name": "_mintGuardianPaused",
      "outputs": [
        {
          "internalType": "bool",
          "name": "",
          "type": "bool"
        }
      ],
      "stateMutability": "view",
      "type": "function"
    },
    {
      "inputs": [
        {
          "internalType": "address",
          "name": "",
          "type": "address"
        },
        {
          "internalType": "uint256",
          "name": "",
          "type": "uint256"
        }
      ],
      "name": "accountAssets",
      "outputs": [
        {
          "internalType": "contract LToken",
          "name": "",
          "type": "address"
        }
      ],
      "stateMutability": "view",
      "type": "function"
    },
    {
      "inputs": [
        {
          "internalType": "uint256",
          "name": "",
          "type": "uint256"
        }
      ],
      "name": "allMarkets",
      "outputs": [
        {
          "internalType": "contract LToken",
          "name": "",
          "type": "address"
        }
      ],
      "stateMutability": "view",
      "type": "function"
    },
    {
      "inputs": [],
      "name": "borrowCapGuardian",
      "outputs": [
        {
          "internalType": "address",
          "name": "",
          "type": "address"
        }
      ],
      "stateMutability": "view",
      "type": "function"
    },
    {
      "inputs": [
        {
          "internalType": "address",
          "name": "",
          "type": "address"
        }
      ],
      "name": "borrowCaps",
      "outputs": [
        {
          "internalType": "uint256",
          "name": "",
          "type": "uint256"
        }
      ],
      "stateMutability": "view",
      "type": "function"
    },
    {
      "inputs": [],
      "name": "closeFactorMantissa",
      "outputs": [
        {
          "internalType": "uint256",
          "name": "",
          "type": "uint256"
        }
      ],
      "stateMutability": "view",
      "type": "function"
    },
    {
      "inputs": [],
      "name": "distributeLemdPaused",
      "outputs": [
        {
          "internalType": "bool",
          "name": "",
          "type": "bool"
        }
      ],
      "stateMutability": "view",
      "type": "function"
    },
    {
      "inputs": [
        {
          "internalType": "address",
          "name": "",
          "type": "address"
        }
      ],
      "name": "lTokenBorrowGuardianPaused",
      "outputs": [
        {
          "internalType": "bool",
          "name": "",
          "type": "bool"
        }
      ],
      "stateMutability": "view",
      "type": "function"
    },
    {
      "inputs": [
        {
          "internalType": "address",
          "name": "",
          "type": "address"
        }
      ],
      "name": "lTokenMintGuardianPaused",
      "outputs": [
        {
          "internalType": "bool",
          "name": "",
          "type": "bool"
        }
      ],
      "stateMutability": "view",
      "type": "function"
    },
    {
      "inputs": [],
      "name": "liquidationIncentiveMantissa",
      "outputs": [
        {
          "internalType": "uint256",
          "name": "",
          "type": "uint256"
        }
      ],
      "stateMutability": "view",
      "type": "function"
    },
    {
      "inputs": [
        {
          "internalType": "address",
          "name": "",
          "type": "address"
        }
      ],
      "name": "markets",
      "outputs": [
        {
          "internalType": "bool",
          "name": "isListed",
          "type": "bool"
        },
        {
          "internalType": "uint256",
          "name": "collateralFactorMantissa",
          "type": "uint256"
        },
        {
          "internalType": "bool",
          "name": "isMinted",
          "type": "bool"
        }
      ],
      "stateMutability": "view",
      "type": "function"
    },
    {
      "inputs": [],
      "name": "maxAssets",
      "outputs": [
        {
          "internalType": "uint256",
          "name": "",
          "type": "uint256"
        }
      ],
      "stateMutability": "view",
      "type": "function"
    },
    {
      "inputs": [],
      "name": "oracle",
      "outputs": [
        {
          "internalType": "contract IPriceOracle",
          "name": "",
          "type": "address"
        }
      ],
      "stateMutability": "view",
      "type": "function"
    },
    {
      "inputs": [],
      "name": "pauseGuardian",
      "outputs": [
        {
          "internalType": "address",
          "name": "",
          "type": "address"
        }
      ],
      "stateMutability": "view",
      "type": "function"
    },
    {
      "inputs": [],
      "name": "seizeGuardianPaused",
      "outputs": [
        {
          "internalType": "bool",
          "name": "",
          "type": "bool"
        }
      ],
      "stateMutability": "view",
      "type": "function"
    },
    {
      "inputs": [],
      "name": "transferGuardianPaused",
      "outputs": [
        {
          "internalType": "bool",
          "name": "",
          "type": "bool"
        }
      ],
      "stateMutability": "view",
      "type": "function"
    }
  ],
  "bytecode": "0x608060405234801561001057600080fd5b5061042e806100206000396000f3fe608060405234801561001057600080fd5b506004361061010b5760003560e01c80637f4f61cc116100a2578063ac0b0bb711610071578063ac0b0bb714610261578063b937a8fd14610269578063dce1544914610271578063e6653f3d1461029d578063e8755446146102a55761010b565b80637f4f61cc146101e357806387f76303146102095780638e8f294b1461021157806394b2294b146102595761010b565b80634a584432116100de5780634a5844321461017e5780634ada90af146101b657806352d84d1e146101be5780637dc0d1d0146101db5761010b565b806321af45691461011057806324a3d622146101345780632ef702021461013c5780633c94786f14610176575b600080fd5b6101186102ad565b604080516001600160a01b039092168252519081900360200190f35b6101186102c1565b6101626004803603602081101561015257600080fd5b50356001600160a01b03166102d0565b604080519115158252519081900360200190f35b6101626102e5565b6101a46004803603602081101561019457600080fd5b50356001600160a01b03166102f5565b60408051918252519081900360200190f35b6101a4610307565b610118600480360360208110156101d457600080fd5b503561030d565b610118610334565b610162600480360360208110156101f957600080fd5b50356001600160a01b0316610343565b610162610358565b6102376004803603602081101561022757600080fd5b50356001600160a01b0316610368565b6040805193151584526020840192909252151582820152519081900360600190f35b6101a461038e565b610162610394565b6101626103a4565b6101186004803603604081101561028757600080fd5b506001600160a01b0381351690602001356103ad565b6101626103e2565b6101a46103f2565b60095461010090046001600160a01b031681565b6006546001600160a01b031681565b60076020526000908152604090205460ff1681565b600654600160a01b900460ff1681565b600a6020526000908152604090205481565b60025481565b600b818154811061031a57fe5b6000918252602090912001546001600160a01b0316905081565b6000546001600160a01b031681565b60086020526000908152604090205460ff1681565b600654600160b01b900460ff1681565b60056020526000908152604090208054600182015460039092015460ff91821692911683565b60035481565b600654600160b81b900460ff1681565b60095460ff1681565b600460205281600052604060002081815481106103c657fe5b6000918252602090912001546001600160a01b03169150829050565b600654600160a81b900460ff1681565b6001548156fea26469706673582212207e35562cdda898c76fbc1b9ccb8534b432e7905888bfb9c6b2b8ef6b9a82a8de64736f6c634300060c0033",
  "linkReferences": {},
  "deployedLinkReferences": {}
}