{
  "_format": "hh-sol-artifact-1",
  "contractName": "ComptrollerStorage",
  "sourceName": "contracts/Lend/comptroller/ComptrollerStorage.sol",
  "abi": [
    {
      "inputs": [],
      "name": "_borrowGuardianPaused",
      "outputs": [
        {
          "internalType": "bool",
          "name": "",
          "type": "bool"
        }
      ],
      "stateMutability": "view",
      "type": "function"
    },
    {
      "inputs": [],
      "name": "_mintGuardianPaused",
      "outputs": [
        {
          "internalType": "bool",
          "name": "",
          "type": "bool"
        }
      ],
      "stateMutability": "view",
      "type": "function"
    },
    {
      "inputs": [
        {
          "internalType": "address",
          "name": "",
          "type": "address"
        },
        {
          "internalType": "uint256",
          "name": "",
          "type": "uint256"
        }
      ],
      "name": "accountAssets",
      "outputs": [
        {
          "internalType": "contract PToken",
          "name": "",
          "type": "address"
        }
      ],
      "stateMutability": "view",
      "type": "function"
    },
    {
      "inputs": [
        {
          "internalType": "uint256",
          "name": "",
          "type": "uint256"
        }
      ],
      "name": "allMarkets",
      "outputs": [
        {
          "internalType": "contract PToken",
          "name": "",
          "type": "address"
        }
      ],
      "stateMutability": "view",
      "type": "function"
    },
    {
      "inputs": [],
      "name": "borrowCapGuardian",
      "outputs": [
        {
          "internalType": "address",
          "name": "",
          "type": "address"
        }
      ],
      "stateMutability": "view",
      "type": "function"
    },
    {
      "inputs": [
        {
          "internalType": "address",
          "name": "",
          "type": "address"
        }
      ],
      "name": "borrowCaps",
      "outputs": [
        {
          "internalType": "uint256",
          "name": "",
          "type": "uint256"
        }
      ],
      "stateMutability": "view",
      "type": "function"
    },
    {
      "inputs": [],
      "name": "closeFactorMantissa",
      "outputs": [
        {
          "internalType": "uint256",
          "name": "",
          "type": "uint256"
        }
      ],
      "stateMutability": "view",
      "type": "function"
    },
    {
      "inputs": [],
      "name": "distributeWpcPaused",
      "outputs": [
        {
          "internalType": "bool",
          "name": "",
          "type": "bool"
        }
      ],
      "stateMutability": "view",
      "type": "function"
    },
    {
      "inputs": [],
      "name": "liquidationIncentiveMantissa",
      "outputs": [
        {
          "internalType": "uint256",
          "name": "",
          "type": "uint256"
        }
      ],
      "stateMutability": "view",
      "type": "function"
    },
    {
      "inputs": [
        {
          "internalType": "address",
          "name": "",
          "type": "address"
        }
      ],
      "name": "markets",
      "outputs": [
        {
          "internalType": "bool",
          "name": "isListed",
          "type": "bool"
        },
        {
          "internalType": "uint256",
          "name": "collateralFactorMantissa",
          "type": "uint256"
        },
        {
          "internalType": "bool",
          "name": "isMinted",
          "type": "bool"
        }
      ],
      "stateMutability": "view",
      "type": "function"
    },
    {
      "inputs": [],
      "name": "maxAssets",
      "outputs": [
        {
          "internalType": "uint256",
          "name": "",
          "type": "uint256"
        }
      ],
      "stateMutability": "view",
      "type": "function"
    },
    {
      "inputs": [],
      "name": "oracle",
      "outputs": [
        {
          "internalType": "contract IPriceOracle",
          "name": "",
          "type": "address"
        }
      ],
      "stateMutability": "view",
      "type": "function"
    },
    {
      "inputs": [
        {
          "internalType": "address",
          "name": "",
          "type": "address"
        }
      ],
      "name": "pTokenBorrowGuardianPaused",
      "outputs": [
        {
          "internalType": "bool",
          "name": "",
          "type": "bool"
        }
      ],
      "stateMutability": "view",
      "type": "function"
    },
    {
      "inputs": [
        {
          "internalType": "address",
          "name": "",
          "type": "address"
        }
      ],
      "name": "pTokenMintGuardianPaused",
      "outputs": [
        {
          "internalType": "bool",
          "name": "",
          "type": "bool"
        }
      ],
      "stateMutability": "view",
      "type": "function"
    },
    {
      "inputs": [],
      "name": "pauseGuardian",
      "outputs": [
        {
          "internalType": "address",
          "name": "",
          "type": "address"
        }
      ],
      "stateMutability": "view",
      "type": "function"
    },
    {
      "inputs": [],
      "name": "seizeGuardianPaused",
      "outputs": [
        {
          "internalType": "bool",
          "name": "",
          "type": "bool"
        }
      ],
      "stateMutability": "view",
      "type": "function"
    },
    {
      "inputs": [],
      "name": "transferGuardianPaused",
      "outputs": [
        {
          "internalType": "bool",
          "name": "",
          "type": "bool"
        }
      ],
      "stateMutability": "view",
      "type": "function"
    }
  ],
  "bytecode": "0x608060405234801561001057600080fd5b5061042e806100206000396000f3fe608060405234801561001057600080fd5b506004361061010b5760003560e01c80637dc0d1d0116100a2578063ac0b0bb711610071578063ac0b0bb714610243578063b41dcb581461024b578063dce1544914610271578063e6653f3d1461029d578063e8755446146102a55761010b565b80637dc0d1d0146101e357806387f76303146101eb5780638e8f294b146101f357806394b2294b1461023b5761010b565b80634ada90af116100de5780634ada90af1461019057806352d84d1e146101985780636caca4a7146101b55780637a617e26146101bd5761010b565b806321af45691461011057806324a3d622146101345780633c94786f1461013c5780634a58443214610158575b600080fd5b6101186102ad565b604080516001600160a01b039092168252519081900360200190f35b6101186102c1565b6101446102d0565b604080519115158252519081900360200190f35b61017e6004803603602081101561016e57600080fd5b50356001600160a01b03166102e0565b60408051918252519081900360200190f35b61017e6102f2565b610118600480360360208110156101ae57600080fd5b50356102f8565b61014461031f565b610144600480360360208110156101d357600080fd5b50356001600160a01b0316610328565b61011861033d565b61014461034c565b6102196004803603602081101561020957600080fd5b50356001600160a01b031661035c565b6040805193151584526020840192909252151582820152519081900360600190f35b61017e610382565b610144610388565b6101446004803603602081101561026157600080fd5b50356001600160a01b0316610398565b6101186004803603604081101561028757600080fd5b506001600160a01b0381351690602001356103ad565b6101446103e2565b61017e6103f2565b60095461010090046001600160a01b031681565b6006546001600160a01b031681565b600654600160a01b900460ff1681565b600a6020526000908152604090205481565b60025481565b600b818154811061030557fe5b6000918252602090912001546001600160a01b0316905081565b60095460ff1681565b60076020526000908152604090205460ff1681565b6000546001600160a01b031681565b600654600160b01b900460ff1681565b60056020526000908152604090208054600182015460039092015460ff91821692911683565b60035481565b600654600160b81b900460ff1681565b60086020526000908152604090205460ff1681565b600460205281600052604060002081815481106103c657fe5b6000918252602090912001546001600160a01b03169150829050565b600654600160a81b900460ff1681565b6001548156fea26469706673582212205bdc4a7f5c64fad3dae12ee54307b74f0f91cbbdcab981a32a0ecf328e434a8064736f6c634300060c0033",
  "linkReferences": {},
  "deployedLinkReferences": {}
}