{
  "_format": "hh-sol-artifact-1",
  "contractName": "WePiggyPriceProviderV1",
  "sourceName": "contracts/Lend/oracle/WePiggyPriceProviderV1.sol",
  "abi": [
    {
      "inputs": [],
      "stateMutability": "nonpayable",
      "type": "constructor"
    },
    {
      "anonymous": false,
      "inputs": [
        {
          "indexed": false,
          "internalType": "address",
          "name": "pToken",
          "type": "address"
        },
        {
          "indexed": false,
          "internalType": "address",
          "name": "underlying",
          "type": "address"
        },
        {
          "indexed": false,
          "internalType": "string",
          "name": "underlyingSymbol",
          "type": "string"
        },
        {
          "indexed": false,
          "internalType": "uint256",
          "name": "baseUnit",
          "type": "uint256"
        },
        {
          "indexed": false,
          "internalType": "bool",
          "name": "fixedUsd",
          "type": "bool"
        }
      ],
      "name": "ConfigUpdated",
      "type": "event"
    },
    {
      "anonymous": false,
      "inputs": [
        {
          "indexed": true,
          "internalType": "address",
          "name": "previousOwner",
          "type": "address"
        },
        {
          "indexed": true,
          "internalType": "address",
          "name": "newOwner",
          "type": "address"
        }
      ],
      "name": "OwnershipTransferred",
      "type": "event"
    },
    {
      "anonymous": false,
      "inputs": [
        {
          "indexed": false,
          "internalType": "address",
          "name": "pToken",
          "type": "address"
        },
        {
          "components": [
            {
              "internalType": "address",
              "name": "source",
              "type": "address"
            },
            {
              "internalType": "enum WePiggyPriceProviderV1.PriceOracleType",
              "name": "sourceType",
              "type": "uint8"
            },
            {
              "internalType": "bool",
              "name": "available",
              "type": "bool"
            }
          ],
          "indexed": false,
          "internalType": "struct WePiggyPriceProviderV1.PriceOracle[]",
          "name": "oracles",
          "type": "tuple[]"
        }
      ],
      "name": "PriceOracleUpdated",
      "type": "event"
    },
    {
      "inputs": [
        {
          "internalType": "address[]",
          "name": "tokens",
          "type": "address[]"
        },
        {
          "internalType": "address[]",
          "name": "chainLinkTokenEthPriceFeeds",
          "type": "address[]"
        }
      ],
      "name": "addOrUpdateChainLinkTokenEthPriceFeed",
      "outputs": [],
      "stateMutability": "nonpayable",
      "type": "function"
    },
    {
      "inputs": [
        {
          "internalType": "address",
          "name": "pToken",
          "type": "address"
        },
        {
          "internalType": "uint256",
          "name": "index",
          "type": "uint256"
        },
        {
          "internalType": "address",
          "name": "source",
          "type": "address"
        },
        {
          "internalType": "enum WePiggyPriceProviderV1.PriceOracleType",
          "name": "_sourceType",
          "type": "uint8"
        },
        {
          "internalType": "bool",
          "name": "available",
          "type": "bool"
        }
      ],
      "name": "addOrUpdateTokenConfigSource",
      "outputs": [],
      "stateMutability": "nonpayable",
      "type": "function"
    },
    {
      "inputs": [
        {
          "internalType": "address",
          "name": "pToken",
          "type": "address"
        },
        {
          "internalType": "address",
          "name": "underlying",
          "type": "address"
        },
        {
          "internalType": "string",
          "name": "underlyingSymbol",
          "type": "string"
        },
        {
          "internalType": "uint256",
          "name": "baseUnit",
          "type": "uint256"
        },
        {
          "internalType": "bool",
          "name": "fixedUsd",
          "type": "bool"
        },
        {
          "internalType": "address[]",
          "name": "sources",
          "type": "address[]"
        },
        {
          "internalType": "enum WePiggyPriceProviderV1.PriceOracleType[]",
          "name": "sourceTypes",
          "type": "uint8[]"
        }
      ],
      "name": "addTokenConfig",
      "outputs": [],
      "stateMutability": "nonpayable",
      "type": "function"
    },
    {
      "inputs": [
        {
          "internalType": "address",
          "name": "",
          "type": "address"
        }
      ],
      "name": "chainLinkTokenEthPriceFeed",
      "outputs": [
        {
          "internalType": "address",
          "name": "",
          "type": "address"
        }
      ],
      "stateMutability": "view",
      "type": "function"
    },
    {
      "inputs": [],
      "name": "ethUsdPriceFeedAddress",
      "outputs": [
        {
          "internalType": "address",
          "name": "",
          "type": "address"
        }
      ],
      "stateMutability": "view",
      "type": "function"
    },
    {
      "inputs": [
        {
          "internalType": "address",
          "name": "pToken",
          "type": "address"
        },
        {
          "internalType": "uint256",
          "name": "sourceIndex",
          "type": "uint256"
        }
      ],
      "name": "getOracleSourcePrice",
      "outputs": [
        {
          "internalType": "uint256",
          "name": "",
          "type": "uint256"
        }
      ],
      "stateMutability": "view",
      "type": "function"
    },
    {
      "inputs": [
        {
          "internalType": "address",
          "name": "_pToken",
          "type": "address"
        }
      ],
      "name": "getUnderlyingPrice",
      "outputs": [
        {
          "internalType": "uint256",
          "name": "",
          "type": "uint256"
        }
      ],
      "stateMutability": "view",
      "type": "function"
    },
    {
      "inputs": [
        {
          "internalType": "address",
          "name": "pToken",
          "type": "address"
        }
      ],
      "name": "oracleLength",
      "outputs": [
        {
          "internalType": "uint256",
          "name": "",
          "type": "uint256"
        }
      ],
      "stateMutability": "view",
      "type": "function"
    },
    {
      "inputs": [
        {
          "internalType": "address",
          "name": "",
          "type": "address"
        },
        {
          "internalType": "uint256",
          "name": "",
          "type": "uint256"
        }
      ],
      "name": "oracles",
      "outputs": [
        {
          "internalType": "address",
          "name": "source",
          "type": "address"
        },
        {
          "internalType": "enum WePiggyPriceProviderV1.PriceOracleType",
          "name": "sourceType",
          "type": "uint8"
        },
        {
          "internalType": "bool",
          "name": "available",
          "type": "bool"
        }
      ],
      "stateMutability": "view",
      "type": "function"
    },
    {
      "inputs": [],
      "name": "owner",
      "outputs": [
        {
          "internalType": "address",
          "name": "",
          "type": "address"
        }
      ],
      "stateMutability": "view",
      "type": "function"
    },
    {
      "inputs": [],
      "name": "renounceOwnership",
      "outputs": [],
      "stateMutability": "nonpayable",
      "type": "function"
    },
    {
      "inputs": [
        {
          "internalType": "address",
          "name": "feedAddress",
          "type": "address"
        }
      ],
      "name": "setEthUsdPriceFeedAddress",
      "outputs": [],
      "stateMutability": "nonpayable",
      "type": "function"
    },
    {
      "inputs": [
        {
          "internalType": "address",
          "name": "",
          "type": "address"
        }
      ],
      "name": "tokenConfigs",
      "outputs": [
        {
          "internalType": "address",
          "name": "pToken",
          "type": "address"
        },
        {
          "internalType": "address",
          "name": "underlying",
          "type": "address"
        },
        {
          "internalType": "string",
          "name": "underlyingSymbol",
          "type": "string"
        },
        {
          "internalType": "uint256",
          "name": "baseUnit",
          "type": "uint256"
        },
        {
          "internalType": "bool",
          "name": "fixedUsd",
          "type": "bool"
        }
      ],
      "stateMutability": "view",
      "type": "function"
    },
    {
      "inputs": [
        {
          "internalType": "address",
          "name": "newOwner",
          "type": "address"
        }
      ],
      "name": "transferOwnership",
      "outputs": [],
      "stateMutability": "nonpayable",
      "type": "function"
    },
    {
      "inputs": [
        {
          "internalType": "address",
          "name": "pToken",
          "type": "address"
        },
        {
          "internalType": "uint256",
          "name": "baseUnit",
          "type": "uint256"
        }
      ],
      "name": "updateTokenConfigBaseUnit",
      "outputs": [],
      "stateMutability": "nonpayable",
      "type": "function"
    },
    {
      "inputs": [
        {
          "internalType": "address",
          "name": "pToken",
          "type": "address"
        },
        {
          "internalType": "bool",
          "name": "fixedUsd",
          "type": "bool"
        }
      ],
      "name": "updateTokenConfigFixedUsd",
      "outputs": [],
      "stateMutability": "nonpayable",
      "type": "function"
    }
  ],
  "bytecode": "0x608060405234801561001057600080fd5b50600061001b61006a565b600080546001600160a01b0319166001600160a01b0383169081178255604051929350917f8be0079c531659141344cd1fd0a4f28419497f9722a3daafe3b4186f6b6457e0908290a35061006e565b3390565b61224d8061007d6000396000f3fe608060405234801561001057600080fd5b50600436106101005760003560e01c806398ee9a1311610097578063bec69b4f11610066578063bec69b4f1461020d578063e316e29714610220578063f2fde38b14610233578063fc57d4df1461024657610100565b806398ee9a13146101bd5780639e237b1c146101d0578063a00a8b2c146101e3578063a22e6ee31461020557610100565b8063715018a6116100d3578063715018a61461017a57806371cc09a9146101825780638341301a146101955780638da5cb5b146101b557610100565b80630e4230a0146101055780631b69dc5f1461011a57806343f5ae361461014757806349b39fd614610167575b600080fd5b610118610113366004611956565b610259565b005b61012d61012836600461191e565b610545565b60405161013e959493929190611d41565b60405180910390f35b61015a61015536600461191e565b61060e565b60405161013e9190612154565b610118610175366004611a59565b61062d565b61011861070d565b610118610190366004611a21565b610796565b6101a86101a336600461191e565b61086d565b60405161013e9190611d2d565b6101a8610888565b6101186101cb366004611aeb565b610897565b61015a6101de366004611a59565b610970565b6101f66101f1366004611a59565b610ae4565b60405161013e93929190611ed2565b6101a8610b2e565b61011861021b36600461191e565b610b3d565b61011861022e366004611a84565b610b9e565b61011861024136600461191e565b610d22565b61015a61025436600461191e565b610de2565b610261610ff8565b6001600160a01b0316610272610888565b6001600160a01b0316146102a15760405162461bcd60e51b8152600401610298906120c1565b60405180910390fd5b825181146102c15760405162461bcd60e51b81526004016102989061202f565b6001600160a01b0380891660009081526001602052604090208054909116156102fc5760405162461bcd60e51b815260040161029890611f9d565b80546001600160a01b03808b166001600160a01b0319928316178355600183018054918b1691909216179055865161033d90600283019060208a01906116e2565b506003810186905560048101805460ff19168615151790556001600160a01b03891660009081526002602052604090205460011161038d5760405162461bcd60e51b815260040161029890611f9d565b60005b84518110156104a8576000600260008c6001600160a01b03166001600160a01b0316815260200190815260200160002090508060405180606001604052808885815181106103da57fe5b60200260200101516001600160a01b031681526020018787868181106103fc57fe5b90506020020160208101906104119190611b4c565b600381111561041c57fe5b815260016020918201819052835490810184556000938452928190208251930180546001600160a01b0319166001600160a01b03909416939093178084559082015191929190829060ff60a01b1916600160a01b83600381111561047c57fe5b0217905550604091909101518154901515600160a81b0260ff60a81b1990911617905550600101610390565b507f7e55bc43e6f0111474264fd86152c4a3e172abc29a15f5474298510ce6ff69ea89898989896040516104e0959493929190611d41565b60405180910390a16001600160a01b0389166000908152600260205260409081902090517f3305406be9630a8e3735461ddfb1c43204cdc73f28649e8038cafb44584d14bc91610532918c9190611e48565b60405180910390a1505050505050505050565b6001602081815260009283526040928390208054818401546002808401805488516101009882161598909802600019011691909104601f81018690048602870186019097528686526001600160a01b0392831696929091169492939091908301828280156105f45780601f106105c9576101008083540402835291602001916105f4565b820191906000526020600020905b8154815290600101906020018083116105d757829003601f168201915b50505050600383015460049093015491929160ff16905085565b6001600160a01b0381166000908152600260205260409020545b919050565b610635610ff8565b6001600160a01b0316610646610888565b6001600160a01b03161461066c5760405162461bcd60e51b8152600401610298906120c1565b6001600160a01b03808316600090815260016020526040902080549091166106a65760405162461bcd60e51b815260040161029890611f9d565b60038101829055600181015460048201546040517f7e55bc43e6f0111474264fd86152c4a3e172abc29a15f5474298510ce6ff69ea926107009287926001600160a01b03909216916002870191889160ff90911690611d86565b60405180910390a1505050565b610715610ff8565b6001600160a01b0316610726610888565b6001600160a01b03161461074c5760405162461bcd60e51b8152600401610298906120c1565b600080546040516001600160a01b03909116907f8be0079c531659141344cd1fd0a4f28419497f9722a3daafe3b4186f6b6457e0908390a3600080546001600160a01b0319169055565b61079e610ff8565b6001600160a01b03166107af610888565b6001600160a01b0316146107d55760405162461bcd60e51b8152600401610298906120c1565b6001600160a01b038083166000908152600160205260409020805490911661080f5760405162461bcd60e51b815260040161029890611f9d565b60048101805460ff1916831515179055600181015460038201546040517f7e55bc43e6f0111474264fd86152c4a3e172abc29a15f5474298510ce6ff69ea926107009287926001600160a01b03909216916002870191908890611d86565b6003602052600090815260409020546001600160a01b031681565b6000546001600160a01b031690565b61089f610ff8565b6001600160a01b03166108b0610888565b6001600160a01b0316146108d65760405162461bcd60e51b8152600401610298906120c1565b80518251146108f75760405162461bcd60e51b8152600401610298906120f6565b60005b825181101561096b57600083828151811061091157fe5b6020026020010151905082828151811061092757fe5b6020908102919091018101516001600160a01b0392831660009081526003909252604090912080546001600160a01b031916929091169190911790556001016108fa565b505050565b6001600160a01b0382811660009081526001602081815260408084206002808452828620835160a0810185528354891681528387015490981688860152818301805485516101009882161598909802600019011692909204601f81018690048602870186018552808752969792969095610ad9958b958994908601939091830182828015610a3f5780601f10610a1457610100808354040283529160200191610a3f565b820191906000526020600020905b815481529060010190602001808311610a2257829003601f168201915b50505091835250506003820154602082015260049091015460ff1615156040909101528354849088908110610a7057fe5b60009182526020918290206040805160608101909152910180546001600160a01b03811683529192909190830190600160a01b900460ff166003811115610ab357fe5b6003811115610abe57fe5b81529054600160a81b900460ff161515602090910152610ffc565b925050505b92915050565b60026020528160005260406000208181548110610afd57fe5b6000918252602090912001546001600160a01b038116925060ff600160a01b820481169250600160a81b9091041683565b6004546001600160a01b031681565b610b45610ff8565b6001600160a01b0316610b56610888565b6001600160a01b031614610b7c5760405162461bcd60e51b8152600401610298906120c1565b600480546001600160a01b0319166001600160a01b0392909216919091179055565b610ba6610ff8565b6001600160a01b0316610bb7610888565b6001600160a01b031614610bdd5760405162461bcd60e51b8152600401610298906120c1565b6001600160a01b03851660009081526002602052604090208054851015610c6f576000818681548110610c0c57fe5b600091825260209091200180546001600160a01b0319166001600160a01b038716178082559091508490829060ff60a01b1916600160a01b836003811115610c5057fe5b0217905550805460ff60a81b1916600160a81b84151502179055610d1a565b806040518060600160405280866001600160a01b03168152602001856003811115610c9657fe5b815284151560209182015282546001810184556000938452928190208251930180546001600160a01b0319166001600160a01b03909416939093178084559082015191929190829060ff60a01b1916600160a01b836003811115610cf657fe5b0217905550604091909101518154901515600160a81b0260ff60a81b199091161790555b505050505050565b610d2a610ff8565b6001600160a01b0316610d3b610888565b6001600160a01b031614610d615760405162461bcd60e51b8152600401610298906120c1565b6001600160a01b038116610d875760405162461bcd60e51b815260040161029890611f15565b600080546040516001600160a01b03808516939216917f8be0079c531659141344cd1fd0a4f28419497f9722a3daafe3b4186f6b6457e091a3600080546001600160a01b0319166001600160a01b0392909216919091179055565b6001600160a01b0381166000908152600160205260408120600481015482919060ff1615610e3f57600381015460019250610e3690610e30846ec097ce7bc90715b34b9f10000000006111c3565b906111fd565b92505050610628565b6001600160a01b0384166000908152600260205260408120905b8154811015610fcc576000828281548110610e7057fe5b60009182526020909120018054909150600160a81b900460ff16151560011415610fc3576040805160a08101825285546001600160a01b0390811682526001808801549091166020808401919091526002808901805486516101009582161595909502600019011691909104601f81018390048302840183018652808452610fae958d95948b949186019390929091830182828015610f505780601f10610f2557610100808354040283529160200191610f50565b820191906000526020600020905b815481529060010190602001808311610f3357829003601f168201915b505050918352505060038281015460208084019190915260049093015460ff908116151560409384015282516060810190935287546001600160a01b03811684529293889390850192600160a01b90910490911690811115610ab357fe5b94508415610fc3578495505050505050610628565b50600101610e59565b5060008311610fed5760405162461bcd60e51b815260040161029890611ff8565b506000949350505050565b3390565b60008073eeeeeeeeeeeeeeeeeeeeeeeeeeeeeeeeeeeeeeee905060008590506110b5816001600160a01b03166395d89b416040518163ffffffff1660e01b815260040160006040518083038186803b15801561105757600080fd5b505afa15801561106b573d6000803e3d6000fd5b505050506040513d6000823e601f3d908101601f191682016040526110939190810190611b68565b604051806040016040528060048152602001630e08aa8960e31b81525061122f565b61112d57856001600160a01b0316636f307dc36040518163ffffffff1660e01b815260040160206040518083038186803b1580156110f257600080fd5b505afa158015611106573d6000803e3d6000fd5b505050506040513d601f19601f8201168201806040525081019061112a919061193a565b91505b6020840151600081600381111561114057fe5b141561115a576111508587611288565b93505050506111bc565b600181600381111561116857fe5b141561117857611150858761136a565b600281600381111561118657fe5b1415611196576111508587611486565b60038160038111156111a457fe5b14156111b457611150858761154e565b600093505050505b9392505050565b6000826111d257506000610ade565b828202828482816111df57fe5b04146111bc5760405162461bcd60e51b815260040161029890612080565b600080821161121e5760405162461bcd60e51b815260040161029890611fc1565b81838161122757fe5b049392505050565b6000816040516020016112429190611d11565b60405160208183030381529060405280519060200120836040516020016112699190611d11565b6040516020818303038152906040528051906020012014905092915050565b6000808260600151116112ad5760405162461bcd60e51b815260040161029890611f5b565b6000836000015190506000816001600160a01b031663feaf968c6040518163ffffffff1660e01b815260040160a06040518083038186803b1580156112f157600080fd5b505afa158015611305573d6000803e3d6000fd5b505050506040513d601f19601f820116820180604052508101906113299190611c8e565b5050509150506000811361134257600092505050610ade565b606084015161136190610e30836b204fce5e3e250261100000006111c3565b92505050610ade565b815160009080611378611760565b60408086015190516313b6165d60e11b81526001600160a01b0384169163276c2cba916113a89190600401611f02565b6101006040518083038186803b1580156113c157600080fd5b505afa1580156113d5573d6000803e3d6000fd5b505050506040513d601f19601f820116820180604052508101906113f99190611bdb565b805160405163fc57d4df60e01b8152919250906001600160a01b0384169063fc57d4df9061142b908490600401611d2d565b60206040518083038186803b15801561144357600080fd5b505afa158015611457573d6000803e3d6000fd5b505050506040513d601f19601f8201168201806040525081019061147b9190611c76565b979650505050505050565b815160208201516040516341976e0960e01b815260009291829184916001600160a01b038416916341976e09916114bf91600401611d2d565b60206040518083038186803b1580156114d757600080fd5b505afa1580156114eb573d6000803e3d6000fd5b505050506040513d601f19601f8201168201806040525081019061150f9190611c76565b9050600081116115255760009350505050610ade565b606085015161154490610e30836b204fce5e3e250261100000006111c3565b9350505050610ade565b6000808260600151116115735760405162461bcd60e51b815260040161029890611f5b565b6020808301516001600160a01b03808216600090815260039093526040808420548151633fabe5a360e21b815291519394921692839163feaf968c9160048083019260a0929190829003018186803b1580156115ce57600080fd5b505afa1580156115e2573d6000803e3d6000fd5b505050506040513d601f19601f820116820180604052508101906116069190611c8e565b50506004805460408051633fabe5a360e21b815290519496506001600160a01b03909116945060009385935063feaf968c928281019260a0929190829003018186803b15801561165557600080fd5b505afa158015611669573d6000803e3d6000fd5b505050506040513d601f19601f8201168201806040525081019061168d9190611c8e565b505050915050600083136116a957600095505050505050610ade565b60608701516116cb90610e306402540be4006116c587866111c3565b906111c3565b95505050505050610ade565b505050505092915050565b828054600181600116156101000203166002900490600052602060002090601f016020900481019282601f1061172357805160ff1916838001178555611750565b82800160010185558215611750579182015b82811115611750578251825591602001919060010190611735565b5061175c9291506117a5565b5090565b60408051610100810182526000808252602082018190529181018290526060810182905290608082019081526000602082018190526040820181905260609091015290565b5b8082111561175c57600081556001016117a6565b8051610ade816121e4565b600082601f8301126117d5578081fd5b813567ffffffffffffffff8111156117eb578182fd5b60208082026117fb82820161215d565b8381529350818401858301828701840188101561181757600080fd5b600092505b848310156116d757803561182f816121e4565b82526001929092019190830190830161181c565b60008083601f840112611854578081fd5b50813567ffffffffffffffff81111561186b578182fd5b602083019150836020808302850101111561188557600080fd5b9250929050565b8035610ade816121fc565b8051610ade816121fc565b805160038110610ade57600080fd5b600082601f8301126118c1578081fd5b81356118d46118cf82612184565b61215d565b91508082528360208285010111156118eb57600080fd5b8060208401602084013760009082016020015292915050565b805169ffffffffffffffffffff81168114610ade57600080fd5b60006020828403121561192f578081fd5b81356111bc816121e4565b60006020828403121561194b578081fd5b81516111bc816121e4565b60008060008060008060008060e0898b031215611971578384fd5b883561197c816121e4565b9750602089013561198c816121e4565b9650604089013567ffffffffffffffff808211156119a8578586fd5b6119b48c838d016118b1565b975060608b013596506119ca8c60808d0161188c565b955060a08b01359150808211156119df578485fd5b6119eb8c838d016117c5565b945060c08b0135915080821115611a00578384fd5b50611a0d8b828c01611843565b999c989b5096995094979396929594505050565b60008060408385031215611a33578182fd5b8235611a3e816121e4565b91506020830135611a4e816121fc565b809150509250929050565b60008060408385031215611a6b578182fd5b8235611a76816121e4565b946020939093013593505050565b600080600080600060a08688031215611a9b578081fd5b8535611aa6816121e4565b9450602086013593506040860135611abd816121e4565b92506060860135611acd8161220a565b91506080860135611add816121fc565b809150509295509295909350565b60008060408385031215611afd578182fd5b823567ffffffffffffffff80821115611b14578384fd5b611b20868387016117c5565b93506020850135915080821115611b35578283fd5b50611b42858286016117c5565b9150509250929050565b600060208284031215611b5d578081fd5b81356111bc8161220a565b600060208284031215611b79578081fd5b815167ffffffffffffffff811115611b8f578182fd5b8201601f81018413611b9f578182fd5b8051611bad6118cf82612184565b818152856020838501011115611bc1578384fd5b611bd28260208301602086016121b4565b95945050505050565b6000610100808385031215611bee578182fd5b611bf78161215d565b90508251611c04816121e4565b81526020830151611c14816121e4565b806020830152506040830151604082015260608301516060820152611c3c84608085016118a2565b608082015260a083015160a0820152611c588460c085016117ba565b60c0820152611c6a8460e08501611897565b60e08201529392505050565b600060208284031215611c87578081fd5b5051919050565b600080600080600060a08688031215611ca5578283fd5b611caf8787611904565b9450602086015193506040860151925060608601519150611cd38760808801611904565b90509295509295909350565b15159052565b60008151808452611cfd8160208601602086016121b4565b601f01601f19169290920160200192915050565b60008251611d238184602087016121b4565b9190910192915050565b6001600160a01b0391909116815260200190565b6001600160a01b0386811682528516602082015260a060408201819052600090611d6d90830186611ce5565b6060830194909452509015156080909101529392505050565b600060a0820160018060a01b03808916845260208189168186015260a060408601528391508754600180821660008114611dc75760018114611de757611e22565b611dd7607f600285041687612154565b60ff198416815284019450611e22565b60028304611df58188612154565b611dfe8d6121a8565b895b83811015611e1957815483820152908501908701611e00565b91909101965050505b505050508092505050836060830152611e3e6080830184611cdf565b9695505050505050565b6000604080830160018060a01b03808716855260208381870152828754808552606094508488019150888752828720875b82811015611ec2578154868116855260ff808260a01c1660048110611e9a57fe5b86880152611eb08a870160a884901c8316611cdf565b50509286019260019182019101611e79565b50919a9950505050505050505050565b6001600160a01b03841681526060810160048410611eec57fe5b8360208301528215156040830152949350505050565b6000602082526111bc6020830184611ce5565b60208082526026908201527f4f776e61626c653a206e6577206f776e657220697320746865207a65726f206160408201526564647265737360d01b606082015260800190565b60208082526022908201527f62617365556e6974206d7573742062652067726561746572207468616e207a65604082015261726f60f01b606082015260800190565b6020808252600a908201526962616420706172616d7360b01b604082015260600190565b6020808252601a908201527f536166654d6174683a206469766973696f6e206279207a65726f000000000000604082015260600190565b6020808252601b908201527f7072696365206d75737420626967676572207468616e207a65726f0000000000604082015260600190565b60208082526031908201527f736f7572636554797065732e6c656e677468206d75737420657175616c2074686040820152700c2dc40e6deeae4c6cae65cd8cadccee8d607b1b606082015260800190565b60208082526021908201527f536166654d6174683a206d756c7469706c69636174696f6e206f766572666c6f6040820152607760f81b606082015260800190565b6020808252818101527f4f776e61626c653a2063616c6c6572206973206e6f7420746865206f776e6572604082015260600190565b602080825260409082018190527f746f6b656e732e6c656e677468206d75737420657175616c207468616e206368908201527f61696e4c696e6b546f6b656e457468507269636546656564732e6c656e677468606082015260800190565b90815260200190565b60405181810167ffffffffffffffff8111828210171561217c57600080fd5b604052919050565b600067ffffffffffffffff82111561219a578081fd5b50601f01601f191660200190565b60009081526020902090565b60005b838110156121cf5781810151838201526020016121b7565b838111156121de576000848401525b50505050565b6001600160a01b03811681146121f957600080fd5b50565b80151581146121f957600080fd5b600481106121f957600080fdfea2646970667358221220f142487ef2bf51209ca8d7d2b006f1f39a929c2ff906ddd3460dce12ca2c8f4d64736f6c634300060c0033",
  "linkReferences": {},
  "deployedLinkReferences": {}
}