{
  "_format": "hh-sol-artifact-1",
  "contractName": "OKTPool",
  "sourceName": "contracts/Pool/OKTPool.sol",
  "abi": [
    {
      "inputs": [
        {
          "internalType": "address",
          "name": "Lemd_",
          "type": "address"
        },
        {
          "internalType": "address",
          "name": "token_",
          "type": "address"
        },
        {
          "internalType": "uint256",
          "name": "starttime_",
          "type": "uint256"
        }
      ],
      "stateMutability": "nonpayable",
      "type": "constructor"
    },
    {
      "anonymous": false,
      "inputs": [
        {
          "indexed": true,
          "internalType": "address",
          "name": "previousOwner",
          "type": "address"
        },
        {
          "indexed": true,
          "internalType": "address",
          "name": "newOwner",
          "type": "address"
        }
      ],
      "name": "OwnershipTransferred",
      "type": "event"
    },
    {
      "anonymous": false,
      "inputs": [
        {
          "indexed": false,
          "internalType": "uint256",
          "name": "reward",
          "type": "uint256"
        }
      ],
      "name": "RewardAdded",
      "type": "event"
    },
    {
      "anonymous": false,
      "inputs": [
        {
          "indexed": true,
          "internalType": "address",
          "name": "user",
          "type": "address"
        },
        {
          "indexed": false,
          "internalType": "uint256",
          "name": "reward",
          "type": "uint256"
        }
      ],
      "name": "RewardPaid",
      "type": "event"
    },
    {
      "anonymous": false,
      "inputs": [
        {
          "indexed": true,
          "internalType": "address",
          "name": "user",
          "type": "address"
        },
        {
          "indexed": false,
          "internalType": "uint256",
          "name": "amount",
          "type": "uint256"
        }
      ],
      "name": "Staked",
      "type": "event"
    },
    {
      "anonymous": false,
      "inputs": [
        {
          "indexed": true,
          "internalType": "address",
          "name": "user",
          "type": "address"
        },
        {
          "indexed": false,
          "internalType": "uint256",
          "name": "amount",
          "type": "uint256"
        }
      ],
      "name": "Withdrawn",
      "type": "event"
    },
    {
      "inputs": [],
      "name": "DURATION",
      "outputs": [
        {
          "internalType": "uint256",
          "name": "",
          "type": "uint256"
        }
      ],
      "stateMutability": "view",
      "type": "function"
    },
    {
      "inputs": [],
      "name": "Lemd",
      "outputs": [
        {
          "internalType": "contract IERC20",
          "name": "",
          "type": "address"
        }
      ],
      "stateMutability": "view",
      "type": "function"
    },
    {
      "inputs": [
        {
          "internalType": "address",
          "name": "account",
          "type": "address"
        }
      ],
      "name": "balanceOf",
      "outputs": [
        {
          "internalType": "uint256",
          "name": "",
          "type": "uint256"
        }
      ],
      "stateMutability": "view",
      "type": "function"
    },
    {
      "inputs": [],
      "name": "decimals",
      "outputs": [
        {
          "internalType": "uint256",
          "name": "",
          "type": "uint256"
        }
      ],
      "stateMutability": "view",
      "type": "function"
    },
    {
      "inputs": [
        {
          "internalType": "address",
          "name": "",
          "type": "address"
        }
      ],
      "name": "deposits",
      "outputs": [
        {
          "internalType": "uint256",
          "name": "",
          "type": "uint256"
        }
      ],
      "stateMutability": "view",
      "type": "function"
    },
    {
      "inputs": [
        {
          "internalType": "address",
          "name": "account",
          "type": "address"
        }
      ],
      "name": "earned",
      "outputs": [
        {
          "internalType": "uint256",
          "name": "",
          "type": "uint256"
        }
      ],
      "stateMutability": "view",
      "type": "function"
    },
    {
      "inputs": [],
      "name": "exit",
      "outputs": [],
      "stateMutability": "nonpayable",
      "type": "function"
    },
    {
      "inputs": [],
      "name": "getReward",
      "outputs": [],
      "stateMutability": "nonpayable",
      "type": "function"
    },
    {
      "inputs": [
        {
          "internalType": "address",
          "name": "inviter",
          "type": "address"
        }
      ],
      "name": "getTotalInviteCount",
      "outputs": [
        {
          "internalType": "uint256",
          "name": "",
          "type": "uint256"
        }
      ],
      "stateMutability": "view",
      "type": "function"
    },
    {
      "inputs": [
        {
          "internalType": "uint256",
          "name": "starttime_",
          "type": "uint256"
        },
        {
          "internalType": "uint256",
          "name": "maximum_",
          "type": "uint256"
        }
      ],
      "name": "initialize",
      "outputs": [],
      "stateMutability": "nonpayable",
      "type": "function"
    },
    {
      "inputs": [
        {
          "internalType": "address",
          "name": "",
          "type": "address"
        },
        {
          "internalType": "uint256",
          "name": "",
          "type": "uint256"
        }
      ],
      "name": "invites",
      "outputs": [
        {
          "internalType": "address",
          "name": "",
          "type": "address"
        }
      ],
      "stateMutability": "view",
      "type": "function"
    },
    {
      "inputs": [],
      "name": "lastTimeRewardApplicable",
      "outputs": [
        {
          "internalType": "uint256",
          "name": "",
          "type": "uint256"
        }
      ],
      "stateMutability": "view",
      "type": "function"
    },
    {
      "inputs": [],
      "name": "lastUpdateTime",
      "outputs": [
        {
          "internalType": "uint256",
          "name": "",
          "type": "uint256"
        }
      ],
      "stateMutability": "view",
      "type": "function"
    },
    {
      "inputs": [],
      "name": "maximum",
      "outputs": [
        {
          "internalType": "uint256",
          "name": "",
          "type": "uint256"
        }
      ],
      "stateMutability": "view",
      "type": "function"
    },
    {
      "inputs": [
        {
          "internalType": "uint256",
          "name": "reward",
          "type": "uint256"
        }
      ],
      "name": "notifyRewardAmount",
      "outputs": [],
      "stateMutability": "nonpayable",
      "type": "function"
    },
    {
      "inputs": [],
      "name": "owner",
      "outputs": [
        {
          "internalType": "address",
          "name": "",
          "type": "address"
        }
      ],
      "stateMutability": "view",
      "type": "function"
    },
    {
      "inputs": [],
      "name": "periodFinish",
      "outputs": [
        {
          "internalType": "uint256",
          "name": "",
          "type": "uint256"
        }
      ],
      "stateMutability": "view",
      "type": "function"
    },
    {
      "inputs": [],
      "name": "renounceOwnership",
      "outputs": [],
      "stateMutability": "nonpayable",
      "type": "function"
    },
    {
      "inputs": [],
      "name": "rewardDistribution",
      "outputs": [
        {
          "internalType": "address",
          "name": "",
          "type": "address"
        }
      ],
      "stateMutability": "view",
      "type": "function"
    },
    {
      "inputs": [],
      "name": "rewardPerToken",
      "outputs": [
        {
          "internalType": "uint256",
          "name": "",
          "type": "uint256"
        }
      ],
      "stateMutability": "view",
      "type": "function"
    },
    {
      "inputs": [],
      "name": "rewardPerTokenStored",
      "outputs": [
        {
          "internalType": "uint256",
          "name": "",
          "type": "uint256"
        }
      ],
      "stateMutability": "view",
      "type": "function"
    },
    {
      "inputs": [],
      "name": "rewardRate",
      "outputs": [
        {
          "internalType": "uint256",
          "name": "",
          "type": "uint256"
        }
      ],
      "stateMutability": "view",
      "type": "function"
    },
    {
      "inputs": [
        {
          "internalType": "address",
          "name": "",
          "type": "address"
        }
      ],
      "name": "rewards",
      "outputs": [
        {
          "internalType": "uint256",
          "name": "",
          "type": "uint256"
        }
      ],
      "stateMutability": "view",
      "type": "function"
    },
    {
      "inputs": [
        {
          "internalType": "address",
          "name": "_rewardDistribution",
          "type": "address"
        }
      ],
      "name": "setRewardDistribution",
      "outputs": [],
      "stateMutability": "nonpayable",
      "type": "function"
    },
    {
      "inputs": [
        {
          "internalType": "uint256",
          "name": "amount",
          "type": "uint256"
        }
      ],
      "name": "stake",
      "outputs": [],
      "stateMutability": "payable",
      "type": "function"
    },
    {
      "inputs": [
        {
          "internalType": "address",
          "name": "inviter",
          "type": "address"
        }
      ],
      "name": "stakeETH",
      "outputs": [],
      "stateMutability": "payable",
      "type": "function"
    },
    {
      "inputs": [],
      "name": "starttime",
      "outputs": [
        {
          "internalType": "uint256",
          "name": "",
          "type": "uint256"
        }
      ],
      "stateMutability": "view",
      "type": "function"
    },
    {
      "inputs": [],
      "name": "token",
      "outputs": [
        {
          "internalType": "contract IERC20",
          "name": "",
          "type": "address"
        }
      ],
      "stateMutability": "view",
      "type": "function"
    },
    {
      "inputs": [],
      "name": "totalSupply",
      "outputs": [
        {
          "internalType": "uint256",
          "name": "",
          "type": "uint256"
        }
      ],
      "stateMutability": "view",
      "type": "function"
    },
    {
      "inputs": [
        {
          "internalType": "address",
          "name": "newOwner",
          "type": "address"
        }
      ],
      "name": "transferOwnership",
      "outputs": [],
      "stateMutability": "nonpayable",
      "type": "function"
    },
    {
      "inputs": [
        {
          "internalType": "address",
          "name": "",
          "type": "address"
        }
      ],
      "name": "userRewardPerTokenPaid",
      "outputs": [
        {
          "internalType": "uint256",
          "name": "",
          "type": "uint256"
        }
      ],
      "stateMutability": "view",
      "type": "function"
    },
    {
      "inputs": [
        {
          "internalType": "uint256",
          "name": "amount",
          "type": "uint256"
        }
      ],
      "name": "withdraw",
      "outputs": [],
      "stateMutability": "nonpayable",
      "type": "function"
    }
  ],
  "bytecode": "0x6080604052620d2f00600655601260075560006009556000600a553480156200002757600080fd5b5060405162001e0038038062001e00833981810160405260608110156200004d57600080fd5b50805160208201516040909201519091906000620000736001600160e01b036200017e16565b600380546001600160a01b0319166001600160a01b038316908117909155604051919250906000907f8be0079c531659141344cd1fd0a4f28419497f9722a3daafe3b4186f6b6457e0908290a350600580546001600160a01b038086166001600160a01b0319928316179092556000805492851692909116821790556008829055156200016657816001600160a01b031663313ce5676040518163ffffffff1660e01b815260040160206040518083038186803b1580156200013457600080fd5b505afa15801562000149573d6000803e3d6000fd5b505050506040513d60208110156200016057600080fd5b50516007555b600754600a0a606402600d8190555050505062000182565b3390565b611c6e80620001926000396000f3fe6080604052600436106101e25760003560e01c80638b87634711610102578063df136d6511610095578063f2fde38b11610064578063f2fde38b14610599578063fc0c546a146105cc578063fc436c7e146105e1578063fc7e286d146105f6576101e2565b8063df136d651461052a578063e4a301161461053f578063e9fad8ee1461056f578063ebe2b12b14610584576101e2565b8063a694fc3a116100d1578063a694fc3a146104b0578063c8f33c91146104cd578063cd3daf9d146104e2578063cd594c00146104f7576101e2565b80638b8763471461042d5780638da58897146104605780638da5cb5b14610475578063946fe3e81461048a576101e2565b8063313ce5671161017a57806370a082311161014957806370a08231146103bb578063715018a6146103ee5780637b0a47ee1461040357806380faa57d14610418576101e2565b8063313ce567146103525780633c6b16ab146103675780633d18b9121461039157806352342f13146103a6576101e2565b806318160ddd116101b657806318160ddd146102c55780631be05289146102da57806323628b57146102ef5780632e1a7d4d14610328576101e2565b80628cc262146101e75780630700037d1461022c5780630d68b7611461025f578063101114cf14610294575b600080fd5b3480156101f357600080fd5b5061021a6004803603602081101561020a57600080fd5b50356001600160a01b0316610629565b60408051918252519081900360200190f35b34801561023857600080fd5b5061021a6004803603602081101561024f57600080fd5b50356001600160a01b03166106af565b34801561026b57600080fd5b506102926004803603602081101561028257600080fd5b50356001600160a01b03166106c1565b005b3480156102a057600080fd5b506102a9610745565b604080516001600160a01b039092168252519081900360200190f35b3480156102d157600080fd5b5061021a610754565b3480156102e657600080fd5b5061021a61075b565b3480156102fb57600080fd5b506102a96004803603604081101561031257600080fd5b506001600160a01b038135169060200135610761565b34801561033457600080fd5b506102926004803603602081101561034b57600080fd5b5035610796565b34801561035e57600080fd5b5061021a6108f8565b34801561037357600080fd5b506102926004803603602081101561038a57600080fd5b50356108fe565b34801561039d57600080fd5b50610292610af2565b3480156103b257600080fd5b5061021a610c06565b3480156103c757600080fd5b5061021a600480360360208110156103de57600080fd5b50356001600160a01b0316610c0c565b3480156103fa57600080fd5b50610292610c27565b34801561040f57600080fd5b5061021a610cd3565b34801561042457600080fd5b5061021a610cd9565b34801561043957600080fd5b5061021a6004803603602081101561045057600080fd5b50356001600160a01b0316610cec565b34801561046c57600080fd5b5061021a610cfe565b34801561048157600080fd5b506102a9610d04565b610292600480360360208110156104a057600080fd5b50356001600160a01b0316610d13565b610292600480360360208110156104c657600080fd5b5035611045565b3480156104d957600080fd5b5061021a61120c565b3480156104ee57600080fd5b5061021a611212565b34801561050357600080fd5b5061021a6004803603602081101561051a57600080fd5b50356001600160a01b0316611266565b34801561053657600080fd5b5061021a611281565b34801561054b57600080fd5b506102926004803603604081101561056257600080fd5b5080359060200135611287565b34801561057b57600080fd5b506102926112f4565b34801561059057600080fd5b5061021a61130f565b3480156105a557600080fd5b50610292600480360360208110156105bc57600080fd5b50356001600160a01b0316611315565b3480156105d857600080fd5b506102a9611418565b3480156105ed57600080fd5b506102a9611427565b34801561060257600080fd5b5061021a6004803603602081101561061957600080fd5b50356001600160a01b0316611436565b6001600160a01b0381166000908152600f6020908152604080832054600e9092528220546106a9919061069d90670de0b6b3a7640000906106919061067c90610670611212565b9063ffffffff61144816565b61068588610c0c565b9063ffffffff6114a516565b9063ffffffff61150516565b9063ffffffff61156c16565b92915050565b600f6020526000908152604090205481565b6106c96115c6565b6001600160a01b03166106da610d04565b6001600160a01b031614610723576040805162461bcd60e51b81526020600482018190526024820152600080516020611bce833981519152604482015290519081900360640190fd5b600480546001600160a01b0319166001600160a01b0392909216919091179055565b6004546001600160a01b031681565b6001545b90565b60065481565b6011602052816000526040600020818154811061077a57fe5b6000918252602090912001546001600160a01b03169150829050565b3361079f611212565b600c556107aa610cd9565b600b556001600160a01b038116156107f1576107c581610629565b6001600160a01b0382166000908152600f6020908152604080832093909355600c54600e909152919020555b600854421015610834576040805162461bcd60e51b8152602060048201526009602482015268139bdd081cdd185c9d60ba1b604482015290519081900360640190fd5b6000821161087d576040805162461bcd60e51b8152602060048201526011602482015270043616e6e6f74207769746864726177203607c1b604482015290519081900360640190fd5b3360009081526010602052604090205461089d908363ffffffff61144816565b336000908152601060205260409020556108b6826115ca565b6108be610af2565b60408051838152905133917f7084f5476618d8e60b11ef0d7d3f06914655adb8793e28ff7f018d4c76d505d5919081900360200190a25050565b60075481565b6004546001600160a01b03166109126115c6565b6001600160a01b0316146109575760405162461bcd60e51b8152600401808060200182810382526021815260200180611bee6021913960400191505060405180910390fd5b6000610961611212565b600c5561096c610cd9565b600b556001600160a01b038116156109b35761098781610629565b6001600160a01b0382166000908152600f6020908152604080832093909355600c54600e909152919020555b600854421115610a855760095442106109e2576006546109da90839063ffffffff61150516565b600a55610a31565b6009546000906109f8904263ffffffff61144816565b90506000610a11600a54836114a590919063ffffffff16565b600654909150610a2b90610691868463ffffffff61156c16565b600a5550505b42600b819055600654610a4a919063ffffffff61156c16565b6009556040805183815290517fde88a922e0d3b88b24e9623efeb464919c6bf9f66857a65e2bfcf2ce87a9433d9181900360200190a1610aee565b600654610a9990839063ffffffff61150516565b600a55600854600b819055600654610ab7919063ffffffff61156c16565b6009556040805183815290517fde88a922e0d3b88b24e9623efeb464919c6bf9f66857a65e2bfcf2ce87a9433d9181900360200190a15b5050565b33610afb611212565b600c55610b06610cd9565b600b556001600160a01b03811615610b4d57610b2181610629565b6001600160a01b0382166000908152600f6020908152604080832093909355600c54600e909152919020555b600854421015610b90576040805162461bcd60e51b8152602060048201526009602482015268139bdd081cdd185c9d60ba1b604482015290519081900360640190fd5b6000610b9b33610629565b90508015610aee57336000818152600f6020526040812055600554610bcc916001600160a01b039091169083611650565b60408051828152905133917fe2403640ba68fed3a2f88b7557551d1993f84b99bb10ff833f0cf8db0c5e0486919081900360200190a25050565b600d5481565b6001600160a01b031660009081526002602052604090205490565b610c2f6115c6565b6001600160a01b0316610c40610d04565b6001600160a01b031614610c89576040805162461bcd60e51b81526020600482018190526024820152600080516020611bce833981519152604482015290519081900360640190fd5b6003546040516000916001600160a01b0316907f8be0079c531659141344cd1fd0a4f28419497f9722a3daafe3b4186f6b6457e0908390a3600380546001600160a01b0319169055565b600a5481565b6000610ce7426009546116a7565b905090565b600e6020526000908152604090205481565b60085481565b6003546001600160a01b031690565b33610d1c611212565b600c55610d27610cd9565b600b556001600160a01b03811615610d6e57610d4281610629565b6001600160a01b0382166000908152600f6020908152604080832093909355600c54600e909152919020555b600854421015610db1576040805162461bcd60e51b8152602060048201526009602482015268139bdd081cdd185c9d60ba1b604482015290519081900360640190fd5b60003411610df7576040805162461bcd60e51b815260206004820152600e60248201526d043616e6e6f74207374616b6520360941b604482015290519081900360640190fd5b6000546001600160a01b031615610e45576040805162461bcd60e51b815260206004820152600d60248201526c24b73b30b634b2103a37b5b2b760991b604482015290519081900360640190fd5b33600090815260106020526040812054610e65903463ffffffff61156c16565b6001600160a01b038416600090815260116020526040902054600d54919250610e9f919068056bc75e2d631000000263ffffffff61156c16565b811115610ef3576040805162461bcd60e51b815260206004820152601e60248201527f4465706f73697420616d6f756e742065786365656473206d6178696d756d0000604482015290519081900360640190fd5b336000908152601060205260409020819055610f0e346116bd565b6001600160a01b03831615801590610f2f57506001600160a01b0383163314155b8015610f5457506001600160a01b038316600090815260116020526040902054600310155b1561100a576000805b6001600160a01b038516600090815260116020526040902054811015610fc9576001600160a01b0385166000818152601160205260409020805483908110610fa157fe5b6000918252602090912001546001600160a01b03161415610fc157600191505b600101610f5d565b5080611008576001600160a01b03841660009081526011602090815260408220805460018101825590835291200180546001600160a01b031916331790555b505b60408051348152905133917f9e71bc8eea02a63969f509818f2dafb9254532904319f9dbda79b67bd34a5f3d919081900360200190a2505050565b3361104e611212565b600c55611059610cd9565b600b556001600160a01b038116156110a05761107481610629565b6001600160a01b0382166000908152600f6020908152604080832093909355600c54600e909152919020555b6008544210156110e3576040805162461bcd60e51b8152602060048201526009602482015268139bdd081cdd185c9d60ba1b604482015290519081900360640190fd5b6000546001600160a01b03166110f7573491505b6000821161113d576040805162461bcd60e51b815260206004820152600e60248201526d043616e6e6f74207374616b6520360941b604482015290519081900360640190fd5b3360009081526010602052604081205461115d908463ffffffff61156c16565b9050600d548111156111b6576040805162461bcd60e51b815260206004820152601e60248201527f4465706f73697420616d6f756e742065786365656473206d6178696d756d0000604482015290519081900360640190fd5b3360009081526010602052604090208190556111d1836116bd565b60408051848152905133917f9e71bc8eea02a63969f509818f2dafb9254532904319f9dbda79b67bd34a5f3d919081900360200190a2505050565b600b5481565b600061121c610754565b6112295750600c54610758565b610ce7611257611237610754565b610691670de0b6b3a7640000610685600a54610685600b54610670610cd9565b600c549063ffffffff61156c16565b6001600160a01b031660009081526011602052604090205490565b600c5481565b61128f6115c6565b6001600160a01b03166112a0610d04565b6001600160a01b0316146112e9576040805162461bcd60e51b81526020600482018190526024820152600080516020611bce833981519152604482015290519081900360640190fd5b600891909155600d55565b61130561130033610c0c565b610796565b61130d610af2565b565b60095481565b61131d6115c6565b6001600160a01b031661132e610d04565b6001600160a01b031614611377576040805162461bcd60e51b81526020600482018190526024820152600080516020611bce833981519152604482015290519081900360640190fd5b6001600160a01b0381166113bc5760405162461bcd60e51b8152600401808060200182810382526026815260200180611b616026913960400191505060405180910390fd5b6003546040516001600160a01b038084169216907f8be0079c531659141344cd1fd0a4f28419497f9722a3daafe3b4186f6b6457e090600090a3600380546001600160a01b0319166001600160a01b0392909216919091179055565b6000546001600160a01b031681565b6005546001600160a01b031681565b60106020526000908152604090205481565b60008282111561149f576040805162461bcd60e51b815260206004820152601e60248201527f536166654d6174683a207375627472616374696f6e206f766572666c6f770000604482015290519081900360640190fd5b50900390565b6000826114b4575060006106a9565b828202828482816114c157fe5b04146114fe5760405162461bcd60e51b8152600401808060200182810382526021815260200180611bad6021913960400191505060405180910390fd5b9392505050565b600080821161155b576040805162461bcd60e51b815260206004820152601a60248201527f536166654d6174683a206469766973696f6e206279207a65726f000000000000604482015290519081900360640190fd5b81838161156457fe5b049392505050565b6000828201838110156114fe576040805162461bcd60e51b815260206004820152601b60248201527f536166654d6174683a206164646974696f6e206f766572666c6f770000000000604482015290519081900360640190fd5b3390565b6001546115dd908263ffffffff61144816565b60015533600090815260026020526040902054611600908263ffffffff61144816565b33600090815260026020526040812091909155546001600160a01b03166116305761162b3382611733565b61164d565b60005461164d906001600160a01b0316338363ffffffff61165016565b50565b604080516001600160a01b038416602482015260448082018490528251808303909101815260649091019091526020810180516001600160e01b031663a9059cbb60e01b1790526116a2908490611832565b505050565b60008183106116b657816114fe565b5090919050565b6001546116d0908263ffffffff61156c16565b600155336000908152600260205260409020546116f3908263ffffffff61156c16565b33600090815260026020526040812091909155546001600160a01b03161561164d5760005461164d906001600160a01b031633308463ffffffff6118e316565b604080516000808252602082019092526001600160a01b0384169083906040518082805190602001908083835b6020831061177f5780518252601f199092019160209182019101611760565b6001836020036101000a03801982511681845116808217855250505050505090500191505060006040518083038185875af1925050503d80600081146117e1576040519150601f19603f3d011682016040523d82523d6000602084013e6117e6565b606091505b50509050806116a2576040805162461bcd60e51b815260206004820152601360248201527211551217d514905394d1915497d19052531151606a1b604482015290519081900360640190fd5b6060611887826040518060400160405280602081526020017f5361666545524332303a206c6f772d6c6576656c2063616c6c206661696c6564815250856001600160a01b03166119439092919063ffffffff16565b8051909150156116a2578080602001905160208110156118a657600080fd5b50516116a25760405162461bcd60e51b815260040180806020018281038252602a815260200180611c0f602a913960400191505060405180910390fd5b604080516001600160a01b0380861660248301528416604482015260648082018490528251808303909101815260849091019091526020810180516001600160e01b03166323b872dd60e01b17905261193d908590611832565b50505050565b6060611952848460008561195a565b949350505050565b60608247101561199b5760405162461bcd60e51b8152600401808060200182810382526026815260200180611b876026913960400191505060405180910390fd5b6119a485611ab6565b6119f5576040805162461bcd60e51b815260206004820152601d60248201527f416464726573733a2063616c6c20746f206e6f6e2d636f6e7472616374000000604482015290519081900360640190fd5b60006060866001600160a01b031685876040518082805190602001908083835b60208310611a345780518252601f199092019160209182019101611a15565b6001836020036101000a03801982511681845116808217855250505050505090500191505060006040518083038185875af1925050503d8060008114611a96576040519150601f19603f3d011682016040523d82523d6000602084013e611a9b565b606091505b5091509150611aab828286611abc565b979650505050505050565b3b151590565b60608315611acb5750816114fe565b825115611adb5782518084602001fd5b8160405162461bcd60e51b81526004018080602001828103825283818151815260200191508051906020019080838360005b83811015611b25578181015183820152602001611b0d565b50505050905090810190601f168015611b525780820380516001836020036101000a031916815260200191505b509250505060405180910390fdfe4f776e61626c653a206e6577206f776e657220697320746865207a65726f2061646472657373416464726573733a20696e73756666696369656e742062616c616e636520666f722063616c6c536166654d6174683a206d756c7469706c69636174696f6e206f766572666c6f774f776e61626c653a2063616c6c6572206973206e6f7420746865206f776e657243616c6c6572206973206e6f742072657761726420646973747269627574696f6e5361666545524332303a204552433230206f7065726174696f6e20646964206e6f742073756363656564a2646970667358221220e410644ddbbec12dbc1e691e6079399a78b3023d549e6219435961bb0faf74a364736f6c63430006020033",
  "linkReferences": {},
  "deployedLinkReferences": {}
}