{
  "_format": "hh-sol-artifact-1",
  "contractName": "OKTPool",
  "sourceName": "contracts/Pool/OKTPool.sol",
  "abi": [
    {
      "inputs": [
        {
          "internalType": "address",
          "name": "Lemd_",
          "type": "address"
        },
        {
          "internalType": "address",
          "name": "token_",
          "type": "address"
        },
        {
          "internalType": "uint256",
          "name": "starttime_",
          "type": "uint256"
        }
      ],
      "stateMutability": "nonpayable",
      "type": "constructor"
    },
    {
      "anonymous": false,
      "inputs": [
        {
          "indexed": true,
          "internalType": "address",
          "name": "previousOwner",
          "type": "address"
        },
        {
          "indexed": true,
          "internalType": "address",
          "name": "newOwner",
          "type": "address"
        }
      ],
      "name": "OwnershipTransferred",
      "type": "event"
    },
    {
      "anonymous": false,
      "inputs": [
        {
          "indexed": false,
          "internalType": "uint256",
          "name": "reward",
          "type": "uint256"
        }
      ],
      "name": "RewardAdded",
      "type": "event"
    },
    {
      "anonymous": false,
      "inputs": [
        {
          "indexed": true,
          "internalType": "address",
          "name": "user",
          "type": "address"
        },
        {
          "indexed": false,
          "internalType": "uint256",
          "name": "reward",
          "type": "uint256"
        }
      ],
      "name": "RewardPaid",
      "type": "event"
    },
    {
      "anonymous": false,
      "inputs": [
        {
          "indexed": true,
          "internalType": "address",
          "name": "user",
          "type": "address"
        },
        {
          "indexed": false,
          "internalType": "uint256",
          "name": "amount",
          "type": "uint256"
        }
      ],
      "name": "Staked",
      "type": "event"
    },
    {
      "anonymous": false,
      "inputs": [
        {
          "indexed": true,
          "internalType": "address",
          "name": "user",
          "type": "address"
        },
        {
          "indexed": false,
          "internalType": "uint256",
          "name": "amount",
          "type": "uint256"
        }
      ],
      "name": "Withdrawn",
      "type": "event"
    },
    {
      "inputs": [],
      "name": "DURATION",
      "outputs": [
        {
          "internalType": "uint256",
          "name": "",
          "type": "uint256"
        }
      ],
      "stateMutability": "view",
      "type": "function"
    },
    {
      "inputs": [],
      "name": "Lemd",
      "outputs": [
        {
          "internalType": "contract IERC20",
          "name": "",
          "type": "address"
        }
      ],
      "stateMutability": "view",
      "type": "function"
    },
    {
      "inputs": [
        {
          "internalType": "address",
          "name": "account",
          "type": "address"
        }
      ],
      "name": "balanceOf",
      "outputs": [
        {
          "internalType": "uint256",
          "name": "",
          "type": "uint256"
        }
      ],
      "stateMutability": "view",
      "type": "function"
    },
    {
      "inputs": [],
      "name": "decimals",
      "outputs": [
        {
          "internalType": "uint256",
          "name": "",
          "type": "uint256"
        }
      ],
      "stateMutability": "view",
      "type": "function"
    },
    {
      "inputs": [
        {
          "internalType": "address",
          "name": "",
          "type": "address"
        }
      ],
      "name": "deposits",
      "outputs": [
        {
          "internalType": "uint256",
          "name": "",
          "type": "uint256"
        }
      ],
      "stateMutability": "view",
      "type": "function"
    },
    {
      "inputs": [
        {
          "internalType": "address",
          "name": "account",
          "type": "address"
        }
      ],
      "name": "earned",
      "outputs": [
        {
          "internalType": "uint256",
          "name": "",
          "type": "uint256"
        }
      ],
      "stateMutability": "view",
      "type": "function"
    },
    {
      "inputs": [],
      "name": "exit",
      "outputs": [],
      "stateMutability": "nonpayable",
      "type": "function"
    },
    {
      "inputs": [],
      "name": "getReward",
      "outputs": [],
      "stateMutability": "nonpayable",
      "type": "function"
    },
    {
      "inputs": [
        {
          "internalType": "address",
          "name": "inviter",
          "type": "address"
        }
      ],
      "name": "getTotalInviteCount",
      "outputs": [
        {
          "internalType": "uint256",
          "name": "",
          "type": "uint256"
        }
      ],
      "stateMutability": "view",
      "type": "function"
    },
    {
      "inputs": [
        {
          "internalType": "uint256",
          "name": "starttime_",
          "type": "uint256"
        },
        {
          "internalType": "uint256",
          "name": "maximum_",
          "type": "uint256"
        }
      ],
      "name": "initialize",
      "outputs": [],
      "stateMutability": "nonpayable",
      "type": "function"
    },
    {
      "inputs": [
        {
          "internalType": "address",
          "name": "",
          "type": "address"
        },
        {
          "internalType": "uint256",
          "name": "",
          "type": "uint256"
        }
      ],
      "name": "invites",
      "outputs": [
        {
          "internalType": "address",
          "name": "",
          "type": "address"
        }
      ],
      "stateMutability": "view",
      "type": "function"
    },
    {
      "inputs": [],
      "name": "lastTimeRewardApplicable",
      "outputs": [
        {
          "internalType": "uint256",
          "name": "",
          "type": "uint256"
        }
      ],
      "stateMutability": "view",
      "type": "function"
    },
    {
      "inputs": [],
      "name": "lastUpdateTime",
      "outputs": [
        {
          "internalType": "uint256",
          "name": "",
          "type": "uint256"
        }
      ],
      "stateMutability": "view",
      "type": "function"
    },
    {
      "inputs": [],
      "name": "maximum",
      "outputs": [
        {
          "internalType": "uint256",
          "name": "",
          "type": "uint256"
        }
      ],
      "stateMutability": "view",
      "type": "function"
    },
    {
      "inputs": [
        {
          "internalType": "uint256",
          "name": "reward",
          "type": "uint256"
        }
      ],
      "name": "notifyRewardAmount",
      "outputs": [],
      "stateMutability": "nonpayable",
      "type": "function"
    },
    {
      "inputs": [],
      "name": "owner",
      "outputs": [
        {
          "internalType": "address",
          "name": "",
          "type": "address"
        }
      ],
      "stateMutability": "view",
      "type": "function"
    },
    {
      "inputs": [],
      "name": "periodFinish",
      "outputs": [
        {
          "internalType": "uint256",
          "name": "",
          "type": "uint256"
        }
      ],
      "stateMutability": "view",
      "type": "function"
    },
    {
      "inputs": [],
      "name": "renounceOwnership",
      "outputs": [],
      "stateMutability": "nonpayable",
      "type": "function"
    },
    {
      "inputs": [],
      "name": "rewardDistribution",
      "outputs": [
        {
          "internalType": "address",
          "name": "",
          "type": "address"
        }
      ],
      "stateMutability": "view",
      "type": "function"
    },
    {
      "inputs": [],
      "name": "rewardPerToken",
      "outputs": [
        {
          "internalType": "uint256",
          "name": "",
          "type": "uint256"
        }
      ],
      "stateMutability": "view",
      "type": "function"
    },
    {
      "inputs": [],
      "name": "rewardPerTokenStored",
      "outputs": [
        {
          "internalType": "uint256",
          "name": "",
          "type": "uint256"
        }
      ],
      "stateMutability": "view",
      "type": "function"
    },
    {
      "inputs": [],
      "name": "rewardRate",
      "outputs": [
        {
          "internalType": "uint256",
          "name": "",
          "type": "uint256"
        }
      ],
      "stateMutability": "view",
      "type": "function"
    },
    {
      "inputs": [
        {
          "internalType": "address",
          "name": "",
          "type": "address"
        }
      ],
      "name": "rewards",
      "outputs": [
        {
          "internalType": "uint256",
          "name": "",
          "type": "uint256"
        }
      ],
      "stateMutability": "view",
      "type": "function"
    },
    {
      "inputs": [
        {
          "internalType": "address",
          "name": "_rewardDistribution",
          "type": "address"
        }
      ],
      "name": "setRewardDistribution",
      "outputs": [],
      "stateMutability": "nonpayable",
      "type": "function"
    },
    {
      "inputs": [
        {
          "internalType": "uint256",
          "name": "amount",
          "type": "uint256"
        }
      ],
      "name": "stake",
      "outputs": [],
      "stateMutability": "payable",
      "type": "function"
    },
    {
      "inputs": [
        {
          "internalType": "address",
          "name": "inviter",
          "type": "address"
        }
      ],
      "name": "stakeETH",
      "outputs": [],
      "stateMutability": "payable",
      "type": "function"
    },
    {
      "inputs": [],
      "name": "starttime",
      "outputs": [
        {
          "internalType": "uint256",
          "name": "",
          "type": "uint256"
        }
      ],
      "stateMutability": "view",
      "type": "function"
    },
    {
      "inputs": [],
      "name": "token",
      "outputs": [
        {
          "internalType": "contract IERC20",
          "name": "",
          "type": "address"
        }
      ],
      "stateMutability": "view",
      "type": "function"
    },
    {
      "inputs": [],
      "name": "totalSupply",
      "outputs": [
        {
          "internalType": "uint256",
          "name": "",
          "type": "uint256"
        }
      ],
      "stateMutability": "view",
      "type": "function"
    },
    {
      "inputs": [
        {
          "internalType": "address",
          "name": "newOwner",
          "type": "address"
        }
      ],
      "name": "transferOwnership",
      "outputs": [],
      "stateMutability": "nonpayable",
      "type": "function"
    },
    {
      "inputs": [
        {
          "internalType": "address",
          "name": "",
          "type": "address"
        }
      ],
      "name": "userRewardPerTokenPaid",
      "outputs": [
        {
          "internalType": "uint256",
          "name": "",
          "type": "uint256"
        }
      ],
      "stateMutability": "view",
      "type": "function"
    },
    {
      "inputs": [
        {
          "internalType": "uint256",
          "name": "amount",
          "type": "uint256"
        }
      ],
      "name": "withdraw",
      "outputs": [],
      "stateMutability": "nonpayable",
      "type": "function"
    }
  ],
  "bytecode": "0x6080604052620d2f00600655601260075560006009556000600a553480156200002757600080fd5b5060405162001d7938038062001d79833981810160405260608110156200004d57600080fd5b508051602082015160409092015190919060006200006a62000175565b600380546001600160a01b0319166001600160a01b038316908117909155604051919250906000907f8be0079c531659141344cd1fd0a4f28419497f9722a3daafe3b4186f6b6457e0908290a350600580546001600160a01b038086166001600160a01b0319928316179092556000805492851692909116821790556008829055156200015d57816001600160a01b031663313ce5676040518163ffffffff1660e01b815260040160206040518083038186803b1580156200012b57600080fd5b505afa15801562000140573d6000803e3d6000fd5b505050506040513d60208110156200015757600080fd5b50516007555b600754600a0a606402600d8190555050505062000179565b3390565b611bf080620001896000396000f3fe6080604052600436106101e25760003560e01c80638b87634711610102578063df136d6511610095578063f2fde38b11610064578063f2fde38b14610599578063fc0c546a146105cc578063fc436c7e146105e1578063fc7e286d146105f6576101e2565b8063df136d651461052a578063e4a301161461053f578063e9fad8ee1461056f578063ebe2b12b14610584576101e2565b8063a694fc3a116100d1578063a694fc3a146104b0578063c8f33c91146104cd578063cd3daf9d146104e2578063cd594c00146104f7576101e2565b80638b8763471461042d5780638da58897146104605780638da5cb5b14610475578063946fe3e81461048a576101e2565b8063313ce5671161017a57806370a082311161014957806370a08231146103bb578063715018a6146103ee5780637b0a47ee1461040357806380faa57d14610418576101e2565b8063313ce567146103525780633c6b16ab146103675780633d18b9121461039157806352342f13146103a6576101e2565b806318160ddd116101b657806318160ddd146102c55780631be05289146102da57806323628b57146102ef5780632e1a7d4d14610328576101e2565b80628cc262146101e75780630700037d1461022c5780630d68b7611461025f578063101114cf14610294575b600080fd5b3480156101f357600080fd5b5061021a6004803603602081101561020a57600080fd5b50356001600160a01b0316610629565b60408051918252519081900360200190f35b34801561023857600080fd5b5061021a6004803603602081101561024f57600080fd5b50356001600160a01b0316610697565b34801561026b57600080fd5b506102926004803603602081101561028257600080fd5b50356001600160a01b03166106a9565b005b3480156102a057600080fd5b506102a961072d565b604080516001600160a01b039092168252519081900360200190f35b3480156102d157600080fd5b5061021a61073c565b3480156102e657600080fd5b5061021a610743565b3480156102fb57600080fd5b506102a96004803603604081101561031257600080fd5b506001600160a01b038135169060200135610749565b34801561033457600080fd5b506102926004803603602081101561034b57600080fd5b503561077e565b34801561035e57600080fd5b5061021a6108da565b34801561037357600080fd5b506102926004803603602081101561038a57600080fd5b50356108e0565b34801561039d57600080fd5b50610292610ab0565b3480156103b257600080fd5b5061021a610bc4565b3480156103c757600080fd5b5061021a600480360360208110156103de57600080fd5b50356001600160a01b0316610bca565b3480156103fa57600080fd5b50610292610be5565b34801561040f57600080fd5b5061021a610c91565b34801561042457600080fd5b5061021a610c97565b34801561043957600080fd5b5061021a6004803603602081101561045057600080fd5b50356001600160a01b0316610caa565b34801561046c57600080fd5b5061021a610cbc565b34801561048157600080fd5b506102a9610cc2565b610292600480360360208110156104a057600080fd5b50356001600160a01b0316610cd1565b610292600480360360208110156104c657600080fd5b5035610ff7565b3480156104d957600080fd5b5061021a6111b8565b3480156104ee57600080fd5b5061021a6111be565b34801561050357600080fd5b5061021a6004803603602081101561051a57600080fd5b50356001600160a01b031661120c565b34801561053657600080fd5b5061021a611227565b34801561054b57600080fd5b506102926004803603604081101561056257600080fd5b508035906020013561122d565b34801561057b57600080fd5b5061029261129a565b34801561059057600080fd5b5061021a6112b5565b3480156105a557600080fd5b50610292600480360360208110156105bc57600080fd5b50356001600160a01b03166112bb565b3480156105d857600080fd5b506102a96113be565b3480156105ed57600080fd5b506102a96113cd565b34801561060257600080fd5b5061021a6004803603602081101561061957600080fd5b50356001600160a01b03166113dc565b6001600160a01b0381166000908152600f6020908152604080832054600e909252822054610691919061068b90670de0b6b3a76400009061068590610676906106706111be565b906113ee565b61067f88610bca565b9061144b565b906114ab565b90611512565b92915050565b600f6020526000908152604090205481565b6106b161156c565b6001600160a01b03166106c2610cc2565b6001600160a01b03161461070b576040805162461bcd60e51b81526020600482018190526024820152600080516020611b50833981519152604482015290519081900360640190fd5b600480546001600160a01b0319166001600160a01b0392909216919091179055565b6004546001600160a01b031681565b6001545b90565b60065481565b6011602052816000526040600020818154811061076257fe5b6000918252602090912001546001600160a01b03169150829050565b336107876111be565b600c55610792610c97565b600b556001600160a01b038116156107d9576107ad81610629565b6001600160a01b0382166000908152600f6020908152604080832093909355600c54600e909152919020555b60085442101561081c576040805162461bcd60e51b8152602060048201526009602482015268139bdd081cdd185c9d60ba1b604482015290519081900360640190fd5b60008211610865576040805162461bcd60e51b8152602060048201526011602482015270043616e6e6f74207769746864726177203607c1b604482015290519081900360640190fd5b3360009081526010602052604090205461087f90836113ee565b3360009081526010602052604090205561089882611570565b6108a0610ab0565b60408051838152905133917f7084f5476618d8e60b11ef0d7d3f06914655adb8793e28ff7f018d4c76d505d5919081900360200190a25050565b60075481565b6004546001600160a01b03166108f461156c565b6001600160a01b0316146109395760405162461bcd60e51b8152600401808060200182810382526021815260200180611b706021913960400191505060405180910390fd5b60006109436111be565b600c5561094e610c97565b600b556001600160a01b038116156109955761096981610629565b6001600160a01b0382166000908152600f6020908152604080832093909355600c54600e909152919020555b600854421115610a4f5760095442106109be576006546109b69083906114ab565b600a55610a01565b6009546000906109ce90426113ee565b905060006109e7600a548361144b90919063ffffffff16565b6006549091506109fb906106858684611512565b600a5550505b42600b819055600654610a149190611512565b6009556040805183815290517fde88a922e0d3b88b24e9623efeb464919c6bf9f66857a65e2bfcf2ce87a9433d9181900360200190a1610aac565b600654610a5d9083906114ab565b600a55600854600b819055600654610a759190611512565b6009556040805183815290517fde88a922e0d3b88b24e9623efeb464919c6bf9f66857a65e2bfcf2ce87a9433d9181900360200190a15b5050565b33610ab96111be565b600c55610ac4610c97565b600b556001600160a01b03811615610b0b57610adf81610629565b6001600160a01b0382166000908152600f6020908152604080832093909355600c54600e909152919020555b600854421015610b4e576040805162461bcd60e51b8152602060048201526009602482015268139bdd081cdd185c9d60ba1b604482015290519081900360640190fd5b6000610b5933610629565b90508015610aac57336000818152600f6020526040812055600554610b8a916001600160a01b0390911690836115e4565b60408051828152905133917fe2403640ba68fed3a2f88b7557551d1993f84b99bb10ff833f0cf8db0c5e0486919081900360200190a25050565b600d5481565b6001600160a01b031660009081526002602052604090205490565b610bed61156c565b6001600160a01b0316610bfe610cc2565b6001600160a01b031614610c47576040805162461bcd60e51b81526020600482018190526024820152600080516020611b50833981519152604482015290519081900360640190fd5b6003546040516000916001600160a01b0316907f8be0079c531659141344cd1fd0a4f28419497f9722a3daafe3b4186f6b6457e0908390a3600380546001600160a01b0319169055565b600a5481565b6000610ca54260095461163b565b905090565b600e6020526000908152604090205481565b60085481565b6003546001600160a01b031690565b33610cda6111be565b600c55610ce5610c97565b600b556001600160a01b03811615610d2c57610d0081610629565b6001600160a01b0382166000908152600f6020908152604080832093909355600c54600e909152919020555b600854421015610d6f576040805162461bcd60e51b8152602060048201526009602482015268139bdd081cdd185c9d60ba1b604482015290519081900360640190fd5b60003411610db5576040805162461bcd60e51b815260206004820152600e60248201526d043616e6e6f74207374616b6520360941b604482015290519081900360640190fd5b6000546001600160a01b031615610e03576040805162461bcd60e51b815260206004820152600d60248201526c24b73b30b634b2103a37b5b2b760991b604482015290519081900360640190fd5b33600090815260106020526040812054610e1d9034611512565b6001600160a01b038416600090815260116020526040902054600d54919250610e51919068056bc75e2d6310000002611512565b811115610ea5576040805162461bcd60e51b815260206004820152601e60248201527f4465706f73697420616d6f756e742065786365656473206d6178696d756d0000604482015290519081900360640190fd5b336000908152601060205260409020819055610ec034611651565b6001600160a01b03831615801590610ee157506001600160a01b0383163314155b8015610f0657506001600160a01b038316600090815260116020526040902054600310155b15610fbc576000805b6001600160a01b038516600090815260116020526040902054811015610f7b576001600160a01b0385166000818152601160205260409020805483908110610f5357fe5b6000918252602090912001546001600160a01b03161415610f7357600191505b600101610f0f565b5080610fba576001600160a01b03841660009081526011602090815260408220805460018101825590835291200180546001600160a01b031916331790555b505b60408051348152905133917f9e71bc8eea02a63969f509818f2dafb9254532904319f9dbda79b67bd34a5f3d919081900360200190a2505050565b336110006111be565b600c5561100b610c97565b600b556001600160a01b038116156110525761102681610629565b6001600160a01b0382166000908152600f6020908152604080832093909355600c54600e909152919020555b600854421015611095576040805162461bcd60e51b8152602060048201526009602482015268139bdd081cdd185c9d60ba1b604482015290519081900360640190fd5b6000546001600160a01b03166110a9573491505b600082116110ef576040805162461bcd60e51b815260206004820152600e60248201526d043616e6e6f74207374616b6520360941b604482015290519081900360640190fd5b336000908152601060205260408120546111099084611512565b9050600d54811115611162576040805162461bcd60e51b815260206004820152601e60248201527f4465706f73697420616d6f756e742065786365656473206d6178696d756d0000604482015290519081900360640190fd5b33600090815260106020526040902081905561117d83611651565b60408051848152905133917f9e71bc8eea02a63969f509818f2dafb9254532904319f9dbda79b67bd34a5f3d919081900360200190a2505050565b600b5481565b60006111c861073c565b6111d55750600c54610740565b610ca56112036111e361073c565b610685670de0b6b3a764000061067f600a5461067f600b54610670610c97565b600c5490611512565b6001600160a01b031660009081526011602052604090205490565b600c5481565b61123561156c565b6001600160a01b0316611246610cc2565b6001600160a01b03161461128f576040805162461bcd60e51b81526020600482018190526024820152600080516020611b50833981519152604482015290519081900360640190fd5b600891909155600d55565b6112ab6112a633610bca565b61077e565b6112b3610ab0565b565b60095481565b6112c361156c565b6001600160a01b03166112d4610cc2565b6001600160a01b03161461131d576040805162461bcd60e51b81526020600482018190526024820152600080516020611b50833981519152604482015290519081900360640190fd5b6001600160a01b0381166113625760405162461bcd60e51b8152600401808060200182810382526026815260200180611ae36026913960400191505060405180910390fd5b6003546040516001600160a01b038084169216907f8be0079c531659141344cd1fd0a4f28419497f9722a3daafe3b4186f6b6457e090600090a3600380546001600160a01b0319166001600160a01b0392909216919091179055565b6000546001600160a01b031681565b6005546001600160a01b031681565b60106020526000908152604090205481565b600082821115611445576040805162461bcd60e51b815260206004820152601e60248201527f536166654d6174683a207375627472616374696f6e206f766572666c6f770000604482015290519081900360640190fd5b50900390565b60008261145a57506000610691565b8282028284828161146757fe5b04146114a45760405162461bcd60e51b8152600401808060200182810382526021815260200180611b2f6021913960400191505060405180910390fd5b9392505050565b6000808211611501576040805162461bcd60e51b815260206004820152601a60248201527f536166654d6174683a206469766973696f6e206279207a65726f000000000000604482015290519081900360640190fd5b81838161150a57fe5b049392505050565b6000828201838110156114a4576040805162461bcd60e51b815260206004820152601b60248201527f536166654d6174683a206164646974696f6e206f766572666c6f770000000000604482015290519081900360640190fd5b3390565b60015461157d90826113ee565b6001553360009081526002602052604090205461159a90826113ee565b33600090815260026020526040812091909155546001600160a01b03166115ca576115c533826116b5565b6115e1565b6000546115e1906001600160a01b031633836115e4565b50565b604080516001600160a01b038416602482015260448082018490528251808303909101815260649091019091526020810180516001600160e01b031663a9059cbb60e01b1790526116369084906117b4565b505050565b600081831061164a57816114a4565b5090919050565b60015461165e9082611512565b6001553360009081526002602052604090205461167b9082611512565b33600090815260026020526040812091909155546001600160a01b0316156115e1576000546115e1906001600160a01b0316333084611865565b604080516000808252602082019092526001600160a01b0384169083906040518082805190602001908083835b602083106117015780518252601f1990920191602091820191016116e2565b6001836020036101000a03801982511681845116808217855250505050505090500191505060006040518083038185875af1925050503d8060008114611763576040519150601f19603f3d011682016040523d82523d6000602084013e611768565b606091505b5050905080611636576040805162461bcd60e51b815260206004820152601360248201527211551217d514905394d1915497d19052531151606a1b604482015290519081900360640190fd5b6060611809826040518060400160405280602081526020017f5361666545524332303a206c6f772d6c6576656c2063616c6c206661696c6564815250856001600160a01b03166118c59092919063ffffffff16565b8051909150156116365780806020019051602081101561182857600080fd5b50516116365760405162461bcd60e51b815260040180806020018281038252602a815260200180611b91602a913960400191505060405180910390fd5b604080516001600160a01b0380861660248301528416604482015260648082018490528251808303909101815260849091019091526020810180516001600160e01b03166323b872dd60e01b1790526118bf9085906117b4565b50505050565b60606118d484846000856118dc565b949350505050565b60608247101561191d5760405162461bcd60e51b8152600401808060200182810382526026815260200180611b096026913960400191505060405180910390fd5b61192685611a38565b611977576040805162461bcd60e51b815260206004820152601d60248201527f416464726573733a2063616c6c20746f206e6f6e2d636f6e7472616374000000604482015290519081900360640190fd5b60006060866001600160a01b031685876040518082805190602001908083835b602083106119b65780518252601f199092019160209182019101611997565b6001836020036101000a03801982511681845116808217855250505050505090500191505060006040518083038185875af1925050503d8060008114611a18576040519150601f19603f3d011682016040523d82523d6000602084013e611a1d565b606091505b5091509150611a2d828286611a3e565b979650505050505050565b3b151590565b60608315611a4d5750816114a4565b825115611a5d5782518084602001fd5b8160405162461bcd60e51b81526004018080602001828103825283818151815260200191508051906020019080838360005b83811015611aa7578181015183820152602001611a8f565b50505050905090810190601f168015611ad45780820380516001836020036101000a031916815260200191505b509250505060405180910390fdfe4f776e61626c653a206e6577206f776e657220697320746865207a65726f2061646472657373416464726573733a20696e73756666696369656e742062616c616e636520666f722063616c6c536166654d6174683a206d756c7469706c69636174696f6e206f766572666c6f774f776e61626c653a2063616c6c6572206973206e6f7420746865206f776e657243616c6c6572206973206e6f742072657761726420646973747269627574696f6e5361666545524332303a204552433230206f7065726174696f6e20646964206e6f742073756363656564a2646970667358221220bd4218d700d4dfec9ffc934cf95bf8de105c01919fd175b3ac6724870d8eaf5664736f6c634300060c0033",
  "linkReferences": {},
  "deployedLinkReferences": {}
}