{
  "_format": "hh-sol-artifact-1",
  "contractName": "TokenWrapper",
  "sourceName": "contracts/Pool/OKTPool.sol",
  "abi": [
    {
      "inputs": [
        {
          "internalType": "address",
          "name": "account",
          "type": "address"
        }
      ],
      "name": "balanceOf",
      "outputs": [
        {
          "internalType": "uint256",
          "name": "",
          "type": "uint256"
        }
      ],
      "stateMutability": "view",
      "type": "function"
    },
    {
      "inputs": [
        {
          "internalType": "uint256",
          "name": "amount",
          "type": "uint256"
        }
      ],
      "name": "stake",
      "outputs": [],
      "stateMutability": "payable",
      "type": "function"
    },
    {
      "inputs": [],
      "name": "token",
      "outputs": [
        {
          "internalType": "contract IERC20",
          "name": "",
          "type": "address"
        }
      ],
      "stateMutability": "view",
      "type": "function"
    },
    {
      "inputs": [],
      "name": "totalSupply",
      "outputs": [
        {
          "internalType": "uint256",
          "name": "",
          "type": "uint256"
        }
      ],
      "stateMutability": "view",
      "type": "function"
    },
    {
      "inputs": [
        {
          "internalType": "uint256",
          "name": "amount",
          "type": "uint256"
        }
      ],
      "name": "withdraw",
      "outputs": [],
      "stateMutability": "nonpayable",
      "type": "function"
    }
  ],
  "bytecode": "0x608060405234801561001057600080fd5b506107f3806100206000396000f3fe60806040526004361061004a5760003560e01c806318160ddd1461004f5780632e1a7d4d1461007657806370a08231146100a2578063a694fc3a146100d5578063fc0c546a146100f2575b600080fd5b34801561005b57600080fd5b50610064610123565b60408051918252519081900360200190f35b34801561008257600080fd5b506100a06004803603602081101561009957600080fd5b5035610129565b005b3480156100ae57600080fd5b50610064600480360360208110156100c557600080fd5b50356001600160a01b031661019d565b6100a0600480360360208110156100eb57600080fd5b50356101b8565b3480156100fe57600080fd5b5061010761021c565b604080516001600160a01b039092168252519081900360200190f35b60015490565b600154610136908261022b565b60015533600090815260026020526040902054610153908261022b565b33600090815260026020526040812091909155546001600160a01b03166101835761017e3382610288565b61019a565b60005461019a906001600160a01b0316338361038c565b50565b6001600160a01b031660009081526002602052604090205490565b6001546101c590826103de565b600155336000908152600260205260409020546101e290826103de565b33600090815260026020526040812091909155546001600160a01b03161561019a5760005461019a906001600160a01b031633308461043f565b6000546001600160a01b031681565b600082821115610282576040805162461bcd60e51b815260206004820152601e60248201527f536166654d6174683a207375627472616374696f6e206f766572666c6f770000604482015290519081900360640190fd5b50900390565b604080516000808252602082019092526001600160a01b0384169083906040518082805190602001908083835b602083106102d45780518252601f1990920191602091820191016102b5565b6001836020036101000a03801982511681845116808217855250505050505090500191505060006040518083038185875af1925050503d8060008114610336576040519150601f19603f3d011682016040523d82523d6000602084013e61033b565b606091505b5050905080610387576040805162461bcd60e51b815260206004820152601360248201527211551217d514905394d1915497d19052531151606a1b604482015290519081900360640190fd5b505050565b604080516001600160a01b038416602482015260448082018490528251808303909101815260649091019091526020810180516001600160e01b031663a9059cbb60e01b17905261038790849061049f565b600082820183811015610438576040805162461bcd60e51b815260206004820152601b60248201527f536166654d6174683a206164646974696f6e206f766572666c6f770000000000604482015290519081900360640190fd5b9392505050565b604080516001600160a01b0380861660248301528416604482015260648082018490528251808303909101815260849091019091526020810180516001600160e01b03166323b872dd60e01b17905261049990859061049f565b50505050565b60606104f4826040518060400160405280602081526020017f5361666545524332303a206c6f772d6c6576656c2063616c6c206661696c6564815250856001600160a01b03166105509092919063ffffffff16565b8051909150156103875780806020019051602081101561051357600080fd5b50516103875760405162461bcd60e51b815260040180806020018281038252602a815260200180610794602a913960400191505060405180910390fd5b606061055f8484600085610567565b949350505050565b6060824710156105a85760405162461bcd60e51b815260040180806020018281038252602681526020018061076e6026913960400191505060405180910390fd5b6105b1856106c3565b610602576040805162461bcd60e51b815260206004820152601d60248201527f416464726573733a2063616c6c20746f206e6f6e2d636f6e7472616374000000604482015290519081900360640190fd5b60006060866001600160a01b031685876040518082805190602001908083835b602083106106415780518252601f199092019160209182019101610622565b6001836020036101000a03801982511681845116808217855250505050505090500191505060006040518083038185875af1925050503d80600081146106a3576040519150601f19603f3d011682016040523d82523d6000602084013e6106a8565b606091505b50915091506106b88282866106c9565b979650505050505050565b3b151590565b606083156106d8575081610438565b8251156106e85782518084602001fd5b8160405162461bcd60e51b81526004018080602001828103825283818151815260200191508051906020019080838360005b8381101561073257818101518382015260200161071a565b50505050905090810190601f16801561075f5780820380516001836020036101000a031916815260200191505b509250505060405180910390fdfe416464726573733a20696e73756666696369656e742062616c616e636520666f722063616c6c5361666545524332303a204552433230206f7065726174696f6e20646964206e6f742073756363656564a26469706673582212209dc8c770f60f70e37b32f7256f4b26d83017c33917be6e1c348ae79bb8203f6464736f6c634300060c0033",
  "linkReferences": {},
  "deployedLinkReferences": {}
}