{
  "_format": "hh-sol-artifact-1",
  "contractName": "TokenWrapper",
  "sourceName": "contracts/Pool/OKTPool.sol",
  "abi": [
    {
      "inputs": [
        {
          "internalType": "address",
          "name": "account",
          "type": "address"
        }
      ],
      "name": "balanceOf",
      "outputs": [
        {
          "internalType": "uint256",
          "name": "",
          "type": "uint256"
        }
      ],
      "stateMutability": "view",
      "type": "function"
    },
    {
      "inputs": [
        {
          "internalType": "uint256",
          "name": "amount",
          "type": "uint256"
        }
      ],
      "name": "stake",
      "outputs": [],
      "stateMutability": "payable",
      "type": "function"
    },
    {
      "inputs": [],
      "name": "token",
      "outputs": [
        {
          "internalType": "contract IERC20",
          "name": "",
          "type": "address"
        }
      ],
      "stateMutability": "view",
      "type": "function"
    },
    {
      "inputs": [],
      "name": "totalSupply",
      "outputs": [
        {
          "internalType": "uint256",
          "name": "",
          "type": "uint256"
        }
      ],
      "stateMutability": "view",
      "type": "function"
    },
    {
      "inputs": [
        {
          "internalType": "uint256",
          "name": "amount",
          "type": "uint256"
        }
      ],
      "name": "withdraw",
      "outputs": [],
      "stateMutability": "nonpayable",
      "type": "function"
    }
  ],
  "bytecode": "0x608060405234801561001057600080fd5b50610817806100206000396000f3fe60806040526004361061004a5760003560e01c806318160ddd1461004f5780632e1a7d4d1461007657806370a08231146100a2578063a694fc3a146100d5578063fc0c546a146100f2575b600080fd5b34801561005b57600080fd5b50610064610123565b60408051918252519081900360200190f35b34801561008257600080fd5b506100a06004803603602081101561009957600080fd5b5035610129565b005b3480156100ae57600080fd5b50610064600480360360208110156100c557600080fd5b50356001600160a01b03166101af565b6100a0600480360360208110156100eb57600080fd5b50356101ca565b3480156100fe57600080fd5b50610107610240565b604080516001600160a01b039092168252519081900360200190f35b60015490565b60015461013c908263ffffffff61024f16565b6001553360009081526002602052604090205461015f908263ffffffff61024f16565b33600090815260026020526040812091909155546001600160a01b031661018f5761018a33826102ac565b6101ac565b6000546101ac906001600160a01b0316338363ffffffff6103b016565b50565b6001600160a01b031660009081526002602052604090205490565b6001546101dd908263ffffffff61040216565b60015533600090815260026020526040902054610200908263ffffffff61040216565b33600090815260026020526040812091909155546001600160a01b0316156101ac576000546101ac906001600160a01b031633308463ffffffff61046316565b6000546001600160a01b031681565b6000828211156102a6576040805162461bcd60e51b815260206004820152601e60248201527f536166654d6174683a207375627472616374696f6e206f766572666c6f770000604482015290519081900360640190fd5b50900390565b604080516000808252602082019092526001600160a01b0384169083906040518082805190602001908083835b602083106102f85780518252601f1990920191602091820191016102d9565b6001836020036101000a03801982511681845116808217855250505050505090500191505060006040518083038185875af1925050503d806000811461035a576040519150601f19603f3d011682016040523d82523d6000602084013e61035f565b606091505b50509050806103ab576040805162461bcd60e51b815260206004820152601360248201527211551217d514905394d1915497d19052531151606a1b604482015290519081900360640190fd5b505050565b604080516001600160a01b038416602482015260448082018490528251808303909101815260649091019091526020810180516001600160e01b031663a9059cbb60e01b1790526103ab9084906104c3565b60008282018381101561045c576040805162461bcd60e51b815260206004820152601b60248201527f536166654d6174683a206164646974696f6e206f766572666c6f770000000000604482015290519081900360640190fd5b9392505050565b604080516001600160a01b0380861660248301528416604482015260648082018490528251808303909101815260849091019091526020810180516001600160e01b03166323b872dd60e01b1790526104bd9085906104c3565b50505050565b6060610518826040518060400160405280602081526020017f5361666545524332303a206c6f772d6c6576656c2063616c6c206661696c6564815250856001600160a01b03166105749092919063ffffffff16565b8051909150156103ab5780806020019051602081101561053757600080fd5b50516103ab5760405162461bcd60e51b815260040180806020018281038252602a8152602001806107b8602a913960400191505060405180910390fd5b6060610583848460008561058b565b949350505050565b6060824710156105cc5760405162461bcd60e51b81526004018080602001828103825260268152602001806107926026913960400191505060405180910390fd5b6105d5856106e7565b610626576040805162461bcd60e51b815260206004820152601d60248201527f416464726573733a2063616c6c20746f206e6f6e2d636f6e7472616374000000604482015290519081900360640190fd5b60006060866001600160a01b031685876040518082805190602001908083835b602083106106655780518252601f199092019160209182019101610646565b6001836020036101000a03801982511681845116808217855250505050505090500191505060006040518083038185875af1925050503d80600081146106c7576040519150601f19603f3d011682016040523d82523d6000602084013e6106cc565b606091505b50915091506106dc8282866106ed565b979650505050505050565b3b151590565b606083156106fc57508161045c565b82511561070c5782518084602001fd5b8160405162461bcd60e51b81526004018080602001828103825283818151815260200191508051906020019080838360005b8381101561075657818101518382015260200161073e565b50505050905090810190601f1680156107835780820380516001836020036101000a031916815260200191505b509250505060405180910390fdfe416464726573733a20696e73756666696369656e742062616c616e636520666f722063616c6c5361666545524332303a204552433230206f7065726174696f6e20646964206e6f742073756363656564a2646970667358221220d883c3ec65207672d3bed4ee2236000059efa58ad8429a53452e324d3a13029664736f6c63430006020033",
  "linkReferences": {},
  "deployedLinkReferences": {}
}