{
  "_format": "hh-sol-artifact-1",
  "contractName": "LemdToken",
  "sourceName": "contracts/Lend/token/LemdToken.sol",
  "abi": [
    {
      "inputs": [],
      "stateMutability": "nonpayable",
      "type": "constructor"
    },
    {
      "anonymous": false,
      "inputs": [
        {
          "indexed": true,
          "internalType": "address",
          "name": "owner",
          "type": "address"
        },
        {
          "indexed": true,
          "internalType": "address",
          "name": "spender",
          "type": "address"
        },
        {
          "indexed": false,
          "internalType": "uint256",
          "name": "value",
          "type": "uint256"
        }
      ],
      "name": "Approval",
      "type": "event"
    },
    {
      "anonymous": false,
      "inputs": [
        {
          "indexed": true,
          "internalType": "address",
          "name": "delegator",
          "type": "address"
        },
        {
          "indexed": true,
          "internalType": "address",
          "name": "fromDelegate",
          "type": "address"
        },
        {
          "indexed": true,
          "internalType": "address",
          "name": "toDelegate",
          "type": "address"
        }
      ],
      "name": "DelegateChanged",
      "type": "event"
    },
    {
      "anonymous": false,
      "inputs": [
        {
          "indexed": true,
          "internalType": "address",
          "name": "delegate",
          "type": "address"
        },
        {
          "indexed": false,
          "internalType": "uint256",
          "name": "previousBalance",
          "type": "uint256"
        },
        {
          "indexed": false,
          "internalType": "uint256",
          "name": "newBalance",
          "type": "uint256"
        }
      ],
      "name": "DelegateVotesChanged",
      "type": "event"
    },
    {
      "anonymous": false,
      "inputs": [
        {
          "indexed": true,
          "internalType": "bytes32",
          "name": "role",
          "type": "bytes32"
        },
        {
          "indexed": true,
          "internalType": "bytes32",
          "name": "previousAdminRole",
          "type": "bytes32"
        },
        {
          "indexed": true,
          "internalType": "bytes32",
          "name": "newAdminRole",
          "type": "bytes32"
        }
      ],
      "name": "RoleAdminChanged",
      "type": "event"
    },
    {
      "anonymous": false,
      "inputs": [
        {
          "indexed": true,
          "internalType": "bytes32",
          "name": "role",
          "type": "bytes32"
        },
        {
          "indexed": true,
          "internalType": "address",
          "name": "account",
          "type": "address"
        },
        {
          "indexed": true,
          "internalType": "address",
          "name": "sender",
          "type": "address"
        }
      ],
      "name": "RoleGranted",
      "type": "event"
    },
    {
      "anonymous": false,
      "inputs": [
        {
          "indexed": true,
          "internalType": "bytes32",
          "name": "role",
          "type": "bytes32"
        },
        {
          "indexed": true,
          "internalType": "address",
          "name": "account",
          "type": "address"
        },
        {
          "indexed": true,
          "internalType": "address",
          "name": "sender",
          "type": "address"
        }
      ],
      "name": "RoleRevoked",
      "type": "event"
    },
    {
      "anonymous": false,
      "inputs": [
        {
          "indexed": true,
          "internalType": "address",
          "name": "from",
          "type": "address"
        },
        {
          "indexed": true,
          "internalType": "address",
          "name": "to",
          "type": "address"
        },
        {
          "indexed": false,
          "internalType": "uint256",
          "name": "value",
          "type": "uint256"
        }
      ],
      "name": "Transfer",
      "type": "event"
    },
    {
      "inputs": [],
      "name": "DEFAULT_ADMIN_ROLE",
      "outputs": [
        {
          "internalType": "bytes32",
          "name": "",
          "type": "bytes32"
        }
      ],
      "stateMutability": "view",
      "type": "function"
    },
    {
      "inputs": [],
      "name": "DELEGATION_TYPEHASH",
      "outputs": [
        {
          "internalType": "bytes32",
          "name": "",
          "type": "bytes32"
        }
      ],
      "stateMutability": "view",
      "type": "function"
    },
    {
      "inputs": [],
      "name": "DOMAIN_TYPEHASH",
      "outputs": [
        {
          "internalType": "bytes32",
          "name": "",
          "type": "bytes32"
        }
      ],
      "stateMutability": "view",
      "type": "function"
    },
    {
      "inputs": [],
      "name": "MINTER_ROLE",
      "outputs": [
        {
          "internalType": "bytes32",
          "name": "",
          "type": "bytes32"
        }
      ],
      "stateMutability": "view",
      "type": "function"
    },
    {
      "inputs": [
        {
          "internalType": "address",
          "name": "owner",
          "type": "address"
        },
        {
          "internalType": "address",
          "name": "spender",
          "type": "address"
        }
      ],
      "name": "allowance",
      "outputs": [
        {
          "internalType": "uint256",
          "name": "",
          "type": "uint256"
        }
      ],
      "stateMutability": "view",
      "type": "function"
    },
    {
      "inputs": [
        {
          "internalType": "address",
          "name": "spender",
          "type": "address"
        },
        {
          "internalType": "uint256",
          "name": "amount",
          "type": "uint256"
        }
      ],
      "name": "approve",
      "outputs": [
        {
          "internalType": "bool",
          "name": "",
          "type": "bool"
        }
      ],
      "stateMutability": "nonpayable",
      "type": "function"
    },
    {
      "inputs": [
        {
          "internalType": "address",
          "name": "account",
          "type": "address"
        }
      ],
      "name": "balanceOf",
      "outputs": [
        {
          "internalType": "uint256",
          "name": "",
          "type": "uint256"
        }
      ],
      "stateMutability": "view",
      "type": "function"
    },
    {
      "inputs": [
        {
          "internalType": "address",
          "name": "",
          "type": "address"
        },
        {
          "internalType": "uint32",
          "name": "",
          "type": "uint32"
        }
      ],
      "name": "checkpoints",
      "outputs": [
        {
          "internalType": "uint32",
          "name": "fromBlock",
          "type": "uint32"
        },
        {
          "internalType": "uint256",
          "name": "votes",
          "type": "uint256"
        }
      ],
      "stateMutability": "view",
      "type": "function"
    },
    {
      "inputs": [],
      "name": "decimals",
      "outputs": [
        {
          "internalType": "uint8",
          "name": "",
          "type": "uint8"
        }
      ],
      "stateMutability": "view",
      "type": "function"
    },
    {
      "inputs": [
        {
          "internalType": "address",
          "name": "spender",
          "type": "address"
        },
        {
          "internalType": "uint256",
          "name": "subtractedValue",
          "type": "uint256"
        }
      ],
      "name": "decreaseAllowance",
      "outputs": [
        {
          "internalType": "bool",
          "name": "",
          "type": "bool"
        }
      ],
      "stateMutability": "nonpayable",
      "type": "function"
    },
    {
      "inputs": [
        {
          "internalType": "address",
          "name": "delegatee",
          "type": "address"
        }
      ],
      "name": "delegate",
      "outputs": [],
      "stateMutability": "nonpayable",
      "type": "function"
    },
    {
      "inputs": [
        {
          "internalType": "address",
          "name": "delegatee",
          "type": "address"
        },
        {
          "internalType": "uint256",
          "name": "nonce",
          "type": "uint256"
        },
        {
          "internalType": "uint256",
          "name": "expiry",
          "type": "uint256"
        },
        {
          "internalType": "uint8",
          "name": "v",
          "type": "uint8"
        },
        {
          "internalType": "bytes32",
          "name": "r",
          "type": "bytes32"
        },
        {
          "internalType": "bytes32",
          "name": "s",
          "type": "bytes32"
        }
      ],
      "name": "delegateBySig",
      "outputs": [],
      "stateMutability": "nonpayable",
      "type": "function"
    },
    {
      "inputs": [
        {
          "internalType": "address",
          "name": "delegator",
          "type": "address"
        }
      ],
      "name": "delegates",
      "outputs": [
        {
          "internalType": "address",
          "name": "",
          "type": "address"
        }
      ],
      "stateMutability": "view",
      "type": "function"
    },
    {
      "inputs": [
        {
          "internalType": "address",
          "name": "account",
          "type": "address"
        }
      ],
      "name": "getCurrentVotes",
      "outputs": [
        {
          "internalType": "uint256",
          "name": "",
          "type": "uint256"
        }
      ],
      "stateMutability": "view",
      "type": "function"
    },
    {
      "inputs": [
        {
          "internalType": "address",
          "name": "account",
          "type": "address"
        },
        {
          "internalType": "uint256",
          "name": "blockNumber",
          "type": "uint256"
        }
      ],
      "name": "getPriorVotes",
      "outputs": [
        {
          "internalType": "uint256",
          "name": "",
          "type": "uint256"
        }
      ],
      "stateMutability": "view",
      "type": "function"
    },
    {
      "inputs": [
        {
          "internalType": "bytes32",
          "name": "role",
          "type": "bytes32"
        }
      ],
      "name": "getRoleAdmin",
      "outputs": [
        {
          "internalType": "bytes32",
          "name": "",
          "type": "bytes32"
        }
      ],
      "stateMutability": "view",
      "type": "function"
    },
    {
      "inputs": [
        {
          "internalType": "bytes32",
          "name": "role",
          "type": "bytes32"
        },
        {
          "internalType": "uint256",
          "name": "index",
          "type": "uint256"
        }
      ],
      "name": "getRoleMember",
      "outputs": [
        {
          "internalType": "address",
          "name": "",
          "type": "address"
        }
      ],
      "stateMutability": "view",
      "type": "function"
    },
    {
      "inputs": [
        {
          "internalType": "bytes32",
          "name": "role",
          "type": "bytes32"
        }
      ],
      "name": "getRoleMemberCount",
      "outputs": [
        {
          "internalType": "uint256",
          "name": "",
          "type": "uint256"
        }
      ],
      "stateMutability": "view",
      "type": "function"
    },
    {
      "inputs": [
        {
          "internalType": "bytes32",
          "name": "role",
          "type": "bytes32"
        },
        {
          "internalType": "address",
          "name": "account",
          "type": "address"
        }
      ],
      "name": "grantRole",
      "outputs": [],
      "stateMutability": "nonpayable",
      "type": "function"
    },
    {
      "inputs": [
        {
          "internalType": "bytes32",
          "name": "role",
          "type": "bytes32"
        },
        {
          "internalType": "address",
          "name": "account",
          "type": "address"
        }
      ],
      "name": "hasRole",
      "outputs": [
        {
          "internalType": "bool",
          "name": "",
          "type": "bool"
        }
      ],
      "stateMutability": "view",
      "type": "function"
    },
    {
      "inputs": [
        {
          "internalType": "address",
          "name": "spender",
          "type": "address"
        },
        {
          "internalType": "uint256",
          "name": "addedValue",
          "type": "uint256"
        }
      ],
      "name": "increaseAllowance",
      "outputs": [
        {
          "internalType": "bool",
          "name": "",
          "type": "bool"
        }
      ],
      "stateMutability": "nonpayable",
      "type": "function"
    },
    {
      "inputs": [
        {
          "internalType": "address",
          "name": "_to",
          "type": "address"
        },
        {
          "internalType": "uint256",
          "name": "_amount",
          "type": "uint256"
        }
      ],
      "name": "mint",
      "outputs": [],
      "stateMutability": "nonpayable",
      "type": "function"
    },
    {
      "inputs": [],
      "name": "name",
      "outputs": [
        {
          "internalType": "string",
          "name": "",
          "type": "string"
        }
      ],
      "stateMutability": "view",
      "type": "function"
    },
    {
      "inputs": [
        {
          "internalType": "address",
          "name": "",
          "type": "address"
        }
      ],
      "name": "nonces",
      "outputs": [
        {
          "internalType": "uint256",
          "name": "",
          "type": "uint256"
        }
      ],
      "stateMutability": "view",
      "type": "function"
    },
    {
      "inputs": [
        {
          "internalType": "address",
          "name": "",
          "type": "address"
        }
      ],
      "name": "numCheckpoints",
      "outputs": [
        {
          "internalType": "uint32",
          "name": "",
          "type": "uint32"
        }
      ],
      "stateMutability": "view",
      "type": "function"
    },
    {
      "inputs": [
        {
          "internalType": "bytes32",
          "name": "role",
          "type": "bytes32"
        },
        {
          "internalType": "address",
          "name": "account",
          "type": "address"
        }
      ],
      "name": "renounceRole",
      "outputs": [],
      "stateMutability": "nonpayable",
      "type": "function"
    },
    {
      "inputs": [
        {
          "internalType": "bytes32",
          "name": "role",
          "type": "bytes32"
        },
        {
          "internalType": "address",
          "name": "account",
          "type": "address"
        }
      ],
      "name": "revokeRole",
      "outputs": [],
      "stateMutability": "nonpayable",
      "type": "function"
    },
    {
      "inputs": [],
      "name": "symbol",
      "outputs": [
        {
          "internalType": "string",
          "name": "",
          "type": "string"
        }
      ],
      "stateMutability": "view",
      "type": "function"
    },
    {
      "inputs": [],
      "name": "totalSupply",
      "outputs": [
        {
          "internalType": "uint256",
          "name": "",
          "type": "uint256"
        }
      ],
      "stateMutability": "view",
      "type": "function"
    },
    {
      "inputs": [
        {
          "internalType": "address",
          "name": "recipient",
          "type": "address"
        },
        {
          "internalType": "uint256",
          "name": "amount",
          "type": "uint256"
        }
      ],
      "name": "transfer",
      "outputs": [
        {
          "internalType": "bool",
          "name": "",
          "type": "bool"
        }
      ],
      "stateMutability": "nonpayable",
      "type": "function"
    },
    {
      "inputs": [
        {
          "internalType": "address",
          "name": "sender",
          "type": "address"
        },
        {
          "internalType": "address",
          "name": "recipient",
          "type": "address"
        },
        {
          "internalType": "uint256",
          "name": "amount",
          "type": "uint256"
        }
      ],
      "name": "transferFrom",
      "outputs": [
        {
          "internalType": "bool",
          "name": "",
          "type": "bool"
        }
      ],
      "stateMutability": "nonpayable",
      "type": "function"
    }
  ],
  "bytecode": "0x60806040523480156200001157600080fd5b50604080518082018252600b81526a2bb2a632b6b21021b7b4b760a91b6020808301918252835180850190945260048452631311535160e21b9084015281519192916200006191600391620001b0565b50805162000077906004906020840190620001b0565b50506005805460ff1916601217905550620000946000336200009a565b6200024c565b620000a68282620000aa565b5050565b6000828152600660209081526040909120620000d1918390620011c062000125821b17901c565b15620000a657620000e162000145565b6001600160a01b0316816001600160a01b0316837f2f8788117e7eff1d82e926ec794901d17c78024a50270940304540a733656f0d60405160405180910390a45050565b60006200013c836001600160a01b03841662000149565b90505b92915050565b3390565b600062000157838362000198565b6200018f575081546001818101845560008481526020808220909301849055845484825282860190935260409020919091556200013f565b5060006200013f565b60009081526001919091016020526040902054151590565b828054600181600116156101000203166002900490600052602060002090601f016020900481019282601f10620001f357805160ff191683800117855562000223565b8280016001018555821562000223579182015b828111156200022357825182559160200191906001019062000206565b506200023192915062000235565b5090565b5b8082111562000231576000815560010162000236565b611fbc806200025c6000396000f3fe608060405234801561001057600080fd5b50600436106101e55760003560e01c8063782d6fe11161010f578063b4b5ea57116100a2578063d547741f11610071578063d547741f14610654578063dd62ed3e14610680578063e7a324dc146106ae578063f1127ed8146106b6576101e5565b8063b4b5ea57146105c2578063c3cda520146105e8578063ca15c8731461062f578063d53913931461064c576101e5565b806395d89b41116100de57806395d89b411461055a578063a217fddf14610562578063a457c2d71461056a578063a9059cbb14610596576101e5565b8063782d6fe1146104b95780637ecebe00146104e55780639010d07c1461050b57806391d148541461052e576101e5565b8063313ce56711610187578063587cde1e11610156578063587cde1e146103ec5780635c19a95c1461042e5780636fcfff451461045457806370a0823114610493576101e5565b8063313ce5671461034a57806336568abe14610368578063395093511461039457806340c10f19146103c0576101e5565b806320606b70116101c357806320606b70146102c157806323b872dd146102c9578063248a9ca3146102ff5780632f2ff15d1461031c576101e5565b806306fdde03146101ea578063095ea7b31461026757806318160ddd146102a7575b600080fd5b6101f2610708565b6040805160208082528351818301528351919283929083019185019080838360005b8381101561022c578181015183820152602001610214565b50505050905090810190601f1680156102595780820380516001836020036101000a031916815260200191505b509250505060405180910390f35b6102936004803603604081101561027d57600080fd5b506001600160a01b03813516906020013561079e565b604080519115158252519081900360200190f35b6102af6107bc565b60408051918252519081900360200190f35b6102af6107c2565b610293600480360360608110156102df57600080fd5b506001600160a01b038135811691602081013590911690604001356107e6565b6102af6004803603602081101561031557600080fd5b503561086d565b6103486004803603604081101561033257600080fd5b50803590602001356001600160a01b0316610882565b005b6103526108ee565b6040805160ff9092168252519081900360200190f35b6103486004803603604081101561037e57600080fd5b50803590602001356001600160a01b03166108f7565b610293600480360360408110156103aa57600080fd5b506001600160a01b038135169060200135610958565b610348600480360360408110156103d657600080fd5b506001600160a01b0381351690602001356109a6565b6104126004803603602081101561040257600080fd5b50356001600160a01b0316610a49565b604080516001600160a01b039092168252519081900360200190f35b6103486004803603602081101561044457600080fd5b50356001600160a01b0316610a67565b61047a6004803603602081101561046a57600080fd5b50356001600160a01b0316610a74565b6040805163ffffffff9092168252519081900360200190f35b6102af600480360360208110156104a957600080fd5b50356001600160a01b0316610a8c565b6102af600480360360408110156104cf57600080fd5b506001600160a01b038135169060200135610aa7565b6102af600480360360208110156104fb57600080fd5b50356001600160a01b0316610caf565b6104126004803603604081101561052157600080fd5b5080359060200135610cc1565b6102936004803603604081101561054457600080fd5b50803590602001356001600160a01b0316610ce0565b6101f2610cf8565b6102af610d59565b6102936004803603604081101561058057600080fd5b506001600160a01b038135169060200135610d5e565b610293600480360360408110156105ac57600080fd5b506001600160a01b038135169060200135610dc6565b6102af600480360360208110156105d857600080fd5b50356001600160a01b0316610dda565b610348600480360360c08110156105fe57600080fd5b506001600160a01b038135169060208101359060408101359060ff6060820135169060808101359060a00135610e3d565b6102af6004803603602081101561064557600080fd5b50356110b0565b6102af6110c7565b6103486004803603604081101561066a57600080fd5b50803590602001356001600160a01b03166110eb565b6102af6004803603604081101561069657600080fd5b506001600160a01b0381358116916020013516611144565b6102af61116f565b6106e8600480360360408110156106cc57600080fd5b5080356001600160a01b0316906020013563ffffffff16611193565b6040805163ffffffff909316835260208301919091528051918290030190f35b60038054604080516020601f60026000196101006001881615020190951694909404938401819004810282018101909252828152606093909290918301828280156107945780601f1061076957610100808354040283529160200191610794565b820191906000526020600020905b81548152906001019060200180831161077757829003601f168201915b5050505050905090565b60006107b26107ab6111d5565b84846111d9565b5060015b92915050565b60025490565b7f8cad95687ba82c2ce50e74f7b754645e5117c3a5bec8151c0726d5857980a86681565b60006107f38484846112c5565b610863846107ff6111d5565b61085e85604051806060016040528060288152602001611e6b602891396001600160a01b038a1660009081526001602052604081209061083d6111d5565b6001600160a01b031681526020810191909152604001600020549190611307565b6111d9565b5060019392505050565b60009081526006602052604090206002015490565b6000828152600660205260409020600201546108a5906108a06111d5565b610ce0565b6108e05760405162461bcd60e51b815260040180806020018281038252602f815260200180611d39602f913960400191505060405180910390fd5b6108ea828261139e565b5050565b60055460ff1690565b6108ff6111d5565b6001600160a01b0316816001600160a01b03161461094e5760405162461bcd60e51b815260040180806020018281038252602f815260200180611f58602f913960400191505060405180910390fd5b6108ea8282611407565b60006107b26109656111d5565b8461085e85600160006109766111d5565b6001600160a01b03908116825260208083019390935260409182016000908120918c168152925290205490611470565b6109d07f9f2df0fed2c77648de5860a4cc508cd0818c85b8b8a1ab4ceeef8d981c8956a633610ce0565b610a1a576040805162461bcd60e51b815260206004820152601660248201527521b0b63632b91034b9903737ba10309036b4b73a32b960511b604482015290519081900360640190fd5b610a2482826114ca565b6001600160a01b038083166000908152600760205260408120546108ea9216836115ba565b6001600160a01b039081166000908152600760205260409020541690565b610a7133826116f7565b50565b60096020526000908152604090205463ffffffff1681565b6001600160a01b031660009081526020819052604090205490565b6000438210610ae75760405162461bcd60e51b815260040180806020018281038252602c815260200180611f2c602c913960400191505060405180910390fd5b6001600160a01b03831660009081526009602052604090205463ffffffff1680610b155760009150506107b6565b6001600160a01b038416600090815260086020908152604080832063ffffffff600019860181168552925290912054168310610b84576001600160a01b03841660009081526008602090815260408083206000199490940163ffffffff168352929052206001015490506107b6565b6001600160a01b038416600090815260086020908152604080832083805290915290205463ffffffff16831015610bbf5760009150506107b6565b600060001982015b8163ffffffff168163ffffffff161115610c7857600282820363ffffffff16048103610bf1611cdc565b506001600160a01b038716600090815260086020908152604080832063ffffffff808616855290835292819020815180830190925280549093168082526001909301549181019190915290871415610c53576020015194506107b69350505050565b805163ffffffff16871115610c6a57819350610c71565b6001820392505b5050610bc7565b506001600160a01b038516600090815260086020908152604080832063ffffffff9094168352929052206001015491505092915050565b600a6020526000908152604090205481565b6000828152600660205260408120610cd9908361178c565b9392505050565b6000828152600660205260408120610cd99083611798565b60048054604080516020601f60026000196101006001881615020190951694909404938401819004810282018101909252828152606093909290918301828280156107945780601f1061076957610100808354040283529160200191610794565b600081565b60006107b2610d6b6111d5565b8461085e85604051806060016040528060258152602001611f076025913960016000610d956111d5565b6001600160a01b03908116825260208083019390935260409182016000908120918d16815292529020549190611307565b60006107b2610dd36111d5565b84846112c5565b6001600160a01b03811660009081526009602052604081205463ffffffff1680610e05576000610cd9565b6001600160a01b038316600090815260086020908152604080832063ffffffff60001986011684529091529020600101549392505050565b60007f8cad95687ba82c2ce50e74f7b754645e5117c3a5bec8151c0726d5857980a866610e68610708565b80519060200120610e776117ad565b60408051602080820195909552808201939093526060830191909152306080808401919091528151808403909101815260a0830182528051908401207fe48329057bfd03d55e49b547132e39cffd9c1820ad7b9d4c5307691425d15adf60c08401526001600160a01b038b1660e084015261010083018a90526101208084018a9052825180850390910181526101408401835280519085012061190160f01b6101608501526101628401829052610182808501829052835180860390910181526101a285018085528151918701919091206000918290526101c2860180865281905260ff8b166101e287015261020286018a90526102228601899052935192965090949293909260019261024280840193601f198301929081900390910190855afa158015610faa573d6000803e3d6000fd5b5050604051601f1901519150506001600160a01b038116610ffc5760405162461bcd60e51b815260040180806020018281038252602b815260200180611e07602b913960400191505060405180910390fd5b6001600160a01b0381166000908152600a60205260409020805460018101909155891461105a5760405162461bcd60e51b8152600401808060200182810382526027815260200180611d686027913960400191505060405180910390fd5b874211156110995760405162461bcd60e51b815260040180806020018281038252602b815260200180611eb8602b913960400191505060405180910390fd5b6110a3818b6116f7565b505050505b505050505050565b60008181526006602052604081206107b6906117b1565b7f9f2df0fed2c77648de5860a4cc508cd0818c85b8b8a1ab4ceeef8d981c8956a681565b600082815260066020526040902060020154611109906108a06111d5565b61094e5760405162461bcd60e51b8152600401808060200182810382526030815260200180611dd76030913960400191505060405180910390fd5b6001600160a01b03918216600090815260016020908152604080832093909416825291909152205490565b7fe48329057bfd03d55e49b547132e39cffd9c1820ad7b9d4c5307691425d15adf81565b60086020908152600092835260408084209091529082529020805460019091015463ffffffff9091169082565b6000610cd9836001600160a01b0384166117bc565b3390565b6001600160a01b03831661121e5760405162461bcd60e51b8152600401808060200182810382526024815260200180611ee36024913960400191505060405180910390fd5b6001600160a01b0382166112635760405162461bcd60e51b8152600401808060200182810382526022815260200180611d8f6022913960400191505060405180910390fd5b6001600160a01b03808416600081815260016020908152604080832094871680845294825291829020859055815185815291517f8c5be1e5ebec7d5bd14f71427d1e84f3dd0314c0f7b2291e5b200ac8c7c3b9259281900390910190a3505050565b6112d0838383611806565b6001600160a01b03808416600090815260076020526040808220548584168352912054611302929182169116836115ba565b505050565b600081848411156113965760405162461bcd60e51b81526004018080602001828103825283818151815260200191508051906020019080838360005b8381101561135b578181015183820152602001611343565b50505050905090810190601f1680156113885780820380516001836020036101000a031916815260200191505b509250505060405180910390fd5b505050900390565b60008281526006602052604090206113b690826111c0565b156108ea576113c36111d5565b6001600160a01b0316816001600160a01b0316837f2f8788117e7eff1d82e926ec794901d17c78024a50270940304540a733656f0d60405160405180910390a45050565b600082815260066020526040902061141f9082611961565b156108ea5761142c6111d5565b6001600160a01b0316816001600160a01b0316837ff6391f5c32d9c69d2a47ea670b442974b53935d1edc7fd64eb21e047a839171b60405160405180910390a45050565b600082820183811015610cd9576040805162461bcd60e51b815260206004820152601b60248201527f536166654d6174683a206164646974696f6e206f766572666c6f770000000000604482015290519081900360640190fd5b6001600160a01b038216611525576040805162461bcd60e51b815260206004820152601f60248201527f45524332303a206d696e7420746f20746865207a65726f206164647265737300604482015290519081900360640190fd5b61153160008383611302565b60025461153e9082611470565b6002556001600160a01b0382166000908152602081905260409020546115649082611470565b6001600160a01b0383166000818152602081815260408083209490945583518581529351929391927fddf252ad1be2c89b69c2b068fc378daa952ba7f163c4a11628f55a4df523b3ef9281900390910190a35050565b816001600160a01b0316836001600160a01b0316141580156115dc5750600081115b15611302576001600160a01b0383161561166e576001600160a01b03831660009081526009602052604081205463ffffffff16908161161c57600061164e565b6001600160a01b038516600090815260086020908152604080832063ffffffff60001987011684529091529020600101545b9050600061165c8285611976565b905061166a868484846119d3565b5050505b6001600160a01b03821615611302576001600160a01b03821660009081526009602052604081205463ffffffff1690816116a95760006116db565b6001600160a01b038416600090815260086020908152604080832063ffffffff60001987011684529091529020600101545b905060006116e98285611470565b90506110a8858484846119d3565b6001600160a01b038083166000908152600760205260408120549091169061171e84610a8c565b6001600160a01b0385811660008181526007602052604080822080546001600160a01b031916898616908117909155905194955093928616927f3134e8a2e6d97e929a7e54011ea5485d7d196dd5f0ba4d4ef95803e8e3fc257f9190a46117868284836115ba565b50505050565b6000610cd98383611b38565b6000610cd9836001600160a01b038416611b9c565b4690565b60006107b682611bb4565b60006117c88383611b9c565b6117fe575081546001818101845560008481526020808220909301849055845484825282860190935260409020919091556107b6565b5060006107b6565b6001600160a01b03831661184b5760405162461bcd60e51b8152600401808060200182810382526025815260200180611e936025913960400191505060405180910390fd5b6001600160a01b0382166118905760405162461bcd60e51b8152600401808060200182810382526023815260200180611d166023913960400191505060405180910390fd5b61189b838383611302565b6118d881604051806060016040528060268152602001611db1602691396001600160a01b0386166000908152602081905260409020549190611307565b6001600160a01b0380851660009081526020819052604080822093909355908416815220546119079082611470565b6001600160a01b038084166000818152602081815260409182902094909455805185815290519193928716927fddf252ad1be2c89b69c2b068fc378daa952ba7f163c4a11628f55a4df523b3ef92918290030190a3505050565b6000610cd9836001600160a01b038416611bb8565b6000828211156119cd576040805162461bcd60e51b815260206004820152601e60248201527f536166654d6174683a207375627472616374696f6e206f766572666c6f770000604482015290519081900360640190fd5b50900390565b60006119f743604051806060016040528060398152602001611e3260399139611c7e565b905060008463ffffffff16118015611a4057506001600160a01b038516600090815260086020908152604080832063ffffffff6000198901811685529252909120548282169116145b15611a7d576001600160a01b038516600090815260086020908152604080832063ffffffff60001989011684529091529020600101829055611aee565b60408051808201825263ffffffff808416825260208083018681526001600160a01b038a166000818152600884528681208b8616825284528681209551865490861663ffffffff19918216178755925160019687015590815260099092529390208054928801909116919092161790555b604080518481526020810184905281516001600160a01b038816927fdec2bacdd2f05b59de34da9b523dff8be42e5e38e818c82fdb0bae774387a724928290030190a25050505050565b81546000908210611b7a5760405162461bcd60e51b8152600401808060200182810382526022815260200180611cf46022913960400191505060405180910390fd5b826000018281548110611b8957fe5b9060005260206000200154905092915050565b60009081526001919091016020526040902054151590565b5490565b60008181526001830160205260408120548015611c745783546000198083019190810190600090879083908110611beb57fe5b9060005260206000200154905080876000018481548110611c0857fe5b600091825260208083209091019290925582815260018981019092526040902090840190558654879080611c3857fe5b600190038181906000526020600020016000905590558660010160008781526020019081526020016000206000905560019450505050506107b6565b60009150506107b6565b6000816401000000008410611cd45760405162461bcd60e51b815260206004820181815283516024840152835190928392604490910191908501908083836000831561135b578181015183820152602001611343565b509192915050565b60408051808201909152600080825260208201529056fe456e756d657261626c655365743a20696e646578206f7574206f6620626f756e647345524332303a207472616e7366657220746f20746865207a65726f2061646472657373416363657373436f6e74726f6c3a2073656e646572206d75737420626520616e2061646d696e20746f206772616e744c656d64546f6b656e3a3a64656c656761746542795369673a20696e76616c6964206e6f6e636545524332303a20617070726f766520746f20746865207a65726f206164647265737345524332303a207472616e7366657220616d6f756e7420657863656564732062616c616e6365416363657373436f6e74726f6c3a2073656e646572206d75737420626520616e2061646d696e20746f207265766f6b654c656d64546f6b656e3a3a64656c656761746542795369673a20696e76616c6964207369676e61747572654c656d64546f6b656e3a3a5f7772697465436865636b706f696e743a20626c6f636b206e756d6265722065786365656473203332206269747345524332303a207472616e7366657220616d6f756e74206578636565647320616c6c6f77616e636545524332303a207472616e736665722066726f6d20746865207a65726f20616464726573734c656d64546f6b656e3a3a64656c656761746542795369673a207369676e6174757265206578706972656445524332303a20617070726f76652066726f6d20746865207a65726f206164647265737345524332303a2064656372656173656420616c6c6f77616e63652062656c6f77207a65726f4c656d64546f6b656e3a3a6765745072696f72566f7465733a206e6f74207965742064657465726d696e6564416363657373436f6e74726f6c3a2063616e206f6e6c792072656e6f756e636520726f6c657320666f722073656c66a26469706673582212209124ee6296941defb9eb2be8d96941d7cd9984feb8c4769958d5da02a2aad06f64736f6c634300060c0033",
  "linkReferences": {},
  "deployedLinkReferences": {}
}