{
  "_format": "hh-sol-artifact-1",
  "contractName": "FundingManager",
  "sourceName": "contracts/Lend/governance/FundingManager.sol",
  "abi": [
    {
      "inputs": [
        {
          "internalType": "contract LemdToken",
          "name": "_lemd",
          "type": "address"
        }
      ],
      "stateMutability": "nonpayable",
      "type": "constructor"
    },
    {
      "anonymous": false,
      "inputs": [
        {
          "indexed": true,
          "internalType": "address",
          "name": "previousOwner",
          "type": "address"
        },
        {
          "indexed": true,
          "internalType": "address",
          "name": "newOwner",
          "type": "address"
        }
      ],
      "name": "OwnershipTransferred",
      "type": "event"
    },
    {
      "inputs": [
        {
          "internalType": "string",
          "name": "_name",
          "type": "string"
        },
        {
          "internalType": "address",
          "name": "_addr",
          "type": "address"
        },
        {
          "internalType": "uint256",
          "name": "_ratio",
          "type": "uint256"
        }
      ],
      "name": "addFunding",
      "outputs": [],
      "stateMutability": "nonpayable",
      "type": "function"
    },
    {
      "inputs": [],
      "name": "claim",
      "outputs": [],
      "stateMutability": "nonpayable",
      "type": "function"
    },
    {
      "inputs": [
        {
          "internalType": "uint256",
          "name": "",
          "type": "uint256"
        }
      ],
      "name": "fundingHolders",
      "outputs": [
        {
          "internalType": "uint256",
          "name": "ratio",
          "type": "uint256"
        },
        {
          "internalType": "string",
          "name": "name",
          "type": "string"
        },
        {
          "internalType": "address",
          "name": "addr",
          "type": "address"
        }
      ],
      "stateMutability": "view",
      "type": "function"
    },
    {
      "inputs": [
        {
          "internalType": "uint256",
          "name": "pid",
          "type": "uint256"
        }
      ],
      "name": "getPendingBalance",
      "outputs": [
        {
          "internalType": "uint256",
          "name": "",
          "type": "uint256"
        }
      ],
      "stateMutability": "view",
      "type": "function"
    },
    {
      "inputs": [],
      "name": "lemd",
      "outputs": [
        {
          "internalType": "contract LemdToken",
          "name": "",
          "type": "address"
        }
      ],
      "stateMutability": "view",
      "type": "function"
    },
    {
      "inputs": [],
      "name": "owner",
      "outputs": [
        {
          "internalType": "address",
          "name": "",
          "type": "address"
        }
      ],
      "stateMutability": "view",
      "type": "function"
    },
    {
      "inputs": [],
      "name": "renounceOwnership",
      "outputs": [],
      "stateMutability": "nonpayable",
      "type": "function"
    },
    {
      "inputs": [
        {
          "internalType": "uint256",
          "name": "pid",
          "type": "uint256"
        },
        {
          "internalType": "string",
          "name": "_name",
          "type": "string"
        },
        {
          "internalType": "address",
          "name": "_addr",
          "type": "address"
        },
        {
          "internalType": "uint256",
          "name": "_ratio",
          "type": "uint256"
        }
      ],
      "name": "setFunding",
      "outputs": [],
      "stateMutability": "nonpayable",
      "type": "function"
    },
    {
      "inputs": [
        {
          "internalType": "address",
          "name": "newOwner",
          "type": "address"
        }
      ],
      "name": "transferOwnership",
      "outputs": [],
      "stateMutability": "nonpayable",
      "type": "function"
    }
  ],
  "bytecode": "0x608060405234801561001057600080fd5b50604051610dd6380380610dd68339818101604052602081101561003357600080fd5b5051600061003f6100ae565b600080546001600160a01b0319166001600160a01b0383169081178255604051929350917f8be0079c531659141344cd1fd0a4f28419497f9722a3daafe3b4186f6b6457e0908290a350600180546001600160a01b0319166001600160a01b03929092169190911790556100b2565b3390565b610d15806100c16000396000f3fe608060405234801561001057600080fd5b50600436106100935760003560e01c80638da5cb5b116100665780638da5cb5b146101855780638ee7fa92146101a9578063c58804cf1461025d578063eb60157e14610318578063f2fde38b1461032057610093565b8063024dd44a146100985780634e71d92d1461014457806363a1b18c1461014e578063715018a61461017d575b600080fd5b6100b5600480360360208110156100ae57600080fd5b5035610346565b6040518084815260200180602001836001600160a01b03168152602001828103825284818151815260200191508051906020019080838360005b838110156101075781810151838201526020016100ef565b50505050905090810190601f1680156101345780820380516001836020036101000a031916815260200191505b5094505050505060405180910390f35b61014c61041e565b005b61016b6004803603602081101561016457600080fd5b5035610510565b60408051918252519081900360200190f35b61014c6105c9565b61018d610675565b604080516001600160a01b039092168252519081900360200190f35b61014c600480360360608110156101bf57600080fd5b8101906020810181356401000000008111156101da57600080fd5b8201836020820111156101ec57600080fd5b8035906020019184600183028401116401000000008311171561020e57600080fd5b91908080601f016020809104026020016040519081016040528093929190818152602001838380828437600092019190915250929550506001600160a01b038335169350505060200135610684565b61014c6004803603608081101561027357600080fd5b8135919081019060408101602082013564010000000081111561029557600080fd5b8201836020820111156102a757600080fd5b803590602001918460018302840111640100000000831117156102c957600080fd5b91908080601f016020809104026020016040519081016040528093929190818152602001838380828437600092019190915250929550506001600160a01b0383351693505050602001356107b3565b61018d610876565b61014c6004803603602081101561033657600080fd5b50356001600160a01b0316610885565b6002818154811061035357fe5b9060005260206000209060030201600091509050806000015490806001018054600181600116156101000203166002900480601f0160208091040260200160405190810160405280929190818152602001828054600181600116156101000203166002900480156104055780601f106103da57610100808354040283529160200191610405565b820191906000526020600020905b8154815290600101906020018083116103e857829003601f168201915b505050600290930154919250506001600160a01b031683565b600154604080516370a0823160e01b815230600482015290516000926001600160a01b0316916370a08231916024808301926020929190829003018186803b15801561046957600080fd5b505afa15801561047d573d6000803e3d6000fd5b505050506040513d602081101561049357600080fd5b5051905060005b60025481101561050c576000600282815481106104b357fe5b9060005260206000209060030201905060006104e760646104e184600001548761098790919063ffffffff16565b906109e9565b6002830154909150610502906001600160a01b031682610a50565b505060010161049a565b5050565b6000806002838154811061052057fe5b60009182526020808320600154604080516370a0823160e01b81523060048201529051600390950290920195506001600160a01b0316926370a0823192602480840193919291829003018186803b15801561057a57600080fd5b505afa15801561058e573d6000803e3d6000fd5b505050506040513d60208110156105a457600080fd5b505182549091506000906105c0906064906104e1908590610987565b95945050505050565b6105d1610be1565b6001600160a01b03166105e2610675565b6001600160a01b03161461062b576040805162461bcd60e51b81526020600482018190526024820152600080516020610cc0833981519152604482015290519081900360640190fd5b600080546040516001600160a01b03909116907f8be0079c531659141344cd1fd0a4f28419497f9722a3daafe3b4186f6b6457e0908390a3600080546001600160a01b0319169055565b6000546001600160a01b031690565b61068c610be1565b6001600160a01b031661069d610675565b6001600160a01b0316146106e6576040805162461bcd60e51b81526020600482018190526024820152600080516020610cc0833981519152604482015290519081900360640190fd5b6040805160608101825282815260208082018681526001600160a01b0386169383019390935260028054600181018255600091909152825160039091027f405787fa12a823e0f2b7631cc41b3ba8828b3321ca811111fa75cd3aa3bb5ace81019182559351805193949193610784937f405787fa12a823e0f2b7631cc41b3ba8828b3321ca811111fa75cd3aa3bb5acf909301929190910190610be5565b5060409190910151600290910180546001600160a01b0319166001600160a01b03909216919091179055505050565b6107bb610be1565b6001600160a01b03166107cc610675565b6001600160a01b031614610815576040805162461bcd60e51b81526020600482018190526024820152600080516020610cc0833981519152604482015290519081900360640190fd5b60006002858154811061082457fe5b906000526020600020906003020190508381600101908051906020019061084c929190610be5565b506002810180546001600160a01b0319166001600160a01b03949094169390931790925590555050565b6001546001600160a01b031681565b61088d610be1565b6001600160a01b031661089e610675565b6001600160a01b0316146108e7576040805162461bcd60e51b81526020600482018190526024820152600080516020610cc0833981519152604482015290519081900360640190fd5b6001600160a01b03811661092c5760405162461bcd60e51b8152600401808060200182810382526026815260200180610c796026913960400191505060405180910390fd5b600080546040516001600160a01b03808516939216917f8be0079c531659141344cd1fd0a4f28419497f9722a3daafe3b4186f6b6457e091a3600080546001600160a01b0319166001600160a01b0392909216919091179055565b600082610996575060006109e3565b828202828482816109a357fe5b04146109e05760405162461bcd60e51b8152600401808060200182810382526021815260200180610c9f6021913960400191505060405180910390fd5b90505b92915050565b6000808211610a3f576040805162461bcd60e51b815260206004820152601a60248201527f536166654d6174683a206469766973696f6e206279207a65726f000000000000604482015290519081900360640190fd5b818381610a4857fe5b049392505050565b600154604080516370a0823160e01b815230600482015290516000926001600160a01b0316916370a08231916024808301926020929190829003018186803b158015610a9b57600080fd5b505afa158015610aaf573d6000803e3d6000fd5b505050506040513d6020811015610ac557600080fd5b5051905080821115610b59576001546040805163a9059cbb60e01b81526001600160a01b038681166004830152602482018590529151919092169163a9059cbb9160448083019260209291908290030181600087803b158015610b2757600080fd5b505af1158015610b3b573d6000803e3d6000fd5b505050506040513d6020811015610b5157600080fd5b50610bdc9050565b6001546040805163a9059cbb60e01b81526001600160a01b038681166004830152602482018690529151919092169163a9059cbb9160448083019260209291908290030181600087803b158015610baf57600080fd5b505af1158015610bc3573d6000803e3d6000fd5b505050506040513d6020811015610bd957600080fd5b50505b505050565b3390565b828054600181600116156101000203166002900490600052602060002090601f016020900481019282601f10610c2657805160ff1916838001178555610c53565b82800160010185558215610c53579182015b82811115610c53578251825591602001919060010190610c38565b50610c5f929150610c63565b5090565b5b80821115610c5f5760008155600101610c6456fe4f776e61626c653a206e6577206f776e657220697320746865207a65726f2061646472657373536166654d6174683a206d756c7469706c69636174696f6e206f766572666c6f774f776e61626c653a2063616c6c6572206973206e6f7420746865206f776e6572a26469706673582212201061f325a6d307286b88f5cb44d78555051b591baadced44d2f94f3ed97441a964736f6c634300060c0033",
  "linkReferences": {},
  "deployedLinkReferences": {}
}