{
  "_format": "hh-sol-artifact-1",
  "contractName": "PERC20Storage",
  "sourceName": "contracts/Lend/token/PERC20Storage.sol",
  "abi": [
    {
      "inputs": [],
      "name": "underlying",
      "outputs": [
        {
          "internalType": "address",
          "name": "",
          "type": "address"
        }
      ],
      "stateMutability": "view",
      "type": "function"
    }
  ],
  "bytecode": "0x6080604052348015600f57600080fd5b5060948061001e6000396000f3fe6080604052348015600f57600080fd5b506004361060285760003560e01c80636f307dc314602d575b600080fd5b6033604f565b604080516001600160a01b039092168252519081900360200190f35b6000546001600160a01b03168156fea26469706673582212203eee98c7af82c0f122c0b34fff7e737d2c3a8602e3b4fa711adc2864dfd9d26564736f6c634300060c0033",
  "linkReferences": {},
  "deployedLinkReferences": {}
}