{
  "_format": "hh-sol-artifact-1",
  "contractName": "DAIInterestRateModelV3",
  "sourceName": "contracts/Lend/DAIInterestRateModelV3.sol",
  "abi": [
    {
      "inputs": [
        {
          "internalType": "uint256",
          "name": "jumpMultiplierPerYear",
          "type": "uint256"
        },
        {
          "internalType": "uint256",
          "name": "kink_",
          "type": "uint256"
        },
        {
          "internalType": "address",
          "name": "pot_",
          "type": "address"
        },
        {
          "internalType": "address",
          "name": "jug_",
          "type": "address"
        },
        {
          "internalType": "address",
          "name": "owner_",
          "type": "address"
        }
      ],
      "payable": false,
      "stateMutability": "nonpayable",
      "type": "constructor"
    },
    {
      "anonymous": false,
      "inputs": [
        {
          "indexed": false,
          "internalType": "uint256",
          "name": "baseRatePerBlock",
          "type": "uint256"
        },
        {
          "indexed": false,
          "internalType": "uint256",
          "name": "multiplierPerBlock",
          "type": "uint256"
        },
        {
          "indexed": false,
          "internalType": "uint256",
          "name": "jumpMultiplierPerBlock",
          "type": "uint256"
        },
        {
          "indexed": false,
          "internalType": "uint256",
          "name": "kink",
          "type": "uint256"
        }
      ],
      "name": "NewInterestParams",
      "type": "event"
    },
    {
      "constant": true,
      "inputs": [],
      "name": "assumedOneMinusReserveFactorMantissa",
      "outputs": [
        {
          "internalType": "uint256",
          "name": "",
          "type": "uint256"
        }
      ],
      "payable": false,
      "stateMutability": "view",
      "type": "function"
    },
    {
      "constant": true,
      "inputs": [],
      "name": "baseRatePerBlock",
      "outputs": [
        {
          "internalType": "uint256",
          "name": "",
          "type": "uint256"
        }
      ],
      "payable": false,
      "stateMutability": "view",
      "type": "function"
    },
    {
      "constant": true,
      "inputs": [],
      "name": "blocksPerYear",
      "outputs": [
        {
          "internalType": "uint256",
          "name": "",
          "type": "uint256"
        }
      ],
      "payable": false,
      "stateMutability": "view",
      "type": "function"
    },
    {
      "constant": true,
      "inputs": [],
      "name": "dsrPerBlock",
      "outputs": [
        {
          "internalType": "uint256",
          "name": "",
          "type": "uint256"
        }
      ],
      "payable": false,
      "stateMutability": "view",
      "type": "function"
    },
    {
      "constant": true,
      "inputs": [],
      "name": "gapPerBlock",
      "outputs": [
        {
          "internalType": "uint256",
          "name": "",
          "type": "uint256"
        }
      ],
      "payable": false,
      "stateMutability": "view",
      "type": "function"
    },
    {
      "constant": true,
      "inputs": [
        {
          "internalType": "uint256",
          "name": "cash",
          "type": "uint256"
        },
        {
          "internalType": "uint256",
          "name": "borrows",
          "type": "uint256"
        },
        {
          "internalType": "uint256",
          "name": "reserves",
          "type": "uint256"
        }
      ],
      "name": "getBorrowRate",
      "outputs": [
        {
          "internalType": "uint256",
          "name": "",
          "type": "uint256"
        }
      ],
      "payable": false,
      "stateMutability": "view",
      "type": "function"
    },
    {
      "constant": true,
      "inputs": [
        {
          "internalType": "uint256",
          "name": "cash",
          "type": "uint256"
        },
        {
          "internalType": "uint256",
          "name": "borrows",
          "type": "uint256"
        },
        {
          "internalType": "uint256",
          "name": "reserves",
          "type": "uint256"
        },
        {
          "internalType": "uint256",
          "name": "reserveFactorMantissa",
          "type": "uint256"
        }
      ],
      "name": "getSupplyRate",
      "outputs": [
        {
          "internalType": "uint256",
          "name": "",
          "type": "uint256"
        }
      ],
      "payable": false,
      "stateMutability": "view",
      "type": "function"
    },
    {
      "constant": true,
      "inputs": [],
      "name": "isInterestRateModel",
      "outputs": [
        {
          "internalType": "bool",
          "name": "",
          "type": "bool"
        }
      ],
      "payable": false,
      "stateMutability": "view",
      "type": "function"
    },
    {
      "constant": true,
      "inputs": [],
      "name": "jumpMultiplierPerBlock",
      "outputs": [
        {
          "internalType": "uint256",
          "name": "",
          "type": "uint256"
        }
      ],
      "payable": false,
      "stateMutability": "view",
      "type": "function"
    },
    {
      "constant": true,
      "inputs": [],
      "name": "kink",
      "outputs": [
        {
          "internalType": "uint256",
          "name": "",
          "type": "uint256"
        }
      ],
      "payable": false,
      "stateMutability": "view",
      "type": "function"
    },
    {
      "constant": true,
      "inputs": [],
      "name": "multiplierPerBlock",
      "outputs": [
        {
          "internalType": "uint256",
          "name": "",
          "type": "uint256"
        }
      ],
      "payable": false,
      "stateMutability": "view",
      "type": "function"
    },
    {
      "constant": true,
      "inputs": [],
      "name": "owner",
      "outputs": [
        {
          "internalType": "address",
          "name": "",
          "type": "address"
        }
      ],
      "payable": false,
      "stateMutability": "view",
      "type": "function"
    },
    {
      "constant": false,
      "inputs": [],
      "name": "poke",
      "outputs": [],
      "payable": false,
      "stateMutability": "nonpayable",
      "type": "function"
    },
    {
      "constant": false,
      "inputs": [
        {
          "internalType": "uint256",
          "name": "baseRatePerYear",
          "type": "uint256"
        },
        {
          "internalType": "uint256",
          "name": "gapPerYear",
          "type": "uint256"
        },
        {
          "internalType": "uint256",
          "name": "jumpMultiplierPerYear",
          "type": "uint256"
        },
        {
          "internalType": "uint256",
          "name": "kink_",
          "type": "uint256"
        }
      ],
      "name": "updateJumpRateModel",
      "outputs": [],
      "payable": false,
      "stateMutability": "nonpayable",
      "type": "function"
    },
    {
      "constant": true,
      "inputs": [
        {
          "internalType": "uint256",
          "name": "cash",
          "type": "uint256"
        },
        {
          "internalType": "uint256",
          "name": "borrows",
          "type": "uint256"
        },
        {
          "internalType": "uint256",
          "name": "reserves",
          "type": "uint256"
        }
      ],
      "name": "utilizationRate",
      "outputs": [
        {
          "internalType": "uint256",
          "name": "",
          "type": "uint256"
        }
      ],
      "payable": false,
      "stateMutability": "pure",
      "type": "function"
    }
  ],
  "bytecode": "0x60806040523480156200001157600080fd5b50604051620012ce380380620012ce833981810160405260a08110156200003757600080fd5b508051602082015160408301516060840151608090940151600080546001600160a01b0319166001600160a01b038316178155939492939192918086868483808484846200008884808585620000f8565b5050505050505050505062201480668e1bc9bf04000081620000a657fe5b04600555600680546001600160a01b038086166001600160a01b0319928316179092556007805492851692909116919091179055620000ed6001600160e01b03620001ea16565b505050505062000777565b6200011562201480856200046660201b620008641790919060201c565b6002556200016d620001376220148083620004b9602090811b6200080b17901c565b62000159670de0b6b3a764000086620004b960201b6200080b1790919060201c565b6200046660201b620008641790919060201c565b6001556200018b826220148062000466602090811b6200086417901c565b60038190556004829055600254600154604080519283526020830191909152818101929092526060810183905290517f6960ab234c7ef4b0c9197100f5393cfcde7c453ac910a27bd2000aa1dd4c068d9181900360800190a150505050565b60075460408051636cb1c69b60e11b8152644554482d4160d81b600482015281516000936001600160a01b03169263d9638d369260248082019391829003018186803b1580156200023a57600080fd5b505afa1580156200024f573d6000803e3d6000fd5b505050506040513d60408110156200026657600080fd5b505160075460408051635001f3b560e01b815290519293506000926200035192600f926200033d926b033b2e3c9fd0803ce8000000926200015992670de0b6b3a7640000928692869262000329926001600160a01b0390921691635001f3b591600480820192602092909190829003018186803b158015620002e757600080fd5b505afa158015620002fc573d6000803e3d6000fd5b505050506040513d60208110156200031357600080fd5b50518b9062000517602090811b6200076617901c565b6200057260201b620007c91790919060201c565b620004b960201b6200080b1790919060201c565b905062000380670d2f13f7789f000062000159670de0b6b3a76400006200033d6001600160e01b03620005bc16565b6002819055811115620003e157620003d860045462000159670de0b6b3a76400006200033d600554620003c4600254886200057260201b620007c91790919060201c565b6200051760201b620007661790919060201c565b60015562000410565b6200040c60045462000159670de0b6b3a7640000600554620004b960201b6200080b1790919060201c565b6001555b600254600154600354600454604080519485526020850193909352838301919091526060830152517f6960ab234c7ef4b0c9197100f5393cfcde7c453ac910a27bd2000aa1dd4c068d9181900360800190a15050565b6000620004b083836040518060400160405280601a81526020017f536166654d6174683a206469766973696f6e206279207a65726f0000000000008152506200067360201b60201c565b90505b92915050565b600082620004ca57506000620004b3565b82820282848281620004d857fe5b0414620004b05760405162461bcd60e51b8152600401808060200182810382526021815260200180620012ad6021913960400191505060405180910390fd5b600082820183811015620004b0576040805162461bcd60e51b815260206004820152601b60248201527f536166654d6174683a206164646974696f6e206f766572666c6f770000000000604482015290519081900360640190fd5b6000620004b083836040518060400160405280601f81526020017f536166654d6174683a207375627472616374696f6e20756e646572666c6f77008152506200071a60201b60201c565b60006200066e600f6200033d633b9aca00620001596b033b2e3c9fd0803ce8000000600660009054906101000a90046001600160a01b03166001600160a01b031663487bf0826040518163ffffffff1660e01b815260040160206040518083038186803b1580156200062d57600080fd5b505afa15801562000642573d6000803e3d6000fd5b505050506040513d60208110156200065957600080fd5b50519062000572602090811b620007c917901c565b905090565b60008183620007035760405162461bcd60e51b81526004018080602001828103825283818151815260200191508051906020019080838360005b83811015620006c7578181015183820152602001620006ad565b50505050905090810190601f168015620006f55780820380516001836020036101000a031916815260200191505b509250505060405180910390fd5b5060008385816200071057fe5b0495945050505050565b600081848411156200076f5760405162461bcd60e51b8152602060048201818152835160248401528351909283926044909101919085019080838360008315620006c7578181015183820152602001620006ad565b505050900390565b610b2680620007876000396000f3fe608060405234801561001057600080fd5b50600436106100f55760003560e01c80638da5cb5b11610097578063b9f9850a11610066578063b9f9850a14610226578063f14039de1461022e578063f52d21f314610236578063fd2da3391461023e576100f5565b80638da5cb5b146101c357806396456c5c146101e7578063a385fb96146101ef578063b8168816146101f7576100f5565b80632191f92a116100d35780632191f92a1461016e5780636dac7cd51461018a5780636e71e2d8146101925780638726bb89146101bb576100f5565b806315f24053146100fa57806318178358146101355780632037f3e71461013f575b600080fd5b6101236004803603606081101561011057600080fd5b5080359060208101359060400135610246565b60408051918252519081900360200190f35b61013d61025d565b005b61013d6004803603608081101561015557600080fd5b508035906020810135906040810135906060013561049b565b610176610508565b604080519115158252519081900360200190f35b61012361050d565b610123600480360360608110156101a857600080fd5b5080359060208101359060400135610519565b610123610557565b6101cb61055d565b604080516001600160a01b039092168252519081900360200190f35b61012361056c565b610123610616565b6101236004803603608081101561020d57600080fd5b508035906020810135906040810135906060013561061d565b610123610691565b610123610697565b61012361069d565b6101236106a3565b60006102538484846106a9565b90505b9392505050565b60075460408051636cb1c69b60e11b8152644554482d4160d81b600482015281516000936001600160a01b03169263d9638d369260248082019391829003018186803b1580156102ac57600080fd5b505afa1580156102c0573d6000803e3d6000fd5b505050506040513d60408110156102d657600080fd5b505160075460408051635001f3b560e01b815290519293506000926103af92600f92610397926b033b2e3c9fd0803ce8000000926103a392670de0b6b3a7640000928692869261038b926001600160a01b0390921691635001f3b591600480820192602092909190829003018186803b15801561035257600080fd5b505afa158015610366573d6000803e3d6000fd5b505050506040513d602081101561037c57600080fd5b50518b9063ffffffff61076616565b9063ffffffff6107c916565b9063ffffffff61080b16565b9063ffffffff61086416565b90506103d1670d2f13f7789f00006103a3670de0b6b3a764000061039761056c565b600281905581111561041e576104166004546103a3670de0b6b3a764000061039760055461040a600254886107c990919063ffffffff16565b9063ffffffff61076616565b600155610445565b6104416004546103a3670de0b6b3a764000060055461080b90919063ffffffff16565b6001555b600254600154600354600454604080519485526020850193909352838301919091526060830152517f6960ab234c7ef4b0c9197100f5393cfcde7c453ac910a27bd2000aa1dd4c068d9181900360800190a15050565b6000546001600160a01b031633146104e45760405162461bcd60e51b8152600401808060200182810382526026815260200180610acc6026913960400191505060405180910390fd5b6220148083046005556104fa60008084846108a6565b61050261025d565b50505050565b600181565b670d2f13f7789f000081565b60008261052857506000610256565b61025361053f8361038b878763ffffffff61076616565b6103a385670de0b6b3a764000063ffffffff61080b16565b60015481565b6000546001600160a01b031681565b6000610611600f610397633b9aca006103a36b033b2e3c9fd0803ce8000000600660009054906101000a90046001600160a01b03166001600160a01b031663487bf0826040518163ffffffff1660e01b815260040160206040518083038186803b1580156105d957600080fd5b505afa1580156105ed573d6000803e3d6000fd5b505050506040513d602081101561060357600080fd5b50519063ffffffff6107c916565b905090565b6220148081565b60008061062c86868686610947565b905060006106448561038b898963ffffffff61076616565b90508061065357509050610689565b6000610671826103a361066461056c565b8b9063ffffffff61080b16565b9050610683818463ffffffff61076616565b93505050505b949350505050565b60035481565b60025481565b60055481565b60045481565b6000806106b7858585610519565b905060045481116106f1576106e960025461040a670de0b6b3a76400006103a36001548661080b90919063ffffffff16565b915050610256565b600061071c60025461040a670de0b6b3a76400006103a360015460045461080b90919063ffffffff16565b90506000610735600454846107c990919063ffffffff16565b905061075c8261040a670de0b6b3a76400006103a36003548661080b90919063ffffffff16565b9350505050610256565b6000828201838110156107c0576040805162461bcd60e51b815260206004820152601b60248201527f536166654d6174683a206164646974696f6e206f766572666c6f770000000000604482015290519081900360640190fd5b90505b92915050565b60006107c083836040518060400160405280601f81526020017f536166654d6174683a207375627472616374696f6e20756e646572666c6f77008152506109ae565b60008261081a575060006107c3565b8282028284828161082757fe5b04146107c05760405162461bcd60e51b8152600401808060200182810382526021815260200180610aab6021913960400191505060405180910390fd5b60006107c083836040518060400160405280601a81526020017f536166654d6174683a206469766973696f6e206279207a65726f000000000000815250610a45565b6108b9846220148063ffffffff61086416565b6002556108d261053f622014808363ffffffff61080b16565b6001556108e8826220148063ffffffff61086416565b60038190556004829055600254600154604080519283526020830191909152818101929092526060810183905290517f6960ab234c7ef4b0c9197100f5393cfcde7c453ac910a27bd2000aa1dd4c068d9181900360800190a150505050565b600080610962670de0b6b3a76400008463ffffffff6107c916565b905060006109718787876106a9565b90506000610991670de0b6b3a76400006103a3848663ffffffff61080b16565b9050610683670de0b6b3a76400006103a3836103978c8c8c610519565b60008184841115610a3d5760405162461bcd60e51b81526004018080602001828103825283818151815260200191508051906020019080838360005b83811015610a025781810151838201526020016109ea565b50505050905090810190601f168015610a2f5780820380516001836020036101000a031916815260200191505b509250505060405180910390fd5b505050900390565b60008183610a945760405162461bcd60e51b8152602060048201818152835160248401528351909283926044909101919085019080838360008315610a025781810151838201526020016109ea565b506000838581610aa057fe5b049594505050505056fe536166654d6174683a206d756c7469706c69636174696f6e206f766572666c6f776f6e6c7920746865206f776e6572206d61792063616c6c20746869732066756e6374696f6e2ea265627a7a72315820be361c3e0dc8fa22978fd9fa7446ca83ae0d6234a34d27282035db7b2f20033f64736f6c63430005100032536166654d6174683a206d756c7469706c69636174696f6e206f766572666c6f77",
  "linkReferences": {},
  "deployedLinkReferences": {}
}