{
  "_format": "hh-sol-artifact-1",
  "contractName": "WePiggyPriceOracleV1",
  "sourceName": "contracts/Lend/oracle/WePiggyPriceOracleV1.sol",
  "abi": [
    {
      "anonymous": false,
      "inputs": [
        {
          "indexed": false,
          "internalType": "address",
          "name": "token",
          "type": "address"
        },
        {
          "indexed": false,
          "internalType": "string",
          "name": "symbol",
          "type": "string"
        },
        {
          "indexed": false,
          "internalType": "uint256",
          "name": "upperBoundAnchorRatio",
          "type": "uint256"
        },
        {
          "indexed": false,
          "internalType": "uint256",
          "name": "lowerBoundAnchorRatio",
          "type": "uint256"
        }
      ],
      "name": "ConfigUpdated",
      "type": "event"
    },
    {
      "anonymous": false,
      "inputs": [
        {
          "indexed": true,
          "internalType": "address",
          "name": "previousOwner",
          "type": "address"
        },
        {
          "indexed": true,
          "internalType": "address",
          "name": "newOwner",
          "type": "address"
        }
      ],
      "name": "OwnershipTransferred",
      "type": "event"
    },
    {
      "anonymous": false,
      "inputs": [
        {
          "indexed": false,
          "internalType": "address",
          "name": "token",
          "type": "address"
        },
        {
          "indexed": false,
          "internalType": "uint256",
          "name": "price",
          "type": "uint256"
        }
      ],
      "name": "PriceUpdated",
      "type": "event"
    },
    {
      "inputs": [],
      "name": "ADMIN_ROLE",
      "outputs": [
        {
          "internalType": "bytes32",
          "name": "",
          "type": "bytes32"
        }
      ],
      "stateMutability": "view",
      "type": "function"
    },
    {
      "inputs": [],
      "name": "REPORTER_ROLE",
      "outputs": [
        {
          "internalType": "bytes32",
          "name": "",
          "type": "bytes32"
        }
      ],
      "stateMutability": "view",
      "type": "function"
    },
    {
      "inputs": [
        {
          "internalType": "address",
          "name": "",
          "type": "address"
        }
      ],
      "name": "configs",
      "outputs": [
        {
          "internalType": "address",
          "name": "token",
          "type": "address"
        },
        {
          "internalType": "string",
          "name": "symbol",
          "type": "string"
        },
        {
          "internalType": "uint256",
          "name": "upperBoundAnchorRatio",
          "type": "uint256"
        },
        {
          "internalType": "uint256",
          "name": "lowerBoundAnchorRatio",
          "type": "uint256"
        }
      ],
      "stateMutability": "view",
      "type": "function"
    },
    {
      "inputs": [
        {
          "internalType": "address",
          "name": "token",
          "type": "address"
        }
      ],
      "name": "getPrice",
      "outputs": [
        {
          "internalType": "uint256",
          "name": "",
          "type": "uint256"
        }
      ],
      "stateMutability": "view",
      "type": "function"
    },
    {
      "inputs": [],
      "name": "initialize",
      "outputs": [],
      "stateMutability": "nonpayable",
      "type": "function"
    },
    {
      "inputs": [],
      "name": "owner",
      "outputs": [
        {
          "internalType": "address",
          "name": "",
          "type": "address"
        }
      ],
      "stateMutability": "view",
      "type": "function"
    },
    {
      "inputs": [],
      "name": "renounceOwnership",
      "outputs": [],
      "stateMutability": "nonpayable",
      "type": "function"
    },
    {
      "inputs": [
        {
          "internalType": "address",
          "name": "token",
          "type": "address"
        },
        {
          "internalType": "uint256",
          "name": "price",
          "type": "uint256"
        },
        {
          "internalType": "bool",
          "name": "force",
          "type": "bool"
        }
      ],
      "name": "setPrice",
      "outputs": [],
      "stateMutability": "nonpayable",
      "type": "function"
    },
    {
      "inputs": [
        {
          "internalType": "address[]",
          "name": "tokens",
          "type": "address[]"
        },
        {
          "internalType": "uint256[]",
          "name": "prices",
          "type": "uint256[]"
        }
      ],
      "name": "setPrices",
      "outputs": [],
      "stateMutability": "nonpayable",
      "type": "function"
    },
    {
      "inputs": [
        {
          "internalType": "address",
          "name": "token",
          "type": "address"
        },
        {
          "internalType": "string",
          "name": "symbol",
          "type": "string"
        },
        {
          "internalType": "uint256",
          "name": "upperBoundAnchorRatio",
          "type": "uint256"
        },
        {
          "internalType": "uint256",
          "name": "lowerBoundAnchorRatio",
          "type": "uint256"
        }
      ],
      "name": "setTokenConfig",
      "outputs": [],
      "stateMutability": "nonpayable",
      "type": "function"
    },
    {
      "inputs": [
        {
          "internalType": "address",
          "name": "newOwner",
          "type": "address"
        }
      ],
      "name": "transferOwnership",
      "outputs": [],
      "stateMutability": "nonpayable",
      "type": "function"
    }
  ],
  "bytecode": "0x608060405234801561001057600080fd5b5061130c806100206000396000f3fe608060405234801561001057600080fd5b50600436106100a95760003560e01c806375b238fc1161007157806375b238fc146101ee5780638129fc1c146101f657806382c26dc9146101fe5780638da5cb5b146102b9578063f2fde38b146102dd578063fce8987814610303576100a9565b80632caf02d0146100ae5780633f60d799146100e457806341976e09146100fe5780634352fa9f14610124578063715018a6146101e6575b600080fd5b6100e2600480360360608110156100c457600080fd5b506001600160a01b03813516906020810135906040013515156103bf565b005b6100ec61046b565b60408051918252519081900360200190f35b6100ec6004803603602081101561011457600080fd5b50356001600160a01b031661048f565b6100e26004803603604081101561013a57600080fd5b81019060208101813564010000000081111561015557600080fd5b82018360208201111561016757600080fd5b8035906020019184602083028401116401000000008311171561018957600080fd5b9193909290916020810190356401000000008111156101a757600080fd5b8201836020820111156101b957600080fd5b803590602001918460208302840111640100000000831117156101db57600080fd5b5090925090506104ad565b6100e26105eb565b6100ec61068d565b6100e26106b1565b6100e26004803603608081101561021457600080fd5b6001600160a01b03823516919081019060408101602082013564010000000081111561023f57600080fd5b82018360208201111561025157600080fd5b8035906020019184600183028401116401000000008311171561027357600080fd5b91908080601f016020809104026020016040519081016040528093929190818152602001838380828437600092019190915250929550508235935050506020013561075b565b6102c1610947565b604080516001600160a01b039092168252519081900360200190f35b6100e2600480360360208110156102f357600080fd5b50356001600160a01b0316610956565b6103296004803603602081101561031957600080fd5b50356001600160a01b0316610a4f565b60405180856001600160a01b0316815260200180602001848152602001838152602001828103825285818151815260200191508051906020019080838360005b83811015610381578181015183820152602001610369565b50505050905090810190601f1680156103ae5780820380516001836020036101000a031916815260200191505b509550505050505060405180910390f35b6103c7610b0f565b6065546001600160a01b03908116911614610417576040805162461bcd60e51b815260206004820181905260248201526000805160206111d1833981519152604482015290519081900360640190fd5b610422838383610b13565b604080516001600160a01b03851681526020810184905281517f0d86730737b142fc160892fa8a0f2db687a92a0e294d1ad70624cf5acef03b84929181900390910190a1505050565b7f3204c940063673962b481a0395619b3dbbd137589c419e993978c1c71bcf68ec81565b6001600160a01b031660009081526097602052604090206001015490565b6104b5610b0f565b6065546001600160a01b03908116911614610505576040805162461bcd60e51b815260206004820181905260248201526000805160206111d1833981519152604482015290519081900360640190fd5b828114610546576040805162461bcd60e51b815260206004820152600a60248201526962616420706172616d7360b01b604482015290519081900360640190fd5b60005b838110156105e457600085858381811061055f57fe5b905060200201356001600160a01b03169050600084848481811061057f57fe5b9050602002013590506000610595838383610b13565b604080516001600160a01b03851681526020810184905281517f0d86730737b142fc160892fa8a0f2db687a92a0e294d1ad70624cf5acef03b84929181900390910190a1505050600101610549565b5050505050565b6105f3610b0f565b6065546001600160a01b03908116911614610643576040805162461bcd60e51b815260206004820181905260248201526000805160206111d1833981519152604482015290519081900360640190fd5b6065546040516000916001600160a01b0316907f8be0079c531659141344cd1fd0a4f28419497f9722a3daafe3b4186f6b6457e0908390a3606580546001600160a01b0319169055565b7fa49807205ce4d355092ef5a8a18f56e8913cf4a201fbe287825b095693c2177581565b600054610100900460ff16806106ca57506106ca610c91565b806106d8575060005460ff16155b6107135760405162461bcd60e51b815260040180806020018281038252602e8152602001806111f1602e913960400191505060405180910390fd5b600054610100900460ff1615801561073e576000805460ff1961ff0019909116610100171660011790555b610746610c97565b8015610758576000805461ff00191690555b50565b610763610b0f565b6065546001600160a01b039081169116146107b3576040805162461bcd60e51b815260206004820181905260248201526000805160206111d1833981519152604482015290519081900360640190fd5b80605011156107f35760405162461bcd60e51b81526004018080602001828103825260478152602001806111696047913960600191505060405180910390fd5b81607810156108335760405162461bcd60e51b815260040180806020018281038252604981526020018061128e6049913960600191505060405180910390fd5b6001600160a01b038416600081815260986020908152604090912080546001600160a01b03191690921782558451610873916001840191908701906110af565b508281600201819055508181600301819055507fc8004015853107e4cb5efa9fdfc530f3530f5f5d8a833a9d67e2efe39717d7f68585858560405180856001600160a01b0316815260200180602001848152602001838152602001828103825285818151815260200191508051906020019080838360005b838110156109035781810151838201526020016108eb565b50505050905090810190601f1680156109305780820380516001836020036101000a031916815260200191505b509550505050505060405180910390a15050505050565b6065546001600160a01b031690565b61095e610b0f565b6065546001600160a01b039081169116146109ae576040805162461bcd60e51b815260206004820181905260248201526000805160206111d1833981519152604482015290519081900360640190fd5b6001600160a01b0381166109f35760405162461bcd60e51b81526004018080602001828103825260268152602001806111436026913960400191505060405180910390fd5b6065546040516001600160a01b038084169216907f8be0079c531659141344cd1fd0a4f28419497f9722a3daafe3b4186f6b6457e090600090a3606580546001600160a01b0319166001600160a01b0392909216919091179055565b6098602090815260009182526040918290208054600180830180548651600261010094831615949094026000190190911692909204601f81018690048602830186019096528582526001600160a01b03909216949293909290830182828015610af95780601f10610ace57610100808354040283529160200191610af9565b820191906000526020600020905b815481529060010190602001808311610adc57829003601f168201915b5050505050908060020154908060030154905084565b3390565b6001600160a01b03831660009081526097602052604090208115610b405760018101839055428155610c8b565b6001600160a01b038085166000818152609860205260409020805490921614610b9d576040805162461bcd60e51b815260206004820152600a60248201526962616420706172616d7360b01b604482015290519081900360640190fd5b6000610bc56064610bbf84600201548660010154610d3490919063ffffffff16565b90610d96565b90506000610be96064610bbf85600301548760010154610d3490919063ffffffff16565b90506000610bf78783610dd8565b1015610c345760405162461bcd60e51b815260040180806020018281038252603981526020018061121f6039913960400191505060405180910390fd5b6000610c408388610dd8565b1015610c7d5760405162461bcd60e51b81526004018080602001828103825260368152602001806112586036913960400191505060405180910390fd5b505050600181018390554281555b50505050565b303b1590565b600054610100900460ff1680610cb05750610cb0610c91565b80610cbe575060005460ff16155b610cf95760405162461bcd60e51b815260040180806020018281038252602e8152602001806111f1602e913960400191505060405180910390fd5b600054610100900460ff16158015610d24576000805460ff1961ff0019909116610100171660011790555b610d2c610e1a565b610746610eba565b600082610d4357506000610d90565b82820282848281610d5057fe5b0414610d8d5760405162461bcd60e51b81526004018080602001828103825260218152602001806111b06021913960400191505060405180910390fd5b90505b92915050565b6000610d8d83836040518060400160405280601a81526020017f536166654d6174683a206469766973696f6e206279207a65726f000000000000815250610fb3565b6000610d8d83836040518060400160405280601e81526020017f536166654d6174683a207375627472616374696f6e206f766572666c6f770000815250611055565b600054610100900460ff1680610e335750610e33610c91565b80610e41575060005460ff16155b610e7c5760405162461bcd60e51b815260040180806020018281038252602e8152602001806111f1602e913960400191505060405180910390fd5b600054610100900460ff16158015610746576000805460ff1961ff0019909116610100171660011790558015610758576000805461ff001916905550565b600054610100900460ff1680610ed35750610ed3610c91565b80610ee1575060005460ff16155b610f1c5760405162461bcd60e51b815260040180806020018281038252602e8152602001806111f1602e913960400191505060405180910390fd5b600054610100900460ff16158015610f47576000805460ff1961ff0019909116610100171660011790555b6000610f51610b0f565b606580546001600160a01b0319166001600160a01b038316908117909155604051919250906000907f8be0079c531659141344cd1fd0a4f28419497f9722a3daafe3b4186f6b6457e0908290a3508015610758576000805461ff001916905550565b6000818361103f5760405162461bcd60e51b81526004018080602001828103825283818151815260200191508051906020019080838360005b83811015611004578181015183820152602001610fec565b50505050905090810190601f1680156110315780820380516001836020036101000a031916815260200191505b509250505060405180910390fd5b50600083858161104b57fe5b0495945050505050565b600081848411156110a75760405162461bcd60e51b8152602060048201818152835160248401528351909283926044909101919085019080838360008315611004578181015183820152602001610fec565b505050900390565b828054600181600116156101000203166002900490600052602060002090601f016020900481019282601f106110f057805160ff191683800117855561111d565b8280016001018555821561111d579182015b8281111561111d578251825591602001919060010190611102565b5061112992915061112d565b5090565b5b80821115611129576000815560010161112e56fe4f776e61626c653a206e6577206f776e657220697320746865207a65726f20616464726573736c6f776572426f756e64416e63686f72526174696f206d7573742067726561746572206f7220657175616c20746f206d696e4c6f776572426f756e64416e63686f72526174696f536166654d6174683a206d756c7469706c69636174696f6e206f766572666c6f774f776e61626c653a2063616c6c6572206973206e6f7420746865206f776e6572436f6e747261637420696e7374616e63652068617320616c7265616479206265656e20696e697469616c697a6564746865207072696365206d7573742067726561746572207468616e20746865206f6c642a6c6f776572426f756e64416e63686f72526174696f746865207072696365206d757374206c657373207468616e20746865206f6c642a7570706572426f756e64416e63686f72526174696f7570706572426f756e64416e63686f72526174696f206d757374204c657373207468616e206f7220657175616c20746f206d61785570706572426f756e64416e63686f72526174696fa264697066735822122013ed4ea4d9cf2a43dcec29b21c3c59cb602ddf192afcbe838763f3de0ceccd0464736f6c634300060c0033",
  "linkReferences": {},
  "deployedLinkReferences": {}
}