{
  "_format": "hh-sol-artifact-1",
  "contractName": "Maximillion",
  "sourceName": "contracts/Lend/token/Maximillion.sol",
  "abi": [
    {
      "inputs": [
        {
          "internalType": "contract PEther",
          "name": "pEther_",
          "type": "address"
        }
      ],
      "stateMutability": "nonpayable",
      "type": "constructor"
    },
    {
      "inputs": [],
      "name": "pEther",
      "outputs": [
        {
          "internalType": "contract PEther",
          "name": "",
          "type": "address"
        }
      ],
      "stateMutability": "view",
      "type": "function"
    },
    {
      "inputs": [
        {
          "internalType": "address",
          "name": "borrower",
          "type": "address"
        }
      ],
      "name": "repayBehalf",
      "outputs": [],
      "stateMutability": "payable",
      "type": "function"
    },
    {
      "inputs": [
        {
          "internalType": "address",
          "name": "borrower",
          "type": "address"
        },
        {
          "internalType": "contract PEther",
          "name": "pEther_",
          "type": "address"
        }
      ],
      "name": "repayBehalfExplicit",
      "outputs": [],
      "stateMutability": "payable",
      "type": "function"
    }
  ],
  "bytecode": "0x608060405234801561001057600080fd5b5060405161031c38038061031c8339818101604052602081101561003357600080fd5b5051600080546001600160a01b039092166001600160a01b03199092169190911790556102b7806100656000396000f3fe6080604052600436106100345760003560e01c8063367b7f05146100395780637af42ed8146100695780639f35c3d51461009a575b600080fd5b6100676004803603604081101561004f57600080fd5b506001600160a01b03813581169160200135166100c0565b005b34801561007557600080fd5b5061007e610258565b604080516001600160a01b039092168252519081900360200190f35b610067600480360360208110156100b057600080fd5b50356001600160a01b0316610267565b60003490506000826001600160a01b03166317bfdfbc856040518263ffffffff1660e01b815260040180826001600160a01b03168152602001915050602060405180830381600087803b15801561011657600080fd5b505af115801561012a573d6000803e3d6000fd5b505050506040513d602081101561014057600080fd5b50519050808211156101e957826001600160a01b031663e597461982866040518363ffffffff1660e01b815260040180826001600160a01b031681526020019150506000604051808303818588803b15801561019b57600080fd5b505af11580156101af573d6000803e3d6000fd5b505060405133935084860380156108fc02935091506000818181858888f193505050501580156101e3573d6000803e3d6000fd5b50610252565b826001600160a01b031663e597461983866040518363ffffffff1660e01b815260040180826001600160a01b031681526020019150506000604051808303818588803b15801561023857600080fd5b505af115801561024c573d6000803e3d6000fd5b50505050505b50505050565b6000546001600160a01b031681565b60005461027e9082906001600160a01b03166100c0565b5056fea264697066735822122014efc286ab9bbb8eeba5f5e95c1366ebcc944a28384da8a10806d6a0278b12bd64736f6c634300060c0033",
  "linkReferences": {},
  "deployedLinkReferences": {}
}