{
  "_format": "hh-sol-artifact-1",
  "contractName": "LemdBreeder",
  "sourceName": "contracts/Lend/farm/LemdBreeder.sol",
  "abi": [
    {
      "inputs": [
        {
          "internalType": "contract LemdToken",
          "name": "_lemd",
          "type": "address"
        },
        {
          "internalType": "address",
          "name": "_devAddr",
          "type": "address"
        },
        {
          "internalType": "uint256",
          "name": "_lemdPerBlock",
          "type": "uint256"
        },
        {
          "internalType": "uint256",
          "name": "_startBlock",
          "type": "uint256"
        },
        {
          "internalType": "uint256",
          "name": "_enableClaimBlock",
          "type": "uint256"
        },
        {
          "internalType": "uint256",
          "name": "_reduceIntervalBlock",
          "type": "uint256"
        },
        {
          "internalType": "uint256",
          "name": "_reduceRate",
          "type": "uint256"
        },
        {
          "internalType": "uint256",
          "name": "_devMiningRate",
          "type": "uint256"
        }
      ],
      "stateMutability": "nonpayable",
      "type": "constructor"
    },
    {
      "anonymous": false,
      "inputs": [
        {
          "indexed": true,
          "internalType": "address",
          "name": "user",
          "type": "address"
        },
        {
          "indexed": true,
          "internalType": "uint256",
          "name": "pid",
          "type": "uint256"
        }
      ],
      "name": "Claim",
      "type": "event"
    },
    {
      "anonymous": false,
      "inputs": [
        {
          "indexed": true,
          "internalType": "address",
          "name": "user",
          "type": "address"
        },
        {
          "indexed": true,
          "internalType": "uint256",
          "name": "pid",
          "type": "uint256"
        },
        {
          "indexed": false,
          "internalType": "uint256",
          "name": "amount",
          "type": "uint256"
        }
      ],
      "name": "EmergencyWithdraw",
      "type": "event"
    },
    {
      "anonymous": false,
      "inputs": [
        {
          "indexed": true,
          "internalType": "address",
          "name": "user",
          "type": "address"
        },
        {
          "indexed": false,
          "internalType": "uint256",
          "name": "pid",
          "type": "uint256"
        },
        {
          "indexed": false,
          "internalType": "uint256",
          "name": "targetPid",
          "type": "uint256"
        },
        {
          "indexed": false,
          "internalType": "uint256",
          "name": "amount",
          "type": "uint256"
        }
      ],
      "name": "Migrate",
      "type": "event"
    },
    {
      "anonymous": false,
      "inputs": [
        {
          "indexed": true,
          "internalType": "address",
          "name": "previousOwner",
          "type": "address"
        },
        {
          "indexed": true,
          "internalType": "address",
          "name": "newOwner",
          "type": "address"
        }
      ],
      "name": "OwnershipTransferred",
      "type": "event"
    },
    {
      "anonymous": false,
      "inputs": [
        {
          "indexed": true,
          "internalType": "address",
          "name": "user",
          "type": "address"
        },
        {
          "indexed": false,
          "internalType": "uint256",
          "name": "pid",
          "type": "uint256"
        },
        {
          "indexed": false,
          "internalType": "uint256",
          "name": "amount",
          "type": "uint256"
        }
      ],
      "name": "ReplaceMigrate",
      "type": "event"
    },
    {
      "anonymous": false,
      "inputs": [
        {
          "indexed": true,
          "internalType": "address",
          "name": "user",
          "type": "address"
        },
        {
          "indexed": true,
          "internalType": "uint256",
          "name": "pid",
          "type": "uint256"
        },
        {
          "indexed": false,
          "internalType": "uint256",
          "name": "amount",
          "type": "uint256"
        }
      ],
      "name": "Stake",
      "type": "event"
    },
    {
      "anonymous": false,
      "inputs": [
        {
          "indexed": true,
          "internalType": "address",
          "name": "user",
          "type": "address"
        },
        {
          "indexed": true,
          "internalType": "uint256",
          "name": "pid",
          "type": "uint256"
        },
        {
          "indexed": false,
          "internalType": "uint256",
          "name": "amount",
          "type": "uint256"
        }
      ],
      "name": "UnStake",
      "type": "event"
    },
    {
      "inputs": [
        {
          "internalType": "uint256",
          "name": "_allocPoint",
          "type": "uint256"
        },
        {
          "internalType": "contract IERC20",
          "name": "_lpToken",
          "type": "address"
        },
        {
          "internalType": "contract IMigrator",
          "name": "_migrator",
          "type": "address"
        },
        {
          "internalType": "bool",
          "name": "_withUpdate",
          "type": "bool"
        }
      ],
      "name": "add",
      "outputs": [],
      "stateMutability": "nonpayable",
      "type": "function"
    },
    {
      "inputs": [
        {
          "internalType": "address",
          "name": "_user",
          "type": "address"
        }
      ],
      "name": "allPendingLemd",
      "outputs": [
        {
          "internalType": "uint256",
          "name": "",
          "type": "uint256"
        }
      ],
      "stateMutability": "view",
      "type": "function"
    },
    {
      "inputs": [
        {
          "internalType": "uint256",
          "name": "_pid",
          "type": "uint256"
        }
      ],
      "name": "claim",
      "outputs": [],
      "stateMutability": "nonpayable",
      "type": "function"
    },
    {
      "inputs": [],
      "name": "devAddr",
      "outputs": [
        {
          "internalType": "address",
          "name": "",
          "type": "address"
        }
      ],
      "stateMutability": "view",
      "type": "function"
    },
    {
      "inputs": [],
      "name": "devMiningRate",
      "outputs": [
        {
          "internalType": "uint256",
          "name": "",
          "type": "uint256"
        }
      ],
      "stateMutability": "view",
      "type": "function"
    },
    {
      "inputs": [
        {
          "internalType": "uint256",
          "name": "_pid",
          "type": "uint256"
        }
      ],
      "name": "emergencyWithdraw",
      "outputs": [],
      "stateMutability": "nonpayable",
      "type": "function"
    },
    {
      "inputs": [],
      "name": "enableClaimBlock",
      "outputs": [
        {
          "internalType": "uint256",
          "name": "",
          "type": "uint256"
        }
      ],
      "stateMutability": "view",
      "type": "function"
    },
    {
      "inputs": [
        {
          "internalType": "uint256",
          "name": "_power",
          "type": "uint256"
        }
      ],
      "name": "getLemdPerBlock",
      "outputs": [
        {
          "internalType": "uint256",
          "name": "",
          "type": "uint256"
        }
      ],
      "stateMutability": "view",
      "type": "function"
    },
    {
      "inputs": [
        {
          "internalType": "uint256",
          "name": "_from",
          "type": "uint256"
        },
        {
          "internalType": "uint256",
          "name": "_to",
          "type": "uint256"
        }
      ],
      "name": "getMultiplier",
      "outputs": [
        {
          "internalType": "uint256",
          "name": "",
          "type": "uint256"
        }
      ],
      "stateMutability": "pure",
      "type": "function"
    },
    {
      "inputs": [],
      "name": "lemd",
      "outputs": [
        {
          "internalType": "contract LemdToken",
          "name": "",
          "type": "address"
        }
      ],
      "stateMutability": "view",
      "type": "function"
    },
    {
      "inputs": [],
      "name": "lemdPerBlock",
      "outputs": [
        {
          "internalType": "uint256",
          "name": "",
          "type": "uint256"
        }
      ],
      "stateMutability": "view",
      "type": "function"
    },
    {
      "inputs": [],
      "name": "massUpdatePools",
      "outputs": [],
      "stateMutability": "nonpayable",
      "type": "function"
    },
    {
      "inputs": [
        {
          "internalType": "uint256",
          "name": "_pid",
          "type": "uint256"
        },
        {
          "internalType": "uint256",
          "name": "_targetPid",
          "type": "uint256"
        },
        {
          "internalType": "uint256",
          "name": "begin",
          "type": "uint256"
        }
      ],
      "name": "migrate",
      "outputs": [],
      "stateMutability": "nonpayable",
      "type": "function"
    },
    {
      "inputs": [],
      "name": "owner",
      "outputs": [
        {
          "internalType": "address",
          "name": "",
          "type": "address"
        }
      ],
      "stateMutability": "view",
      "type": "function"
    },
    {
      "inputs": [
        {
          "internalType": "uint256",
          "name": "_pid",
          "type": "uint256"
        },
        {
          "internalType": "address",
          "name": "_user",
          "type": "address"
        }
      ],
      "name": "pendingLemd",
      "outputs": [
        {
          "internalType": "uint256",
          "name": "",
          "type": "uint256"
        }
      ],
      "stateMutability": "view",
      "type": "function"
    },
    {
      "inputs": [
        {
          "internalType": "uint256",
          "name": "",
          "type": "uint256"
        }
      ],
      "name": "poolInfo",
      "outputs": [
        {
          "internalType": "contract IERC20",
          "name": "lpToken",
          "type": "address"
        },
        {
          "internalType": "uint256",
          "name": "allocPoint",
          "type": "uint256"
        },
        {
          "internalType": "uint256",
          "name": "lastRewardBlock",
          "type": "uint256"
        },
        {
          "internalType": "uint256",
          "name": "accLemdPerShare",
          "type": "uint256"
        },
        {
          "internalType": "uint256",
          "name": "totalDeposit",
          "type": "uint256"
        },
        {
          "internalType": "contract IMigrator",
          "name": "migrator",
          "type": "address"
        }
      ],
      "stateMutability": "view",
      "type": "function"
    },
    {
      "inputs": [],
      "name": "poolLength",
      "outputs": [
        {
          "internalType": "uint256",
          "name": "",
          "type": "uint256"
        }
      ],
      "stateMutability": "view",
      "type": "function"
    },
    {
      "inputs": [],
      "name": "reduceIntervalBlock",
      "outputs": [
        {
          "internalType": "uint256",
          "name": "",
          "type": "uint256"
        }
      ],
      "stateMutability": "view",
      "type": "function"
    },
    {
      "inputs": [],
      "name": "reduceRate",
      "outputs": [
        {
          "internalType": "uint256",
          "name": "",
          "type": "uint256"
        }
      ],
      "stateMutability": "view",
      "type": "function"
    },
    {
      "inputs": [],
      "name": "renounceOwnership",
      "outputs": [],
      "stateMutability": "nonpayable",
      "type": "function"
    },
    {
      "inputs": [
        {
          "internalType": "uint256",
          "name": "_pid",
          "type": "uint256"
        }
      ],
      "name": "replaceMigrate",
      "outputs": [],
      "stateMutability": "nonpayable",
      "type": "function"
    },
    {
      "inputs": [
        {
          "internalType": "uint256",
          "name": "_pid",
          "type": "uint256"
        },
        {
          "internalType": "uint256",
          "name": "_allocPoint",
          "type": "uint256"
        },
        {
          "internalType": "bool",
          "name": "_withUpdate",
          "type": "bool"
        }
      ],
      "name": "setAllocPoint",
      "outputs": [],
      "stateMutability": "nonpayable",
      "type": "function"
    },
    {
      "inputs": [
        {
          "internalType": "address",
          "name": "_devAddr",
          "type": "address"
        }
      ],
      "name": "setDevAddr",
      "outputs": [],
      "stateMutability": "nonpayable",
      "type": "function"
    },
    {
      "inputs": [
        {
          "internalType": "uint256",
          "name": "_devMiningRate",
          "type": "uint256"
        }
      ],
      "name": "setDevMiningRate",
      "outputs": [],
      "stateMutability": "nonpayable",
      "type": "function"
    },
    {
      "inputs": [
        {
          "internalType": "uint256",
          "name": "_enableClaimBlock",
          "type": "uint256"
        }
      ],
      "name": "setEnableClaimBlock",
      "outputs": [],
      "stateMutability": "nonpayable",
      "type": "function"
    },
    {
      "inputs": [
        {
          "internalType": "uint256",
          "name": "_pid",
          "type": "uint256"
        },
        {
          "internalType": "contract IMigrator",
          "name": "_migrator",
          "type": "address"
        }
      ],
      "name": "setMigrator",
      "outputs": [],
      "stateMutability": "nonpayable",
      "type": "function"
    },
    {
      "inputs": [
        {
          "internalType": "uint256",
          "name": "_reduceIntervalBlock",
          "type": "uint256"
        },
        {
          "internalType": "bool",
          "name": "_withUpdate",
          "type": "bool"
        }
      ],
      "name": "setReduceIntervalBlock",
      "outputs": [],
      "stateMutability": "nonpayable",
      "type": "function"
    },
    {
      "inputs": [
        {
          "internalType": "uint256",
          "name": "_reduceRate",
          "type": "uint256"
        },
        {
          "internalType": "bool",
          "name": "_withUpdate",
          "type": "bool"
        }
      ],
      "name": "setReduceRate",
      "outputs": [],
      "stateMutability": "nonpayable",
      "type": "function"
    },
    {
      "inputs": [
        {
          "internalType": "uint256",
          "name": "_pid",
          "type": "uint256"
        },
        {
          "internalType": "uint256",
          "name": "_amount",
          "type": "uint256"
        }
      ],
      "name": "stake",
      "outputs": [],
      "stateMutability": "nonpayable",
      "type": "function"
    },
    {
      "inputs": [],
      "name": "startBlock",
      "outputs": [
        {
          "internalType": "uint256",
          "name": "",
          "type": "uint256"
        }
      ],
      "stateMutability": "view",
      "type": "function"
    },
    {
      "inputs": [],
      "name": "totalAllocPoint",
      "outputs": [
        {
          "internalType": "uint256",
          "name": "",
          "type": "uint256"
        }
      ],
      "stateMutability": "view",
      "type": "function"
    },
    {
      "inputs": [
        {
          "internalType": "address",
          "name": "newOwner",
          "type": "address"
        }
      ],
      "name": "transferOwnership",
      "outputs": [],
      "stateMutability": "nonpayable",
      "type": "function"
    },
    {
      "inputs": [
        {
          "internalType": "uint256",
          "name": "_pid",
          "type": "uint256"
        },
        {
          "internalType": "uint256",
          "name": "_amount",
          "type": "uint256"
        }
      ],
      "name": "unStake",
      "outputs": [],
      "stateMutability": "nonpayable",
      "type": "function"
    },
    {
      "inputs": [
        {
          "internalType": "uint256",
          "name": "_pid",
          "type": "uint256"
        }
      ],
      "name": "updatePool",
      "outputs": [],
      "stateMutability": "nonpayable",
      "type": "function"
    },
    {
      "inputs": [
        {
          "internalType": "uint256",
          "name": "",
          "type": "uint256"
        },
        {
          "internalType": "uint256",
          "name": "",
          "type": "uint256"
        }
      ],
      "name": "userAddresses",
      "outputs": [
        {
          "internalType": "address",
          "name": "",
          "type": "address"
        }
      ],
      "stateMutability": "view",
      "type": "function"
    },
    {
      "inputs": [
        {
          "internalType": "uint256",
          "name": "",
          "type": "uint256"
        },
        {
          "internalType": "address",
          "name": "",
          "type": "address"
        }
      ],
      "name": "userInfo",
      "outputs": [
        {
          "internalType": "uint256",
          "name": "amount",
          "type": "uint256"
        },
        {
          "internalType": "uint256",
          "name": "rewardDebt",
          "type": "uint256"
        },
        {
          "internalType": "uint256",
          "name": "pendingReward",
          "type": "uint256"
        },
        {
          "internalType": "bool",
          "name": "unStakeBeforeEnableClaim",
          "type": "bool"
        }
      ],
      "stateMutability": "view",
      "type": "function"
    },
    {
      "inputs": [
        {
          "internalType": "uint256",
          "name": "_pid",
          "type": "uint256"
        }
      ],
      "name": "usersLength",
      "outputs": [
        {
          "internalType": "uint256",
          "name": "",
          "type": "uint256"
        }
      ],
      "stateMutability": "view",
      "type": "function"
    }
  ],
  "bytecode": "0x60806040523480156200001157600080fd5b5060405162002d4038038062002d4083398181016040526101008110156200003857600080fd5b508051602082015160408301516060840151608085015160a086015160c087015160e0909701519596949593949293919290916000620000776200011a565b600080546001600160a01b0319166001600160a01b0383169081178255604051929350917f8be0079c531659141344cd1fd0a4f28419497f9722a3daafe3b4186f6b6457e0908290a350600180546001600160a01b03998a166001600160a01b03199182161790915560028054989099169716969096179096556004939093556005919091556007919091556008929092556003556006556000600c556200011e565b3390565b612c12806200012e6000396000f3fe608060405234801561001057600080fd5b50600436106102275760003560e01c8063630b5ba111610130578063a0f99203116100b8578063c71b4b431161007c578063c71b4b43146105ff578063da09c72c1461063d578063eb60157e14610645578063f2fde38b1461064d578063f4844dff1461067357610227565b8063a0f9920314610566578063a16e853914610591578063a29c1ee9146105bd578063af8feca8146105da578063b5e48cf9146105f757610227565b806388c95018116100ff57806388c95018146104985780638da5cb5b146104c15780638dbb1e3a146104c957806393a53a3f146104ec57806393f1a40b1461051257610227565b8063630b5ba11461043f5780636ebb64a214610447578063715018a61461046d5780637b0472f01461047557610227565b80633ce7f63d116101b3578063512001b111610182578063512001b11461038457806351eb05a6146103a95780635312ea8e146103c657806355513d1f146103e3578063565e77d51461042257610227565b80633ce7f63d1461034f57806341ae82ca146103575780634404f9071461035f57806348cd4cb11461037c57610227565b8063275a91de116101fa578063275a91de146102b457806330cd8eda146102e2578063372caeb8146102ea578063379607f51461030d5780633c5868981461032a57610227565b8063081e3eda1461022c5780631526fe2714610246578063167ff50b146102a457806317caf6f1146102ac575b600080fd5b610234610690565b60408051918252519081900360200190f35b6102636004803603602081101561025c57600080fd5b5035610696565b604080516001600160a01b0397881681526020810196909652858101949094526060850192909252608084015290921660a082015290519081900360c00190f35b6102346106e6565b6102346106ec565b6102e0600480360360408110156102ca57600080fd5b50803590602001356001600160a01b03166106f2565b005b61023461079b565b6102e06004803603604081101561030057600080fd5b50803590602001356107a1565b6102e06004803603602081101561032357600080fd5b5035610966565b6102e06004803603604081101561034057600080fd5b50803590602001351515610aad565b610234610b23565b610234610b29565b6102e06004803603602081101561037557600080fd5b5035610b2f565b610234610e39565b6102e06004803603604081101561039a57600080fd5b50803590602001351515610e3f565b6102e0600480360360208110156103bf57600080fd5b5035610eb5565b6102e0600480360360208110156103dc57600080fd5b5035611131565b610406600480360360408110156103f957600080fd5b50803590602001356111e1565b604080516001600160a01b039092168252519081900360200190f35b6102346004803603602081101561043857600080fd5b5035611216565b6102e061122b565b6102e06004803603602081101561045d57600080fd5b50356001600160a01b031661124e565b6102e06112d2565b6102e06004803603604081101561048b57600080fd5b508035906020013561137e565b6102e0600480360360608110156104ae57600080fd5b5080359060208101359060400135611515565b6104066119e3565b610234600480360360408110156104df57600080fd5b50803590602001356119f2565b6102346004803603602081101561050257600080fd5b50356001600160a01b0316611a07565b61053e6004803603604081101561052857600080fd5b50803590602001356001600160a01b0316611a3b565b6040805194855260208501939093528383019190915215156060830152519081900360800190f35b6102e06004803603606081101561057c57600080fd5b50803590602081013590604001351515611a70565b610234600480360360408110156105a757600080fd5b50803590602001356001600160a01b0316611b4b565b610234600480360360208110156105d357600080fd5b5035611b57565b6102e0600480360360208110156105f057600080fd5b5035611ba2565b610234611c09565b6102e06004803603608081101561061557600080fd5b508035906001600160a01b036020820135811691604081013590911690606001351515611c0f565b610406611e0c565b610406611e1b565b6102e06004803603602081101561066357600080fd5b50356001600160a01b0316611e2a565b6102e06004803603602081101561068957600080fd5b5035611f2c565b60095490565b600981815481106106a357fe5b60009182526020909120600690910201805460018201546002830154600384015460048501546005909501546001600160a01b0394851696509294919390921686565b60035481565b600c5481565b6106fa611f93565b6001600160a01b031661070b6119e3565b6001600160a01b031614610754576040805162461bcd60e51b81526020600482018190526024820152600080516020612b5d833981519152604482015290519081900360640190fd5b806009838154811061076257fe5b906000526020600020906006020160050160006101000a8154816001600160a01b0302191690836001600160a01b031602179055505050565b60075481565b6000600983815481106107b057fe5b60009182526020808320868452600a825260408085203386529092529220805460069092029092019250831115610822576040805162461bcd60e51b81526020600482015260116024820152701d5b94dd185ad94e881b9bdd0819dbdbd9607a1b604482015290519081900360640190fd5b61082b84610eb5565b6000610865826001015461085f64e8d4a5100061085987600301548760000154611f9790919063ffffffff16565b90611ff0565b90612057565b905080156108c95743600654116108a55761088033826120b4565b6002820154156108a0576108983383600201546120b4565b600060028301555b6108c9565b60028201546108b49082612245565b600283015560038201805460ff191660011790555b83156109085782546108e5906001600160a01b0316338661229f565b81546108f19085612057565b825560048301546109029085612057565b60048401555b600383015482546109239164e8d4a510009161085991611f97565b6001830155604080518581529051869133917f54a9763035584fc4fcad1bc4e0e7a83f93e016f50ae32bd527530a77257393ee9181900360200190a35050505050565b4360065411156109b2576040805162461bcd60e51b8152602060048201526012602482015271746f6f206561726c7920746f20636c61696d60701b604482015290519081900360640190fd5b6000600982815481106109c157fe5b60009182526020808320858452600a825260408085203386529092529220600690910290910191506109f283610eb5565b805415610a3b576000610a27826001015461085f64e8d4a5100061085987600301548760000154611f9790919063ffffffff16565b90508015610a3957610a3933826120b4565b505b600281015415610a5b57610a533382600201546120b4565b600060028201555b60038201548154610a769164e8d4a510009161085991611f97565b6001820155604051839033907f47cee97cb7acd717b3c0aa1435d004cd5b3c8c57d70dbceb4e4458bbd60e39d490600090a3505050565b610ab5611f93565b6001600160a01b0316610ac66119e3565b6001600160a01b031614610b0f576040805162461bcd60e51b81526020600482018190526024820152600080516020612b5d833981519152604482015290519081900360640190fd5b8015610b1d57610b1d61122b565b50600755565b60065481565b60045481565b610b37611f93565b6001600160a01b0316610b486119e3565b6001600160a01b031614610b91576040805162461bcd60e51b81526020600482018190526024820152600080516020612b5d833981519152604482015290519081900360640190fd5b600060098281548110610ba057fe5b6000918252602090912060069091020160058101549091506001600160a01b031680610c0a576040805162461bcd60e51b815260206004820152601460248201527336b4b3b930ba329d1037379036b4b3b930ba37b960611b604482015290519081900360640190fd5b8154604080516370a0823160e01b815230600482015290516001600160a01b039092169160009183916370a0823191602480820192602092909190829003018186803b158015610c5957600080fd5b505afa158015610c6d573d6000803e3d6000fd5b505050506040513d6020811015610c8357600080fd5b50519050610c9b6001600160a01b03831684836122f1565b600080846001600160a01b0316636336cc61856040518263ffffffff1660e01b815260040180826001600160a01b031681526020019150506040805180830381600087803b158015610cec57600080fd5b505af1158015610d00573d6000803e3d6000fd5b505050506040513d6040811015610d1657600080fd5b508051602091820151604080516370a0823160e01b815230600482015290519295509093506001600160a01b038516926370a0823192602480840193829003018186803b158015610d6657600080fd5b505afa158015610d7a573d6000803e3d6000fd5b505050506040513d6020811015610d9057600080fd5b50518314610dd4576040805162461bcd60e51b815260206004820152600c60248201526b1b5a59dc985d194e8818985960a21b604482015290519081900360640190fd5b85546001600160a01b0319166001600160a01b0383811691909117875560408051898152602081018690528151928816927f02ac0adb3d0746a176fe1c8557b1ee08d84b9bf5ac79cd08e2d5275c600d2d53929181900390910190a250505050505050565b60055481565b610e47611f93565b6001600160a01b0316610e586119e3565b6001600160a01b031614610ea1576040805162461bcd60e51b81526020600482018190526024820152600080516020612b5d833981519152604482015290519081900360640190fd5b8015610eaf57610eaf61122b565b50600855565b600060098281548110610ec457fe5b9060005260206000209060060201905080600201544311610ee5575061112e565b8054604080516370a0823160e01b815230600482015290516000926001600160a01b0316916370a08231916024808301926020929190829003018186803b158015610f2f57600080fd5b505afa158015610f43573d6000803e3d6000fd5b505050506040513d6020811015610f5957600080fd5b50516040805180820190915260088152676c70537570706c7960c01b6020820152909150610f879082612404565b80610f9957504360029091015561112e565b6000610fb66007546108596005544361205790919063ffffffff16565b90506000610fc88460020154436119f2565b90506000610ff3600c546108598760010154610fed610fe688611b57565b8790611f97565b90611f97565b6001546002546003549293506001600160a01b03918216926340c10f19929091169061102790606490610859908790611f97565b6040518363ffffffff1660e01b815260040180836001600160a01b0316815260200182815260200192505050600060405180830381600087803b15801561106d57600080fd5b505af1158015611081573d6000803e3d6000fd5b5050600154604080516340c10f1960e01b81523060048201526024810186905290516001600160a01b0390921693506340c10f19925060448082019260009290919082900301818387803b1580156110d857600080fd5b505af11580156110ec573d6000803e3d6000fd5b5050505061111a61110f8561085964e8d4a5100085611f9790919063ffffffff16565b600387015490612245565b600386015550504360029093019290925550505b50565b60006009828154811061114057fe5b60009182526020808320858452600a82526040808520338087529352909320805460069093029093018054909450611185916001600160a01b0391909116908361229f565b8154600484015461119591612057565b600484015560008083556001830155604080518281529051859133917fbb757047c2b5f3974fe26b7c10f732e7bce710b0952a71082702781e62ae05959181900360200190a350505050565b600b60205281600052604060002081815481106111fa57fe5b6000918252602090912001546001600160a01b03169150829050565b6000818152600b60205260409020545b919050565b60095460005b8181101561124a5761124281610eb5565b600101611231565b5050565b611256611f93565b6001600160a01b03166112676119e3565b6001600160a01b0316146112b0576040805162461bcd60e51b81526020600482018190526024820152600080516020612b5d833981519152604482015290519081900360640190fd5b600280546001600160a01b0319166001600160a01b0392909216919091179055565b6112da611f93565b6001600160a01b03166112eb6119e3565b6001600160a01b031614611334576040805162461bcd60e51b81526020600482018190526024820152600080516020612b5d833981519152604482015290519081900360640190fd5b600080546040516001600160a01b03909116907f8be0079c531659141344cd1fd0a4f28419497f9722a3daafe3b4186f6b6457e0908390a3600080546001600160a01b0319169055565b60006009838154811061138d57fe5b60009182526020808320868452600a825260408085203386529092529220600690910290910191506113be84610eb5565b80541561144a5760006113f3826001015461085f64e8d4a5100061085987600301548760000154611f9790919063ffffffff16565b905080156114485743600654116114335761140e33826120b4565b60028201541561142e576114263383600201546120b4565b600060028301555b611448565b60028201546114429082612245565b60028301555b505b82156114b8578154611467906001600160a01b03163330866124b2565b80546114739084612245565b815560048201546114849084612245565b60048301556000848152600b602090815260408220805460018101825590835291200180546001600160a01b031916331790555b600382015481546114d39164e8d4a510009161085991611f97565b6001820155604080518481529051859133917f5af417134f72a9d41143ace85b0a26dce6f550f894f2cbc1eeee8810603d91b69181900360200190a350505050565b61151d611f93565b6001600160a01b031661152e6119e3565b6001600160a01b031614611577576040805162461bcd60e51b81526020600482018190526024820152600080516020612b5d833981519152604482015290519081900360640190fd5b6000838152600b602052604090205481106115d0576040805162461bcd60e51b815260206004820152601460248201527336b4b3b930ba329d103132b3b4b71032b93937b960611b604482015290519081900360640190fd5b6000600984815481106115df57fe5b6000918252602090912060069091020160058101549091506001600160a01b031680611649576040805162461bcd60e51b815260206004820152601460248201527336b4b3b930ba329d1037379036b4b3b930ba37b960611b604482015290519081900360640190fd5b8154604080516370a0823160e01b815230600482015290516001600160a01b039092169160009183916370a0823191602480820192602092909190829003018186803b15801561169857600080fd5b505afa1580156116ac573d6000803e3d6000fd5b505050506040513d60208110156116c257600080fd5b505190506116da6001600160a01b03831684836122f1565b600080846001600160a01b031663ce5494bb856040518263ffffffff1660e01b815260040180826001600160a01b031681526020019150506040805180830381600087803b15801561172b57600080fd5b505af115801561173f573d6000803e3d6000fd5b505050506040513d604081101561175557600080fd5b508051602090910151600980549294509092506000918a90811061177557fe5b6000918252602090912060069091020180549091506001600160a01b038481169116146117d8576040805162461bcd60e51b815260206004820152600c60248201526b1b5a59dc985d194e8818985960a21b604482015290519081900360640190fd5b60006117ed856108598564e8d4a51000611f97565b9050885b6117fc8a6014612245565b8110156119895760008c8152600b602052604090205481101561197c576118228b610eb5565b60008c8152600b6020526040812080548390811061183c57fe5b9060005260206000200160009054906101000a90046001600160a01b031690506000600a60008f81526020019081526020016000206000836001600160a01b03166001600160a01b0316815260200190815260200160002090506000600a60008f81526020019081526020016000206000846001600160a01b03166001600160a01b03168152602001908152602001600020905060008260000154116118e457505050611981565b81546000906118fe9064e8d4a51000906108599089611f97565b825490915061190d9082612245565b825560018301546119389061192d9064e8d4a5100090610859908a611f97565b600184015490612245565b6001830155600487015461194c9082612245565b6004808901919091558354908e015461196491612057565b60048e01555050600060018201819055905550611981565b611989565b6001016117f1565b50604080518c8152602081018c905280820187905290516001600160a01b038916917fc47a839c70aa320457c80c5abd38ce8b516c72e37be119b7962f67f1f8eb7ac2919081900360600190a25050505050505050505050565b6000546001600160a01b031690565b60006119fe8284612057565b90505b92915050565b600080805b600954811015611a3457611a2a611a238286612512565b8390612245565b9150600101611a0c565b5092915050565b600a60209081526000928352604080842090915290825290208054600182015460028301546003909301549192909160ff1684565b611a78611f93565b6001600160a01b0316611a896119e3565b6001600160a01b031614611ad2576040805162461bcd60e51b81526020600482018190526024820152600080516020612b5d833981519152604482015290519081900360640190fd5b8015611ae057611ae061122b565b611b1d82611b1760098681548110611af457fe5b906000526020600020906006020160010154600c5461205790919063ffffffff16565b90612245565b600c819055508160098481548110611b3157fe5b906000526020600020906006020160010181905550505050565b60006119fe8383612512565b600081611b675750600454611226565b60045460005b83811015611b9a57611b906103e861085960085485611f9790919063ffffffff16565b9150600101611b6d565b509050611226565b611baa611f93565b6001600160a01b0316611bbb6119e3565b6001600160a01b031614611c04576040805162461bcd60e51b81526020600482018190526024820152600080516020612b5d833981519152604482015290519081900360640190fd5b600355565b60085481565b611c17611f93565b6001600160a01b0316611c286119e3565b6001600160a01b031614611c71576040805162461bcd60e51b81526020600482018190526024820152600080516020612b5d833981519152604482015290519081900360640190fd5b8015611c7f57611c7f61122b565b60006005544311611c9257600554611c94565b435b600c54909150611ca49086612245565b600c819055611cb390866127c2565b6040805160c0810182526001600160a01b039586168152602081019687529081019182526000606082018181526080830182815295871660a08401908152600980546001810182559352925160069092027f6e1540171b6c0c960b71a7020d9f60077f6af931a8bbf590da0223dacf75c7af810180549389166001600160a01b031994851617905597517f6e1540171b6c0c960b71a7020d9f60077f6af931a8bbf590da0223dacf75c7b089015592517f6e1540171b6c0c960b71a7020d9f60077f6af931a8bbf590da0223dacf75c7b188015591517f6e1540171b6c0c960b71a7020d9f60077f6af931a8bbf590da0223dacf75c7b287015592517f6e1540171b6c0c960b71a7020d9f60077f6af931a8bbf590da0223dacf75c7b386015591517f6e1540171b6c0c960b71a7020d9f60077f6af931a8bbf590da0223dacf75c7b49094018054949093169390911692909217905550565b6002546001600160a01b031681565b6001546001600160a01b031681565b611e32611f93565b6001600160a01b0316611e436119e3565b6001600160a01b031614611e8c576040805162461bcd60e51b81526020600482018190526024820152600080516020612b5d833981519152604482015290519081900360640190fd5b6001600160a01b038116611ed15760405162461bcd60e51b8152600401808060200182810382526026815260200180612af06026913960400191505060405180910390fd5b600080546040516001600160a01b03808516939216917f8be0079c531659141344cd1fd0a4f28419497f9722a3daafe3b4186f6b6457e091a3600080546001600160a01b0319166001600160a01b0392909216919091179055565b611f34611f93565b6001600160a01b0316611f456119e3565b6001600160a01b031614611f8e576040805162461bcd60e51b81526020600482018190526024820152600080516020612b5d833981519152604482015290519081900360640190fd5b600655565b3390565b600082611fa657506000611a01565b82820282848281611fb357fe5b04146119fe5760405162461bcd60e51b8152600401808060200182810382526021815260200180612b3c6021913960400191505060405180910390fd5b6000808211612046576040805162461bcd60e51b815260206004820152601a60248201527f536166654d6174683a206469766973696f6e206279207a65726f000000000000604482015290519081900360640190fd5b81838161204f57fe5b049392505050565b6000828211156120ae576040805162461bcd60e51b815260206004820152601e60248201527f536166654d6174683a207375627472616374696f6e206f766572666c6f770000604482015290519081900360640190fd5b50900390565b600154604080516370a0823160e01b815230600482015290516000926001600160a01b0316916370a08231916024808301926020929190829003018186803b1580156120ff57600080fd5b505afa158015612113573d6000803e3d6000fd5b505050506040513d602081101561212957600080fd5b50519050808211156121bd576001546040805163a9059cbb60e01b81526001600160a01b038681166004830152602482018590529151919092169163a9059cbb9160448083019260209291908290030181600087803b15801561218b57600080fd5b505af115801561219f573d6000803e3d6000fd5b505050506040513d60208110156121b557600080fd5b506122409050565b6001546040805163a9059cbb60e01b81526001600160a01b038681166004830152602482018690529151919092169163a9059cbb9160448083019260209291908290030181600087803b15801561221357600080fd5b505af1158015612227573d6000803e3d6000fd5b505050506040513d602081101561223d57600080fd5b50505b505050565b6000828201838110156119fe576040805162461bcd60e51b815260206004820152601b60248201527f536166654d6174683a206164646974696f6e206f766572666c6f770000000000604482015290519081900360640190fd5b604080516001600160a01b038416602482015260448082018490528251808303909101815260649091019091526020810180516001600160e01b031663a9059cbb60e01b179052612240908490612809565b801580612377575060408051636eb1769f60e11b81523060048201526001600160a01b03848116602483015291519185169163dd62ed3e91604480820192602092909190829003018186803b15801561234957600080fd5b505afa15801561235d573d6000803e3d6000fd5b505050506040513d602081101561237357600080fd5b5051155b6123b25760405162461bcd60e51b8152600401808060200182810382526036815260200180612ba76036913960400191505060405180910390fd5b604080516001600160a01b038416602482015260448082018490528251808303909101815260649091019091526020810180516001600160e01b031663095ea7b360e01b179052612240908490612809565b61124a82826040516024018080602001838152602001828103825284818151815260200191508051906020019080838360005b8381101561244f578181015183820152602001612437565b50505050905090810190601f16801561247c5780820380516001836020036101000a031916815260200191505b5060408051601f198184030181529190526020810180516001600160e01b03166309710a9d60e41b17905293506128ba92505050565b604080516001600160a01b0380861660248301528416604482015260648082018490528251808303909101815260849091019091526020810180516001600160e01b03166323b872dd60e01b17905261250c908590612809565b50505050565b6000806009848154811061252257fe5b60009182526020808320878452600a825260408085206001600160a01b0389811687529084528186206006959095029092016003810154815483516370a0823160e01b815230600482015293519298509596909590949316926370a082319260248082019391829003018186803b15801561259c57600080fd5b505afa1580156125b0573d6000803e3d6000fd5b505050506040513d60208110156125c657600080fd5b50516002850154909150431180156125dd57508015155b1561273857600080612604600754610859600554896002015461205790919063ffffffff16565b905060006126236007546108596005544361205790919063ffffffff16565b90508082141561266b57600061263d8860020154436119f2565b905061266361265c600c546108598b60010154610fed610fe688611b57565b8590612245565b93505061271c565b815b81811161271a576000838214156126bd576126b689600201546126b1600161085f6126a8600754610fed60018c61224590919063ffffffff16565b60055490612245565b6119f2565b90506126eb565b828214156126e6576126b66126e06126a860075486611f9790919063ffffffff16565b436119f2565b506007545b61270f612708600c546108598c60010154610fed610fe688611b57565b8690612245565b94505060010161266d565b505b612732612708856108598664e8d4a51000611f97565b94505050505b6000612762846001015461085f64e8d4a51000610859878960000154611f9790919063ffffffff16565b905043600654111561278a57600284015461277e908290612245565b95505050505050611a01565b600084600201541180156127a25750600384015460ff165b156127b757600284015461277e908290612245565b979650505050505050565b604080516024810184905260448082018490528251808303909101815260649091019091526020810180516001600160e01b031662d81ed360e71b17905261124a906128ba565b606061285e826040518060400160405280602081526020017f5361666545524332303a206c6f772d6c6576656c2063616c6c206661696c6564815250856001600160a01b03166128db9092919063ffffffff16565b8051909150156122405780806020019051602081101561287d57600080fd5b50516122405760405162461bcd60e51b815260040180806020018281038252602a815260200180612b7d602a913960400191505060405180910390fd5b80516a636f6e736f6c652e6c6f67602083016000808483855afa5050505050565b60606128ea84846000856128f4565b90505b9392505050565b6060824710156129355760405162461bcd60e51b8152600401808060200182810382526026815260200180612b166026913960400191505060405180910390fd5b61293e85612a45565b61298f576040805162461bcd60e51b815260206004820152601d60248201527f416464726573733a2063616c6c20746f206e6f6e2d636f6e7472616374000000604482015290519081900360640190fd5b60006060866001600160a01b031685876040518082805190602001908083835b602083106129ce5780518252601f1990920191602091820191016129af565b6001836020036101000a03801982511681845116808217855250505050505090500191505060006040518083038185875af1925050503d8060008114612a30576040519150601f19603f3d011682016040523d82523d6000602084013e612a35565b606091505b50915091506127b7828286612a4b565b3b151590565b60608315612a5a5750816128ed565b825115612a6a5782518084602001fd5b8160405162461bcd60e51b81526004018080602001828103825283818151815260200191508051906020019080838360005b83811015612ab4578181015183820152602001612a9c565b50505050905090810190601f168015612ae15780820380516001836020036101000a031916815260200191505b509250505060405180910390fdfe4f776e61626c653a206e6577206f776e657220697320746865207a65726f2061646472657373416464726573733a20696e73756666696369656e742062616c616e636520666f722063616c6c536166654d6174683a206d756c7469706c69636174696f6e206f766572666c6f774f776e61626c653a2063616c6c6572206973206e6f7420746865206f776e65725361666545524332303a204552433230206f7065726174696f6e20646964206e6f7420737563636565645361666545524332303a20617070726f76652066726f6d206e6f6e2d7a65726f20746f206e6f6e2d7a65726f20616c6c6f77616e6365a2646970667358221220d082305fffed0737cbf6d4ff67525357e5eaaa2c189ff162e6f9128a94f7383764736f6c634300060c0033",
  "linkReferences": {},
  "deployedLinkReferences": {}
}